{
  "contractName": "BaseAggregator",
  "abi": [
    {
      "constant": true,
      "inputs": [],
      "name": "userContract",
      "outputs": [
        {
          "name": "",
          "type": "address"
        }
      ],
      "payable": false,
      "stateMutability": "view",
      "type": "function"
    },
    {
      "constant": true,
      "inputs": [],
      "name": "aggregatorName",
      "outputs": [
        {
          "name": "",
          "type": "string"
        }
      ],
      "payable": false,
      "stateMutability": "view",
      "type": "function"
    },
    {
      "constant": true,
      "inputs": [],
      "name": "notifiersKey",
      "outputs": [
        {
          "name": "",
          "type": "string"
        }
      ],
      "payable": false,
      "stateMutability": "view",
      "type": "function"
    },
    {
      "constant": true,
      "inputs": [],
      "name": "signaturit",
      "outputs": [
        {
          "name": "",
          "type": "address"
        }
      ],
      "payable": false,
      "stateMutability": "view",
      "type": "function"
    },
    {
      "inputs": [
        {
          "name": "aggregatorString",
          "type": "string"
        },
        {
          "name": "notifiersString",
          "type": "string"
        }
      ],
      "payable": false,
      "stateMutability": "nonpayable",
      "type": "constructor"
    },
    {
      "constant": false,
      "inputs": [
        {
          "name": "userContractAddress",
          "type": "address"
        }
      ],
      "name": "setOnUser",
      "outputs": [],
      "payable": false,
      "stateMutability": "nonpayable",
      "type": "function"
    }
  ],
  "bytecode": "0x608060405234801561001057600080fd5b506040516106b73803806106b78339810180604052604081101561003357600080fd5b81019080805164010000000081111561004b57600080fd5b8201602081018481111561005e57600080fd5b815164010000000081118282018710171561007857600080fd5b5050929190602001805164010000000081111561009457600080fd5b820160208101848111156100a757600080fd5b81516401000000008111828201871017156100c157600080fd5b505060018054600160a060020a0319163317905584519093506100ed9250600291506020850190610109565b508051610101906003906020840190610109565b5050506101a4565b828054600181600116156101000203166002900490600052602060002090601f016020900481019282601f1061014a57805160ff1916838001178555610177565b82800160010185558215610177579182015b8281111561017757825182559160200191906001019061015c565b50610183929150610187565b5090565b6101a191905b80821115610183576000815560010161018d565b90565b610504806101b36000396000f3fe6080604052600436106100535763ffffffff60e060020a6000350416635000596b8114610058578063984eec3714610089578063d9026ed114610113578063dfb3753e14610128578063f9b533351461015d575b600080fd5b34801561006457600080fd5b5061006d610172565b60408051600160a060020a039092168252519081900360200190f35b34801561009557600080fd5b5061009e610181565b6040805160208082528351818301528351919283929083019185019080838360005b838110156100d85781810151838201526020016100c0565b50505050905090810190601f1680156101055780820380516001836020036101000a031916815260200191505b509250505060405180910390f35b34801561011f57600080fd5b5061009e61020c565b34801561013457600080fd5b5061015b6004803603602081101561014b57600080fd5b5035600160a060020a0316610267565b005b34801561016957600080fd5b5061006d6104c9565b600054600160a060020a031681565b6002805460408051602060018416156101000260001901909316849004601f810184900484028201840190925281815292918301828280156102045780601f106101d957610100808354040283529160200191610204565b820191906000526020600020905b8154815290600101906020018083116101e757829003601f168201915b505050505081565b6003805460408051602060026001851615610100026000190190941693909304601f810184900484028201840190925281815292918301828280156102045780601f106101d957610100808354040283529160200191610204565b600154600160a060020a031632146102e4576040805160e560020a62461bcd02815260206004820152602f60248201527f4f6e6c79205369676e617475726974206163636f756e742063616e20706572666044820152608960020a6e37b936903a3434b99030b1ba34b7b702606482015290519081900360840190fd5b60008054600160a060020a031916600160a060020a0383811691909117918290556040805160e160020a631a188ec70281523060248201819052600482019283526002805461010060018216150260001901168190046044840181905295909416946334311d8e949391928291606490910190859080156103a65780601f1061037b576101008083540402835291602001916103a6565b820191906000526020600020905b81548152906001019060200180831161038957829003601f168201915b50509350505050600060405180830381600087803b1580156103c757600080fd5b505af11580156103db573d6000803e3d6000fd5b50506000546040805160e360020a631acc3f0f028152306024820181905260048201928352600380546002600019600183161561010002019091160460448401819052600160a060020a03909516965063d661f87895509390929182916064909101908590801561048d5780601f106104625761010080835404028352916020019161048d565b820191906000526020600020905b81548152906001019060200180831161047057829003601f168201915b50509350505050600060405180830381600087803b1580156104ae57600080fd5b505af11580156104c2573d6000803e3d6000fd5b5050505050565b600154600160a060020a03168156fea165627a7a72305820cd464b4fd8c0f1ebb05f897b9d79ac3c7e4b3715fa1811929084b6946555c2b20029",
  "source": "pragma solidity <0.6.0;\n\nimport \"./interfaces/SignaturitUserInterface.sol\";\n\n\ncontract BaseAggregator {\n    SignaturitUserInterface public userContract;\n\n    address public signaturit;\n\n    string public aggregatorName;\n    string public notifiersKey;\n\n    modifier signaturitOnly () {\n        require(\n            tx.origin == signaturit,\n            \"Only Signaturit account can perform this action\"\n        );\n\n        _;\n    }\n\n    constructor(\n        string memory aggregatorString,\n        string memory notifiersString\n    ) public {\n        signaturit = msg.sender;\n\n        aggregatorName = aggregatorString;\n        notifiersKey = notifiersString;\n    }\n\n    function setOnUser(\n        address userContractAddress\n    )\n        public\n        signaturitOnly\n    {\n        userContract = SignaturitUserInterface(userContractAddress);\n\n        userContract.setAddressAttribute(\n            aggregatorName,\n            address(this)\n        );\n\n        userContract.setAddressArrayAttribute(\n            notifiersKey,\n            address(this)\n        );\n    }\n}",
  "sourcePath": "/Users/alex/workspace/signaturit-solidity-contracts/contracts/BaseAggregator.sol",
  "compiler": {
    "name": "solc",
    "version": "0.5.0+commit.1d4f565a.Emscripten.clang"
  },
  "schemaVersion": "3.0.13",
  "updatedAt": "2019-10-10T12:55:24.687Z",
  "devdoc": {
    "methods": {}
  },
  "userdoc": {
    "methods": {}
  }
}