{
  "contractName": "BaseAggregator",
  "abi": [
    {
      "constant": true,
      "inputs": [],
      "name": "userContract",
      "outputs": [
        {
          "name": "",
          "type": "address"
        }
      ],
      "payable": false,
      "stateMutability": "view",
      "type": "function"
    },
    {
      "constant": true,
      "inputs": [],
      "name": "aggregatorName",
      "outputs": [
        {
          "name": "",
          "type": "string"
        }
      ],
      "payable": false,
      "stateMutability": "view",
      "type": "function"
    },
    {
      "constant": true,
      "inputs": [],
      "name": "notifiersKey",
      "outputs": [
        {
          "name": "",
          "type": "string"
        }
      ],
      "payable": false,
      "stateMutability": "view",
      "type": "function"
    },
    {
      "constant": true,
      "inputs": [],
      "name": "signaturit",
      "outputs": [
        {
          "name": "",
          "type": "address"
        }
      ],
      "payable": false,
      "stateMutability": "view",
      "type": "function"
    },
    {
      "inputs": [
        {
          "name": "userContractAddress",
          "type": "address"
        },
        {
          "name": "aggregatorString",
          "type": "string"
        },
        {
          "name": "notifiersString",
          "type": "string"
        }
      ],
      "payable": false,
      "stateMutability": "nonpayable",
      "type": "constructor"
    }
  ],
  "bytecode": "0x608060405234801561001057600080fd5b5060405161062d38038061062d8339810180604052606081101561003357600080fd5b81516020830180519193928301929164010000000081111561005457600080fd5b8201602081018481111561006757600080fd5b815164010000000081118282018710171561008157600080fd5b5050929190602001805164010000000081111561009d57600080fd5b820160208101848111156100b057600080fd5b81516401000000008111828201871017156100ca57600080fd5b505060018054600160a060020a0319163317905584519093506100f69250600291506020850190610321565b50805161010a906003906020840190610321565b5060008054600160a060020a031916600160a060020a038581169190911791829055604080517f34311d8e0000000000000000000000000000000000000000000000000000000081523060248201819052600482019283526002805461010060018216150260001901168190046044840181905295909416946334311d8e949391928291606490910190859080156101e35780601f106101b8576101008083540402835291602001916101e3565b820191906000526020600020905b8154815290600101906020018083116101c657829003601f168201915b50509350505050600060405180830381600087803b15801561020457600080fd5b505af1158015610218573d6000803e3d6000fd5b5050600054604080517fd661f878000000000000000000000000000000000000000000000000000000008152306024820181905260048201928352600380546002600019600183161561010002019091160460448401819052600160a060020a03909516965063d661f8789550939092918291606490910190859080156102e05780601f106102b5576101008083540402835291602001916102e0565b820191906000526020600020905b8154815290600101906020018083116102c357829003601f168201915b50509350505050600060405180830381600087803b15801561030157600080fd5b505af1158015610315573d6000803e3d6000fd5b505050505050506103bc565b828054600181600116156101000203166002900490600052602060002090601f016020900481019282601f1061036257805160ff191683800117855561038f565b8280016001018555821561038f579182015b8281111561038f578251825591602001919060010190610374565b5061039b92915061039f565b5090565b6103b991905b8082111561039b57600081556001016103a5565b90565b610262806103cb6000396000f3fe6080604052600436106100485763ffffffff60e060020a6000350416635000596b811461004d578063984eec371461007e578063d9026ed114610108578063f9b533351461011d575b600080fd5b34801561005957600080fd5b50610062610132565b60408051600160a060020a039092168252519081900360200190f35b34801561008a57600080fd5b50610093610141565b6040805160208082528351818301528351919283929083019185019080838360005b838110156100cd5781810151838201526020016100b5565b50505050905090810190601f1680156100fa5780820380516001836020036101000a031916815260200191505b509250505060405180910390f35b34801561011457600080fd5b506100936101cc565b34801561012957600080fd5b50610062610227565b600054600160a060020a031681565b6002805460408051602060018416156101000260001901909316849004601f810184900484028201840190925281815292918301828280156101c45780601f10610199576101008083540402835291602001916101c4565b820191906000526020600020905b8154815290600101906020018083116101a757829003601f168201915b505050505081565b6003805460408051602060026001851615610100026000190190941693909304601f810184900484028201840190925281815292918301828280156101c45780601f10610199576101008083540402835291602001916101c4565b600154600160a060020a03168156fea165627a7a72305820adc09c426aeafb7a87a54bcdeacf0c433b97c53edb76d012b9e7bf52e15b3f830029",
  "source": "pragma solidity <0.6.0;\n\nimport \"./interfaces/SignaturitUserInterface.sol\";\n\n\ncontract BaseAggregator {\n    SignaturitUserInterface public userContract;\n\n    address public signaturit;\n\n    string public aggregatorName;\n    string public notifiersKey;\n\n    modifier signaturitOnly () {\n        require(\n            tx.origin == signaturit,\n            \"Only Signaturit account can perform this action\"\n        );\n\n        _;\n    }\n\n    constructor(\n        address userContractAddress,\n        string memory aggregatorString,\n        string memory notifiersString\n    ) public {\n        signaturit = msg.sender;\n\n        aggregatorName = aggregatorString;\n        notifiersKey = notifiersString;\n\n        userContract = SignaturitUserInterface(userContractAddress);\n\n        userContract.setAddressAttribute(\n            aggregatorName,\n            address(this)\n        );\n\n        userContract.setAddressArrayAttribute(\n            notifiersKey,\n            address(this)\n        );\n    }\n}",
  "sourcePath": "/home/administrator/workspace/signaturit-solidity-contracts/contracts/BaseAggregator.sol",
  "compiler": {
    "name": "solc",
    "version": "0.5.0+commit.1d4f565a.Emscripten.clang"
  },
  "schemaVersion": "3.0.11",
  "updatedAt": "2019-10-16T13:50:03.056Z",
  "devdoc": {
    "methods": {}
  },
  "userdoc": {
    "methods": {}
  }
}