{
  "contractName": "CertifiedEmail",
  "abi": [
    {
      "constant": true,
      "inputs": [],
      "name": "owner",
      "outputs": [
        {
          "name": "",
          "type": "address"
        }
      ],
      "payable": false,
      "stateMutability": "view",
      "type": "function"
    },
    {
      "constant": true,
      "inputs": [],
      "name": "deliveryType",
      "outputs": [
        {
          "name": "",
          "type": "string"
        }
      ],
      "payable": false,
      "stateMutability": "view",
      "type": "function"
    },
    {
      "constant": true,
      "inputs": [],
      "name": "id",
      "outputs": [
        {
          "name": "",
          "type": "string"
        }
      ],
      "payable": false,
      "stateMutability": "view",
      "type": "function"
    },
    {
      "constant": true,
      "inputs": [],
      "name": "userSmartContract",
      "outputs": [
        {
          "name": "",
          "type": "address"
        }
      ],
      "payable": false,
      "stateMutability": "view",
      "type": "function"
    },
    {
      "constant": true,
      "inputs": [],
      "name": "subjectHash",
      "outputs": [
        {
          "name": "",
          "type": "string"
        }
      ],
      "payable": false,
      "stateMutability": "view",
      "type": "function"
    },
    {
      "constant": true,
      "inputs": [],
      "name": "bodyHash",
      "outputs": [
        {
          "name": "",
          "type": "string"
        }
      ],
      "payable": false,
      "stateMutability": "view",
      "type": "function"
    },
    {
      "constant": true,
      "inputs": [],
      "name": "createdAt",
      "outputs": [
        {
          "name": "",
          "type": "uint256"
        }
      ],
      "payable": false,
      "stateMutability": "view",
      "type": "function"
    },
    {
      "constant": true,
      "inputs": [
        {
          "name": "",
          "type": "uint256"
        }
      ],
      "name": "certificatesId",
      "outputs": [
        {
          "name": "",
          "type": "string"
        }
      ],
      "payable": false,
      "stateMutability": "view",
      "type": "function"
    },
    {
      "constant": true,
      "inputs": [],
      "name": "deployer",
      "outputs": [
        {
          "name": "",
          "type": "address"
        }
      ],
      "payable": false,
      "stateMutability": "view",
      "type": "function"
    },
    {
      "constant": true,
      "inputs": [],
      "name": "signaturit",
      "outputs": [
        {
          "name": "",
          "type": "address"
        }
      ],
      "payable": false,
      "stateMutability": "view",
      "type": "function"
    },
    {
      "inputs": [
        {
          "name": "certifiedEmailId",
          "type": "string"
        },
        {
          "name": "certifiedEmailSubjectHash",
          "type": "string"
        },
        {
          "name": "certifiedEmailBodyHash",
          "type": "string"
        },
        {
          "name": "certifiedEmailDeliveryType",
          "type": "string"
        },
        {
          "name": "certifiedEmailCreatedAt",
          "type": "uint256"
        },
        {
          "name": "certifiedEmailDeployer",
          "type": "address"
        }
      ],
      "payable": false,
      "stateMutability": "nonpayable",
      "type": "constructor"
    },
    {
      "constant": false,
      "inputs": [
        {
          "name": "certifiedEmailOwner",
          "type": "address"
        },
        {
          "name": "userSmartContractAddress",
          "type": "address"
        }
      ],
      "name": "setCertifiedEmailOwner",
      "outputs": [],
      "payable": false,
      "stateMutability": "nonpayable",
      "type": "function"
    },
    {
      "constant": false,
      "inputs": [
        {
          "name": "certificateId",
          "type": "string"
        },
        {
          "name": "certificateCreatedAt",
          "type": "uint256"
        },
        {
          "name": "certificateOwner",
          "type": "address"
        }
      ],
      "name": "createCertificate",
      "outputs": [],
      "payable": false,
      "stateMutability": "nonpayable",
      "type": "function"
    },
    {
      "constant": false,
      "inputs": [
        {
          "name": "certificateId",
          "type": "string"
        },
        {
          "name": "eventId",
          "type": "string"
        },
        {
          "name": "eventType",
          "type": "string"
        },
        {
          "name": "eventUserAgent",
          "type": "string"
        },
        {
          "name": "eventCreatedAt",
          "type": "uint256"
        }
      ],
      "name": "createEvent",
      "outputs": [],
      "payable": false,
      "stateMutability": "nonpayable",
      "type": "function"
    },
    {
      "constant": false,
      "inputs": [
        {
          "name": "certificateId",
          "type": "string"
        },
        {
          "name": "fileHash",
          "type": "string"
        },
        {
          "name": "fileId",
          "type": "string"
        },
        {
          "name": "fileName",
          "type": "string"
        },
        {
          "name": "fileCreatedAt",
          "type": "uint256"
        },
        {
          "name": "fileSize",
          "type": "uint256"
        }
      ],
      "name": "createFile",
      "outputs": [],
      "payable": false,
      "stateMutability": "nonpayable",
      "type": "function"
    },
    {
      "constant": true,
      "inputs": [
        {
          "name": "certificateId",
          "type": "string"
        }
      ],
      "name": "getCertificate",
      "outputs": [
        {
          "name": "",
          "type": "address"
        }
      ],
      "payable": false,
      "stateMutability": "view",
      "type": "function"
    },
    {
      "constant": true,
      "inputs": [
        {
          "name": "certificateId",
          "type": "string"
        },
        {
          "name": "eventId",
          "type": "string"
        }
      ],
      "name": "getEvent",
      "outputs": [
        {
          "name": "",
          "type": "address"
        }
      ],
      "payable": false,
      "stateMutability": "view",
      "type": "function"
    },
    {
      "constant": true,
      "inputs": [
        {
          "name": "certificateId",
          "type": "string"
        }
      ],
      "name": "getFile",
      "outputs": [
        {
          "name": "",
          "type": "address"
        }
      ],
      "payable": false,
      "stateMutability": "view",
      "type": "function"
    },
    {
      "constant": true,
      "inputs": [],
      "name": "getCertificatesSize",
      "outputs": [
        {
          "name": "",
          "type": "uint256"
        }
      ],
      "payable": false,
      "stateMutability": "view",
      "type": "function"
    }
  ],
  "bytecode": "0x60806040523480156200001157600080fd5b50604051620023b0380380620023b0833981018060405260c08110156200003757600080fd5b8101908080516401000000008111156200005057600080fd5b820160208101848111156200006457600080fd5b81516401000000008111828201871017156200007f57600080fd5b505092919060200180516401000000008111156200009c57600080fd5b82016020810184811115620000b057600080fd5b8151640100000000811182820187101715620000cb57600080fd5b50509291906020018051640100000000811115620000e857600080fd5b82016020810184811115620000fc57600080fd5b81516401000000008111828201871017156200011757600080fd5b505092919060200180516401000000008111156200013457600080fd5b820160208101848111156200014857600080fd5b81516401000000008111828201871017156200016357600080fd5b505060208083015160409093015188519295509293506200018a91600e9189019062000207565b508451620001a090600f90602088019062000207565b508351620001b690601090602087019062000207565b508251620001cc90601190602086019062000207565b50601391909155600c8054600160a060020a03909216600160a060020a0319928316179055600b80549091163317905550620002ac92505050565b828054600181600116156101000203166002900490600052602060002090601f016020900481019282601f106200024a57805160ff19168380011785556200027a565b828001600101855582156200027a579182015b828111156200027a5782518255916020019190600101906200025d565b50620002889291506200028c565b5090565b620002a991905b8082111562000288576000815560010162000293565b90565b6120f480620002bc6000396000f3fe6080604052600436106100e25763ffffffff60e060020a600035041663426f9f7781146100e757806354715390146101245780637f2e5806146103695780638da5cb5b1461039057806391eea19d146103c1578063af640d0f1461044b578063b38f8f5714610460578063bdcf5b8e1461051f578063c004240c14610761578063c1a9118414610776578063c918ef381461078b578063ce57b4a0146108c1578063cf09e0d0146108d6578063d30f0dac146108eb578063d5f3948814610915578063e0876aa81461092a578063ed0f2e75146109db578063f9b5333514610a8c575b600080fd5b3480156100f357600080fd5b506101226004803603604081101561010a57600080fd5b50600160a060020a0381358116916020013516610aa1565b005b34801561013057600080fd5b50610122600480360360c081101561014757600080fd5b810190602081018135602060020a81111561016157600080fd5b82018360208201111561017357600080fd5b803590602001918460018302840111602060020a8311171561019457600080fd5b91908080601f0160208091040260200160405190810160405280939291908181526020018383808284376000920191909152509295949360208101935035915050602060020a8111156101e657600080fd5b8201836020820111156101f857600080fd5b803590602001918460018302840111602060020a8311171561021957600080fd5b91908080601f0160208091040260200160405190810160405280939291908181526020018383808284376000920191909152509295949360208101935035915050602060020a81111561026b57600080fd5b82018360208201111561027d57600080fd5b803590602001918460018302840111602060020a8311171561029e57600080fd5b91908080601f0160208091040260200160405190810160405280939291908181526020018383808284376000920191909152509295949360208101935035915050602060020a8111156102f057600080fd5b82018360208201111561030257600080fd5b803590602001918460018302840111602060020a8311171561032357600080fd5b91908080601f0160208091040260200160405190810160405280939291908181526020018383808284376000920191909152509295505082359350505060200135610c1d565b34801561037557600080fd5b5061037e610fb6565b60408051918252519081900360200190f35b34801561039c57600080fd5b506103a5610fbd565b60408051600160a060020a039092168252519081900360200190f35b3480156103cd57600080fd5b506103d6610fcc565b6040805160208082528351818301528351919283929083019185019080838360005b838110156104105781810151838201526020016103f8565b50505050905090810190601f16801561043d5780820380516001836020036101000a031916815260200191505b509250505060405180910390f35b34801561045757600080fd5b506103d661105a565b34801561046c57600080fd5b506101226004803603606081101561048357600080fd5b810190602081018135602060020a81111561049d57600080fd5b8201836020820111156104af57600080fd5b803590602001918460018302840111602060020a831117156104d057600080fd5b91908080601f0160208091040260200160405190810160405280939291908181526020018383808284376000920191909152509295505082359350505060200135600160a060020a03166110b5565b34801561052b57600080fd5b50610122600480360360a081101561054257600080fd5b810190602081018135602060020a81111561055c57600080fd5b82018360208201111561056e57600080fd5b803590602001918460018302840111602060020a8311171561058f57600080fd5b91908080601f0160208091040260200160405190810160405280939291908181526020018383808284376000920191909152509295949360208101935035915050602060020a8111156105e157600080fd5b8201836020820111156105f357600080fd5b803590602001918460018302840111602060020a8311171561061457600080fd5b91908080601f0160208091040260200160405190810160405280939291908181526020018383808284376000920191909152509295949360208101935035915050602060020a81111561066657600080fd5b82018360208201111561067857600080fd5b803590602001918460018302840111602060020a8311171561069957600080fd5b91908080601f0160208091040260200160405190810160405280939291908181526020018383808284376000920191909152509295949360208101935035915050602060020a8111156106eb57600080fd5b8201836020820111156106fd57600080fd5b803590602001918460018302840111602060020a8311171561071e57600080fd5b91908080601f0160208091040260200160405190810160405280939291908181526020018383808284376000920191909152509295505091359250611257915050565b34801561076d57600080fd5b506103a5611643565b34801561078257600080fd5b506103d6611652565b34801561079757600080fd5b506103a5600480360360408110156107ae57600080fd5b810190602081018135602060020a8111156107c857600080fd5b8201836020820111156107da57600080fd5b803590602001918460018302840111602060020a831117156107fb57600080fd5b91908080601f0160208091040260200160405190810160405280939291908181526020018383808284376000920191909152509295949360208101935035915050602060020a81111561084d57600080fd5b82018360208201111561085f57600080fd5b803590602001918460018302840111602060020a8311171561088057600080fd5b91908080601f0160208091040260200160405190810160405280939291908181526020018383808284376000920191909152509295506116ad945050505050565b3480156108cd57600080fd5b506103d66118b7565b3480156108e257600080fd5b5061037e611912565b3480156108f757600080fd5b506103d66004803603602081101561090e57600080fd5b5035611918565b34801561092157600080fd5b506103a561198c565b34801561093657600080fd5b506103a56004803603602081101561094d57600080fd5b810190602081018135602060020a81111561096757600080fd5b82018360208201111561097957600080fd5b803590602001918460018302840111602060020a8311171561099a57600080fd5b91908080601f01602080910402602001604051908101604052809392919081815260200183838082843760009201919091525092955061199b945050505050565b3480156109e757600080fd5b506103a5600480360360208110156109fe57600080fd5b810190602081018135602060020a811115610a1857600080fd5b820183602082011115610a2a57600080fd5b803590602001918460018302840111602060020a83111715610a4b57600080fd5b91908080601f016020809104026020016040519081016040528093929190818152602001838380828437600092019190915250929550611b3c945050505050565b348015610a9857600080fd5b506103a5611c0c565b600b54600160a060020a03163314610b0c576040805160e560020a62461bcd02815260206004820152602f60248201526000805160206120a98339815191526044820152608960020a6e37b936903a3434b99030b1ba34b7b702606482015290519081900360840190fd5b600d8054600160a060020a03808516600160a060020a03199283161790925560148054848416921691909117908190556040805160e060020a63aaa7f4f9028152306004820181815260248301938452600e80546002600019600183161561010002019091160460448501819052959096169563aaa7f4f99592949093919290916064019084908015610be05780601f10610bb557610100808354040283529160200191610be0565b820191906000526020600020905b815481529060010190602001808311610bc357829003601f168201915b50509350505050600060405180830381600087803b158015610c0157600080fd5b505af1158015610c15573d6000803e3d6000fd5b505050505050565b600b54600160a060020a03163314610c88576040805160e560020a62461bcd02815260206004820152602f60248201526000805160206120a98339815191526044820152608960020a6e37b936903a3434b99030b1ba34b7b702606482015290519081900360840190fd5b6000610c9387611c1b565b905080600160a060020a0316636bee1e1b87878787876040518663ffffffff1660e060020a02815260040180806020018060200180602001868152602001858152602001848103845289818151815260200191508051906020019080838360005b83811015610d0c578181015183820152602001610cf4565b50505050905090810190601f168015610d395780820380516001836020036101000a031916815260200191505b5084810383528851815288516020918201918a019080838360005b83811015610d6c578181015183820152602001610d54565b50505050905090810190601f168015610d995780820380516001836020036101000a031916815260200191505b50848103825287518152875160209182019189019080838360005b83811015610dcc578181015183820152602001610db4565b50505050905090810190601f168015610df95780820380516001836020036101000a031916815260200191505b5098505050505050505050600060405180830381600087803b158015610e1e57600080fd5b505af1158015610e32573d6000803e3d6000fd5b50505050600081600160a060020a0316638525855d6040518163ffffffff1660e060020a02815260040160206040518083038186803b158015610e7457600080fd5b505afa158015610e88573d6000803e3d6000fd5b505050506040513d6020811015610e9e57600080fd5b50519050600160a060020a0381161515610f1a576040805160e560020a62461bcd02815260206004820152602c60248201527f4572726f72207768696c652072657472696576696e672066696c652066726f6d604482015260a060020a6b20636572746966696361746502606482015290519081900360840190fd5b6014546040805160e460020a630c0a715d028152600160a060020a03848116602483015260048201839052600f6044830152608a60020a6e18d95c9d1a599a595917d95b585a5b0260648301529151919092169163c0a715d091608480830192600092919082900301818387803b158015610f9457600080fd5b505af1158015610fa8573d6000803e3d6000fd5b505050505050505050505050565b6012545b90565b600d54600160a060020a031681565b6011805460408051602060026001851615610100026000190190941693909304601f810184900484028201840190925281815292918301828280156110525780601f1061102757610100808354040283529160200191611052565b820191906000526020600020905b81548152906001019060200180831161103557829003601f168201915b505050505081565b600e805460408051602060026001851615610100026000190190941693909304601f810184900484028201840190925281815292918301828280156110525780601f1061102757610100808354040283529160200191611052565b600b54600160a060020a03163314611120576040805160e560020a62461bcd02815260206004820152602f60248201526000805160206120a98339815191526044820152608960020a6e37b936903a3434b99030b1ba34b7b702606482015290519081900360840190fd5b600061112b84611c1b565b905080600160a060020a031663399ae72483856040518363ffffffff1660e060020a0281526004018083600160a060020a0316600160a060020a0316815260200182815260200192505050600060405180830381600087803b15801561119057600080fd5b505af11580156111a4573d6000803e3d6000fd5b50506014546040805160e060020a637c6ebde9028152600160a060020a0386811660048301529151919092169350637c6ebde99250602480830192600092919082900301818387803b1580156111f957600080fd5b505af115801561120d573d6000803e3d6000fd5b505060128054600181018083556000929092528751919350610c1592507fbb8a6a4669ba250d26cd7a459eca9d215f8307e33aebe50379bc5a3617ec344401906020880190611fd0565b600b54600160a060020a031633146112c2576040805160e560020a62461bcd02815260206004820152602f60248201526000805160206120a98339815191526044820152608960020a6e37b936903a3434b99030b1ba34b7b702606482015290519081900360840190fd5b60006112cd86611c1b565b905080600160a060020a031663de4cd842868686866040518563ffffffff1660e060020a02815260040180806020018060200180602001858152602001848103845288818151815260200191508051906020019080838360005b8381101561133f578181015183820152602001611327565b50505050905090810190601f16801561136c5780820380516001836020036101000a031916815260200191505b50848103835287518152875160209182019189019080838360005b8381101561139f578181015183820152602001611387565b50505050905090810190601f1680156113cc5780820380516001836020036101000a031916815260200191505b50848103825286518152865160209182019188019080838360005b838110156113ff5781810151838201526020016113e7565b50505050905090810190601f16801561142c5780820380516001836020036101000a031916815260200191505b50975050505050505050600060405180830381600087803b15801561145057600080fd5b505af1158015611464573d6000803e3d6000fd5b505060405160e060020a63e190206302815260206004820181815289516024840152895160009550600160a060020a038716945063e1902063938b938392604490920191908501908083838b5b838110156114c95781810151838201526020016114b1565b50505050905090810190601f1680156114f65780820380516001836020036101000a031916815260200191505b509250505060206040518083038186803b15801561151357600080fd5b505afa158015611527573d6000803e3d6000fd5b505050506040513d602081101561153d57600080fd5b50519050600160a060020a03811615156115a8576040805160e560020a62461bcd02815260206004820152602d60248201526000805160206120898339815191526044820152609860020a6c6d20636572746966696361746502606482015290519081900360840190fd5b6014546040805160e160020a630a52679d028152600160a060020a03848116602483015260048201839052600f6044830152608a60020a6e18d95c9d1a599a595917d95b585a5b026064830152915191909216916314a4cf3a91608480830192600092919082900301818387803b15801561162257600080fd5b505af1158015611636573d6000803e3d6000fd5b5050505050505050505050565b601454600160a060020a031681565b600f805460408051602060026001851615610100026000190190941693909304601f810184900484028201840190925281815292918301828280156110525780601f1061102757610100808354040283529160200191611052565b60006116b883611f49565b1515611712576040805160e560020a62461bcd02815260206004820152602a6024820152600080516020612069833981519152604482015260b260020a691cdb89dd08195e1a5cdd02606482015290519081900360840190fd5b60006015846040518082805190602001908083835b602083106117465780518252601f199092019160209182019101611727565b51815160209384036101000a600019018019909216911617905292019485525060405193849003810184205460e060020a63e190206302855260048501828152885160248701528851600160a060020a039092169563e19020639550899450909283926044909201919085019080838360005b838110156117d15781810151838201526020016117b9565b50505050905090810190601f1680156117fe5780820380516001836020036101000a031916815260200191505b509250505060206040518083038186803b15801561181b57600080fd5b505afa15801561182f573d6000803e3d6000fd5b505050506040513d602081101561184557600080fd5b50519050600160a060020a03811615156118b0576040805160e560020a62461bcd02815260206004820152602d60248201526000805160206120898339815191526044820152609860020a6c6d20636572746966696361746502606482015290519081900360840190fd5b9392505050565b6010805460408051602060026001851615610100026000190190941693909304601f810184900484028201840190925281815292918301828280156110525780601f1061102757610100808354040283529160200191611052565b60135481565b601280548290811061192657fe5b600091825260209182902001805460408051601f60026000196101006001871615020190941693909304928301859004850281018501909152818152935090918301828280156110525780601f1061102757610100808354040283529160200191611052565b600c54600160a060020a031681565b60006119a682611f49565b1515611a00576040805160e560020a62461bcd02815260206004820152602a6024820152600080516020612069833981519152604482015260b260020a691cdb89dd08195e1a5cdd02606482015290519081900360840190fd5b60006015836040518082805190602001908083835b60208310611a345780518252601f199092019160209182019101611a15565b51815160209384036101000a60001901801990921691161790529201948552506040805194859003820185205460e060020a638525855d0286529051600160a060020a0390911694638525855d94506004808201945090829003018186803b158015611a9f57600080fd5b505afa158015611ab3573d6000803e3d6000fd5b505050506040513d6020811015611ac957600080fd5b50519050600160a060020a0381161515611b34576040805160e560020a62461bcd02815260206004820152602d60248201526000805160206120898339815191526044820152609860020a6c6d20636572746966696361746502606482015290519081900360840190fd5b90505b919050565b6000611b4782611f49565b1515611b9d576040805160e560020a62461bcd02815260206004820152601e60248201527f5468697320636572746966696361746520646f65736e27742065786973740000604482015290519081900360640190fd5b6015826040518082805190602001908083835b60208310611bcf5780518252601f199092019160209182019101611bb0565b51815160209384036101000a6000190180199092169116179052920194855250604051938490030190922054600160a060020a0316949350505050565b600b54600160a060020a031681565b6000611c2682611f49565b15611c9c576015826040518082805190602001908083835b60208310611c5d5780518252601f199092019160209182019101611c3e565b51815160209384036101000a6000190180199092169116179052920194855250604051938490030190922054600160a060020a03169250611b37915050565b600c5460408051600160a060020a03909216604483018190526024830191825284516064840152845160009360609387928492829160849091019060208601908083838c5b83811015611cf9578181015183820152602001611ce1565b50505050905090810190601f168015611d265780820380516001836020036101000a031916815260200191505b5060408051601f19818403018152918152602082018051600160e060020a031660e060020a63547952cf0217815290518251929650945084935091508083835b60208310611d855780518252601f199092019160209182019101611d66565b6001836020036101000a038019825116818451168082178552505050505050905001915050600060405180830381855af49150503d8060008114611de5576040519150601f19603f3d011682016040523d82523d6000602084013e611dea565b606091505b5091509150811515611e53576040805160e560020a62461bcd02815260206004820152602160248201527f4572726f72207768696c65206465706c6f79696e672063657274696669636174604482015260f860020a606502606482015290519081900360840190fd5b611e5c81611fc9565b6015856040518082805190602001908083835b60208310611e8e5780518252601f199092019160209182019101611e6f565b51815160209384036101000a600019018019909216911617905292019485525060405193849003810184208054600160a060020a031916600160a060020a0396909616959095179094555050855160159287929182918401908083835b60208310611f0a5780518252601f199092019160209182019101611eeb565b51815160209384036101000a6000190180199092169116179052920194855250604051938490030190922054600160a060020a03169695505050505050565b600080600160a060020a03166015836040518082805190602001908083835b60208310611f875780518252601f199092019160209182019101611f68565b51815160209384036101000a6000190180199092169116179052920194855250604051938490030190922054600160a060020a03169290921415949350505050565b6020015190565b828054600181600116156101000203166002900490600052602060002090601f016020900481019282601f1061201157805160ff191683800117855561203e565b8280016001018555821561203e579182015b8281111561203e578251825591602001919060010190612023565b5061204a92915061204e565b5090565b610fba91905b8082111561204a576000815560010161205456fe5468652063657274696669636174652077697468207468697320696420646f654572726f72207768696c652072657472696576696e67206576656e742066726f4f6e6c79205369676e617475726974206163636f756e742063616e2070657266a165627a7a7230582041b610c1bf7676c6222b48246d1b6ca665fbe352ff4189e1b8cecefdc8aadab60029",
  "source": "pragma solidity <0.6.0;\n\n/*\nGas to deploy: 2.379.930\n*/\n\nimport \"./interfaces/CertifiedEmailInterface.sol\";\nimport \"./interfaces/UserInterface.sol\";\nimport \"./interfaces/CertificateInterface.sol\";\nimport \"./interfaces/EventInterface.sol\";\nimport \"./interfaces/FileInterface.sol\";\nimport \"./libraries/Utils.sol\";\n\n\ncontract CertifiedEmail is CertifiedEmailInterface {\n    address public signaturit;\n    address public deployer;\n    address public owner;\n\n    string public id;\n    string public subjectHash;\n    string public bodyHash;\n    string public deliveryType;\n\n    string[] public certificatesId;\n\n    uint public createdAt;\n\n    UserInterface public userSmartContract;\n\n    mapping(string => CertificateInterface) private certificates;\n\n    constructor(\n        string memory certifiedEmailId,\n        string memory certifiedEmailSubjectHash,\n        string memory certifiedEmailBodyHash,\n        string memory certifiedEmailDeliveryType,\n        uint certifiedEmailCreatedAt,\n        address certifiedEmailDeployer\n    ) public {\n        id = certifiedEmailId;\n        subjectHash = certifiedEmailSubjectHash;\n        bodyHash = certifiedEmailBodyHash;\n        deliveryType = certifiedEmailDeliveryType;\n        createdAt = certifiedEmailCreatedAt;\n        deployer = certifiedEmailDeployer;\n        signaturit = msg.sender;\n    }\n\n    modifier signaturitOnly () {\n        require(\n            signaturit == msg.sender,\n            \"Only Signaturit account can perform this action\"\n        );\n\n        _;\n    }\n\n    function setCertifiedEmailOwner(\n        address certifiedEmailOwner,\n        address userSmartContractAddress\n    )\n        public\n        signaturitOnly\n    {\n        owner = certifiedEmailOwner;\n\n        userSmartContract = UserInterface(userSmartContractAddress);\n\n        userSmartContract.addCertifiedEmail(address(this), id);\n    }\n\n    function createCertificate(\n        string memory certificateId,\n        uint certificateCreatedAt,\n        address certificateOwner\n    )\n        public\n        signaturitOnly\n    {\n        CertificateInterface certificate = _getCertificate(certificateId);\n\n        certificate.init(certificateOwner, certificateCreatedAt);\n\n        userSmartContract.addCertificate(address(certificate));\n\n        certificatesId.push(certificateId);\n    }\n\n    function createEvent(\n        string memory certificateId,\n        string memory eventId,\n        string memory eventType,\n        string memory eventUserAgent,\n        uint eventCreatedAt\n    )\n        public\n        signaturitOnly\n    {\n        CertificateInterface certificate = _getCertificate(certificateId);\n\n        certificate.createEvent(\n            eventId,\n            eventType,\n            eventUserAgent,\n            eventCreatedAt\n        );\n\n        EventInterface certifiedEmailEvent = certificate.getEvent(eventId);\n\n        require(\n            address(certifiedEmailEvent) != address(0),\n            \"Error while retrieving event from certificate\"\n        );\n\n        userSmartContract.addEvent(\n            \"certified_email\",\n            address(certifiedEmailEvent)\n        );\n    }\n\n    function createFile(\n        string memory certificateId,\n        string memory fileHash,\n        string memory fileId,\n        string memory fileName,\n        uint fileCreatedAt,\n        uint fileSize\n    )\n        public\n        signaturitOnly\n    {\n        CertificateInterface certificate = _getCertificate(certificateId);\n\n        certificate.createFile(\n            fileHash,\n            fileId,\n            fileName,\n            fileCreatedAt,\n            fileSize\n        );\n\n        FileInterface certifiedEmailFile = certificate.file();\n\n        require(\n            address(certifiedEmailFile) != address(0),\n            \"Error while retrieving file from certificate\"\n        );\n\n        userSmartContract.addFile(\n            \"certified_email\",\n            address(certifiedEmailFile)\n        );\n    }\n\n    function getCertificate (\n        string memory certificateId\n    )\n        public\n        view\n        returns (address)\n    {\n        require(\n            _certificateExist(certificateId),\n            \"This certificate doesn't exist\"\n        );\n\n        return address(certificates[certificateId]);\n    }\n\n    function getEvent(\n        string memory certificateId,\n        string memory eventId\n    )\n        public\n        view\n        returns (EventInterface)\n    {\n        require(\n            _certificateExist(certificateId),\n            \"The certificate with this id doesn't exist\"\n        );\n\n        EventInterface certifiedEmailEvent = certificates[certificateId].getEvent(\n            eventId\n        );\n\n        require(\n            address(certifiedEmailEvent) != address(0),\n            \"Error while retrieving event from certificate\"\n        );\n\n        return certifiedEmailEvent;\n    }\n\n    function getFile(\n        string memory certificateId\n    )\n        public\n        view\n        returns (FileInterface)\n    {\n        require(\n            _certificateExist(certificateId),\n            \"The certificate with this id doesn't exist\"\n        );\n\n        FileInterface certifiedEmailFile = certificates[certificateId].file();\n\n        require(\n            address(certifiedEmailFile) != address(0),\n            \"Error while retrieving event from certificate\"\n        );\n\n        return certifiedEmailFile;\n    }\n\n    function getCertificatesSize()\n        public\n        view\n        returns (uint)\n    {\n        return certificatesId.length;\n    }\n\n    function _certificateExist(\n        string memory certificateId\n    )\n        private\n        view\n        returns (bool)\n    {\n        return address(certificates[certificateId]) != address(0);\n    }\n\n    function _getCertificate(\n        string memory certificateId\n    )\n        private\n        returns (CertificateInterface)\n    {\n        if (_certificateExist(certificateId))\n            return certificates[certificateId];\n\n        (\n            bool success,\n            bytes memory returnData\n        ) = deployer.delegatecall(\n            abi.encodeWithSignature(\n                \"deployCertificate(string,address)\",\n                certificateId,\n                deployer\n            )\n        );\n\n        require(\n            success,\n            \"Error while deploying certificate\"\n        );\n\n        certificates[certificateId] = CertificateInterface(\n            Utils._bytesToAddress(returnData)\n        );\n\n        return certificates[certificateId];\n    }\n}\n",
  "sourcePath": "/Users/alex/workspace/signaturit-solidity-contracts/contracts/CertifiedEmail.sol",
  "compiler": {
    "name": "solc",
    "version": "0.5.0+commit.1d4f565a.Emscripten.clang"
  },
  "schemaVersion": "3.0.13",
  "updatedAt": "2019-08-30T15:18:25.734Z",
  "devdoc": {
    "methods": {}
  },
  "userdoc": {
    "methods": {}
  }
}