{
  "contractName": "CertifiedFile",
  "abi": [
    {
      "constant": true,
      "inputs": [],
      "name": "name",
      "outputs": [
        {
          "internalType": "string",
          "name": "",
          "type": "string"
        }
      ],
      "payable": false,
      "stateMutability": "view",
      "type": "function"
    },
    {
      "constant": true,
      "inputs": [],
      "name": "hash",
      "outputs": [
        {
          "internalType": "string",
          "name": "",
          "type": "string"
        }
      ],
      "payable": false,
      "stateMutability": "view",
      "type": "function"
    },
    {
      "constant": true,
      "inputs": [],
      "name": "owner",
      "outputs": [
        {
          "internalType": "address",
          "name": "",
          "type": "address"
        }
      ],
      "payable": false,
      "stateMutability": "view",
      "type": "function"
    },
    {
      "constant": true,
      "inputs": [],
      "name": "size",
      "outputs": [
        {
          "internalType": "uint256",
          "name": "",
          "type": "uint256"
        }
      ],
      "payable": false,
      "stateMutability": "view",
      "type": "function"
    },
    {
      "constant": true,
      "inputs": [],
      "name": "id",
      "outputs": [
        {
          "internalType": "string",
          "name": "",
          "type": "string"
        }
      ],
      "payable": false,
      "stateMutability": "view",
      "type": "function"
    },
    {
      "constant": true,
      "inputs": [],
      "name": "userSmartContract",
      "outputs": [
        {
          "internalType": "contract UserInterface",
          "name": "",
          "type": "address"
        }
      ],
      "payable": false,
      "stateMutability": "view",
      "type": "function"
    },
    {
      "constant": true,
      "inputs": [],
      "name": "createdAt",
      "outputs": [
        {
          "internalType": "uint256",
          "name": "",
          "type": "uint256"
        }
      ],
      "payable": false,
      "stateMutability": "view",
      "type": "function"
    },
    {
      "constant": true,
      "inputs": [],
      "name": "signaturit",
      "outputs": [
        {
          "internalType": "address",
          "name": "",
          "type": "address"
        }
      ],
      "payable": false,
      "stateMutability": "view",
      "type": "function"
    },
    {
      "inputs": [
        {
          "internalType": "address",
          "name": "fileOwner",
          "type": "address"
        },
        {
          "internalType": "address",
          "name": "userSmartContractAddress",
          "type": "address"
        },
        {
          "internalType": "string",
          "name": "fileId",
          "type": "string"
        },
        {
          "internalType": "string",
          "name": "fileName",
          "type": "string"
        },
        {
          "internalType": "string",
          "name": "fileHash",
          "type": "string"
        },
        {
          "internalType": "uint256",
          "name": "fileCreatedAt",
          "type": "uint256"
        },
        {
          "internalType": "uint256",
          "name": "fileSize",
          "type": "uint256"
        }
      ],
      "payable": false,
      "stateMutability": "nonpayable",
      "type": "constructor"
    }
  ],
  "bytecode": "0x608060405234801561001057600080fd5b5060405161077b38038061077b833981810160405260e081101561003357600080fd5b8151602083015160408085018051915193959294830192918464010000000082111561005e57600080fd5b90830190602082018581111561007357600080fd5b825164010000000081118282018810171561008d57600080fd5b82525081516020918201929091019080838360005b838110156100ba5781810151838201526020016100a2565b50505050905090810190601f1680156100e75780820380516001836020036101000a031916815260200191505b506040526020018051604051939291908464010000000082111561010a57600080fd5b90830190602082018581111561011f57600080fd5b825164010000000081118282018810171561013957600080fd5b82525081516020918201929091019080838360005b8381101561016657818101518382015260200161014e565b50505050905090810190601f1680156101935780820380516001836020036101000a031916815260200191505b50604052602001805160405193929190846401000000008211156101b657600080fd5b9083019060208201858111156101cb57600080fd5b82516401000000008111828201881017156101e557600080fd5b82525081516020918201929091019080838360005b838110156102125781810151838201526020016101fa565b50505050905090810190601f16801561023f5780820380516001836020036101000a031916815260200191505b50604090815260208281015192909101518751929450925061026691600a918801906103bf565b50835161027a90600b9060208701906103bf565b50825161028e90600c9060208601906103bf565b50600e819055600d82905560088054336001600160a01b0319918216179091556009805482166001600160a01b038a811691909117909155600f80549092168882161791829055604080517f758176080000000000000000000000000000000000000000000000000000000081523060048201818152602483019384528a5160448401528a51959094169463758176089491938b939091606490910190602085019080838360005b8381101561034e578181015183820152602001610336565b50505050905090810190601f16801561037b5780820380516001836020036101000a031916815260200191505b509350505050600060405180830381600087803b15801561039b57600080fd5b505af11580156103af573d6000803e3d6000fd5b505050505050505050505061045a565b828054600181600116156101000203166002900490600052602060002090601f016020900481019282601f1061040057805160ff191683800117855561042d565b8280016001018555821561042d579182015b8281111561042d578251825591602001919060010190610412565b5061043992915061043d565b5090565b61045791905b808211156104395760008155600101610443565b90565b610312806104696000396000f3fe608060405234801561001057600080fd5b50600436106100785760003560e01c806306fdde031461007d57806309bd5a60146100fa5780638da5cb5b14610102578063949d225d14610126578063af640d0f14610140578063c004240c14610148578063cf09e0d014610150578063f9b5333514610158575b600080fd5b610085610160565b6040805160208082528351818301528351919283929083019185019080838360005b838110156100bf5781810151838201526020016100a7565b50505050905090810190601f1680156100ec5780820380516001836020036101000a031916815260200191505b509250505060405180910390f35b6100856101ee565b61010a610249565b604080516001600160a01b039092168252519081900360200190f35b61012e610258565b60408051918252519081900360200190f35b61008561025e565b61010a6102b9565b61012e6102c8565b61010a6102ce565b600b805460408051602060026001851615610100026000190190941693909304601f810184900484028201840190925281815292918301828280156101e65780601f106101bb576101008083540402835291602001916101e6565b820191906000526020600020905b8154815290600101906020018083116101c957829003601f168201915b505050505081565b600c805460408051602060026001851615610100026000190190941693909304601f810184900484028201840190925281815292918301828280156101e65780601f106101bb576101008083540402835291602001916101e6565b6009546001600160a01b031681565b600e5481565b600a805460408051602060026001851615610100026000190190941693909304601f810184900484028201840190925281815292918301828280156101e65780601f106101bb576101008083540402835291602001916101e6565b600f546001600160a01b031681565b600d5481565b6008546001600160a01b03168156fea265627a7a72315820f4da5a4af1831d07ac2fd1ae55bf368adf0c56b6b99fd9e07695c94e8816992d64736f6c634300050b0032",
  "source": "pragma solidity <0.6.0;\n\n/*\nGas to deploy: 655.214\n*/\n\nimport \"./interfaces/CertifiedFileInterface.sol\";\nimport \"./interfaces/UserInterface.sol\";\n\n\ncontract CertifiedFile is CertifiedFileInterface {\n    address public signaturit;\n    address public owner;\n\n    string public id;\n    string public name;\n    string public hash;\n\n    uint public createdAt;\n    uint public size;\n\n    UserInterface public userSmartContract;\n\n    constructor(\n        address fileOwner,\n        address userSmartContractAddress,\n        string memory fileId,\n        string memory fileName,\n        string memory fileHash,\n        uint fileCreatedAt,\n        uint fileSize\n    )\n        public\n    {\n        id = fileId;\n        name = fileName;\n        hash = fileHash;\n        size = fileSize;\n        createdAt = fileCreatedAt;\n        signaturit = msg.sender;\n        owner = fileOwner;\n        userSmartContract = UserInterface(userSmartContractAddress);\n        userSmartContract.addCertifiedFile(address(this), fileId);\n    }\n}\n",
  "sourcePath": "/home/administrator/workspace/signaturit-solidity-contracts/contracts/CertifiedFile.sol",
  "compiler": {
    "name": "solc",
    "version": "0.5.11+commit.c082d0b4.Emscripten.clang"
  },
  "schemaVersion": "3.0.11",
  "updatedAt": "2019-08-29T15:50:01.431Z",
  "devdoc": {
    "methods": {}
  },
  "userdoc": {
    "methods": {}
  }
}