{
  "contractName": "CertifiedEmailAggregator",
  "abi": [
    {
      "constant": true,
      "inputs": [],
      "name": "userContract",
      "outputs": [
        {
          "name": "",
          "type": "address"
        }
      ],
      "payable": false,
      "stateMutability": "view",
      "type": "function"
    },
    {
      "constant": true,
      "inputs": [],
      "name": "aggregatorName",
      "outputs": [
        {
          "name": "",
          "type": "string"
        }
      ],
      "payable": false,
      "stateMutability": "view",
      "type": "function"
    },
    {
      "constant": true,
      "inputs": [],
      "name": "notifiersKey",
      "outputs": [
        {
          "name": "",
          "type": "string"
        }
      ],
      "payable": false,
      "stateMutability": "view",
      "type": "function"
    },
    {
      "constant": true,
      "inputs": [],
      "name": "signaturit",
      "outputs": [
        {
          "name": "",
          "type": "address"
        }
      ],
      "payable": false,
      "stateMutability": "view",
      "type": "function"
    },
    {
      "inputs": [
        {
          "name": "_userContractAddress",
          "type": "address"
        }
      ],
      "payable": false,
      "stateMutability": "nonpayable",
      "type": "constructor"
    },
    {
      "constant": true,
      "inputs": [
        {
          "name": "id",
          "type": "string"
        }
      ],
      "name": "getCertifiedEmailById",
      "outputs": [
        {
          "name": "",
          "type": "address"
        }
      ],
      "payable": false,
      "stateMutability": "view",
      "type": "function"
    },
    {
      "constant": true,
      "inputs": [
        {
          "name": "index",
          "type": "uint256"
        }
      ],
      "name": "getCertifiedEmail",
      "outputs": [
        {
          "name": "addr",
          "type": "address"
        },
        {
          "name": "more",
          "type": "bool"
        }
      ],
      "payable": false,
      "stateMutability": "view",
      "type": "function"
    },
    {
      "constant": true,
      "inputs": [],
      "name": "count",
      "outputs": [
        {
          "name": "",
          "type": "uint256"
        }
      ],
      "payable": false,
      "stateMutability": "view",
      "type": "function"
    },
    {
      "constant": false,
      "inputs": [
        {
          "name": "eventType",
          "type": "string"
        },
        {
          "name": "addr",
          "type": "address"
        }
      ],
      "name": "notify",
      "outputs": [],
      "payable": false,
      "stateMutability": "nonpayable",
      "type": "function"
    }
  ],
  "bytecode": "0x608060405234801561001057600080fd5b50604051602080610b448339810180604052602081101561003057600080fd5b5051604080518082018252601a81527f6365727469666965642d656d61696c2d61676772656761746f7200000000000060208281019182528351808501909452601984527f6365727469666965642d656d61696c2d6e6f74696669657273000000000000009084015260018054600160a060020a0319163317905581518493916100bd91600291906102e9565b5080516100d19060039060208401906102e9565b5060008054600160a060020a031916600160a060020a038581169190911791829055604080517f34311d8e0000000000000000000000000000000000000000000000000000000081523060248201819052600482019283526002805461010060018216150260001901168190046044840181905295909416946334311d8e949391928291606490910190859080156101aa5780601f1061017f576101008083540402835291602001916101aa565b820191906000526020600020905b81548152906001019060200180831161018d57829003601f168201915b50509350505050600060405180830381600087803b1580156101cb57600080fd5b505af11580156101df573d6000803e3d6000fd5b5050600054604080517fd661f878000000000000000000000000000000000000000000000000000000008152306024820181905260048201928352600380546002600019600183161561010002019091160460448401819052600160a060020a03909516965063d661f8789550939092918291606490910190859080156102a75780601f1061027c576101008083540402835291602001916102a7565b820191906000526020600020905b81548152906001019060200180831161028a57829003601f168201915b50509350505050600060405180830381600087803b1580156102c857600080fd5b505af11580156102dc573d6000803e3d6000fd5b5050505050505050610384565b828054600181600116156101000203166002900490600052602060002090601f016020900481019282601f1061032a57805160ff1916838001178555610357565b82800160010185558215610357579182015b8281111561035757825182559160200191906001019061033c565b50610363929150610367565b5090565b61038191905b80821115610363576000815560010161036d565b90565b6107b1806103936000396000f3fe6080604052600436106100745763ffffffff60e060020a60003504166306661abd811461007957806307158d5d146100a05780635000596b146100ed5780636d1ff7511461011e578063984eec37146101cf578063d9026ed114610259578063e71e65761461026e578063f9b533351461032c575b600080fd5b34801561008557600080fd5b5061008e610341565b60408051918252519081900360200190f35b3480156100ac57600080fd5b506100ca600480360360208110156100c357600080fd5b5035610347565b60408051600160a060020a03909316835290151560208301528051918290030190f35b3480156100f957600080fd5b506101026103be565b60408051600160a060020a039092168252519081900360200190f35b34801561012a57600080fd5b506101026004803603602081101561014157600080fd5b810190602081018135602060020a81111561015b57600080fd5b82018360208201111561016d57600080fd5b803590602001918460018302840111602060020a8311171561018e57600080fd5b91908080601f0160208091040260200160405190810160405280939291908181526020018383808284376000920191909152509295506103cd945050505050565b3480156101db57600080fd5b506101e46103f8565b6040805160208082528351818301528351919283929083019185019080838360005b8381101561021e578181015183820152602001610206565b50505050905090810190601f16801561024b5780820380516001836020036101000a031916815260200191505b509250505060405180910390f35b34801561026557600080fd5b506101e4610483565b34801561027a57600080fd5b5061032a6004803603604081101561029157600080fd5b810190602081018135602060020a8111156102ab57600080fd5b8201836020820111156102bd57600080fd5b803590602001918460018302840111602060020a831117156102de57600080fd5b91908080601f01602080910402602001604051908101604052809392919081815260200183838082843760009201919091525092955050509035600160a060020a031691506104de9050565b005b34801561033857600080fd5b506101026106e4565b60055490565b6005805460009182916001850181119183918690811061036357fe5b60009182526020808320909101548083526004909152604090912054909150600160a060020a0316156103b157600090815260046020526040902054600160a060020a0316925090506103b9565b506000925090505b915091565b600054600160a060020a031681565b6000806103d9836106f3565b600090815260046020526040902054600160a060020a03169392505050565b6002805460408051602060018416156101000260001901909316849004601f8101849004840282018401909252818152929183018282801561047b5780601f106104505761010080835404028352916020019161047b565b820191906000526020600020905b81548152906001019060200180831161045e57829003601f168201915b505050505081565b6003805460408051602060026001851615610100026000190190941693909304601f8101849004840282018401909252818152929183018282801561047b5780601f106104505761010080835404028352916020019161047b565b600154600160a060020a0316321461055b576040805160e560020a62461bcd02815260206004820152602f60248201527f4f6e6c79205369676e617475726974206163636f756e742063616e20706572666044820152608960020a6e37b936903a3434b99030b1ba34b7b702606482015290519081900360840190fd5b6000610566836106f3565b9050806105a76040805190810160405280602081526020017f6365727469666965645f656d61696c2e636f6e74726163742e637265617465648152506106f3565b14156106df576000829050600061068082600160a060020a031663af640d0f6040518163ffffffff1660e060020a02815260040160006040518083038186803b1580156105f357600080fd5b505afa158015610607573d6000803e3d6000fd5b505050506040513d6000823e601f3d908101601f19168201604052602081101561063057600080fd5b810190808051602060020a81111561064757600080fd5b8201602081018481111561065a57600080fd5b8151602060020a81118282018710171561067357600080fd5b50509291905050506106f3565b60058054600181019091557f036b6384b5eca791c62761152d0c79bb0604c104a5fb6f4eb0703f3154bb3db00181905560009081526004602052604090208054600160a060020a031916600160a060020a039390931692909217909155505b505050565b600154600160a060020a031681565b6000816040516020018080602001828103825283818151815260200191508051906020019080838360005b8381101561073657818101518382015260200161071e565b50505050905090810190601f1680156107635780820380516001836020036101000a031916815260200191505b509250505060405160208183030381529060405280519060200120905091905056fea165627a7a7230582045cb151e38ffddb5c9cd379a3e72fedf467ed6e586ed135703dfc3e7e0bb06df0029",
  "source": "pragma solidity <0.6.0;\n\n/*\nGas to deploy: 959.102\n*/\n\nimport \"./interfaces/NotifierInterface.sol\";\nimport \"./BaseAggregator.sol\";\nimport \"./CertifiedEmail.sol\";\n\ncontract CertifiedEmailAggregator is\n    NotifierInterface,\n    BaseAggregator\n{\n    string constant private CERTIFIED_EMAIL_CREATED_EVENT = \"certified_email.contract.created\";\n\n    mapping (bytes32 => CertifiedEmail) private certifiedEmails;\n    \n    bytes32[] private certifiedEmailIds;\n\n    constructor (\n        address _userContractAddress\n    )\n        public\n        BaseAggregator(\n            _userContractAddress,\n            \"certified-email-aggregator\",\n            \"certified-email-notifiers\"\n        )\n    {}\n\n    function getCertifiedEmailById(\n        string memory id\n    )\n        public\n        view\n        returns (address)\n    {\n        bytes32 bytes32id = Utils.keccak(id);\n\n        return address(certifiedEmails[bytes32id]);\n    }\n\n    function getCertifiedEmail(\n        uint index\n    )\n        public\n        view\n        returns (address addr, bool more)\n    {\n        bool _more = index + 1 < certifiedEmailIds.length;\n        bytes32 certifiedEmailId = certifiedEmailIds[index];\n\n        if (address(certifiedEmails[certifiedEmailId]) != address(0)) {\n            return (\n                address(certifiedEmails[certifiedEmailId]),\n                _more\n            );\n        }\n\n        return (\n            address(0),\n            _more\n        );\n    }\n\n    function count()\n        public\n        view\n        returns (uint)\n    {\n        return certifiedEmailIds.length;\n    }\n\n    function notify(\n        string memory eventType,\n        address addr\n    )\n        public\n        signaturitOnly\n    {\n        bytes32 bytes32eventType = Utils.keccak(eventType);\n\n        if (Utils.keccak(CERTIFIED_EMAIL_CREATED_EVENT) == bytes32eventType) {\n            CertifiedEmail certifiedEmail = CertifiedEmail(addr);\n\n            bytes32 bytes32id = Utils.keccak(certifiedEmail.id());\n\n            certifiedEmailIds.push(bytes32id);\n            certifiedEmails[bytes32id] = certifiedEmail;\n        }\n    }\n}",
  "sourcePath": "/home/administrator/workspace/signaturit-solidity-contracts/contracts/CertifiedEmailAggregator.sol",
  "compiler": {
    "name": "solc",
    "version": "0.5.0+commit.1d4f565a.Emscripten.clang"
  },
  "schemaVersion": "3.0.11",
  "updatedAt": "2019-10-16T13:50:03.064Z",
  "devdoc": {
    "methods": {}
  },
  "userdoc": {
    "methods": {}
  }
}