{
  "contractName": "CertifiedEmailDeployer",
  "abi": [
    {
      "inputs": [],
      "payable": false,
      "stateMutability": "nonpayable",
      "type": "constructor"
    },
    {
      "constant": false,
      "inputs": [
        {
          "name": "fileId",
          "type": "string"
        }
      ],
      "name": "deployFile",
      "outputs": [
        {
          "name": "",
          "type": "address"
        }
      ],
      "payable": false,
      "stateMutability": "nonpayable",
      "type": "function"
    },
    {
      "constant": false,
      "inputs": [
        {
          "name": "certificateId",
          "type": "string"
        },
        {
          "name": "deployer",
          "type": "address"
        }
      ],
      "name": "deployCertificate",
      "outputs": [
        {
          "name": "",
          "type": "address"
        }
      ],
      "payable": false,
      "stateMutability": "nonpayable",
      "type": "function"
    },
    {
      "constant": false,
      "inputs": [
        {
          "name": "eventId",
          "type": "string"
        },
        {
          "name": "eventType",
          "type": "string"
        },
        {
          "name": "eventUserAgent",
          "type": "string"
        },
        {
          "name": "eventCreatedAt",
          "type": "uint256"
        }
      ],
      "name": "deployEvent",
      "outputs": [
        {
          "name": "",
          "type": "address"
        }
      ],
      "payable": false,
      "stateMutability": "nonpayable",
      "type": "function"
    }
  ],
  "bytecode": "0x608060405234801561001057600080fd5b5061275e806100206000396000f3fe60806040526004361061003d5763ffffffff60e060020a600035041663547952cf8114610042578063a91710121461011a578063f776d03b146101cb575b600080fd5b34801561004e57600080fd5b506100fe6004803603604081101561006557600080fd5b810190602081018135602060020a81111561007f57600080fd5b82018360208201111561009157600080fd5b803590602001918460018302840111602060020a831117156100b257600080fd5b91908080601f01602080910402602001604051908101604052809392919081815260200183838082843760009201919091525092955050509035600160a060020a031691506103889050565b60408051600160a060020a039092168252519081900360200190f35b34801561012657600080fd5b506100fe6004803603602081101561013d57600080fd5b810190602081018135602060020a81111561015757600080fd5b82018360208201111561016957600080fd5b803590602001918460018302840111602060020a8311171561018a57600080fd5b91908080601f016020809104026020016040519081016040528093929190818152602001838380828437600092019190915250929550610434945050505050565b3480156101d757600080fd5b506100fe600480360360808110156101ee57600080fd5b810190602081018135602060020a81111561020857600080fd5b82018360208201111561021a57600080fd5b803590602001918460018302840111602060020a8311171561023b57600080fd5b91908080601f0160208091040260200160405190810160405280939291908181526020018383808284376000920191909152509295949360208101935035915050602060020a81111561028d57600080fd5b82018360208201111561029f57600080fd5b803590602001918460018302840111602060020a831117156102c057600080fd5b91908080601f0160208091040260200160405190810160405280939291908181526020018383808284376000920191909152509295949360208101935035915050602060020a81111561031257600080fd5b82018360208201111561032457600080fd5b803590602001918460018302840111602060020a8311171561034557600080fd5b91908080601f01602080910402602001604051908101604052809392919081815260200183838082843760009201919091525092955050913592506104ca915050565b6000828261039461063d565b600160a060020a03821660208083019190915260408083528451908301528351829160608301919086019080838360005b838110156103dd5781810151838201526020016103c5565b50505050905090810190601f16801561040a5780820380516001836020036101000a031916815260200191505b509350505050604051809103906000f08015801561042c573d6000803e3d6000fd5b509392505050565b60008161043f61064d565b60208082528251818301528251829160408301919085019080838360005b8381101561047557818101518382015260200161045d565b50505050905090810190601f1680156104a25780820380516001836020036101000a031916815260200191505b5092505050604051809103906000f0801580156104c3573d6000803e3d6000fd5b5092915050565b6000848484846104d861065d565b80806020018060200180602001858152602001848103845288818151815260200191508051906020019080838360005b83811015610520578181015183820152602001610508565b50505050905090810190601f16801561054d5780820380516001836020036101000a031916815260200191505b50848103835287518152875160209182019189019080838360005b83811015610580578181015183820152602001610568565b50505050905090810190601f1680156105ad5780820380516001836020036101000a031916815260200191505b50848103825286518152865160209182019188019080838360005b838110156105e05781810151838201526020016105c8565b50505050905090810190601f16801561060d5780820380516001836020036101000a031916815260200191505b50975050505050505050604051809103906000f080158015610633573d6000803e3d6000fd5b5095945050505050565b6040516114438061066e83390190565b60405161076280611ab183390190565b604051610520806122138339019056fe60806040523480156200001157600080fd5b506040516200144338038062001443833981018060405260408110156200003757600080fd5b8101908080516401000000008111156200005057600080fd5b820160208101848111156200006457600080fd5b81516401000000008111828201871017156200007f57600080fd5b505060209182015181519194509250620000a091600b9190850190620000d1565b50600a8054600160a060020a03909216600160a060020a031992831617905560088054909116331790555062000176565b828054600181600116156101000203166002900490600052602060002090601f016020900481019282601f106200011457805160ff191683800117855562000144565b8280016001018555821562000144579182015b828111156200014457825182559160200191906001019062000127565b506200015292915062000156565b5090565b6200017391905b808211156200015257600081556001016200015d565b90565b6112bd80620001866000396000f3fe6080604052600436106100a05763ffffffff60e060020a600035041663399ae72481146100a557806357ac264e146100e05780636a470b28146101075780636bee1e1b1461013857806372c97e7f146102f85780638525855d146103975780638da5cb5b146103ac578063af640d0f146103c1578063cf09e0d0146103d6578063d5f39488146103eb578063de4cd84214610400578063e1902063146105bd575b600080fd5b3480156100b157600080fd5b506100de600480360360408110156100c857600080fd5b50600160a060020a03813516906020013561066e565b005b3480156100ec57600080fd5b506100f56106f8565b60408051918252519081900360200190f35b34801561011357600080fd5b5061011c6106ff565b60408051600160a060020a039092168252519081900360200190f35b34801561014457600080fd5b506100de600480360360a081101561015b57600080fd5b810190602081018135602060020a81111561017557600080fd5b82018360208201111561018757600080fd5b803590602001918460018302840111602060020a831117156101a857600080fd5b91908080601f0160208091040260200160405190810160405280939291908181526020018383808284376000920191909152509295949360208101935035915050602060020a8111156101fa57600080fd5b82018360208201111561020c57600080fd5b803590602001918460018302840111602060020a8311171561022d57600080fd5b91908080601f0160208091040260200160405190810160405280939291908181526020018383808284376000920191909152509295949360208101935035915050602060020a81111561027f57600080fd5b82018360208201111561029157600080fd5b803590602001918460018302840111602060020a831117156102b257600080fd5b91908080601f016020809104026020016040519081016040528093929190818152602001838380828437600092019190915250929550508235935050506020013561070e565b34801561030457600080fd5b506103226004803603602081101561031b57600080fd5b5035610a91565b6040805160208082528351818301528351919283929083019185019080838360005b8381101561035c578181015183820152602001610344565b50505050905090810190601f1680156103895780820380516001836020036101000a031916815260200191505b509250505060405180910390f35b3480156103a357600080fd5b5061011c610b38565b3480156103b857600080fd5b5061011c610b47565b3480156103cd57600080fd5b50610322610b56565b3480156103e257600080fd5b506100f5610bb1565b3480156103f757600080fd5b5061011c610bb7565b34801561040c57600080fd5b506100de6004803603608081101561042357600080fd5b810190602081018135602060020a81111561043d57600080fd5b82018360208201111561044f57600080fd5b803590602001918460018302840111602060020a8311171561047057600080fd5b91908080601f0160208091040260200160405190810160405280939291908181526020018383808284376000920191909152509295949360208101935035915050602060020a8111156104c257600080fd5b8201836020820111156104d457600080fd5b803590602001918460018302840111602060020a831117156104f557600080fd5b91908080601f0160208091040260200160405190810160405280939291908181526020018383808284376000920191909152509295949360208101935035915050602060020a81111561054757600080fd5b82018360208201111561055957600080fd5b803590602001918460018302840111602060020a8311171561057a57600080fd5b91908080601f0160208091040260200160405190810160405280939291908181526020018383808284376000920191909152509295505091359250610bc6915050565b3480156105c957600080fd5b5061011c600480360360208110156105e057600080fd5b810190602081018135602060020a8111156105fa57600080fd5b82018360208201111561060c57600080fd5b803590602001918460018302840111602060020a8311171561062d57600080fd5b91908080601f016020809104026020016040519081016040528093929190818152602001838380828437600092019190915250929550611073945050505050565b600854600160a060020a031633146106d2576040805160e560020a62461bcd02815260206004820152603360248201526000805160206112728339815191526044820152600080516020611252833981519152606482015290519081900360840190fd5b60098054600160a060020a031916600160a060020a039390931692909217909155600d55565b600c545b90565b600854600160a060020a031681565b600854600160a060020a03163314610772576040805160e560020a62461bcd02815260206004820152603360248201526000805160206112728339815191526044820152600080516020611252833981519152606482015290519081900360840190fd5b600a54604051602060248201818152875160448401528751600094606094600160a060020a03909116938a93928392606401918501908083838b5b838110156107c55781810151838201526020016107ad565b50505050905090810190601f1680156107f25780820380516001836020036101000a031916815260200191505b5060408051601f19818403018152918152602082018051600160e060020a031660e160020a63548b880902178152905182519295509350839250908083835b602083106108505780518252601f199092019160209182019101610831565b6001836020036101000a038019825116818451168082178552505050505050905001915050600060405180830381855af49150503d80600081146108b0576040519150601f19603f3d011682016040523d82523d6000602084013e6108b5565b606091505b5091509150811515610928576040805160e560020a62461bcd02815260206004820152602b60248201527f4572726f72207768696c65206465706c6f79696e672066696c652066726f6d20604482015260a860020a6a636572746966696361746502606482015290519081900360840190fd5b610931816111b2565b600e8054600160a060020a031916600160a060020a03928316179081905560405160e260020a6321f20119028152604481018790526064810186905260806004820190815288516084830152885192909316926387c804649289928c928a928a928291602482019160a40190602089019080838360005b838110156109c05781810151838201526020016109a8565b50505050905090810190601f1680156109ed5780820380516001836020036101000a031916815260200191505b50838103825286518152865160209182019188019080838360005b83811015610a20578181015183820152602001610a08565b50505050905090810190601f168015610a4d5780820380516001836020036101000a031916815260200191505b509650505050505050600060405180830381600087803b158015610a7057600080fd5b505af1158015610a84573d6000803e3d6000fd5b5050505050505050505050565b600c805482908110610a9f57fe5b600091825260209182902001805460408051601f6002600019610100600187161502019094169390930492830185900485028101850190915281815293509091830182828015610b305780601f10610b0557610100808354040283529160200191610b30565b820191906000526020600020905b815481529060010190602001808311610b1357829003601f168201915b505050505081565b600e54600160a060020a031681565b600954600160a060020a031681565b600b805460408051602060026001851615610100026000190190941693909304601f81018490048402820184019092528181529291830182828015610b305780601f10610b0557610100808354040283529160200191610b30565b600d5481565b600a54600160a060020a031681565b600854600160a060020a03163314610c2a576040805160e560020a62461bcd02815260206004820152603360248201526000805160206112728339815191526044820152600080516020611252833981519152606482015290519081900360840190fd5b6000600160a060020a0316600f856040518082805190602001908083835b60208310610c675780518252601f199092019160209182019101610c48565b51815160209384036101000a6000190180199092169116179052920194855250604051938490030190922054600160a060020a0316929092149150610cf89050576040805160e560020a62461bcd02815260206004820181905260248201527f5468652063757272656e74206576656e7420616c726561647920657869737473604482015290519081900360640190fd5b60006060600a60009054906101000a9004600160a060020a0316600160a060020a03168686868660405160240180806020018060200180602001858152602001848103845288818151815260200191508051906020019080838360005b83811015610d6d578181015183820152602001610d55565b50505050905090810190601f168015610d9a5780820380516001836020036101000a031916815260200191505b50848103835287518152875160209182019189019080838360005b83811015610dcd578181015183820152602001610db5565b50505050905090810190601f168015610dfa5780820380516001836020036101000a031916815260200191505b50848103825286518152865160209182019188019080838360005b83811015610e2d578181015183820152602001610e15565b50505050905090810190601f168015610e5a5780820380516001836020036101000a031916815260200191505b5060408051601f19818403018152918152602082018051600160e060020a031660e060020a63f776d03b0217815290518251929a509850889750955093508392508591508490505b60208310610ec15780518252601f199092019160209182019101610ea2565b6001836020036101000a038019825116818451168082178552505050505050905001915050600060405180830381855af49150503d8060008114610f21576040519150601f19603f3d011682016040523d82523d6000602084013e610f26565b606091505b5091509150811515610f9a576040805160e560020a62461bcd02815260206004820152602c60248201527f4572726f72207768696c65206465706c6f79696e67206576656e742066726f6d604482015260a060020a6b20636572746966696361746502606482015290519081900360840190fd5b610fa3816111b2565b600f876040518082805190602001908083835b60208310610fd55780518252601f199092019160209182019101610fb6565b51815160209384036101000a60001901801990921691161790529201948552506040519384900381019093208054600160a060020a031916600160a060020a03959095169490941790935550600c8054600181018083556000929092528951919350611069927fdf6966c971051c3d54ec59162606531493a51404a002842f56009d7e5cf4a8c790910191908a01906111b9565b5050505050505050565b600080600160a060020a0316600f836040518082805190602001908083835b602083106110b15780518252601f199092019160209182019101611092565b51815160209384036101000a6000190180199092169116179052920194855250604051938490030190922054600160a060020a0316929092141591506111439050576040805160e560020a62461bcd02815260206004820152601860248201527f54686973206576656e7420646f65736e27742065786973740000000000000000604482015290519081900360640190fd5b600f826040518082805190602001908083835b602083106111755780518252601f199092019160209182019101611156565b51815160209384036101000a6000190180199092169116179052920194855250604051938490030190922054600160a060020a0316949350505050565b6020015190565b828054600181600116156101000203166002900490600052602060002090601f016020900481019282601f106111fa57805160ff1916838001178555611227565b82800160010185558215611227579182015b8281111561122757825182559160200191906001019061120c565b50611233929150611237565b5090565b6106fc91905b80821115611233576000815560010161123d56fe706572666f726d207468697320616374696f6e000000000000000000000000004f6e6c7920436572746966696564456d61696c206163636f756e742063616e20a165627a7a723058204381732564807ba395c71d368f0cc16be84eea02376454e1b87b112bab4689090029608060405234801561001057600080fd5b506040516107623803806107628339810180604052602081101561003357600080fd5b81019080805164010000000081111561004b57600080fd5b8201602081018481111561005e57600080fd5b815164010000000081118282018710171561007857600080fd5b5050805190935061009292506007915060208401906100ab565b505060068054600160a060020a03191633179055610146565b828054600181600116156101000203166002900490600052602060002090601f016020900481019282601f106100ec57805160ff1916838001178555610119565b82800160010185558215610119579182015b828111156101195782518255916020019190600101906100fe565b50610125929150610129565b5090565b61014391905b80821115610125576000815560010161012f565b90565b61060d806101556000396000f3fe6080604052600436106100695763ffffffff60e060020a60003504166306fdde03811461006e57806360f96a8f146100f857806387c8046414610129578063949d225d14610266578063af640d0f1461028d578063bce00f76146102a2578063cf09e0d0146102b7575b600080fd5b34801561007a57600080fd5b506100836102cc565b6040805160208082528351818301528351919283929083019185019080838360005b838110156100bd5781810151838201526020016100a5565b50505050905090810190601f1680156100ea5780820380516001836020036101000a031916815260200191505b509250505060405180910390f35b34801561010457600080fd5b5061010d61035a565b60408051600160a060020a039092168252519081900360200190f35b34801561013557600080fd5b506102646004803603608081101561014c57600080fd5b810190602081018135602060020a81111561016657600080fd5b82018360208201111561017857600080fd5b803590602001918460018302840111602060020a8311171561019957600080fd5b91908080601f0160208091040260200160405190810160405280939291908181526020018383808284376000920191909152509295949360208101935035915050602060020a8111156101eb57600080fd5b8201836020820111156101fd57600080fd5b803590602001918460018302840111602060020a8311171561021e57600080fd5b91908080601f0160208091040260200160405190810160405280939291908181526020018383808284376000920191909152509295505082359350505060200135610369565b005b34801561027257600080fd5b5061027b610484565b60408051918252519081900360200190f35b34801561029957600080fd5b5061008361048a565b3480156102ae57600080fd5b506100836104e5565b3480156102c357600080fd5b5061027b610540565b6008805460408051602060026001851615610100026000190190941693909304601f810184900484028201840190925281815292918301828280156103525780601f1061032757610100808354040283529160200191610352565b820191906000526020600020905b81548152906001019060200180831161033557829003601f168201915b505050505081565b600654600160a060020a031681565b600654600160a060020a031633146103e6576040805160e560020a62461bcd02815260206004820152602f60248201527f4f6e6c792074686520706172656e74206163636f756e742063616e20706572666044820152608960020a6e37b936903a3434b99030b1ba34b7b702606482015290519081900360840190fd5b6000811180156103f65750835115155b151561044c576040805160e560020a62461bcd02815260206004820152601660248201527f496e76616c696420696e7075742076616c756528732900000000000000000000604482015290519081900360640190fd5b835161045f906008906020870190610546565b50600b819055600a829055825161047d906009906020860190610546565b5050505050565b600b5481565b6007805460408051602060026001851615610100026000190190941693909304601f810184900484028201840190925281815292918301828280156103525780601f1061032757610100808354040283529160200191610352565b6009805460408051602060026001851615610100026000190190941693909304601f810184900484028201840190925281815292918301828280156103525780601f1061032757610100808354040283529160200191610352565b600a5481565b828054600181600116156101000203166002900490600052602060002090601f016020900481019282601f1061058757805160ff19168380011785556105b4565b828001600101855582156105b4579182015b828111156105b4578251825591602001919060010190610599565b506105c09291506105c4565b5090565b6105de91905b808211156105c057600081556001016105ca565b9056fea165627a7a7230582020e6afa3f837e34a5d8c44e87795c2b1cf23278595109b311568720bd84489f70029608060405234801561001057600080fd5b506040516105203803806105208339810180604052608081101561003357600080fd5b81019080805164010000000081111561004b57600080fd5b8201602081018481111561005e57600080fd5b815164010000000081118282018710171561007857600080fd5b5050929190602001805164010000000081111561009457600080fd5b820160208101848111156100a757600080fd5b81516401000000008111828201871017156100c157600080fd5b505092919060200180516401000000008111156100dd57600080fd5b820160208101848111156100f057600080fd5b815164010000000081118282018710171561010a57600080fd5b505060209182015186519194509250610129916004919087019061015e565b50825161013d90600190602086019061015e565b50815161015190600690602085019061015e565b50600755506101f9915050565b828054600181600116156101000203166002900490600052602060002090601f016020900481019282601f1061019f57805160ff19168380011785556101cc565b828001600101855582156101cc579182015b828111156101cc5782518255916020019190600101906101b1565b506101d89291506101dc565b5090565b6101f691905b808211156101d857600081556001016101e2565b90565b610318806102086000396000f3fe6080604052600436106100535763ffffffff60e060020a6000350416630b305f308114610058578063af640d0f146100e2578063bdf1c4a1146100f7578063cf09e0d01461010c578063d44b930014610133575b600080fd5b34801561006457600080fd5b5061006d610148565b6040805160208082528351818301528351919283929083019185019080838360005b838110156100a757818101518382015260200161008f565b50505050905090810190601f1680156100d45780820380516001836020036101000a031916815260200191505b509250505060405180910390f35b3480156100ee57600080fd5b5061006d6101d6565b34801561010357600080fd5b5061006d610231565b34801561011857600080fd5b5061012161028c565b60408051918252519081900360200190f35b34801561013f57600080fd5b5061006d610292565b6005805460408051602060026001851615610100026000190190941693909304601f810184900484028201840190925281815292918301828280156101ce5780601f106101a3576101008083540402835291602001916101ce565b820191906000526020600020905b8154815290600101906020018083116101b157829003601f168201915b505050505081565b6004805460408051602060026001851615610100026000190190941693909304601f810184900484028201840190925281815292918301828280156101ce5780601f106101a3576101008083540402835291602001916101ce565b6006805460408051602060026001851615610100026000190190941693909304601f810184900484028201840190925281815292918301828280156101ce5780601f106101a3576101008083540402835291602001916101ce565b60075481565b60018054604080516020600284861615610100026000190190941693909304601f810184900484028201840190925281815292918301828280156101ce5780601f106101a3576101008083540402835291602001916101ce56fea165627a7a72305820ad8aa2f6ee641dea6d011af6c965e156f6e55519cae0c9669bdfb24cc54162a20029a165627a7a7230582044a64dba534c349e915bf3713aec24e10700c943433cba70cb3a40428fbf344d0029",
  "source": "pragma solidity 0.5.0;\n\n/*Gas to deploy: 3.939.784*/\n\nimport \"./File.sol\";\nimport \"./Certificate.sol\";\nimport \"./Event.sol\";\n\n\ncontract CertifiedEmailDeployer {\n\n    constructor() public {}\n\n    function deployFile(\n        string memory fileId\n    )\n        public\n        returns (address)\n    {\n        return address(new File(fileId));\n    }\n\n    function deployCertificate(\n        string memory certificateId,\n        address deployer\n    )\n        public\n        returns (address)\n    {\n        return address(new Certificate(certificateId, deployer));\n    }\n\n    function deployEvent(\n        string memory eventId,\n        string memory eventType,\n        string memory eventUserAgent,\n        uint eventCreatedAt\n    )\n        public\n        returns (address)\n    {\n        return address(\n            new Event(\n                eventId,\n                eventType,\n                eventUserAgent,\n                eventCreatedAt\n            )\n        );\n    }\n}\n",
  "sourcePath": "/home/administrator/workspace/signaturit-solidity-contracts/contracts/CertifiedEmailDeployer.sol",
  "compiler": {
    "name": "solc",
    "version": "0.5.0+commit.1d4f565a.Emscripten.clang"
  },
  "schemaVersion": "3.0.11",
  "updatedAt": "2019-08-01T15:22:45.253Z",
  "devdoc": {
    "methods": {}
  },
  "userdoc": {
    "methods": {}
  }
}