{
  "contractName": "CertifiedEmail",
  "abi": [
    {
      "constant": true,
      "inputs": [],
      "name": "userContract",
      "outputs": [
        {
          "name": "",
          "type": "address"
        }
      ],
      "payable": false,
      "stateMutability": "view",
      "type": "function"
    },
    {
      "constant": true,
      "inputs": [],
      "name": "owner",
      "outputs": [
        {
          "name": "",
          "type": "address"
        }
      ],
      "payable": false,
      "stateMutability": "view",
      "type": "function"
    },
    {
      "constant": true,
      "inputs": [],
      "name": "deliveryType",
      "outputs": [
        {
          "name": "",
          "type": "string"
        }
      ],
      "payable": false,
      "stateMutability": "view",
      "type": "function"
    },
    {
      "constant": true,
      "inputs": [],
      "name": "id",
      "outputs": [
        {
          "name": "",
          "type": "string"
        }
      ],
      "payable": false,
      "stateMutability": "view",
      "type": "function"
    },
    {
      "constant": true,
      "inputs": [],
      "name": "userSmartContract",
      "outputs": [
        {
          "name": "",
          "type": "address"
        }
      ],
      "payable": false,
      "stateMutability": "view",
      "type": "function"
    },
    {
      "constant": true,
      "inputs": [],
      "name": "subjectHash",
      "outputs": [
        {
          "name": "",
          "type": "string"
        }
      ],
      "payable": false,
      "stateMutability": "view",
      "type": "function"
    },
    {
      "constant": true,
      "inputs": [],
      "name": "bodyHash",
      "outputs": [
        {
          "name": "",
          "type": "string"
        }
      ],
      "payable": false,
      "stateMutability": "view",
      "type": "function"
    },
    {
      "constant": true,
      "inputs": [],
      "name": "createdAt",
      "outputs": [
        {
          "name": "",
          "type": "uint256"
        }
      ],
      "payable": false,
      "stateMutability": "view",
      "type": "function"
    },
    {
      "constant": true,
      "inputs": [
        {
          "name": "",
          "type": "uint256"
        }
      ],
      "name": "certificatesId",
      "outputs": [
        {
          "name": "",
          "type": "string"
        }
      ],
      "payable": false,
      "stateMutability": "view",
      "type": "function"
    },
    {
      "constant": true,
      "inputs": [],
      "name": "deployer",
      "outputs": [
        {
          "name": "",
          "type": "address"
        }
      ],
      "payable": false,
      "stateMutability": "view",
      "type": "function"
    },
    {
      "constant": true,
      "inputs": [],
      "name": "signaturit",
      "outputs": [
        {
          "name": "",
          "type": "address"
        }
      ],
      "payable": false,
      "stateMutability": "view",
      "type": "function"
    },
    {
      "inputs": [
        {
          "name": "certifiedEmailId",
          "type": "string"
        },
        {
          "name": "certifiedEmailSubjectHash",
          "type": "string"
        },
        {
          "name": "certifiedEmailBodyHash",
          "type": "string"
        },
        {
          "name": "certifiedEmailDeliveryType",
          "type": "string"
        },
        {
          "name": "certifiedEmailCreatedAt",
          "type": "uint256"
        },
        {
          "name": "certifiedEmailDeployer",
          "type": "address"
        },
        {
          "name": "certifiedEmailOwner",
          "type": "address"
        },
        {
          "name": "userSmartContractAddress",
          "type": "address"
        }
      ],
      "payable": false,
      "stateMutability": "nonpayable",
      "type": "constructor"
    },
    {
      "constant": false,
      "inputs": [],
      "name": "notifyCreation",
      "outputs": [],
      "payable": false,
      "stateMutability": "nonpayable",
      "type": "function"
    },
    {
      "constant": false,
      "inputs": [
        {
          "name": "certificateId",
          "type": "string"
        },
        {
          "name": "certificateCreatedAt",
          "type": "uint256"
        },
        {
          "name": "certificateOwner",
          "type": "address"
        }
      ],
      "name": "createCertificate",
      "outputs": [],
      "payable": false,
      "stateMutability": "nonpayable",
      "type": "function"
    },
    {
      "constant": false,
      "inputs": [
        {
          "name": "certificateId",
          "type": "string"
        },
        {
          "name": "eventId",
          "type": "string"
        },
        {
          "name": "eventType",
          "type": "string"
        },
        {
          "name": "eventUserAgent",
          "type": "string"
        },
        {
          "name": "eventCreatedAt",
          "type": "uint256"
        }
      ],
      "name": "createEvent",
      "outputs": [],
      "payable": false,
      "stateMutability": "nonpayable",
      "type": "function"
    },
    {
      "constant": false,
      "inputs": [
        {
          "name": "certificateId",
          "type": "string"
        },
        {
          "name": "fileHash",
          "type": "string"
        },
        {
          "name": "fileId",
          "type": "string"
        },
        {
          "name": "fileName",
          "type": "string"
        },
        {
          "name": "fileCreatedAt",
          "type": "uint256"
        },
        {
          "name": "fileSize",
          "type": "uint256"
        }
      ],
      "name": "createFile",
      "outputs": [],
      "payable": false,
      "stateMutability": "nonpayable",
      "type": "function"
    },
    {
      "constant": true,
      "inputs": [
        {
          "name": "certificateId",
          "type": "string"
        }
      ],
      "name": "getCertificate",
      "outputs": [
        {
          "name": "",
          "type": "address"
        }
      ],
      "payable": false,
      "stateMutability": "view",
      "type": "function"
    },
    {
      "constant": true,
      "inputs": [
        {
          "name": "index",
          "type": "uint256"
        }
      ],
      "name": "getCertificateByIndex",
      "outputs": [
        {
          "name": "",
          "type": "address"
        }
      ],
      "payable": false,
      "stateMutability": "view",
      "type": "function"
    },
    {
      "constant": true,
      "inputs": [
        {
          "name": "certificateId",
          "type": "string"
        },
        {
          "name": "eventId",
          "type": "string"
        }
      ],
      "name": "getEvent",
      "outputs": [
        {
          "name": "",
          "type": "address"
        }
      ],
      "payable": false,
      "stateMutability": "view",
      "type": "function"
    },
    {
      "constant": true,
      "inputs": [
        {
          "name": "certificateId",
          "type": "string"
        }
      ],
      "name": "getFile",
      "outputs": [
        {
          "name": "",
          "type": "address"
        }
      ],
      "payable": false,
      "stateMutability": "view",
      "type": "function"
    },
    {
      "constant": true,
      "inputs": [],
      "name": "getCertificatesSize",
      "outputs": [
        {
          "name": "",
          "type": "uint256"
        }
      ],
      "payable": false,
      "stateMutability": "view",
      "type": "function"
    },
    {
      "constant": false,
      "inputs": [
        {
          "name": "notifiersKey",
          "type": "string"
        },
        {
          "name": "createdEvent",
          "type": "string"
        },
        {
          "name": "adrToNotify",
          "type": "address"
        }
      ],
      "name": "notifyEntityEvent",
      "outputs": [],
      "payable": false,
      "stateMutability": "nonpayable",
      "type": "function"
    }
  ],
  "bytecode": "0x60806040523480156200001157600080fd5b50604051620026503803806200265083398101806040526101008110156200003857600080fd5b8101908080516401000000008111156200005157600080fd5b820160208101848111156200006557600080fd5b81516401000000008111828201871017156200008057600080fd5b505092919060200180516401000000008111156200009d57600080fd5b82016020810184811115620000b157600080fd5b8151640100000000811182820187101715620000cc57600080fd5b50509291906020018051640100000000811115620000e957600080fd5b82016020810184811115620000fd57600080fd5b81516401000000008111828201871017156200011857600080fd5b505092919060200180516401000000008111156200013557600080fd5b820160208101848111156200014957600080fd5b81516401000000008111828201871017156200016457600080fd5b5050602080830151604084015160608501516080909501518a51949750919550939290916200019991600e918b019062000234565b508651620001af90600f9060208a019062000234565b508551620001c590601090602089019062000234565b508451620001db90601190602088019062000234565b50601393909355600c8054600160a060020a03938416600160a060020a031991821617909155600b8054821633179055600d8054928416928216929092179091556014805492909316911617905550620002d992505050565b828054600181600116156101000203166002900490600052602060002090601f016020900481019282601f106200027757805160ff1916838001178555620002a7565b82800160010185558215620002a7579182015b82811115620002a75782518255916020019190600101906200028a565b50620002b5929150620002b9565b5090565b620002d691905b80821115620002b55760008155600101620002c0565b90565b61236780620002e96000396000f3fe6080604052600436106101035763ffffffff60e060020a6000350416630a28e90c81146101085780635000596b1461014e57806354715390146101635780637f2e5806146103aa5780638da5cb5b146103d157806391eea19d146103e6578063af640d0f14610470578063b38f8f5714610485578063bdcf5b8e14610544578063c004240c14610786578063c1a911841461079b578063c918ef38146107b0578063ce57b4a0146108e6578063cf09e0d0146108fb578063d30f0dac14610910578063d5f394881461093a578063dbe13ef21461094f578063e0876aa814610a90578063e2b4cf4c14610b41578063ed0f2e7514610b56578063f9b5333514610c07575b600080fd5b34801561011457600080fd5b506101326004803603602081101561012b57600080fd5b5035610c1c565b60408051600160a060020a039092168252519081900360200190f35b34801561015a57600080fd5b50610132610cd0565b34801561016f57600080fd5b506103a8600480360360c081101561018657600080fd5b810190602081018135602060020a8111156101a057600080fd5b8201836020820111156101b257600080fd5b803590602001918460018302840111602060020a831117156101d357600080fd5b91908080601f0160208091040260200160405190810160405280939291908181526020018383808284376000920191909152509295949360208101935035915050602060020a81111561022557600080fd5b82018360208201111561023757600080fd5b803590602001918460018302840111602060020a8311171561025857600080fd5b91908080601f0160208091040260200160405190810160405280939291908181526020018383808284376000920191909152509295949360208101935035915050602060020a8111156102aa57600080fd5b8201836020820111156102bc57600080fd5b803590602001918460018302840111602060020a831117156102dd57600080fd5b91908080601f0160208091040260200160405190810160405280939291908181526020018383808284376000920191909152509295949360208101935035915050602060020a81111561032f57600080fd5b82018360208201111561034157600080fd5b803590602001918460018302840111602060020a8311171561036257600080fd5b91908080601f0160208091040260200160405190810160405280939291908181526020018383808284376000920191909152509295505082359350505060200135610cdf565b005b3480156103b657600080fd5b506103bf611043565b60408051918252519081900360200190f35b3480156103dd57600080fd5b5061013261104a565b3480156103f257600080fd5b506103fb611059565b6040805160208082528351818301528351919283929083019185019080838360005b8381101561043557818101518382015260200161041d565b50505050905090810190601f1680156104625780820380516001836020036101000a031916815260200191505b509250505060405180910390f35b34801561047c57600080fd5b506103fb6110e7565b34801561049157600080fd5b506103a8600480360360608110156104a857600080fd5b810190602081018135602060020a8111156104c257600080fd5b8201836020820111156104d457600080fd5b803590602001918460018302840111602060020a831117156104f557600080fd5b91908080601f0160208091040260200160405190810160405280939291908181526020018383808284376000920191909152509295505082359350505060200135600160a060020a0316611142565b34801561055057600080fd5b506103a8600480360360a081101561056757600080fd5b810190602081018135602060020a81111561058157600080fd5b82018360208201111561059357600080fd5b803590602001918460018302840111602060020a831117156105b457600080fd5b91908080601f0160208091040260200160405190810160405280939291908181526020018383808284376000920191909152509295949360208101935035915050602060020a81111561060657600080fd5b82018360208201111561061857600080fd5b803590602001918460018302840111602060020a8311171561063957600080fd5b91908080601f0160208091040260200160405190810160405280939291908181526020018383808284376000920191909152509295949360208101935035915050602060020a81111561068b57600080fd5b82018360208201111561069d57600080fd5b803590602001918460018302840111602060020a831117156106be57600080fd5b91908080601f0160208091040260200160405190810160405280939291908181526020018383808284376000920191909152509295949360208101935035915050602060020a81111561071057600080fd5b82018360208201111561072257600080fd5b803590602001918460018302840111602060020a8311171561074357600080fd5b91908080601f01602080910402602001604051908101604052809392919081815260200183838082843760009201919091525092955050913592506112ec915050565b34801561079257600080fd5b506101326116bb565b3480156107a757600080fd5b506103fb6116ca565b3480156107bc57600080fd5b50610132600480360360408110156107d357600080fd5b810190602081018135602060020a8111156107ed57600080fd5b8201836020820111156107ff57600080fd5b803590602001918460018302840111602060020a8311171561082057600080fd5b91908080601f0160208091040260200160405190810160405280939291908181526020018383808284376000920191909152509295949360208101935035915050602060020a81111561087257600080fd5b82018360208201111561088457600080fd5b803590602001918460018302840111602060020a831117156108a557600080fd5b91908080601f016020809104026020016040519081016040528093929190818152602001838380828437600092019190915250929550611725945050505050565b3480156108f257600080fd5b506103fb611898565b34801561090757600080fd5b506103bf6118f3565b34801561091c57600080fd5b506103fb6004803603602081101561093357600080fd5b50356118f9565b34801561094657600080fd5b5061013261196d565b34801561095b57600080fd5b506103a86004803603606081101561097257600080fd5b810190602081018135602060020a81111561098c57600080fd5b82018360208201111561099e57600080fd5b803590602001918460018302840111602060020a831117156109bf57600080fd5b91908080601f0160208091040260200160405190810160405280939291908181526020018383808284376000920191909152509295949360208101935035915050602060020a811115610a1157600080fd5b820183602082011115610a2357600080fd5b803590602001918460018302840111602060020a83111715610a4457600080fd5b91908080601f01602080910402602001604051908101604052809392919081815260200183838082843760009201919091525092955050509035600160a060020a0316915061197c9050565b348015610a9c57600080fd5b5061013260048036036020811015610ab357600080fd5b810190602081018135602060020a811115610acd57600080fd5b820183602082011115610adf57600080fd5b803590602001918460018302840111602060020a83111715610b0057600080fd5b91908080601f016020809104026020016040519081016040528093929190818152602001838380828437600092019190915250929550611c3c945050505050565b348015610b4d57600080fd5b506103a8611d3c565b348015610b6257600080fd5b5061013260048036036020811015610b7957600080fd5b810190602081018135602060020a811115610b9357600080fd5b820183602082011115610ba557600080fd5b803590602001918460018302840111602060020a83111715610bc657600080fd5b91908080601f016020809104026020016040519081016040528093929190818152602001838380828437600092019190915250929550611e17945050505050565b348015610c1357600080fd5b50610132611e9f565b60125460009060001901821115610c3557506000610ccb565b6015601283815481101515610c4657fe5b906000526020600020016040518082805460018160011615610100020316600290048015610cab5780601f10610c89576101008083540402835291820191610cab565b820191906000526020600020905b815481529060010190602001808311610c97575b5050928352505060405190819003602001902054600160a060020a031690505b919050565b601454600160a060020a031681565b600b54600160a060020a03163214610d43576040805160e560020a62461bcd02815260206004820152602f602482015260008051602061231c83398151915260448201526000805160206122fc833981519152606482015290519081900360840190fd5b6000610d4e87611eae565b905080600160a060020a0316636bee1e1b87878787876040518663ffffffff1660e060020a02815260040180806020018060200180602001868152602001858152602001848103845289818151815260200191508051906020019080838360005b83811015610dc7578181015183820152602001610daf565b50505050905090810190601f168015610df45780820380516001836020036101000a031916815260200191505b5084810383528851815288516020918201918a019080838360005b83811015610e27578181015183820152602001610e0f565b50505050905090810190601f168015610e545780820380516001836020036101000a031916815260200191505b50848103825287518152875160209182019189019080838360005b83811015610e87578181015183820152602001610e6f565b50505050905090810190601f168015610eb45780820380516001836020036101000a031916815260200191505b5098505050505050505050600060405180830381600087803b158015610ed957600080fd5b505af1158015610eed573d6000803e3d6000fd5b50505050600081600160a060020a0316638525855d6040518163ffffffff1660e060020a02815260040160206040518083038186803b158015610f2f57600080fd5b505afa158015610f43573d6000803e3d6000fd5b505050506040513d6020811015610f5957600080fd5b50519050600160a060020a0381161515610fd5576040805160e560020a62461bcd02815260206004820152602c60248201527f4572726f72207768696c652072657472696576696e672066696c652066726f6d604482015260a060020a6b20636572746966696361746502606482015290519081900360840190fd5b6110396040805190810160405280600e8152602001609060020a6d66696c652d6e6f7469666965727302815250604080519081016040528060158152602001605a60020a74199a5b194b98dbdb9d1c9858dd0b98dc99585d1959028152508361197c565b5050505050505050565b6012545b90565b600d54600160a060020a031681565b6011805460408051602060026001851615610100026000190190941693909304601f810184900484028201840190925281815292918301828280156110df5780601f106110b4576101008083540402835291602001916110df565b820191906000526020600020905b8154815290600101906020018083116110c257829003601f168201915b505050505081565b600e805460408051602060026001851615610100026000190190941693909304601f810184900484028201840190925281815292918301828280156110df5780601f106110b4576101008083540402835291602001916110df565b600b54600160a060020a031632146111a6576040805160e560020a62461bcd02815260206004820152602f602482015260008051602061231c83398151915260448201526000805160206122fc833981519152606482015290519081900360840190fd5b60006111b184611eae565b905080600160a060020a031663399ae72483856040518363ffffffff1660e060020a0281526004018083600160a060020a0316600160a060020a0316815260200182815260200192505050600060405180830381600087803b15801561121657600080fd5b505af115801561122a573d6000803e3d6000fd5b50506012805460018101808355600092909252875191935061127492507fbb8a6a4669ba250d26cd7a459eca9d215f8307e33aebe50379bc5a3617ec344401906020880190612263565b50506112e6604080519081016040528060158152602001605860020a7463657274696669636174652d6e6f74696669657273028152506040805190810160405280601c81526020017f63657274696669636174652e636f6e74726163742e63726561746564000000008152508361197c565b50505050565b600b54600160a060020a03163214611350576040805160e560020a62461bcd02815260206004820152602f602482015260008051602061231c83398151915260448201526000805160206122fc833981519152606482015290519081900360840190fd5b600061135b86611eae565b905080600160a060020a031663de4cd842868686866040518563ffffffff1660e060020a02815260040180806020018060200180602001858152602001848103845288818151815260200191508051906020019080838360005b838110156113cd5781810151838201526020016113b5565b50505050905090810190601f1680156113fa5780820380516001836020036101000a031916815260200191505b50848103835287518152875160209182019189019080838360005b8381101561142d578181015183820152602001611415565b50505050905090810190601f16801561145a5780820380516001836020036101000a031916815260200191505b50848103825286518152865160209182019188019080838360005b8381101561148d578181015183820152602001611475565b50505050905090810190601f1680156114ba5780820380516001836020036101000a031916815260200191505b50975050505050505050600060405180830381600087803b1580156114de57600080fd5b505af11580156114f2573d6000803e3d6000fd5b505060405160e060020a63e190206302815260206004820181815289516024840152895160009550600160a060020a038716945063e1902063938b938392604490920191908501908083838b5b8381101561155757818101518382015260200161153f565b50505050905090810190601f1680156115845780820380516001836020036101000a031916815260200191505b509250505060206040518083038186803b1580156115a157600080fd5b505afa1580156115b5573d6000803e3d6000fd5b505050506040513d60208110156115cb57600080fd5b50519050600160a060020a0381161515611648576040805160e560020a62461bcd02815260206004820152602d60248201527f4572726f72207768696c652072657472696576696e67206576656e742066726f6044820152609860020a6c6d20636572746966696361746502606482015290519081900360840190fd5b6116b26040805190810160405280600f8152602001608860020a6e6576656e742d6e6f74696669657273028152506040805190810160405280601681526020017f6576656e742e636f6e74726163742e63726561746564000000000000000000008152508361197c565b50505050505050565b600954600160a060020a031681565b600f805460408051602060026001851615610100026000190190941693909304601f810184900484028201840190925281815292918301828280156110df5780601f106110b4576101008083540402835291602001916110df565b6000611730836121dc565b151561173e57506000611892565b60006015846040518082805190602001908083835b602083106117725780518252601f199092019160209182019101611753565b51815160209384036101000a600019018019909216911617905292019485525060405193849003810184205460e060020a63e190206302855260048501828152885160248701528851600160a060020a039092169563e19020639550899450909283926044909201919085019080838360005b838110156117fd5781810151838201526020016117e5565b50505050905090810190601f16801561182a5780820380516001836020036101000a031916815260200191505b509250505060206040518083038186803b15801561184757600080fd5b505afa15801561185b573d6000803e3d6000fd5b505050506040513d602081101561187157600080fd5b50519050600160a060020a038116151561188f576000915050611892565b90505b92915050565b6010805460408051602060026001851615610100026000190190941693909304601f810184900484028201840190925281815292918301828280156110df5780601f106110b4576101008083540402835291602001916110df565b60135481565b601280548290811061190757fe5b600091825260209182902001805460408051601f60026000196101006001871615020190941693909304928301859004850281018501909152818152935090918301828280156110df5780601f106110b4576101008083540402835291602001916110df565b600c54600160a060020a031681565b600b54600160a060020a031632146119e0576040805160e560020a62461bcd02815260206004820152602f602482015260008051602061231c83398151915260448201526000805160206122fc833981519152606482015290519081900360840190fd5b6000805b6014546040805160e260020a633ce8989d0281526024810184905260048101918252875160448201528751600160a060020a039093169263f3a262749289928692829160640190602086019080838360005b83811015611a4e578181015183820152602001611a36565b50505050905090810190601f168015611a7b5780820380516001836020036101000a031916815260200191505b50935050505060206040518083038186803b158015611a9957600080fd5b505afa158015611aad573d6000803e3d6000fd5b505050506040513d6020811015611ac357600080fd5b50519150600101600160a060020a03821615611c255760408051600160a060020a038581166044830152602482019283528651606483015286519085169287928792829160840190602086019080838360005b83811015611b2e578181015183820152602001611b16565b50505050905090810190601f168015611b5b5780820380516001836020036101000a031916815260200191505b5060408051601f19818403018152918152602082018051600160e060020a031660e160020a63738f32bb0217815290518251929650945084935091508083835b60208310611bba5780518252601f199092019160209182019101611b9b565b6001836020036101000a0380198251168184511680821785525050505050509050019150506000604051808303816000865af19150503d8060008114611c1c576040519150601f19603f3d011682016040523d82523d6000602084013e611c21565b606091505b5050505b600160a060020a03821615156119e4575050505050565b6000611c47826121dc565b1515611c5557506000610ccb565b60006015836040518082805190602001908083835b60208310611c895780518252601f199092019160209182019101611c6a565b51815160209384036101000a60001901801990921691161790529201948552506040805194859003820185205460e060020a638525855d0286529051600160a060020a0390911694638525855d94506004808201945090829003018186803b158015611cf457600080fd5b505afa158015611d08573d6000803e3d6000fd5b505050506040513d6020811015611d1e57600080fd5b50519050600160a060020a0381161515611892576000915050610ccb565b600b54600160a060020a03163214611da0576040805160e560020a62461bcd02815260206004820152602f602482015260008051602061231c83398151915260448201526000805160206122fc833981519152606482015290519081900360840190fd5b611e156040805190810160405280601981526020017f6365727469666965642d656d61696c2d6e6f74696669657273000000000000008152506040805190810160405280602081526020017f6365727469666965645f656d61696c2e636f6e74726163742e637265617465648152503061197c565b565b6000611e22826121dc565b1515611e3057506000610ccb565b6015826040518082805190602001908083835b60208310611e625780518252601f199092019160209182019101611e43565b51815160209384036101000a6000190180199092169116179052920194855250604051938490030190922054600160a060020a0316949350505050565b600b54600160a060020a031681565b6000611eb9826121dc565b15611f2f576015826040518082805190602001908083835b60208310611ef05780518252601f199092019160209182019101611ed1565b51815160209384036101000a6000190180199092169116179052920194855250604051938490030190922054600160a060020a03169250610ccb915050565b600c5460408051600160a060020a03909216604483018190526024830191825284516064840152845160009360609387928492829160849091019060208601908083838c5b83811015611f8c578181015183820152602001611f74565b50505050905090810190601f168015611fb95780820380516001836020036101000a031916815260200191505b5060408051601f19818403018152918152602082018051600160e060020a031660e060020a63547952cf0217815290518251929650945084935091508083835b602083106120185780518252601f199092019160209182019101611ff9565b6001836020036101000a038019825116818451168082178552505050505050905001915050600060405180830381855af49150503d8060008114612078576040519150601f19603f3d011682016040523d82523d6000602084013e61207d565b606091505b50915091508115156120e6576040805160e560020a62461bcd02815260206004820152602160248201527f4572726f72207768696c65206465706c6f79696e672063657274696669636174604482015260f860020a606502606482015290519081900360840190fd5b6120ef8161225c565b6015856040518082805190602001908083835b602083106121215780518252601f199092019160209182019101612102565b51815160209384036101000a600019018019909216911617905292019485525060405193849003810184208054600160a060020a031916600160a060020a0396909616959095179094555050855160159287929182918401908083835b6020831061219d5780518252601f19909201916020918201910161217e565b51815160209384036101000a6000190180199092169116179052920194855250604051938490030190922054600160a060020a03169695505050505050565b600080600160a060020a03166015836040518082805190602001908083835b6020831061221a5780518252601f1990920191602091820191016121fb565b51815160209384036101000a6000190180199092169116179052920194855250604051938490030190922054600160a060020a03169290921415949350505050565b6020015190565b828054600181600116156101000203166002900490600052602060002090601f016020900481019282601f106122a457805160ff19168380011785556122d1565b828001600101855582156122d1579182015b828111156122d15782518255916020019190600101906122b6565b506122dd9291506122e1565b5090565b61104791905b808211156122dd57600081556001016122e756fe6f726d207468697320616374696f6e00000000000000000000000000000000004f6e6c79205369676e617475726974206163636f756e742063616e2070657266a165627a7a72305820d37e9da136de622c94e5814f8dd27073ce0b309c2ee509439e4388cff767159f0029",
  "source": "pragma solidity <0.6.0;\n\n/*\nGas to deploy: 2.379.930\n*/\n\nimport \"./interfaces/CertifiedEmailInterface.sol\";\nimport \"./interfaces/SignaturitUserInterface.sol\";\nimport \"./interfaces/CertificateInterface.sol\";\nimport \"./interfaces/EventInterface.sol\";\nimport \"./interfaces/FileInterface.sol\";\nimport \"./libraries/Utils.sol\";\n\n\ncontract CertifiedEmail is CertifiedEmailInterface {\n    string constant private CERTIFIED_EMAIL_CREATED_EVENT = \"certified_email.contract.created\";\n    string constant private CERTIFICATE_CREATED_EVENT = \"certificate.contract.created\";\n    string constant private FILE_CREATED_EVENT = \"file.contract.created\";\n    string constant private EVENT_CREATED_EVENT = \"event.contract.created\";\n\n    string constant private CERTIFIED_EMAIL_NOTIFIERS_KEY = \"certified-email-notifiers\";\n    string constant private CERTIFICATE_NOTIFIERS_KEY = \"certificate-notifiers\";\n    string constant private FILE_NOTIFIERS_KEY = \"file-notifiers\";\n    string constant private EVENT_NOTIFIERS_KEY = \"event-notifiers\";\n\n    address public signaturit;\n    address public deployer;\n    address public owner;\n\n    string public id;\n    string public subjectHash;\n    string public bodyHash;\n    string public deliveryType;\n\n    string[] public certificatesId;\n\n    uint public createdAt;\n\n    SignaturitUserInterface public userContract;\n\n    mapping(string => CertificateInterface) private certificates;\n\n    constructor(\n        string memory certifiedEmailId,\n        string memory certifiedEmailSubjectHash,\n        string memory certifiedEmailBodyHash,\n        string memory certifiedEmailDeliveryType,\n        uint certifiedEmailCreatedAt,\n        address certifiedEmailDeployer,\n        address certifiedEmailOwner,\n        address userSmartContractAddress\n    ) public {\n        id = certifiedEmailId;\n        subjectHash = certifiedEmailSubjectHash;\n        bodyHash = certifiedEmailBodyHash;\n        deliveryType = certifiedEmailDeliveryType;\n        createdAt = certifiedEmailCreatedAt;\n        deployer = certifiedEmailDeployer;\n        signaturit = msg.sender;\n\n        owner = certifiedEmailOwner;\n\n        userContract = SignaturitUserInterface(userSmartContractAddress);\n    }\n\n    modifier signaturitOnly () {\n        require(\n            tx.origin == signaturit,\n            \"Only Signaturit account can perform this action\"\n        );\n\n        _;\n    }\n\n    function notifyCreation()\n        public\n        signaturitOnly\n    {\n        notifyEntityEvent(CERTIFIED_EMAIL_NOTIFIERS_KEY, CERTIFIED_EMAIL_CREATED_EVENT, address(this));\n    }\n\n    function createCertificate(\n        string memory certificateId,\n        uint certificateCreatedAt,\n        address certificateOwner\n    )\n        public\n        signaturitOnly\n    {\n        CertificateInterface certificate = _getCertificate(certificateId);\n\n        certificate.init(certificateOwner, certificateCreatedAt);\n\n        certificatesId.push(certificateId);\n\n        notifyEntityEvent(CERTIFICATE_NOTIFIERS_KEY, CERTIFICATE_CREATED_EVENT, address(certificate));\n    }\n\n    function createEvent(\n        string memory certificateId,\n        string memory eventId,\n        string memory eventType,\n        string memory eventUserAgent,\n        uint eventCreatedAt\n    )\n        public\n        signaturitOnly\n    {\n        CertificateInterface certificate = _getCertificate(certificateId);\n\n        certificate.createEvent(\n            eventId,\n            eventType,\n            eventUserAgent,\n            eventCreatedAt\n        );\n\n        EventInterface certifiedEmailEvent = EventInterface(certificate.getEvent(eventId));\n\n        require(\n            address(certifiedEmailEvent) != address(0),\n            \"Error while retrieving event from certificate\"\n        );\n\n        notifyEntityEvent(EVENT_NOTIFIERS_KEY, EVENT_CREATED_EVENT, address(certifiedEmailEvent));\n    }\n\n    function createFile(\n        string memory certificateId,\n        string memory fileHash,\n        string memory fileId,\n        string memory fileName,\n        uint fileCreatedAt,\n        uint fileSize\n    )\n        public\n        signaturitOnly\n    {\n        CertificateInterface certificate = _getCertificate(certificateId);\n\n        certificate.createFile(\n            fileHash,\n            fileId,\n            fileName,\n            fileCreatedAt,\n            fileSize\n        );\n\n        FileInterface certifiedEmailFile = certificate.file();\n\n        require(\n            address(certifiedEmailFile) != address(0),\n            \"Error while retrieving file from certificate\"\n        );\n\n        notifyEntityEvent(FILE_NOTIFIERS_KEY, FILE_CREATED_EVENT, address(certifiedEmailFile));\n    }\n\n    function getCertificate (\n        string memory certificateId\n    )\n        public\n        view\n        returns (address)\n    {\n        if (!_certificateExist(certificateId)) return address(0);\n\n        return address(certificates[certificateId]);\n    }\n\n    function getCertificateByIndex(\n        uint index\n    )\n        public\n        view\n        returns (address)\n    {\n        if (index > certificatesId.length - 1) return address(0);\n\n        return address(certificates[certificatesId[index]]);\n    }\n\n\n    function getEvent(\n        string memory certificateId,\n        string memory eventId\n    )\n        public\n        view\n        returns (address)\n    {\n        if (!_certificateExist(certificateId)) return address(0);\n\n        EventInterface certifiedEmailEvent = EventInterface(certificates[certificateId].getEvent(\n            eventId\n        ));\n\n        if (address(certifiedEmailEvent) == address(0)) return address(0);\n\n        return address(certifiedEmailEvent);\n    }\n\n    function getFile(\n        string memory certificateId\n    )\n        public\n        view\n        returns (address)\n    {\n        if (!_certificateExist(certificateId)) return address(0);\n\n        FileInterface certifiedEmailFile = certificates[certificateId].file();\n\n        if (address(certifiedEmailFile) == address(0)) return address(0);\n\n        return address(certifiedEmailFile);\n    }\n\n    function getCertificatesSize()\n        public\n        view\n        returns (uint)\n    {\n        return certificatesId.length;\n    }\n\n    function notifyEntityEvent (\n        string memory notifiersKey,\n        string memory createdEvent,\n        address adrToNotify\n    )\n        public\n        signaturitOnly\n    {\n        address contractToNofify;\n        uint notificationIndex = 0;\n\n        do {\n            contractToNofify = userContract.getAddressArrayAttribute(notifiersKey, notificationIndex);\n            ++notificationIndex;\n\n            if (contractToNofify != address(0)) {\n                contractToNofify.call(\n                    abi.encodeWithSignature(\n                        \"notify(string,address)\",\n                        createdEvent,\n                        adrToNotify\n                    )\n                );\n            }\n        } while (contractToNofify != address(0));\n    }\n\n\n    function _certificateExist(\n        string memory certificateId\n    )\n        private\n        view\n        returns (bool)\n    {\n        return address(certificates[certificateId]) != address(0);\n    }\n\n    function _getCertificate(\n        string memory certificateId\n    )\n        private\n        returns (CertificateInterface)\n    {\n        if (_certificateExist(certificateId))\n            return certificates[certificateId];\n\n        (\n            bool success,\n            bytes memory returnData\n        ) = deployer.delegatecall(\n            abi.encodeWithSignature(\n                \"deployCertificate(string,address)\",\n                certificateId,\n                deployer\n            )\n        );\n\n        require(\n            success,\n            \"Error while deploying certificate\"\n        );\n\n        certificates[certificateId] = CertificateInterface(\n            Utils._bytesToAddress(returnData)\n        );\n\n        return certificates[certificateId];\n    }\n}\n",
  "sourcePath": "/home/administrator/workspace/signaturit-solidity-contracts/contracts/CertifiedEmail.sol",
  "compiler": {
    "name": "solc",
    "version": "0.5.0+commit.1d4f565a.Emscripten.clang"
  },
  "schemaVersion": "3.0.11",
  "updatedAt": "2019-10-16T13:50:03.059Z",
  "devdoc": {
    "methods": {}
  },
  "userdoc": {
    "methods": {}
  }
}