{
  "contractName": "CertifiedFile",
  "abi": [
    {
      "constant": true,
      "inputs": [],
      "name": "hash",
      "outputs": [
        {
          "name": "",
          "type": "string"
        }
      ],
      "payable": false,
      "stateMutability": "view",
      "type": "function"
    },
    {
      "constant": true,
      "inputs": [],
      "name": "owner",
      "outputs": [
        {
          "name": "",
          "type": "address"
        }
      ],
      "payable": false,
      "stateMutability": "view",
      "type": "function"
    },
    {
      "constant": true,
      "inputs": [],
      "name": "size",
      "outputs": [
        {
          "name": "",
          "type": "uint256"
        }
      ],
      "payable": false,
      "stateMutability": "view",
      "type": "function"
    },
    {
      "constant": true,
      "inputs": [],
      "name": "id",
      "outputs": [
        {
          "name": "",
          "type": "string"
        }
      ],
      "payable": false,
      "stateMutability": "view",
      "type": "function"
    },
    {
      "constant": true,
      "inputs": [],
      "name": "createdAt",
      "outputs": [
        {
          "name": "",
          "type": "uint256"
        }
      ],
      "payable": false,
      "stateMutability": "view",
      "type": "function"
    },
    {
      "constant": true,
      "inputs": [],
      "name": "signaturit",
      "outputs": [
        {
          "name": "",
          "type": "address"
        }
      ],
      "payable": false,
      "stateMutability": "view",
      "type": "function"
    },
    {
      "inputs": [
        {
          "name": "_owner",
          "type": "address"
        },
        {
          "name": "userContractAddress",
          "type": "address"
        },
        {
          "name": "fileId",
          "type": "string"
        },
        {
          "name": "fileHash",
          "type": "string"
        },
        {
          "name": "fileCreatedAt",
          "type": "uint256"
        },
        {
          "name": "fileSize",
          "type": "uint256"
        }
      ],
      "payable": false,
      "stateMutability": "nonpayable",
      "type": "constructor"
    },
    {
      "constant": false,
      "inputs": [],
      "name": "notifyEvent",
      "outputs": [],
      "payable": false,
      "stateMutability": "nonpayable",
      "type": "function"
    }
  ],
  "bytecode": "0x608060405234801561001057600080fd5b50604051610820380380610820833981018060405260c081101561003357600080fd5b815160208301516040840180519294919382019264010000000081111561005957600080fd5b8201602081018481111561006c57600080fd5b815164010000000081118282018710171561008657600080fd5b505092919060200180516401000000008111156100a257600080fd5b820160208101848111156100b557600080fd5b81516401000000008111828201871017156100cf57600080fd5b50506020828101516040909301516007805433600160a060020a03199182161790915560088054909116600160a060020a038b16179055865192955092935061011d91600991870190610160565b50825161013190600a906020860190610160565b50600c55600b555050600d8054600160a060020a031916600160a060020a0392909216919091179055506101fb565b828054600181600116156101000203166002900490600052602060002090601f016020900481019282601f106101a157805160ff19168380011785556101ce565b828001600101855582156101ce579182015b828111156101ce5782518255916020019190600101906101b3565b506101da9291506101de565b5090565b6101f891905b808211156101da57600081556001016101e4565b90565b6106168061020a6000396000f3fe6080604052600436106100695763ffffffff60e060020a60003504166309bd5a60811461006e5780638da5cb5b146100f8578063949d225d14610129578063af640d0f14610150578063cf09e0d014610165578063de3bb6de1461017a578063f9b5333514610191575b600080fd5b34801561007a57600080fd5b506100836101a6565b6040805160208082528351818301528351919283929083019185019080838360005b838110156100bd5781810151838201526020016100a5565b50505050905090810190601f1680156100ea5780820380516001836020036101000a031916815260200191505b509250505060405180910390f35b34801561010457600080fd5b5061010d610234565b60408051600160a060020a039092168252519081900360200190f35b34801561013557600080fd5b5061013e610243565b60408051918252519081900360200190f35b34801561015c57600080fd5b50610083610249565b34801561017157600080fd5b5061013e6102a4565b34801561018657600080fd5b5061018f6102aa565b005b34801561019d57600080fd5b5061010d6105db565b600a805460408051602060026001851615610100026000190190941693909304601f8101849004840282018401909252818152929183018282801561022c5780601f106102015761010080835404028352916020019161022c565b820191906000526020600020905b81548152906001019060200180831161020f57829003601f168201915b505050505081565b600854600160a060020a031681565b600c5481565b6009805460408051602060026001851615610100026000190190941693909304601f8101849004840282018401909252818152929183018282801561022c5780601f106102015761010080835404028352916020019161022c565b600b5481565b600754600160a060020a03163314610327576040805160e560020a62461bcd02815260206004820152602f60248201527f4f6e6c79205369676e617475726974206163636f756e742063616e20706572666044820152608960020a6e37b936903a3434b99030b1ba34b7b702606482015290519081900360840190fd5b6000805b600d5460408051808201825260158152605860020a746365727469666965642d66696c652d6e6f666966790260208201908152825160e260020a633ce8989d0281526024810186905260048101938452825160448201528251600160a060020a039095169463f3a26274948793909283926064909101919080838360005b838110156103c15781810151838201526020016103a9565b50505050905090810190601f1680156103ee5780820380516001836020036101000a031916815260200191505b50935050505060206040518083038186803b15801561040c57600080fd5b505afa158015610420573d6000803e3d6000fd5b505050506040513d602081101561043657600080fd5b50519150600101600160a060020a038216156105c757604080518082018252601f81527f6365727469666965645f66696c652e636f6e74726163742e6372656174656400602082019081528251306044820181905260248201948552835160648301528351600160a060020a0388169591939192839260849091019180838360005b838110156104d05781810151838201526020016104b8565b50505050905090810190601f1680156104fd5780820380516001836020036101000a031916815260200191505b5060408051601f19818403018152918152602082018051600160e060020a031660e160020a63738f32bb0217815290518251929650945084935091508083835b6020831061055c5780518252601f19909201916020918201910161053d565b6001836020036101000a0380198251168184511680821785525050505050509050019150506000604051808303816000865af19150503d80600081146105be576040519150601f19603f3d011682016040523d82523d6000602084013e6105c3565b606091505b5050505b600160a060020a038216151561032b575050565b600754600160a060020a03168156fea165627a7a72305820146da95caef31162a7bfa1d533b59e05f5027a5207d70b29d1ce89966ef29a950029",
  "source": "pragma solidity <0.6.0;\n\n/*\nGas to deploy: 655.214\n*/\n\nimport \"./interfaces/CertifiedFileInterface.sol\";\nimport \"./interfaces/SignaturitUserInterface.sol\";\n\n\ncontract CertifiedFile is CertifiedFileInterface {\n    address public signaturit;\n    address public owner;\n\n    string constant CREATED_EVENT = 'certified_file.contract.created';\n    string constant NOTIFIERS_KEY = 'certified-file-nofify';\n\n    string public id;\n    string public hash;\n\n    uint public createdAt;\n    uint public size;\n\n    SignaturitUserInterface userContract;\n\n    modifier signaturitOnly() {\n        require(\n            msg.sender == signaturit,\n            \"Only Signaturit account can perform this action\"\n        );\n\n        _;\n    }\n\n    constructor(\n        address _owner,\n        address userContractAddress,\n        string memory fileId,\n        string memory fileHash,\n        uint fileCreatedAt,\n        uint fileSize\n    )\n        public\n    {\n        signaturit = msg.sender;\n        owner = _owner;\n\n        id = fileId;\n        hash = fileHash;\n        size = fileSize;\n        createdAt = fileCreatedAt;\n\n        userContract = SignaturitUserInterface(userContractAddress);\n    }\n\n    function notifyEvent ()\n        public\n        signaturitOnly\n    {\n        address contractToNofify;\n        uint notificationIndex = 0;\n\n        do {\n            contractToNofify = userContract.getAddressArrayAttribute(NOTIFIERS_KEY, notificationIndex);\n            ++notificationIndex;\n\n            if (contractToNofify != address(0)) {\n                contractToNofify.call(\n                    abi.encodeWithSignature(\n                        'notify(string,address)',\n                        CREATED_EVENT,\n                        address(this)\n                    )\n                );\n            }\n        } while (contractToNofify != address(0));\n    }\n}\n",
  "sourcePath": "/Users/alex/workspace/signaturit-solidity-contracts/contracts/CertifiedFile.sol",
  "compiler": {
    "name": "solc",
    "version": "0.5.0+commit.1d4f565a.Emscripten.clang"
  },
  "schemaVersion": "3.0.13",
  "updatedAt": "2019-10-01T13:42:50.375Z",
  "devdoc": {
    "methods": {}
  },
  "userdoc": {
    "methods": {}
  }
}