{
  "contractName": "CertifiedEmailAggregator",
  "abi": [
    {
      "constant": true,
      "inputs": [],
      "name": "userContract",
      "outputs": [
        {
          "name": "",
          "type": "address"
        }
      ],
      "payable": false,
      "stateMutability": "view",
      "type": "function"
    },
    {
      "constant": true,
      "inputs": [],
      "name": "aggregatorName",
      "outputs": [
        {
          "name": "",
          "type": "string"
        }
      ],
      "payable": false,
      "stateMutability": "view",
      "type": "function"
    },
    {
      "constant": true,
      "inputs": [],
      "name": "notifiersKey",
      "outputs": [
        {
          "name": "",
          "type": "string"
        }
      ],
      "payable": false,
      "stateMutability": "view",
      "type": "function"
    },
    {
      "constant": false,
      "inputs": [
        {
          "name": "userContractAddress",
          "type": "address"
        }
      ],
      "name": "setOnUser",
      "outputs": [],
      "payable": false,
      "stateMutability": "nonpayable",
      "type": "function"
    },
    {
      "constant": true,
      "inputs": [],
      "name": "signaturit",
      "outputs": [
        {
          "name": "",
          "type": "address"
        }
      ],
      "payable": false,
      "stateMutability": "view",
      "type": "function"
    },
    {
      "inputs": [
        {
          "name": "_userContractAddress",
          "type": "address"
        }
      ],
      "payable": false,
      "stateMutability": "nonpayable",
      "type": "constructor"
    },
    {
      "constant": true,
      "inputs": [
        {
          "name": "id",
          "type": "string"
        }
      ],
      "name": "getCertifiedEmailById",
      "outputs": [
        {
          "name": "",
          "type": "address"
        }
      ],
      "payable": false,
      "stateMutability": "view",
      "type": "function"
    },
    {
      "constant": true,
      "inputs": [
        {
          "name": "index",
          "type": "uint256"
        }
      ],
      "name": "getCertifiedEmail",
      "outputs": [
        {
          "name": "addr",
          "type": "address"
        },
        {
          "name": "more",
          "type": "bool"
        }
      ],
      "payable": false,
      "stateMutability": "view",
      "type": "function"
    },
    {
      "constant": true,
      "inputs": [],
      "name": "count",
      "outputs": [
        {
          "name": "",
          "type": "uint256"
        }
      ],
      "payable": false,
      "stateMutability": "view",
      "type": "function"
    },
    {
      "constant": false,
      "inputs": [
        {
          "name": "eventType",
          "type": "string"
        },
        {
          "name": "addr",
          "type": "address"
        }
      ],
      "name": "notify",
      "outputs": [],
      "payable": false,
      "stateMutability": "nonpayable",
      "type": "function"
    }
  ],
  "bytecode": "0x60806040523480156200001157600080fd5b5060405160208062000eba833981018060405260208110156200003357600080fd5b5051604080518082018252601a81527f6365727469666965642d656d61696c2d61676772656761746f7200000000000060208281019182528351808501909452601984527f6365727469666965642d656d61696c2d6e6f74696669657273000000000000009084015260018054600160a060020a031916331790558151919291620000c191600291620003b8565b508051620000d7906003906020840190620003b8565b505050620000f481620000fb640100000000026401000000009004565b506200045d565b600154600160a060020a031632146200019b57604080517f08c379a000000000000000000000000000000000000000000000000000000000815260206004820152602f60248201527f4f6e6c79205369676e617475726974206163636f756e742063616e207065726660448201527f6f726d207468697320616374696f6e0000000000000000000000000000000000606482015290519081900360840190fd5b60008054600160a060020a031916600160a060020a038381169190911791829055604080517f34311d8e0000000000000000000000000000000000000000000000000000000081523060248201819052600482019283526002805461010060018216150260001901168190046044840181905295909416946334311d8e94939192829160649091019085908015620002775780601f106200024b5761010080835404028352916020019162000277565b820191906000526020600020905b8154815290600101906020018083116200025957829003601f168201915b50509350505050600060405180830381600087803b1580156200029957600080fd5b505af1158015620002ae573d6000803e3d6000fd5b5050600054604080517fd661f878000000000000000000000000000000000000000000000000000000008152306024820181905260048201928352600380546002600019600183161561010002019091160460448401819052600160a060020a03909516965063d661f8789550939092918291606490910190859080156200037a5780601f106200034e576101008083540402835291602001916200037a565b820191906000526020600020905b8154815290600101906020018083116200035c57829003601f168201915b50509350505050600060405180830381600087803b1580156200039c57600080fd5b505af1158015620003b1573d6000803e3d6000fd5b5050505050565b828054600181600116156101000203166002900490600052602060002090601f016020900481019282601f10620003fb57805160ff19168380011785556200042b565b828001600101855582156200042b579182015b828111156200042b5782518255916020019190600101906200040e565b50620004399291506200043d565b5090565b6200045a91905b8082111562000439576000815560010162000444565b90565b610a4d806200046d6000396000f3fe60806040526004361061007f5763ffffffff60e060020a60003504166306661abd811461008457806307158d5d146100ab5780635000596b146100f85780636d1ff75114610129578063984eec37146101da578063d9026ed114610264578063dfb3753e14610279578063e71e6576146102ae578063f9b533351461036a575b600080fd5b34801561009057600080fd5b5061009961037f565b60408051918252519081900360200190f35b3480156100b757600080fd5b506100d5600480360360208110156100ce57600080fd5b5035610385565b60408051600160a060020a03909316835290151560208301528051918290030190f35b34801561010457600080fd5b5061010d6103fc565b60408051600160a060020a039092168252519081900360200190f35b34801561013557600080fd5b5061010d6004803603602081101561014c57600080fd5b810190602081018135602060020a81111561016657600080fd5b82018360208201111561017857600080fd5b803590602001918460018302840111602060020a8311171561019957600080fd5b91908080601f01602080910402602001604051908101604052809392919081815260200183838082843760009201919091525092955061040b945050505050565b3480156101e657600080fd5b506101ef610436565b6040805160208082528351818301528351919283929083019185019080838360005b83811015610229578181015183820152602001610211565b50505050905090810190601f1680156102565780820380516001836020036101000a031916815260200191505b509250505060405180910390f35b34801561027057600080fd5b506101ef6104c1565b34801561028557600080fd5b506102ac6004803603602081101561029c57600080fd5b5035600160a060020a031661051c565b005b3480156102ba57600080fd5b506102ac600480360360408110156102d157600080fd5b810190602081018135602060020a8111156102eb57600080fd5b8201836020820111156102fd57600080fd5b803590602001918460018302840111602060020a8311171561031e57600080fd5b91908080601f01602080910402602001604051908101604052809392919081815260200183838082843760009201919091525092955050509035600160a060020a0316915061076c9050565b34801561037657600080fd5b5061010d610960565b60055490565b600580546000918291600185018111918391869081106103a157fe5b60009182526020808320909101548083526004909152604090912054909150600160a060020a0316156103ef57600090815260046020526040902054600160a060020a0316925090506103f7565b506000925090505b915091565b600054600160a060020a031681565b6000806104178361096f565b600090815260046020526040902054600160a060020a03169392505050565b6002805460408051602060018416156101000260001901909316849004601f810184900484028201840190925281815292918301828280156104b95780601f1061048e576101008083540402835291602001916104b9565b820191906000526020600020905b81548152906001019060200180831161049c57829003601f168201915b505050505081565b6003805460408051602060026001851615610100026000190190941693909304601f810184900484028201840190925281815292918301828280156104b95780601f1061048e576101008083540402835291602001916104b9565b600154600160a060020a03163214610587576040805160e560020a62461bcd02815260206004820152602f6024820152600080516020610a028339815191526044820152608960020a6e37b936903a3434b99030b1ba34b7b702606482015290519081900360840190fd5b60008054600160a060020a031916600160a060020a0383811691909117918290556040805160e160020a631a188ec70281523060248201819052600482019283526002805461010060018216150260001901168190046044840181905295909416946334311d8e949391928291606490910190859080156106495780601f1061061e57610100808354040283529160200191610649565b820191906000526020600020905b81548152906001019060200180831161062c57829003601f168201915b50509350505050600060405180830381600087803b15801561066a57600080fd5b505af115801561067e573d6000803e3d6000fd5b50506000546040805160e360020a631acc3f0f028152306024820181905260048201928352600380546002600019600183161561010002019091160460448401819052600160a060020a03909516965063d661f8789550939092918291606490910190859080156107305780601f1061070557610100808354040283529160200191610730565b820191906000526020600020905b81548152906001019060200180831161071357829003601f168201915b50509350505050600060405180830381600087803b15801561075157600080fd5b505af1158015610765573d6000803e3d6000fd5b5050505050565b600154600160a060020a031632146107d7576040805160e560020a62461bcd02815260206004820152602f6024820152600080516020610a028339815191526044820152608960020a6e37b936903a3434b99030b1ba34b7b702606482015290519081900360840190fd5b60006107e28361096f565b9050806108236040805190810160405280602081526020017f6365727469666965645f656d61696c2e636f6e74726163742e6372656174656481525061096f565b141561095b57600082905060006108fc82600160a060020a031663af640d0f6040518163ffffffff1660e060020a02815260040160006040518083038186803b15801561086f57600080fd5b505afa158015610883573d6000803e3d6000fd5b505050506040513d6000823e601f3d908101601f1916820160405260208110156108ac57600080fd5b810190808051602060020a8111156108c357600080fd5b820160208101848111156108d657600080fd5b8151602060020a8111828201871017156108ef57600080fd5b505092919050505061096f565b60058054600181019091557f036b6384b5eca791c62761152d0c79bb0604c104a5fb6f4eb0703f3154bb3db00181905560009081526004602052604090208054600160a060020a031916600160a060020a039390931692909217909155505b505050565b600154600160a060020a031681565b6000816040516020018080602001828103825283818151815260200191508051906020019080838360005b838110156109b257818101518382015260200161099a565b50505050905090810190601f1680156109df5780820380516001836020036101000a031916815260200191505b509250505060405160208183030381529060405280519060200120905091905056fe4f6e6c79205369676e617475726974206163636f756e742063616e2070657266a165627a7a72305820415b9df2d3eb0ce17c1e38c62e4a67cdb40767cf59e8ef68a76566e127ebe0bb0029",
  "source": "pragma solidity <0.6.0;\n\n/*\nGas to deploy: 959.102\n*/\n\nimport \"./interfaces/NotifierInterface.sol\";\nimport \"./BaseAggregator.sol\";\nimport \"./CertifiedEmail.sol\";\n\ncontract CertifiedEmailAggregator is\n    NotifierInterface,\n    BaseAggregator(\n        \"certified-email-aggregator\",\n        \"certified-email-notifiers\"\n    )\n{\n    string constant private CERTIFIED_EMAIL_CREATED_EVENT = \"certified_email.contract.created\";\n\n    mapping (bytes32 => CertifiedEmail) private certifiedEmails;\n    \n    bytes32[] private certifiedEmailIds;\n\n    constructor (\n        address _userContractAddress\n    ) public {\n        setOnUser(_userContractAddress);\n    }\n\n    function getCertifiedEmailById(\n        string memory id\n    )\n        public\n        view\n        returns (address)\n    {\n        bytes32 bytes32id = Utils.keccak(id);\n\n        return address(certifiedEmails[bytes32id]);\n    }\n\n    function getCertifiedEmail(\n        uint index\n    )\n        public\n        view\n        returns (address addr, bool more)\n    {\n        bool _more = index + 1 < certifiedEmailIds.length;\n        bytes32 certifiedEmailId = certifiedEmailIds[index];\n\n        if (address(certifiedEmails[certifiedEmailId]) != address(0)) {\n            return (\n                address(certifiedEmails[certifiedEmailId]),\n                _more\n            );\n        }\n\n        return (\n            address(0),\n            _more\n        );\n    }\n\n    function count()\n        public\n        view\n        returns (uint)\n    {\n        return certifiedEmailIds.length;\n    }\n\n    function notify(\n        string memory eventType,\n        address addr\n    )\n        public\n        signaturitOnly\n    {\n        bytes32 bytes32eventType = Utils.keccak(eventType);\n\n        if (Utils.keccak(CERTIFIED_EMAIL_CREATED_EVENT) == bytes32eventType) {\n            CertifiedEmail certifiedEmail = CertifiedEmail(addr);\n\n            bytes32 bytes32id = Utils.keccak(certifiedEmail.id());\n\n            certifiedEmailIds.push(bytes32id);\n            certifiedEmails[bytes32id] = certifiedEmail;\n        }\n    }\n}",
  "sourcePath": "/Users/alex/workspace/signaturit-solidity-contracts/contracts/CertifiedEmailAggregator.sol",
  "compiler": {
    "name": "solc",
    "version": "0.5.0+commit.1d4f565a.Emscripten.clang"
  },
  "schemaVersion": "3.0.13",
  "updatedAt": "2019-10-15T15:52:38.146Z",
  "devdoc": {
    "methods": {}
  },
  "userdoc": {
    "methods": {}
  }
}