{
  "contractName": "CertifiedFileInterface",
  "abi": [
    {
      "constant": true,
      "inputs": [],
      "name": "hash",
      "outputs": [
        {
          "name": "",
          "type": "string"
        }
      ],
      "payable": false,
      "stateMutability": "view",
      "type": "function"
    },
    {
      "constant": true,
      "inputs": [],
      "name": "owner",
      "outputs": [
        {
          "name": "",
          "type": "address"
        }
      ],
      "payable": false,
      "stateMutability": "view",
      "type": "function"
    },
    {
      "constant": true,
      "inputs": [],
      "name": "size",
      "outputs": [
        {
          "name": "",
          "type": "uint256"
        }
      ],
      "payable": false,
      "stateMutability": "view",
      "type": "function"
    },
    {
      "constant": true,
      "inputs": [],
      "name": "id",
      "outputs": [
        {
          "name": "",
          "type": "string"
        }
      ],
      "payable": false,
      "stateMutability": "view",
      "type": "function"
    },
    {
      "constant": true,
      "inputs": [],
      "name": "createdAt",
      "outputs": [
        {
          "name": "",
          "type": "uint256"
        }
      ],
      "payable": false,
      "stateMutability": "view",
      "type": "function"
    },
    {
      "constant": true,
      "inputs": [],
      "name": "signaturit",
      "outputs": [
        {
          "name": "",
          "type": "address"
        }
      ],
      "payable": false,
      "stateMutability": "view",
      "type": "function"
    }
  ],
  "bytecode": "0x608060405234801561001057600080fd5b506102c0806100206000396000f3fe60806040526004361061005e5763ffffffff60e060020a60003504166309bd5a6081146100635780638da5cb5b146100ed578063949d225d1461011e578063af640d0f14610145578063cf09e0d01461015a578063f9b533351461016f575b600080fd5b34801561006f57600080fd5b50610078610184565b6040805160208082528351818301528351919283929083019185019080838360005b838110156100b257818101518382015260200161009a565b50505050905090810190601f1680156100df5780820380516001836020036101000a031916815260200191505b509250505060405180910390f35b3480156100f957600080fd5b50610102610212565b60408051600160a060020a039092168252519081900360200190f35b34801561012a57600080fd5b50610133610221565b60408051918252519081900360200190f35b34801561015157600080fd5b50610078610227565b34801561016657600080fd5b5061013361027f565b34801561017b57600080fd5b50610102610285565b6003805460408051602060026001851615610100026000190190941693909304601f8101849004840282018401909252818152929183018282801561020a5780601f106101df5761010080835404028352916020019161020a565b820191906000526020600020905b8154815290600101906020018083116101ed57829003601f168201915b505050505081565b600154600160a060020a031681565b60055481565b6002805460408051602060018416156101000260001901909316849004601f8101849004840282018401909252818152929183018282801561020a5780601f106101df5761010080835404028352916020019161020a565b60045481565b600054600160a060020a03168156fea165627a7a7230582091ebd5241c571c87b3cce6a01fe50ef5dfc2f3342a2cec59b869e70dac02eae50029",
  "source": "pragma solidity <0.6.0;\n\nimport \"./SignaturitUserInterface.sol\";\nimport \"./CertifiedFileCheckerInterface.sol\";\n\ncontract CertifiedFileInterface {\n    address public signaturit;\n    address public owner;\n\n    string public id;\n    string public hash;\n\n    uint public createdAt;\n    uint public size;\n\n    SignaturitUserInterface userContract;\n}\n",
  "sourcePath": "/home/administrator/workspace/signaturit-solidity-contracts/contracts/interfaces/CertifiedFileInterface.sol",
  "compiler": {
    "name": "solc",
    "version": "0.5.0+commit.1d4f565a.Emscripten.clang"
  },
  "schemaVersion": "3.0.11",
  "updatedAt": "2019-10-07T12:01:23.947Z",
  "devdoc": {
    "methods": {}
  },
  "userdoc": {
    "methods": {}
  }
}