{
  "contractName": "CertifiedFileChecker",
  "abi": [
    {
      "constant": true,
      "inputs": [],
      "name": "signaturit",
      "outputs": [
        {
          "name": "",
          "type": "address"
        }
      ],
      "payable": false,
      "stateMutability": "view",
      "type": "function"
    },
    {
      "inputs": [],
      "payable": false,
      "stateMutability": "nonpayable",
      "type": "constructor"
    },
    {
      "constant": false,
      "inputs": [
        {
          "name": "certifiedFileAddress",
          "type": "address"
        }
      ],
      "name": "addFile",
      "outputs": [],
      "payable": false,
      "stateMutability": "nonpayable",
      "type": "function"
    },
    {
      "constant": true,
      "inputs": [
        {
          "name": "fileHash",
          "type": "string"
        },
        {
          "name": "index",
          "type": "uint256"
        }
      ],
      "name": "getFile",
      "outputs": [
        {
          "name": "id",
          "type": "string"
        },
        {
          "name": "name",
          "type": "string"
        },
        {
          "name": "hash",
          "type": "string"
        },
        {
          "name": "size",
          "type": "uint256"
        },
        {
          "name": "createdAt",
          "type": "uint256"
        },
        {
          "name": "owner",
          "type": "address"
        },
        {
          "name": "contract_address",
          "type": "address"
        },
        {
          "name": "more",
          "type": "bool"
        }
      ],
      "payable": false,
      "stateMutability": "view",
      "type": "function"
    }
  ],
  "bytecode": "0x608060405234801561001057600080fd5b5060018054600160a060020a03191633179055610a37806100326000396000f3fe60806040526004361061003d5763ffffffff60e060020a6000350416632689734d81146100425780636cf0d39214610077578063f9b53335146102a1575b600080fd5b34801561004e57600080fd5b506100756004803603602081101561006557600080fd5b5035600160a060020a03166102d2565b005b34801561008357600080fd5b5061012a6004803603604081101561009a57600080fd5b810190602081018135602060020a8111156100b457600080fd5b8201836020820111156100c657600080fd5b803590602001918460018302840111602060020a831117156100e757600080fd5b91908080601f01602080910402602001604051908101604052809392919081815260200183838082843760009201919091525092955050913592506104fd915050565b604080516060810187905260808101869052600160a060020a0380861660a0830152841660c082015282151560e08201526101008082528a51908201528951909182916020808401928401916101208501918e019080838360005b8381101561019d578181015183820152602001610185565b50505050905090810190601f1680156101ca5780820380516001836020036101000a031916815260200191505b5084810383528b5181528b516020918201918d019080838360005b838110156101fd5781810151838201526020016101e5565b50505050905090810190601f16801561022a5780820380516001836020036101000a031916815260200191505b5084810382528a5181528a516020918201918c019080838360005b8381101561025d578181015183820152602001610245565b50505050905090810190601f16801561028a5780820380516001836020036101000a031916815260200191505b509b50505050505050505050505060405180910390f35b3480156102ad57600080fd5b506102b66109fc565b60408051600160a060020a039092168252519081900360200190f35b600154600160a060020a0316321461034f576040805160e560020a62461bcd02815260206004820152602f60248201527f4f6e6c79205369676e617475726974206163636f756e742063616e20706572666044820152608960020a6e37b936903a3434b99030b1ba34b7b702606482015290519081900360840190fd5b6000819050600081600160a060020a03166309bd5a606040518163ffffffff1660e060020a02815260040160006040518083038186803b15801561039257600080fd5b505afa1580156103a6573d6000803e3d6000fd5b505050506040513d6000823e601f3d908101601f1916820160405260208110156103cf57600080fd5b810190808051602060020a8111156103e657600080fd5b820160208101848111156103f957600080fd5b8151602060020a81118282018710171561041257600080fd5b50509291905050506040516020018082805190602001908083835b6020831061044c5780518252601f19909201916020918201910161042d565b51815160209384036101000a60001901801990921691161790526040805192909401828103601f19018352845281519181019190912060008181526002909252929020549194505060ff16151591506104bb9050576000818152600260205260409020805460ff191660011790555b6000908152600260209081526040822060019081018054918201815583529120018054600160a060020a031916600160a060020a039290921691909117905550565b60608060606000806000806000808a6040516020018082805190602001908083835b6020831061053e5780518252601f19909201916020918201910161051f565b51815160209384036101000a60001901801990921691161790526040805192909401828103601f19018352845281519181019190912060008181526002909252929020549194505060ff1691505080156105a857506000818152600260205260409020600101548a105b156109b2576000818152600260205260408120600190810154908c01106105d05760006105d3565b60015b6000838152600260205260408120600101805492935090918d9081106105f557fe5b60009182526020822001546040805160e060020a63af640d0f0281529051600160a060020a039092169350839263af640d0f92600480840193829003018186803b15801561064257600080fd5b505afa158015610656573d6000803e3d6000fd5b505050506040513d6000823e601f3d908101601f19168201604052602081101561067f57600080fd5b810190808051602060020a81111561069657600080fd5b820160208101848111156106a957600080fd5b8151602060020a8111828201871017156106c257600080fd5b505092919050505081600160a060020a03166306fdde036040518163ffffffff1660e060020a02815260040160006040518083038186803b15801561070657600080fd5b505afa15801561071a573d6000803e3d6000fd5b505050506040513d6000823e601f3d908101601f19168201604052602081101561074357600080fd5b810190808051602060020a81111561075a57600080fd5b8201602081018481111561076d57600080fd5b8151602060020a81118282018710171561078657600080fd5b505092919050505082600160a060020a03166309bd5a606040518163ffffffff1660e060020a02815260040160006040518083038186803b1580156107ca57600080fd5b505afa1580156107de573d6000803e3d6000fd5b505050506040513d6000823e601f3d908101601f19168201604052602081101561080757600080fd5b810190808051602060020a81111561081e57600080fd5b8201602081018481111561083157600080fd5b8151602060020a81118282018710171561084a57600080fd5b505092919050505083600160a060020a031663949d225d6040518163ffffffff1660e060020a02815260040160206040518083038186803b15801561088e57600080fd5b505afa1580156108a2573d6000803e3d6000fd5b505050506040513d60208110156108b857600080fd5b50516040805160e460020a630cf09e0d0281529051600160a060020a0387169163cf09e0d0916004808301926020929190829003018186803b1580156108fd57600080fd5b505afa158015610911573d6000803e3d6000fd5b505050506040513d602081101561092757600080fd5b50516040805160e060020a638da5cb5b0281529051600160a060020a03881691638da5cb5b916004808301926020929190829003018186803b15801561096c57600080fd5b505afa158015610980573d6000803e3d6000fd5b505050506040513d602081101561099657600080fd5b5051949f50929d50909b50995097509550935091506109ef9050565b5050604080516020818101835260008083528351808301855281815284519283019094528082529199509197509095509350839250829150819050805b9295985092959890939650565b600154600160a060020a03168156fea165627a7a723058200709c178c38f4c43f16e226970aee81b79ab62a09589c764a0173894f20882460029",
  "source": "pragma solidity <0.6.0;\n\n/*\nGas to deploy: 894.726\n*/\n\nimport \"./interfaces/CertifiedFileInterface.sol\";\nimport \"./interfaces/CertifiedFileCheckerInterface.sol\";\n\ncontract CertifiedFileChecker is CertifiedFileCheckerInterface {\n\n    address public signaturit;\n\n    struct CertifiedFilesWithHash {\n        bool exist;\n        CertifiedFileInterface[] files;\n    }\n\n    mapping(bytes32 => CertifiedFilesWithHash) private certifiedFiles;\n\n    modifier signaturitOnly() {\n        require(\n            tx.origin == signaturit, \n            \"Only Signaturit account can perform this action\"\n        );\n        \n        _;\n    }\n\n    constructor() public {\n        signaturit = msg.sender;\n    }\n\n    function addFile(\n        address certifiedFileAddress\n    ) public signaturitOnly {\n        CertifiedFileInterface cerfiedFile = CertifiedFileInterface(certifiedFileAddress);\n\n        bytes32 hashConverted = keccak256(\n            abi.encodePacked(cerfiedFile.hash())\n        );\n\n        if (!certifiedFiles[hashConverted].exist) certifiedFiles[hashConverted].exist = true;\n\n        certifiedFiles[hashConverted].files.push(cerfiedFile);\n    }\n\n    function getFile(\n        string memory fileHash,\n        uint index\n    ) public view returns(\n        string memory id,\n        string memory name,\n        string memory hash,\n        uint size,\n        uint createdAt,\n        address  owner,\n        address contract_address,\n        bool more\n    ) {\n        bytes32 hashConverted = keccak256(\n            abi.encodePacked(fileHash)\n        );\n\n        if (\n            certifiedFiles[hashConverted].exist &&\n            certifiedFiles[hashConverted].files.length > index\n        ) {\n            bool foundMore = certifiedFiles[hashConverted].files.length > (index + 1) ? true : false;\n            CertifiedFileInterface certifiedFile = certifiedFiles[hashConverted].files[index];\n\n            return (\n                certifiedFile.id(),\n                certifiedFile.name(),\n                certifiedFile.hash(),\n                certifiedFile.size(),\n                certifiedFile.createdAt(),\n                certifiedFile.owner(),\n                address(certifiedFile),\n                foundMore\n            );\n        }\n\n        return (\n            \"\",\n            \"\",\n            \"\",\n            0,\n            0,\n            address(0),\n            address(0),\n            false\n        );\n    }\n}\n",
  "sourcePath": "/Users/alex/workspace/signaturit-solidity-contracts/contracts/CertifiedFileChecker.sol",
  "compiler": {
    "name": "solc",
    "version": "0.5.0+commit.1d4f565a.Emscripten.clang"
  },
  "schemaVersion": "3.0.13",
  "updatedAt": "2019-09-26T09:27:15.021Z",
  "devdoc": {
    "methods": {}
  },
  "userdoc": {
    "methods": {}
  }
}