{
  "contractName": "CertifiedFileChecker",
  "abi": [
    {
      "inputs": [],
      "payable": false,
      "stateMutability": "nonpayable",
      "type": "constructor"
    },
    {
      "constant": false,
      "inputs": [
        {
          "name": "certifiedFileAddress",
          "type": "address"
        }
      ],
      "name": "addFile",
      "outputs": [],
      "payable": false,
      "stateMutability": "nonpayable",
      "type": "function"
    },
    {
      "constant": true,
      "inputs": [
        {
          "name": "fileHash",
          "type": "string"
        },
        {
          "name": "index",
          "type": "uint256"
        }
      ],
      "name": "getFile",
      "outputs": [
        {
          "name": "id",
          "type": "string"
        },
        {
          "name": "name",
          "type": "string"
        },
        {
          "name": "hash",
          "type": "string"
        },
        {
          "name": "size",
          "type": "uint256"
        },
        {
          "name": "createdAt",
          "type": "uint256"
        },
        {
          "name": "owner",
          "type": "address"
        },
        {
          "name": "more",
          "type": "bool"
        }
      ],
      "payable": false,
      "stateMutability": "view",
      "type": "function"
    }
  ],
  "bytecode": "0x608060405234801561001057600080fd5b5060008054600160a060020a03191633179055610a9e806100326000396000f3fe6080604052600436106100325763ffffffff60e060020a6000350416632689734d81146100375780636cf0d3921461006c575b600080fd5b34801561004357600080fd5b5061006a6004803603602081101561005a57600080fd5b5035600160a060020a031661028c565b005b34801561007857600080fd5b5061011f6004803603604081101561008f57600080fd5b810190602081018135602060020a8111156100a957600080fd5b8201836020820111156100bb57600080fd5b803590602001918460018302840111602060020a831117156100dc57600080fd5b91908080601f0160208091040260200160405190810160405280939291908181526020018383808284376000920191909152509295505091359250610496915050565b604080516060810186905260808101859052600160a060020a03841660a082015282151560c082015260e08082528951908201528851909182916020808401928401916101008501918d019080838360005b83811015610189578181015183820152602001610171565b50505050905090810190601f1680156101b65780820380516001836020036101000a031916815260200191505b5084810383528a5181528a516020918201918c019080838360005b838110156101e95781810151838201526020016101d1565b50505050905090810190601f1680156102165780820380516001836020036101000a031916815260200191505b5084810382528951815289516020918201918b019080838360005b83811015610249578181015183820152602001610231565b50505050905090810190601f1680156102765780820380516001836020036101000a031916815260200191505b509a505050505050505050505060405180910390f35b600054600160a060020a031632146102e7576040805160e560020a62461bcd0281526020600482015260136024820152606960020a722ab730baba3437b934bd32b21030b1ba34b7b702604482015290519081900360640190fd5b6000819050600081600160a060020a03166309bd5a606040518163ffffffff1660e060020a02815260040160006040518083038186803b15801561032a57600080fd5b505afa15801561033e573d6000803e3d6000fd5b505050506040513d6000823e601f3d908101601f19168201604052602081101561036757600080fd5b810190808051602060020a81111561037e57600080fd5b8201602081018481111561039157600080fd5b8151602060020a8111828201871017156103aa57600080fd5b50509291905050506040516020018082805190602001908083835b602083106103e45780518252601f1990920191602091820191016103c5565b51815160209384036101000a60001901801990921691161790526040805192909401828103601f19018352845281519181019190912060008181526001909252929020549194505060ff16151591506104569050576000818152600160208190526040909120805460ff191690911790555b600090815260016020818152604083208201805492830181558352909120018054600160a060020a031916600160a060020a039290921691909117905550565b60608060606000806000806000896040516020018082805190602001908083835b602083106104d65780518252601f1990920191602091820191016104b7565b51815160209384036101000a60001901801990921691161790526040805192909401828103601f19018352845281519181019190912060008181526001909252929020549194505060ff16915050801561054157506000818152600160208190526040909120015489105b15610a2c5760008181526001602081905260408220810154908b011061056857600061056b565b60015b6000838152600160208190526040909120018054919250908b90811061058d57fe5b60009182526020822001546040805160e060020a63af640d0f0281529051600160a060020a039092169263af640d0f92600480840193829003018186803b1580156105d757600080fd5b505afa1580156105eb573d6000803e3d6000fd5b505050506040513d6000823e601f3d908101601f19168201604052602081101561061457600080fd5b810190808051602060020a81111561062b57600080fd5b8201602081018481111561063e57600080fd5b8151602060020a81118282018710171561065757600080fd5b5050600086815260016020819052604090912001805491945092508d9150811061067d57fe5b60009182526020822001546040805160e060020a6306fdde030281529051600160a060020a03909216926306fdde0392600480840193829003018186803b1580156106c757600080fd5b505afa1580156106db573d6000803e3d6000fd5b505050506040513d6000823e601f3d908101601f19168201604052602081101561070457600080fd5b810190808051602060020a81111561071b57600080fd5b8201602081018481111561072e57600080fd5b8151602060020a81118282018710171561074757600080fd5b5050600087815260016020819052604090912001805491945092508e9150811061076d57fe5b60009182526020822001546040805160e560020a624dead30281529051600160a060020a03909216926309bd5a6092600480840193829003018186803b1580156107b657600080fd5b505afa1580156107ca573d6000803e3d6000fd5b505050506040513d6000823e601f3d908101601f1916820160405260208110156107f357600080fd5b810190808051602060020a81111561080a57600080fd5b8201602081018481111561081d57600080fd5b8151602060020a81118282018710171561083657600080fd5b5050600088815260016020819052604090912001805491945092508f9150811061085c57fe5b600091825260209182902001546040805160e060020a63949d225d0281529051600160a060020a039092169263949d225d92600480840193829003018186803b1580156108a857600080fd5b505afa1580156108bc573d6000803e3d6000fd5b505050506040513d60208110156108d257600080fd5b505160008681526001602081905260409091200180548f9081106108f257fe5b600091825260209182902001546040805160e460020a630cf09e0d0281529051600160a060020a039092169263cf09e0d092600480840193829003018186803b15801561093e57600080fd5b505afa158015610952573d6000803e3d6000fd5b505050506040513d602081101561096857600080fd5b8101908080519060200190929190505050600160008881526020019081526020016000206001018f81548110151561099c57fe5b600091825260209182902001546040805160e060020a638da5cb5b0281529051600160a060020a0390921692638da5cb5b92600480840193829003018186803b1580156109e857600080fd5b505afa1580156109fc573d6000803e3d6000fd5b505050506040513d6020811015610a1257600080fd5b5051949d50929b509099509750955093509150610a669050565b5050604080516020818101835260008083528351808301855281815284519283019094528082529198509196509094509250829150819050805b9295989194975092955056fea165627a7a72305820bad11609bd0aa668b2beb3ad8d36969a0742521e5ed85323a05681f3e3729b850029",
  "source": "pragma solidity <0.6.0;\n\n/*\nGas to deploy: 894.726\n*/\n\nimport \"./interfaces/CertifiedFileInterface.sol\";\nimport \"./interfaces/CertifiedFileCheckerInterface.sol\";\n\ncontract CertifiedFileChecker is CertifiedFileCheckerInterface {\n\n    address signaturit;\n\n    struct CertifiedFilesWithHash {\n        bool exist;\n        CertifiedFileInterface[] files;\n    }\n\n    mapping(bytes32 => CertifiedFilesWithHash) private certifiedFiles;\n\n    modifier signaturitOnly() {\n        require(tx.origin == signaturit, 'Unauthorized action');\n        _;\n    }\n\n    constructor() public {\n        signaturit = msg.sender;\n    }\n\n    function addFile(\n        address certifiedFileAddress\n    ) public signaturitOnly {\n        CertifiedFileInterface cerfiedFile = CertifiedFileInterface(certifiedFileAddress);\n\n        bytes32 hashConverted = keccak256(\n            abi.encodePacked(cerfiedFile.hash())\n        );\n\n        if (!certifiedFiles[hashConverted].exist) certifiedFiles[hashConverted].exist = true;\n\n        certifiedFiles[hashConverted].files.push(cerfiedFile);\n    }\n\n    function getFile(\n        string memory fileHash,\n        uint index\n    ) public view returns(\n        string memory id,\n        string memory name,\n        string memory hash,\n        uint size,\n        uint createdAt,\n        address  owner,\n        bool more\n    ) {\n        bytes32 hashConverted = keccak256(\n            abi.encodePacked(fileHash)\n        );\n\n        if (\n            certifiedFiles[hashConverted].exist &&\n            certifiedFiles[hashConverted].files.length > index\n        ) {\n            bool foundMore = certifiedFiles[hashConverted].files.length > (index + 1) ? true : false;\n            return (\n                certifiedFiles[hashConverted].files[index].id(),\n                certifiedFiles[hashConverted].files[index].name(),\n                certifiedFiles[hashConverted].files[index].hash(),\n                certifiedFiles[hashConverted].files[index].size(),\n                certifiedFiles[hashConverted].files[index].createdAt(),\n                certifiedFiles[hashConverted].files[index].owner(),\n                foundMore\n            );\n        }\n\n        return (\n            '',\n            '',\n            '',\n            0,\n            0,\n            address(0),\n            false\n        );\n    }\n}\n",
  "sourcePath": "/Users/alex/workspace/signaturit-solidity-contracts/contracts/CertifiedFileChecker.sol",
  "compiler": {
    "name": "solc",
    "version": "0.5.0+commit.1d4f565a.Emscripten.clang"
  },
  "schemaVersion": "3.0.13",
  "updatedAt": "2019-08-30T15:18:25.746Z",
  "devdoc": {
    "methods": {}
  },
  "userdoc": {
    "methods": {}
  }
}