{
  "contractName": "CertifiedFileAggregator",
  "abi": [
    {
      "inputs": [
        {
          "name": "_userContractAddress",
          "type": "address"
        }
      ],
      "payable": false,
      "stateMutability": "nonpayable",
      "type": "constructor"
    },
    {
      "constant": true,
      "inputs": [
        {
          "name": "id",
          "type": "string"
        }
      ],
      "name": "getCertifiedFileById",
      "outputs": [
        {
          "name": "",
          "type": "address"
        }
      ],
      "payable": false,
      "stateMutability": "view",
      "type": "function"
    },
    {
      "constant": true,
      "inputs": [
        {
          "name": "index",
          "type": "uint256"
        }
      ],
      "name": "getCertifiedFile",
      "outputs": [
        {
          "name": "addr",
          "type": "address"
        },
        {
          "name": "more",
          "type": "bool"
        }
      ],
      "payable": false,
      "stateMutability": "view",
      "type": "function"
    },
    {
      "constant": true,
      "inputs": [],
      "name": "count",
      "outputs": [
        {
          "name": "",
          "type": "uint256"
        }
      ],
      "payable": false,
      "stateMutability": "view",
      "type": "function"
    },
    {
      "constant": false,
      "inputs": [
        {
          "name": "eventType",
          "type": "string"
        },
        {
          "name": "addr",
          "type": "address"
        }
      ],
      "name": "notify",
      "outputs": [],
      "payable": false,
      "stateMutability": "nonpayable",
      "type": "function"
    }
  ],
  "bytecode": "0x608060405234801561001057600080fd5b506040516020806108218339810180604052602081101561003057600080fd5b505160018054600160a060020a0319908116331790915560008054600160a060020a038085169190931617808255604080518082018252601981527f6365727469666965642d66696c652d61676772656761746f72000000000000006020820190815282517f34311d8e00000000000000000000000000000000000000000000000000000000815230602482018190526004820194855283516044830152835195909716966334311d8e969395909493849360649093019291908190849084905b838110156101095781810151838201526020016100f1565b50505050905090810190601f1680156101365780820380516001836020036101000a031916815260200191505b509350505050600060405180830381600087803b15801561015657600080fd5b505af115801561016a573d6000803e3d6000fd5b505060008054604080518082018252601581527f6365727469666965642d66696c652d6e6f6669667900000000000000000000006020820190815282517fd661f878000000000000000000000000000000000000000000000000000000008152306024820181905260048201948552835160448301528351600160a060020a03909616985063d661f8789750929592948493606490920192918190849084905b8381101561022257818101518382015260200161020a565b50505050905090810190601f16801561024f5780820380516001836020036101000a031916815260200191505b509350505050600060405180830381600087803b15801561026f57600080fd5b505af1158015610283573d6000803e3d6000fd5b505050505061058a806102976000396000f3fe6080604052600436106100485763ffffffff60e060020a60003504166306661abd811461004d5780631892ae1b14610074578063c50679fc14610141578063e71e65761461018e575b600080fd5b34801561005957600080fd5b5061006261024c565b60408051918252519081900360200190f35b34801561008057600080fd5b506101256004803603602081101561009757600080fd5b810190602081018135602060020a8111156100b157600080fd5b8201836020820111156100c357600080fd5b803590602001918460018302840111602060020a831117156100e457600080fd5b91908080601f016020809104026020016040519081016040528093929190818152602001838380828437600092019190915250929550610252945050505050565b60408051600160a060020a039092168252519081900360200190f35b34801561014d57600080fd5b5061016b6004803603602081101561016457600080fd5b503561027d565b60408051600160a060020a03909316835290151560208301528051918290030190f35b34801561019a57600080fd5b5061024a600480360360408110156101b157600080fd5b810190602081018135602060020a8111156101cb57600080fd5b8201836020820111156101dd57600080fd5b803590602001918460018302840111602060020a831117156101fe57600080fd5b91908080601f01602080910402602001604051908101604052809392919081815260200183838082843760009201919091525092955050509035600160a060020a031691506102c69050565b005b60035490565b60008061025e836104cc565b600090815260026020526040902054600160a060020a03169392505050565b6003805460009182916001850181119183918690811061029957fe5b60009182526020808320909101548252600290526040902054600160a060020a0316935090915050915091565b600154600160a060020a03163214610343576040805160e560020a62461bcd02815260206004820152602f60248201527f4f6e6c79205369676e617475726974206163636f756e742063616e20706572666044820152608960020a6e37b936903a3434b99030b1ba34b7b702606482015290519081900360840190fd5b600061034e836104cc565b90508061038f6040805190810160405280601f81526020017f6365727469666965645f66696c652e636f6e74726163742e63726561746564008152506104cc565b14156104c7576000829050600061046882600160a060020a031663af640d0f6040518163ffffffff1660e060020a02815260040160006040518083038186803b1580156103db57600080fd5b505afa1580156103ef573d6000803e3d6000fd5b505050506040513d6000823e601f3d908101601f19168201604052602081101561041857600080fd5b810190808051602060020a81111561042f57600080fd5b8201602081018481111561044257600080fd5b8151602060020a81118282018710171561045b57600080fd5b50509291905050506104cc565b60038054600181019091557fc2575a0e9e593c00f959f8c92f12db2869c3395a3b0502d05e2516446f71f85b0181905560009081526002602052604090208054600160a060020a031916600160a060020a039390931692909217909155505b505050565b6000816040516020018080602001828103825283818151815260200191508051906020019080838360005b8381101561050f5781810151838201526020016104f7565b50505050905090810190601f16801561053c5780820380516001836020036101000a031916815260200191505b509250505060405160208183030381529060405280519060200120905091905056fea165627a7a7230582079e07366a86420d3869f2f1df6352a60cd4d1c47df279d0acb72b24356df269f0029",
  "source": "pragma solidity <0.6.0;\n\nimport \"./interfaces/NotifierInterface.sol\";\nimport \"./interfaces/SignaturitUserInterface.sol\";\nimport \"./CertifiedFile.sol\";\n\ncontract CertifiedFileAggregator is NotifierInterface {\n    SignaturitUserInterface userContract;\n\n    address signaturit;\n\n    string constant AGGREGATOR_NAME = 'certified-file-aggregator';\n    string constant NOTIFICATION_EVENT = 'certified-file-nofify';\n    string constant CERTIFIED_FILE_CREATED_EVENT = 'certified_file.contract.created';\n\n    mapping (bytes32 => CertifiedFile) certifiedFiles;\n    \n    bytes32[] certifiedFilesIds;\n\n    modifier signaturitOnly () {\n        require(\n            tx.origin == signaturit,\n            \"Only Signaturit account can perform this action\"\n        );\n\n        _;\n    }\n    constructor (\n        address _userContractAddress\n    ) public {\n        signaturit = msg.sender;\n\n        userContract = SignaturitUserInterface(_userContractAddress);\n\n        userContract.setAddressAttribute(\n            AGGREGATOR_NAME,\n            address(this)\n        );\n\n        userContract.setAddressArrayAttribute(\n            NOTIFICATION_EVENT,\n            address(this)\n        );\n    }\n\n    function getCertifiedFileById(\n        string memory id\n    )\n        public\n        view\n        returns (address)\n    {\n        bytes32 bytes32id = _keccak(id);\n\n        return address(certifiedFiles[bytes32id]);\n    }\n\n    function getCertifiedFile(\n        uint index\n    )\n        public\n        view\n        returns (address addr, bool more)\n    {\n        bool _more = index + 1 < certifiedFilesIds.length;\n        bytes32 certifiedFileId = certifiedFilesIds[index];\n\n        return (\n            address(certifiedFiles[certifiedFileId]),\n            _more\n        );\n    }\n\n    function count()\n        public\n        view\n        returns (uint)\n    {\n        return certifiedFilesIds.length;\n    }\n\n    function notify(\n        string memory eventType,\n        address addr\n    )\n        public\n        signaturitOnly\n    {\n        bytes32 bytes32eventType = _keccak(eventType);\n\n        if (_keccak(CERTIFIED_FILE_CREATED_EVENT) == bytes32eventType) {\n            CertifiedFile certifiedFile = CertifiedFile(addr);\n\n            bytes32 bytes32id = _keccak(certifiedFile.id());\n\n            certifiedFilesIds.push(bytes32id);\n            certifiedFiles[bytes32id] = certifiedFile;\n        }\n    }\n\n    function _keccak (\n        string memory key\n    )\n        private\n        pure\n        returns (bytes32)\n    {\n        return keccak256(\n            abi.encode(key)\n        );\n    }\n}",
  "sourcePath": "/Users/alex/workspace/signaturit-solidity-contracts/contracts/CertifiedFileAggregator.sol",
  "compiler": {
    "name": "solc",
    "version": "0.5.0+commit.1d4f565a.Emscripten.clang"
  },
  "schemaVersion": "3.0.13",
  "updatedAt": "2019-10-01T13:42:50.378Z",
  "devdoc": {
    "methods": {}
  },
  "userdoc": {
    "methods": {}
  }
}