{
  "contractName": "CertifiedFileChecker",
  "abi": [
    {
      "constant": true,
      "inputs": [],
      "name": "signaturit",
      "outputs": [
        {
          "name": "",
          "type": "address"
        }
      ],
      "payable": false,
      "stateMutability": "view",
      "type": "function"
    },
    {
      "inputs": [],
      "payable": false,
      "stateMutability": "nonpayable",
      "type": "constructor"
    },
    {
      "constant": false,
      "inputs": [
        {
          "name": "certifiedFileAddress",
          "type": "address"
        }
      ],
      "name": "addFile",
      "outputs": [],
      "payable": false,
      "stateMutability": "nonpayable",
      "type": "function"
    },
    {
      "constant": true,
      "inputs": [
        {
          "name": "fileHash",
          "type": "string"
        },
        {
          "name": "index",
          "type": "uint256"
        }
      ],
      "name": "getFile",
      "outputs": [
        {
          "name": "id",
          "type": "string"
        },
        {
          "name": "name",
          "type": "string"
        },
        {
          "name": "hash",
          "type": "string"
        },
        {
          "name": "size",
          "type": "uint256"
        },
        {
          "name": "createdAt",
          "type": "uint256"
        },
        {
          "name": "owner",
          "type": "address"
        },
        {
          "name": "more",
          "type": "bool"
        }
      ],
      "payable": false,
      "stateMutability": "view",
      "type": "function"
    }
  ],
  "bytecode": "0x608060405234801561001057600080fd5b5060018054600160a060020a03191633179055610b05806100326000396000f3fe60806040526004361061003d5763ffffffff60e060020a6000350416632689734d81146100425780636cf0d39214610077578063f9b5333514610297575b600080fd5b34801561004e57600080fd5b506100756004803603602081101561006557600080fd5b5035600160a060020a03166102c8565b005b34801561008357600080fd5b5061012a6004803603604081101561009a57600080fd5b810190602081018135602060020a8111156100b457600080fd5b8201836020820111156100c657600080fd5b803590602001918460018302840111602060020a831117156100e757600080fd5b91908080601f01602080910402602001604051908101604052809392919081815260200183838082843760009201919091525092955050913592506104f3915050565b604080516060810186905260808101859052600160a060020a03841660a082015282151560c082015260e08082528951908201528851909182916020808401928401916101008501918d019080838360005b8381101561019457818101518382015260200161017c565b50505050905090810190601f1680156101c15780820380516001836020036101000a031916815260200191505b5084810383528a5181528a516020918201918c019080838360005b838110156101f45781810151838201526020016101dc565b50505050905090810190601f1680156102215780820380516001836020036101000a031916815260200191505b5084810382528951815289516020918201918b019080838360005b8381101561025457818101518382015260200161023c565b50505050905090810190601f1680156102815780820380516001836020036101000a031916815260200191505b509a505050505050505050505060405180910390f35b3480156102a357600080fd5b506102ac610aca565b60408051600160a060020a039092168252519081900360200190f35b600154600160a060020a03163214610345576040805160e560020a62461bcd02815260206004820152602f60248201527f4f6e6c79205369676e617475726974206163636f756e742063616e20706572666044820152608960020a6e37b936903a3434b99030b1ba34b7b702606482015290519081900360840190fd5b6000819050600081600160a060020a03166309bd5a606040518163ffffffff1660e060020a02815260040160006040518083038186803b15801561038857600080fd5b505afa15801561039c573d6000803e3d6000fd5b505050506040513d6000823e601f3d908101601f1916820160405260208110156103c557600080fd5b810190808051602060020a8111156103dc57600080fd5b820160208101848111156103ef57600080fd5b8151602060020a81118282018710171561040857600080fd5b50509291905050506040516020018082805190602001908083835b602083106104425780518252601f199092019160209182019101610423565b51815160209384036101000a60001901801990921691161790526040805192909401828103601f19018352845281519181019190912060008181526002909252929020549194505060ff16151591506104b19050576000818152600260205260409020805460ff191660011790555b6000908152600260209081526040822060019081018054918201815583529120018054600160a060020a031916600160a060020a039290921691909117905550565b60608060606000806000806000896040516020018082805190602001908083835b602083106105335780518252601f199092019160209182019101610514565b51815160209384036101000a60001901801990921691161790526040805192909401828103601f19018352845281519181019190912060008181526002909252929020549194505060ff16915050801561059d575060008181526002602052604090206001015489105b15610a84576000818152600260205260408120600190810154908b01106105c55760006105c8565b60015b60008381526002602052604090206001018054919250908b9081106105e957fe5b60009182526020822001546040805160e060020a63af640d0f0281529051600160a060020a039092169263af640d0f92600480840193829003018186803b15801561063357600080fd5b505afa158015610647573d6000803e3d6000fd5b505050506040513d6000823e601f3d908101601f19168201604052602081101561067057600080fd5b810190808051602060020a81111561068757600080fd5b8201602081018481111561069a57600080fd5b8151602060020a8111828201871017156106b357600080fd5b50506000868152600260205260409020600101805491945092508d915081106106d857fe5b60009182526020822001546040805160e060020a6306fdde030281529051600160a060020a03909216926306fdde0392600480840193829003018186803b15801561072257600080fd5b505afa158015610736573d6000803e3d6000fd5b505050506040513d6000823e601f3d908101601f19168201604052602081101561075f57600080fd5b810190808051602060020a81111561077657600080fd5b8201602081018481111561078957600080fd5b8151602060020a8111828201871017156107a257600080fd5b50506000878152600260205260409020600101805491945092508e915081106107c757fe5b60009182526020822001546040805160e560020a624dead30281529051600160a060020a03909216926309bd5a6092600480840193829003018186803b15801561081057600080fd5b505afa158015610824573d6000803e3d6000fd5b505050506040513d6000823e601f3d908101601f19168201604052602081101561084d57600080fd5b810190808051602060020a81111561086457600080fd5b8201602081018481111561087757600080fd5b8151602060020a81118282018710171561089057600080fd5b50506000888152600260205260409020600101805491945092508f915081106108b557fe5b600091825260209182902001546040805160e060020a63949d225d0281529051600160a060020a039092169263949d225d92600480840193829003018186803b15801561090157600080fd5b505afa158015610915573d6000803e3d6000fd5b505050506040513d602081101561092b57600080fd5b5051600086815260026020526040902060010180548f90811061094a57fe5b600091825260209182902001546040805160e460020a630cf09e0d0281529051600160a060020a039092169263cf09e0d092600480840193829003018186803b15801561099657600080fd5b505afa1580156109aa573d6000803e3d6000fd5b505050506040513d60208110156109c057600080fd5b8101908080519060200190929190505050600260008881526020019081526020016000206001018f8154811015156109f457fe5b600091825260209182902001546040805160e060020a638da5cb5b0281529051600160a060020a0390921692638da5cb5b92600480840193829003018186803b158015610a4057600080fd5b505afa158015610a54573d6000803e3d6000fd5b505050506040513d6020811015610a6a57600080fd5b5051949d50929b509099509750955093509150610abe9050565b5050604080516020818101835260008083528351808301855281815284519283019094528082529198509196509094509250829150819050805b92959891949750929550565b600154600160a060020a03168156fea165627a7a72305820b03e96192a814b707d214dc6976742444830c1a7a39a232d5bd2257ef43f91790029",
  "source": "pragma solidity <0.6.0;\n\n/*\nGas to deploy: 894.726\n*/\n\nimport \"./interfaces/CertifiedFileInterface.sol\";\nimport \"./interfaces/CertifiedFileCheckerInterface.sol\";\n\ncontract CertifiedFileChecker is CertifiedFileCheckerInterface {\n\n    address public signaturit;\n\n    struct CertifiedFilesWithHash {\n        bool exist;\n        CertifiedFileInterface[] files;\n    }\n\n    mapping(bytes32 => CertifiedFilesWithHash) private certifiedFiles;\n\n    modifier signaturitOnly() {\n        require(\n            tx.origin == signaturit, \n            \"Only Signaturit account can perform this action\"\n        );\n        \n        _;\n    }\n\n    constructor() public {\n        signaturit = msg.sender;\n    }\n\n    function addFile(\n        address certifiedFileAddress\n    ) public signaturitOnly {\n        CertifiedFileInterface cerfiedFile = CertifiedFileInterface(certifiedFileAddress);\n\n        bytes32 hashConverted = keccak256(\n            abi.encodePacked(cerfiedFile.hash())\n        );\n\n        if (!certifiedFiles[hashConverted].exist) certifiedFiles[hashConverted].exist = true;\n\n        certifiedFiles[hashConverted].files.push(cerfiedFile);\n    }\n\n    function getFile(\n        string memory fileHash,\n        uint index\n    ) public view returns(\n        string memory id,\n        string memory name,\n        string memory hash,\n        uint size,\n        uint createdAt,\n        address  owner,\n        bool more\n    ) {\n        bytes32 hashConverted = keccak256(\n            abi.encodePacked(fileHash)\n        );\n\n        if (\n            certifiedFiles[hashConverted].exist &&\n            certifiedFiles[hashConverted].files.length > index\n        ) {\n            bool foundMore = certifiedFiles[hashConverted].files.length > (index + 1) ? true : false;\n            return (\n                certifiedFiles[hashConverted].files[index].id(),\n                certifiedFiles[hashConverted].files[index].name(),\n                certifiedFiles[hashConverted].files[index].hash(),\n                certifiedFiles[hashConverted].files[index].size(),\n                certifiedFiles[hashConverted].files[index].createdAt(),\n                certifiedFiles[hashConverted].files[index].owner(),\n                foundMore\n            );\n        }\n\n        return (\n            \"\",\n            \"\",\n            \"\",\n            0,\n            0,\n            address(0),\n            false\n        );\n    }\n}\n",
  "sourcePath": "/Users/alex/workspace/signaturit-solidity-contracts/contracts/CertifiedFileChecker.sol",
  "compiler": {
    "name": "solc",
    "version": "0.5.0+commit.1d4f565a.Emscripten.clang"
  },
  "schemaVersion": "3.0.13",
  "updatedAt": "2019-09-02T13:03:09.842Z",
  "devdoc": {
    "methods": {}
  },
  "userdoc": {
    "methods": {}
  }
}