{
  "contractName": "CertifiedFile",
  "abi": [
    {
      "constant": true,
      "inputs": [],
      "name": "name",
      "outputs": [
        {
          "name": "",
          "type": "string"
        }
      ],
      "payable": false,
      "stateMutability": "view",
      "type": "function"
    },
    {
      "constant": true,
      "inputs": [],
      "name": "hash",
      "outputs": [
        {
          "name": "",
          "type": "string"
        }
      ],
      "payable": false,
      "stateMutability": "view",
      "type": "function"
    },
    {
      "constant": true,
      "inputs": [],
      "name": "certifiedFileChecker",
      "outputs": [
        {
          "name": "",
          "type": "address"
        }
      ],
      "payable": false,
      "stateMutability": "view",
      "type": "function"
    },
    {
      "constant": true,
      "inputs": [],
      "name": "owner",
      "outputs": [
        {
          "name": "",
          "type": "address"
        }
      ],
      "payable": false,
      "stateMutability": "view",
      "type": "function"
    },
    {
      "constant": true,
      "inputs": [],
      "name": "size",
      "outputs": [
        {
          "name": "",
          "type": "uint256"
        }
      ],
      "payable": false,
      "stateMutability": "view",
      "type": "function"
    },
    {
      "constant": true,
      "inputs": [],
      "name": "id",
      "outputs": [
        {
          "name": "",
          "type": "string"
        }
      ],
      "payable": false,
      "stateMutability": "view",
      "type": "function"
    },
    {
      "constant": true,
      "inputs": [],
      "name": "userSmartContract",
      "outputs": [
        {
          "name": "",
          "type": "address"
        }
      ],
      "payable": false,
      "stateMutability": "view",
      "type": "function"
    },
    {
      "constant": true,
      "inputs": [],
      "name": "createdAt",
      "outputs": [
        {
          "name": "",
          "type": "uint256"
        }
      ],
      "payable": false,
      "stateMutability": "view",
      "type": "function"
    },
    {
      "constant": true,
      "inputs": [],
      "name": "signaturit",
      "outputs": [
        {
          "name": "",
          "type": "address"
        }
      ],
      "payable": false,
      "stateMutability": "view",
      "type": "function"
    },
    {
      "inputs": [
        {
          "name": "fileOwner",
          "type": "address"
        },
        {
          "name": "userSmartContractAddress",
          "type": "address"
        },
        {
          "name": "fileId",
          "type": "string"
        },
        {
          "name": "fileName",
          "type": "string"
        },
        {
          "name": "fileHash",
          "type": "string"
        },
        {
          "name": "fileCreatedAt",
          "type": "uint256"
        },
        {
          "name": "fileSize",
          "type": "uint256"
        }
      ],
      "payable": false,
      "stateMutability": "nonpayable",
      "type": "constructor"
    },
    {
      "constant": false,
      "inputs": [
        {
          "name": "certifiedFileCheckerAddress",
          "type": "address"
        }
      ],
      "name": "notify",
      "outputs": [],
      "payable": false,
      "stateMutability": "nonpayable",
      "type": "function"
    }
  ],
  "bytecode": "0x608060405234801561001057600080fd5b5060405161082e38038061082e833981018060405260e081101561003357600080fd5b815160208301516040840180519294919382019264010000000081111561005957600080fd5b8201602081018481111561006c57600080fd5b815164010000000081118282018710171561008657600080fd5b505092919060200180516401000000008111156100a257600080fd5b820160208101848111156100b557600080fd5b81516401000000008111828201871017156100cf57600080fd5b505092919060200180516401000000008111156100eb57600080fd5b820160208101848111156100fe57600080fd5b815164010000000081118282018710171561011857600080fd5b5050602080830151604090930151875192955092935061013d91600c918801906102aa565b50835161015190600d9060208701906102aa565b50825161016590600e9060208601906102aa565b506010819055600f829055600a805433600160a060020a031991821617909155600b80548216600160a060020a038a811691909117909155601180549092168882161791829055604080517f75817608000000000000000000000000000000000000000000000000000000008152306004820181815260248301938452600c8054600261010060018316150260001901909116046044850181905296909516956375817608959294929391929160640190849080156102655780601f1061023a57610100808354040283529160200191610265565b820191906000526020600020905b81548152906001019060200180831161024857829003601f168201915b50509350505050600060405180830381600087803b15801561028657600080fd5b505af115801561029a573d6000803e3d6000fd5b5050505050505050505050610345565b828054600181600116156101000203166002900490600052602060002090601f016020900481019282601f106102eb57805160ff1916838001178555610318565b82800160010185558215610318579182015b828111156103185782518255916020019190600101906102fd565b50610324929150610328565b5090565b61034291905b80821115610324576000815560010161032e565b90565b6104da806103546000396000f3fe60806040526004361061008a5763ffffffff60e060020a60003504166306fdde03811461008f57806309bd5a6014610119578063310970361461012e5780635fb9cf201461015f5780638da5cb5b14610194578063949d225d146101a9578063af640d0f146101d0578063c004240c146101e5578063cf09e0d0146101fa578063f9b533351461020f575b600080fd5b34801561009b57600080fd5b506100a4610224565b6040805160208082528351818301528351919283929083019185019080838360005b838110156100de5781810151838201526020016100c6565b50505050905090810190601f16801561010b5780820380516001836020036101000a031916815260200191505b509250505060405180910390f35b34801561012557600080fd5b506100a46102b2565b34801561013a57600080fd5b5061014361030d565b60408051600160a060020a039092168252519081900360200190f35b34801561016b57600080fd5b506101926004803603602081101561018257600080fd5b5035600160a060020a031661031c565b005b3480156101a057600080fd5b5061014361041a565b3480156101b557600080fd5b506101be610429565b60408051918252519081900360200190f35b3480156101dc57600080fd5b506100a461042f565b3480156101f157600080fd5b5061014361048a565b34801561020657600080fd5b506101be610499565b34801561021b57600080fd5b5061014361049f565b600d805460408051602060026001851615610100026000190190941693909304601f810184900484028201840190925281815292918301828280156102aa5780601f1061027f576101008083540402835291602001916102aa565b820191906000526020600020905b81548152906001019060200180831161028d57829003601f168201915b505050505081565b600e805460408051602060026001851615610100026000190190941693909304601f810184900484028201840190925281815292918301828280156102aa5780601f1061027f576101008083540402835291602001916102aa565b600954600160a060020a031681565b600a54600160a060020a03163314610399576040805160e560020a62461bcd02815260206004820152602f60248201527f4f6e6c79205369676e617475726974206163636f756e742063616e20706572666044820152608960020a6e37b936903a3434b99030b1ba34b7b702606482015290519081900360840190fd5b60098054600160a060020a031916600160a060020a0383811691909117918290556040805160e060020a632689734d02815230600482015290519290911691632689734d9160248082019260009290919082900301818387803b1580156103ff57600080fd5b505af1158015610413573d6000803e3d6000fd5b5050505050565b600b54600160a060020a031681565b60105481565b600c805460408051602060026001851615610100026000190190941693909304601f810184900484028201840190925281815292918301828280156102aa5780601f1061027f576101008083540402835291602001916102aa565b601154600160a060020a031681565b600f5481565b600a54600160a060020a03168156fea165627a7a72305820680cd249c0e7a2a81f817ba467be24575303da4aa41c25ac9a1a39f605f40a1c0029",
  "source": "pragma solidity <0.6.0;\n\n/*\nGas to deploy: 655.214\n*/\n\nimport \"./interfaces/UserInterface.sol\";\nimport \"./interfaces/CertifiedFileInterface.sol\";\nimport \"./interfaces/CertifiedFileCheckerInterface.sol\";\n\n\ncontract CertifiedFile is CertifiedFileInterface {\n    CertifiedFileCheckerInterface public certifiedFileChecker;\n\n    address public signaturit;\n    address public owner;\n\n    string public id;\n    string public name;\n    string public hash;\n\n    uint public createdAt;\n    uint public size;\n\n    UserInterface public userSmartContract;\n\n    modifier signaturitOnly() {\n        require(\n            msg.sender == signaturit, \n            \"Only Signaturit account can perform this action\"\n        );\n\n        _;\n    }\n\n    constructor(\n        address fileOwner,\n        address userSmartContractAddress,\n        string memory fileId,\n        string memory fileName,\n        string memory fileHash,\n        uint fileCreatedAt,\n        uint fileSize\n    )\n        public\n    {\n        id = fileId;\n        name = fileName;\n        hash = fileHash;\n        size = fileSize;\n        createdAt = fileCreatedAt;\n        signaturit = msg.sender;\n        owner = fileOwner;\n        userSmartContract = UserInterface(userSmartContractAddress);\n\n        userSmartContract.addCertifiedFile(address(this), id);\n    }\n\n    function notify(\n        address certifiedFileCheckerAddress\n    ) \n        public \n        signaturitOnly \n    {\n        certifiedFileChecker = CertifiedFileCheckerInterface(certifiedFileCheckerAddress);\n\n        certifiedFileChecker.addFile(address(this));\n    }\n}\n",
  "sourcePath": "/Users/alex/workspace/signaturit-solidity-contracts/contracts/CertifiedFile.sol",
  "compiler": {
    "name": "solc",
    "version": "0.5.0+commit.1d4f565a.Emscripten.clang"
  },
  "schemaVersion": "3.0.13",
  "updatedAt": "2019-09-02T13:03:09.838Z",
  "devdoc": {
    "methods": {}
  },
  "userdoc": {
    "methods": {}
  }
}