{
  "contractName": "CertifiedFile",
  "abi": [
    {
      "constant": true,
      "inputs": [],
      "name": "name",
      "outputs": [
        {
          "internalType": "string",
          "name": "",
          "type": "string"
        }
      ],
      "payable": false,
      "stateMutability": "view",
      "type": "function"
    },
    {
      "constant": true,
      "inputs": [],
      "name": "hash",
      "outputs": [
        {
          "internalType": "string",
          "name": "",
          "type": "string"
        }
      ],
      "payable": false,
      "stateMutability": "view",
      "type": "function"
    },
    {
      "constant": true,
      "inputs": [],
      "name": "certifiedFileChecker",
      "outputs": [
        {
          "internalType": "contract CertifiedFileCheckerInterface",
          "name": "",
          "type": "address"
        }
      ],
      "payable": false,
      "stateMutability": "view",
      "type": "function"
    },
    {
      "constant": true,
      "inputs": [],
      "name": "owner",
      "outputs": [
        {
          "internalType": "address",
          "name": "",
          "type": "address"
        }
      ],
      "payable": false,
      "stateMutability": "view",
      "type": "function"
    },
    {
      "constant": true,
      "inputs": [],
      "name": "size",
      "outputs": [
        {
          "internalType": "uint256",
          "name": "",
          "type": "uint256"
        }
      ],
      "payable": false,
      "stateMutability": "view",
      "type": "function"
    },
    {
      "constant": true,
      "inputs": [],
      "name": "id",
      "outputs": [
        {
          "internalType": "string",
          "name": "",
          "type": "string"
        }
      ],
      "payable": false,
      "stateMutability": "view",
      "type": "function"
    },
    {
      "constant": true,
      "inputs": [],
      "name": "userSmartContract",
      "outputs": [
        {
          "internalType": "contract UserInterface",
          "name": "",
          "type": "address"
        }
      ],
      "payable": false,
      "stateMutability": "view",
      "type": "function"
    },
    {
      "constant": true,
      "inputs": [],
      "name": "createdAt",
      "outputs": [
        {
          "internalType": "uint256",
          "name": "",
          "type": "uint256"
        }
      ],
      "payable": false,
      "stateMutability": "view",
      "type": "function"
    },
    {
      "constant": true,
      "inputs": [],
      "name": "signaturit",
      "outputs": [
        {
          "internalType": "address",
          "name": "",
          "type": "address"
        }
      ],
      "payable": false,
      "stateMutability": "view",
      "type": "function"
    },
    {
      "inputs": [
        {
          "internalType": "address",
          "name": "fileOwner",
          "type": "address"
        },
        {
          "internalType": "address",
          "name": "userSmartContractAddress",
          "type": "address"
        },
        {
          "internalType": "string",
          "name": "fileId",
          "type": "string"
        },
        {
          "internalType": "string",
          "name": "fileName",
          "type": "string"
        },
        {
          "internalType": "string",
          "name": "fileHash",
          "type": "string"
        },
        {
          "internalType": "uint256",
          "name": "fileCreatedAt",
          "type": "uint256"
        },
        {
          "internalType": "uint256",
          "name": "fileSize",
          "type": "uint256"
        }
      ],
      "payable": false,
      "stateMutability": "nonpayable",
      "type": "constructor"
    },
    {
      "constant": false,
      "inputs": [
        {
          "internalType": "address",
          "name": "certifiedFileCheckerAddress",
          "type": "address"
        }
      ],
      "name": "notify",
      "outputs": [],
      "payable": false,
      "stateMutability": "nonpayable",
      "type": "function"
    }
  ],
  "bytecode": "0x608060405234801561001057600080fd5b506040516108da3803806108da833981810160405260e081101561003357600080fd5b8151602083015160408085018051915193959294830192918464010000000082111561005e57600080fd5b90830190602082018581111561007357600080fd5b825164010000000081118282018810171561008d57600080fd5b82525081516020918201929091019080838360005b838110156100ba5781810151838201526020016100a2565b50505050905090810190601f1680156100e75780820380516001836020036101000a031916815260200191505b506040526020018051604051939291908464010000000082111561010a57600080fd5b90830190602082018581111561011f57600080fd5b825164010000000081118282018810171561013957600080fd5b82525081516020918201929091019080838360005b8381101561016657818101518382015260200161014e565b50505050905090810190601f1680156101935780820380516001836020036101000a031916815260200191505b50604052602001805160405193929190846401000000008211156101b657600080fd5b9083019060208201858111156101cb57600080fd5b82516401000000008111828201881017156101e557600080fd5b82525081516020918201929091019080838360005b838110156102125781810151838201526020016101fa565b50505050905090810190601f16801561023f5780820380516001836020036101000a031916815260200191505b50604090815260208281015192909101518751929450925061026691600c918801906103d3565b50835161027a90600d9060208701906103d3565b50825161028e90600e9060208601906103d3565b506010819055600f829055600a8054336001600160a01b031991821617909155600b805482166001600160a01b038a811691909117909155601180549092168882161791829055604080517f75817608000000000000000000000000000000000000000000000000000000008152306004820181815260248301938452600c80546002610100600183161502600019019091160460448501819052969095169563758176089592949293919291606401908490801561038e5780601f106103635761010080835404028352916020019161038e565b820191906000526020600020905b81548152906001019060200180831161037157829003601f168201915b50509350505050600060405180830381600087803b1580156103af57600080fd5b505af11580156103c3573d6000803e3d6000fd5b505050505050505050505061046e565b828054600181600116156101000203166002900490600052602060002090601f016020900481019282601f1061041457805160ff1916838001178555610441565b82800160010185558215610441579182015b82811115610441578251825591602001919060010190610426565b5061044d929150610451565b5090565b61046b91905b8082111561044d5760008155600101610457565b90565b61045d8061047d6000396000f3fe608060405234801561001057600080fd5b506004361061008e5760003560e01c806306fdde031461009357806309bd5a601461011057806331097036146101185780635fb9cf201461013c5780638da5cb5b14610164578063949d225d1461016c578063af640d0f14610186578063c004240c1461018e578063cf09e0d014610196578063f9b533351461019e575b600080fd5b61009b6101a6565b6040805160208082528351818301528351919283929083019185019080838360005b838110156100d55781810151838201526020016100bd565b50505050905090810190601f1680156101025780820380516001836020036101000a031916815260200191505b509250505060405180910390f35b61009b610234565b61012061028f565b604080516001600160a01b039092168252519081900360200190f35b6101626004803603602081101561015257600080fd5b50356001600160a01b031661029e565b005b610120610365565b610174610374565b60408051918252519081900360200190f35b61009b61037a565b6101206103d5565b6101746103e4565b6101206103ea565b600d805460408051602060026001851615610100026000190190941693909304601f8101849004840282018401909252818152929183018282801561022c5780601f106102015761010080835404028352916020019161022c565b820191906000526020600020905b81548152906001019060200180831161020f57829003601f168201915b505050505081565b600e805460408051602060026001851615610100026000190190941693909304601f8101849004840282018401909252818152929183018282801561022c5780601f106102015761010080835404028352916020019161022c565b6009546001600160a01b031681565b600a546001600160a01b031633146102e75760405162461bcd60e51b815260040180806020018281038252602f8152602001806103fa602f913960400191505060405180910390fd5b600980546001600160a01b0319166001600160a01b03838116919091179182905560408051632689734d60e01b815230600482015290519290911691632689734d9160248082019260009290919082900301818387803b15801561034a57600080fd5b505af115801561035e573d6000803e3d6000fd5b5050505050565b600b546001600160a01b031681565b60105481565b600c805460408051602060026001851615610100026000190190941693909304601f8101849004840282018401909252818152929183018282801561022c5780601f106102015761010080835404028352916020019161022c565b6011546001600160a01b031681565b600f5481565b600a546001600160a01b03168156fe4f6e6c79205369676e617475726974206163636f756e742063616e20706572666f726d207468697320616374696f6ea265627a7a7231582094e846d9a351672004a2ea7be5dab0ff547343150011b35f4ae3f3a3b69e7ef564736f6c634300050b0032",
  "source": "pragma solidity <0.6.0;\n\n/*\nGas to deploy: 655.214\n*/\n\nimport \"./interfaces/UserInterface.sol\";\nimport \"./interfaces/CertifiedFileInterface.sol\";\nimport \"./interfaces/CertifiedFileCheckerInterface.sol\";\n\n\ncontract CertifiedFile is CertifiedFileInterface {\n    CertifiedFileCheckerInterface public certifiedFileChecker;\n\n    address public signaturit;\n    address public owner;\n\n    string public id;\n    string public name;\n    string public hash;\n\n    uint public createdAt;\n    uint public size;\n\n    UserInterface public userSmartContract;\n\n    modifier signaturitOnly() {\n        require(\n            msg.sender == signaturit, \n            \"Only Signaturit account can perform this action\"\n        );\n\n        _;\n    }\n\n    constructor(\n        address fileOwner,\n        address userSmartContractAddress,\n        string memory fileId,\n        string memory fileName,\n        string memory fileHash,\n        uint fileCreatedAt,\n        uint fileSize\n    )\n        public\n    {\n        id = fileId;\n        name = fileName;\n        hash = fileHash;\n        size = fileSize;\n        createdAt = fileCreatedAt;\n        signaturit = msg.sender;\n        owner = fileOwner;\n        userSmartContract = UserInterface(userSmartContractAddress);\n\n        userSmartContract.addCertifiedFile(address(this), id);\n    }\n\n    function notify(\n        address certifiedFileCheckerAddress\n    ) \n        public \n        signaturitOnly \n    {\n        certifiedFileChecker = CertifiedFileCheckerInterface(certifiedFileCheckerAddress);\n\n        certifiedFileChecker.addFile(address(this));\n    }\n}\n",
  "sourcePath": "/home/administrator/workspace/signaturit-solidity-contracts/contracts/CertifiedFile.sol",
  "compiler": {
    "name": "solc",
    "version": "0.5.11+commit.c082d0b4.Emscripten.clang"
  },
  "schemaVersion": "3.0.11",
  "updatedAt": "2019-08-30T12:59:40.724Z",
  "devdoc": {
    "methods": {}
  },
  "userdoc": {
    "methods": {}
  }
}