{
  "contractName": "CertifiedFileChecker",
  "abi": [
    {
      "constant": true,
      "inputs": [],
      "name": "signaturit",
      "outputs": [
        {
          "name": "",
          "type": "address"
        }
      ],
      "payable": false,
      "stateMutability": "view",
      "type": "function"
    },
    {
      "inputs": [],
      "payable": false,
      "stateMutability": "nonpayable",
      "type": "constructor"
    },
    {
      "constant": true,
      "inputs": [
        {
          "name": "fileHash",
          "type": "string"
        },
        {
          "name": "index",
          "type": "uint256"
        }
      ],
      "name": "getFile",
      "outputs": [
        {
          "name": "id",
          "type": "string"
        },
        {
          "name": "hash",
          "type": "string"
        },
        {
          "name": "size",
          "type": "uint256"
        },
        {
          "name": "createdAt",
          "type": "uint256"
        },
        {
          "name": "owner",
          "type": "address"
        },
        {
          "name": "contract_address",
          "type": "address"
        },
        {
          "name": "more",
          "type": "bool"
        }
      ],
      "payable": false,
      "stateMutability": "view",
      "type": "function"
    },
    {
      "constant": false,
      "inputs": [
        {
          "name": "eventType",
          "type": "string"
        },
        {
          "name": "certifiedFileAddress",
          "type": "address"
        }
      ],
      "name": "notify",
      "outputs": [],
      "payable": false,
      "stateMutability": "nonpayable",
      "type": "function"
    }
  ],
  "bytecode": "0x608060405234801561001057600080fd5b5060018054600160a060020a0319163317905561099f806100326000396000f3fe60806040526004361061003d5763ffffffff60e060020a6000350416636cf0d3928114610042578063e71e657614610203578063f9b53335146102c1575b600080fd5b34801561004e57600080fd5b506100f56004803603604081101561006557600080fd5b810190602081018135602060020a81111561007f57600080fd5b82018360208201111561009157600080fd5b803590602001918460018302840111602060020a831117156100b257600080fd5b91908080601f01602080910402602001604051908101604052809392919081815260200183838082843760009201919091525092955050913592506102f2915050565b6040805190810186905260608101859052600160a060020a038085166080830152831660a082015281151560c082015260e0808252885190820152875181906020808301916101008401918c019080838360005b83811015610161578181015183820152602001610149565b50505050905090810190601f16801561018e5780820380516001836020036101000a031916815260200191505b5083810382528951815289516020918201918b019080838360005b838110156101c15781810151838201526020016101a9565b50505050905090810190601f1680156101ee5780820380516001836020036101000a031916815260200191505b50995050505050505050505060405180910390f35b34801561020f57600080fd5b506102bf6004803603604081101561022657600080fd5b810190602081018135602060020a81111561024057600080fd5b82018360208201111561025257600080fd5b803590602001918460018302840111602060020a8311171561027357600080fd5b91908080601f01602080910402602001604051908101604052809392919081815260200183838082843760009201919091525092955050509035600160a060020a031691506106b69050565b005b3480156102cd57600080fd5b506102d66108d2565b60408051600160a060020a039092168252519081900360200190f35b6060806000806000806000806103078a6108e1565b60008181526002602052604090205490915060ff168015610338575060008181526002602052604090206001015489105b1561067b576000818152600260205260408120600190810154908b0110610360576000610363565b60015b6000838152600260205260408120600101805492935090918c90811061038557fe5b60009182526020822001546040805160e060020a63af640d0f0281529051600160a060020a039092169350839263af640d0f92600480840193829003018186803b1580156103d257600080fd5b505afa1580156103e6573d6000803e3d6000fd5b505050506040513d6000823e601f3d908101601f19168201604052602081101561040f57600080fd5b810190808051602060020a81111561042657600080fd5b8201602081018481111561043957600080fd5b8151602060020a81118282018710171561045257600080fd5b505092919050505081600160a060020a03166309bd5a606040518163ffffffff1660e060020a02815260040160006040518083038186803b15801561049657600080fd5b505afa1580156104aa573d6000803e3d6000fd5b505050506040513d6000823e601f3d908101601f1916820160405260208110156104d357600080fd5b810190808051602060020a8111156104ea57600080fd5b820160208101848111156104fd57600080fd5b8151602060020a81118282018710171561051657600080fd5b505092919050505082600160a060020a031663949d225d6040518163ffffffff1660e060020a02815260040160206040518083038186803b15801561055a57600080fd5b505afa15801561056e573d6000803e3d6000fd5b505050506040513d602081101561058457600080fd5b50516040805160e460020a630cf09e0d0281529051600160a060020a0386169163cf09e0d0916004808301926020929190829003018186803b1580156105c957600080fd5b505afa1580156105dd573d6000803e3d6000fd5b505050506040513d60208110156105f357600080fd5b50516040805160e060020a638da5cb5b0281529051600160a060020a03871691638da5cb5b916004808301926020929190829003018186803b15801561063857600080fd5b505afa15801561064c573d6000803e3d6000fd5b505050506040513d602081101561066257600080fd5b5051939d50919b50995097509550935091506106aa9050565b505060408051602081810183526000808352835191820190935282815290975095509350839250829150819050805b92959891949750929550565b600154600160a060020a03163214610733576040805160e560020a62461bcd02815260206004820152602f60248201527f4f6e6c79205369676e617475726974206163636f756e742063616e20706572666044820152608960020a6e37b936903a3434b99030b1ba34b7b702606482015290519081900360840190fd5b600061073e836108e1565b90508061077f6040805190810160405280601f81526020017f6365727469666965645f66696c652e636f6e74726163742e63726561746564008152506108e1565b14156108cd576000829050600061085882600160a060020a03166309bd5a606040518163ffffffff1660e060020a02815260040160006040518083038186803b1580156107cb57600080fd5b505afa1580156107df573d6000803e3d6000fd5b505050506040513d6000823e601f3d908101601f19168201604052602081101561080857600080fd5b810190808051602060020a81111561081f57600080fd5b8201602081018481111561083257600080fd5b8151602060020a81118282018710171561084b57600080fd5b50509291905050506108e1565b60008181526002602052604090205490915060ff16151561088d576000818152600260205260409020805460ff191660011790555b6000908152600260209081526040822060019081018054918201815583529120018054600160a060020a031916600160a060020a03929092169190911790555b505050565b600154600160a060020a031681565b6000816040516020018080602001828103825283818151815260200191508051906020019080838360005b8381101561092457818101518382015260200161090c565b50505050905090810190601f1680156109515780820380516001836020036101000a031916815260200191505b509250505060405160208183030381529060405280519060200120905091905056fea165627a7a723058200e8536069315f2f79d9c34e433438c0b6526dd224a5baf4f50d7af90c09d3bd00029",
  "source": "pragma solidity <0.6.0;\n\n/*\nGas to deploy: 894.726\n*/\n\nimport \"./interfaces/CertifiedFileInterface.sol\";\nimport \"./interfaces/CertifiedFileCheckerInterface.sol\";\nimport \"./libraries/Utils.sol\";\n\n\ncontract CertifiedFileChecker is CertifiedFileCheckerInterface {\n    address public signaturit;\n\n    string constant private CERTIFIED_FILE_CREATED_EVENT = \"certified_file.contract.created\";\n\n    struct CertifiedFilesWithHash {\n        bool exist;\n        CertifiedFileInterface[] files;\n    }\n\n    mapping(bytes32 => CertifiedFilesWithHash) private certifiedFiles;\n\n    modifier signaturitOnly() {\n        require(\n            tx.origin == signaturit,\n            \"Only Signaturit account can perform this action\"\n        );\n\n        _;\n    }\n\n    constructor() public {\n        signaturit = msg.sender;\n    }\n\n    function getFile(\n        string memory fileHash,\n        uint index\n    ) public view returns(\n        string memory id,\n        string memory hash,\n        uint size,\n        uint createdAt,\n        address  owner,\n        address contract_address,\n        bool more\n    ) {\n        bytes32 hashConverted = Utils.keccak(fileHash);\n\n        if (\n            certifiedFiles[hashConverted].exist &&\n            certifiedFiles[hashConverted].files.length > index\n        ) {\n            bool foundMore = certifiedFiles[hashConverted].files.length > (index + 1) ? true : false;\n            CertifiedFileInterface certifiedFile = certifiedFiles[hashConverted].files[index];\n\n            return (\n                certifiedFile.id(),\n                certifiedFile.hash(),\n                certifiedFile.size(),\n                certifiedFile.createdAt(),\n                certifiedFile.owner(),\n                address(certifiedFile),\n                foundMore\n            );\n        }\n\n        return (\n            \"\",\n            \"\",\n            0,\n            0,\n            address(0),\n            address(0),\n            false\n        );\n    }\n\n    function notify(\n        string memory eventType,\n        address certifiedFileAddress\n    ) public signaturitOnly {\n        bytes32 bytes32eventType = Utils.keccak(eventType);\n\n        if (Utils.keccak(CERTIFIED_FILE_CREATED_EVENT) == bytes32eventType) {\n            CertifiedFileInterface cerfiedFile = CertifiedFileInterface(certifiedFileAddress);\n            bytes32 hashConverted = Utils.keccak(cerfiedFile.hash());\n\n            if (!certifiedFiles[hashConverted].exist) certifiedFiles[hashConverted].exist = true;\n\n            certifiedFiles[hashConverted].files.push(cerfiedFile);\n        }\n    }\n}\n",
  "sourcePath": "/home/administrator/workspace/signaturit-solidity-contracts/contracts/CertifiedFileChecker.sol",
  "compiler": {
    "name": "solc",
    "version": "0.5.0+commit.1d4f565a.Emscripten.clang"
  },
  "schemaVersion": "3.0.11",
  "updatedAt": "2019-10-08T15:18:42.684Z",
  "devdoc": {
    "methods": {}
  },
  "userdoc": {
    "methods": {}
  }
}