{
  "contractName": "Certificate",
  "abi": [
    {
      "constant": true,
      "inputs": [],
      "name": "certifiedEmail",
      "outputs": [
        {
          "name": "",
          "type": "address"
        }
      ],
      "payable": false,
      "stateMutability": "view",
      "type": "function"
    },
    {
      "constant": true,
      "inputs": [
        {
          "name": "",
          "type": "uint256"
        }
      ],
      "name": "eventsId",
      "outputs": [
        {
          "name": "",
          "type": "string"
        }
      ],
      "payable": false,
      "stateMutability": "view",
      "type": "function"
    },
    {
      "constant": true,
      "inputs": [],
      "name": "file",
      "outputs": [
        {
          "name": "",
          "type": "address"
        }
      ],
      "payable": false,
      "stateMutability": "view",
      "type": "function"
    },
    {
      "constant": true,
      "inputs": [],
      "name": "owner",
      "outputs": [
        {
          "name": "",
          "type": "address"
        }
      ],
      "payable": false,
      "stateMutability": "view",
      "type": "function"
    },
    {
      "constant": true,
      "inputs": [],
      "name": "id",
      "outputs": [
        {
          "name": "",
          "type": "string"
        }
      ],
      "payable": false,
      "stateMutability": "view",
      "type": "function"
    },
    {
      "constant": true,
      "inputs": [],
      "name": "createdAt",
      "outputs": [
        {
          "name": "",
          "type": "uint256"
        }
      ],
      "payable": false,
      "stateMutability": "view",
      "type": "function"
    },
    {
      "constant": true,
      "inputs": [],
      "name": "deployer",
      "outputs": [
        {
          "name": "",
          "type": "address"
        }
      ],
      "payable": false,
      "stateMutability": "view",
      "type": "function"
    },
    {
      "inputs": [
        {
          "name": "certificateId",
          "type": "string"
        },
        {
          "name": "certifiedEmailDeployer",
          "type": "address"
        }
      ],
      "payable": false,
      "stateMutability": "nonpayable",
      "type": "constructor"
    },
    {
      "constant": false,
      "inputs": [
        {
          "name": "certificateOwner",
          "type": "address"
        },
        {
          "name": "certificateCreatedAt",
          "type": "uint256"
        }
      ],
      "name": "init",
      "outputs": [],
      "payable": false,
      "stateMutability": "nonpayable",
      "type": "function"
    },
    {
      "constant": false,
      "inputs": [
        {
          "name": "fileHash",
          "type": "string"
        },
        {
          "name": "fileId",
          "type": "string"
        },
        {
          "name": "fileName",
          "type": "string"
        },
        {
          "name": "fileCreatedAt",
          "type": "uint256"
        },
        {
          "name": "fileSize",
          "type": "uint256"
        }
      ],
      "name": "createFile",
      "outputs": [],
      "payable": false,
      "stateMutability": "nonpayable",
      "type": "function"
    },
    {
      "constant": false,
      "inputs": [
        {
          "name": "eventId",
          "type": "string"
        },
        {
          "name": "eventType",
          "type": "string"
        },
        {
          "name": "eventUserAgent",
          "type": "string"
        },
        {
          "name": "eventCreatedAt",
          "type": "uint256"
        }
      ],
      "name": "createEvent",
      "outputs": [],
      "payable": false,
      "stateMutability": "nonpayable",
      "type": "function"
    },
    {
      "constant": true,
      "inputs": [
        {
          "name": "eventId",
          "type": "string"
        }
      ],
      "name": "getEvent",
      "outputs": [
        {
          "name": "",
          "type": "address"
        }
      ],
      "payable": false,
      "stateMutability": "view",
      "type": "function"
    },
    {
      "constant": true,
      "inputs": [],
      "name": "getEventsSize",
      "outputs": [
        {
          "name": "",
          "type": "uint256"
        }
      ],
      "payable": false,
      "stateMutability": "view",
      "type": "function"
    }
  ],
  "bytecode": "0x60806040523480156200001157600080fd5b50604051620013fd380380620013fd833981018060405260408110156200003757600080fd5b8101908080516401000000008111156200005057600080fd5b820160208101848111156200006457600080fd5b81516401000000008111828201871017156200007f57600080fd5b505060209182015181519194509250620000a091600b9190850190620000d1565b50600a8054600160a060020a03909216600160a060020a031992831617905560088054909116331790555062000176565b828054600181600116156101000203166002900490600052602060002090601f016020900481019282601f106200011457805160ff191683800117855562000144565b8280016001018555821562000144579182015b828111156200014457825182559160200191906001019062000127565b506200015292915062000156565b5090565b6200017391905b808211156200015257600081556001016200015d565b90565b61127780620001866000396000f3fe6080604052600436106100a05763ffffffff60e060020a600035041663399ae72481146100a557806357ac264e146100e05780636a470b28146101075780636bee1e1b1461013857806372c97e7f146102f85780638525855d146103975780638da5cb5b146103ac578063af640d0f146103c1578063cf09e0d0146103d6578063d5f39488146103eb578063de4cd84214610400578063e1902063146105bd575b600080fd5b3480156100b157600080fd5b506100de600480360360408110156100c857600080fd5b50600160a060020a03813516906020013561066e565b005b3480156100ec57600080fd5b506100f56106f8565b60408051918252519081900360200190f35b34801561011357600080fd5b5061011c6106ff565b60408051600160a060020a039092168252519081900360200190f35b34801561014457600080fd5b506100de600480360360a081101561015b57600080fd5b810190602081018135602060020a81111561017557600080fd5b82018360208201111561018757600080fd5b803590602001918460018302840111602060020a831117156101a857600080fd5b91908080601f0160208091040260200160405190810160405280939291908181526020018383808284376000920191909152509295949360208101935035915050602060020a8111156101fa57600080fd5b82018360208201111561020c57600080fd5b803590602001918460018302840111602060020a8311171561022d57600080fd5b91908080601f0160208091040260200160405190810160405280939291908181526020018383808284376000920191909152509295949360208101935035915050602060020a81111561027f57600080fd5b82018360208201111561029157600080fd5b803590602001918460018302840111602060020a831117156102b257600080fd5b91908080601f016020809104026020016040519081016040528093929190818152602001838380828437600092019190915250929550508235935050506020013561070e565b34801561030457600080fd5b506103226004803603602081101561031b57600080fd5b5035610a91565b6040805160208082528351818301528351919283929083019185019080838360005b8381101561035c578181015183820152602001610344565b50505050905090810190601f1680156103895780820380516001836020036101000a031916815260200191505b509250505060405180910390f35b3480156103a357600080fd5b5061011c610b38565b3480156103b857600080fd5b5061011c610b47565b3480156103cd57600080fd5b50610322610b56565b3480156103e257600080fd5b506100f5610bb1565b3480156103f757600080fd5b5061011c610bb7565b34801561040c57600080fd5b506100de6004803603608081101561042357600080fd5b810190602081018135602060020a81111561043d57600080fd5b82018360208201111561044f57600080fd5b803590602001918460018302840111602060020a8311171561047057600080fd5b91908080601f0160208091040260200160405190810160405280939291908181526020018383808284376000920191909152509295949360208101935035915050602060020a8111156104c257600080fd5b8201836020820111156104d457600080fd5b803590602001918460018302840111602060020a831117156104f557600080fd5b91908080601f0160208091040260200160405190810160405280939291908181526020018383808284376000920191909152509295949360208101935035915050602060020a81111561054757600080fd5b82018360208201111561055957600080fd5b803590602001918460018302840111602060020a8311171561057a57600080fd5b91908080601f0160208091040260200160405190810160405280939291908181526020018383808284376000920191909152509295505091359250610bc6915050565b3480156105c957600080fd5b5061011c600480360360208110156105e057600080fd5b810190602081018135602060020a8111156105fa57600080fd5b82018360208201111561060c57600080fd5b803590602001918460018302840111602060020a8311171561062d57600080fd5b91908080601f016020809104026020016040519081016040528093929190818152602001838380828437600092019190915250929550611073945050505050565b600854600160a060020a031633146106d2576040805160e560020a62461bcd028152602060048201526033602482015260008051602061122c833981519152604482015260008051602061120c833981519152606482015290519081900360840190fd5b60098054600160a060020a031916600160a060020a039390931692909217909155600d55565b600c545b90565b600854600160a060020a031681565b600854600160a060020a03163314610772576040805160e560020a62461bcd028152602060048201526033602482015260008051602061122c833981519152604482015260008051602061120c833981519152606482015290519081900360840190fd5b600a54604051602060248201818152875160448401528751600094606094600160a060020a03909116938a93928392606401918501908083838b5b838110156107c55781810151838201526020016107ad565b50505050905090810190601f1680156107f25780820380516001836020036101000a031916815260200191505b5060408051601f19818403018152918152602082018051600160e060020a031660e160020a63548b880902178152905182519295509350839250908083835b602083106108505780518252601f199092019160209182019101610831565b6001836020036101000a038019825116818451168082178552505050505050905001915050600060405180830381855af49150503d80600081146108b0576040519150601f19603f3d011682016040523d82523d6000602084013e6108b5565b606091505b5091509150811515610928576040805160e560020a62461bcd02815260206004820152602b60248201527f4572726f72207768696c65206465706c6f79696e672066696c652066726f6d20604482015260a860020a6a636572746966696361746502606482015290519081900360840190fd5b6109318161116c565b600e8054600160a060020a031916600160a060020a03928316179081905560405160e260020a6321f20119028152604481018790526064810186905260806004820190815288516084830152885192909316926387c804649289928c928a928a928291602482019160a40190602089019080838360005b838110156109c05781810151838201526020016109a8565b50505050905090810190601f1680156109ed5780820380516001836020036101000a031916815260200191505b50838103825286518152865160209182019188019080838360005b83811015610a20578181015183820152602001610a08565b50505050905090810190601f168015610a4d5780820380516001836020036101000a031916815260200191505b509650505050505050600060405180830381600087803b158015610a7057600080fd5b505af1158015610a84573d6000803e3d6000fd5b5050505050505050505050565b600c805482908110610a9f57fe5b600091825260209182902001805460408051601f6002600019610100600187161502019094169390930492830185900485028101850190915281815293509091830182828015610b305780601f10610b0557610100808354040283529160200191610b30565b820191906000526020600020905b815481529060010190602001808311610b1357829003601f168201915b505050505081565b600e54600160a060020a031681565b600954600160a060020a031681565b600b805460408051602060026001851615610100026000190190941693909304601f81018490048402820184019092528181529291830182828015610b305780601f10610b0557610100808354040283529160200191610b30565b600d5481565b600a54600160a060020a031681565b600854600160a060020a03163314610c2a576040805160e560020a62461bcd028152602060048201526033602482015260008051602061122c833981519152604482015260008051602061120c833981519152606482015290519081900360840190fd5b6000600160a060020a0316600f856040518082805190602001908083835b60208310610c675780518252601f199092019160209182019101610c48565b51815160209384036101000a6000190180199092169116179052920194855250604051938490030190922054600160a060020a0316929092149150610cf89050576040805160e560020a62461bcd02815260206004820181905260248201527f5468652063757272656e74206576656e7420616c726561647920657869737473604482015290519081900360640190fd5b60006060600a60009054906101000a9004600160a060020a0316600160a060020a03168686868660405160240180806020018060200180602001858152602001848103845288818151815260200191508051906020019080838360005b83811015610d6d578181015183820152602001610d55565b50505050905090810190601f168015610d9a5780820380516001836020036101000a031916815260200191505b50848103835287518152875160209182019189019080838360005b83811015610dcd578181015183820152602001610db5565b50505050905090810190601f168015610dfa5780820380516001836020036101000a031916815260200191505b50848103825286518152865160209182019188019080838360005b83811015610e2d578181015183820152602001610e15565b50505050905090810190601f168015610e5a5780820380516001836020036101000a031916815260200191505b5060408051601f19818403018152918152602082018051600160e060020a031660e060020a63f776d03b0217815290518251929a509850889750955093508392508591508490505b60208310610ec15780518252601f199092019160209182019101610ea2565b6001836020036101000a038019825116818451168082178552505050505050905001915050600060405180830381855af49150503d8060008114610f21576040519150601f19603f3d011682016040523d82523d6000602084013e610f26565b606091505b5091509150811515610f9a576040805160e560020a62461bcd02815260206004820152602c60248201527f4572726f72207768696c65206465706c6f79696e67206576656e742066726f6d604482015260a060020a6b20636572746966696361746502606482015290519081900360840190fd5b610fa38161116c565b600f876040518082805190602001908083835b60208310610fd55780518252601f199092019160209182019101610fb6565b51815160209384036101000a60001901801990921691161790529201948552506040519384900381019093208054600160a060020a031916600160a060020a03959095169490941790935550600c8054600181018083556000929092528951919350611069927fdf6966c971051c3d54ec59162606531493a51404a002842f56009d7e5cf4a8c790910191908a0190611173565b5050505050505050565b600080600160a060020a0316600f836040518082805190602001908083835b602083106110b15780518252601f199092019160209182019101611092565b51815160209384036101000a6000190180199092169116179052920194855250604051938490030190922054600160a060020a0316929092141591506110fb905057506000611167565b600f826040518082805190602001908083835b6020831061112d5780518252601f19909201916020918201910161110e565b51815160209384036101000a6000190180199092169116179052920194855250604051938490030190922054600160a060020a0316925050505b919050565b6020015190565b828054600181600116156101000203166002900490600052602060002090601f016020900481019282601f106111b457805160ff19168380011785556111e1565b828001600101855582156111e1579182015b828111156111e15782518255916020019190600101906111c6565b506111ed9291506111f1565b5090565b6106fc91905b808211156111ed57600081556001016111f756fe706572666f726d207468697320616374696f6e000000000000000000000000004f6e6c7920436572746966696564456d61696c206163636f756e742063616e20a165627a7a72305820903a46041c40abcb80c5055cb4fc9620e70afef30dfa6fc35b55b6937bcf1b780029",
  "source": "pragma solidity <0.6.0;\n\n/*\nGas to deploy: 1.395.948\n*/\n\nimport \"./interfaces/CertificateInterface.sol\";\nimport \"./interfaces/FileInterface.sol\";\nimport \"./interfaces/EventInterface.sol\";\nimport \"./libraries/Utils.sol\";\n\n\ncontract Certificate is CertificateInterface {\n    address public certifiedEmail;\n    address public owner;\n    address public deployer;\n\n    string public id;\n\n    string[] public eventsId;\n\n    uint public createdAt;\n\n    FileInterface public file;\n\n    mapping(string => EventInterface) private events;\n\n    constructor(\n        string memory certificateId,\n        address certifiedEmailDeployer\n    ) public {\n        id = certificateId;\n        deployer = certifiedEmailDeployer;\n        certifiedEmail = msg.sender;\n    }\n\n    modifier certifiedEmailModifier() {\n        require(\n            msg.sender == certifiedEmail,\n            \"Only CertifiedEmail account can perform this action\"\n        );\n\n        _;\n    }\n\n    function init(\n        address certificateOwner,\n        uint certificateCreatedAt\n    )\n        public\n        certifiedEmailModifier\n    {\n        owner = certificateOwner;\n        createdAt = certificateCreatedAt;\n    }\n\n    function createFile(\n        string memory fileHash,\n        string memory fileId,\n        string memory fileName,\n        uint fileCreatedAt,\n        uint fileSize\n    )\n        public\n        certifiedEmailModifier\n    {\n        (bool success, bytes memory returnData) = deployer.delegatecall(\n            abi.encodeWithSignature(\n                \"deployFile(string)\",\n                fileId\n            )\n        );\n\n        require(\n            success,\n            \"Error while deploying file from certificate\"\n        );\n\n        file = FileInterface(Utils._bytesToAddress(returnData));\n\n        file.init(\n                fileName,\n                fileHash,\n                fileCreatedAt,\n                fileSize\n        );\n    }\n\n    function createEvent(\n        string memory eventId,\n        string memory eventType,\n        string memory eventUserAgent,\n        uint eventCreatedAt\n    )\n        public\n        certifiedEmailModifier\n    {\n        require(\n            address(events[eventId]) == address(0),\n            \"The current event already exists\"\n        );\n\n        (bool success, bytes memory returnData) = deployer.delegatecall(\n            abi.encodeWithSignature(\n                \"deployEvent(string,string,string,uint256)\",\n                eventId,\n                eventType,\n                eventUserAgent,\n                eventCreatedAt\n            )\n        );\n\n        require(\n            success,\n            \"Error while deploying event from certificate\"\n        );\n\n        events[eventId] = EventInterface(Utils._bytesToAddress(returnData));\n\n        eventsId.push(eventId);\n    }\n\n    function getEvent(\n        string memory eventId\n    )\n        public\n        view\n        returns (address)\n    {\n        if (address(events[eventId]) == address(0)) return address(0);\n\n        return address(events[eventId]);\n    }\n\n    function getEventsSize() public view returns(uint) {\n        return eventsId.length;\n    }\n}\n",
  "sourcePath": "/Users/alex/workspace/signaturit-solidity-contracts/contracts/Certificate.sol",
  "compiler": {
    "name": "solc",
    "version": "0.5.0+commit.1d4f565a.Emscripten.clang"
  },
  "schemaVersion": "3.0.13",
  "updatedAt": "2019-09-03T10:33:14.369Z",
  "devdoc": {
    "methods": {}
  },
  "userdoc": {
    "methods": {}
  }
}