{
  "contractName": "CertifiedFileAggregator",
  "abi": [
    {
      "constant": true,
      "inputs": [],
      "name": "userContract",
      "outputs": [
        {
          "name": "",
          "type": "address"
        }
      ],
      "payable": false,
      "stateMutability": "view",
      "type": "function"
    },
    {
      "constant": true,
      "inputs": [],
      "name": "aggregatorName",
      "outputs": [
        {
          "name": "",
          "type": "string"
        }
      ],
      "payable": false,
      "stateMutability": "view",
      "type": "function"
    },
    {
      "constant": true,
      "inputs": [],
      "name": "notifiersKey",
      "outputs": [
        {
          "name": "",
          "type": "string"
        }
      ],
      "payable": false,
      "stateMutability": "view",
      "type": "function"
    },
    {
      "constant": true,
      "inputs": [],
      "name": "signaturit",
      "outputs": [
        {
          "name": "",
          "type": "address"
        }
      ],
      "payable": false,
      "stateMutability": "view",
      "type": "function"
    },
    {
      "inputs": [
        {
          "name": "_userContractAddress",
          "type": "address"
        }
      ],
      "payable": false,
      "stateMutability": "nonpayable",
      "type": "constructor"
    },
    {
      "constant": true,
      "inputs": [
        {
          "name": "id",
          "type": "string"
        }
      ],
      "name": "getCertifiedFileById",
      "outputs": [
        {
          "name": "",
          "type": "address"
        }
      ],
      "payable": false,
      "stateMutability": "view",
      "type": "function"
    },
    {
      "constant": true,
      "inputs": [
        {
          "name": "index",
          "type": "uint256"
        }
      ],
      "name": "getCertifiedFile",
      "outputs": [
        {
          "name": "addr",
          "type": "address"
        },
        {
          "name": "more",
          "type": "bool"
        }
      ],
      "payable": false,
      "stateMutability": "view",
      "type": "function"
    },
    {
      "constant": true,
      "inputs": [],
      "name": "count",
      "outputs": [
        {
          "name": "",
          "type": "uint256"
        }
      ],
      "payable": false,
      "stateMutability": "view",
      "type": "function"
    },
    {
      "constant": false,
      "inputs": [
        {
          "name": "eventType",
          "type": "string"
        },
        {
          "name": "addr",
          "type": "address"
        }
      ],
      "name": "notify",
      "outputs": [],
      "payable": false,
      "stateMutability": "nonpayable",
      "type": "function"
    }
  ],
  "bytecode": "0x608060405234801561001057600080fd5b50604051602080610b448339810180604052602081101561003057600080fd5b5051604080518082018252601981527f6365727469666965642d66696c652d61676772656761746f720000000000000060208281019182528351808501909452601884527f6365727469666965642d66696c652d6e6f7469666965727300000000000000009084015260018054600160a060020a0319163317905581518493916100bd91600291906102e9565b5080516100d19060039060208401906102e9565b5060008054600160a060020a031916600160a060020a038581169190911791829055604080517f34311d8e0000000000000000000000000000000000000000000000000000000081523060248201819052600482019283526002805461010060018216150260001901168190046044840181905295909416946334311d8e949391928291606490910190859080156101aa5780601f1061017f576101008083540402835291602001916101aa565b820191906000526020600020905b81548152906001019060200180831161018d57829003601f168201915b50509350505050600060405180830381600087803b1580156101cb57600080fd5b505af11580156101df573d6000803e3d6000fd5b5050600054604080517fd661f878000000000000000000000000000000000000000000000000000000008152306024820181905260048201928352600380546002600019600183161561010002019091160460448401819052600160a060020a03909516965063d661f8789550939092918291606490910190859080156102a75780601f1061027c576101008083540402835291602001916102a7565b820191906000526020600020905b81548152906001019060200180831161028a57829003601f168201915b50509350505050600060405180830381600087803b1580156102c857600080fd5b505af11580156102dc573d6000803e3d6000fd5b5050505050505050610384565b828054600181600116156101000203166002900490600052602060002090601f016020900481019282601f1061032a57805160ff1916838001178555610357565b82800160010185558215610357579182015b8281111561035757825182559160200191906001019061033c565b50610363929150610367565b5090565b61038191905b80821115610363576000815560010161036d565b90565b6107b1806103936000396000f3fe6080604052600436106100745763ffffffff60e060020a60003504166306661abd81146100795780631892ae1b146100a05780635000596b1461016d578063984eec3714610182578063c50679fc1461020c578063d9026ed114610259578063e71e65761461026e578063f9b533351461032c575b600080fd5b34801561008557600080fd5b5061008e610341565b60408051918252519081900360200190f35b3480156100ac57600080fd5b50610151600480360360208110156100c357600080fd5b810190602081018135602060020a8111156100dd57600080fd5b8201836020820111156100ef57600080fd5b803590602001918460018302840111602060020a8311171561011057600080fd5b91908080601f016020809104026020016040519081016040528093929190818152602001838380828437600092019190915250929550610347945050505050565b60408051600160a060020a039092168252519081900360200190f35b34801561017957600080fd5b50610151610372565b34801561018e57600080fd5b50610197610381565b6040805160208082528351818301528351919283929083019185019080838360005b838110156101d15781810151838201526020016101b9565b50505050905090810190601f1680156101fe5780820380516001836020036101000a031916815260200191505b509250505060405180910390f35b34801561021857600080fd5b506102366004803603602081101561022f57600080fd5b503561040c565b60408051600160a060020a03909316835290151560208301528051918290030190f35b34801561026557600080fd5b50610197610483565b34801561027a57600080fd5b5061032a6004803603604081101561029157600080fd5b810190602081018135602060020a8111156102ab57600080fd5b8201836020820111156102bd57600080fd5b803590602001918460018302840111602060020a831117156102de57600080fd5b91908080601f01602080910402602001604051908101604052809392919081815260200183838082843760009201919091525092955050509035600160a060020a031691506104de9050565b005b34801561033857600080fd5b506101516106e4565b60055490565b600080610353836106f3565b600090815260046020526040902054600160a060020a03169392505050565b600054600160a060020a031681565b6002805460408051602060018416156101000260001901909316849004601f810184900484028201840190925281815292918301828280156104045780601f106103d957610100808354040283529160200191610404565b820191906000526020600020905b8154815290600101906020018083116103e757829003601f168201915b505050505081565b6005805460009182916001850181119183918690811061042857fe5b60009182526020808320909101548083526004909152604090912054909150600160a060020a03161561047657600090815260046020526040902054600160a060020a03169250905061047e565b506000925090505b915091565b6003805460408051602060026001851615610100026000190190941693909304601f810184900484028201840190925281815292918301828280156104045780601f106103d957610100808354040283529160200191610404565b600154600160a060020a0316321461055b576040805160e560020a62461bcd02815260206004820152602f60248201527f4f6e6c79205369676e617475726974206163636f756e742063616e20706572666044820152608960020a6e37b936903a3434b99030b1ba34b7b702606482015290519081900360840190fd5b6000610566836106f3565b9050806105a76040805190810160405280601f81526020017f6365727469666965645f66696c652e636f6e74726163742e63726561746564008152506106f3565b14156106df576000829050600061068082600160a060020a031663af640d0f6040518163ffffffff1660e060020a02815260040160006040518083038186803b1580156105f357600080fd5b505afa158015610607573d6000803e3d6000fd5b505050506040513d6000823e601f3d908101601f19168201604052602081101561063057600080fd5b810190808051602060020a81111561064757600080fd5b8201602081018481111561065a57600080fd5b8151602060020a81118282018710171561067357600080fd5b50509291905050506106f3565b60058054600181019091557f036b6384b5eca791c62761152d0c79bb0604c104a5fb6f4eb0703f3154bb3db00181905560009081526004602052604090208054600160a060020a031916600160a060020a039390931692909217909155505b505050565b600154600160a060020a031681565b6000816040516020018080602001828103825283818151815260200191508051906020019080838360005b8381101561073657818101518382015260200161071e565b50505050905090810190601f1680156107635780820380516001836020036101000a031916815260200191505b509250505060405160208183030381529060405280519060200120905091905056fea165627a7a72305820f37146da98d04d0284483b879cf8de7dc7a5bb8c1f3286a1c9d587a83b5197e90029",
  "source": "pragma solidity <0.6.0;\n\n/*\nGas to deploy: 785.379\n*/\n\nimport \"./interfaces/NotifierInterface.sol\";\nimport \"./BaseAggregator.sol\";\nimport \"./CertifiedFile.sol\";\nimport \"./libraries/Utils.sol\";\n\ncontract CertifiedFileAggregator is\n    NotifierInterface,\n    BaseAggregator\n{\n    string constant private CERTIFIED_FILE_CREATED_EVENT = \"certified_file.contract.created\";\n\n    mapping (bytes32 => CertifiedFile) private certifiedFiles;\n\n    bytes32[] private certifiedFilesIds;\n\n    constructor (\n        address _userContractAddress\n    )\n        public\n        BaseAggregator(\n            _userContractAddress,\n            \"certified-file-aggregator\",\n            \"certified-file-notifiers\"\n        )\n    {}\n\n    function getCertifiedFileById(\n        string memory id\n    )\n        public\n        view\n        returns (address)\n    {\n        bytes32 bytes32id = Utils.keccak(id);\n\n        return address(certifiedFiles[bytes32id]);\n    }\n\n    function getCertifiedFile(\n        uint index\n    )\n        public\n        view\n        returns (address addr, bool more)\n    {\n        bool _more = index + 1 < certifiedFilesIds.length;\n        bytes32 certifiedFileId = certifiedFilesIds[index];\n        if (address(certifiedFiles[certifiedFileId]) != address(0)) {\n            return (\n                address(certifiedFiles[certifiedFileId]),\n                _more\n            );\n        }\n\n        return (\n            address(0),\n            _more\n        );\n    }\n\n    function count()\n        public\n        view\n        returns (uint)\n    {\n        return certifiedFilesIds.length;\n    }\n\n    function notify(\n        string memory eventType,\n        address addr\n    )\n        public\n        signaturitOnly\n    {\n        bytes32 bytes32eventType = Utils.keccak(eventType);\n\n        if (Utils.keccak(CERTIFIED_FILE_CREATED_EVENT) == bytes32eventType) {\n            CertifiedFile certifiedFile = CertifiedFile(addr);\n\n            bytes32 bytes32id = Utils.keccak(certifiedFile.id());\n\n            certifiedFilesIds.push(bytes32id);\n            certifiedFiles[bytes32id] = certifiedFile;\n        }\n    }\n}",
  "sourcePath": "/home/administrator/workspace/signaturit-solidity-contracts/contracts/CertifiedFileAggregator.sol",
  "compiler": {
    "name": "solc",
    "version": "0.5.0+commit.1d4f565a.Emscripten.clang"
  },
  "schemaVersion": "2.0.3",
  "updatedAt": "2020-01-15T10:55:50.242Z"
}