{
  "contractName": "CertifiedEmailDeployer",
  "abi": [
    {
      "inputs": [],
      "payable": false,
      "stateMutability": "nonpayable",
      "type": "constructor"
    },
    {
      "constant": false,
      "inputs": [
        {
          "internalType": "string",
          "name": "fileId",
          "type": "string"
        }
      ],
      "name": "deployFile",
      "outputs": [
        {
          "internalType": "address",
          "name": "",
          "type": "address"
        }
      ],
      "payable": false,
      "stateMutability": "nonpayable",
      "type": "function"
    },
    {
      "constant": false,
      "inputs": [
        {
          "internalType": "string",
          "name": "certificateId",
          "type": "string"
        },
        {
          "internalType": "address",
          "name": "deployer",
          "type": "address"
        }
      ],
      "name": "deployCertificate",
      "outputs": [
        {
          "internalType": "address",
          "name": "",
          "type": "address"
        }
      ],
      "payable": false,
      "stateMutability": "nonpayable",
      "type": "function"
    },
    {
      "constant": false,
      "inputs": [
        {
          "internalType": "string",
          "name": "eventId",
          "type": "string"
        },
        {
          "internalType": "string",
          "name": "eventType",
          "type": "string"
        },
        {
          "internalType": "string",
          "name": "eventUserAgent",
          "type": "string"
        },
        {
          "internalType": "uint256",
          "name": "eventCreatedAt",
          "type": "uint256"
        }
      ],
      "name": "deployEvent",
      "outputs": [
        {
          "internalType": "address",
          "name": "",
          "type": "address"
        }
      ],
      "payable": false,
      "stateMutability": "nonpayable",
      "type": "function"
    }
  ],
  "bytecode": "0x608060405234801561001057600080fd5b50612799806100206000396000f3fe608060405234801561001057600080fd5b50600436106100415760003560e01c8063547952cf14610046578063a917101214610111578063f776d03b146101b5575b600080fd5b6100f56004803603604081101561005c57600080fd5b810190602081018135600160201b81111561007657600080fd5b82018360208201111561008857600080fd5b803590602001918460018302840111600160201b831117156100a957600080fd5b91908080601f016020809104026020016040519081016040528093929190818152602001838380828437600092019190915250929550505090356001600160a01b031691506103659050565b604080516001600160a01b039092168252519081900360200190f35b6100f56004803603602081101561012757600080fd5b810190602081018135600160201b81111561014157600080fd5b82018360208201111561015357600080fd5b803590602001918460018302840111600160201b8311171561017457600080fd5b91908080601f016020809104026020016040519081016040528093929190818152602001838380828437600092019190915250929550610415945050505050565b6100f5600480360360808110156101cb57600080fd5b810190602081018135600160201b8111156101e557600080fd5b8201836020820111156101f757600080fd5b803590602001918460018302840111600160201b8311171561021857600080fd5b91908080601f0160208091040260200160405190810160405280939291908181526020018383808284376000920191909152509295949360208101935035915050600160201b81111561026a57600080fd5b82018360208201111561027c57600080fd5b803590602001918460018302840111600160201b8311171561029d57600080fd5b91908080601f0160208091040260200160405190810160405280939291908181526020018383808284376000920191909152509295949360208101935035915050600160201b8111156102ef57600080fd5b82018360208201111561030157600080fd5b803590602001918460018302840111600160201b8311171561032257600080fd5b91908080601f01602080910402602001604051908101604052809392919081815260200183838082843760009201919091525092955050913592506104af915050565b6000828260405161037590610626565b6001600160a01b03821660208083019190915260408083528451908301528351829160608301919086019080838360005b838110156103be5781810151838201526020016103a6565b50505050905090810190601f1680156103eb5780820380516001836020036101000a031916815260200191505b509350505050604051809103906000f08015801561040d573d6000803e3d6000fd5b509392505050565b60008160405161042490610633565b60208082528251818301528251829160408301919085019080838360005b8381101561045a578181015183820152602001610442565b50505050905090810190601f1680156104875780820380516001836020036101000a031916815260200191505b5092505050604051809103906000f0801580156104a8573d6000803e3d6000fd5b5092915050565b6000848484846040516104c190610640565b80806020018060200180602001858152602001848103845288818151815260200191508051906020019080838360005b838110156105095781810151838201526020016104f1565b50505050905090810190601f1680156105365780820380516001836020036101000a031916815260200191505b50848103835287518152875160209182019189019080838360005b83811015610569578181015183820152602001610551565b50505050905090810190601f1680156105965780820380516001836020036101000a031916815260200191505b50848103825286518152865160209182019188019080838360005b838110156105c95781810151838201526020016105b1565b50505050905090810190601f1680156105f65780820380516001836020036101000a031916815260200191505b50975050505050505050604051809103906000f08015801561061c573d6000803e3d6000fd5b5095945050505050565b61139a8061064e83390190565b610767806119e883390190565b6106168061214f8339019056fe60806040523480156200001157600080fd5b506040516200139a3803806200139a833981810160405260408110156200003757600080fd5b81019080805160405193929190846401000000008211156200005857600080fd5b9083019060208201858111156200006e57600080fd5b82516401000000008111828201881017156200008957600080fd5b82525081516020918201929091019080838360005b83811015620000b85781810151838201526020016200009e565b50505050905090810190601f168015620000e65780820380516001836020036101000a031916815260200191505b506040526020908101518451909350620001079250600b9185019062000138565b50600a80546001600160a01b039092166001600160a01b0319928316179055600880549091163317905550620001dd565b828054600181600116156101000203166002900490600052602060002090601f016020900481019282601f106200017b57805160ff1916838001178555620001ab565b82800160010185558215620001ab579182015b82811115620001ab5782518255916020019190600101906200018e565b50620001b9929150620001bd565b5090565b620001da91905b80821115620001b95760008155600101620001c4565b90565b6111ad80620001ed6000396000f3fe608060405234801561001057600080fd5b50600436106100a45760003560e01c8063399ae724146100a957806357ac264e146100d75780636a470b28146100f15780636bee1e1b1461011557806372c97e7f146102c85780638525855d1461035a5780638da5cb5b14610362578063af640d0f1461036a578063cf09e0d014610372578063d5f394881461037a578063de4cd84214610382578063e190206314610532575b600080fd5b6100d5600480360360408110156100bf57600080fd5b506001600160a01b0381351690602001356105d6565b005b6100df610645565b60408051918252519081900360200190f35b6100f961064c565b604080516001600160a01b039092168252519081900360200190f35b6100d5600480360360a081101561012b57600080fd5b810190602081018135600160201b81111561014557600080fd5b82018360208201111561015757600080fd5b803590602001918460018302840111600160201b8311171561017857600080fd5b91908080601f0160208091040260200160405190810160405280939291908181526020018383808284376000920191909152509295949360208101935035915050600160201b8111156101ca57600080fd5b8201836020820111156101dc57600080fd5b803590602001918460018302840111600160201b831117156101fd57600080fd5b91908080601f0160208091040260200160405190810160405280939291908181526020018383808284376000920191909152509295949360208101935035915050600160201b81111561024f57600080fd5b82018360208201111561026157600080fd5b803590602001918460018302840111600160201b8311171561028257600080fd5b91908080601f016020809104026020016040519081016040528093929190818152602001838380828437600092019190915250929550508235935050506020013561065b565b6102e5600480360360208110156102de57600080fd5b503561098b565b6040805160208082528351818301528351919283929083019185019080838360005b8381101561031f578181015183820152602001610307565b50505050905090810190601f16801561034c5780820380516001836020036101000a031916815260200191505b509250505060405180910390f35b6100f9610a31565b6100f9610a40565b6102e5610a4f565b6100df610aaa565b6100f9610ab0565b6100d56004803603608081101561039857600080fd5b810190602081018135600160201b8111156103b257600080fd5b8201836020820111156103c457600080fd5b803590602001918460018302840111600160201b831117156103e557600080fd5b91908080601f0160208091040260200160405190810160405280939291908181526020018383808284376000920191909152509295949360208101935035915050600160201b81111561043757600080fd5b82018360208201111561044957600080fd5b803590602001918460018302840111600160201b8311171561046a57600080fd5b91908080601f0160208091040260200160405190810160405280939291908181526020018383808284376000920191909152509295949360208101935035915050600160201b8111156104bc57600080fd5b8201836020820111156104ce57600080fd5b803590602001918460018302840111600160201b831117156104ef57600080fd5b91908080601f0160208091040260200160405190810160405280939291908181526020018383808284376000920191909152509295505091359250610abf915050565b6100f96004803603602081101561054857600080fd5b810190602081018135600160201b81111561056257600080fd5b82018360208201111561057457600080fd5b803590602001918460018302840111600160201b8311171561059557600080fd5b91908080601f016020809104026020016040519081016040528093929190818152602001838380828437600092019190915250929550610f18945050505050565b6008546001600160a01b0316331461061f5760405162461bcd60e51b815260040180806020018281038252603381526020018061111b6033913960400191505060405180910390fd5b600980546001600160a01b0319166001600160a01b039390931692909217909155600d55565b600c545b90565b6008546001600160a01b031681565b6008546001600160a01b031633146106a45760405162461bcd60e51b815260040180806020018281038252603381526020018061111b6033913960400191505060405180910390fd5b600a546040516020602482018181528751604484015287516000946060946001600160a01b03909116938a93928392606401918501908083838b5b838110156106f75781810151838201526020016106df565b50505050905090810190601f1680156107245780820380516001836020036101000a031916815260200191505b5060408051601f198184030181529181526020820180516001600160e01b031663548b880960e11b178152905182519295509350839250908083835b6020831061077f5780518252601f199092019160209182019101610760565b6001836020036101000a038019825116818451168082178552505050505050905001915050600060405180830381855af49150503d80600081146107df576040519150601f19603f3d011682016040523d82523d6000602084013e6107e4565b606091505b5091509150816108255760405162461bcd60e51b815260040180806020018281038252602b81526020018061114e602b913960400191505060405180910390fd5b61082e8161104f565b600e80546001600160a01b0319166001600160a01b0392831617908190556040516321f2011960e21b8152604481018790526064810186905260806004820190815288516084830152885192909316926387c804649289928c928a928a928291602482019160a40190602089019080838360005b838110156108ba5781810151838201526020016108a2565b50505050905090810190601f1680156108e75780820380516001836020036101000a031916815260200191505b50838103825286518152865160209182019188019080838360005b8381101561091a578181015183820152602001610902565b50505050905090810190601f1680156109475780820380516001836020036101000a031916815260200191505b509650505050505050600060405180830381600087803b15801561096a57600080fd5b505af115801561097e573d6000803e3d6000fd5b5050505050505050505050565b600c818154811061099857fe5b600091825260209182902001805460408051601f6002600019610100600187161502019094169390930492830185900485028101850190915281815293509091830182828015610a295780601f106109fe57610100808354040283529160200191610a29565b820191906000526020600020905b815481529060010190602001808311610a0c57829003601f168201915b505050505081565b600e546001600160a01b031681565b6009546001600160a01b031681565b600b805460408051602060026001851615610100026000190190941693909304601f81018490048402820184019092528181529291830182828015610a295780601f106109fe57610100808354040283529160200191610a29565b600d5481565b600a546001600160a01b031681565b6008546001600160a01b03163314610b085760405162461bcd60e51b815260040180806020018281038252603381526020018061111b6033913960400191505060405180910390fd5b60006001600160a01b0316600f856040518082805190602001908083835b60208310610b455780518252601f199092019160209182019101610b26565b51815160209384036101000a60001901801990921691161790529201948552506040519384900301909220546001600160a01b0316929092149150610bd39050576040805162461bcd60e51b815260206004820181905260248201527f5468652063757272656e74206576656e7420616c726561647920657869737473604482015290519081900360640190fd5b60006060600a60009054906101000a90046001600160a01b03166001600160a01b03168686868660405160240180806020018060200180602001858152602001848103845288818151815260200191508051906020019080838360005b83811015610c48578181015183820152602001610c30565b50505050905090810190601f168015610c755780820380516001836020036101000a031916815260200191505b50848103835287518152875160209182019189019080838360005b83811015610ca8578181015183820152602001610c90565b50505050905090810190601f168015610cd55780820380516001836020036101000a031916815260200191505b50848103825286518152865160209182019188019080838360005b83811015610d08578181015183820152602001610cf0565b50505050905090810190601f168015610d355780820380516001836020036101000a031916815260200191505b5060408051601f198184030181529181526020820180516001600160e01b031663f776d03b60e01b17815290518251929a509850889750955093508392508591508490505b60208310610d995780518252601f199092019160209182019101610d7a565b6001836020036101000a038019825116818451168082178552505050505050905001915050600060405180830381855af49150503d8060008114610df9576040519150601f19603f3d011682016040523d82523d6000602084013e610dfe565b606091505b509150915081610e3f5760405162461bcd60e51b815260040180806020018281038252602c8152602001806110ef602c913960400191505060405180910390fd5b610e488161104f565b600f876040518082805190602001908083835b60208310610e7a5780518252601f199092019160209182019101610e5b565b51815160209384036101000a600019018019909216911617905292019485525060405193849003810190932080546001600160a01b0319166001600160a01b03959095169490941790935550600c8054600181018083556000929092528951919350610f0e927fdf6966c971051c3d54ec59162606531493a51404a002842f56009d7e5cf4a8c790910191908a0190611056565b5050505050505050565b6000806001600160a01b0316600f836040518082805190602001908083835b60208310610f565780518252601f199092019160209182019101610f37565b51815160209384036101000a60001901801990921691161790529201948552506040519384900301909220546001600160a01b031692909214159150610fe09050576040805162461bcd60e51b8152602060048201526018602482015277151a1a5cc8195d995b9d08191bd95cdb89dd08195e1a5cdd60421b604482015290519081900360640190fd5b600f826040518082805190602001908083835b602083106110125780518252601f199092019160209182019101610ff3565b51815160209384036101000a60001901801990921691161790529201948552506040519384900301909220546001600160a01b0316949350505050565b6020015190565b828054600181600116156101000203166002900490600052602060002090601f016020900481019282601f1061109757805160ff19168380011785556110c4565b828001600101855582156110c4579182015b828111156110c45782518255916020019190600101906110a9565b506110d09291506110d4565b5090565b61064991905b808211156110d057600081556001016110da56fe4572726f72207768696c65206465706c6f79696e67206576656e742066726f6d2063657274696669636174654f6e6c7920436572746966696564456d61696c206163636f756e742063616e20706572666f726d207468697320616374696f6e4572726f72207768696c65206465706c6f79696e672066696c652066726f6d206365727469666963617465a265627a7a723158206abefa883b24055e26a0e883ef1fe562e6c80c57a4a484db0dfb11c78f3b142064736f6c634300050b0032608060405234801561001057600080fd5b506040516107673803806107678339818101604052602081101561003357600080fd5b810190808051604051939291908464010000000082111561005357600080fd5b90830190602082018581111561006857600080fd5b825164010000000081118282018810171561008257600080fd5b82525081516020918201929091019080838360005b838110156100af578181015183820152602001610097565b50505050905090810190601f1680156100dc5780820380516001836020036101000a031916815260200191505b50604052505081516100f69150600790602084019061010f565b5050600680546001600160a01b031916331790556101aa565b828054600181600116156101000203166002900490600052602060002090601f016020900481019282601f1061015057805160ff191683800117855561017d565b8280016001018555821561017d579182015b8281111561017d578251825591602001919060010190610162565b5061018992915061018d565b5090565b6101a791905b808211156101895760008155600101610193565b90565b6105ae806101b96000396000f3fe608060405234801561001057600080fd5b506004361061006d5760003560e01c806306fdde031461007257806360f96a8f146100ef57806387c8046414610113578063949d225d14610243578063af640d0f1461025d578063bce00f7614610265578063cf09e0d01461026d575b600080fd5b61007a610275565b6040805160208082528351818301528351919283929083019185019080838360005b838110156100b457818101518382015260200161009c565b50505050905090810190601f1680156100e15780820380516001836020036101000a031916815260200191505b509250505060405180910390f35b6100f7610303565b604080516001600160a01b039092168252519081900360200190f35b6102416004803603608081101561012957600080fd5b810190602081018135600160201b81111561014357600080fd5b82018360208201111561015557600080fd5b803590602001918460018302840111600160201b8311171561017657600080fd5b91908080601f0160208091040260200160405190810160405280939291908181526020018383808284376000920191909152509295949360208101935035915050600160201b8111156101c857600080fd5b8201836020820111156101da57600080fd5b803590602001918460018302840111600160201b831117156101fb57600080fd5b91908080601f0160208091040260200160405190810160405280939291908181526020018383808284376000920191909152509295505082359350505060200135610312565b005b61024b6103ed565b60408051918252519081900360200190f35b61007a6103f3565b61007a61044e565b61024b6104a9565b6008805460408051602060026001851615610100026000190190941693909304601f810184900484028201840190925281815292918301828280156102fb5780601f106102d0576101008083540402835291602001916102fb565b820191906000526020600020905b8154815290600101906020018083116102de57829003601f168201915b505050505081565b6006546001600160a01b031681565b6006546001600160a01b0316331461035b5760405162461bcd60e51b815260040180806020018281038252602f81526020018061054b602f913960400191505060405180910390fd5b60008111801561036b5750835115155b6103b5576040805162461bcd60e51b8152602060048201526016602482015275496e76616c696420696e7075742076616c756528732960501b604482015290519081900360640190fd5b83516103c89060089060208701906104af565b50600b819055600a82905582516103e69060099060208601906104af565b5050505050565b600b5481565b6007805460408051602060026001851615610100026000190190941693909304601f810184900484028201840190925281815292918301828280156102fb5780601f106102d0576101008083540402835291602001916102fb565b6009805460408051602060026001851615610100026000190190941693909304601f810184900484028201840190925281815292918301828280156102fb5780601f106102d0576101008083540402835291602001916102fb565b600a5481565b828054600181600116156101000203166002900490600052602060002090601f016020900481019282601f106104f057805160ff191683800117855561051d565b8280016001018555821561051d579182015b8281111561051d578251825591602001919060010190610502565b5061052992915061052d565b5090565b61054791905b808211156105295760008155600101610533565b9056fe4f6e6c792074686520706172656e74206163636f756e742063616e20706572666f726d207468697320616374696f6ea265627a7a72315820ea2f3197605d3e251ffdfc6af93f857ba829c913b02eebd52a3f08778c65882064736f6c634300050b0032608060405234801561001057600080fd5b506040516106163803806106168339818101604052608081101561003357600080fd5b810190808051604051939291908464010000000082111561005357600080fd5b90830190602082018581111561006857600080fd5b825164010000000081118282018810171561008257600080fd5b82525081516020918201929091019080838360005b838110156100af578181015183820152602001610097565b50505050905090810190601f1680156100dc5780820380516001836020036101000a031916815260200191505b50604052602001805160405193929190846401000000008211156100ff57600080fd5b90830190602082018581111561011457600080fd5b825164010000000081118282018810171561012e57600080fd5b82525081516020918201929091019080838360005b8381101561015b578181015183820152602001610143565b50505050905090810190601f1680156101885780820380516001836020036101000a031916815260200191505b50604052602001805160405193929190846401000000008211156101ab57600080fd5b9083019060208201858111156101c057600080fd5b82516401000000008111828201881017156101da57600080fd5b82525081516020918201929091019080838360005b838110156102075781810151838201526020016101ef565b50505050905090810190601f1680156102345780820380516001836020036101000a031916815260200191505b5060405260209081015186519093506102539250600491870190610288565b508251610267906001906020860190610288565b50815161027b906006906020850190610288565b5060075550610323915050565b828054600181600116156101000203166002900490600052602060002090601f016020900481019282601f106102c957805160ff19168380011785556102f6565b828001600101855582156102f6579182015b828111156102f65782518255916020019190600101906102db565b50610302929150610306565b5090565b61032091905b80821115610302576000815560010161030c565b90565b6102e4806103326000396000f3fe608060405234801561001057600080fd5b50600436106100575760003560e01c80630b305f301461005c578063af640d0f146100d9578063bdf1c4a1146100e1578063cf09e0d0146100e9578063d44b930014610103575b600080fd5b61006461010b565b6040805160208082528351818301528351919283929083019185019080838360005b8381101561009e578181015183820152602001610086565b50505050905090810190601f1680156100cb5780820380516001836020036101000a031916815260200191505b509250505060405180910390f35b610064610199565b6100646101f4565b6100f161024f565b60408051918252519081900360200190f35b610064610255565b6005805460408051602060026001851615610100026000190190941693909304601f810184900484028201840190925281815292918301828280156101915780601f1061016657610100808354040283529160200191610191565b820191906000526020600020905b81548152906001019060200180831161017457829003601f168201915b505050505081565b6004805460408051602060026001851615610100026000190190941693909304601f810184900484028201840190925281815292918301828280156101915780601f1061016657610100808354040283529160200191610191565b6006805460408051602060026001851615610100026000190190941693909304601f810184900484028201840190925281815292918301828280156101915780601f1061016657610100808354040283529160200191610191565b60075481565b60018054604080516020600284861615610100026000190190941693909304601f810184900484028201840190925281815292918301828280156101915780601f106101665761010080835404028352916020019161019156fea265627a7a72315820337e62ecb4109fb47cc8af47d95267d2bef2768b6bb0b1114ba0c442f740236564736f6c634300050b0032a265627a7a7231582091863fd9170b2e6d3332631ff07a3f0af698afc03b257ebafa89375297fda3b364736f6c634300050b0032",
  "source": "pragma solidity <0.6.0;\n\n/*\nGas to deploy: 2.748.825\n*/\n\nimport \"./File.sol\";\nimport \"./Certificate.sol\";\nimport \"./Event.sol\";\n\n\ncontract CertifiedEmailDeployer {\n\n    constructor() public {}\n\n    function deployFile(\n        string memory fileId\n    )\n        public\n        returns (address)\n    {\n        return address(new File(fileId));\n    }\n\n    function deployCertificate(\n        string memory certificateId,\n        address deployer\n    )\n        public\n        returns (address)\n    {\n        return address(new Certificate(certificateId, deployer));\n    }\n\n    function deployEvent(\n        string memory eventId,\n        string memory eventType,\n        string memory eventUserAgent,\n        uint eventCreatedAt\n    )\n        public\n        returns (address)\n    {\n        return address(\n            new Event(\n                eventId,\n                eventType,\n                eventUserAgent,\n                eventCreatedAt\n            )\n        );\n    }\n}\n",
  "sourcePath": "/home/administrator/workspace/signaturit-solidity-contracts/contracts/CertifiedEmailDeployer.sol",
  "compiler": {
    "name": "solc",
    "version": "0.5.11+commit.c082d0b4.Emscripten.clang"
  },
  "schemaVersion": "3.0.11",
  "updatedAt": "2019-08-29T15:50:01.430Z",
  "devdoc": {
    "methods": {}
  },
  "userdoc": {
    "methods": {}
  }
}