{
  "contractName": "CertifiedFileInterface",
  "abi": [
    {
      "constant": true,
      "inputs": [],
      "name": "name",
      "outputs": [
        {
          "name": "",
          "type": "string"
        }
      ],
      "payable": false,
      "stateMutability": "view",
      "type": "function"
    },
    {
      "constant": true,
      "inputs": [],
      "name": "hash",
      "outputs": [
        {
          "name": "",
          "type": "string"
        }
      ],
      "payable": false,
      "stateMutability": "view",
      "type": "function"
    },
    {
      "constant": true,
      "inputs": [],
      "name": "owner",
      "outputs": [
        {
          "name": "",
          "type": "address"
        }
      ],
      "payable": false,
      "stateMutability": "view",
      "type": "function"
    },
    {
      "constant": true,
      "inputs": [],
      "name": "size",
      "outputs": [
        {
          "name": "",
          "type": "uint256"
        }
      ],
      "payable": false,
      "stateMutability": "view",
      "type": "function"
    },
    {
      "constant": true,
      "inputs": [],
      "name": "id",
      "outputs": [
        {
          "name": "",
          "type": "string"
        }
      ],
      "payable": false,
      "stateMutability": "view",
      "type": "function"
    },
    {
      "constant": true,
      "inputs": [],
      "name": "userSmartContract",
      "outputs": [
        {
          "name": "",
          "type": "address"
        }
      ],
      "payable": false,
      "stateMutability": "view",
      "type": "function"
    },
    {
      "constant": true,
      "inputs": [],
      "name": "createdAt",
      "outputs": [
        {
          "name": "",
          "type": "uint256"
        }
      ],
      "payable": false,
      "stateMutability": "view",
      "type": "function"
    },
    {
      "constant": true,
      "inputs": [],
      "name": "signaturit",
      "outputs": [
        {
          "name": "",
          "type": "address"
        }
      ],
      "payable": false,
      "stateMutability": "view",
      "type": "function"
    }
  ],
  "bytecode": "0x608060405234801561001057600080fd5b5061036a806100206000396000f3fe6080604052600436106100745763ffffffff60e060020a60003504166306fdde03811461007957806309bd5a60146101035780638da5cb5b14610118578063949d225d14610149578063af640d0f14610170578063c004240c14610185578063cf09e0d01461019a578063f9b53335146101af575b600080fd5b34801561008557600080fd5b5061008e6101c4565b6040805160208082528351818301528351919283929083019185019080838360005b838110156100c85781810151838201526020016100b0565b50505050905090810190601f1680156100f55780820380516001836020036101000a031916815260200191505b509250505060405180910390f35b34801561010f57600080fd5b5061008e610252565b34801561012457600080fd5b5061012d6102ad565b60408051600160a060020a039092168252519081900360200190f35b34801561015557600080fd5b5061015e6102bc565b60408051918252519081900360200190f35b34801561017c57600080fd5b5061008e6102c2565b34801561019157600080fd5b5061012d61031a565b3480156101a657600080fd5b5061015e610329565b3480156101bb57600080fd5b5061012d61032f565b6003805460408051602060026001851615610100026000190190941693909304601f8101849004840282018401909252818152929183018282801561024a5780601f1061021f5761010080835404028352916020019161024a565b820191906000526020600020905b81548152906001019060200180831161022d57829003601f168201915b505050505081565b6004805460408051602060026001851615610100026000190190941693909304601f8101849004840282018401909252818152929183018282801561024a5780601f1061021f5761010080835404028352916020019161024a565b600154600160a060020a031681565b60065481565b6002805460408051602060018416156101000260001901909316849004601f8101849004840282018401909252818152929183018282801561024a5780601f1061021f5761010080835404028352916020019161024a565b600754600160a060020a031681565b60055481565b600054600160a060020a03168156fea165627a7a72305820c21a7c60a8d9c50f6e687fceea8144b5e4788d326f429c04fb2d89792556910c0029",
  "source": "pragma solidity 0.5.0;\n\nimport \"./UserInterface.sol\";\n\n\ncontract CertifiedFileInterface {\n    address public signaturit;\n    address public owner;\n\n    string public id;\n    string public name;\n    string public hash;\n\n    uint public createdAt;\n    uint public size;\n\n    UserInterface public userSmartContract;\n}\n",
  "sourcePath": "/home/administrator/workspace/bc-smart-contracts/contracts/interfaces/CertifiedFileInterface.sol",
  "compiler": {
    "name": "solc",
    "version": "0.5.0+commit.1d4f565a.Emscripten.clang"
  },
  "schemaVersion": "3.0.11",
  "updatedAt": "2019-07-05T13:37:35.307Z",
  "devdoc": {
    "methods": {}
  },
  "userdoc": {
    "methods": {}
  }
}