{
  "contractName": "Clause",
  "abi": [
    {
      "constant": true,
      "inputs": [],
      "name": "signatureId",
      "outputs": [
        {
          "name": "",
          "type": "string"
        }
      ],
      "payable": false,
      "stateMutability": "view",
      "type": "function"
    },
    {
      "constant": true,
      "inputs": [],
      "name": "userContract",
      "outputs": [
        {
          "name": "",
          "type": "address"
        }
      ],
      "payable": false,
      "stateMutability": "view",
      "type": "function"
    },
    {
      "constant": true,
      "inputs": [],
      "name": "clause",
      "outputs": [
        {
          "name": "",
          "type": "string"
        }
      ],
      "payable": false,
      "stateMutability": "view",
      "type": "function"
    },
    {
      "constant": true,
      "inputs": [],
      "name": "documentId",
      "outputs": [
        {
          "name": "",
          "type": "string"
        }
      ],
      "payable": false,
      "stateMutability": "view",
      "type": "function"
    },
    {
      "constant": true,
      "inputs": [],
      "name": "contractId",
      "outputs": [
        {
          "name": "",
          "type": "string"
        }
      ],
      "payable": false,
      "stateMutability": "view",
      "type": "function"
    },
    {
      "constant": true,
      "inputs": [],
      "name": "signatureContract",
      "outputs": [
        {
          "name": "",
          "type": "address"
        }
      ],
      "payable": false,
      "stateMutability": "view",
      "type": "function"
    },
    {
      "constant": true,
      "inputs": [],
      "name": "signaturit",
      "outputs": [
        {
          "name": "",
          "type": "address"
        }
      ],
      "payable": false,
      "stateMutability": "view",
      "type": "function"
    },
    {
      "inputs": [
        {
          "name": "clauseType",
          "type": "string"
        }
      ],
      "payable": false,
      "stateMutability": "nonpayable",
      "type": "constructor"
    }
  ],
  "bytecode": "0x608060405234801561001057600080fd5b506040516104c93803806104c98339810180604052602081101561003357600080fd5b81019080805164010000000081111561004b57600080fd5b8201602081018481111561005e57600080fd5b815164010000000081118282018710171561007857600080fd5b505080519093506100929250600191506020840190610099565b5050610134565b828054600181600116156101000203166002900490600052602060002090601f016020900481019282601f106100da57805160ff1916838001178555610107565b82800160010185558215610107579182015b828111156101075782518255916020019190600101906100ec565b50610113929150610117565b5090565b61013191905b80821115610113576000815560010161011d565b90565b610386806101436000396000f3fe6080604052600436106100695763ffffffff60e060020a600035041663395ba050811461006e5780635000596b146100f85780635ee4a01a1461012957806378f7c83f1461013e5780638291286c14610153578063d83070ab14610168578063f9b533351461017d575b600080fd5b34801561007a57600080fd5b50610083610192565b6040805160208082528351818301528351919283929083019185019080838360005b838110156100bd5781810151838201526020016100a5565b50505050905090810190601f1680156100ea5780820380516001836020036101000a031916815260200191505b509250505060405180910390f35b34801561010457600080fd5b5061010d610220565b60408051600160a060020a039092168252519081900360200190f35b34801561013557600080fd5b5061008361022f565b34801561014a57600080fd5b50610083610289565b34801561015f57600080fd5b506100836102e4565b34801561017457600080fd5b5061010d61033c565b34801561018957600080fd5b5061010d61034b565b6004805460408051602060026001851615610100026000190190941693909304601f810184900484028201840190925281815292918301828280156102185780601f106101ed57610100808354040283529160200191610218565b820191906000526020600020905b8154815290600101906020018083116101fb57829003601f168201915b505050505081565b600554600160a060020a031681565b60018054604080516020600284861615610100026000190190941693909304601f810184900484028201840190925281815292918301828280156102185780601f106101ed57610100808354040283529160200191610218565b6003805460408051602060026001851615610100026000190190941693909304601f810184900484028201840190925281815292918301828280156102185780601f106101ed57610100808354040283529160200191610218565b6002805460408051602060018416156101000260001901909316849004601f810184900484028201840190925281815292918301828280156102185780601f106101ed57610100808354040283529160200191610218565b600654600160a060020a031681565b600054600160a060020a03168156fea165627a7a72305820640ba4cdac3574e20c60125ef70b53d9d789e2b0c172081f494d80f6e9bd16650029",
  "source": "pragma solidity <0.6.0;\n\nimport \"./interfaces/UserInterface.sol\";\nimport \"./interfaces/SignatureInterface.sol\";\n\n\ncontract Clause {\n    address public signaturit;\n\n    string public clause;\n    string public contractId;\n    string public documentId;\n    string public signatureId;\n\n    UserInterface public userContract;\n    SignatureInterface public signatureContract;\n\n    constructor(\n        string memory clauseType\n    )\n        public\n    {\n        clause = clauseType;\n    }\n\n    function publishNotification(\n        string memory notificationType,\n        string memory id\n    )\n        internal\n    {\n        userContract.clauseNotification(\n            address(this),\n            clause,\n            notificationType,\n            id\n        );\n    }\n\n    function setClauseOnSignature()\n        internal\n    {\n        signatureContract.setClause(\n            clause,\n            address(this)\n        );\n    }\n}\n",
  "sourcePath": "/Users/alex/workspace/signaturit-solidity-contracts/contracts/Clause.sol",
  "compiler": {
    "name": "solc",
    "version": "0.5.0+commit.1d4f565a.Emscripten.clang"
  },
  "schemaVersion": "3.0.13",
  "updatedAt": "2019-08-30T15:18:25.750Z",
  "devdoc": {
    "methods": {}
  },
  "userdoc": {
    "methods": {}
  }
}