{
  "contractName": "Clause",
  "abi": [
    {
      "constant": true,
      "inputs": [],
      "name": "signatureId",
      "outputs": [
        {
          "name": "",
          "type": "string"
        }
      ],
      "payable": false,
      "stateMutability": "view",
      "type": "function"
    },
    {
      "constant": true,
      "inputs": [],
      "name": "userContract",
      "outputs": [
        {
          "name": "",
          "type": "address"
        }
      ],
      "payable": false,
      "stateMutability": "view",
      "type": "function"
    },
    {
      "constant": true,
      "inputs": [],
      "name": "documentId",
      "outputs": [
        {
          "name": "",
          "type": "string"
        }
      ],
      "payable": false,
      "stateMutability": "view",
      "type": "function"
    },
    {
      "constant": true,
      "inputs": [],
      "name": "contractId",
      "outputs": [
        {
          "name": "",
          "type": "string"
        }
      ],
      "payable": false,
      "stateMutability": "view",
      "type": "function"
    },
    {
      "constant": true,
      "inputs": [],
      "name": "signatureContract",
      "outputs": [
        {
          "name": "",
          "type": "address"
        }
      ],
      "payable": false,
      "stateMutability": "view",
      "type": "function"
    },
    {
      "constant": true,
      "inputs": [],
      "name": "notifiersKey",
      "outputs": [
        {
          "name": "",
          "type": "string"
        }
      ],
      "payable": false,
      "stateMutability": "view",
      "type": "function"
    },
    {
      "constant": true,
      "inputs": [],
      "name": "signaturit",
      "outputs": [
        {
          "name": "",
          "type": "address"
        }
      ],
      "payable": false,
      "stateMutability": "view",
      "type": "function"
    },
    {
      "inputs": [
        {
          "name": "notifiers",
          "type": "string"
        }
      ],
      "payable": false,
      "stateMutability": "nonpayable",
      "type": "constructor"
    }
  ],
  "bytecode": "0x608060405234801561001057600080fd5b506040516104ca3803806104ca8339810180604052602081101561003357600080fd5b81019080805164010000000081111561004b57600080fd5b8201602081018481111561005e57600080fd5b815164010000000081118282018710171561007857600080fd5b505080519093506100929250600091506020840190610099565b5050610134565b828054600181600116156101000203166002900490600052602060002090601f016020900481019282601f106100da57805160ff1916838001178555610107565b82800160010185558215610107579182015b828111156101075782518255916020019190600101906100ec565b50610113929150610117565b5090565b61013191905b80821115610113576000815560010161011d565b90565b610387806101436000396000f3fe6080604052600436106100695763ffffffff60e060020a600035041663395ba050811461006e5780635000596b146100f857806378f7c83f146101295780638291286c1461013e578063d83070ab14610153578063d9026ed114610168578063f9b533351461017d575b600080fd5b34801561007a57600080fd5b50610083610192565b6040805160208082528351818301528351919283929083019185019080838360005b838110156100bd5781810151838201526020016100a5565b50505050905090810190601f1680156100ea5780820380516001836020036101000a031916815260200191505b509250505060405180910390f35b34801561010457600080fd5b5061010d610220565b60408051600160a060020a039092168252519081900360200190f35b34801561013557600080fd5b5061008361022f565b34801561014a57600080fd5b5061008361028a565b34801561015f57600080fd5b5061010d6102e2565b34801561017457600080fd5b506100836102f1565b34801561018957600080fd5b5061010d61034c565b6004805460408051602060026001851615610100026000190190941693909304601f810184900484028201840190925281815292918301828280156102185780601f106101ed57610100808354040283529160200191610218565b820191906000526020600020905b8154815290600101906020018083116101fb57829003601f168201915b505050505081565b600554600160a060020a031681565b6003805460408051602060026001851615610100026000190190941693909304601f810184900484028201840190925281815292918301828280156102185780601f106101ed57610100808354040283529160200191610218565b6002805460408051602060018416156101000260001901909316849004601f810184900484028201840190925281815292918301828280156102185780601f106101ed57610100808354040283529160200191610218565b600654600160a060020a031681565b6000805460408051602060026001851615610100026000190190941693909304601f810184900484028201840190925281815292918301828280156102185780601f106101ed57610100808354040283529160200191610218565b600154600160a060020a03168156fea165627a7a723058200c1079aa2c8d830d7cb1a0138c47be17d937544a7260bdbd186a1a2db91c138e0029",
  "source": "pragma solidity <0.6.0;\n\nimport \"./interfaces/SignaturitUserInterface.sol\";\nimport \"./interfaces/NotifierInterface.sol\";\n\n\ncontract Clause {\n    string public notifiersKey;\n\n    address public signaturit;\n\n    string public contractId;\n    string public documentId;\n    string public signatureId;\n\n    SignaturitUserInterface public userContract;\n    NotifierInterface public signatureContract;\n\n    constructor(\n        string memory notifiers\n    )\n        public\n    {\n        notifiersKey = notifiers;\n    }\n\n    function _notifySignature(string memory creationEvent)\n        internal\n    {\n        signatureContract.notify(\n            creationEvent,\n            address(this)\n        );\n    }\n\n    function _notify(string memory eventType)\n        internal\n    {\n        address contractToNofify;\n        uint notificationIndex = 0;\n\n        do {\n            contractToNofify = userContract.getAddressArrayAttribute(notifiersKey, notificationIndex);\n            ++notificationIndex;\n\n            if (contractToNofify != address(0)) {\n                contractToNofify.call(\n                    abi.encodeWithSignature(\n                        \"notify(string,address)\",\n                        eventType,\n                        address(this)\n                    )\n                );\n            }\n        } while (contractToNofify != address(0));\n    }\n}\n",
  "sourcePath": "/home/administrator/workspace/signaturit-solidity-contracts/contracts/Clause.sol",
  "compiler": {
    "name": "solc",
    "version": "0.5.0+commit.1d4f565a.Emscripten.clang"
  },
  "schemaVersion": "3.0.11",
  "updatedAt": "2019-10-11T11:15:19.230Z",
  "devdoc": {
    "methods": {}
  },
  "userdoc": {
    "methods": {}
  }
}