{
  "contractName": "Clause",
  "abi": [
    {
      "constant": true,
      "inputs": [],
      "name": "notificationEvent",
      "outputs": [
        {
          "name": "",
          "type": "string"
        }
      ],
      "payable": false,
      "stateMutability": "view",
      "type": "function"
    },
    {
      "constant": true,
      "inputs": [],
      "name": "signatureId",
      "outputs": [
        {
          "name": "",
          "type": "string"
        }
      ],
      "payable": false,
      "stateMutability": "view",
      "type": "function"
    },
    {
      "constant": true,
      "inputs": [],
      "name": "userContract",
      "outputs": [
        {
          "name": "",
          "type": "address"
        }
      ],
      "payable": false,
      "stateMutability": "view",
      "type": "function"
    },
    {
      "constant": true,
      "inputs": [],
      "name": "clause",
      "outputs": [
        {
          "name": "",
          "type": "string"
        }
      ],
      "payable": false,
      "stateMutability": "view",
      "type": "function"
    },
    {
      "constant": true,
      "inputs": [],
      "name": "documentId",
      "outputs": [
        {
          "name": "",
          "type": "string"
        }
      ],
      "payable": false,
      "stateMutability": "view",
      "type": "function"
    },
    {
      "constant": true,
      "inputs": [],
      "name": "contractId",
      "outputs": [
        {
          "name": "",
          "type": "string"
        }
      ],
      "payable": false,
      "stateMutability": "view",
      "type": "function"
    },
    {
      "constant": true,
      "inputs": [],
      "name": "signatureContract",
      "outputs": [
        {
          "name": "",
          "type": "address"
        }
      ],
      "payable": false,
      "stateMutability": "view",
      "type": "function"
    },
    {
      "constant": true,
      "inputs": [],
      "name": "signaturit",
      "outputs": [
        {
          "name": "",
          "type": "address"
        }
      ],
      "payable": false,
      "stateMutability": "view",
      "type": "function"
    },
    {
      "inputs": [
        {
          "name": "clauseType",
          "type": "string"
        },
        {
          "name": "eventType",
          "type": "string"
        }
      ],
      "payable": false,
      "stateMutability": "nonpayable",
      "type": "constructor"
    }
  ],
  "bytecode": "0x608060405234801561001057600080fd5b506040516105a33803806105a38339810180604052604081101561003357600080fd5b81019080805164010000000081111561004b57600080fd5b8201602081018481111561005e57600080fd5b815164010000000081118282018710171561007857600080fd5b5050929190602001805164010000000081111561009457600080fd5b820160208101848111156100a757600080fd5b81516401000000008111828201871017156100c157600080fd5b505084519093506100db92506002915060208501906100f7565b5080516100ef9060009060208401906100f7565b505050610192565b828054600181600116156101000203166002900490600052602060002090601f016020900481019282601f1061013857805160ff1916838001178555610165565b82800160010185558215610165579182015b8281111561016557825182559160200191906001019061014a565b50610171929150610175565b5090565b61018f91905b80821115610171576000815560010161017b565b90565b610402806101a16000396000f3fe6080604052600436106100745763ffffffff60e060020a6000350416631179b1508114610079578063395ba050146101035780635000596b146101185780635ee4a01a1461014957806378f7c83f1461015e5780638291286c14610173578063d83070ab14610188578063f9b533351461019d575b600080fd5b34801561008557600080fd5b5061008e6101b2565b6040805160208082528351818301528351919283929083019185019080838360005b838110156100c85781810151838201526020016100b0565b50505050905090810190601f1680156100f55780820380516001836020036101000a031916815260200191505b509250505060405180910390f35b34801561010f57600080fd5b5061008e610240565b34801561012457600080fd5b5061012d61029b565b60408051600160a060020a039092168252519081900360200190f35b34801561015557600080fd5b5061008e6102aa565b34801561016a57600080fd5b5061008e610302565b34801561017f57600080fd5b5061008e61035d565b34801561019457600080fd5b5061012d6103b8565b3480156101a957600080fd5b5061012d6103c7565b6000805460408051602060026001851615610100026000190190941693909304601f810184900484028201840190925281815292918301828280156102385780601f1061020d57610100808354040283529160200191610238565b820191906000526020600020905b81548152906001019060200180831161021b57829003601f168201915b505050505081565b6005805460408051602060026001851615610100026000190190941693909304601f810184900484028201840190925281815292918301828280156102385780601f1061020d57610100808354040283529160200191610238565b600654600160a060020a031681565b6002805460408051602060018416156101000260001901909316849004601f810184900484028201840190925281815292918301828280156102385780601f1061020d57610100808354040283529160200191610238565b6004805460408051602060026001851615610100026000190190941693909304601f810184900484028201840190925281815292918301828280156102385780601f1061020d57610100808354040283529160200191610238565b6003805460408051602060026001851615610100026000190190941693909304601f810184900484028201840190925281815292918301828280156102385780601f1061020d57610100808354040283529160200191610238565b600754600160a060020a031681565b600154600160a060020a03168156fea165627a7a723058206cf6c7696d08d04c7350538e974daf355d4647219666fbcca0cdc3fd183f3b9f0029",
  "source": "pragma solidity <0.6.0;\n\nimport \"./interfaces/SignaturitUserInterface.sol\";\nimport \"./interfaces/NotifierInterface.sol\";\n\n\ncontract Clause {\n    string public notificationEvent;\n\n    address public signaturit;\n\n    string public clause;\n    string public contractId;\n    string public documentId;\n    string public signatureId;\n\n    SignaturitUserInterface public userContract;\n    NotifierInterface public signatureContract;\n\n    constructor(\n        string memory clauseType,\n        string memory eventType\n    )\n        public\n    {\n        clause = clauseType;\n        notificationEvent = eventType;\n    }\n\n    function _notifySignature()\n        internal\n    {\n        signatureContract.notify(\n            clause,\n            address(this)\n        );\n    }\n\n    function _notify()\n        internal\n    {\n        address contractToNofify;\n        uint notificationIndex = 0;\n\n        do {\n            contractToNofify = userContract.getAddressArrayAttribute(notificationEvent, notificationIndex);\n            ++notificationIndex;\n\n            if (contractToNofify != address(0)) {\n                contractToNofify.call(\n                    abi.encodeWithSignature(\n                        \"notify(string,address)\",\n                        notificationEvent,\n                        address(this)\n                    )\n                );\n            }\n        } while (contractToNofify != address(0));\n    }\n}\n",
  "sourcePath": "/home/administrator/workspace/signaturit-solidity-contracts/contracts/Clause.sol",
  "compiler": {
    "name": "solc",
    "version": "0.5.0+commit.1d4f565a.Emscripten.clang"
  },
  "schemaVersion": "3.0.11",
  "updatedAt": "2019-10-07T12:01:23.900Z",
  "devdoc": {
    "methods": {}
  },
  "userdoc": {
    "methods": {}
  }
}