{
  "contractName": "Clause",
  "abi": [
    {
      "constant": true,
      "inputs": [],
      "name": "userContract",
      "outputs": [
        {
          "name": "",
          "type": "address"
        }
      ],
      "payable": false,
      "stateMutability": "view",
      "type": "function"
    },
    {
      "constant": true,
      "inputs": [],
      "name": "clause",
      "outputs": [
        {
          "name": "",
          "type": "string"
        }
      ],
      "payable": false,
      "stateMutability": "view",
      "type": "function"
    },
    {
      "inputs": [
        {
          "name": "clauseType",
          "type": "string"
        }
      ],
      "payable": false,
      "stateMutability": "nonpayable",
      "type": "constructor"
    }
  ],
  "bytecode": "0x608060405234801561001057600080fd5b506040516102fe3803806102fe8339810180604052602081101561003357600080fd5b81019080805164010000000081111561004b57600080fd5b8201602081018481111561005e57600080fd5b815164010000000081118282018710171561007857600080fd5b505080519093506100929250600091506020840190610099565b5050610134565b828054600181600116156101000203166002900490600052602060002090601f016020900481019282601f106100da57805160ff1916838001178555610107565b82800160010185558215610107579182015b828111156101075782518255916020019190600101906100ec565b50610113929150610117565b5090565b61013191905b80821115610113576000815560010161011d565b90565b6101bb806101436000396000f3fe6080604052600436106100325763ffffffff60e060020a6000350416635000596b81146100375780635ee4a01a14610068575b600080fd5b34801561004357600080fd5b5061004c6100f2565b60408051600160a060020a039092168252519081900360200190f35b34801561007457600080fd5b5061007d610101565b6040805160208082528351818301528351919283929083019185019080838360005b838110156100b757818101518382015260200161009f565b50505050905090810190601f1680156100e45780820380516001836020036101000a031916815260200191505b509250505060405180910390f35b600154600160a060020a031681565b6000805460408051602060026001851615610100026000190190941693909304601f810184900484028201840190925281815292918301828280156101875780601f1061015c57610100808354040283529160200191610187565b820191906000526020600020905b81548152906001019060200180831161016a57829003601f168201915b50505050508156fea165627a7a7230582094958e470fceef49488ea7c9478f42d780960f3f825a6d7089e0f8fbd5f1e9900029",
  "source": "pragma solidity 0.5.0;\n\nimport \"./interfaces/UserInterface.sol\";\n\ncontract Clause {\n    string public clause;\n\n    UserInterface public userContract;\n\n    constructor(string memory clauseType) public {\n        clause = clauseType;\n    }\n\n    function publishNotification(\n        address clauseContract,\n        string memory notificationType,\n        string memory id\n    )\n        internal\n    {\n        userContract.clauseNotification(clauseContract, notificationType, id);\n    }\n}\n",
  "sourcePath": "/home/administrator/workspace/signaturit-solidity-contracts/contracts/Clause.sol",
  "compiler": {
    "name": "solc",
    "version": "0.5.0+commit.1d4f565a.Emscripten.clang"
  },
  "schemaVersion": "3.0.11",
  "updatedAt": "2019-08-06T14:13:53.115Z",
  "devdoc": {
    "methods": {}
  },
  "userdoc": {
    "methods": {}
  }
}