{
  "contractName": "Document",
  "abi": [
    {
      "constant": true,
      "inputs": [],
      "name": "signedAt",
      "outputs": [
        {
          "name": "",
          "type": "uint256"
        }
      ],
      "payable": false,
      "stateMutability": "view",
      "type": "function"
    },
    {
      "constant": true,
      "inputs": [],
      "name": "cancelReason",
      "outputs": [
        {
          "name": "",
          "type": "string"
        }
      ],
      "payable": false,
      "stateMutability": "view",
      "type": "function"
    },
    {
      "constant": true,
      "inputs": [],
      "name": "declined",
      "outputs": [
        {
          "name": "",
          "type": "bool"
        }
      ],
      "payable": false,
      "stateMutability": "view",
      "type": "function"
    },
    {
      "constant": true,
      "inputs": [],
      "name": "signed",
      "outputs": [
        {
          "name": "",
          "type": "bool"
        }
      ],
      "payable": false,
      "stateMutability": "view",
      "type": "function"
    },
    {
      "constant": true,
      "inputs": [],
      "name": "signer",
      "outputs": [
        {
          "name": "",
          "type": "address"
        }
      ],
      "payable": false,
      "stateMutability": "view",
      "type": "function"
    },
    {
      "constant": true,
      "inputs": [],
      "name": "canceled",
      "outputs": [
        {
          "name": "",
          "type": "bool"
        }
      ],
      "payable": false,
      "stateMutability": "view",
      "type": "function"
    },
    {
      "constant": true,
      "inputs": [],
      "name": "signature",
      "outputs": [
        {
          "name": "",
          "type": "address"
        }
      ],
      "payable": false,
      "stateMutability": "view",
      "type": "function"
    },
    {
      "constant": true,
      "inputs": [],
      "name": "declineReason",
      "outputs": [
        {
          "name": "",
          "type": "string"
        }
      ],
      "payable": false,
      "stateMutability": "view",
      "type": "function"
    },
    {
      "constant": true,
      "inputs": [
        {
          "name": "",
          "type": "uint256"
        }
      ],
      "name": "eventsId",
      "outputs": [
        {
          "name": "",
          "type": "string"
        }
      ],
      "payable": false,
      "stateMutability": "view",
      "type": "function"
    },
    {
      "constant": true,
      "inputs": [],
      "name": "file",
      "outputs": [
        {
          "name": "",
          "type": "address"
        }
      ],
      "payable": false,
      "stateMutability": "view",
      "type": "function"
    },
    {
      "constant": true,
      "inputs": [],
      "name": "id",
      "outputs": [
        {
          "name": "",
          "type": "string"
        }
      ],
      "payable": false,
      "stateMutability": "view",
      "type": "function"
    },
    {
      "constant": true,
      "inputs": [],
      "name": "signedFileHash",
      "outputs": [
        {
          "name": "",
          "type": "string"
        }
      ],
      "payable": false,
      "stateMutability": "view",
      "type": "function"
    },
    {
      "constant": true,
      "inputs": [],
      "name": "createdAt",
      "outputs": [
        {
          "name": "",
          "type": "uint256"
        }
      ],
      "payable": false,
      "stateMutability": "view",
      "type": "function"
    },
    {
      "constant": true,
      "inputs": [],
      "name": "deployer",
      "outputs": [
        {
          "name": "",
          "type": "address"
        }
      ],
      "payable": false,
      "stateMutability": "view",
      "type": "function"
    },
    {
      "constant": true,
      "inputs": [],
      "name": "signatureType",
      "outputs": [
        {
          "name": "",
          "type": "string"
        }
      ],
      "payable": false,
      "stateMutability": "view",
      "type": "function"
    },
    {
      "inputs": [
        {
          "name": "documentId",
          "type": "string"
        },
        {
          "name": "signatureDeployer",
          "type": "address"
        }
      ],
      "payable": false,
      "stateMutability": "nonpayable",
      "type": "constructor"
    },
    {
      "constant": false,
      "inputs": [
        {
          "name": "initType",
          "type": "string"
        },
        {
          "name": "documentCreatedAt",
          "type": "uint256"
        }
      ],
      "name": "init",
      "outputs": [],
      "payable": false,
      "stateMutability": "nonpayable",
      "type": "function"
    },
    {
      "constant": false,
      "inputs": [
        {
          "name": "signerAddress",
          "type": "address"
        }
      ],
      "name": "setOwner",
      "outputs": [],
      "payable": false,
      "stateMutability": "nonpayable",
      "type": "function"
    },
    {
      "constant": false,
      "inputs": [
        {
          "name": "documentSignedAt",
          "type": "uint256"
        }
      ],
      "name": "sign",
      "outputs": [],
      "payable": false,
      "stateMutability": "nonpayable",
      "type": "function"
    },
    {
      "constant": false,
      "inputs": [
        {
          "name": "documentDeclineReason",
          "type": "string"
        }
      ],
      "name": "decline",
      "outputs": [],
      "payable": false,
      "stateMutability": "nonpayable",
      "type": "function"
    },
    {
      "constant": false,
      "inputs": [
        {
          "name": "documentCancelReason",
          "type": "string"
        }
      ],
      "name": "cancel",
      "outputs": [],
      "payable": false,
      "stateMutability": "nonpayable",
      "type": "function"
    },
    {
      "constant": false,
      "inputs": [
        {
          "name": "fileId",
          "type": "string"
        },
        {
          "name": "fileName",
          "type": "string"
        },
        {
          "name": "fileHash",
          "type": "string"
        },
        {
          "name": "fileCreatedAt",
          "type": "uint256"
        },
        {
          "name": "fileSize",
          "type": "uint256"
        }
      ],
      "name": "createFile",
      "outputs": [],
      "payable": false,
      "stateMutability": "nonpayable",
      "type": "function"
    },
    {
      "constant": false,
      "inputs": [
        {
          "name": "fileHash",
          "type": "string"
        }
      ],
      "name": "setFileHash",
      "outputs": [],
      "payable": false,
      "stateMutability": "nonpayable",
      "type": "function"
    },
    {
      "constant": false,
      "inputs": [
        {
          "name": "eventId",
          "type": "string"
        },
        {
          "name": "eventType",
          "type": "string"
        },
        {
          "name": "eventUserAgent",
          "type": "string"
        },
        {
          "name": "eventCreatedAt",
          "type": "uint256"
        }
      ],
      "name": "createEvent",
      "outputs": [],
      "payable": false,
      "stateMutability": "nonpayable",
      "type": "function"
    },
    {
      "constant": true,
      "inputs": [
        {
          "name": "eventId",
          "type": "string"
        }
      ],
      "name": "getEvent",
      "outputs": [
        {
          "name": "",
          "type": "address"
        }
      ],
      "payable": false,
      "stateMutability": "view",
      "type": "function"
    },
    {
      "constant": true,
      "inputs": [],
      "name": "getEventsSize",
      "outputs": [
        {
          "name": "",
          "type": "uint256"
        }
      ],
      "payable": false,
      "stateMutability": "view",
      "type": "function"
    }
  ],
  "bytecode": "0x60806040523480156200001157600080fd5b5060405162001d9338038062001d93833981018060405260408110156200003757600080fd5b8101908080516401000000008111156200005057600080fd5b820160208101848111156200006457600080fd5b81516401000000008111828201871017156200007f57600080fd5b5050602091820151600d805433600160a060020a031991821617909155600f8054909116600160a060020a03831617905581519194509250620000c99160109190850190620000d2565b50505062000177565b828054600181600116156101000203166002900490600052602060002090601f016020900481019282601f106200011557805160ff191683800117855562000145565b8280016001018555821562000145579182015b828111156200014557825182559160200191906001019062000128565b506200015392915062000157565b5090565b6200017491905b808211156200015357600081556001016200015e565b90565b611c0c80620001876000396000f3fe60806040526004361061012e5763ffffffff60e060020a60003504166238a5b5811461013357806306adb7d3146101e857806308f7a6cc1461020f5780630b4f3f3d146102995780630cfcdf801461034a57806313af403514610373578063232a6b9d146103a6578063238ac933146103bb5780632fb1b25f146103ec5780633f9942ff146104165780634a8beaf41461042b57806351ff4847146104dc5780635296ad56146104f157806357ac264e146105065780636bee1e1b1461051b57806372c97e7f146106db5780638525855d14610705578063aaf6c7401461071a578063af640d0f146107cb578063cb07a4ac146107e0578063cf09e0d0146107f5578063d5f394881461080a578063db6f02811461081f578063de4cd84214610834578063e1902063146109f1575b600080fd5b34801561013f57600080fd5b506101e66004803603604081101561015657600080fd5b810190602081018135602060020a81111561017057600080fd5b82018360208201111561018257600080fd5b803590602001918460018302840111602060020a831117156101a357600080fd5b91908080601f0160208091040260200160405190810160405280939291908181526020018383808284376000920191909152509295505091359250610aa2915050565b005b3480156101f457600080fd5b506101fd610b20565b60408051918252519081900360200190f35b34801561021b57600080fd5b50610224610b26565b6040805160208082528351818301528351919283929083019185019080838360005b8381101561025e578181015183820152602001610246565b50505050905090810190601f16801561028b5780820380516001836020036101000a031916815260200191505b509250505060405180910390f35b3480156102a557600080fd5b506101e6600480360360208110156102bc57600080fd5b810190602081018135602060020a8111156102d657600080fd5b8201836020820111156102e857600080fd5b803590602001918460018302840111602060020a8311171561030957600080fd5b91908080601f016020809104026020016040519081016040528093929190818152602001838380828437600092019190915250929550610bb4945050505050565b34801561035657600080fd5b5061035f610ca2565b604080519115158252519081900360200190f35b34801561037f57600080fd5b506101e66004803603602081101561039657600080fd5b5035600160a060020a0316610cb1565b3480156103b257600080fd5b5061035f610d37565b3480156103c757600080fd5b506103d0610d40565b60408051600160a060020a039092168252519081900360200190f35b3480156103f857600080fd5b506101e66004803603602081101561040f57600080fd5b5035610d4f565b34801561042257600080fd5b5061035f610e67565b34801561043757600080fd5b506101e66004803603602081101561044e57600080fd5b810190602081018135602060020a81111561046857600080fd5b82018360208201111561047a57600080fd5b803590602001918460018302840111602060020a8311171561049b57600080fd5b91908080601f016020809104026020016040519081016040528093929190818152602001838380828437600092019190915250929550610e75945050505050565b3480156104e857600080fd5b506103d0610f6c565b3480156104fd57600080fd5b50610224610f7b565b34801561051257600080fd5b506101fd610fd6565b34801561052757600080fd5b506101e6600480360360a081101561053e57600080fd5b810190602081018135602060020a81111561055857600080fd5b82018360208201111561056a57600080fd5b803590602001918460018302840111602060020a8311171561058b57600080fd5b91908080601f0160208091040260200160405190810160405280939291908181526020018383808284376000920191909152509295949360208101935035915050602060020a8111156105dd57600080fd5b8201836020820111156105ef57600080fd5b803590602001918460018302840111602060020a8311171561061057600080fd5b91908080601f0160208091040260200160405190810160405280939291908181526020018383808284376000920191909152509295949360208101935035915050602060020a81111561066257600080fd5b82018360208201111561067457600080fd5b803590602001918460018302840111602060020a8311171561069557600080fd5b91908080601f0160208091040260200160405190810160405280939291908181526020018383808284376000920191909152509295505082359350505060200135610fdd565b3480156106e757600080fd5b50610224600480360360208110156106fe57600080fd5b503561137b565b34801561071157600080fd5b506103d06113ef565b34801561072657600080fd5b506101e66004803603602081101561073d57600080fd5b810190602081018135602060020a81111561075757600080fd5b82018360208201111561076957600080fd5b803590602001918460018302840111602060020a8311171561078a57600080fd5b91908080601f016020809104026020016040519081016040528093929190818152602001838380828437600092019190915250929550611405945050505050565b3480156107d757600080fd5b50610224611480565b3480156107ec57600080fd5b506102246114db565b34801561080157600080fd5b506101fd611536565b34801561081657600080fd5b506103d061153c565b34801561082b57600080fd5b5061022461154b565b34801561084057600080fd5b506101e66004803603608081101561085757600080fd5b810190602081018135602060020a81111561087157600080fd5b82018360208201111561088357600080fd5b803590602001918460018302840111602060020a831117156108a457600080fd5b91908080601f0160208091040260200160405190810160405280939291908181526020018383808284376000920191909152509295949360208101935035915050602060020a8111156108f657600080fd5b82018360208201111561090857600080fd5b803590602001918460018302840111602060020a8311171561092957600080fd5b91908080601f0160208091040260200160405190810160405280939291908181526020018383808284376000920191909152509295949360208101935035915050602060020a81111561097b57600080fd5b82018360208201111561098d57600080fd5b803590602001918460018302840111602060020a831117156109ae57600080fd5b91908080601f01602080910402602001604051908101604052809392919081815260200183838082843760009201919091525092955050913592506115a6915050565b3480156109fd57600080fd5b506103d060048036036020811015610a1457600080fd5b810190602081018135602060020a811115610a2e57600080fd5b820183602082011115610a4057600080fd5b803590602001918460018302840111602060020a83111715610a6157600080fd5b91908080601f016020809104026020016040519081016040528093929190818152602001838380828437600092019190915250929550611982945050505050565b600d54600160a060020a03163314610b06576040805160e560020a62461bcd0281526020600482015260326024820152600080516020611bc18339815191526044820152600080516020611b61833981519152606482015290519081900360840190fd5b8151610b19906012906020850190611ac8565b5060175550565b60165481565b6011805460408051602060026001851615610100026000190190941693909304601f81018490048402820184019092528181529291830182828015610bac5780601f10610b8157610100808354040283529160200191610bac565b820191906000526020600020905b815481529060010190602001808311610b8f57829003601f168201915b505050505081565b600d54600160a060020a03163314610c18576040805160e560020a62461bcd0281526020600482015260326024820152600080516020611bc18339815191526044820152600080516020611b61833981519152606482015290519081900360840190fd5b60185460ff1615610c7c576040805160e560020a62461bcd02815260206004820152602f6024820152600080516020611ba18339815191526044820152608a60020a6e18d85b89dd0818d85b98d95b081a5d02606482015290519081900360840190fd5b8051610c8f906011906020840190611ac8565b50506018805461ff001916610100179055565b60185462010000900460ff1681565b600d54600160a060020a03163314610d15576040805160e560020a62461bcd0281526020600482015260326024820152600080516020611bc18339815191526044820152600080516020611b61833981519152606482015290519081900360840190fd5b600e8054600160a060020a031916600160a060020a0392909216919091179055565b60185460ff1681565b600e54600160a060020a031681565b600e54600160a060020a03163314610db9576040805160e560020a62461bcd02815260206004820152602e6024820152600080516020611b818339815191526044820152609160020a6d3936903a3434b99030b1ba34b7b702606482015290519081900360840190fd5b60185462010000900460ff161580610dd95750601854610100900460ff16155b1515610e55576040805160e560020a62461bcd02815260206004820152603b60248201527f446f63756d656e7420697320616c7265616479206465636c696e6564206f722060448201527f63616e63656c65642c20796f752063616e2774207369676e2069740000000000606482015290519081900360840190fd5b6016556018805460ff19166001179055565b601854610100900460ff1681565b600e54600160a060020a03163314610edf576040805160e560020a62461bcd02815260206004820152602e6024820152600080516020611b818339815191526044820152609160020a6d3936903a3434b99030b1ba34b7b702606482015290519081900360840190fd5b60185460ff1615610f44576040805160e560020a62461bcd0281526020600482015260306024820152600080516020611ba18339815191526044820152608260020a6f18d85b89dd08191958db1a5b99481a5d02606482015290519081900360840190fd5b8051610f57906013906020840190611ac8565b50506018805462ff0000191662010000179055565b600d54600160a060020a031681565b6013805460408051602060026001851615610100026000190190941693909304601f81018490048402820184019092528181529291830182828015610bac5780601f10610b8157610100808354040283529160200191610bac565b6015545b90565b600d54600160a060020a03163314611041576040805160e560020a62461bcd0281526020600482015260326024820152600080516020611bc18339815191526044820152600080516020611b61833981519152606482015290519081900360840190fd5b600f54604051602060248201818152885160448401528851600094606094600160a060020a03909116938b93928392606401918501908083838b5b8381101561109457818101518382015260200161107c565b50505050905090810190601f1680156110c15780820380516001836020036101000a031916815260200191505b5060408051601f19818403018152918152602082018051600160e060020a031660e160020a63548b880902178152905182519295509350839250908083835b6020831061111f5780518252601f199092019160209182019101611100565b6001836020036101000a038019825116818451168082178552505050505050905001915050600060405180830381855af49150503d806000811461117f576040519150601f19603f3d011682016040523d82523d6000602084013e611184565b606091505b50915091508115156111f4576040805160e560020a62461bcd02815260206004820152602860248201527f4572726f72207768696c65206465706c6f79696e672066696c652066726f6d20604482015260c260020a67191bd8dd5b595b9d02606482015290519081900360840190fd5b6111fd81611ac1565b601860036101000a815481600160a060020a030219169083600160a060020a03160217905550601860039054906101000a9004600160a060020a0316600160a060020a03166387c80464878787876040518563ffffffff1660e060020a028152600401808060200180602001858152602001848152602001838103835287818151815260200191508051906020019080838360005b838110156112aa578181015183820152602001611292565b50505050905090810190601f1680156112d75780820380516001836020036101000a031916815260200191505b50838103825286518152865160209182019188019080838360005b8381101561130a5781810151838201526020016112f2565b50505050905090810190601f1680156113375780820380516001836020036101000a031916815260200191505b509650505050505050600060405180830381600087803b15801561135a57600080fd5b505af115801561136e573d6000803e3d6000fd5b5050505050505050505050565b601580548290811061138957fe5b600091825260209182902001805460408051601f6002600019610100600187161502019094169390930492830185900485028101850190915281815293509091830182828015610bac5780601f10610b8157610100808354040283529160200191610bac565b60185463010000009004600160a060020a031681565b600d54600160a060020a03163314611469576040805160e560020a62461bcd0281526020600482015260326024820152600080516020611bc18339815191526044820152600080516020611b61833981519152606482015290519081900360840190fd5b805161147c906014906020840190611ac8565b5050565b6010805460408051602060026001851615610100026000190190941693909304601f81018490048402820184019092528181529291830182828015610bac5780601f10610b8157610100808354040283529160200191610bac565b6014805460408051602060026001851615610100026000190190941693909304601f81018490048402820184019092528181529291830182828015610bac5780601f10610b8157610100808354040283529160200191610bac565b60175481565b600f54600160a060020a031681565b6012805460408051602060026001851615610100026000190190941693909304601f81018490048402820184019092528181529291830182828015610bac5780601f10610b8157610100808354040283529160200191610bac565b600d54600160a060020a0316331461160a576040805160e560020a62461bcd0281526020600482015260326024820152600080516020611bc18339815191526044820152600080516020611b61833981519152606482015290519081900360840190fd5b60006060600f60009054906101000a9004600160a060020a0316600160a060020a03168686868660405160240180806020018060200180602001858152602001848103845288818151815260200191508051906020019080838360005b8381101561167f578181015183820152602001611667565b50505050905090810190601f1680156116ac5780820380516001836020036101000a031916815260200191505b50848103835287518152875160209182019189019080838360005b838110156116df5781810151838201526020016116c7565b50505050905090810190601f16801561170c5780820380516001836020036101000a031916815260200191505b50848103825286518152865160209182019188019080838360005b8381101561173f578181015183820152602001611727565b50505050905090810190601f16801561176c5780820380516001836020036101000a031916815260200191505b5060408051601f19818403018152918152602082018051600160e060020a031660e060020a63f776d03b0217815290518251929a509850889750955093508392508591508490505b602083106117d35780518252601f1990920191602091820191016117b4565b6001836020036101000a038019825116818451168082178552505050505050905001915050600060405180830381855af49150503d8060008114611833576040519150601f19603f3d011682016040523d82523d6000602084013e611838565b606091505b50915091508115156118a9576040805160e560020a62461bcd02815260206004820152602960248201527f4572726f72207768696c65206465706c6f79696e67206576656e742066726f6d604482015260ba60020a6808191bd8dd5b595b9d02606482015290519081900360840190fd5b6118b281611ac1565b6019876040518082805190602001908083835b602083106118e45780518252601f1990920191602091820191016118c5565b51815160209384036101000a60001901801990921691161790529201948552506040519384900381019093208054600160a060020a031916600160a060020a0395909516949094179093555060158054600181018083556000929092528951919350611978927f55f448fdea98c4d29eb340757ef0a66cd03dbb9538908a6a81d96026b71ec47590910191908a0190611ac8565b5050505050505050565b600080600160a060020a03166019836040518082805190602001908083835b602083106119c05780518252601f1990920191602091820191016119a1565b51815160209384036101000a6000190180199092169116179052920194855250604051938490030190922054600160a060020a031692909214159150611a529050576040805160e560020a62461bcd02815260206004820152601760248201527f546865206576656e7420646f65736e2774206578697374000000000000000000604482015290519081900360640190fd5b6019826040518082805190602001908083835b60208310611a845780518252601f199092019160209182019101611a65565b51815160209384036101000a6000190180199092169116179052920194855250604051938490030190922054600160a060020a0316949350505050565b6020015190565b828054600181600116156101000203166002900490600052602060002090601f016020900481019282601f10611b0957805160ff1916838001178555611b36565b82800160010185558215611b36579182015b82811115611b36578251825591602001919060010190611b1b565b50611b42929150611b46565b5090565b610fda91905b80821115611b425760008155600101611b4c56fe6572666f726d207468697320616374696f6e00000000000000000000000000004f6e6c7920746865206f776e6572206163636f756e742063616e20706572666f446f63756d656e7420697320616c7265616479207369676e65642c20796f75204f6e6c7920746865205369676e6174757265206163636f756e742063616e2070a165627a7a723058207501cb9c21ded22a7479be5b81a71c400ab8d63751eff082a1718c0dc35cf4690029",
  "source": "pragma solidity <0.6.0;\n\n/*\nGas to deploy: 1.949.100\n*/\n\nimport \"./interfaces/DocumentInterface.sol\";\nimport \"./interfaces/FileInterface.sol\";\nimport \"./interfaces/EventInterface.sol\";\nimport \"./libraries/Utils.sol\";\n\n\ncontract Document is DocumentInterface {\n    address public signature;\n    address public signer;\n    address public deployer;\n\n    string public id;\n    string public cancelReason;\n    string public signatureType;\n    string public declineReason;\n    string public signedFileHash;\n\n    string[] public eventsId;\n\n    uint public signedAt;\n    uint public createdAt;\n\n    bool public signed;\n    bool public canceled;\n    bool public declined;\n\n    FileInterface public file;\n\n    mapping(string => EventInterface) private events;\n\n    constructor(\n        string memory documentId,\n        address signatureDeployer\n    ) public {\n        signature = msg.sender;\n        deployer = signatureDeployer;\n        id = documentId;\n    }\n\n    modifier signatureOnly() {\n        require(\n            msg.sender == signature,\n            \"Only the Signature account can perform this action\"\n        );\n\n        _;\n    }\n\n    modifier signerOnly() {\n        require(\n            msg.sender == signer,\n            \"Only the owner account can perform this action\"\n        );\n\n        _;\n    }\n\n    function init(\n        string memory initType,\n        uint documentCreatedAt\n    )\n        public\n        signatureOnly\n    {\n        signatureType = initType;\n        createdAt = documentCreatedAt;\n    }\n\n    function setOwner(\n        address signerAddress\n    )\n        public\n        signatureOnly\n    {\n        signer = signerAddress;\n    }\n\n    function sign(\n        uint documentSignedAt\n    )\n        public\n        signerOnly\n    {\n        require(\n            !declined || !canceled,\n            \"Document is already declined or canceled, you can't sign it\"\n        );\n\n        signedAt = documentSignedAt;\n\n        signed = true;\n    }\n\n    function decline(\n        string memory documentDeclineReason\n    )\n        public\n        signerOnly\n    {\n        require(\n            !signed,\n            \"Document is already signed, you can't decline it\"\n        );\n\n        declineReason = documentDeclineReason;\n\n        declined = true;\n    }\n\n    function cancel(\n        string memory documentCancelReason\n    )\n        public\n        signatureOnly\n    {\n        require(\n            !signed,\n            \"Document is already signed, you can't cancel it\"\n        );\n\n        cancelReason = documentCancelReason;\n\n        canceled = true;\n    }\n\n    function createFile(\n        string memory fileId,\n        string memory fileName,\n        string memory fileHash,\n        uint fileCreatedAt,\n        uint fileSize\n    )\n        public\n        signatureOnly\n    {\n        (bool success, bytes memory returnData) = deployer.delegatecall(\n            abi.encodeWithSignature(\n                \"deployFile(string)\",\n                fileId\n            )\n        );\n\n        require(\n            success,\n            \"Error while deploying file from document\"\n        );\n\n        file = FileInterface(Utils._bytesToAddress(returnData));\n\n        file.init(\n                fileName,\n                fileHash,\n                fileCreatedAt,\n                fileSize\n        );\n    }\n\n    function setFileHash(\n        string memory fileHash\n    )\n        public\n        signatureOnly\n    {\n        signedFileHash = fileHash;\n    }\n\n    function createEvent(\n        string memory eventId,\n        string memory eventType,\n        string memory eventUserAgent,\n        uint eventCreatedAt\n    )\n        public\n        signatureOnly\n    {\n        (bool success, bytes memory returnData) = deployer.delegatecall(\n            abi.encodeWithSignature(\n                \"deployEvent(string,string,string,uint256)\",\n                eventId,\n                eventType,\n                eventUserAgent,\n                eventCreatedAt\n            )\n        );\n\n        require(\n            success,\n            \"Error while deploying event from document\"\n        );\n\n        events[eventId] = EventInterface(Utils._bytesToAddress(returnData));\n\n        eventsId.push(eventId);\n    }\n\n    function getEvent(\n        string memory eventId\n    )\n        public\n        view\n        returns (address)\n    {\n        require(\n            address(events[eventId]) != address(0),\n            \"The event doesn't exist\"\n        );\n\n        return address(events[eventId]);\n    }\n\n    function getEventsSize()\n        public\n        view\n        returns (uint)\n    {\n        return eventsId.length;\n    }\n}\n",
  "sourcePath": "/Users/alex/workspace/signaturit-solidity-contracts/contracts/Document.sol",
  "compiler": {
    "name": "solc",
    "version": "0.5.0+commit.1d4f565a.Emscripten.clang"
  },
  "schemaVersion": "3.0.13",
  "updatedAt": "2019-10-10T12:55:24.734Z",
  "devdoc": {
    "methods": {}
  },
  "userdoc": {
    "methods": {}
  }
}