{
  "contractName": "Document",
  "abi": [
    {
      "constant": true,
      "inputs": [],
      "name": "signedAt",
      "outputs": [
        {
          "name": "",
          "type": "uint256"
        }
      ],
      "payable": false,
      "stateMutability": "view",
      "type": "function"
    },
    {
      "constant": true,
      "inputs": [],
      "name": "cancelReason",
      "outputs": [
        {
          "name": "",
          "type": "string"
        }
      ],
      "payable": false,
      "stateMutability": "view",
      "type": "function"
    },
    {
      "constant": true,
      "inputs": [],
      "name": "declined",
      "outputs": [
        {
          "name": "",
          "type": "bool"
        }
      ],
      "payable": false,
      "stateMutability": "view",
      "type": "function"
    },
    {
      "constant": true,
      "inputs": [],
      "name": "signatureOwner",
      "outputs": [
        {
          "name": "",
          "type": "address"
        }
      ],
      "payable": false,
      "stateMutability": "view",
      "type": "function"
    },
    {
      "constant": true,
      "inputs": [],
      "name": "signed",
      "outputs": [
        {
          "name": "",
          "type": "bool"
        }
      ],
      "payable": false,
      "stateMutability": "view",
      "type": "function"
    },
    {
      "constant": true,
      "inputs": [],
      "name": "signer",
      "outputs": [
        {
          "name": "",
          "type": "address"
        }
      ],
      "payable": false,
      "stateMutability": "view",
      "type": "function"
    },
    {
      "constant": true,
      "inputs": [],
      "name": "canceled",
      "outputs": [
        {
          "name": "",
          "type": "bool"
        }
      ],
      "payable": false,
      "stateMutability": "view",
      "type": "function"
    },
    {
      "constant": true,
      "inputs": [],
      "name": "signature",
      "outputs": [
        {
          "name": "",
          "type": "address"
        }
      ],
      "payable": false,
      "stateMutability": "view",
      "type": "function"
    },
    {
      "constant": true,
      "inputs": [],
      "name": "declineReason",
      "outputs": [
        {
          "name": "",
          "type": "string"
        }
      ],
      "payable": false,
      "stateMutability": "view",
      "type": "function"
    },
    {
      "constant": true,
      "inputs": [
        {
          "name": "",
          "type": "uint256"
        }
      ],
      "name": "eventsId",
      "outputs": [
        {
          "name": "",
          "type": "string"
        }
      ],
      "payable": false,
      "stateMutability": "view",
      "type": "function"
    },
    {
      "constant": true,
      "inputs": [],
      "name": "file",
      "outputs": [
        {
          "name": "",
          "type": "address"
        }
      ],
      "payable": false,
      "stateMutability": "view",
      "type": "function"
    },
    {
      "constant": true,
      "inputs": [],
      "name": "id",
      "outputs": [
        {
          "name": "",
          "type": "string"
        }
      ],
      "payable": false,
      "stateMutability": "view",
      "type": "function"
    },
    {
      "constant": true,
      "inputs": [],
      "name": "signedFileHash",
      "outputs": [
        {
          "name": "",
          "type": "string"
        }
      ],
      "payable": false,
      "stateMutability": "view",
      "type": "function"
    },
    {
      "constant": true,
      "inputs": [],
      "name": "createdAt",
      "outputs": [
        {
          "name": "",
          "type": "uint256"
        }
      ],
      "payable": false,
      "stateMutability": "view",
      "type": "function"
    },
    {
      "constant": true,
      "inputs": [],
      "name": "deployer",
      "outputs": [
        {
          "name": "",
          "type": "address"
        }
      ],
      "payable": false,
      "stateMutability": "view",
      "type": "function"
    },
    {
      "constant": true,
      "inputs": [],
      "name": "signatureType",
      "outputs": [
        {
          "name": "",
          "type": "string"
        }
      ],
      "payable": false,
      "stateMutability": "view",
      "type": "function"
    },
    {
      "inputs": [
        {
          "name": "documentId",
          "type": "string"
        },
        {
          "name": "signatureDeployer",
          "type": "address"
        }
      ],
      "payable": false,
      "stateMutability": "nonpayable",
      "type": "constructor"
    },
    {
      "constant": false,
      "inputs": [
        {
          "name": "initType",
          "type": "string"
        },
        {
          "name": "documentCreatedAt",
          "type": "uint256"
        }
      ],
      "name": "init",
      "outputs": [],
      "payable": false,
      "stateMutability": "nonpayable",
      "type": "function"
    },
    {
      "constant": false,
      "inputs": [
        {
          "name": "signatureOwnerAdr",
          "type": "address"
        }
      ],
      "name": "setSignatureOwner",
      "outputs": [],
      "payable": false,
      "stateMutability": "nonpayable",
      "type": "function"
    },
    {
      "constant": false,
      "inputs": [
        {
          "name": "signerAddress",
          "type": "address"
        }
      ],
      "name": "setOwner",
      "outputs": [],
      "payable": false,
      "stateMutability": "nonpayable",
      "type": "function"
    },
    {
      "constant": false,
      "inputs": [
        {
          "name": "documentSignedAt",
          "type": "uint256"
        }
      ],
      "name": "sign",
      "outputs": [],
      "payable": false,
      "stateMutability": "nonpayable",
      "type": "function"
    },
    {
      "constant": false,
      "inputs": [
        {
          "name": "documentDeclineReason",
          "type": "string"
        }
      ],
      "name": "decline",
      "outputs": [],
      "payable": false,
      "stateMutability": "nonpayable",
      "type": "function"
    },
    {
      "constant": false,
      "inputs": [
        {
          "name": "documentCancelReason",
          "type": "string"
        }
      ],
      "name": "cancel",
      "outputs": [],
      "payable": false,
      "stateMutability": "nonpayable",
      "type": "function"
    },
    {
      "constant": false,
      "inputs": [
        {
          "name": "fileId",
          "type": "string"
        },
        {
          "name": "fileName",
          "type": "string"
        },
        {
          "name": "fileHash",
          "type": "string"
        },
        {
          "name": "fileCreatedAt",
          "type": "uint256"
        },
        {
          "name": "fileSize",
          "type": "uint256"
        }
      ],
      "name": "createFile",
      "outputs": [],
      "payable": false,
      "stateMutability": "nonpayable",
      "type": "function"
    },
    {
      "constant": false,
      "inputs": [
        {
          "name": "fileHash",
          "type": "string"
        }
      ],
      "name": "setFileHash",
      "outputs": [],
      "payable": false,
      "stateMutability": "nonpayable",
      "type": "function"
    },
    {
      "constant": false,
      "inputs": [
        {
          "name": "eventId",
          "type": "string"
        },
        {
          "name": "eventType",
          "type": "string"
        },
        {
          "name": "eventUserAgent",
          "type": "string"
        },
        {
          "name": "eventCreatedAt",
          "type": "uint256"
        }
      ],
      "name": "createEvent",
      "outputs": [],
      "payable": false,
      "stateMutability": "nonpayable",
      "type": "function"
    },
    {
      "constant": true,
      "inputs": [
        {
          "name": "eventId",
          "type": "string"
        }
      ],
      "name": "getEvent",
      "outputs": [
        {
          "name": "",
          "type": "address"
        }
      ],
      "payable": false,
      "stateMutability": "view",
      "type": "function"
    },
    {
      "constant": true,
      "inputs": [],
      "name": "getEventsSize",
      "outputs": [
        {
          "name": "",
          "type": "uint256"
        }
      ],
      "payable": false,
      "stateMutability": "view",
      "type": "function"
    }
  ],
  "bytecode": "0x60806040523480156200001157600080fd5b50604051620024ff380380620024ff833981018060405260408110156200003757600080fd5b8101908080516401000000008111156200005057600080fd5b820160208101848111156200006457600080fd5b81516401000000008111828201871017156200007f57600080fd5b5050602091820151600d805433600160a060020a031991821617909155600f8054909116600160a060020a03831617905581519194509250620000c99160109190850190620000d2565b50505062000177565b828054600181600116156101000203166002900490600052602060002090601f016020900481019282601f106200011557805160ff191683800117855562000145565b8280016001018555821562000145579182015b828111156200014557825182559160200191906001019062000128565b506200015392915062000157565b5090565b6200017491905b808211156200015357600081556001016200015e565b90565b61237880620001876000396000f3fe6080604052600436106101445763ffffffff60e060020a60003504166238a5b5811461014957806306adb7d3146101fe57806308f7a6cc146102255780630b4f3f3d146102af5780630cfcdf80146103605780631087452c1461038957806313af4035146103ba578063232a6b9d146103ed578063238ac933146104025780632fb1b25f146104175780633f9942ff146104415780634a8beaf41461045657806351ff4847146105075780635296ad561461051c57806357ac264e146105315780636bee1e1b1461054657806372c97e7f146107065780638525855d14610730578063aaf6c74014610745578063acf635b9146107f6578063af640d0f14610829578063cb07a4ac1461083e578063cf09e0d014610853578063d5f3948814610868578063db6f02811461087d578063de4cd84214610892578063e190206314610a4f575b600080fd5b34801561015557600080fd5b506101fc6004803603604081101561016c57600080fd5b810190602081018135602060020a81111561018657600080fd5b82018360208201111561019857600080fd5b803590602001918460018302840111602060020a831117156101b957600080fd5b91908080601f0160208091040260200160405190810160405280939291908181526020018383808284376000920191909152509295505091359250610b00915050565b005b34801561020a57600080fd5b50610213610b95565b60408051918252519081900360200190f35b34801561023157600080fd5b5061023a610b9b565b6040805160208082528351818301528351919283929083019185019080838360005b8381101561027457818101518382015260200161025c565b50505050905090810190601f1680156102a15780820380516001836020036101000a031916815260200191505b509250505060405180910390f35b3480156102bb57600080fd5b506101fc600480360360208110156102d257600080fd5b810190602081018135602060020a8111156102ec57600080fd5b8201836020820111156102fe57600080fd5b803590602001918460018302840111602060020a8311171561031f57600080fd5b91908080601f016020809104026020016040519081016040528093929190818152602001838380828437600092019190915250929550610c29945050505050565b34801561036c57600080fd5b50610375610dbb565b604080519115158252519081900360200190f35b34801561039557600080fd5b5061039e610dca565b60408051600160a060020a039092168252519081900360200190f35b3480156103c657600080fd5b506101fc600480360360208110156103dd57600080fd5b5035600160a060020a0316610dd9565b3480156103f957600080fd5b50610375610e76565b34801561040e57600080fd5b5061039e610e7f565b34801561042357600080fd5b506101fc6004803603602081101561043a57600080fd5b5035610e8e565b34801561044d57600080fd5b5061037561102f565b34801561046257600080fd5b506101fc6004803603602081101561047957600080fd5b810190602081018135602060020a81111561049357600080fd5b8201836020820111156104a557600080fd5b803590602001918460018302840111602060020a831117156104c657600080fd5b91908080601f01602080910402602001604051908101604052809392919081815260200183838082843760009201919091525092955061103d945050505050565b34801561051357600080fd5b5061039e6111be565b34801561052857600080fd5b5061023a6111cd565b34801561053d57600080fd5b50610213611228565b34801561055257600080fd5b506101fc600480360360a081101561056957600080fd5b810190602081018135602060020a81111561058357600080fd5b82018360208201111561059557600080fd5b803590602001918460018302840111602060020a831117156105b657600080fd5b91908080601f0160208091040260200160405190810160405280939291908181526020018383808284376000920191909152509295949360208101935035915050602060020a81111561060857600080fd5b82018360208201111561061a57600080fd5b803590602001918460018302840111602060020a8311171561063b57600080fd5b91908080601f0160208091040260200160405190810160405280939291908181526020018383808284376000920191909152509295949360208101935035915050602060020a81111561068d57600080fd5b82018360208201111561069f57600080fd5b803590602001918460018302840111602060020a831117156106c057600080fd5b91908080601f016020809104026020016040519081016040528093929190818152602001838380828437600092019190915250929550508235935050506020013561122f565b34801561071257600080fd5b5061023a6004803603602081101561072957600080fd5b503561165d565b34801561073c57600080fd5b5061039e6116d1565b34801561075157600080fd5b506101fc6004803603602081101561076857600080fd5b810190602081018135602060020a81111561078257600080fd5b82018360208201111561079457600080fd5b803590602001918460018302840111602060020a831117156107b557600080fd5b91908080601f0160208091040260200160405190810160405280939291908181526020018383808284376000920191909152509295506116e7945050505050565b34801561080257600080fd5b506101fc6004803603602081101561081957600080fd5b5035600160a060020a0316611808565b34801561083557600080fd5b5061023a6118a5565b34801561084a57600080fd5b5061023a611900565b34801561085f57600080fd5b5061021361195b565b34801561087457600080fd5b5061039e611961565b34801561088957600080fd5b5061023a611970565b34801561089e57600080fd5b506101fc600480360360808110156108b557600080fd5b810190602081018135602060020a8111156108cf57600080fd5b8201836020820111156108e157600080fd5b803590602001918460018302840111602060020a8311171561090257600080fd5b91908080601f0160208091040260200160405190810160405280939291908181526020018383808284376000920191909152509295949360208101935035915050602060020a81111561095457600080fd5b82018360208201111561096657600080fd5b803590602001918460018302840111602060020a8311171561098757600080fd5b91908080601f0160208091040260200160405190810160405280939291908181526020018383808284376000920191909152509295949360208101935035915050602060020a8111156109d957600080fd5b8201836020820111156109eb57600080fd5b803590602001918460018302840111602060020a83111715610a0c57600080fd5b91908080601f01602080910402602001604051908101604052809392919081815260200183838082843760009201919091525092955050913592506119cb915050565b348015610a5b57600080fd5b5061039e60048036036020811015610a7257600080fd5b810190602081018135602060020a811115610a8c57600080fd5b820183602082011115610a9e57600080fd5b803590602001918460018302840111602060020a83111715610abf57600080fd5b91908080601f016020809104026020016040519081016040528093929190818152602001838380828437600092019190915250929550611e92945050505050565b600d54600160a060020a0316331480610b235750600e54600160a060020a031633145b1515610b7b576040805160e560020a62461bcd028152602060048201526032602482015260008051602061232d83398151915260448201526000805160206122cd833981519152606482015290519081900360840190fd5b8151610b8e906012906020850190612234565b5060175550565b60165481565b6011805460408051602060026001851615610100026000190190941693909304601f81018490048402820184019092528181529291830182828015610c215780601f10610bf657610100808354040283529160200191610c21565b820191906000526020600020905b815481529060010190602001808311610c0457829003601f168201915b505050505081565b600d54600160a060020a0316331480610c4c5750600e54600160a060020a031633145b1515610ca4576040805160e560020a62461bcd028152602060048201526032602482015260008051602061232d83398151915260448201526000805160206122cd833981519152606482015290519081900360840190fd5b60185460ff1615610d08576040805160e560020a62461bcd02815260206004820152602f602482015260008051602061230d8339815191526044820152608a60020a6e18d85b89dd0818d85b98d95b081a5d02606482015290519081900360840190fd5b8051610d1b906011906020840190612234565b506018805461ff00191661010017905560408051808201825260148152606260020a731a5917d91bd8dd5b595b9d17d8d85b98d95b19590260208083019190915282518084018452601a81527f646f63756d656e742e636f6e74726163742e63616e63656c65640000000000008183015283518085019094526008845260c060020a67736f6c69646974790291840191909152610db892426119cb565b50565b60185462010000900460ff1681565b601954600160a060020a031681565b600d54600160a060020a0316331480610dfc5750600e54600160a060020a031633145b1515610e54576040805160e560020a62461bcd028152602060048201526032602482015260008051602061232d83398151915260448201526000805160206122cd833981519152606482015290519081900360840190fd5b600e8054600160a060020a031916600160a060020a0392909216919091179055565b60185460ff1681565b600e54600160a060020a031681565b600e54600160a060020a03163314610ef8576040805160e560020a62461bcd02815260206004820152602e60248201526000805160206122ed8339815191526044820152609160020a6d3936903a3434b99030b1ba34b7b702606482015290519081900360840190fd5b60185462010000900460ff161580610f185750601854610100900460ff16155b1515610f94576040805160e560020a62461bcd02815260206004820152603b60248201527f446f63756d656e7420697320616c7265616479206465636c696e6564206f722060448201527f63616e63656c65642c20796f752063616e2774207369676e2069740000000000606482015290519081900360840190fd5b60168190556018805460ff1916600117815560408051808201825260128152607260020a711a5917d91bd8dd5b595b9d17dcda59db995902602080830191909152825180840184529384527f646f63756d656e742e636f6e74726163742e7369676e656400000000000000008482015282518084019093526008835260c060020a67736f6c69646974790290830152610db8929091426119cb565b601854610100900460ff1681565b600e54600160a060020a031633146110a7576040805160e560020a62461bcd02815260206004820152602e60248201526000805160206122ed8339815191526044820152609160020a6d3936903a3434b99030b1ba34b7b702606482015290519081900360840190fd5b60185460ff161561110c576040805160e560020a62461bcd028152602060048201526030602482015260008051602061230d8339815191526044820152608260020a6f18d85b89dd08191958db1a5b99481a5d02606482015290519081900360840190fd5b805161111f906013906020840190612234565b506018805462ff000019166201000017905560408051808201825260148152606260020a731a5917d91bd8dd5b595b9d17d91958db1a5b99590260208083019190915282518084018452601a81527f646f63756d656e742e636f6e74726163742e6465636c696e65640000000000008183015283518085019094526008845260c060020a67536f6c69646974790291840191909152610db892426119cb565b600d54600160a060020a031681565b6013805460408051602060026001851615610100026000190190941693909304601f81018490048402820184019092528181529291830182828015610c215780601f10610bf657610100808354040283529160200191610c21565b6015545b90565b600d54600160a060020a03163314806112525750600e54600160a060020a031633145b15156112aa576040805160e560020a62461bcd028152602060048201526032602482015260008051602061232d83398151915260448201526000805160206122cd833981519152606482015290519081900360840190fd5b600f54604051602060248201818152885160448401528851600094606094600160a060020a03909116938b93928392606401918501908083838b5b838110156112fd5781810151838201526020016112e5565b50505050905090810190601f16801561132a5780820380516001836020036101000a031916815260200191505b5060408051601f19818403018152918152602082018051600160e060020a031660e160020a63548b880902178152905182519295509350839250908083835b602083106113885780518252601f199092019160209182019101611369565b6001836020036101000a038019825116818451168082178552505050505050905001915050600060405180830381855af49150503d80600081146113e8576040519150601f19603f3d011682016040523d82523d6000602084013e6113ed565b606091505b509150915081151561145d576040805160e560020a62461bcd02815260206004820152602860248201527f4572726f72207768696c65206465706c6f79696e672066696c652066726f6d20604482015260c260020a67191bd8dd5b595b9d02606482015290519081900360840190fd5b61146681611fd1565b601860036101000a815481600160a060020a030219169083600160a060020a03160217905550601860039054906101000a9004600160a060020a0316600160a060020a03166387c80464878787876040518563ffffffff1660e060020a028152600401808060200180602001858152602001848152602001838103835287818151815260200191508051906020019080838360005b838110156115135781810151838201526020016114fb565b50505050905090810190601f1680156115405780820380516001836020036101000a031916815260200191505b50838103825286518152865160209182019188019080838360005b8381101561157357818101518382015260200161155b565b50505050905090810190601f1680156115a05780820380516001836020036101000a031916815260200191505b509650505050505050600060405180830381600087803b1580156115c357600080fd5b505af11580156115d7573d6000803e3d6000fd5b505050506116546040805190810160405280600e8152602001609060020a6d66696c652d6e6f7469666965727302815250604080519081016040528060158152602001605a60020a74199a5b194b98dbdb9d1c9858dd0b98dc99585d195902815250601860039054906101000a9004600160a060020a0316611fd8565b50505050505050565b601580548290811061166b57fe5b600091825260209182902001805460408051601f6002600019610100600187161502019094169390930492830185900485028101850190915281815293509091830182828015610c215780601f10610bf657610100808354040283529160200191610c21565b60185463010000009004600160a060020a031681565b600d54600160a060020a031633148061170a5750600e54600160a060020a031633145b1515611762576040805160e560020a62461bcd028152602060048201526032602482015260008051602061232d83398151915260448201526000805160206122cd833981519152606482015290519081900360840190fd5b8051611775906014906020840190612234565b50610db8604080519081016040528060138152602001606b60020a720d2c8beccd2d8cabee6d2cedccac8bed0c2e6d028152506040805190810160405280601881526020017f66696c652e7369676e65645f686173682e63726561746564000000000000000081525060408051908101604052806008815260200160c060020a67736f6c696469747902815250426119cb565b600d54600160a060020a031633148061182b5750600e54600160a060020a031633145b1515611883576040805160e560020a62461bcd028152602060048201526032602482015260008051602061232d83398151915260448201526000805160206122cd833981519152606482015290519081900360840190fd5b60198054600160a060020a031916600160a060020a0392909216919091179055565b6010805460408051602060026001851615610100026000190190941693909304601f81018490048402820184019092528181529291830182828015610c215780601f10610bf657610100808354040283529160200191610c21565b6014805460408051602060026001851615610100026000190190941693909304601f81018490048402820184019092528181529291830182828015610c215780601f10610bf657610100808354040283529160200191610c21565b60175481565b600f54600160a060020a031681565b6012805460408051602060026001851615610100026000190190941693909304601f81018490048402820184019092528181529291830182828015610c215780601f10610bf657610100808354040283529160200191610c21565b600d54600160a060020a03163314806119ee5750600e54600160a060020a031633145b1515611a46576040805160e560020a62461bcd028152602060048201526032602482015260008051602061232d83398151915260448201526000805160206122cd833981519152606482015290519081900360840190fd5b60006060600f60009054906101000a9004600160a060020a0316600160a060020a03168686868660405160240180806020018060200180602001858152602001848103845288818151815260200191508051906020019080838360005b83811015611abb578181015183820152602001611aa3565b50505050905090810190601f168015611ae85780820380516001836020036101000a031916815260200191505b50848103835287518152875160209182019189019080838360005b83811015611b1b578181015183820152602001611b03565b50505050905090810190601f168015611b485780820380516001836020036101000a031916815260200191505b50848103825286518152865160209182019188019080838360005b83811015611b7b578181015183820152602001611b63565b50505050905090810190601f168015611ba85780820380516001836020036101000a031916815260200191505b5060408051601f19818403018152918152602082018051600160e060020a031660e060020a63f776d03b0217815290518251929a509850889750955093508392508591508490505b60208310611c0f5780518252601f199092019160209182019101611bf0565b6001836020036101000a038019825116818451168082178552505050505050905001915050600060405180830381855af49150503d8060008114611c6f576040519150601f19603f3d011682016040523d82523d6000602084013e611c74565b606091505b5091509150811515611ce5576040805160e560020a62461bcd02815260206004820152602960248201527f4572726f72207768696c65206465706c6f79696e67206576656e742066726f6d604482015260ba60020a6808191bd8dd5b595b9d02606482015290519081900360840190fd5b611cee81611fd1565b601a876040518082805190602001908083835b60208310611d205780518252601f199092019160209182019101611d01565b51815160209384036101000a60001901801990921691161790529201948552506040519384900381019093208054600160a060020a031916600160a060020a0395909516949094179093555060158054600181018083556000929092528951919350611db4927f55f448fdea98c4d29eb340757ef0a66cd03dbb9538908a6a81d96026b71ec47590910191908a0190612234565b5050611e8a6040805190810160405280600f8152602001608860020a6e6576656e742d6e6f74696669657273028152506040805190810160405280601681526020017f6576656e742e636f6e74726163742e6372656174656400000000000000000000815250601a896040518082805190602001908083835b60208310611e4c5780518252601f199092019160209182019101611e2d565b51815160209384036101000a6000190180199092169116179052920194855250604051938490030190922054600160a060020a03169150611fd89050565b505050505050565b600080600160a060020a0316601a836040518082805190602001908083835b60208310611ed05780518252601f199092019160209182019101611eb1565b51815160209384036101000a6000190180199092169116179052920194855250604051938490030190922054600160a060020a031692909214159150611f629050576040805160e560020a62461bcd02815260206004820152601760248201527f546865206576656e7420646f65736e2774206578697374000000000000000000604482015290519081900360640190fd5b601a826040518082805190602001908083835b60208310611f945780518252601f199092019160209182019101611f75565b51815160209384036101000a6000190180199092169116179052920194855250604051938490030190922054600160a060020a0316949350505050565b6020015190565b6000805b6019546040805160e260020a633ce8989d0281526024810184905260048101918252875160448201528751600160a060020a039093169263f3a262749289928692829160640190602086019080838360005b8381101561204657818101518382015260200161202e565b50505050905090810190601f1680156120735780820380516001836020036101000a031916815260200191505b50935050505060206040518083038186803b15801561209157600080fd5b505afa1580156120a5573d6000803e3d6000fd5b505050506040513d60208110156120bb57600080fd5b50519150600101600160a060020a0382161561221d5760408051600160a060020a038581166044830152602482019283528651606483015286519085169287928792829160840190602086019080838360005b8381101561212657818101518382015260200161210e565b50505050905090810190601f1680156121535780820380516001836020036101000a031916815260200191505b5060408051601f19818403018152918152602082018051600160e060020a031660e160020a63738f32bb0217815290518251929650945084935091508083835b602083106121b25780518252601f199092019160209182019101612193565b6001836020036101000a0380198251168184511680821785525050505050509050019150506000604051808303816000865af19150503d8060008114612214576040519150601f19603f3d011682016040523d82523d6000602084013e612219565b606091505b5050505b600160a060020a0382161515611fdc575050505050565b828054600181600116156101000203166002900490600052602060002090601f016020900481019282601f1061227557805160ff19168380011785556122a2565b828001600101855582156122a2579182015b828111156122a2578251825591602001919060010190612287565b506122ae9291506122b2565b5090565b61122c91905b808211156122ae57600081556001016122b856fe6572666f726d207468697320616374696f6e00000000000000000000000000004f6e6c7920746865206f776e6572206163636f756e742063616e20706572666f446f63756d656e7420697320616c7265616479207369676e65642c20796f75204f6e6c7920746865205369676e6174757265206163636f756e742063616e2070a165627a7a72305820415b620e59f0c5b58844b46503b0e1c18077f03bcaaa308b452229b8a75510040029",
  "source": "pragma solidity <0.6.0;\n\n/*\nGas to deploy: 2.094.931\n*/\n\nimport \"./interfaces/DocumentInterface.sol\";\nimport \"./interfaces/FileInterface.sol\";\nimport \"./interfaces/EventInterface.sol\";\nimport \"./interfaces/SignaturitUserInterface.sol\";\nimport \"./libraries/Utils.sol\";\n\n\ncontract Document is DocumentInterface {\n    string constant private FILE_CREATED_EVENT = \"file.contract.created\";\n    string constant private EVENT_CREATED_EVENT = \"event.contract.created\";\n\n    string constant private ID_DOCUMENT_SIGNED = \"id_document_signed\";\n    string constant private ID_FILE_SIGNED_HASH = \"id_file_signed_hash\";\n    string constant private ID_DOCUMENT_DECLINED = \"id_document_declined\";\n    string constant private ID_DOCUMENT_CANCELED = \"id_document_canceled\";\n\n    string constant private DOCUMENT_SIGNED_EVENT = \"document.contract.signed\";\n    string constant private FILE_SIGNED_HASH_EVENT = \"file.signed_hash.created\";\n    string constant private DOCUMENT_DECLINED_EVENT = \"document.contract.declined\";\n    string constant private DOCUMENT_CANCELED_EVENT = \"document.contract.canceled\";\n\n    string constant private DOCUMENT_NOTIFIERS_KEY = \"document-notifiers\";\n    string constant private FILE_NOTIFIERS_KEY = \"file-notifiers\";\n    string constant private EVENT_NOTIFIERS_KEY = \"event-notifiers\";\n\n    address public signature;\n    address public signer;\n    address public deployer;\n\n    string public id;\n    string public cancelReason;\n    string public signatureType;\n    string public declineReason;\n    string public signedFileHash;\n\n    string[] public eventsId;\n\n    uint public signedAt;\n    uint public createdAt;\n\n    bool public signed;\n    bool public canceled;\n    bool public declined;\n\n    FileInterface public file;\n\n    SignaturitUserInterface public signatureOwner;\n\n    mapping(string => EventInterface) private events;\n\n    constructor(\n        string memory documentId,\n        address signatureDeployer\n    ) public {\n        signature = msg.sender;\n        deployer = signatureDeployer;\n        id = documentId;\n    }\n\n    modifier protected() {\n        require(\n            msg.sender == signature || msg.sender == signer,\n            \"Only the Signature account can perform this action\"\n        );\n\n        _;\n    }\n\n    modifier signerOnly() {\n        require(\n            msg.sender == signer,\n            \"Only the owner account can perform this action\"\n        );\n\n        _;\n    }\n\n    function init(\n        string memory initType,\n        uint documentCreatedAt\n    )\n        public\n        protected\n    {\n        signatureType = initType;\n        createdAt = documentCreatedAt;\n    }\n\n    function setSignatureOwner(\n        address signatureOwnerAdr\n    )\n        public\n        protected\n    {\n        signatureOwner = SignaturitUserInterface(signatureOwnerAdr);\n    }\n\n    function setOwner(\n        address signerAddress\n    )\n        public\n        protected\n    {\n        signer = signerAddress;\n    }\n\n    function sign(\n        uint documentSignedAt\n    )\n        public\n        signerOnly\n    {\n        require(\n            !declined || !canceled,\n            \"Document is already declined or canceled, you can't sign it\"\n        );\n\n        signedAt = documentSignedAt;\n\n        signed = true;\n            \n        createEvent(\n            ID_DOCUMENT_SIGNED,\n            DOCUMENT_SIGNED_EVENT,\n            \"solidity\",\n            block.timestamp\n        );\n    }\n\n    function decline(\n        string memory documentDeclineReason\n    )\n        public\n        signerOnly\n    {\n        require(\n            !signed,\n            \"Document is already signed, you can't decline it\"\n        );\n\n        declineReason = documentDeclineReason;\n\n        declined = true;\n\n        createEvent(\n            ID_DOCUMENT_DECLINED,\n            DOCUMENT_DECLINED_EVENT,\n            \"Solidity\",\n            block.timestamp\n        );\n    }\n\n    function cancel(\n        string memory documentCancelReason\n    )\n        public\n        protected\n    {\n        require(\n            !signed,\n            \"Document is already signed, you can't cancel it\"\n        );\n\n        cancelReason = documentCancelReason;\n\n        canceled = true;\n\n        createEvent(\n            ID_DOCUMENT_CANCELED,\n            DOCUMENT_CANCELED_EVENT,\n            \"solidity\",\n            block.timestamp\n        );\n    }\n\n    function createFile(\n        string memory fileId,\n        string memory fileName,\n        string memory fileHash,\n        uint fileCreatedAt,\n        uint fileSize\n    )\n        public\n        protected\n    {\n        (bool success, bytes memory returnData) = deployer.delegatecall(\n            abi.encodeWithSignature(\n                \"deployFile(string)\",\n                fileId\n            )\n        );\n\n        require(\n            success,\n            \"Error while deploying file from document\"\n        );\n\n        file = FileInterface(Utils._bytesToAddress(returnData));\n\n        file.init(\n                fileName,\n                fileHash,\n                fileCreatedAt,\n                fileSize\n        );\n\n        notifyEntityEvent(FILE_NOTIFIERS_KEY, FILE_CREATED_EVENT, address(file));\n    }\n\n    function setFileHash(\n        string memory fileHash\n    )\n        public\n        protected\n    {\n        signedFileHash = fileHash;\n\n        createEvent(\n            ID_FILE_SIGNED_HASH,\n            FILE_SIGNED_HASH_EVENT,\n            \"solidity\",\n            block.timestamp\n        );\n    }\n\n    function createEvent(\n        string memory eventId,\n        string memory eventType,\n        string memory eventUserAgent,\n        uint eventCreatedAt\n    )\n        public\n        protected\n    {\n        (bool success, bytes memory returnData) = deployer.delegatecall(\n            abi.encodeWithSignature(\n                \"deployEvent(string,string,string,uint256)\",\n                eventId,\n                eventType,\n                eventUserAgent,\n                eventCreatedAt\n            )\n        );\n\n        require(\n            success,\n            \"Error while deploying event from document\"\n        );\n\n        events[eventId] = EventInterface(Utils._bytesToAddress(returnData));\n\n        eventsId.push(eventId);\n\n        notifyEntityEvent(EVENT_NOTIFIERS_KEY, EVENT_CREATED_EVENT, address(events[eventId]));\n    }\n\n    function notifyEntityEvent (\n        string memory notifiersKey,\n        string memory createdEvent,\n        address adrToNotify\n    )\n        internal\n    {\n        address contractToNofify;\n        uint notificationIndex = 0;\n\n        do {\n            contractToNofify = signatureOwner.getAddressArrayAttribute(notifiersKey, notificationIndex);\n            ++notificationIndex;\n\n            if (contractToNofify != address(0)) {\n                contractToNofify.call(\n                    abi.encodeWithSignature(\n                        \"notify(string,address)\",\n                        createdEvent,\n                        adrToNotify\n                    )\n                );\n            }\n        } while (contractToNofify != address(0));\n    }\n\n    function getEvent(\n        string memory eventId\n    )\n        public\n        view\n        returns (address)\n    {\n        require(\n            address(events[eventId]) != address(0),\n            \"The event doesn't exist\"\n        );\n\n        return address(events[eventId]);\n    }\n\n    function getEventsSize()\n        public\n        view\n        returns (uint)\n    {\n        return eventsId.length;\n    }\n}\n",
  "sourcePath": "/home/administrator/workspace/signaturit-solidity-contracts/contracts/Document.sol",
  "compiler": {
    "name": "solc",
    "version": "0.5.0+commit.1d4f565a.Emscripten.clang"
  },
  "schemaVersion": "2.0.3",
  "updatedAt": "2020-01-15T10:55:50.264Z"
}