{
  "contractName": "Document",
  "abi": [
    {
      "constant": true,
      "inputs": [],
      "name": "signedAt",
      "outputs": [
        {
          "internalType": "uint256",
          "name": "",
          "type": "uint256"
        }
      ],
      "payable": false,
      "stateMutability": "view",
      "type": "function"
    },
    {
      "constant": true,
      "inputs": [],
      "name": "cancelReason",
      "outputs": [
        {
          "internalType": "string",
          "name": "",
          "type": "string"
        }
      ],
      "payable": false,
      "stateMutability": "view",
      "type": "function"
    },
    {
      "constant": true,
      "inputs": [],
      "name": "declined",
      "outputs": [
        {
          "internalType": "bool",
          "name": "",
          "type": "bool"
        }
      ],
      "payable": false,
      "stateMutability": "view",
      "type": "function"
    },
    {
      "constant": true,
      "inputs": [],
      "name": "signed",
      "outputs": [
        {
          "internalType": "bool",
          "name": "",
          "type": "bool"
        }
      ],
      "payable": false,
      "stateMutability": "view",
      "type": "function"
    },
    {
      "constant": true,
      "inputs": [],
      "name": "signer",
      "outputs": [
        {
          "internalType": "address",
          "name": "",
          "type": "address"
        }
      ],
      "payable": false,
      "stateMutability": "view",
      "type": "function"
    },
    {
      "constant": true,
      "inputs": [],
      "name": "canceled",
      "outputs": [
        {
          "internalType": "bool",
          "name": "",
          "type": "bool"
        }
      ],
      "payable": false,
      "stateMutability": "view",
      "type": "function"
    },
    {
      "constant": true,
      "inputs": [],
      "name": "signature",
      "outputs": [
        {
          "internalType": "address",
          "name": "",
          "type": "address"
        }
      ],
      "payable": false,
      "stateMutability": "view",
      "type": "function"
    },
    {
      "constant": true,
      "inputs": [],
      "name": "declineReason",
      "outputs": [
        {
          "internalType": "string",
          "name": "",
          "type": "string"
        }
      ],
      "payable": false,
      "stateMutability": "view",
      "type": "function"
    },
    {
      "constant": true,
      "inputs": [
        {
          "internalType": "uint256",
          "name": "",
          "type": "uint256"
        }
      ],
      "name": "eventsId",
      "outputs": [
        {
          "internalType": "string",
          "name": "",
          "type": "string"
        }
      ],
      "payable": false,
      "stateMutability": "view",
      "type": "function"
    },
    {
      "constant": true,
      "inputs": [],
      "name": "file",
      "outputs": [
        {
          "internalType": "contract FileInterface",
          "name": "",
          "type": "address"
        }
      ],
      "payable": false,
      "stateMutability": "view",
      "type": "function"
    },
    {
      "constant": true,
      "inputs": [],
      "name": "id",
      "outputs": [
        {
          "internalType": "string",
          "name": "",
          "type": "string"
        }
      ],
      "payable": false,
      "stateMutability": "view",
      "type": "function"
    },
    {
      "constant": true,
      "inputs": [],
      "name": "signedFileHash",
      "outputs": [
        {
          "internalType": "string",
          "name": "",
          "type": "string"
        }
      ],
      "payable": false,
      "stateMutability": "view",
      "type": "function"
    },
    {
      "constant": true,
      "inputs": [],
      "name": "createdAt",
      "outputs": [
        {
          "internalType": "uint256",
          "name": "",
          "type": "uint256"
        }
      ],
      "payable": false,
      "stateMutability": "view",
      "type": "function"
    },
    {
      "constant": true,
      "inputs": [],
      "name": "deployer",
      "outputs": [
        {
          "internalType": "address",
          "name": "",
          "type": "address"
        }
      ],
      "payable": false,
      "stateMutability": "view",
      "type": "function"
    },
    {
      "constant": true,
      "inputs": [],
      "name": "signatureType",
      "outputs": [
        {
          "internalType": "string",
          "name": "",
          "type": "string"
        }
      ],
      "payable": false,
      "stateMutability": "view",
      "type": "function"
    },
    {
      "inputs": [
        {
          "internalType": "string",
          "name": "documentId",
          "type": "string"
        },
        {
          "internalType": "address",
          "name": "signatureDeployer",
          "type": "address"
        }
      ],
      "payable": false,
      "stateMutability": "nonpayable",
      "type": "constructor"
    },
    {
      "constant": false,
      "inputs": [
        {
          "internalType": "string",
          "name": "initType",
          "type": "string"
        },
        {
          "internalType": "uint256",
          "name": "documentCreatedAt",
          "type": "uint256"
        }
      ],
      "name": "init",
      "outputs": [],
      "payable": false,
      "stateMutability": "nonpayable",
      "type": "function"
    },
    {
      "constant": false,
      "inputs": [
        {
          "internalType": "address",
          "name": "signerAddress",
          "type": "address"
        }
      ],
      "name": "setOwner",
      "outputs": [],
      "payable": false,
      "stateMutability": "nonpayable",
      "type": "function"
    },
    {
      "constant": false,
      "inputs": [
        {
          "internalType": "uint256",
          "name": "documentSignedAt",
          "type": "uint256"
        }
      ],
      "name": "sign",
      "outputs": [],
      "payable": false,
      "stateMutability": "nonpayable",
      "type": "function"
    },
    {
      "constant": false,
      "inputs": [
        {
          "internalType": "string",
          "name": "documentDeclineReason",
          "type": "string"
        }
      ],
      "name": "decline",
      "outputs": [],
      "payable": false,
      "stateMutability": "nonpayable",
      "type": "function"
    },
    {
      "constant": false,
      "inputs": [
        {
          "internalType": "string",
          "name": "documentCancelReason",
          "type": "string"
        }
      ],
      "name": "cancel",
      "outputs": [],
      "payable": false,
      "stateMutability": "nonpayable",
      "type": "function"
    },
    {
      "constant": false,
      "inputs": [
        {
          "internalType": "string",
          "name": "fileId",
          "type": "string"
        },
        {
          "internalType": "string",
          "name": "fileName",
          "type": "string"
        },
        {
          "internalType": "string",
          "name": "fileHash",
          "type": "string"
        },
        {
          "internalType": "uint256",
          "name": "fileCreatedAt",
          "type": "uint256"
        },
        {
          "internalType": "uint256",
          "name": "fileSize",
          "type": "uint256"
        }
      ],
      "name": "createFile",
      "outputs": [],
      "payable": false,
      "stateMutability": "nonpayable",
      "type": "function"
    },
    {
      "constant": false,
      "inputs": [
        {
          "internalType": "string",
          "name": "fileHash",
          "type": "string"
        }
      ],
      "name": "setFileHash",
      "outputs": [],
      "payable": false,
      "stateMutability": "nonpayable",
      "type": "function"
    },
    {
      "constant": false,
      "inputs": [
        {
          "internalType": "string",
          "name": "eventId",
          "type": "string"
        },
        {
          "internalType": "string",
          "name": "eventType",
          "type": "string"
        },
        {
          "internalType": "string",
          "name": "eventUserAgent",
          "type": "string"
        },
        {
          "internalType": "uint256",
          "name": "eventCreatedAt",
          "type": "uint256"
        }
      ],
      "name": "createEvent",
      "outputs": [],
      "payable": false,
      "stateMutability": "nonpayable",
      "type": "function"
    },
    {
      "constant": true,
      "inputs": [
        {
          "internalType": "string",
          "name": "eventId",
          "type": "string"
        }
      ],
      "name": "getEvent",
      "outputs": [
        {
          "internalType": "contract EventInterface",
          "name": "",
          "type": "address"
        }
      ],
      "payable": false,
      "stateMutability": "view",
      "type": "function"
    },
    {
      "constant": true,
      "inputs": [],
      "name": "getEventsSize",
      "outputs": [
        {
          "internalType": "uint256",
          "name": "",
          "type": "uint256"
        }
      ],
      "payable": false,
      "stateMutability": "view",
      "type": "function"
    }
  ],
  "bytecode": "0x60806040523480156200001157600080fd5b5060405162001bb138038062001bb1833981810160405260408110156200003757600080fd5b81019080805160405193929190846401000000008211156200005857600080fd5b9083019060208201858111156200006e57600080fd5b82516401000000008111828201881017156200008957600080fd5b82525081516020918201929091019080838360005b83811015620000b85781810151838201526020016200009e565b50505050905090810190601f168015620000e65780820380516001836020036101000a031916815260200191505b50604052602090810151600d8054336001600160a01b031991821617909155600f80549091166001600160a01b038316179055845190935062000130925060109185019062000139565b505050620001de565b828054600181600116156101000203166002900490600052602060002090601f016020900481019282601f106200017c57805160ff1916838001178555620001ac565b82800160010185558215620001ac579182015b82811115620001ac5782518255916020019190600101906200018f565b50620001ba929150620001be565b5090565b620001db91905b80821115620001ba5760008155600101620001c5565b90565b6119c380620001ee6000396000f3fe608060405234801561001057600080fd5b50600436106101325760003560e01c806238a5b51461013757806306adb7d3146101df57806308f7a6cc146101f95780630b4f3f3d146102765780630cfcdf801461031a57806313af403514610336578063232a6b9d1461035c578063238ac933146103645780632fb1b25f146103885780633f9942ff146103a55780634a8beaf4146103ad57806351ff4847146104515780635296ad561461045957806357ac264e146104615780636bee1e1b1461046957806372c97e7f1461061c5780638525855d14610639578063aaf6c74014610641578063af640d0f146106e5578063cb07a4ac146106ed578063cf09e0d0146106f5578063d5f39488146106fd578063db6f028114610705578063de4cd8421461070d578063e1902063146108bd575b600080fd5b6101dd6004803603604081101561014d57600080fd5b810190602081018135600160201b81111561016757600080fd5b82018360208201111561017957600080fd5b803590602001918460018302840111600160201b8311171561019a57600080fd5b91908080601f0160208091040260200160405190810160405280939291908181526020018383808284376000920191909152509295505091359250610961915050565b005b6101e76109c4565b60408051918252519081900360200190f35b6102016109ca565b6040805160208082528351818301528351919283929083019185019080838360005b8381101561023b578181015183820152602001610223565b50505050905090810190601f1680156102685780820380516001836020036101000a031916815260200191505b509250505060405180910390f35b6101dd6004803603602081101561028c57600080fd5b810190602081018135600160201b8111156102a657600080fd5b8201836020820111156102b857600080fd5b803590602001918460018302840111600160201b831117156102d957600080fd5b91908080601f016020809104026020016040519081016040528093929190818152602001838380828437600092019190915250929550610a58945050505050565b610322610b09565b604080519115158252519081900360200190f35b6101dd6004803603602081101561034c57600080fd5b50356001600160a01b0316610b18565b610322610b83565b61036c610b8c565b604080516001600160a01b039092168252519081900360200190f35b6101dd6004803603602081101561039e57600080fd5b5035610b9b565b610322610c51565b6101dd600480360360208110156103c357600080fd5b810190602081018135600160201b8111156103dd57600080fd5b8201836020820111156103ef57600080fd5b803590602001918460018302840111600160201b8311171561041057600080fd5b91908080601f016020809104026020016040519081016040528093929190818152602001838380828437600092019190915250929550610c5f945050505050565b61036c610d12565b610201610d21565b6101e7610d7c565b6101dd600480360360a081101561047f57600080fd5b810190602081018135600160201b81111561049957600080fd5b8201836020820111156104ab57600080fd5b803590602001918460018302840111600160201b831117156104cc57600080fd5b91908080601f0160208091040260200160405190810160405280939291908181526020018383808284376000920191909152509295949360208101935035915050600160201b81111561051e57600080fd5b82018360208201111561053057600080fd5b803590602001918460018302840111600160201b8311171561055157600080fd5b91908080601f0160208091040260200160405190810160405280939291908181526020018383808284376000920191909152509295949360208101935035915050600160201b8111156105a357600080fd5b8201836020820111156105b557600080fd5b803590602001918460018302840111600160201b831117156105d657600080fd5b91908080601f0160208091040260200160405190810160405280939291908181526020018383808284376000920191909152509295505082359350505060200135610d83565b6102016004803603602081101561063257600080fd5b50356110d1565b61036c611144565b6101dd6004803603602081101561065757600080fd5b810190602081018135600160201b81111561067157600080fd5b82018360208201111561068357600080fd5b803590602001918460018302840111600160201b831117156106a457600080fd5b91908080601f01602080910402602001604051908101604052809392919081815260200183838082843760009201919091525092955061115a945050505050565b6102016111ba565b610201611215565b6101e7611270565b61036c611276565b610201611285565b6101dd6004803603608081101561072357600080fd5b810190602081018135600160201b81111561073d57600080fd5b82018360208201111561074f57600080fd5b803590602001918460018302840111600160201b8311171561077057600080fd5b91908080601f0160208091040260200160405190810160405280939291908181526020018383808284376000920191909152509295949360208101935035915050600160201b8111156107c257600080fd5b8201836020820111156107d457600080fd5b803590602001918460018302840111600160201b831117156107f557600080fd5b91908080601f0160208091040260200160405190810160405280939291908181526020018383808284376000920191909152509295949360208101935035915050600160201b81111561084757600080fd5b82018360208201111561085957600080fd5b803590602001918460018302840111600160201b8311171561087a57600080fd5b91908080601f01602080910402602001604051908101604052809392919081815260200183838082843760009201919091525092955050913592506112e0915050565b61036c600480360360208110156108d357600080fd5b810190602081018135600160201b8111156108ed57600080fd5b8201836020820111156108ff57600080fd5b803590602001918460018302840111600160201b8311171561092057600080fd5b91908080601f01602080910402602001604051908101604052809392919081815260200183838082843760009201919091525092955061166e945050505050565b600d546001600160a01b031633146109aa5760405162461bcd60e51b81526004018080602001828103825260328152602001806118a16032913960400191505060405180910390fd5b81516109bd9060129060208501906117ab565b5060175550565b60165481565b6011805460408051602060026001851615610100026000190190941693909304601f81018490048402820184019092528181529291830182828015610a505780601f10610a2557610100808354040283529160200191610a50565b820191906000526020600020905b815481529060010190602001808311610a3357829003601f168201915b505050505081565b600d546001600160a01b03163314610aa15760405162461bcd60e51b81526004018080602001828103825260328152602001806118a16032913960400191505060405180910390fd5b60185460ff1615610ae35760405162461bcd60e51b815260040180806020018281038252602f815260200180611872602f913960400191505060405180910390fd5b8051610af69060119060208401906117ab565b50506018805461ff001916610100179055565b60185462010000900460ff1681565b600d546001600160a01b03163314610b615760405162461bcd60e51b81526004018080602001828103825260328152602001806118a16032913960400191505060405180910390fd5b600e80546001600160a01b0319166001600160a01b0392909216919091179055565b60185460ff1681565b600e546001600160a01b031681565b600e546001600160a01b03163314610be45760405162461bcd60e51b815260040180806020018281038252602e815260200180611844602e913960400191505060405180910390fd5b60185462010000900460ff161580610c045750601854610100900460ff16155b610c3f5760405162461bcd60e51b815260040180806020018281038252603b81526020018061192b603b913960400191505060405180910390fd5b6016556018805460ff19166001179055565b601854610100900460ff1681565b600e546001600160a01b03163314610ca85760405162461bcd60e51b815260040180806020018281038252602e815260200180611844602e913960400191505060405180910390fd5b60185460ff1615610cea5760405162461bcd60e51b81526004018080602001828103825260308152602001806118d36030913960400191505060405180910390fd5b8051610cfd9060139060208401906117ab565b50506018805462ff0000191662010000179055565b600d546001600160a01b031681565b6013805460408051602060026001851615610100026000190190941693909304601f81018490048402820184019092528181529291830182828015610a505780601f10610a2557610100808354040283529160200191610a50565b6015545b90565b600d546001600160a01b03163314610dcc5760405162461bcd60e51b81526004018080602001828103825260328152602001806118a16032913960400191505060405180910390fd5b600f546040516020602482018181528851604484015288516000946060946001600160a01b03909116938b93928392606401918501908083838b5b83811015610e1f578181015183820152602001610e07565b50505050905090810190601f168015610e4c5780820380516001836020036101000a031916815260200191505b5060408051601f198184030181529181526020820180516001600160e01b031663548b880960e11b178152905182519295509350839250908083835b60208310610ea75780518252601f199092019160209182019101610e88565b6001836020036101000a038019825116818451168082178552505050505050905001915050600060405180830381855af49150503d8060008114610f07576040519150601f19603f3d011682016040523d82523d6000602084013e610f0c565b606091505b509150915081610f4d5760405162461bcd60e51b81526004018080602001828103825260288152602001806119036028913960400191505060405180910390fd5b610f56816117a4565b601860036101000a8154816001600160a01b0302191690836001600160a01b03160217905550601860039054906101000a90046001600160a01b03166001600160a01b03166387c80464878787876040518563ffffffff1660e01b8152600401808060200180602001858152602001848152602001838103835287818151815260200191508051906020019080838360005b83811015611000578181015183820152602001610fe8565b50505050905090810190601f16801561102d5780820380516001836020036101000a031916815260200191505b50838103825286518152865160209182019188019080838360005b83811015611060578181015183820152602001611048565b50505050905090810190601f16801561108d5780820380516001836020036101000a031916815260200191505b509650505050505050600060405180830381600087803b1580156110b057600080fd5b505af11580156110c4573d6000803e3d6000fd5b5050505050505050505050565b601581815481106110de57fe5b600091825260209182902001805460408051601f6002600019610100600187161502019094169390930492830185900485028101850190915281815293509091830182828015610a505780601f10610a2557610100808354040283529160200191610a50565b601854630100000090046001600160a01b031681565b600d546001600160a01b031633146111a35760405162461bcd60e51b81526004018080602001828103825260328152602001806118a16032913960400191505060405180910390fd5b80516111b69060149060208401906117ab565b5050565b6010805460408051602060026001851615610100026000190190941693909304601f81018490048402820184019092528181529291830182828015610a505780601f10610a2557610100808354040283529160200191610a50565b6014805460408051602060026001851615610100026000190190941693909304601f81018490048402820184019092528181529291830182828015610a505780601f10610a2557610100808354040283529160200191610a50565b60175481565b600f546001600160a01b031681565b6012805460408051602060026001851615610100026000190190941693909304601f81018490048402820184019092528181529291830182828015610a505780601f10610a2557610100808354040283529160200191610a50565b600d546001600160a01b031633146113295760405162461bcd60e51b81526004018080602001828103825260328152602001806118a16032913960400191505060405180910390fd5b60006060600f60009054906101000a90046001600160a01b03166001600160a01b03168686868660405160240180806020018060200180602001858152602001848103845288818151815260200191508051906020019080838360005b8381101561139e578181015183820152602001611386565b50505050905090810190601f1680156113cb5780820380516001836020036101000a031916815260200191505b50848103835287518152875160209182019189019080838360005b838110156113fe5781810151838201526020016113e6565b50505050905090810190601f16801561142b5780820380516001836020036101000a031916815260200191505b50848103825286518152865160209182019188019080838360005b8381101561145e578181015183820152602001611446565b50505050905090810190601f16801561148b5780820380516001836020036101000a031916815260200191505b5060408051601f198184030181529181526020820180516001600160e01b031663f776d03b60e01b17815290518251929a509850889750955093508392508591508490505b602083106114ef5780518252601f1990920191602091820191016114d0565b6001836020036101000a038019825116818451168082178552505050505050905001915050600060405180830381855af49150503d806000811461154f576040519150601f19603f3d011682016040523d82523d6000602084013e611554565b606091505b5091509150816115955760405162461bcd60e51b81526004018080602001828103825260298152602001806119666029913960400191505060405180910390fd5b61159e816117a4565b6019876040518082805190602001908083835b602083106115d05780518252601f1990920191602091820191016115b1565b51815160209384036101000a600019018019909216911617905292019485525060405193849003810190932080546001600160a01b0319166001600160a01b0395909516949094179093555060158054600181018083556000929092528951919350611664927f55f448fdea98c4d29eb340757ef0a66cd03dbb9538908a6a81d96026b71ec47590910191908a01906117ab565b5050505050505050565b6000806001600160a01b03166019836040518082805190602001908083835b602083106116ac5780518252601f19909201916020918201910161168d565b51815160209384036101000a60001901801990921691161790529201948552506040519384900301909220546001600160a01b0316929092141591506117359050576040805162461bcd60e51b8152602060048201526017602482015276151a1948195d995b9d08191bd95cdb89dd08195e1a5cdd604a1b604482015290519081900360640190fd5b6019826040518082805190602001908083835b602083106117675780518252601f199092019160209182019101611748565b51815160209384036101000a60001901801990921691161790529201948552506040519384900301909220546001600160a01b0316949350505050565b6020015190565b828054600181600116156101000203166002900490600052602060002090601f016020900481019282601f106117ec57805160ff1916838001178555611819565b82800160010185558215611819579182015b828111156118195782518255916020019190600101906117fe565b50611825929150611829565b5090565b610d8091905b80821115611825576000815560010161182f56fe4f6e6c7920746865206f776e6572206163636f756e742063616e20706572666f726d207468697320616374696f6e446f63756d656e7420697320616c7265616479207369676e65642c20796f752063616e27742063616e63656c2069744f6e6c7920746865205369676e6174757265206163636f756e742063616e20706572666f726d207468697320616374696f6e446f63756d656e7420697320616c7265616479207369676e65642c20796f752063616e2774206465636c696e652069744572726f72207768696c65206465706c6f79696e672066696c652066726f6d20646f63756d656e74446f63756d656e7420697320616c7265616479206465636c696e6564206f722063616e63656c65642c20796f752063616e2774207369676e2069744572726f72207768696c65206465706c6f79696e67206576656e742066726f6d20646f63756d656e74a265627a7a723158206cabda97f5b4e96bf1ca920fa039185101c648511d3ca6bfc4ec832dc2b5994464736f6c634300050b0032",
  "source": "pragma solidity <0.6.0;\n\n/*\nGas to deploy: 1.949.100\n*/\n\nimport \"./interfaces/DocumentInterface.sol\";\nimport \"./interfaces/FileInterface.sol\";\nimport \"./interfaces/EventInterface.sol\";\nimport \"./libraries/Utils.sol\";\n\n\ncontract Document is DocumentInterface {\n    address public signature;\n    address public signer;\n    address public deployer;\n\n    string public id;\n    string public cancelReason;\n    string public signatureType;\n    string public declineReason;\n    string public signedFileHash;\n\n    string[] public eventsId;\n\n    uint public signedAt;\n    uint public createdAt;\n\n    bool public signed;\n    bool public canceled;\n    bool public declined;\n\n    FileInterface public file;\n\n    mapping(string => EventInterface) private events;\n\n    constructor(\n        string memory documentId,\n        address signatureDeployer\n    ) public {\n        signature = msg.sender;\n        deployer = signatureDeployer;\n        id = documentId;\n    }\n\n    modifier signatureOnly() {\n        require(\n            msg.sender == signature,\n            \"Only the Signature account can perform this action\"\n        );\n\n        _;\n    }\n\n    modifier signerOnly() {\n        require(\n            msg.sender == signer,\n            \"Only the owner account can perform this action\"\n        );\n\n        _;\n    }\n\n    function init(\n        string memory initType,\n        uint documentCreatedAt\n    )\n        public\n        signatureOnly\n    {\n        signatureType = initType;\n        createdAt = documentCreatedAt;\n    }\n\n    function setOwner(\n        address signerAddress\n    )\n        public\n        signatureOnly\n    {\n        signer = signerAddress;\n    }\n\n    function sign(\n        uint documentSignedAt\n    )\n        public\n        signerOnly\n    {\n        require(\n            !declined || !canceled,\n            \"Document is already declined or canceled, you can't sign it\"\n        );\n\n        signedAt = documentSignedAt;\n\n        signed = true;\n    }\n\n    function decline(\n        string memory documentDeclineReason\n    )\n        public\n        signerOnly\n    {\n        require(\n            !signed,\n            \"Document is already signed, you can't decline it\"\n        );\n\n        declineReason = documentDeclineReason;\n\n        declined = true;\n    }\n\n    function cancel(\n        string memory documentCancelReason\n    )\n        public\n        signatureOnly\n    {\n        require(\n            !signed,\n            \"Document is already signed, you can't cancel it\"\n        );\n\n        cancelReason = documentCancelReason;\n\n        canceled = true;\n    }\n\n    function createFile(\n        string memory fileId,\n        string memory fileName,\n        string memory fileHash,\n        uint fileCreatedAt,\n        uint fileSize\n    )\n        public\n        signatureOnly\n    {\n        (bool success, bytes memory returnData) = deployer.delegatecall(\n            abi.encodeWithSignature(\n                \"deployFile(string)\",\n                fileId\n            )\n        );\n\n        require(\n            success,\n            \"Error while deploying file from document\"\n        );\n\n        file = FileInterface(Utils._bytesToAddress(returnData));\n\n        file.init(\n                fileName,\n                fileHash,\n                fileCreatedAt,\n                fileSize\n        );\n    }\n\n    function setFileHash(\n        string memory fileHash\n    )\n        public\n        signatureOnly\n    {\n        signedFileHash = fileHash;\n    }\n\n    function createEvent(\n        string memory eventId,\n        string memory eventType,\n        string memory eventUserAgent,\n        uint eventCreatedAt\n    )\n        public\n        signatureOnly\n    {\n        (bool success, bytes memory returnData) = deployer.delegatecall(\n            abi.encodeWithSignature(\n                \"deployEvent(string,string,string,uint256)\",\n                eventId,\n                eventType,\n                eventUserAgent,\n                eventCreatedAt\n            )\n        );\n\n        require(\n            success,\n            \"Error while deploying event from document\"\n        );\n\n        events[eventId] = EventInterface(Utils._bytesToAddress(returnData));\n\n        eventsId.push(eventId);\n    }\n\n    function getEvent(\n        string memory eventId\n    )\n        public\n        view\n        returns (EventInterface)\n    {\n        require(\n            address(events[eventId]) != address(0),\n            \"The event doesn't exist\"\n        );\n\n        return events[eventId];\n    }\n\n    function getEventsSize()\n        public\n        view\n        returns (uint)\n    {\n        return eventsId.length;\n    }\n}\n",
  "sourcePath": "/home/administrator/workspace/signaturit-solidity-contracts/contracts/Document.sol",
  "compiler": {
    "name": "solc",
    "version": "0.5.11+commit.c082d0b4.Emscripten.clang"
  },
  "schemaVersion": "3.0.11",
  "updatedAt": "2019-08-29T15:50:01.437Z",
  "devdoc": {
    "methods": {}
  },
  "userdoc": {
    "methods": {}
  }
}