{
  "contractName": "Event",
  "abi": [
    {
      "constant": true,
      "inputs": [],
      "name": "evenType",
      "outputs": [
        {
          "name": "",
          "type": "string"
        }
      ],
      "payable": false,
      "stateMutability": "view",
      "type": "function"
    },
    {
      "constant": true,
      "inputs": [],
      "name": "id",
      "outputs": [
        {
          "name": "",
          "type": "string"
        }
      ],
      "payable": false,
      "stateMutability": "view",
      "type": "function"
    },
    {
      "constant": true,
      "inputs": [],
      "name": "userAgent",
      "outputs": [
        {
          "name": "",
          "type": "string"
        }
      ],
      "payable": false,
      "stateMutability": "view",
      "type": "function"
    },
    {
      "constant": true,
      "inputs": [],
      "name": "createdAt",
      "outputs": [
        {
          "name": "",
          "type": "uint256"
        }
      ],
      "payable": false,
      "stateMutability": "view",
      "type": "function"
    },
    {
      "constant": true,
      "inputs": [],
      "name": "eventType",
      "outputs": [
        {
          "name": "",
          "type": "string"
        }
      ],
      "payable": false,
      "stateMutability": "view",
      "type": "function"
    },
    {
      "inputs": [
        {
          "name": "eventId",
          "type": "string"
        },
        {
          "name": "initType",
          "type": "string"
        },
        {
          "name": "eventUserAgent",
          "type": "string"
        },
        {
          "name": "eventCreatedAt",
          "type": "uint256"
        }
      ],
      "payable": false,
      "stateMutability": "nonpayable",
      "type": "constructor"
    }
  ],
  "bytecode": "0x608060405234801561001057600080fd5b506040516105203803806105208339810180604052608081101561003357600080fd5b81019080805164010000000081111561004b57600080fd5b8201602081018481111561005e57600080fd5b815164010000000081118282018710171561007857600080fd5b5050929190602001805164010000000081111561009457600080fd5b820160208101848111156100a757600080fd5b81516401000000008111828201871017156100c157600080fd5b505092919060200180516401000000008111156100dd57600080fd5b820160208101848111156100f057600080fd5b815164010000000081118282018710171561010a57600080fd5b505060209182015186519194509250610129916004919087019061015e565b50825161013d90600190602086019061015e565b50815161015190600690602085019061015e565b50600755506101f9915050565b828054600181600116156101000203166002900490600052602060002090601f016020900481019282601f1061019f57805160ff19168380011785556101cc565b828001600101855582156101cc579182015b828111156101cc5782518255916020019190600101906101b1565b506101d89291506101dc565b5090565b6101f691905b808211156101d857600081556001016101e2565b90565b610318806102086000396000f3fe6080604052600436106100535763ffffffff60e060020a6000350416630b305f308114610058578063af640d0f146100e2578063bdf1c4a1146100f7578063cf09e0d01461010c578063d44b930014610133575b600080fd5b34801561006457600080fd5b5061006d610148565b6040805160208082528351818301528351919283929083019185019080838360005b838110156100a757818101518382015260200161008f565b50505050905090810190601f1680156100d45780820380516001836020036101000a031916815260200191505b509250505060405180910390f35b3480156100ee57600080fd5b5061006d6101d6565b34801561010357600080fd5b5061006d610231565b34801561011857600080fd5b5061012161028c565b60408051918252519081900360200190f35b34801561013f57600080fd5b5061006d610292565b6005805460408051602060026001851615610100026000190190941693909304601f810184900484028201840190925281815292918301828280156101ce5780601f106101a3576101008083540402835291602001916101ce565b820191906000526020600020905b8154815290600101906020018083116101b157829003601f168201915b505050505081565b6004805460408051602060026001851615610100026000190190941693909304601f810184900484028201840190925281815292918301828280156101ce5780601f106101a3576101008083540402835291602001916101ce565b6006805460408051602060026001851615610100026000190190941693909304601f810184900484028201840190925281815292918301828280156101ce5780601f106101a3576101008083540402835291602001916101ce565b60075481565b60018054604080516020600284861615610100026000190190941693909304601f810184900484028201840190925281815292918301828280156101ce5780601f106101a3576101008083540402835291602001916101ce56fea165627a7a72305820843ccb9c5ebf3d8ce7a66f58bb312a6f71adcd38c4ba47e1ac1166f8cd0801800029",
  "source": "pragma solidity <0.6.0;\n\n/*\nGas to deploy: 388.408\n*/\n\nimport \"./interfaces/EventInterface.sol\";\n\n\ncontract Event is EventInterface {\n    string public id;\n    string public evenType;\n    string public userAgent;\n\n    uint public createdAt;\n\n    constructor(\n        string memory eventId,\n        string memory initType,\n        string memory eventUserAgent,\n        uint eventCreatedAt\n    )\n        public\n    {\n        id = eventId;\n        eventType = initType;\n        userAgent = eventUserAgent;\n        createdAt = eventCreatedAt;\n    }\n}\n",
  "sourcePath": "/Users/alex/workspace/signaturit-solidity-contracts/contracts/Event.sol",
  "compiler": {
    "name": "solc",
    "version": "0.5.0+commit.1d4f565a.Emscripten.clang"
  },
  "schemaVersion": "3.0.13",
  "updatedAt": "2019-10-10T12:55:24.739Z",
  "devdoc": {
    "methods": {}
  },
  "userdoc": {
    "methods": {}
  }
}