{
  "contractName": "EventInterface",
  "abi": [
    {
      "constant": true,
      "inputs": [],
      "name": "id",
      "outputs": [
        {
          "name": "",
          "type": "string"
        }
      ],
      "payable": false,
      "stateMutability": "view",
      "type": "function"
    },
    {
      "constant": true,
      "inputs": [],
      "name": "userAgent",
      "outputs": [
        {
          "name": "",
          "type": "string"
        }
      ],
      "payable": false,
      "stateMutability": "view",
      "type": "function"
    },
    {
      "constant": true,
      "inputs": [],
      "name": "createdAt",
      "outputs": [
        {
          "name": "",
          "type": "uint256"
        }
      ],
      "payable": false,
      "stateMutability": "view",
      "type": "function"
    },
    {
      "constant": true,
      "inputs": [],
      "name": "eventType",
      "outputs": [
        {
          "name": "",
          "type": "string"
        }
      ],
      "payable": false,
      "stateMutability": "view",
      "type": "function"
    }
  ],
  "bytecode": "0x608060405234801561001057600080fd5b5061029a806100206000396000f3fe6080604052600436106100485763ffffffff60e060020a600035041663af640d0f811461004d578063bdf1c4a1146100d7578063cf09e0d0146100ec578063d44b930014610113575b600080fd5b34801561005957600080fd5b50610062610128565b6040805160208082528351818301528351919283929083019185019080838360005b8381101561009c578181015183820152602001610084565b50505050905090810190601f1680156100c95780820380516001836020036101000a031916815260200191505b509250505060405180910390f35b3480156100e357600080fd5b506100626101b6565b3480156100f857600080fd5b5061010161020e565b60408051918252519081900360200190f35b34801561011f57600080fd5b50610062610214565b6000805460408051602060026001851615610100026000190190941693909304601f810184900484028201840190925281815292918301828280156101ae5780601f10610183576101008083540402835291602001916101ae565b820191906000526020600020905b81548152906001019060200180831161019157829003601f168201915b505050505081565b6002805460408051602060018416156101000260001901909316849004601f810184900484028201840190925281815292918301828280156101ae5780601f10610183576101008083540402835291602001916101ae565b60035481565b60018054604080516020600284861615610100026000190190941693909304601f810184900484028201840190925281815292918301828280156101ae5780601f10610183576101008083540402835291602001916101ae56fea165627a7a72305820d93f290c14b9d2271450e17d046cadc9dae8423babd33359a21124c1c63d37a00029",
  "source": "pragma solidity <0.6.0;\n\n\ncontract EventInterface {\n    string public id;\n    string public eventType;\n    string public userAgent;\n    uint public createdAt;\n}\n",
  "sourcePath": "/home/administrator/workspace/signaturit-solidity-contracts/contracts/interfaces/EventInterface.sol",
  "compiler": {
    "name": "solc",
    "version": "0.5.0+commit.1d4f565a.Emscripten.clang"
  },
  "schemaVersion": "2.0.3",
  "updatedAt": "2020-01-15T10:55:50.249Z"
}