{
  "contractName": "File",
  "abi": [
    {
      "constant": true,
      "inputs": [],
      "name": "name",
      "outputs": [
        {
          "name": "",
          "type": "string"
        }
      ],
      "payable": false,
      "stateMutability": "view",
      "type": "function"
    },
    {
      "constant": true,
      "inputs": [],
      "name": "parent",
      "outputs": [
        {
          "name": "",
          "type": "address"
        }
      ],
      "payable": false,
      "stateMutability": "view",
      "type": "function"
    },
    {
      "constant": true,
      "inputs": [],
      "name": "size",
      "outputs": [
        {
          "name": "",
          "type": "uint256"
        }
      ],
      "payable": false,
      "stateMutability": "view",
      "type": "function"
    },
    {
      "constant": true,
      "inputs": [],
      "name": "id",
      "outputs": [
        {
          "name": "",
          "type": "string"
        }
      ],
      "payable": false,
      "stateMutability": "view",
      "type": "function"
    },
    {
      "constant": true,
      "inputs": [],
      "name": "originalFileHash",
      "outputs": [
        {
          "name": "",
          "type": "string"
        }
      ],
      "payable": false,
      "stateMutability": "view",
      "type": "function"
    },
    {
      "constant": true,
      "inputs": [],
      "name": "createdAt",
      "outputs": [
        {
          "name": "",
          "type": "uint256"
        }
      ],
      "payable": false,
      "stateMutability": "view",
      "type": "function"
    },
    {
      "inputs": [
        {
          "name": "fileId",
          "type": "string"
        }
      ],
      "payable": false,
      "stateMutability": "nonpayable",
      "type": "constructor"
    },
    {
      "constant": false,
      "inputs": [
        {
          "name": "fileName",
          "type": "string"
        },
        {
          "name": "fileHash",
          "type": "string"
        },
        {
          "name": "fileDate",
          "type": "uint256"
        },
        {
          "name": "fileSize",
          "type": "uint256"
        }
      ],
      "name": "init",
      "outputs": [],
      "payable": false,
      "stateMutability": "nonpayable",
      "type": "function"
    }
  ],
  "bytecode": "0x608060405234801561001057600080fd5b506040516107623803806107628339810180604052602081101561003357600080fd5b81019080805164010000000081111561004b57600080fd5b8201602081018481111561005e57600080fd5b815164010000000081118282018710171561007857600080fd5b5050805190935061009292506007915060208401906100ab565b505060068054600160a060020a03191633179055610146565b828054600181600116156101000203166002900490600052602060002090601f016020900481019282601f106100ec57805160ff1916838001178555610119565b82800160010185558215610119579182015b828111156101195782518255916020019190600101906100fe565b50610125929150610129565b5090565b61014391905b80821115610125576000815560010161012f565b90565b61060d806101556000396000f3fe6080604052600436106100695763ffffffff60e060020a60003504166306fdde03811461006e57806360f96a8f146100f857806387c8046414610129578063949d225d14610266578063af640d0f1461028d578063bce00f76146102a2578063cf09e0d0146102b7575b600080fd5b34801561007a57600080fd5b506100836102cc565b6040805160208082528351818301528351919283929083019185019080838360005b838110156100bd5781810151838201526020016100a5565b50505050905090810190601f1680156100ea5780820380516001836020036101000a031916815260200191505b509250505060405180910390f35b34801561010457600080fd5b5061010d61035a565b60408051600160a060020a039092168252519081900360200190f35b34801561013557600080fd5b506102646004803603608081101561014c57600080fd5b810190602081018135602060020a81111561016657600080fd5b82018360208201111561017857600080fd5b803590602001918460018302840111602060020a8311171561019957600080fd5b91908080601f0160208091040260200160405190810160405280939291908181526020018383808284376000920191909152509295949360208101935035915050602060020a8111156101eb57600080fd5b8201836020820111156101fd57600080fd5b803590602001918460018302840111602060020a8311171561021e57600080fd5b91908080601f0160208091040260200160405190810160405280939291908181526020018383808284376000920191909152509295505082359350505060200135610369565b005b34801561027257600080fd5b5061027b610484565b60408051918252519081900360200190f35b34801561029957600080fd5b5061008361048a565b3480156102ae57600080fd5b506100836104e5565b3480156102c357600080fd5b5061027b610540565b6008805460408051602060026001851615610100026000190190941693909304601f810184900484028201840190925281815292918301828280156103525780601f1061032757610100808354040283529160200191610352565b820191906000526020600020905b81548152906001019060200180831161033557829003601f168201915b505050505081565b600654600160a060020a031681565b600654600160a060020a031633146103e6576040805160e560020a62461bcd02815260206004820152602f60248201527f4f6e6c792074686520706172656e74206163636f756e742063616e20706572666044820152608960020a6e37b936903a3434b99030b1ba34b7b702606482015290519081900360840190fd5b6000811180156103f65750835115155b151561044c576040805160e560020a62461bcd02815260206004820152601660248201527f496e76616c696420696e7075742076616c756528732900000000000000000000604482015290519081900360640190fd5b835161045f906008906020870190610546565b50600b819055600a829055825161047d906009906020860190610546565b5050505050565b600b5481565b6007805460408051602060026001851615610100026000190190941693909304601f810184900484028201840190925281815292918301828280156103525780601f1061032757610100808354040283529160200191610352565b6009805460408051602060026001851615610100026000190190941693909304601f810184900484028201840190925281815292918301828280156103525780601f1061032757610100808354040283529160200191610352565b600a5481565b828054600181600116156101000203166002900490600052602060002090601f016020900481019282601f1061058757805160ff19168380011785556105b4565b828001600101855582156105b4579182015b828111156105b4578251825591602001919060010190610599565b506105c09291506105c4565b5090565b6105de91905b808211156105c057600081556001016105ca565b9056fea165627a7a723058206e809ea6882f1e318ad55880548e33ab5251e7559a9df5e41be526b76eb2263e0029",
  "source": "pragma solidity 0.5.0;\n\n/*Gas to deploy: 727.234*/\n\nimport \"./interfaces/FileInterface.sol\";\n\n\ncontract File is FileInterface {\n    address public parent;\n\n    string public id;\n    string public name;\n    string public originalFileHash;\n\n    uint public createdAt;\n    uint public size;\n\n    constructor(\n        string memory fileId\n    )\n        public\n    {\n        id = fileId;\n        parent = msg.sender;\n    }\n\n    modifier parentOnly() {\n        require(\n            msg.sender == parent,\n            \"Only the parent account can perform this action\"\n        );\n\n        _;\n    }\n\n    function init(\n        string memory fileName,\n        string memory fileHash,\n        uint fileDate,\n        uint fileSize\n    )\n        public\n        parentOnly\n    {\n        require(\n            fileSize > 0 &&\n            bytes(fileName).length != 0,\n            \"Invalid input value(s)\"\n        );\n\n        name = fileName;\n        size = fileSize;\n        createdAt = fileDate;\n        originalFileHash = fileHash;\n    }\n}\n",
  "sourcePath": "/home/administrator/workspace/bc-smart-contracts/contracts/File.sol",
  "compiler": {
    "name": "solc",
    "version": "0.5.0+commit.1d4f565a.Emscripten.clang"
  },
  "schemaVersion": "3.0.11",
  "updatedAt": "2019-07-05T13:37:35.280Z",
  "devdoc": {
    "methods": {}
  },
  "userdoc": {
    "methods": {}
  }
}