{
  "contractName": "Payment",
  "abi": [
    {
      "constant": true,
      "inputs": [],
      "name": "startDate",
      "outputs": [
        {
          "name": "",
          "type": "uint256"
        }
      ],
      "payable": false,
      "stateMutability": "view",
      "type": "function"
    },
    {
      "constant": true,
      "inputs": [],
      "name": "signatureId",
      "outputs": [
        {
          "name": "",
          "type": "string"
        }
      ],
      "payable": false,
      "stateMutability": "view",
      "type": "function"
    },
    {
      "constant": true,
      "inputs": [],
      "name": "userContract",
      "outputs": [
        {
          "name": "",
          "type": "address"
        }
      ],
      "payable": false,
      "stateMutability": "view",
      "type": "function"
    },
    {
      "constant": true,
      "inputs": [],
      "name": "clause",
      "outputs": [
        {
          "name": "",
          "type": "string"
        }
      ],
      "payable": false,
      "stateMutability": "view",
      "type": "function"
    },
    {
      "constant": true,
      "inputs": [
        {
          "name": "",
          "type": "uint256"
        }
      ],
      "name": "receiversArray",
      "outputs": [
        {
          "name": "",
          "type": "string"
        }
      ],
      "payable": false,
      "stateMutability": "view",
      "type": "function"
    },
    {
      "constant": true,
      "inputs": [],
      "name": "documentId",
      "outputs": [
        {
          "name": "",
          "type": "string"
        }
      ],
      "payable": false,
      "stateMutability": "view",
      "type": "function"
    },
    {
      "constant": true,
      "inputs": [],
      "name": "contractId",
      "outputs": [
        {
          "name": "",
          "type": "string"
        }
      ],
      "payable": false,
      "stateMutability": "view",
      "type": "function"
    },
    {
      "constant": true,
      "inputs": [],
      "name": "endDate",
      "outputs": [
        {
          "name": "",
          "type": "uint256"
        }
      ],
      "payable": false,
      "stateMutability": "view",
      "type": "function"
    },
    {
      "constant": true,
      "inputs": [],
      "name": "signatureSmartContract",
      "outputs": [
        {
          "name": "",
          "type": "address"
        }
      ],
      "payable": false,
      "stateMutability": "view",
      "type": "function"
    },
    {
      "constant": true,
      "inputs": [],
      "name": "period",
      "outputs": [
        {
          "name": "",
          "type": "uint256"
        }
      ],
      "payable": false,
      "stateMutability": "view",
      "type": "function"
    },
    {
      "constant": true,
      "inputs": [],
      "name": "signaturit",
      "outputs": [
        {
          "name": "",
          "type": "address"
        }
      ],
      "payable": false,
      "stateMutability": "view",
      "type": "function"
    },
    {
      "inputs": [
        {
          "name": "userContractAddress",
          "type": "address"
        },
        {
          "name": "signatureContract",
          "type": "address"
        },
        {
          "name": "id",
          "type": "string"
        }
      ],
      "payable": false,
      "stateMutability": "nonpayable",
      "type": "constructor"
    },
    {
      "constant": false,
      "inputs": [
        {
          "name": "signature",
          "type": "string"
        },
        {
          "name": "document",
          "type": "string"
        },
        {
          "name": "start",
          "type": "uint256"
        },
        {
          "name": "end",
          "type": "uint256"
        },
        {
          "name": "paymentPeriod",
          "type": "uint256"
        }
      ],
      "name": "init",
      "outputs": [],
      "payable": false,
      "stateMutability": "nonpayable",
      "type": "function"
    },
    {
      "constant": false,
      "inputs": [
        {
          "name": "id",
          "type": "string"
        }
      ],
      "name": "setReceiver",
      "outputs": [],
      "payable": false,
      "stateMutability": "nonpayable",
      "type": "function"
    },
    {
      "constant": false,
      "inputs": [
        {
          "name": "receiverId",
          "type": "string"
        },
        {
          "name": "referenceId",
          "type": "string"
        },
        {
          "name": "referenceValue",
          "type": "string"
        },
        {
          "name": "referencePrice",
          "type": "uint256"
        }
      ],
      "name": "setReference",
      "outputs": [],
      "payable": false,
      "stateMutability": "nonpayable",
      "type": "function"
    },
    {
      "constant": false,
      "inputs": [
        {
          "name": "receiverId",
          "type": "string"
        },
        {
          "name": "referenceId",
          "type": "string"
        },
        {
          "name": "paymentCheckId",
          "type": "string"
        },
        {
          "name": "status",
          "type": "uint256"
        },
        {
          "name": "checkedAt",
          "type": "uint256"
        },
        {
          "name": "createdAt",
          "type": "uint256"
        }
      ],
      "name": "addPaymentCheck",
      "outputs": [],
      "payable": false,
      "stateMutability": "nonpayable",
      "type": "function"
    },
    {
      "constant": true,
      "inputs": [
        {
          "name": "paymentCheckId",
          "type": "string"
        }
      ],
      "name": "getPaymentCheckById",
      "outputs": [
        {
          "name": "id",
          "type": "string"
        },
        {
          "name": "status",
          "type": "uint256"
        },
        {
          "name": "checkedAt",
          "type": "uint256"
        },
        {
          "name": "createdAt",
          "type": "uint256"
        }
      ],
      "payable": false,
      "stateMutability": "view",
      "type": "function"
    },
    {
      "constant": true,
      "inputs": [
        {
          "name": "referenceId",
          "type": "string"
        }
      ],
      "name": "getLastPaymentCheckFromReference",
      "outputs": [
        {
          "name": "id",
          "type": "string"
        },
        {
          "name": "status",
          "type": "uint256"
        },
        {
          "name": "checkedAt",
          "type": "uint256"
        },
        {
          "name": "createdAt",
          "type": "uint256"
        }
      ],
      "payable": false,
      "stateMutability": "view",
      "type": "function"
    },
    {
      "constant": true,
      "inputs": [
        {
          "name": "referenceId",
          "type": "string"
        },
        {
          "name": "index",
          "type": "uint256"
        }
      ],
      "name": "getPaymentCheckFromReference",
      "outputs": [
        {
          "name": "id",
          "type": "string"
        },
        {
          "name": "status",
          "type": "uint256"
        },
        {
          "name": "checkedAt",
          "type": "uint256"
        },
        {
          "name": "createdAt",
          "type": "uint256"
        },
        {
          "name": "more",
          "type": "bool"
        }
      ],
      "payable": false,
      "stateMutability": "view",
      "type": "function"
    },
    {
      "constant": true,
      "inputs": [
        {
          "name": "referenceId",
          "type": "string"
        }
      ],
      "name": "getPaymentCheckSizeFromReference",
      "outputs": [
        {
          "name": "size",
          "type": "uint256"
        }
      ],
      "payable": false,
      "stateMutability": "view",
      "type": "function"
    },
    {
      "constant": true,
      "inputs": [
        {
          "name": "referenceId",
          "type": "string"
        }
      ],
      "name": "getReferenceById",
      "outputs": [
        {
          "name": "id",
          "type": "string"
        },
        {
          "name": "value",
          "type": "string"
        },
        {
          "name": "price",
          "type": "uint256"
        }
      ],
      "payable": false,
      "stateMutability": "view",
      "type": "function"
    },
    {
      "constant": true,
      "inputs": [
        {
          "name": "receiverId",
          "type": "string"
        },
        {
          "name": "index",
          "type": "uint256"
        }
      ],
      "name": "getReferenceFromReceiver",
      "outputs": [
        {
          "name": "id",
          "type": "string"
        },
        {
          "name": "value",
          "type": "string"
        },
        {
          "name": "price",
          "type": "uint256"
        },
        {
          "name": "more",
          "type": "bool"
        }
      ],
      "payable": false,
      "stateMutability": "view",
      "type": "function"
    },
    {
      "constant": true,
      "inputs": [
        {
          "name": "receiverId",
          "type": "string"
        }
      ],
      "name": "getReferenceSizeFromReceiver",
      "outputs": [
        {
          "name": "size",
          "type": "uint256"
        }
      ],
      "payable": false,
      "stateMutability": "view",
      "type": "function"
    },
    {
      "constant": true,
      "inputs": [
        {
          "name": "index",
          "type": "uint256"
        }
      ],
      "name": "getReceiverId",
      "outputs": [
        {
          "name": "id",
          "type": "string"
        },
        {
          "name": "more",
          "type": "bool"
        }
      ],
      "payable": false,
      "stateMutability": "view",
      "type": "function"
    }
  ],
  "bytecode": "0x60806040523480156200001157600080fd5b506040516200313b3803806200313b833981018060405260608110156200003757600080fd5b81516020830151604084018051929491938201926401000000008111156200005e57600080fd5b820160208101848111156200007257600080fd5b81516401000000008111828201871017156200008d57600080fd5b50506040805180820190915260078082527f7061796d656e740000000000000000000000000000000000000000000000000060208301908152929550909350620000dc92506000919062000132565b50508051620000f390600390602084019062000132565b505060028054600160a060020a0319908116331790915560018054600160a060020a03948516908316179055600d8054929093169116179055620001d7565b828054600181600116156101000203166002900490600052602060002090601f016020900481019282601f106200017557805160ff1916838001178555620001a5565b82800160010185558215620001a5579182015b82811115620001a557825182559160200191906001019062000188565b50620001b3929150620001b7565b5090565b620001d491905b80821115620001b35760008155600101620001be565b90565b612f5480620001e76000396000f3fe6080604052600436106101195763ffffffff60e060020a6000350416630b97bc86811461011e57806313820f19146101455780631c9a05ec146101f6578063395ba050146102a35780635000596b1461032d5780635ee4a01a1461035e578063605b460914610373578063680488e21461039d5780636b7eab381461056557806374452c901461061657806378f7c83f146107545780638291286c14610769578063881c2cc01461077e578063b610f10f1461093b578063bfbcafd414610a7c578063c24a0f8b14610c1b578063c511d53114610c30578063c7e3bb0214610c45578063e2ec46e114610cf6578063ef78d4fd14610e01578063f405f28014610e16578063f9b5333514610ec7578063fc2e2c2814610edc575b600080fd5b34801561012a57600080fd5b50610133611033565b60408051918252519081900360200190f35b34801561015157600080fd5b506101336004803603602081101561016857600080fd5b810190602081018135602060020a81111561018257600080fd5b82018360208201111561019457600080fd5b803590602001918460018302840111602060020a831117156101b557600080fd5b91908080601f016020809104026020016040519081016040528093929190818152602001838380828437600092019190915250929550611039945050505050565b34801561020257600080fd5b506102206004803603602081101561021957600080fd5b50356110ad565b604051808060200183151515158152602001828103825284818151815260200191508051906020019080838360005b8381101561026757818101518382015260200161024f565b50505050905090810190601f1680156102945780820380516001836020036101000a031916815260200191505b50935050505060405180910390f35b3480156102af57600080fd5b506102b86111c7565b6040805160208082528351818301528351919283929083019185019080838360005b838110156102f25781810151838201526020016102da565b50505050905090810190601f16801561031f5780820380516001836020036101000a031916815260200191505b509250505060405180910390f35b34801561033957600080fd5b50610342611255565b60408051600160a060020a039092168252519081900360200190f35b34801561036a57600080fd5b506102b8611264565b34801561037f57600080fd5b506102b86004803603602081101561039657600080fd5b50356112bf565b3480156103a957600080fd5b50610563600480360360c08110156103c057600080fd5b810190602081018135602060020a8111156103da57600080fd5b8201836020820111156103ec57600080fd5b803590602001918460018302840111602060020a8311171561040d57600080fd5b91908080601f0160208091040260200160405190810160405280939291908181526020018383808284376000920191909152509295949360208101935035915050602060020a81111561045f57600080fd5b82018360208201111561047157600080fd5b803590602001918460018302840111602060020a8311171561049257600080fd5b91908080601f0160208091040260200160405190810160405280939291908181526020018383808284376000920191909152509295949360208101935035915050602060020a8111156104e457600080fd5b8201836020820111156104f657600080fd5b803590602001918460018302840111602060020a8311171561051757600080fd5b91908080601f0160208091040260200160405190810160405280939291908181526020018383808284376000920191909152509295505082359350505060208101359060400135611333565b005b34801561057157600080fd5b506101336004803603602081101561058857600080fd5b810190602081018135602060020a8111156105a257600080fd5b8201836020820111156105b457600080fd5b803590602001918460018302840111602060020a831117156105d557600080fd5b91908080601f0160208091040260200160405190810160405280939291908181526020018383808284376000920191909152509295506114f6945050505050565b34801561062257600080fd5b506106c76004803603602081101561063957600080fd5b810190602081018135602060020a81111561065357600080fd5b82018360208201111561066557600080fd5b803590602001918460018302840111602060020a8311171561068657600080fd5b91908080601f01602080910402602001604051908101604052809392919081815260200183838082843760009201919091525092955061156a945050505050565b6040518080602001858152602001848152602001838152602001828103825286818151815260200191508051906020019080838360005b838110156107165781810151838201526020016106fe565b50505050905090810190601f1680156107435780820380516001836020036101000a031916815260200191505b509550505050505060405180910390f35b34801561076057600080fd5b506102b86117a6565b34801561077557600080fd5b506102b8611801565b34801561078a57600080fd5b50610563600480360360808110156107a157600080fd5b810190602081018135602060020a8111156107bb57600080fd5b8201836020820111156107cd57600080fd5b803590602001918460018302840111602060020a831117156107ee57600080fd5b91908080601f0160208091040260200160405190810160405280939291908181526020018383808284376000920191909152509295949360208101935035915050602060020a81111561084057600080fd5b82018360208201111561085257600080fd5b803590602001918460018302840111602060020a8311171561087357600080fd5b91908080601f0160208091040260200160405190810160405280939291908181526020018383808284376000920191909152509295949360208101935035915050602060020a8111156108c557600080fd5b8201836020820111156108d757600080fd5b803590602001918460018302840111602060020a831117156108f857600080fd5b91908080601f016020809104026020016040519081016040528093929190818152602001838380828437600092019190915250929550509135925061185c915050565b34801561094757600080fd5b50610563600480360360a081101561095e57600080fd5b810190602081018135602060020a81111561097857600080fd5b82018360208201111561098a57600080fd5b803590602001918460018302840111602060020a831117156109ab57600080fd5b91908080601f0160208091040260200160405190810160405280939291908181526020018383808284376000920191909152509295949360208101935035915050602060020a8111156109fd57600080fd5b820183602082011115610a0f57600080fd5b803590602001918460018302840111602060020a83111715610a3057600080fd5b91908080601f0160208091040260200160405190810160405280939291908181526020018383808284376000920191909152509295505082359350505060208101359060400135611908565b348015610a8857600080fd5b50610b2f60048036036040811015610a9f57600080fd5b810190602081018135602060020a811115610ab957600080fd5b820183602082011115610acb57600080fd5b803590602001918460018302840111602060020a83111715610aec57600080fd5b91908080601f0160208091040260200160405190810160405280939291908181526020018383808284376000920191909152509295505091359250611a39915050565b60408051908101839052811515606082015260808082528551908201528451819060208083019160a084019189019080838360005b83811015610b7c578181015183820152602001610b64565b50505050905090810190601f168015610ba95780820380516001836020036101000a031916815260200191505b50838103825286518152865160209182019188019080838360005b83811015610bdc578181015183820152602001610bc4565b50505050905090810190601f168015610c095780820380516001836020036101000a031916815260200191505b50965050505050505060405180910390f35b348015610c2757600080fd5b50610133611c99565b348015610c3c57600080fd5b50610342611c9f565b348015610c5157600080fd5b506106c760048036036020811015610c6857600080fd5b810190602081018135602060020a811115610c8257600080fd5b820183602082011115610c9457600080fd5b803590602001918460018302840111602060020a83111715610cb557600080fd5b91908080601f016020809104026020016040519081016040528093929190818152602001838380828437600092019190915250929550611cae945050505050565b348015610d0257600080fd5b50610da960048036036040811015610d1957600080fd5b810190602081018135602060020a811115610d3357600080fd5b820183602082011115610d4557600080fd5b803590602001918460018302840111602060020a83111715610d6657600080fd5b91908080601f0160208091040260200160405190810160405280939291908181526020018383808284376000920191909152509295505091359250611f1c915050565b6040518080602001868152602001858152602001848152602001831515151581526020018281038252878181518152602001915080519060200190808383600083811015610bdc578181015183820152602001610bc4565b348015610e0d57600080fd5b5061013361214e565b348015610e2257600080fd5b5061056360048036036020811015610e3957600080fd5b810190602081018135602060020a811115610e5357600080fd5b820183602082011115610e6557600080fd5b803590602001918460018302840111602060020a83111715610e8657600080fd5b91908080601f016020809104026020016040519081016040528093929190818152602001838380828437600092019190915250929550612154945050505050565b348015610ed357600080fd5b506103426121cc565b348015610ee857600080fd5b50610f8d60048036036020811015610eff57600080fd5b810190602081018135602060020a811115610f1957600080fd5b820183602082011115610f2b57600080fd5b803590602001918460018302840111602060020a83111715610f4c57600080fd5b91908080601f0160208091040260200160405190810160405280939291908181526020018383808284376000920191909152509295506121db945050505050565b604051808060200180602001848152602001838103835286818151815260200191508051906020019080838360005b83811015610fd4578181015183820152602001610fbc565b50505050905090810190601f1680156110015780820380516001836020036101000a031916815260200191505b5083810382528551815285516020918201918701908083836000838110156107165781810151838201526020016106fe565b60075481565b60006110448261243f565b600a826040518082805190602001908083835b602083106110765780518252601f199092019160209182019101611057565b51815160209384036101000a6000190180199092169116179052920194855250604051938490030190922060010154949350505050565b6006546060906000908310611102576040805160e560020a62461bcd0281526020600482015260106024820152608360020a6f09eeccae4ccd8deeecac840d2dcc8caf02604482015290519081900360640190fd5b600654600090600185011015611116575060015b600680548590811061112457fe5b60009182526020918290200180546040805160026001841615610100026000190190931692909204601f81018590048502830185019091528082529192849284918301828280156111b65780601f1061118b576101008083540402835291602001916111b6565b820191906000526020600020905b81548152906001019060200180831161119957829003601f168201915b505050505091509250925050915091565b6004805460408051602060026001851615610100026000190190941693909304601f8101849004840282018401909252818152929183018282801561124d5780601f106112225761010080835404028352916020019161124d565b820191906000526020600020905b81548152906001019060200180831161123057829003601f168201915b505050505081565b600154600160a060020a031681565b6000805460408051602060026001851615610100026000190190941693909304601f8101849004840282018401909252818152929183018282801561124d5780601f106112225761010080835404028352916020019161124d565b60068054829081106112cd57fe5b600091825260209182902001805460408051601f600260001961010060018716150201909416939093049283018590048502810185019091528181529350909183018282801561124d5780601f106112225761010080835404028352916020019161124d565b600254600160a060020a0316331461139e576040805160e560020a62461bcd02815260206004820152602f6024820152600080516020612f098339815191526044820152608960020a6e37b936903a3434b99030b1ba34b7b702606482015290519081900360840190fd5b60006113aa8787612519565b905060806040519081016040528086815260200185815260200184815260200183815250600c866040518082805190602001908083835b602083106114005780518252601f1990920191602091820191016113e1565b51815160209384036101000a600019018019909216911617905292019485525060405193849003810190932084518051919461144194508593500190612d8d565b506020828101516001808401919091556040840151600284015560609093015160039283015590830180549283018082556000918252908290208851919361148f9391019190890190612d8d565b50506114ed3060408051908101604052806007815260200160ca60020a661c185e5b595b9d02815250604080519081016040528060138152602001606a60020a721c185e5b595b9d17d8da1958dacb98591919590281525088612789565b50505050505050565b600061150182612937565b600b826040518082805190602001908083835b602083106115335780518252601f199092019160209182019101611514565b51815160209384036101000a6000190180199092169116179052920194855250604051938490030190922060030154949350505050565b6060600080600061157a85612a0e565b600c856040518082805190602001908083835b602083106115ac5780518252601f19909201916020918201910161158d565b51815160209384036101000a6000190180199092169116179052920194855250604051938490038101842089519094600c94508a9350918291908401908083835b6020831061160c5780518252601f1990920191602091820191016115ed565b51815160209384036101000a60001901801990921691161790529201948552506040519384900381018420600101548a519094600c94508b9350918291908401908083835b602083106116705780518252601f199092019160209182019101611651565b51815160209384036101000a60001901801990921691161790529201948552506040519384900381018420600201548b519094600c94508c9350918291908401908083835b602083106116d45780518252601f1990920191602091820191016116b5565b518151600019602094850361010090810a82019283169219939093169190911790925294909201968752604080519788900382018820600301548b54601f6002600183161590980290950116959095049283018290048202880182019052818752929594508893509184019050828280156117905780601f1061176557610100808354040283529160200191611790565b820191906000526020600020905b81548152906001019060200180831161177357829003601f168201915b5050505050935093509350935093509193509193565b6005805460408051602060026001851615610100026000190190941693909304601f8101849004840282018401909252818152929183018282801561124d5780601f106112225761010080835404028352916020019161124d565b6003805460408051602060026001851615610100026000190190941693909304601f8101849004840282018401909252818152929183018282801561124d5780601f106112225761010080835404028352916020019161124d565b600254600160a060020a031633146118c7576040805160e560020a62461bcd02815260206004820152602f6024820152600080516020612f098339815191526044820152608960020a6e37b936903a3434b99030b1ba34b7b702606482015290519081900360840190fd5b60006118d38585612519565b84519091506118e89082906020870190612d8d565b5082516118fe9060018301906020860190612d8d565b5060020155505050565b600254600160a060020a03163314611973576040805160e560020a62461bcd02815260206004820152602f6024820152600080516020612f098339815191526044820152608960020a6e37b936903a3434b99030b1ba34b7b702606482015290519081900360840190fd5b600882905560078390558351611990906005906020870190612d8d565b50600981905584516119a9906004906020880190612d8d565b50600d546040805160e060020a63b7fce16b028152306024820152600481018290526007604482015260ca60020a661c185e5b595b9d0260648201529051600160a060020a039092169163b7fce16b9160848082019260009290919082900301818387803b158015611a1a57600080fd5b505af1158015611a2e573d6000803e3d6000fd5b505050505050505050565b606080600080611a488661243f565b600a866040518082805190602001908083835b60208310611a7a5780518252601f199092019160209182019101611a5b565b51815160209384036101000a600019018019909216911617905292019485525060405193849003019092206001015487109150611af99050576040805160e560020a62461bcd0281526020600482015260106024820152608360020a6f09eeccae4ccd8deeecac840d2dcc8caf02604482015290519081900360640190fd5b600080905085600101600a886040518082805190602001908083835b60208310611b345780518252601f199092019160209182019101611b15565b51815160209384036101000a600019018019909216911617905292019485525060405193849003019092206001015492909211159150611b749050575060015b6060806000611c84600a8b6040518082805190602001908083835b60208310611bae5780518252601f199092019160209182019101611b8f565b51815160209384036101000a6000190180199092169116179052920194855250604051938490030190922060010180549092508c91508110611bec57fe5b600091825260209182902001805460408051601f6002600019610100600187161502019094169390930492830185900485028101850190915281815292830182828015611c7a5780601f10611c4f57610100808354040283529160200191611c7a565b820191906000526020600020905b815481529060010190602001808311611c5d57829003601f168201915b50505050506121db565b919c909b509099509397509295505050505050565b60085481565b600d54600160a060020a031681565b60606000806000611d29856001600b886040518082805190602001908083835b60208310611ced5780518252601f199092019160209182019101611cce565b51815160209384036101000a6000190180199092169116179052920194855250604051938490030190922060030154929092039150612ad39050565b611f0d600c600b876040518082805190602001908083835b60208310611d605780518252601f199092019160209182019101611d41565b6001836020036101000a03801982511681845116808217855250505050505090500191505090815260200160405180910390206003016001600b896040518082805190602001908083835b60208310611dca5780518252601f199092019160209182019101611dab565b51815160209384036101000a600019018019909216911617905292019485525060405193849003019092206003015484549390039283109150611e0b905057fe5b906000526020600020016040518082805460018160011615610100020316600290048015611e705780601f10611e4e576101008083540402835291820191611e70565b820191906000526020600020905b815481529060010190602001808311611e5c575b505092835250506040805160209281900383018120805460026001821615610100026000190190911604601f81018590048502830185019093528282529092909190830182828015611f035780601f10611ed857610100808354040283529160200191611f03565b820191906000526020600020905b815481529060010190602001808311611ee657829003601f168201915b505050505061156a565b93509350935093509193509193565b6060600080600080611f2d87612937565b600b876040518082805190602001908083835b60208310611f5f5780518252601f199092019160209182019101611f40565b51815160209384036101000a600019018019909216911617905292019485525060405193849003019092206003015488109150611fde9050576040805160e560020a62461bcd0281526020600482015260106024820152608360020a6f09eeccae4ccd8deeecac840d2dcc8caf02604482015290519081900360640190fd5b600080905086600101600b896040518082805190602001908083835b602083106120195780518252601f199092019160209182019101611ffa565b51815160209384036101000a6000190180199092169116179052920194855250604051938490030190922060030154929092111591506120599050575060015b60606000806000612136600b8d6040518082805190602001908083835b602083106120955780518252601f199092019160209182019101612076565b51815160209384036101000a6000190180199092169116179052920194855250604051938490030190922060030180549092508e915081106120d357fe5b600091825260209182902001805460408051601f6002600019610100600187161502019094169390930492830185900485028101850190915281815292830182828015611f035780601f10611ed857610100808354040283529160200191611f03565b929f919e509c50909a50949850939650505050505050565b60095481565b600254600160a060020a031633146121bf576040805160e560020a62461bcd02815260206004820152602f6024820152600080516020612f098339815191526044820152608960020a6e37b936903a3434b99030b1ba34b7b702606482015290519081900360840190fd5b6121c881612baf565b5050565b600254600160a060020a031681565b60608060006121e984612937565b600b846040518082805190602001908083835b6020831061221b5780518252601f1990920191602091820191016121fc565b51815160209384036101000a6000190180199092169116179052920194855250604051938490038101842088519094600b9450899350918291908401908083835b6020831061227b5780518252601f19909201916020918201910161225c565b6001836020036101000a0380198251168184511680821785525050505050509050019150509081526020016040518091039020600101600b866040518082805190602001908083835b602083106122e35780518252601f1990920191602091820191016122c4565b518151600019602094850361010090810a820192831692199390931691909117909252949092019687526040805197889003820188206002908101548b54601f600182161590980290950190941604948501829004820288018201905283875290959450879350840190508282801561239d5780601f106123725761010080835404028352916020019161239d565b820191906000526020600020905b81548152906001019060200180831161238057829003601f168201915b5050855460408051602060026001851615610100026000190190941693909304601f81018490048402820184019092528181529598508794509250840190508282801561242b5780601f106124005761010080835404028352916020019161242b565b820191906000526020600020905b81548152906001019060200180831161240e57829003601f168201915b505050505091509250925092509193909250565b600a816040518082805190602001908083835b602083106124715780518252601f199092019160209182019101612452565b6001836020036101000a0380198251168184511680821785525050505050509050019150509081526020016040518091039020600001805460018160011615610100020316600290049050600014151515612516576040805160e560020a62461bcd02815260206004820152601b60248201527f5468697320726563656976657220646f65736e27742065786973740000000000604482015290519081900360640190fd5b50565b600061252483612baf565b50600b826040518082805190602001908083835b602083106125575780518252601f199092019160209182019101612538565b6001836020036101000a038019825116818451168082178552505050505050905001915050908152602001604051809103902060000180546001816001161561010002031660029004905060001415612723576060608060405190810160405280848152602001602060405190810160405280600081525081526020016000815260200182815250600b846040518082805190602001908083835b602083106126115780518252601f1990920191602091820191016125f2565b51815160209384036101000a600019018019909216911617905292019485525060405193849003810190932084518051919461265294508593500190612d8d565b50602082810151805161266b9260018501920190612d8d565b506040820151600282015560608201518051612691916003840191602090910190612e0b565b50905050600a846040518082805190602001908083835b602083106126c75780518252601f1990920191602091820191016126a8565b51815160209384036101000a6000190180199092169116179052920194855250604051938490038101909320600190810180549182018082556000918252908590208851919561271f95509201925090870190612d8d565b5050505b600b826040518082805190602001908083835b602083106127555780518252601f199092019160209182019101612736565b51815160209384036101000a6000190180199092169116179052920194855250604051938490030190922095945050505050565b60015460405160e060020a6349159863028152600160a060020a038681166004830190815260806024840190815287516084850152875192909416936349159863938993899389938993919290916044810191606482019160a40190602089019080838360005b838110156128085781810151838201526020016127f0565b50505050905090810190601f1680156128355780820380516001836020036101000a031916815260200191505b50848103835286518152865160209182019188019080838360005b83811015612868578181015183820152602001612850565b50505050905090810190601f1680156128955780820380516001836020036101000a031916815260200191505b50848103825285518152855160209182019187019080838360005b838110156128c85781810151838201526020016128b0565b50505050905090810190601f1680156128f55780820380516001836020036101000a031916815260200191505b50975050505050505050600060405180830381600087803b15801561291957600080fd5b505af115801561292d573d6000803e3d6000fd5b5050505050505050565b600b816040518082805190602001908083835b602083106129695780518252601f19909201916020918201910161294a565b6001836020036101000a0380198251168184511680821785525050505050509050019150509081526020016040518091039020600001805460018160011615610100020316600290049050600014151515612516576040805160e560020a62461bcd02815260206004820152601c60248201527f54686973207265666572656e636520646f65736e277420657869737400000000604482015290519081900360640190fd5b600c816040518082805190602001908083835b60208310612a405780518252601f199092019160209182019101612a21565b6001836020036101000a0380198251168184511680821785525050505050509050019150509081526020016040518091039020600001805460018160011615610100020316600290049050600014151515612516576040805160e560020a62461bcd0281526020600482018190526024820152600080516020612ee9833981519152604482015290519081900360640190fd5b612adc82612937565b600b826040518082805190602001908083835b60208310612b0e5780518252601f199092019160209182019101612aef565b51815160209384036101000a6000190180199092169116179052920194855250604051938490030190922060030180549092508391508110612b4c57fe5b6000918252602090912001546002600019610100600184161502019091160415156121c8576040805160e560020a62461bcd0281526020600482018190526024820152600080516020612ee9833981519152604482015290519081900360640190fd5b6000600a826040518082805190602001908083835b60208310612be35780518252601f199092019160209182019101612bc4565b6001836020036101000a038019825116818451168082178552505050505050905001915050908152602001604051809103902060000180546001816001161561010002031660029004905060001415612d28576060604080519081016040528084815260200182815250600a846040518082805190602001908083835b60208310612c7f5780518252601f199092019160209182019101612c60565b51815160209384036101000a6000190180199092169116179052920194855250604051938490038101909320845180519194612cc094508593500190612d8d565b506020828101518051612cd99260018501920190612e0b565b505060068054600181018083556000929092528551919250612d24917ff652222313e28459528d920b65115c16c04f3efc82aaedc97be59f3f377c0d3f909101906020870190612d8d565b5050505b600a826040518082805190602001908083835b60208310612d5a5780518252601f199092019160209182019101612d3b565b51815160209384036101000a60001901801990921691161790529201948552506040519384900301909220949350505050565b828054600181600116156101000203166002900490600052602060002090601f016020900481019282601f10612dce57805160ff1916838001178555612dfb565b82800160010185558215612dfb579182015b82811115612dfb578251825591602001919060010190612de0565b50612e07929150612e64565b5090565b828054828255906000526020600020908101928215612e58579160200282015b82811115612e585782518051612e48918491602090910190612d8d565b5091602001919060010190612e2b565b50612e07929150612e81565b612e7e91905b80821115612e075760008155600101612e6a565b90565b612e7e91905b80821115612e07576000612e9b8282612ea4565b50600101612e87565b50805460018160011615610100020316600290046000825580601f10612eca5750612516565b601f0160209004906000526020600020908101906125169190612e6456fe54686973207061796d656e7420636865636b20646f65736e27742065786973744f6e6c79205369676e617475726974206163636f756e742063616e2070657266a165627a7a72305820da2f4bebfcb26c3fd62bdcfb2b1bdfcc81a0721b14674f875df728d9eb9cdc5f0029",
  "source": "pragma solidity 0.5.0;\n\n/*\nGas to deploy: 4.323.950 units\n\nPaymentCheck status legend:\n\nUNPROCESSED    = 0;\nPROCESSING     = 1;\nPAID           = 2;\nOVER_PAID      = 3;\nPARTIALLY_PAID = 4;\n*/\n\nimport \"./interfaces/SignatureInterface.sol\";\nimport \"./Clause.sol\";\n\n\ncontract Payment is Clause('payment'){\n\n    struct PaymentCheck {\n        string id;\n        uint status;\n        uint checkedAt;\n        uint createdAt;\n    }\n\n    struct Reference {\n        string id;\n        string value;\n        uint price;\n        string[] checks;\n    }\n\n    struct Receiver {\n        string id;\n        string[] references;\n    }\n\n    address public signaturit;\n\n    string public contractId;\n    string public signatureId;\n    string public documentId;\n\n    string[] public receiversArray;\n\n    uint public startDate;\n    uint public endDate;\n    uint public period;\n\n    mapping(string => Receiver) private receivers;\n    mapping(string => Reference) private references;\n    mapping(string => PaymentCheck) private paymentChecks;\n\n    SignatureInterface public signatureSmartContract;\n\n    constructor(\n        address userContractAddress,\n        address signatureContract,\n        string memory id\n    )\n        public\n    {\n        contractId = id;\n        signaturit = msg.sender;\n\n        userContract = UserInterface(userContractAddress);\n        signatureSmartContract = SignatureInterface(signatureContract);\n    }\n\n    modifier signaturitOnly() {\n        require(\n            msg.sender == signaturit,\n            \"Only Signaturit account can perform this action\"\n        );\n\n        _;\n    }\n\n    function init(\n        string memory signature,\n        string memory document,\n        uint start,\n        uint end,\n        uint paymentPeriod\n    )\n        public\n        signaturitOnly\n    {\n        endDate = end;\n        startDate = start;\n        documentId = document;\n        period = paymentPeriod;\n        signatureId = signature;\n\n        signatureSmartContract.setClause(\n            \"payment\",\n            address(this)\n        );\n    }\n\n    function setReceiver(\n        string memory id\n    )\n        public\n        signaturitOnly\n    {\n        _getReceiver(id);\n    }\n\n    function setReference(\n        string memory receiverId,\n        string memory referenceId,\n        string memory referenceValue,\n        uint referencePrice\n    )\n        public\n        signaturitOnly\n    {\n        Reference storage newReference = _getReference(\n            receiverId,\n            referenceId\n        );\n\n        newReference.id = referenceId;\n        newReference.value = referenceValue;\n        newReference.price = referencePrice;\n    }\n\n    function addPaymentCheck(\n        string memory receiverId,\n        string memory referenceId,\n        string memory paymentCheckId,\n        uint status,\n        uint checkedAt,\n        uint createdAt\n    )\n        public\n        signaturitOnly\n    {\n        Reference storage newReference = _getReference(\n            receiverId,\n            referenceId\n        );\n\n        paymentChecks[paymentCheckId] = PaymentCheck(\n            paymentCheckId,\n            status,\n            checkedAt,\n            createdAt\n        );\n\n        newReference.checks.push(paymentCheckId);\n\n        publishNotification(\n            address(this),\n            \"payment\",\n            \"payment_check.added\",\n            paymentCheckId\n        );\n    }\n\n    // Get paymentCheck if you got the id\n    function getPaymentCheckById(\n        string memory paymentCheckId\n    )\n        public\n        view\n        returns (\n            string memory id,\n            uint status,\n            uint checkedAt,\n            uint createdAt\n        )\n    {\n        _checkPaymentCheckExistence(paymentCheckId);\n\n        return (\n            paymentChecks[paymentCheckId].id,\n            paymentChecks[paymentCheckId].status,\n            paymentChecks[paymentCheckId].checkedAt,\n            paymentChecks[paymentCheckId].createdAt\n        );\n    }\n\n    // Get paymentCheckID if you want the last one given a referenceId\n    function getLastPaymentCheckFromReference(\n        string memory referenceId\n    )\n        public\n        view\n        returns (\n            string memory id,\n            uint status,\n            uint checkedAt,\n            uint createdAt\n        )\n    {\n        _checkPaymentCheckFromReferenceExistence(\n            referenceId,\n            references[referenceId].checks.length - 1\n        );\n\n        return getPaymentCheckById(\n            paymentChecks[\n                references[\n                    referenceId\n                ].checks[\n                    references[\n                        referenceId\n                    ].checks.length - 1\n                ]\n            ].id\n        );\n    }\n\n    // Get paymentCheckID if you want to iterate through all\n    // the paymentChecks of a reference\n    function getPaymentCheckFromReference(\n        string memory referenceId,\n        uint index\n    )\n        public\n        view\n        returns (\n            string memory id,\n            uint status,\n            uint checkedAt,\n            uint createdAt,\n            bool more\n        )\n    {\n        _checkReferenceExistence(referenceId);\n\n        require(\n            index < references[referenceId].checks.length,\n            \"Overflowed index\"\n        );\n\n        bool thereIsMore = false;\n\n        if (references[referenceId].checks.length > index + 1)\n            thereIsMore = true;\n\n        (\n            string memory paymentCheckId,\n            uint paymentCheckStatus,\n            uint paymentCheckCheckedAt,\n            uint paymentCheckCreatedAt\n        ) = getPaymentCheckById(\n            references[referenceId].checks[index]\n        );\n\n        return(\n            paymentCheckId,\n            paymentCheckStatus,\n            paymentCheckCheckedAt,\n            paymentCheckCreatedAt,\n            thereIsMore\n        );\n    }\n\n    // Get how many paymentChecks there are for a reference\n    function getPaymentCheckSizeFromReference(\n        string memory referenceId\n    )\n        public\n        view\n        returns (uint size)\n    {\n        _checkReferenceExistence(referenceId);\n\n        return references[referenceId].checks.length;\n    }\n\n    // Get reference if you got the id\n    function getReferenceById(\n        string memory referenceId\n    )\n        public\n        view\n        returns (\n            string memory id,\n            string memory value,\n            uint price\n        )\n    {\n        _checkReferenceExistence(referenceId);\n\n        return(\n            references[referenceId].id,\n            references[referenceId].value,\n            references[referenceId].price\n        );\n    }\n\n    // Get referenceID if you want to iterate through all\n    // the references of a receiver\n    function getReferenceFromReceiver(\n        string memory receiverId,\n        uint index\n    )\n        public\n        view\n        returns (\n            string memory id,\n            string memory value,\n            uint price,\n            bool more\n        )\n    {\n        _checkReceiverExistence(receiverId);\n\n        require(\n            index < receivers[receiverId].references.length,\n            \"Overflowed index\"\n        );\n\n        bool thereIsMore = false;\n\n        if (receivers[receiverId].references.length > index + 1)\n            thereIsMore = true;\n\n        (\n            string memory referenceId,\n            string memory referenceValue,\n            uint referencePrice\n        ) = getReferenceById(\n            receivers[receiverId].references[index]\n        );\n\n        return(\n            referenceId,\n            referenceValue,\n            referencePrice,\n            thereIsMore\n        );\n    }\n\n    // Get references size from receiver\n    function getReferenceSizeFromReceiver(\n        string memory receiverId\n    )\n        public\n        view\n        returns (uint size)\n    {\n        _checkReceiverExistence(receiverId);\n\n        return receivers[receiverId].references.length;\n    }\n\n    // Get receiverID by index\n    function getReceiverId(\n        uint index\n    )\n        public\n        view\n        returns (\n            string memory id,\n            bool more\n        )\n    {\n        require(\n            index < receiversArray.length,\n            \"Overflowed index\"\n        );\n\n        bool thereIsMore = false;\n\n        if (receiversArray.length > index + 1)\n            thereIsMore = true;\n\n        return(\n            receiversArray[index],\n            thereIsMore\n        );\n    }\n\n    function _getReceiver(\n        string memory id\n    )\n        private\n        returns (Receiver storage)\n    {\n        if (bytes(receivers[id].id).length == 0) {\n\n            string[] memory tmpString;\n\n            receivers[id] = Receiver(id, tmpString);\n\n            receiversArray.push(id);\n        }\n\n        return receivers[id];\n    }\n\n    function _getReference(\n        string memory receiverId,\n        string memory referenceId\n    )\n        private\n        returns (Reference storage)\n    {\n        _getReceiver(receiverId);\n\n        if (bytes(references[referenceId].id).length == 0) {\n\n            string[] memory tmpPaymentChecks;\n\n            references[referenceId] = Reference(\n                referenceId,\n                \"\",\n                0,\n                tmpPaymentChecks\n            );\n\n            receivers[receiverId].references.push(referenceId);\n        }\n\n        return references[referenceId];\n    }\n\n    function _checkReferenceExistence(\n        string memory id\n    )\n        private\n        view\n    {\n        require(\n            bytes(references[id].id).length != 0,\n            \"This reference doesn't exist\"\n        );\n    }\n\n    function _checkReceiverExistence(\n        string memory id\n    )\n        private\n        view\n    {\n        require(\n            bytes(receivers[id].id).length != 0,\n            \"This receiver doesn't exist\"\n        );\n    }\n\n    function _checkPaymentCheckFromReferenceExistence(\n        string memory referenceId,\n        uint index\n    )\n        private\n        view\n    {\n        _checkReferenceExistence(referenceId);\n\n        require(\n            bytes(references[referenceId].checks[index]).length != 0,\n            \"This payment check doesn't exist\"\n        );\n    }\n\n    function _checkPaymentCheckExistence(\n        string memory id\n    )\n        private\n        view\n    {\n        require(\n            bytes(paymentChecks[id].id).length != 0,\n            \"This payment check doesn't exist\"\n        );\n    }\n}\n",
  "sourcePath": "/home/administrator/workspace/signaturit-solidity-contracts/contracts/Payment.sol",
  "compiler": {
    "name": "solc",
    "version": "0.5.0+commit.1d4f565a.Emscripten.clang"
  },
  "schemaVersion": "3.0.11",
  "updatedAt": "2019-08-07T09:03:04.338Z",
  "devdoc": {
    "methods": {}
  },
  "userdoc": {
    "methods": {}
  }
}