{
  "contractName": "Payment",
  "abi": [
    {
      "constant": true,
      "inputs": [],
      "name": "startDate",
      "outputs": [
        {
          "name": "",
          "type": "uint256"
        }
      ],
      "payable": false,
      "stateMutability": "view",
      "type": "function"
    },
    {
      "constant": true,
      "inputs": [],
      "name": "notificationEvent",
      "outputs": [
        {
          "name": "",
          "type": "string"
        }
      ],
      "payable": false,
      "stateMutability": "view",
      "type": "function"
    },
    {
      "constant": true,
      "inputs": [],
      "name": "signatureId",
      "outputs": [
        {
          "name": "",
          "type": "string"
        }
      ],
      "payable": false,
      "stateMutability": "view",
      "type": "function"
    },
    {
      "constant": true,
      "inputs": [],
      "name": "userContract",
      "outputs": [
        {
          "name": "",
          "type": "address"
        }
      ],
      "payable": false,
      "stateMutability": "view",
      "type": "function"
    },
    {
      "constant": true,
      "inputs": [],
      "name": "clause",
      "outputs": [
        {
          "name": "",
          "type": "string"
        }
      ],
      "payable": false,
      "stateMutability": "view",
      "type": "function"
    },
    {
      "constant": true,
      "inputs": [
        {
          "name": "",
          "type": "uint256"
        }
      ],
      "name": "receiversArray",
      "outputs": [
        {
          "name": "",
          "type": "string"
        }
      ],
      "payable": false,
      "stateMutability": "view",
      "type": "function"
    },
    {
      "constant": true,
      "inputs": [],
      "name": "documentId",
      "outputs": [
        {
          "name": "",
          "type": "string"
        }
      ],
      "payable": false,
      "stateMutability": "view",
      "type": "function"
    },
    {
      "constant": true,
      "inputs": [],
      "name": "contractId",
      "outputs": [
        {
          "name": "",
          "type": "string"
        }
      ],
      "payable": false,
      "stateMutability": "view",
      "type": "function"
    },
    {
      "constant": true,
      "inputs": [],
      "name": "endDate",
      "outputs": [
        {
          "name": "",
          "type": "uint256"
        }
      ],
      "payable": false,
      "stateMutability": "view",
      "type": "function"
    },
    {
      "constant": true,
      "inputs": [],
      "name": "signatureContract",
      "outputs": [
        {
          "name": "",
          "type": "address"
        }
      ],
      "payable": false,
      "stateMutability": "view",
      "type": "function"
    },
    {
      "constant": true,
      "inputs": [],
      "name": "period",
      "outputs": [
        {
          "name": "",
          "type": "uint256"
        }
      ],
      "payable": false,
      "stateMutability": "view",
      "type": "function"
    },
    {
      "constant": true,
      "inputs": [],
      "name": "signaturit",
      "outputs": [
        {
          "name": "",
          "type": "address"
        }
      ],
      "payable": false,
      "stateMutability": "view",
      "type": "function"
    },
    {
      "inputs": [
        {
          "name": "userContractAddress",
          "type": "address"
        },
        {
          "name": "signatureContractAddress",
          "type": "address"
        },
        {
          "name": "id",
          "type": "string"
        }
      ],
      "payable": false,
      "stateMutability": "nonpayable",
      "type": "constructor"
    },
    {
      "constant": false,
      "inputs": [
        {
          "name": "signature",
          "type": "string"
        },
        {
          "name": "document",
          "type": "string"
        },
        {
          "name": "start",
          "type": "uint256"
        },
        {
          "name": "end",
          "type": "uint256"
        },
        {
          "name": "paymentPeriod",
          "type": "uint256"
        }
      ],
      "name": "init",
      "outputs": [],
      "payable": false,
      "stateMutability": "nonpayable",
      "type": "function"
    },
    {
      "constant": false,
      "inputs": [
        {
          "name": "id",
          "type": "string"
        }
      ],
      "name": "setReceiver",
      "outputs": [],
      "payable": false,
      "stateMutability": "nonpayable",
      "type": "function"
    },
    {
      "constant": false,
      "inputs": [
        {
          "name": "receiverId",
          "type": "string"
        },
        {
          "name": "referenceId",
          "type": "string"
        },
        {
          "name": "referenceValue",
          "type": "string"
        },
        {
          "name": "referencePrice",
          "type": "uint256"
        }
      ],
      "name": "setReference",
      "outputs": [],
      "payable": false,
      "stateMutability": "nonpayable",
      "type": "function"
    },
    {
      "constant": false,
      "inputs": [
        {
          "name": "receiverId",
          "type": "string"
        },
        {
          "name": "referenceId",
          "type": "string"
        },
        {
          "name": "paymentCheckId",
          "type": "string"
        },
        {
          "name": "status",
          "type": "uint256"
        },
        {
          "name": "checkedAt",
          "type": "uint256"
        },
        {
          "name": "createdAt",
          "type": "uint256"
        }
      ],
      "name": "addPaymentCheck",
      "outputs": [],
      "payable": false,
      "stateMutability": "nonpayable",
      "type": "function"
    },
    {
      "constant": true,
      "inputs": [
        {
          "name": "paymentCheckId",
          "type": "string"
        }
      ],
      "name": "getPaymentCheckById",
      "outputs": [
        {
          "name": "id",
          "type": "string"
        },
        {
          "name": "status",
          "type": "uint256"
        },
        {
          "name": "checkedAt",
          "type": "uint256"
        },
        {
          "name": "createdAt",
          "type": "uint256"
        }
      ],
      "payable": false,
      "stateMutability": "view",
      "type": "function"
    },
    {
      "constant": true,
      "inputs": [
        {
          "name": "referenceId",
          "type": "string"
        }
      ],
      "name": "getLastPaymentCheckFromReference",
      "outputs": [
        {
          "name": "id",
          "type": "string"
        },
        {
          "name": "status",
          "type": "uint256"
        },
        {
          "name": "checkedAt",
          "type": "uint256"
        },
        {
          "name": "createdAt",
          "type": "uint256"
        }
      ],
      "payable": false,
      "stateMutability": "view",
      "type": "function"
    },
    {
      "constant": true,
      "inputs": [
        {
          "name": "referenceId",
          "type": "string"
        },
        {
          "name": "index",
          "type": "uint256"
        }
      ],
      "name": "getPaymentCheckFromReference",
      "outputs": [
        {
          "name": "id",
          "type": "string"
        },
        {
          "name": "status",
          "type": "uint256"
        },
        {
          "name": "checkedAt",
          "type": "uint256"
        },
        {
          "name": "createdAt",
          "type": "uint256"
        },
        {
          "name": "more",
          "type": "bool"
        }
      ],
      "payable": false,
      "stateMutability": "view",
      "type": "function"
    },
    {
      "constant": true,
      "inputs": [
        {
          "name": "referenceId",
          "type": "string"
        }
      ],
      "name": "getPaymentCheckSizeFromReference",
      "outputs": [
        {
          "name": "size",
          "type": "uint256"
        }
      ],
      "payable": false,
      "stateMutability": "view",
      "type": "function"
    },
    {
      "constant": true,
      "inputs": [
        {
          "name": "referenceId",
          "type": "string"
        }
      ],
      "name": "getReferenceById",
      "outputs": [
        {
          "name": "id",
          "type": "string"
        },
        {
          "name": "value",
          "type": "string"
        },
        {
          "name": "price",
          "type": "uint256"
        }
      ],
      "payable": false,
      "stateMutability": "view",
      "type": "function"
    },
    {
      "constant": true,
      "inputs": [
        {
          "name": "receiverId",
          "type": "string"
        },
        {
          "name": "index",
          "type": "uint256"
        }
      ],
      "name": "getReferenceFromReceiver",
      "outputs": [
        {
          "name": "id",
          "type": "string"
        },
        {
          "name": "value",
          "type": "string"
        },
        {
          "name": "price",
          "type": "uint256"
        },
        {
          "name": "more",
          "type": "bool"
        }
      ],
      "payable": false,
      "stateMutability": "view",
      "type": "function"
    },
    {
      "constant": true,
      "inputs": [
        {
          "name": "receiverId",
          "type": "string"
        }
      ],
      "name": "getReferenceSizeFromReceiver",
      "outputs": [
        {
          "name": "size",
          "type": "uint256"
        }
      ],
      "payable": false,
      "stateMutability": "view",
      "type": "function"
    },
    {
      "constant": true,
      "inputs": [
        {
          "name": "index",
          "type": "uint256"
        }
      ],
      "name": "getReceiverId",
      "outputs": [
        {
          "name": "id",
          "type": "string"
        },
        {
          "name": "more",
          "type": "bool"
        }
      ],
      "payable": false,
      "stateMutability": "view",
      "type": "function"
    }
  ],
  "bytecode": "0x60806040523480156200001157600080fd5b50604051620032e4380380620032e4833981018060405260608110156200003757600080fd5b81516020830151604084018051929491938201926401000000008111156200005e57600080fd5b820160208101848111156200007257600080fd5b81516401000000008111828201871017156200008d57600080fd5b5050604080518082018252600781527f7061796d656e740000000000000000000000000000000000000000000000000060208083019182528351808501909452601384527f7061796d656e745f636865636b2e6164646564000000000000000000000000009084015281519396509094509092506200011091600291906200017d565b508051620001269060009060208401906200017d565b505081516200013e915060099060208401906200017d565b505060088054600160a060020a0319908116331790915560068054600160a060020a039485169083161790556007805492909316911617905562000222565b828054600181600116156101000203166002900490600052602060002090601f016020900481019282601f10620001c057805160ff1916838001178555620001f0565b82800160010185558215620001f0579182015b82811115620001f0578251825591602001919060010190620001d3565b50620001fe92915062000202565b5090565b6200021f91905b80821115620001fe576000815560010162000209565b90565b6130b280620002326000396000f3fe6080604052600436106101245763ffffffff60e060020a6000350416630b97bc8681146101295780631179b1501461015057806313820f19146101da5780631c9a05ec1461028b578063395ba050146103385780635000596b1461034d5780635ee4a01a1461037e578063605b460914610393578063680488e2146103bd5780636b7eab381461058557806374452c901461063657806378f7c83f146107745780638291286c14610789578063881c2cc01461079e578063b610f10f1461095b578063bfbcafd414610a9c578063c24a0f8b14610c3b578063c7e3bb0214610c50578063d83070ab14610d01578063e2ec46e114610d16578063ef78d4fd14610e21578063f405f28014610e36578063f9b5333514610ee7578063fc2e2c2814610efc575b600080fd5b34801561013557600080fd5b5061013e611053565b60408051918252519081900360200190f35b34801561015c57600080fd5b50610165611059565b6040805160208082528351818301528351919283929083019185019080838360005b8381101561019f578181015183820152602001610187565b50505050905090810190601f1680156101cc5780820380516001836020036101000a031916815260200191505b509250505060405180910390f35b3480156101e657600080fd5b5061013e600480360360208110156101fd57600080fd5b810190602081018135602060020a81111561021757600080fd5b82018360208201111561022957600080fd5b803590602001918460018302840111602060020a8311171561024a57600080fd5b91908080601f0160208091040260200160405190810160405280939291908181526020018383808284376000920191909152509295506110e7945050505050565b34801561029757600080fd5b506102b5600480360360208110156102ae57600080fd5b503561115b565b604051808060200183151515158152602001828103825284818151815260200191508051906020019080838360005b838110156102fc5781810151838201526020016102e4565b50505050905090810190601f1680156103295780820380516001836020036101000a031916815260200191505b50935050505060405180910390f35b34801561034457600080fd5b50610165611275565b34801561035957600080fd5b506103626112d0565b60408051600160a060020a039092168252519081900360200190f35b34801561038a57600080fd5b506101656112df565b34801561039f57600080fd5b50610165600480360360208110156103b657600080fd5b5035611337565b3480156103c957600080fd5b50610583600480360360c08110156103e057600080fd5b810190602081018135602060020a8111156103fa57600080fd5b82018360208201111561040c57600080fd5b803590602001918460018302840111602060020a8311171561042d57600080fd5b91908080601f0160208091040260200160405190810160405280939291908181526020018383808284376000920191909152509295949360208101935035915050602060020a81111561047f57600080fd5b82018360208201111561049157600080fd5b803590602001918460018302840111602060020a831117156104b257600080fd5b91908080601f0160208091040260200160405190810160405280939291908181526020018383808284376000920191909152509295949360208101935035915050602060020a81111561050457600080fd5b82018360208201111561051657600080fd5b803590602001918460018302840111602060020a8311171561053757600080fd5b91908080601f01602080910402602001604051908101604052809392919081815260200183838082843760009201919091525092955050823593505050602081013590604001356113ab565b005b34801561059157600080fd5b5061013e600480360360208110156105a857600080fd5b810190602081018135602060020a8111156105c257600080fd5b8201836020820111156105d457600080fd5b803590602001918460018302840111602060020a831117156105f557600080fd5b91908080601f01602080910402602001604051908101604052809392919081815260200183838082843760009201919091525092955061151a945050505050565b34801561064257600080fd5b506106e76004803603602081101561065957600080fd5b810190602081018135602060020a81111561067357600080fd5b82018360208201111561068557600080fd5b803590602001918460018302840111602060020a831117156106a657600080fd5b91908080601f01602080910402602001604051908101604052809392919081815260200183838082843760009201919091525092955061158e945050505050565b6040518080602001858152602001848152602001838152602001828103825286818151815260200191508051906020019080838360005b8381101561073657818101518382015260200161071e565b50505050905090810190601f1680156107635780820380516001836020036101000a031916815260200191505b509550505050505060405180910390f35b34801561078057600080fd5b506101656117ca565b34801561079557600080fd5b50610165611825565b3480156107aa57600080fd5b50610583600480360360808110156107c157600080fd5b810190602081018135602060020a8111156107db57600080fd5b8201836020820111156107ed57600080fd5b803590602001918460018302840111602060020a8311171561080e57600080fd5b91908080601f0160208091040260200160405190810160405280939291908181526020018383808284376000920191909152509295949360208101935035915050602060020a81111561086057600080fd5b82018360208201111561087257600080fd5b803590602001918460018302840111602060020a8311171561089357600080fd5b91908080601f0160208091040260200160405190810160405280939291908181526020018383808284376000920191909152509295949360208101935035915050602060020a8111156108e557600080fd5b8201836020820111156108f757600080fd5b803590602001918460018302840111602060020a8311171561091857600080fd5b91908080601f0160208091040260200160405190810160405280939291908181526020018383808284376000920191909152509295505091359250611880915050565b34801561096757600080fd5b50610583600480360360a081101561097e57600080fd5b810190602081018135602060020a81111561099857600080fd5b8201836020820111156109aa57600080fd5b803590602001918460018302840111602060020a831117156109cb57600080fd5b91908080601f0160208091040260200160405190810160405280939291908181526020018383808284376000920191909152509295949360208101935035915050602060020a811115610a1d57600080fd5b820183602082011115610a2f57600080fd5b803590602001918460018302840111602060020a83111715610a5057600080fd5b91908080601f016020809104026020016040519081016040528093929190818152602001838380828437600092019190915250929550508235935050506020810135906040013561192c565b348015610aa857600080fd5b50610b4f60048036036040811015610abf57600080fd5b810190602081018135602060020a811115610ad957600080fd5b820183602082011115610aeb57600080fd5b803590602001918460018302840111602060020a83111715610b0c57600080fd5b91908080601f01602080910402602001604051908101604052809392919081815260200183838082843760009201919091525092955050913592506119dd915050565b60408051908101839052811515606082015260808082528551908201528451819060208083019160a084019189019080838360005b83811015610b9c578181015183820152602001610b84565b50505050905090810190601f168015610bc95780820380516001836020036101000a031916815260200191505b50838103825286518152865160209182019188019080838360005b83811015610bfc578181015183820152602001610be4565b50505050905090810190601f168015610c295780820380516001836020036101000a031916815260200191505b50965050505050505060405180910390f35b348015610c4757600080fd5b5061013e611c3d565b348015610c5c57600080fd5b506106e760048036036020811015610c7357600080fd5b810190602081018135602060020a811115610c8d57600080fd5b820183602082011115610c9f57600080fd5b803590602001918460018302840111602060020a83111715610cc057600080fd5b91908080601f016020809104026020016040519081016040528093929190818152602001838380828437600092019190915250929550611c43945050505050565b348015610d0d57600080fd5b50610362611eb1565b348015610d2257600080fd5b50610dc960048036036040811015610d3957600080fd5b810190602081018135602060020a811115610d5357600080fd5b820183602082011115610d6557600080fd5b803590602001918460018302840111602060020a83111715610d8657600080fd5b91908080601f0160208091040260200160405190810160405280939291908181526020018383808284376000920191909152509295505091359250611ec0915050565b6040518080602001868152602001858152602001848152602001831515151581526020018281038252878181518152602001915080519060200190808383600083811015610bfc578181015183820152602001610be4565b348015610e2d57600080fd5b5061013e6120f2565b348015610e4257600080fd5b5061058360048036036020811015610e5957600080fd5b810190602081018135602060020a811115610e7357600080fd5b820183602082011115610e8557600080fd5b803590602001918460018302840111602060020a83111715610ea657600080fd5b91908080601f0160208091040260200160405190810160405280939291908181526020018383808284376000920191909152509295506120f8945050505050565b348015610ef357600080fd5b50610362612170565b348015610f0857600080fd5b50610fad60048036036020811015610f1f57600080fd5b810190602081018135602060020a811115610f3957600080fd5b820183602082011115610f4b57600080fd5b803590602001918460018302840111602060020a83111715610f6c57600080fd5b91908080601f01602080910402602001604051908101604052809392919081815260200183838082843760009201919091525092955061217f945050505050565b604051808060200180602001848152602001838103835286818151815260200191508051906020019080838360005b83811015610ff4578181015183820152602001610fdc565b50505050905090810190601f1680156110215780820380516001836020036101000a031916815260200191505b50838103825285518152855160209182019187019080838360008381101561073657818101518382015260200161071e565b600d5481565b6000805460408051602060026001851615610100026000190190941693909304601f810184900484028201840190925281815292918301828280156110df5780601f106110b4576101008083540402835291602001916110df565b820191906000526020600020905b8154815290600101906020018083116110c257829003601f168201915b505050505081565b60006110f2826123e3565b6010826040518082805190602001908083835b602083106111245780518252601f199092019160209182019101611105565b51815160209384036101000a6000190180199092169116179052920194855250604051938490030190922060010154949350505050565b600c5460609060009083106111b0576040805160e560020a62461bcd0281526020600482015260106024820152608360020a6f09eeccae4ccd8deeecac840d2dcc8caf02604482015290519081900360640190fd5b600c546000906001850110156111c4575060015b600c8054859081106111d257fe5b60009182526020918290200180546040805160026001841615610100026000190190931692909204601f81018590048502830185019091528082529192849284918301828280156112645780601f1061123957610100808354040283529160200191611264565b820191906000526020600020905b81548152906001019060200180831161124757829003601f168201915b505050505091509250925050915091565b600a805460408051602060026001851615610100026000190190941693909304601f810184900484028201840190925281815292918301828280156110df5780601f106110b4576101008083540402835291602001916110df565b600654600160a060020a031681565b6002805460408051602060018416156101000260001901909316849004601f810184900484028201840190925281815292918301828280156110df5780601f106110b4576101008083540402835291602001916110df565b600c80548290811061134557fe5b600091825260209182902001805460408051601f60026000196101006001871615020190941693909304928301859004850281018501909152818152935090918301828280156110df5780601f106110b4576101008083540402835291602001916110df565b600854600160a060020a03163314611416576040805160e560020a62461bcd02815260206004820152602f60248201526000805160206130678339815191526044820152608960020a6e37b936903a3434b99030b1ba34b7b702606482015290519081900360840190fd5b600061142287876124bd565b9050608060405190810160405280868152602001858152602001848152602001838152506012866040518082805190602001908083835b602083106114785780518252601f199092019160209182019101611459565b51815160209384036101000a60001901801990921691161790529201948552506040519384900381019093208451805191946114b994508593500190612eeb565b50602082810151600180840191909155604084015160028401556060909301516003928301559083018054928301808255600091825290829020885191936115079391019190890190612eeb565b505061151161272d565b50505050505050565b6000611525826129b0565b6011826040518082805190602001908083835b602083106115575780518252601f199092019160209182019101611538565b51815160209384036101000a6000190180199092169116179052920194855250604051938490030190922060030154949350505050565b6060600080600061159e85612a87565b6012856040518082805190602001908083835b602083106115d05780518252601f1990920191602091820191016115b1565b51815160209384036101000a6000190180199092169116179052920194855250604051938490038101842089519094601294508a9350918291908401908083835b602083106116305780518252601f199092019160209182019101611611565b51815160209384036101000a60001901801990921691161790529201948552506040519384900381018420600101548a519094601294508b9350918291908401908083835b602083106116945780518252601f199092019160209182019101611675565b51815160209384036101000a60001901801990921691161790529201948552506040519384900381018420600201548b519094601294508c9350918291908401908083835b602083106116f85780518252601f1990920191602091820191016116d9565b518151600019602094850361010090810a82019283169219939093169190911790925294909201968752604080519788900382018820600301548b54601f6002600183161590980290950116959095049283018290048202880182019052818752929594508893509184019050828280156117b45780601f10611789576101008083540402835291602001916117b4565b820191906000526020600020905b81548152906001019060200180831161179757829003601f168201915b5050505050935093509350935093509193509193565b600b805460408051602060026001851615610100026000190190941693909304601f810184900484028201840190925281815292918301828280156110df5780601f106110b4576101008083540402835291602001916110df565b6009805460408051602060026001851615610100026000190190941693909304601f810184900484028201840190925281815292918301828280156110df5780601f106110b4576101008083540402835291602001916110df565b600854600160a060020a031633146118eb576040805160e560020a62461bcd02815260206004820152602f60248201526000805160206130678339815191526044820152608960020a6e37b936903a3434b99030b1ba34b7b702606482015290519081900360840190fd5b60006118f785856124bd565b845190915061190c9082906020870190612eeb565b5082516119229060018301906020860190612eeb565b5060020155505050565b600854600160a060020a03163314611997576040805160e560020a62461bcd02815260206004820152602f60248201526000805160206130678339815191526044820152608960020a6e37b936903a3434b99030b1ba34b7b702606482015290519081900360840190fd5b600e829055600d83905583516119b490600b906020870190612eeb565b50600f81905584516119cd90600a906020880190612eeb565b506119d6612b4c565b5050505050565b6060806000806119ec866123e3565b6010866040518082805190602001908083835b60208310611a1e5780518252601f1990920191602091820191016119ff565b51815160209384036101000a600019018019909216911617905292019485525060405193849003019092206001015487109150611a9d9050576040805160e560020a62461bcd0281526020600482015260106024820152608360020a6f09eeccae4ccd8deeecac840d2dcc8caf02604482015290519081900360640190fd5b6000809050856001016010886040518082805190602001908083835b60208310611ad85780518252601f199092019160209182019101611ab9565b51815160209384036101000a600019018019909216911617905292019485525060405193849003019092206001015492909211159150611b189050575060015b6060806000611c2860108b6040518082805190602001908083835b60208310611b525780518252601f199092019160209182019101611b33565b51815160209384036101000a6000190180199092169116179052920194855250604051938490030190922060010180549092508c91508110611b9057fe5b600091825260209182902001805460408051601f6002600019610100600187161502019094169390930492830185900485028101850190915281815292830182828015611c1e5780601f10611bf357610100808354040283529160200191611c1e565b820191906000526020600020905b815481529060010190602001808311611c0157829003601f168201915b505050505061217f565b919c909b509099509397509295505050505050565b600e5481565b60606000806000611cbe8560016011886040518082805190602001908083835b60208310611c825780518252601f199092019160209182019101611c63565b51815160209384036101000a6000190180199092169116179052920194855250604051938490030190922060030154929092039150612c319050565b611ea260126011876040518082805190602001908083835b60208310611cf55780518252601f199092019160209182019101611cd6565b6001836020036101000a038019825116818451168082178552505050505050905001915050908152602001604051809103902060030160016011896040518082805190602001908083835b60208310611d5f5780518252601f199092019160209182019101611d40565b51815160209384036101000a600019018019909216911617905292019485525060405193849003019092206003015484549390039283109150611da0905057fe5b906000526020600020016040518082805460018160011615610100020316600290048015611e055780601f10611de3576101008083540402835291820191611e05565b820191906000526020600020905b815481529060010190602001808311611df1575b505092835250506040805160209281900383018120805460026001821615610100026000190190911604601f81018590048502830185019093528282529092909190830182828015611e985780601f10611e6d57610100808354040283529160200191611e98565b820191906000526020600020905b815481529060010190602001808311611e7b57829003601f168201915b505050505061158e565b93509350935093509193509193565b600754600160a060020a031681565b6060600080600080611ed1876129b0565b6011876040518082805190602001908083835b60208310611f035780518252601f199092019160209182019101611ee4565b51815160209384036101000a600019018019909216911617905292019485525060405193849003019092206003015488109150611f829050576040805160e560020a62461bcd0281526020600482015260106024820152608360020a6f09eeccae4ccd8deeecac840d2dcc8caf02604482015290519081900360640190fd5b6000809050866001016011896040518082805190602001908083835b60208310611fbd5780518252601f199092019160209182019101611f9e565b51815160209384036101000a600019018019909216911617905292019485525060405193849003019092206003015492909211159150611ffd9050575060015b606060008060006120da60118d6040518082805190602001908083835b602083106120395780518252601f19909201916020918201910161201a565b51815160209384036101000a6000190180199092169116179052920194855250604051938490030190922060030180549092508e9150811061207757fe5b600091825260209182902001805460408051601f6002600019610100600187161502019094169390930492830185900485028101850190915281815292830182828015611e985780601f10611e6d57610100808354040283529160200191611e98565b929f919e509c50909a50949850939650505050505050565b600f5481565b600854600160a060020a03163314612163576040805160e560020a62461bcd02815260206004820152602f60248201526000805160206130678339815191526044820152608960020a6e37b936903a3434b99030b1ba34b7b702606482015290519081900360840190fd5b61216c81612d0d565b5050565b600854600160a060020a031681565b606080600061218d846129b0565b6011846040518082805190602001908083835b602083106121bf5780518252601f1990920191602091820191016121a0565b51815160209384036101000a600019018019909216911617905292019485525060405193849003810184208851909460119450899350918291908401908083835b6020831061221f5780518252601f199092019160209182019101612200565b6001836020036101000a03801982511681845116808217855250505050505090500191505090815260200160405180910390206001016011866040518082805190602001908083835b602083106122875780518252601f199092019160209182019101612268565b518151600019602094850361010090810a820192831692199390931691909117909252949092019687526040805197889003820188206002908101548b54601f60018216159098029095019094160494850182900482028801820190528387529095945087935084019050828280156123415780601f1061231657610100808354040283529160200191612341565b820191906000526020600020905b81548152906001019060200180831161232457829003601f168201915b5050855460408051602060026001851615610100026000190190941693909304601f8101849004840282018401909252818152959850879450925084019050828280156123cf5780601f106123a4576101008083540402835291602001916123cf565b820191906000526020600020905b8154815290600101906020018083116123b257829003601f168201915b505050505091509250925092509193909250565b6010816040518082805190602001908083835b602083106124155780518252601f1990920191602091820191016123f6565b6001836020036101000a03801982511681845116808217855250505050505090500191505090815260200160405180910390206000018054600181600116156101000203166002900490506000141515156124ba576040805160e560020a62461bcd02815260206004820152601b60248201527f5468697320726563656976657220646f65736e27742065786973740000000000604482015290519081900360640190fd5b50565b60006124c883612d0d565b506011826040518082805190602001908083835b602083106124fb5780518252601f1990920191602091820191016124dc565b6001836020036101000a0380198251168184511680821785525050505050509050019150509081526020016040518091039020600001805460018160011615610100020316600290049050600014156126c75760606080604051908101604052808481526020016020604051908101604052806000815250815260200160008152602001828152506011846040518082805190602001908083835b602083106125b55780518252601f199092019160209182019101612596565b51815160209384036101000a60001901801990921691161790529201948552506040519384900381019093208451805191946125f694508593500190612eeb565b50602082810151805161260f9260018501920190612eeb565b506040820151600282015560608201518051612635916003840191602090910190612f69565b509050506010846040518082805190602001908083835b6020831061266b5780518252601f19909201916020918201910161264c565b51815160209384036101000a600019018019909216911617905292019485525060405193849003810190932060019081018054918201808255600091825290859020885191956126c395509201925090870190612eeb565b5050505b6011826040518082805190602001908083835b602083106126f95780518252601f1990920191602091820191016126da565b51815160209384036101000a6000190180199092169116179052920194855250604051938490030190922095945050505050565b6000805b6006546040805160e260020a633ce8989d0281526024810184905260048101918252600080546002600019600183161561010002019091160460448301819052600160a060020a039094169363f3a26274939192869291829160640190859080156127dd5780601f106127b2576101008083540402835291602001916127dd565b820191906000526020600020905b8154815290600101906020018083116127c057829003601f168201915b5050935050505060206040518083038186803b1580156127fc57600080fd5b505afa158015612810573d6000803e3d6000fd5b505050506040513d602081101561282657600080fd5b50519150600101600160a060020a0382161561299c5760408051306044820181905260248201928352600080546002600019610100600184161502019091160460648401819052600160a060020a0387169491938291608490910190859080156128d15780601f106128a6576101008083540402835291602001916128d1565b820191906000526020600020905b8154815290600101906020018083116128b457829003601f168201915b505060408051601f19818403018152918152602082018051600160e060020a031660e160020a63738f32bb0217815290518251929650945084935091508083835b602083106129315780518252601f199092019160209182019101612912565b6001836020036101000a0380198251168184511680821785525050505050509050019150506000604051808303816000865af19150503d8060008114612993576040519150601f19603f3d011682016040523d82523d6000602084013e612998565b606091505b5050505b600160a060020a0382161515612731575050565b6011816040518082805190602001908083835b602083106129e25780518252601f1990920191602091820191016129c3565b6001836020036101000a03801982511681845116808217855250505050505090500191505090815260200160405180910390206000018054600181600116156101000203166002900490506000141515156124ba576040805160e560020a62461bcd02815260206004820152601c60248201527f54686973207265666572656e636520646f65736e277420657869737400000000604482015290519081900360640190fd5b6012816040518082805190602001908083835b60208310612ab95780518252601f199092019160209182019101612a9a565b6001836020036101000a03801982511681845116808217855250505050505090500191505090815260200160405180910390206000018054600181600116156101000203166002900490506000141515156124ba576040805160e560020a62461bcd0281526020600482018190526024820152600080516020613047833981519152604482015290519081900360640190fd5b6007546040805160e160020a63738f32bb02815230602482018190526004820192835260028054600019600182161561010002011681900460448401819052600160a060020a039095169463e71e6576949193829160649091019085908015612bf65780601f10612bcb57610100808354040283529160200191612bf6565b820191906000526020600020905b815481529060010190602001808311612bd957829003601f168201915b50509350505050600060405180830381600087803b158015612c1757600080fd5b505af1158015612c2b573d6000803e3d6000fd5b50505050565b612c3a826129b0565b6011826040518082805190602001908083835b60208310612c6c5780518252601f199092019160209182019101612c4d565b51815160209384036101000a6000190180199092169116179052920194855250604051938490030190922060030180549092508391508110612caa57fe5b60009182526020909120015460026000196101006001841615020190911604151561216c576040805160e560020a62461bcd0281526020600482018190526024820152600080516020613047833981519152604482015290519081900360640190fd5b60006010826040518082805190602001908083835b60208310612d415780518252601f199092019160209182019101612d22565b6001836020036101000a038019825116818451168082178552505050505050905001915050908152602001604051809103902060000180546001816001161561010002031660029004905060001415612e865760606040805190810160405280848152602001828152506010846040518082805190602001908083835b60208310612ddd5780518252601f199092019160209182019101612dbe565b51815160209384036101000a6000190180199092169116179052920194855250604051938490038101909320845180519194612e1e94508593500190612eeb565b506020828101518051612e379260018501920190612f69565b5050600c8054600181018083556000929092528551919250612e82917fdf6966c971051c3d54ec59162606531493a51404a002842f56009d7e5cf4a8c7909101906020870190612eeb565b5050505b6010826040518082805190602001908083835b60208310612eb85780518252601f199092019160209182019101612e99565b51815160209384036101000a60001901801990921691161790529201948552506040519384900301909220949350505050565b828054600181600116156101000203166002900490600052602060002090601f016020900481019282601f10612f2c57805160ff1916838001178555612f59565b82800160010185558215612f59579182015b82811115612f59578251825591602001919060010190612f3e565b50612f65929150612fc2565b5090565b828054828255906000526020600020908101928215612fb6579160200282015b82811115612fb65782518051612fa6918491602090910190612eeb565b5091602001919060010190612f89565b50612f65929150612fdf565b612fdc91905b80821115612f655760008155600101612fc8565b90565b612fdc91905b80821115612f65576000612ff98282613002565b50600101612fe5565b50805460018160011615610100020316600290046000825580601f1061302857506124ba565b601f0160209004906000526020600020908101906124ba9190612fc256fe54686973207061796d656e7420636865636b20646f65736e27742065786973744f6e6c79205369676e617475726974206163636f756e742063616e2070657266a165627a7a72305820f7021e9c04e6427c06c42c0ef3c39fc481b26832ec15b23d3fd195ce8a641f440029",
  "source": "pragma solidity <0.6.0;\n\n/*\nGas to deploy: 3.347.342\n\nPaymentCheck status legend:\n\nUNPROCESSED    = 0;\nPROCESSING     = 1;\nPAID           = 2;\nOVER_PAID      = 3;\nPARTIALLY_PAID = 4;\n*/\n\nimport \"./Clause.sol\";\n\n\ncontract Payment is Clause(\n    \"payment\",\n    \"payment_check.added\"\n)\n{\n    struct PaymentCheck {\n        string id;\n        uint status;\n        uint checkedAt;\n        uint createdAt;\n    }\n\n    struct Reference {\n        string id;\n        string value;\n        uint price;\n        string[] checks;\n    }\n\n    struct Receiver {\n        string id;\n        string[] references;\n    }\n\n    address public signaturit;\n\n    string public contractId;\n    string public signatureId;\n    string public documentId;\n\n    string[] public receiversArray;\n\n    uint public startDate;\n    uint public endDate;\n    uint public period;\n\n    mapping(string => Receiver) private receivers;\n    mapping(string => Reference) private references;\n    mapping(string => PaymentCheck) private paymentChecks;\n\n    constructor(\n        address userContractAddress,\n        address signatureContractAddress,\n        string memory id\n    )\n        public\n    {\n        contractId = id;\n        signaturit = msg.sender;\n\n        userContract = SignaturitUserInterface(userContractAddress);\n        signatureContract = NotifierInterface(signatureContractAddress);\n    }\n\n    modifier signaturitOnly() {\n        require(\n            msg.sender == signaturit,\n            \"Only Signaturit account can perform this action\"\n        );\n\n        _;\n    }\n\n    function init(\n        string memory signature,\n        string memory document,\n        uint start,\n        uint end,\n        uint paymentPeriod\n    )\n        public\n        signaturitOnly\n    {\n        endDate = end;\n        startDate = start;\n        documentId = document;\n        period = paymentPeriod;\n        signatureId = signature;\n\n        _notifySignature();\n    }\n\n    function setReceiver(\n        string memory id\n    )\n        public\n        signaturitOnly\n    {\n        _getReceiver(id);\n    }\n\n    function setReference(\n        string memory receiverId,\n        string memory referenceId,\n        string memory referenceValue,\n        uint referencePrice\n    )\n        public\n        signaturitOnly\n    {\n        Reference storage newReference = _getReference(\n            receiverId,\n            referenceId\n        );\n\n        newReference.id = referenceId;\n        newReference.value = referenceValue;\n        newReference.price = referencePrice;\n    }\n\n    function addPaymentCheck(\n        string memory receiverId,\n        string memory referenceId,\n        string memory paymentCheckId,\n        uint status,\n        uint checkedAt,\n        uint createdAt\n    )\n        public\n        signaturitOnly\n    {\n        Reference storage newReference = _getReference(\n            receiverId,\n            referenceId\n        );\n\n        paymentChecks[paymentCheckId] = PaymentCheck(\n            paymentCheckId,\n            status,\n            checkedAt,\n            createdAt\n        );\n\n        newReference.checks.push(paymentCheckId);\n\n        _notify();\n    }\n\n    // Get paymentCheck if you got the id\n    function getPaymentCheckById(\n        string memory paymentCheckId\n    )\n        public\n        view\n        returns (\n            string memory id,\n            uint status,\n            uint checkedAt,\n            uint createdAt\n        )\n    {\n        _checkPaymentCheckExistence(paymentCheckId);\n\n        return (\n            paymentChecks[paymentCheckId].id,\n            paymentChecks[paymentCheckId].status,\n            paymentChecks[paymentCheckId].checkedAt,\n            paymentChecks[paymentCheckId].createdAt\n        );\n    }\n\n    // Get paymentCheckID if you want the last one given a referenceId\n    function getLastPaymentCheckFromReference(\n        string memory referenceId\n    )\n        public\n        view\n        returns (\n            string memory id,\n            uint status,\n            uint checkedAt,\n            uint createdAt\n        )\n    {\n        _checkPaymentCheckFromReferenceExistence(\n            referenceId,\n            references[referenceId].checks.length - 1\n        );\n\n        return getPaymentCheckById(\n            paymentChecks[\n                references[\n                    referenceId\n                ].checks[\n                    references[\n                        referenceId\n                    ].checks.length - 1\n                ]\n            ].id\n        );\n    }\n\n    // Get paymentCheckID if you want to iterate through all\n    // the paymentChecks of a reference\n    function getPaymentCheckFromReference(\n        string memory referenceId,\n        uint index\n    )\n        public\n        view\n        returns (\n            string memory id,\n            uint status,\n            uint checkedAt,\n            uint createdAt,\n            bool more\n        )\n    {\n        _checkReferenceExistence(referenceId);\n\n        require(\n            index < references[referenceId].checks.length,\n            \"Overflowed index\"\n        );\n\n        bool thereIsMore = false;\n\n        if (references[referenceId].checks.length > index + 1)\n            thereIsMore = true;\n\n        (\n            string memory paymentCheckId,\n            uint paymentCheckStatus,\n            uint paymentCheckCheckedAt,\n            uint paymentCheckCreatedAt\n        ) = getPaymentCheckById(\n            references[referenceId].checks[index]\n        );\n\n        return(\n            paymentCheckId,\n            paymentCheckStatus,\n            paymentCheckCheckedAt,\n            paymentCheckCreatedAt,\n            thereIsMore\n        );\n    }\n\n    // Get how many paymentChecks there are for a reference\n    function getPaymentCheckSizeFromReference(\n        string memory referenceId\n    )\n        public\n        view\n        returns (uint size)\n    {\n        _checkReferenceExistence(referenceId);\n\n        return references[referenceId].checks.length;\n    }\n\n    // Get reference if you got the id\n    function getReferenceById(\n        string memory referenceId\n    )\n        public\n        view\n        returns (\n            string memory id,\n            string memory value,\n            uint price\n        )\n    {\n        _checkReferenceExistence(referenceId);\n\n        return(\n            references[referenceId].id,\n            references[referenceId].value,\n            references[referenceId].price\n        );\n    }\n\n    // Get referenceID if you want to iterate through all\n    // the references of a receiver\n    function getReferenceFromReceiver(\n        string memory receiverId,\n        uint index\n    )\n        public\n        view\n        returns (\n            string memory id,\n            string memory value,\n            uint price,\n            bool more\n        )\n    {\n        _checkReceiverExistence(receiverId);\n\n        require(\n            index < receivers[receiverId].references.length,\n            \"Overflowed index\"\n        );\n\n        bool thereIsMore = false;\n\n        if (receivers[receiverId].references.length > index + 1)\n            thereIsMore = true;\n\n        (\n            string memory referenceId,\n            string memory referenceValue,\n            uint referencePrice\n        ) = getReferenceById(\n            receivers[receiverId].references[index]\n        );\n\n        return(\n            referenceId,\n            referenceValue,\n            referencePrice,\n            thereIsMore\n        );\n    }\n\n    // Get references size from receiver\n    function getReferenceSizeFromReceiver(\n        string memory receiverId\n    )\n        public\n        view\n        returns (uint size)\n    {\n        _checkReceiverExistence(receiverId);\n\n        return receivers[receiverId].references.length;\n    }\n\n    // Get receiverID by index\n    function getReceiverId(\n        uint index\n    )\n        public\n        view\n        returns (\n            string memory id,\n            bool more\n        )\n    {\n        require(\n            index < receiversArray.length,\n            \"Overflowed index\"\n        );\n\n        bool thereIsMore = false;\n\n        if (receiversArray.length > index + 1)\n            thereIsMore = true;\n\n        return(\n            receiversArray[index],\n            thereIsMore\n        );\n    }\n\n    function _getReceiver(\n        string memory id\n    )\n        private\n        returns (Receiver storage)\n    {\n        if (bytes(receivers[id].id).length == 0) {\n\n            string[] memory tmpString;\n\n            receivers[id] = Receiver(id, tmpString);\n\n            receiversArray.push(id);\n        }\n\n        return receivers[id];\n    }\n\n    function _getReference(\n        string memory receiverId,\n        string memory referenceId\n    )\n        private\n        returns (Reference storage)\n    {\n        _getReceiver(receiverId);\n\n        if (bytes(references[referenceId].id).length == 0) {\n\n            string[] memory tmpPaymentChecks;\n\n            references[referenceId] = Reference(\n                referenceId,\n                \"\",\n                0,\n                tmpPaymentChecks\n            );\n\n            receivers[receiverId].references.push(referenceId);\n        }\n\n        return references[referenceId];\n    }\n\n    function _checkReferenceExistence(\n        string memory id\n    )\n        private\n        view\n    {\n        require(\n            bytes(references[id].id).length != 0,\n            \"This reference doesn't exist\"\n        );\n    }\n\n    function _checkReceiverExistence(\n        string memory id\n    )\n        private\n        view\n    {\n        require(\n            bytes(receivers[id].id).length != 0,\n            \"This receiver doesn't exist\"\n        );\n    }\n\n    function _checkPaymentCheckFromReferenceExistence(\n        string memory referenceId,\n        uint index\n    )\n        private\n        view\n    {\n        _checkReferenceExistence(referenceId);\n\n        require(\n            bytes(references[referenceId].checks[index]).length != 0,\n            \"This payment check doesn't exist\"\n        );\n    }\n\n    function _checkPaymentCheckExistence(\n        string memory id\n    )\n        private\n        view\n    {\n        require(\n            bytes(paymentChecks[id].id).length != 0,\n            \"This payment check doesn't exist\"\n        );\n    }\n}\n",
  "sourcePath": "/home/administrator/workspace/signaturit-solidity-contracts/contracts/Payment.sol",
  "compiler": {
    "name": "solc",
    "version": "0.5.0+commit.1d4f565a.Emscripten.clang"
  },
  "schemaVersion": "3.0.11",
  "updatedAt": "2019-10-07T12:01:23.907Z",
  "devdoc": {
    "methods": {}
  },
  "userdoc": {
    "methods": {}
  }
}