{
  "contractName": "Payment",
  "abi": [
    {
      "constant": true,
      "inputs": [],
      "name": "startDate",
      "outputs": [
        {
          "name": "",
          "type": "uint256"
        }
      ],
      "payable": false,
      "stateMutability": "view",
      "type": "function"
    },
    {
      "constant": true,
      "inputs": [],
      "name": "signatureId",
      "outputs": [
        {
          "name": "",
          "type": "string"
        }
      ],
      "payable": false,
      "stateMutability": "view",
      "type": "function"
    },
    {
      "constant": true,
      "inputs": [
        {
          "name": "",
          "type": "uint256"
        }
      ],
      "name": "receiversArray",
      "outputs": [
        {
          "name": "",
          "type": "string"
        }
      ],
      "payable": false,
      "stateMutability": "view",
      "type": "function"
    },
    {
      "constant": true,
      "inputs": [],
      "name": "documentId",
      "outputs": [
        {
          "name": "",
          "type": "string"
        }
      ],
      "payable": false,
      "stateMutability": "view",
      "type": "function"
    },
    {
      "constant": true,
      "inputs": [],
      "name": "contractId",
      "outputs": [
        {
          "name": "",
          "type": "string"
        }
      ],
      "payable": false,
      "stateMutability": "view",
      "type": "function"
    },
    {
      "constant": true,
      "inputs": [],
      "name": "userSmartContract",
      "outputs": [
        {
          "name": "",
          "type": "address"
        }
      ],
      "payable": false,
      "stateMutability": "view",
      "type": "function"
    },
    {
      "constant": true,
      "inputs": [],
      "name": "endDate",
      "outputs": [
        {
          "name": "",
          "type": "uint256"
        }
      ],
      "payable": false,
      "stateMutability": "view",
      "type": "function"
    },
    {
      "constant": true,
      "inputs": [],
      "name": "signatureSmartContract",
      "outputs": [
        {
          "name": "",
          "type": "address"
        }
      ],
      "payable": false,
      "stateMutability": "view",
      "type": "function"
    },
    {
      "constant": true,
      "inputs": [],
      "name": "period",
      "outputs": [
        {
          "name": "",
          "type": "uint256"
        }
      ],
      "payable": false,
      "stateMutability": "view",
      "type": "function"
    },
    {
      "constant": true,
      "inputs": [],
      "name": "signaturit",
      "outputs": [
        {
          "name": "",
          "type": "address"
        }
      ],
      "payable": false,
      "stateMutability": "view",
      "type": "function"
    },
    {
      "inputs": [
        {
          "name": "userContract",
          "type": "address"
        },
        {
          "name": "signatureContract",
          "type": "address"
        },
        {
          "name": "id",
          "type": "string"
        }
      ],
      "payable": false,
      "stateMutability": "nonpayable",
      "type": "constructor"
    },
    {
      "constant": false,
      "inputs": [
        {
          "name": "signature",
          "type": "string"
        },
        {
          "name": "document",
          "type": "string"
        },
        {
          "name": "start",
          "type": "uint256"
        },
        {
          "name": "end",
          "type": "uint256"
        },
        {
          "name": "paymentPeriod",
          "type": "uint256"
        }
      ],
      "name": "init",
      "outputs": [],
      "payable": false,
      "stateMutability": "nonpayable",
      "type": "function"
    },
    {
      "constant": false,
      "inputs": [
        {
          "name": "id",
          "type": "string"
        }
      ],
      "name": "setReceiver",
      "outputs": [],
      "payable": false,
      "stateMutability": "nonpayable",
      "type": "function"
    },
    {
      "constant": false,
      "inputs": [
        {
          "name": "receiverId",
          "type": "string"
        },
        {
          "name": "referenceId",
          "type": "string"
        },
        {
          "name": "referenceValue",
          "type": "string"
        },
        {
          "name": "referencePrice",
          "type": "uint256"
        }
      ],
      "name": "setReference",
      "outputs": [],
      "payable": false,
      "stateMutability": "nonpayable",
      "type": "function"
    },
    {
      "constant": false,
      "inputs": [
        {
          "name": "receiverId",
          "type": "string"
        },
        {
          "name": "referenceId",
          "type": "string"
        },
        {
          "name": "statementId",
          "type": "string"
        },
        {
          "name": "status",
          "type": "uint256"
        },
        {
          "name": "receivedAt",
          "type": "uint256"
        },
        {
          "name": "checkedAt",
          "type": "uint256"
        }
      ],
      "name": "addStatement",
      "outputs": [],
      "payable": false,
      "stateMutability": "nonpayable",
      "type": "function"
    },
    {
      "constant": true,
      "inputs": [
        {
          "name": "statementId",
          "type": "string"
        }
      ],
      "name": "getStatementById",
      "outputs": [
        {
          "name": "id",
          "type": "string"
        },
        {
          "name": "status",
          "type": "uint256"
        },
        {
          "name": "receivedAt",
          "type": "uint256"
        },
        {
          "name": "createdAt",
          "type": "uint256"
        }
      ],
      "payable": false,
      "stateMutability": "view",
      "type": "function"
    },
    {
      "constant": true,
      "inputs": [
        {
          "name": "referenceId",
          "type": "string"
        }
      ],
      "name": "getLastStatementFromReference",
      "outputs": [
        {
          "name": "id",
          "type": "string"
        },
        {
          "name": "status",
          "type": "uint256"
        },
        {
          "name": "receivedAt",
          "type": "uint256"
        },
        {
          "name": "createdAt",
          "type": "uint256"
        }
      ],
      "payable": false,
      "stateMutability": "view",
      "type": "function"
    },
    {
      "constant": true,
      "inputs": [
        {
          "name": "referenceId",
          "type": "string"
        },
        {
          "name": "index",
          "type": "uint256"
        }
      ],
      "name": "getStatementFromReference",
      "outputs": [
        {
          "name": "id",
          "type": "string"
        },
        {
          "name": "status",
          "type": "uint256"
        },
        {
          "name": "receivedAt",
          "type": "uint256"
        },
        {
          "name": "createdAt",
          "type": "uint256"
        },
        {
          "name": "more",
          "type": "bool"
        }
      ],
      "payable": false,
      "stateMutability": "view",
      "type": "function"
    },
    {
      "constant": true,
      "inputs": [
        {
          "name": "referenceId",
          "type": "string"
        }
      ],
      "name": "getStatementSizeFromReference",
      "outputs": [
        {
          "name": "size",
          "type": "uint256"
        }
      ],
      "payable": false,
      "stateMutability": "view",
      "type": "function"
    },
    {
      "constant": true,
      "inputs": [
        {
          "name": "referenceId",
          "type": "string"
        }
      ],
      "name": "getReferenceById",
      "outputs": [
        {
          "name": "id",
          "type": "string"
        },
        {
          "name": "value",
          "type": "string"
        },
        {
          "name": "price",
          "type": "uint256"
        }
      ],
      "payable": false,
      "stateMutability": "view",
      "type": "function"
    },
    {
      "constant": true,
      "inputs": [
        {
          "name": "receiverId",
          "type": "string"
        },
        {
          "name": "index",
          "type": "uint256"
        }
      ],
      "name": "getReferenceFromReceiver",
      "outputs": [
        {
          "name": "id",
          "type": "string"
        },
        {
          "name": "value",
          "type": "string"
        },
        {
          "name": "price",
          "type": "uint256"
        },
        {
          "name": "more",
          "type": "bool"
        }
      ],
      "payable": false,
      "stateMutability": "view",
      "type": "function"
    },
    {
      "constant": true,
      "inputs": [
        {
          "name": "receiverId",
          "type": "string"
        }
      ],
      "name": "getReferenceSizeFromReceiver",
      "outputs": [
        {
          "name": "size",
          "type": "uint256"
        }
      ],
      "payable": false,
      "stateMutability": "view",
      "type": "function"
    },
    {
      "constant": true,
      "inputs": [
        {
          "name": "index",
          "type": "uint256"
        }
      ],
      "name": "getReceiverId",
      "outputs": [
        {
          "name": "id",
          "type": "string"
        },
        {
          "name": "more",
          "type": "bool"
        }
      ],
      "payable": false,
      "stateMutability": "view",
      "type": "function"
    }
  ],
  "bytecode": "0x60806040523480156200001157600080fd5b506040516200302a3803806200302a833981018060405260608110156200003757600080fd5b81516020830151604084018051929491938201926401000000008111156200005e57600080fd5b820160208101848111156200007257600080fd5b81516401000000008111828201871017156200008d57600080fd5b50508051909350620000a99250600191506020840190620000e8565b505060008054600160a060020a03199081163317909155600b8054600160a060020a03948516908316179055600c80549290931691161790556200018d565b828054600181600116156101000203166002900490600052602060002090601f016020900481019282601f106200012b57805160ff19168380011785556200015b565b828001600101855582156200015b579182015b828111156200015b5782518255916020019190600101906200013e565b50620001699291506200016d565b5090565b6200018a91905b8082111562000169576000815560010162000174565b90565b612e8d806200019d6000396000f3fe60806040526004361061010e5763ffffffff60e060020a6000350416630b97bc8681146101135780630f1123dd1461013a57806313820f19146101eb5780631c9a05ec1461029c578063395ba050146103495780635ea8aa51146103d3578063605b46091461051e57806378f7c83f146105485780638291286c1461055d578063881c2cc014610572578063932eb5d514610731578063b610f10f1461086f578063b75a64ab146109b0578063bfbcafd414610a61578063c004240c14610bc0578063c24a0f8b14610bf1578063c511d53114610c06578063e2902b2f14610c1b578063ef78d4fd14610de1578063f405f28014610df6578063f9b5333514610ea7578063fc2e2c2814610ebc575b600080fd5b34801561011f57600080fd5b50610128611013565b60408051918252519081900360200190f35b34801561014657600080fd5b506101286004803603602081101561015d57600080fd5b810190602081018135602060020a81111561017757600080fd5b82018360208201111561018957600080fd5b803590602001918460018302840111602060020a831117156101aa57600080fd5b91908080601f016020809104026020016040519081016040528093929190818152602001838380828437600092019190915250929550611019945050505050565b3480156101f757600080fd5b506101286004803603602081101561020e57600080fd5b810190602081018135602060020a81111561022857600080fd5b82018360208201111561023a57600080fd5b803590602001918460018302840111602060020a8311171561025b57600080fd5b91908080601f01602080910402602001604051908101604052809392919081815260200183838082843760009201919091525092955061108d945050505050565b3480156102a857600080fd5b506102c6600480360360208110156102bf57600080fd5b5035611101565b604051808060200183151515158152602001828103825284818151815260200191508051906020019080838360005b8381101561030d5781810151838201526020016102f5565b50505050905090810190601f16801561033a5780820380516001836020036101000a031916815260200191505b50935050505060405180910390f35b34801561035557600080fd5b5061035e61121b565b6040805160208082528351818301528351919283929083019185019080838360005b83811015610398578181015183820152602001610380565b50505050905090810190601f1680156103c55780820380516001836020036101000a031916815260200191505b509250505060405180910390f35b3480156103df57600080fd5b50610486600480360360408110156103f657600080fd5b810190602081018135602060020a81111561041057600080fd5b82018360208201111561042257600080fd5b803590602001918460018302840111602060020a8311171561044357600080fd5b91908080601f01602080910402602001604051908101604052809392919081815260200183838082843760009201919091525092955050913592506112a6915050565b604051808060200186815260200185815260200184815260200183151515158152602001828103825287818151815260200191508051906020019080838360005b838110156104df5781810151838201526020016104c7565b50505050905090810190601f16801561050c5780820380516001836020036101000a031916815260200191505b50965050505050505060405180910390f35b34801561052a57600080fd5b5061035e6004803603602081101561054157600080fd5b503561150d565b34801561055457600080fd5b5061035e611581565b34801561056957600080fd5b5061035e6115dc565b34801561057e57600080fd5b5061072f6004803603608081101561059557600080fd5b810190602081018135602060020a8111156105af57600080fd5b8201836020820111156105c157600080fd5b803590602001918460018302840111602060020a831117156105e257600080fd5b91908080601f0160208091040260200160405190810160405280939291908181526020018383808284376000920191909152509295949360208101935035915050602060020a81111561063457600080fd5b82018360208201111561064657600080fd5b803590602001918460018302840111602060020a8311171561066757600080fd5b91908080601f0160208091040260200160405190810160405280939291908181526020018383808284376000920191909152509295949360208101935035915050602060020a8111156106b957600080fd5b8201836020820111156106cb57600080fd5b803590602001918460018302840111602060020a831117156106ec57600080fd5b91908080601f0160208091040260200160405190810160405280939291908181526020018383808284376000920191909152509295505091359250611636915050565b005b34801561073d57600080fd5b506107e26004803603602081101561075457600080fd5b810190602081018135602060020a81111561076e57600080fd5b82018360208201111561078057600080fd5b803590602001918460018302840111602060020a831117156107a157600080fd5b91908080601f0160208091040260200160405190810160405280939291908181526020018383808284376000920191909152509295506116e2945050505050565b6040518080602001858152602001848152602001838152602001828103825286818151815260200191508051906020019080838360005b83811015610831578181015183820152602001610819565b50505050905090810190601f16801561085e5780820380516001836020036101000a031916815260200191505b509550505050505060405180910390f35b34801561087b57600080fd5b5061072f600480360360a081101561089257600080fd5b810190602081018135602060020a8111156108ac57600080fd5b8201836020820111156108be57600080fd5b803590602001918460018302840111602060020a831117156108df57600080fd5b91908080601f0160208091040260200160405190810160405280939291908181526020018383808284376000920191909152509295949360208101935035915050602060020a81111561093157600080fd5b82018360208201111561094357600080fd5b803590602001918460018302840111602060020a8311171561096457600080fd5b91908080601f016020809104026020016040519081016040528093929190818152602001838380828437600092019190915250929550508235935050506020810135906040013561191b565b3480156109bc57600080fd5b506107e2600480360360208110156109d357600080fd5b810190602081018135602060020a8111156109ed57600080fd5b8201836020820111156109ff57600080fd5b803590602001918460018302840111602060020a83111715610a2057600080fd5b91908080601f016020809104026020016040519081016040528093929190818152602001838380828437600092019190915250929550611a4c945050505050565b348015610a6d57600080fd5b50610b1460048036036040811015610a8457600080fd5b810190602081018135602060020a811115610a9e57600080fd5b820183602082011115610ab057600080fd5b803590602001918460018302840111602060020a83111715610ad157600080fd5b91908080601f0160208091040260200160405190810160405280939291908181526020018383808284376000920191909152509295505091359250611c88915050565b60408051908101839052811515606082015260808082528551908201528451819060208083019160a084019189019080838360005b83811015610b61578181015183820152602001610b49565b50505050905090810190601f168015610b8e5780820380516001836020036101000a031916815260200191505b5083810382528651815286516020918201918801908083836000838110156104df5781810151838201526020016104c7565b348015610bcc57600080fd5b50610bd5611ee8565b60408051600160a060020a039092168252519081900360200190f35b348015610bfd57600080fd5b50610128611ef7565b348015610c1257600080fd5b50610bd5611efd565b348015610c2757600080fd5b5061072f600480360360c0811015610c3e57600080fd5b810190602081018135602060020a811115610c5857600080fd5b820183602082011115610c6a57600080fd5b803590602001918460018302840111602060020a83111715610c8b57600080fd5b91908080601f0160208091040260200160405190810160405280939291908181526020018383808284376000920191909152509295949360208101935035915050602060020a811115610cdd57600080fd5b820183602082011115610cef57600080fd5b803590602001918460018302840111602060020a83111715610d1057600080fd5b91908080601f0160208091040260200160405190810160405280939291908181526020018383808284376000920191909152509295949360208101935035915050602060020a811115610d6257600080fd5b820183602082011115610d7457600080fd5b803590602001918460018302840111602060020a83111715610d9557600080fd5b91908080601f0160208091040260200160405190810160405280939291908181526020018383808284376000920191909152509295505082359350505060208101359060400135611f0c565b348015610ded57600080fd5b50610128612235565b348015610e0257600080fd5b5061072f60048036036020811015610e1957600080fd5b810190602081018135602060020a811115610e3357600080fd5b820183602082011115610e4557600080fd5b803590602001918460018302840111602060020a83111715610e6657600080fd5b91908080601f01602080910402602001604051908101604052809392919081815260200183838082843760009201919091525092955061223b945050505050565b348015610eb357600080fd5b50610bd56122b3565b348015610ec857600080fd5b50610f6d60048036036020811015610edf57600080fd5b810190602081018135602060020a811115610ef957600080fd5b820183602082011115610f0b57600080fd5b803590602001918460018302840111602060020a83111715610f2c57600080fd5b91908080601f0160208091040260200160405190810160405280939291908181526020018383808284376000920191909152509295506122c2945050505050565b604051808060200180602001848152602001838103835286818151815260200191508051906020019080838360005b83811015610fb4578181015183820152602001610f9c565b50505050905090810190601f168015610fe15780820380516001836020036101000a031916815260200191505b508381038252855181528551602091820191870190808383600083811015610831578181015183820152602001610819565b60055481565b600061102482612526565b6009826040518082805190602001908083835b602083106110565780518252601f199092019160209182019101611037565b51815160209384036101000a6000190180199092169116179052920194855250604051938490030190922060030154949350505050565b600061109882612600565b6008826040518082805190602001908083835b602083106110ca5780518252601f1990920191602091820191016110ab565b51815160209384036101000a6000190180199092169116179052920194855250604051938490030190922060010154949350505050565b6004546060906000908310611156576040805160e560020a62461bcd0281526020600482015260106024820152608360020a6f09eeccae4ccd8deeecac840d2dcc8caf02604482015290519081900360640190fd5b60045460009060018501101561116a575060015b600480548590811061117857fe5b60009182526020918290200180546040805160026001841615610100026000190190931692909204601f810185900485028301850190915280825291928492849183018282801561120a5780601f106111df5761010080835404028352916020019161120a565b820191906000526020600020905b8154815290600101906020018083116111ed57829003601f168201915b505050505091509250925050915091565b6002805460408051602060018416156101000260001901909316849004601f8101849004840282018401909252818152929183018282801561129e5780601f106112735761010080835404028352916020019161129e565b820191906000526020600020905b81548152906001019060200180831161128157829003601f168201915b505050505081565b60606000806000806112b787612526565b6009876040518082805190602001908083835b602083106112e95780518252601f1990920191602091820191016112ca565b51815160209384036101000a6000190180199092169116179052920194855250604051938490030190922060030154881091506113689050576040805160e560020a62461bcd0281526020600482015260106024820152608360020a6f09eeccae4ccd8deeecac840d2dcc8caf02604482015290519081900360640190fd5b6000809050866001016009896040518082805190602001908083835b602083106113a35780518252601f199092019160209182019101611384565b51815160209384036101000a6000190180199092169116179052920194855250604051938490030190922060030154929092111591506113e39050575060015b606060008060006114f560098d6040518082805190602001908083835b6020831061141f5780518252601f199092019160209182019101611400565b51815160209384036101000a6000190180199092169116179052920194855250604051938490030190922060030180549092508e9150811061145d57fe5b600091825260209182902001805460408051601f60026000196101006001871615020190941693909304928301859004850281018501909152818152928301828280156114eb5780601f106114c0576101008083540402835291602001916114eb565b820191906000526020600020905b8154815290600101906020018083116114ce57829003601f168201915b5050505050611a4c565b929f919e509c50909a50949850939650505050505050565b600480548290811061151b57fe5b600091825260209182902001805460408051601f600260001961010060018716150201909416939093049283018590048502810185019091528181529350909183018282801561129e5780601f106112735761010080835404028352916020019161129e565b6003805460408051602060026001851615610100026000190190941693909304601f8101849004840282018401909252818152929183018282801561129e5780601f106112735761010080835404028352916020019161129e565b60018054604080516020600284861615610100026000190190941693909304601f8101849004840282018401909252818152929183018282801561129e5780601f106112735761010080835404028352916020019161129e565b600054600160a060020a031633146116a1576040805160e560020a62461bcd02815260206004820152602f6024820152600080516020612e428339815191526044820152608960020a6e37b936903a3434b99030b1ba34b7b702606482015290519081900360840190fd5b60006116ad85856126d7565b84519091506116c29082906020870190612cc6565b5082516116d89060018301906020860190612cc6565b5060020155505050565b6060600080600061175d8560016009886040518082805190602001908083835b602083106117215780518252601f199092019160209182019101611702565b51815160209384036101000a60001901801990921691161790529201948552506040519384900301909220600301549290920391506129479050565b61190c600a6009876040518082805190602001908083835b602083106117945780518252601f199092019160209182019101611775565b6001836020036101000a038019825116818451168082178552505050505050905001915050908152602001604051809103902060030160016009896040518082805190602001908083835b602083106117fe5780518252601f1990920191602091820191016117df565b51815160209384036101000a60001901801990921691161790529201948552506040519384900301909220600301548454939003928310915061183f905057fe5b9060005260206000200160405180828054600181600116156101000203166002900480156118a45780601f106118825761010080835404028352918201916118a4565b820191906000526020600020905b815481529060010190602001808311611890575b505092835250506040805160209281900383018120805460026001821615610100026000190190911604601f810185900485028301850190935282825290929091908301828280156114eb5780601f106114c0576101008083540402835291602001916114eb565b93509350935093509193509193565b600054600160a060020a03163314611986576040805160e560020a62461bcd02815260206004820152602f6024820152600080516020612e428339815191526044820152608960020a6e37b936903a3434b99030b1ba34b7b702606482015290519081900360840190fd5b6006829055600583905583516119a3906003906020870190612cc6565b50600781905584516119bc906002906020880190612cc6565b50600c546040805160e060020a63b7fce16b028152306024820152600481018290526007604482015260ca60020a661c185e5b595b9d0260648201529051600160a060020a039092169163b7fce16b9160848082019260009290919082900301818387803b158015611a2d57600080fd5b505af1158015611a41573d6000803e3d6000fd5b505050505050505050565b60606000806000611a5c85612a23565b600a856040518082805190602001908083835b60208310611a8e5780518252601f199092019160209182019101611a6f565b51815160209384036101000a6000190180199092169116179052920194855250604051938490038101842089519094600a94508a9350918291908401908083835b60208310611aee5780518252601f199092019160209182019101611acf565b51815160209384036101000a60001901801990921691161790529201948552506040519384900381018420600101548a519094600a94508b9350918291908401908083835b60208310611b525780518252601f199092019160209182019101611b33565b51815160209384036101000a60001901801990921691161790529201948552506040519384900381018420600201548b519094600a94508c9350918291908401908083835b60208310611bb65780518252601f199092019160209182019101611b97565b518151600019602094850361010090810a82019283169219939093169190911790925294909201968752604080519788900382018820600301548b54601f600260018316159098029095011695909504928301829004820288018201905281875292959450889350918401905082828015611c725780601f10611c4757610100808354040283529160200191611c72565b820191906000526020600020905b815481529060010190602001808311611c5557829003601f168201915b5050505050935093509350935093509193509193565b606080600080611c9786612600565b6008866040518082805190602001908083835b60208310611cc95780518252601f199092019160209182019101611caa565b51815160209384036101000a600019018019909216911617905292019485525060405193849003019092206001015487109150611d489050576040805160e560020a62461bcd0281526020600482015260106024820152608360020a6f09eeccae4ccd8deeecac840d2dcc8caf02604482015290519081900360640190fd5b6000809050856001016008886040518082805190602001908083835b60208310611d835780518252601f199092019160209182019101611d64565b51815160209384036101000a600019018019909216911617905292019485525060405193849003019092206001015492909211159150611dc39050575060015b6060806000611ed360088b6040518082805190602001908083835b60208310611dfd5780518252601f199092019160209182019101611dde565b51815160209384036101000a6000190180199092169116179052920194855250604051938490030190922060010180549092508c91508110611e3b57fe5b600091825260209182902001805460408051601f6002600019610100600187161502019094169390930492830185900485028101850190915281815292830182828015611ec95780601f10611e9e57610100808354040283529160200191611ec9565b820191906000526020600020905b815481529060010190602001808311611eac57829003601f168201915b50505050506122c2565b919c909b509099509397509295505050505050565b600b54600160a060020a031681565b60065481565b600c54600160a060020a031681565b600054600160a060020a03163314611f77576040805160e560020a62461bcd02815260206004820152602f6024820152600080516020612e428339815191526044820152608960020a6e37b936903a3434b99030b1ba34b7b702606482015290519081900360840190fd5b6000611f8387876126d7565b905060806040519081016040528086815260200185815260200184815260200183815250600a866040518082805190602001908083835b60208310611fd95780518252601f199092019160209182019101611fba565b51815160209384036101000a600019018019909216911617905292019485525060405193849003810190932084518051919461201a94508593500190612cc6565b50602082810151600180840191909155604084015160028401556060909301516003928301559083018054928301808255600091825290829020885191936120689391019190890190612cc6565b5050600b5460405160e360020a631eec954902815230600482018181526084830188905260a4830187905260c4830186905260e0602484019081528a5160e48501528a51600160a060020a039095169463f764aa48948c938e938d938d938d938d939092909160448101916064820191610104019060208c019080838360005b838110156121005781810151838201526020016120e8565b50505050905090810190601f16801561212d5780820380516001836020036101000a031916815260200191505b5084810383528951815289516020918201918b019080838360005b83811015612160578181015183820152602001612148565b50505050905090810190601f16801561218d5780820380516001836020036101000a031916815260200191505b5084810382528851815288516020918201918a019080838360005b838110156121c05781810151838201526020016121a8565b50505050905090810190601f1680156121ed5780820380516001836020036101000a031916815260200191505b509a5050505050505050505050600060405180830381600087803b15801561221457600080fd5b505af1158015612228573d6000803e3d6000fd5b5050505050505050505050565b60075481565b600054600160a060020a031633146122a6576040805160e560020a62461bcd02815260206004820152602f6024820152600080516020612e428339815191526044820152608960020a6e37b936903a3434b99030b1ba34b7b702606482015290519081900360840190fd5b6122af81612ae8565b5050565b600054600160a060020a031681565b60608060006122d084612526565b6009846040518082805190602001908083835b602083106123025780518252601f1990920191602091820191016122e3565b51815160209384036101000a600019018019909216911617905292019485525060405193849003810184208851909460099450899350918291908401908083835b602083106123625780518252601f199092019160209182019101612343565b6001836020036101000a03801982511681845116808217855250505050505090500191505090815260200160405180910390206001016009866040518082805190602001908083835b602083106123ca5780518252601f1990920191602091820191016123ab565b518151600019602094850361010090810a820192831692199390931691909117909252949092019687526040805197889003820188206002908101548b54601f60018216159098029095019094160494850182900482028801820190528387529095945087935084019050828280156124845780601f1061245957610100808354040283529160200191612484565b820191906000526020600020905b81548152906001019060200180831161246757829003601f168201915b5050855460408051602060026001851615610100026000190190941693909304601f8101849004840282018401909252818152959850879450925084019050828280156125125780601f106124e757610100808354040283529160200191612512565b820191906000526020600020905b8154815290600101906020018083116124f557829003601f168201915b505050505091509250925092509193909250565b6009816040518082805190602001908083835b602083106125585780518252601f199092019160209182019101612539565b6001836020036101000a03801982511681845116808217855250505050505090500191505090815260200160405180910390206000018054600181600116156101000203166002900490506000141515156125fd576040805160e560020a62461bcd02815260206004820152601c60248201527f54686973207265666572656e636520646f65736e277420657869737400000000604482015290519081900360640190fd5b50565b6008816040518082805190602001908083835b602083106126325780518252601f199092019160209182019101612613565b6001836020036101000a03801982511681845116808217855250505050505090500191505090815260200160405180910390206000018054600181600116156101000203166002900490506000141515156125fd576040805160e560020a62461bcd02815260206004820152601b60248201527f5468697320726563656976657220646f65736e27742065786973740000000000604482015290519081900360640190fd5b60006126e283612ae8565b506009826040518082805190602001908083835b602083106127155780518252601f1990920191602091820191016126f6565b6001836020036101000a0380198251168184511680821785525050505050509050019150509081526020016040518091039020600001805460018160011615610100020316600290049050600014156128e15760606080604051908101604052808481526020016020604051908101604052806000815250815260200160008152602001828152506009846040518082805190602001908083835b602083106127cf5780518252601f1990920191602091820191016127b0565b51815160209384036101000a600019018019909216911617905292019485525060405193849003810190932084518051919461281094508593500190612cc6565b5060208281015180516128299260018501920190612cc6565b50604082015160028201556060820151805161284f916003840191602090910190612d44565b509050506008846040518082805190602001908083835b602083106128855780518252601f199092019160209182019101612866565b51815160209384036101000a600019018019909216911617905292019485525060405193849003810190932060019081018054918201808255600091825290859020885191956128dd95509201925090870190612cc6565b5050505b6009826040518082805190602001908083835b602083106129135780518252601f1990920191602091820191016128f4565b51815160209384036101000a6000190180199092169116179052920194855250604051938490030190922095945050505050565b61295082612526565b6009826040518082805190602001908083835b602083106129825780518252601f199092019160209182019101612963565b51815160209384036101000a60001901801990921691161790529201948552506040519384900301909220600301805490925083915081106129c057fe5b6000918252602090912001546002600019610100600184161502019091160415156122af576040805160e560020a62461bcd02815260206004820152601c6024820152600080516020612e22833981519152604482015290519081900360640190fd5b600a816040518082805190602001908083835b60208310612a555780518252601f199092019160209182019101612a36565b6001836020036101000a03801982511681845116808217855250505050505090500191505090815260200160405180910390206000018054600181600116156101000203166002900490506000141515156125fd576040805160e560020a62461bcd02815260206004820152601c6024820152600080516020612e22833981519152604482015290519081900360640190fd5b60006008826040518082805190602001908083835b60208310612b1c5780518252601f199092019160209182019101612afd565b6001836020036101000a038019825116818451168082178552505050505050905001915050908152602001604051809103902060000180546001816001161561010002031660029004905060001415612c615760606040805190810160405280848152602001828152506008846040518082805190602001908083835b60208310612bb85780518252601f199092019160209182019101612b99565b51815160209384036101000a6000190180199092169116179052920194855250604051938490038101909320845180519194612bf994508593500190612cc6565b506020828101518051612c129260018501920190612d44565b505060048054600181018083556000929092528551919250612c5d917f8a35acfbc15ff81a39ae7d344fd709f28e8600b4aa8c65c6b64bfe7fe36bd19b909101906020870190612cc6565b5050505b6008826040518082805190602001908083835b60208310612c935780518252601f199092019160209182019101612c74565b51815160209384036101000a60001901801990921691161790529201948552506040519384900301909220949350505050565b828054600181600116156101000203166002900490600052602060002090601f016020900481019282601f10612d0757805160ff1916838001178555612d34565b82800160010185558215612d34579182015b82811115612d34578251825591602001919060010190612d19565b50612d40929150612d9d565b5090565b828054828255906000526020600020908101928215612d91579160200282015b82811115612d915782518051612d81918491602090910190612cc6565b5091602001919060010190612d64565b50612d40929150612dba565b612db791905b80821115612d405760008155600101612da3565b90565b612db791905b80821115612d40576000612dd48282612ddd565b50600101612dc0565b50805460018160011615610100020316600290046000825580601f10612e0357506125fd565b601f0160209004906000526020600020908101906125fd9190612d9d56fe546869732073746174656d656e7420646f65736e2774206578697374000000004f6e6c79205369676e617475726974206163636f756e742063616e2070657266a165627a7a72305820afa4b7b6901bf3c8d3e0a28b149607ab1ef58a4cfe4f7e270aca496eb5f72c660029",
  "source": "pragma solidity 0.5.0;\n\n/*\nGas to deploy: 4.323.950 units\n\nStatements status legend:\n\nUNPROCESSED    = 0;\nPROCESSING     = 1\nPAID           = 2;\nOVER_PAID      = 3;\nPARTIALLY_PAID = 4;\n*/\n\nimport \"./interfaces/SignatureInterface.sol\";\nimport \"./interfaces/UserInterface.sol\";\n\n\ncontract Payment {\n\n    struct Statement {\n        string id;\n        uint status;\n        uint receivedAt;\n        uint createdAt;\n    }\n\n    struct Reference {\n        string id;\n        string value;\n        uint price;\n        string[] statements;\n    }\n\n    struct Receiver {\n        string id;\n        string[] references;\n    }\n\n    address public signaturit;\n\n    string public contractId;\n    string public signatureId;\n    string public documentId;\n\n    string[] public receiversArray;\n\n    uint public startDate;\n    uint public endDate;\n    uint public period;\n\n    mapping(string => Receiver) private receivers;\n    mapping(string => Reference) private references;\n    mapping(string => Statement) private statements;\n\n    UserInterface public userSmartContract;\n    SignatureInterface public signatureSmartContract;\n\n    constructor(\n        address userContract,\n        address signatureContract,\n        string memory id\n    )\n        public\n    {\n        contractId = id;\n        signaturit = msg.sender;\n\n        userSmartContract = UserInterface(userContract);\n        signatureSmartContract = SignatureInterface(signatureContract);\n    }\n\n    modifier signaturitOnly() {\n        require(\n            msg.sender == signaturit,\n            \"Only Signaturit account can perform this action\"\n        );\n\n        _;\n    }\n\n    function init(\n        string memory signature,\n        string memory document,\n        uint start,\n        uint end,\n        uint paymentPeriod\n    )\n        public\n        signaturitOnly\n    {\n        endDate = end;\n        startDate = start;\n        documentId = document;\n        period = paymentPeriod;\n        signatureId = signature;\n\n        signatureSmartContract.setClause(\n            \"payment\",\n            address(this)\n        );\n    }\n\n    function setReceiver(\n        string memory id\n    )\n        public\n        signaturitOnly\n    {\n        _getReceiver(id);\n    }\n\n    function setReference(\n        string memory receiverId,\n        string memory referenceId,\n        string memory referenceValue,\n        uint referencePrice\n    )\n        public\n        signaturitOnly\n    {\n        Reference storage newReference = _getReference(\n            receiverId,\n            referenceId\n        );\n\n        newReference.id = referenceId;\n        newReference.value = referenceValue;\n        newReference.price = referencePrice;\n    }\n\n    function addStatement(\n        string memory receiverId,\n        string memory referenceId,\n        string memory statementId,\n        uint status,\n        uint receivedAt,\n        uint checkedAt\n    )\n        public\n        signaturitOnly\n    {\n        Reference storage newReference = _getReference(\n            receiverId,\n            referenceId\n        );\n\n        statements[statementId] = Statement(\n            statementId,\n            status,\n            receivedAt,\n            checkedAt\n        );\n\n        newReference.statements.push(statementId);\n\n        userSmartContract.notifyPaymentCheck(\n            address(this),\n            referenceId,\n            receiverId,\n            statementId,\n            status,\n            receivedAt,\n            checkedAt\n        );\n    }\n\n    // Get statement if you got the id\n    function getStatementById(\n        string memory statementId\n    )\n        public\n        view\n        returns (\n            string memory id,\n            uint status,\n            uint receivedAt,\n            uint createdAt\n        )\n    {\n        _checkStatementExistence(statementId);\n\n        return (\n            statements[statementId].id,\n            statements[statementId].status,\n            statements[statementId].receivedAt,\n            statements[statementId].createdAt\n        );\n    }\n\n    // Get statmentID if you want the last one given a referenceId\n    function getLastStatementFromReference(\n        string memory referenceId\n    )\n        public\n        view\n        returns (\n            string memory id,\n            uint status,\n            uint receivedAt,\n            uint createdAt\n        )\n    {\n        _checkStatementFromReferenceExistence(\n            referenceId,\n            references[referenceId].statements.length - 1\n        );\n\n        return getStatementById(\n            statements[\n                references[\n                    referenceId\n                ].statements[\n                    references[\n                        referenceId\n                    ].statements.length - 1\n                ]\n            ].id\n        );\n    }\n\n    // Get statementID if you want to iterate through all\n    // the statements of a reference\n    function getStatementFromReference(\n        string memory referenceId,\n        uint index\n    )\n        public\n        view\n        returns (\n            string memory id,\n            uint status,\n            uint receivedAt,\n            uint createdAt,\n            bool more\n        )\n    {\n        _checkReferenceExistence(referenceId);\n\n        require(\n            index < references[referenceId].statements.length,\n            \"Overflowed index\"\n        );\n\n        bool thereIsMore = false;\n\n        if (references[referenceId].statements.length > index + 1)\n            thereIsMore = true;\n\n        (\n            string memory statementId,\n            uint statmentStatus,\n            uint statementReceivedAt,\n            uint statementCreatedAt\n        ) = getStatementById(\n            references[referenceId].statements[index]\n        );\n\n        return(\n            statementId,\n            statmentStatus,\n            statementReceivedAt,\n            statementCreatedAt,\n            thereIsMore\n        );\n    }\n\n    // Get how many statements there are for a reference\n    function getStatementSizeFromReference(\n        string memory referenceId\n    )\n        public\n        view\n        returns (uint size)\n    {\n        _checkReferenceExistence(referenceId);\n\n        return references[referenceId].statements.length;\n    }\n\n    // Get reference if you got the id\n    function getReferenceById(\n        string memory referenceId\n    )\n        public\n        view\n        returns (\n            string memory id,\n            string memory value,\n            uint price\n        )\n    {\n        _checkReferenceExistence(referenceId);\n\n        return(\n            references[referenceId].id,\n            references[referenceId].value,\n            references[referenceId].price\n        );\n    }\n\n    // Get referenceID if you want to iterate through all\n    // the references of a receiver\n    function getReferenceFromReceiver(\n        string memory receiverId,\n        uint index\n    )\n        public\n        view\n        returns (\n            string memory id,\n            string memory value,\n            uint price,\n            bool more\n        )\n    {\n        _checkReceiverExistence(receiverId);\n\n        require(\n            index < receivers[receiverId].references.length,\n            \"Overflowed index\"\n        );\n\n        bool thereIsMore = false;\n\n        if (receivers[receiverId].references.length > index + 1)\n            thereIsMore = true;\n\n        (\n            string memory referenceId,\n            string memory referenceValue,\n            uint referencePrice\n        ) = getReferenceById(\n            receivers[receiverId].references[index]\n        );\n\n        return(\n            referenceId,\n            referenceValue,\n            referencePrice,\n            thereIsMore\n        );\n    }\n\n    // Get references size from receiver\n    function getReferenceSizeFromReceiver(\n        string memory receiverId\n    )\n        public\n        view\n        returns (uint size)\n    {\n        _checkReceiverExistence(receiverId);\n\n        return receivers[receiverId].references.length;\n    }\n\n    // Get receiverID by index\n    function getReceiverId(\n        uint index\n    )\n        public\n        view\n        returns (\n            string memory id,\n            bool more\n        )\n    {\n        require(\n            index < receiversArray.length,\n            \"Overflowed index\"\n        );\n\n        bool thereIsMore = false;\n\n        if (receiversArray.length > index + 1)\n            thereIsMore = true;\n\n        return(\n            receiversArray[index],\n            thereIsMore\n        );\n    }\n\n    function _getReceiver(\n        string memory id\n    )\n        private\n        returns (Receiver storage)\n    {\n        if (bytes(receivers[id].id).length == 0) {\n\n            string[] memory tmpString;\n\n            receivers[id] = Receiver(id, tmpString);\n\n            receiversArray.push(id);\n        }\n\n        return receivers[id];\n    }\n\n    function _getReference(\n        string memory receiverId,\n        string memory referenceId\n    )\n        private\n        returns (Reference storage)\n    {\n        _getReceiver(receiverId);\n\n        if (bytes(references[referenceId].id).length == 0) {\n\n            string[] memory tmpStatements;\n\n            references[referenceId] = Reference(\n                referenceId,\n                \"\",\n                0,\n                tmpStatements\n            );\n\n            receivers[receiverId].references.push(referenceId);\n        }\n\n        return references[referenceId];\n    }\n\n    function _checkReferenceExistence(\n        string memory id\n    )\n        private\n        view\n    {\n        require(\n            bytes(references[id].id).length != 0,\n            \"This reference doesn't exist\"\n        );\n    }\n\n    function _checkReceiverExistence(\n        string memory id\n    )\n        private\n        view\n    {\n        require(\n            bytes(receivers[id].id).length != 0,\n            \"This receiver doesn't exist\"\n        );\n    }\n\n    function _checkStatementFromReferenceExistence(\n        string memory referenceId,\n        uint index\n    )\n        private\n        view\n    {\n        _checkReferenceExistence(referenceId);\n\n        require(\n            bytes(references[referenceId].statements[index]).length != 0,\n            \"This statement doesn't exist\"\n        );\n    }\n\n    function _checkStatementExistence(\n        string memory id\n    )\n        private\n        view\n    {\n        require(\n            bytes(statements[id].id).length != 0,\n            \"This statement doesn't exist\"\n        );\n    }\n}\n",
  "sourcePath": "/home/administrator/workspace/bc-smart-contracts/contracts/Payment.sol",
  "compiler": {
    "name": "solc",
    "version": "0.5.0+commit.1d4f565a.Emscripten.clang"
  },
  "schemaVersion": "3.0.11",
  "updatedAt": "2019-07-05T13:37:35.281Z",
  "devdoc": {
    "methods": {}
  },
  "userdoc": {
    "methods": {}
  }
}