{
  "contractName": "Payment",
  "abi": [
    {
      "constant": true,
      "inputs": [],
      "name": "startDate",
      "outputs": [
        {
          "name": "",
          "type": "uint256"
        }
      ],
      "payable": false,
      "stateMutability": "view",
      "type": "function"
    },
    {
      "constant": true,
      "inputs": [],
      "name": "signatureId",
      "outputs": [
        {
          "name": "",
          "type": "string"
        }
      ],
      "payable": false,
      "stateMutability": "view",
      "type": "function"
    },
    {
      "constant": true,
      "inputs": [],
      "name": "CLAUSE_EVENT_TYPE",
      "outputs": [
        {
          "name": "",
          "type": "string"
        }
      ],
      "payable": false,
      "stateMutability": "view",
      "type": "function"
    },
    {
      "constant": true,
      "inputs": [],
      "name": "userContract",
      "outputs": [
        {
          "name": "",
          "type": "address"
        }
      ],
      "payable": false,
      "stateMutability": "view",
      "type": "function"
    },
    {
      "constant": true,
      "inputs": [
        {
          "name": "",
          "type": "uint256"
        }
      ],
      "name": "receiversArray",
      "outputs": [
        {
          "name": "",
          "type": "string"
        }
      ],
      "payable": false,
      "stateMutability": "view",
      "type": "function"
    },
    {
      "constant": true,
      "inputs": [],
      "name": "documentId",
      "outputs": [
        {
          "name": "",
          "type": "string"
        }
      ],
      "payable": false,
      "stateMutability": "view",
      "type": "function"
    },
    {
      "constant": true,
      "inputs": [],
      "name": "contractId",
      "outputs": [
        {
          "name": "",
          "type": "string"
        }
      ],
      "payable": false,
      "stateMutability": "view",
      "type": "function"
    },
    {
      "constant": true,
      "inputs": [],
      "name": "endDate",
      "outputs": [
        {
          "name": "",
          "type": "uint256"
        }
      ],
      "payable": false,
      "stateMutability": "view",
      "type": "function"
    },
    {
      "constant": true,
      "inputs": [],
      "name": "signatureContract",
      "outputs": [
        {
          "name": "",
          "type": "address"
        }
      ],
      "payable": false,
      "stateMutability": "view",
      "type": "function"
    },
    {
      "constant": true,
      "inputs": [],
      "name": "notifiersKey",
      "outputs": [
        {
          "name": "",
          "type": "string"
        }
      ],
      "payable": false,
      "stateMutability": "view",
      "type": "function"
    },
    {
      "constant": true,
      "inputs": [],
      "name": "CREATION_EVENT_TYPE",
      "outputs": [
        {
          "name": "",
          "type": "string"
        }
      ],
      "payable": false,
      "stateMutability": "view",
      "type": "function"
    },
    {
      "constant": true,
      "inputs": [],
      "name": "period",
      "outputs": [
        {
          "name": "",
          "type": "uint256"
        }
      ],
      "payable": false,
      "stateMutability": "view",
      "type": "function"
    },
    {
      "constant": true,
      "inputs": [],
      "name": "signaturit",
      "outputs": [
        {
          "name": "",
          "type": "address"
        }
      ],
      "payable": false,
      "stateMutability": "view",
      "type": "function"
    },
    {
      "inputs": [
        {
          "name": "userContractAddress",
          "type": "address"
        },
        {
          "name": "signatureContractAddress",
          "type": "address"
        },
        {
          "name": "id",
          "type": "string"
        }
      ],
      "payable": false,
      "stateMutability": "nonpayable",
      "type": "constructor"
    },
    {
      "constant": false,
      "inputs": [
        {
          "name": "signature",
          "type": "string"
        },
        {
          "name": "document",
          "type": "string"
        },
        {
          "name": "start",
          "type": "uint256"
        },
        {
          "name": "end",
          "type": "uint256"
        },
        {
          "name": "paymentPeriod",
          "type": "uint256"
        }
      ],
      "name": "init",
      "outputs": [],
      "payable": false,
      "stateMutability": "nonpayable",
      "type": "function"
    },
    {
      "constant": false,
      "inputs": [
        {
          "name": "id",
          "type": "string"
        }
      ],
      "name": "setReceiver",
      "outputs": [],
      "payable": false,
      "stateMutability": "nonpayable",
      "type": "function"
    },
    {
      "constant": false,
      "inputs": [
        {
          "name": "receiverId",
          "type": "string"
        },
        {
          "name": "referenceId",
          "type": "string"
        },
        {
          "name": "referenceValue",
          "type": "string"
        },
        {
          "name": "referencePrice",
          "type": "uint256"
        }
      ],
      "name": "setReference",
      "outputs": [],
      "payable": false,
      "stateMutability": "nonpayable",
      "type": "function"
    },
    {
      "constant": false,
      "inputs": [
        {
          "name": "receiverId",
          "type": "string"
        },
        {
          "name": "referenceId",
          "type": "string"
        },
        {
          "name": "paymentCheckId",
          "type": "string"
        },
        {
          "name": "status",
          "type": "uint256"
        },
        {
          "name": "checkedAt",
          "type": "uint256"
        },
        {
          "name": "createdAt",
          "type": "uint256"
        }
      ],
      "name": "addPaymentCheck",
      "outputs": [],
      "payable": false,
      "stateMutability": "nonpayable",
      "type": "function"
    },
    {
      "constant": true,
      "inputs": [
        {
          "name": "paymentCheckId",
          "type": "string"
        }
      ],
      "name": "getPaymentCheckById",
      "outputs": [
        {
          "name": "id",
          "type": "string"
        },
        {
          "name": "status",
          "type": "uint256"
        },
        {
          "name": "checkedAt",
          "type": "uint256"
        },
        {
          "name": "createdAt",
          "type": "uint256"
        }
      ],
      "payable": false,
      "stateMutability": "view",
      "type": "function"
    },
    {
      "constant": true,
      "inputs": [
        {
          "name": "referenceId",
          "type": "string"
        }
      ],
      "name": "getLastPaymentCheckFromReference",
      "outputs": [
        {
          "name": "id",
          "type": "string"
        },
        {
          "name": "status",
          "type": "uint256"
        },
        {
          "name": "checkedAt",
          "type": "uint256"
        },
        {
          "name": "createdAt",
          "type": "uint256"
        }
      ],
      "payable": false,
      "stateMutability": "view",
      "type": "function"
    },
    {
      "constant": true,
      "inputs": [
        {
          "name": "referenceId",
          "type": "string"
        },
        {
          "name": "index",
          "type": "uint256"
        }
      ],
      "name": "getPaymentCheckFromReference",
      "outputs": [
        {
          "name": "id",
          "type": "string"
        },
        {
          "name": "status",
          "type": "uint256"
        },
        {
          "name": "checkedAt",
          "type": "uint256"
        },
        {
          "name": "createdAt",
          "type": "uint256"
        },
        {
          "name": "more",
          "type": "bool"
        }
      ],
      "payable": false,
      "stateMutability": "view",
      "type": "function"
    },
    {
      "constant": true,
      "inputs": [
        {
          "name": "referenceId",
          "type": "string"
        }
      ],
      "name": "getPaymentCheckSizeFromReference",
      "outputs": [
        {
          "name": "size",
          "type": "uint256"
        }
      ],
      "payable": false,
      "stateMutability": "view",
      "type": "function"
    },
    {
      "constant": true,
      "inputs": [
        {
          "name": "referenceId",
          "type": "string"
        }
      ],
      "name": "getReferenceById",
      "outputs": [
        {
          "name": "id",
          "type": "string"
        },
        {
          "name": "value",
          "type": "string"
        },
        {
          "name": "price",
          "type": "uint256"
        }
      ],
      "payable": false,
      "stateMutability": "view",
      "type": "function"
    },
    {
      "constant": true,
      "inputs": [
        {
          "name": "receiverId",
          "type": "string"
        },
        {
          "name": "index",
          "type": "uint256"
        }
      ],
      "name": "getReferenceFromReceiver",
      "outputs": [
        {
          "name": "id",
          "type": "string"
        },
        {
          "name": "value",
          "type": "string"
        },
        {
          "name": "price",
          "type": "uint256"
        },
        {
          "name": "more",
          "type": "bool"
        }
      ],
      "payable": false,
      "stateMutability": "view",
      "type": "function"
    },
    {
      "constant": true,
      "inputs": [
        {
          "name": "receiverId",
          "type": "string"
        }
      ],
      "name": "getReferenceSizeFromReceiver",
      "outputs": [
        {
          "name": "size",
          "type": "uint256"
        }
      ],
      "payable": false,
      "stateMutability": "view",
      "type": "function"
    },
    {
      "constant": true,
      "inputs": [
        {
          "name": "index",
          "type": "uint256"
        }
      ],
      "name": "getReceiverId",
      "outputs": [
        {
          "name": "id",
          "type": "string"
        },
        {
          "name": "more",
          "type": "bool"
        }
      ],
      "payable": false,
      "stateMutability": "view",
      "type": "function"
    }
  ],
  "bytecode": "0x60806040523480156200001157600080fd5b50604051620032f8380380620032f8833981018060405260608110156200003757600080fd5b81516020830151604084018051929491938201926401000000008111156200005e57600080fd5b820160208101848111156200007257600080fd5b81516401000000008111828201871017156200008d57600080fd5b50506040805180820190915260188082527f7061796d656e745f636c617573655f6e6f74696669657273000000000000000060208301908152929550909350620000dc92506000919062000132565b50508051620000f390600890602084019062000132565b505060078054600160a060020a0319908116331790915560058054600160a060020a0394851690831617905560068054929093169116179055620001d7565b828054600181600116156101000203166002900490600052602060002090601f016020900481019282601f106200017557805160ff1916838001178555620001a5565b82800160010185558215620001a5579182015b82811115620001a557825182559160200191906001019062000188565b50620001b3929150620001b7565b5090565b620001d491905b80821115620001b35760008155600101620001be565b90565b61311180620001e76000396000f3fe60806040526004361061012f5763ffffffff60e060020a6000350416630b97bc86811461013457806313820f191461015b5780631c9a05ec1461020c578063395ba050146102b95780634396fd12146103435780635000596b14610358578063605b460914610389578063680488e2146103b35780636b7eab381461057b57806374452c901461062c57806378f7c83f1461076a5780638291286c1461077f578063881c2cc014610794578063b610f10f14610951578063bfbcafd414610a92578063c24a0f8b14610c31578063c7e3bb0214610c46578063d83070ab14610cf7578063d9026ed114610d0c578063dea8444414610d21578063e2ec46e114610d36578063ef78d4fd14610e41578063f405f28014610e56578063f9b5333514610f07578063fc2e2c2814610f1c575b600080fd5b34801561014057600080fd5b50610149611073565b60408051918252519081900360200190f35b34801561016757600080fd5b506101496004803603602081101561017e57600080fd5b810190602081018135602060020a81111561019857600080fd5b8201836020820111156101aa57600080fd5b803590602001918460018302840111602060020a831117156101cb57600080fd5b91908080601f016020809104026020016040519081016040528093929190818152602001838380828437600092019190915250929550611079945050505050565b34801561021857600080fd5b506102366004803603602081101561022f57600080fd5b50356110ed565b604051808060200183151515158152602001828103825284818151815260200191508051906020019080838360005b8381101561027d578181015183820152602001610265565b50505050905090810190601f1680156102aa5780820380516001836020036101000a031916815260200191505b50935050505060405180910390f35b3480156102c557600080fd5b506102ce611207565b6040805160208082528351818301528351919283929083019185019080838360005b838110156103085781810151838201526020016102f0565b50505050905090810190601f1680156103355780820380516001836020036101000a031916815260200191505b509250505060405180910390f35b34801561034f57600080fd5b506102ce611295565b34801561036457600080fd5b5061036d6112c5565b60408051600160a060020a039092168252519081900360200190f35b34801561039557600080fd5b506102ce600480360360208110156103ac57600080fd5b50356112d4565b3480156103bf57600080fd5b50610579600480360360c08110156103d657600080fd5b810190602081018135602060020a8111156103f057600080fd5b82018360208201111561040257600080fd5b803590602001918460018302840111602060020a8311171561042357600080fd5b91908080601f0160208091040260200160405190810160405280939291908181526020018383808284376000920191909152509295949360208101935035915050602060020a81111561047557600080fd5b82018360208201111561048757600080fd5b803590602001918460018302840111602060020a831117156104a857600080fd5b91908080601f0160208091040260200160405190810160405280939291908181526020018383808284376000920191909152509295949360208101935035915050602060020a8111156104fa57600080fd5b82018360208201111561050c57600080fd5b803590602001918460018302840111602060020a8311171561052d57600080fd5b91908080601f0160208091040260200160405190810160405280939291908181526020018383808284376000920191909152509295505082359350505060208101359060400135611348565b005b34801561058757600080fd5b506101496004803603602081101561059e57600080fd5b810190602081018135602060020a8111156105b857600080fd5b8201836020820111156105ca57600080fd5b803590602001918460018302840111602060020a831117156105eb57600080fd5b91908080601f0160208091040260200160405190810160405280939291908181526020018383808284376000920191909152509295506114e6945050505050565b34801561063857600080fd5b506106dd6004803603602081101561064f57600080fd5b810190602081018135602060020a81111561066957600080fd5b82018360208201111561067b57600080fd5b803590602001918460018302840111602060020a8311171561069c57600080fd5b91908080601f01602080910402602001604051908101604052809392919081815260200183838082843760009201919091525092955061155a945050505050565b6040518080602001858152602001848152602001838152602001828103825286818151815260200191508051906020019080838360005b8381101561072c578181015183820152602001610714565b50505050905090810190601f1680156107595780820380516001836020036101000a031916815260200191505b509550505050505060405180910390f35b34801561077657600080fd5b506102ce611796565b34801561078b57600080fd5b506102ce6117f1565b3480156107a057600080fd5b50610579600480360360808110156107b757600080fd5b810190602081018135602060020a8111156107d157600080fd5b8201836020820111156107e357600080fd5b803590602001918460018302840111602060020a8311171561080457600080fd5b91908080601f0160208091040260200160405190810160405280939291908181526020018383808284376000920191909152509295949360208101935035915050602060020a81111561085657600080fd5b82018360208201111561086857600080fd5b803590602001918460018302840111602060020a8311171561088957600080fd5b91908080601f0160208091040260200160405190810160405280939291908181526020018383808284376000920191909152509295949360208101935035915050602060020a8111156108db57600080fd5b8201836020820111156108ed57600080fd5b803590602001918460018302840111602060020a8311171561090e57600080fd5b91908080601f016020809104026020016040519081016040528093929190818152602001838380828437600092019190915250929550509135925061184c915050565b34801561095d57600080fd5b50610579600480360360a081101561097457600080fd5b810190602081018135602060020a81111561098e57600080fd5b8201836020820111156109a057600080fd5b803590602001918460018302840111602060020a831117156109c157600080fd5b91908080601f0160208091040260200160405190810160405280939291908181526020018383808284376000920191909152509295949360208101935035915050602060020a811115610a1357600080fd5b820183602082011115610a2557600080fd5b803590602001918460018302840111602060020a83111715610a4657600080fd5b91908080601f01602080910402602001604051908101604052809392919081815260200183838082843760009201919091525092955050823593505050602081013590604001356118f8565b348015610a9e57600080fd5b50610b4560048036036040811015610ab557600080fd5b810190602081018135602060020a811115610acf57600080fd5b820183602082011115610ae157600080fd5b803590602001918460018302840111602060020a83111715610b0257600080fd5b91908080601f01602080910402602001604051908101604052809392919081815260200183838082843760009201919091525092955050913592506119db915050565b60408051908101839052811515606082015260808082528551908201528451819060208083019160a084019189019080838360005b83811015610b92578181015183820152602001610b7a565b50505050905090810190601f168015610bbf5780820380516001836020036101000a031916815260200191505b50838103825286518152865160209182019188019080838360005b83811015610bf2578181015183820152602001610bda565b50505050905090810190601f168015610c1f5780820380516001836020036101000a031916815260200191505b50965050505050505060405180910390f35b348015610c3d57600080fd5b50610149611c3b565b348015610c5257600080fd5b506106dd60048036036020811015610c6957600080fd5b810190602081018135602060020a811115610c8357600080fd5b820183602082011115610c9557600080fd5b803590602001918460018302840111602060020a83111715610cb657600080fd5b91908080601f016020809104026020016040519081016040528093929190818152602001838380828437600092019190915250929550611c41945050505050565b348015610d0357600080fd5b5061036d611eaf565b348015610d1857600080fd5b506102ce611ebe565b348015610d2d57600080fd5b506102ce611f19565b348015610d4257600080fd5b50610de960048036036040811015610d5957600080fd5b810190602081018135602060020a811115610d7357600080fd5b820183602082011115610d8557600080fd5b803590602001918460018302840111602060020a83111715610da657600080fd5b91908080601f0160208091040260200160405190810160405280939291908181526020018383808284376000920191909152509295505091359250611f4c915050565b6040518080602001868152602001858152602001848152602001831515151581526020018281038252878181518152602001915080519060200190808383600083811015610bf2578181015183820152602001610bda565b348015610e4d57600080fd5b5061014961217e565b348015610e6257600080fd5b5061057960048036036020811015610e7957600080fd5b810190602081018135602060020a811115610e9357600080fd5b820183602082011115610ea557600080fd5b803590602001918460018302840111602060020a83111715610ec657600080fd5b91908080601f016020809104026020016040519081016040528093929190818152602001838380828437600092019190915250929550612184945050505050565b348015610f1357600080fd5b5061036d6121fc565b348015610f2857600080fd5b50610fcd60048036036020811015610f3f57600080fd5b810190602081018135602060020a811115610f5957600080fd5b820183602082011115610f6b57600080fd5b803590602001918460018302840111602060020a83111715610f8c57600080fd5b91908080601f01602080910402602001604051908101604052809392919081815260200183838082843760009201919091525092955061220b945050505050565b604051808060200180602001848152602001838103835286818151815260200191508051906020019080838360005b83811015611014578181015183820152602001610ffc565b50505050905090810190601f1680156110415780820380516001836020036101000a031916815260200191505b50838103825285518152855160209182019187019080838360008381101561072c578181015183820152602001610714565b600c5481565b60006110848261246f565b600f826040518082805190602001908083835b602083106110b65780518252601f199092019160209182019101611097565b51815160209384036101000a6000190180199092169116179052920194855250604051938490030190922060010154949350505050565b600b546060906000908310611142576040805160e560020a62461bcd0281526020600482015260106024820152608360020a6f09eeccae4ccd8deeecac840d2dcc8caf02604482015290519081900360640190fd5b600b54600090600185011015611156575060015b600b80548590811061116457fe5b60009182526020918290200180546040805160026001841615610100026000190190931692909204601f81018590048502830185019091528082529192849284918301828280156111f65780601f106111cb576101008083540402835291602001916111f6565b820191906000526020600020905b8154815290600101906020018083116111d957829003601f168201915b505050505091509250925050915091565b6009805460408051602060026001851615610100026000190190941693909304601f8101849004840282018401909252818152929183018282801561128d5780601f106112625761010080835404028352916020019161128d565b820191906000526020600020905b81548152906001019060200180831161127057829003601f168201915b505050505081565b6040805180820190915260138152606a60020a721c185e5b595b9d17d8da1958dacb985919195902602082015281565b600554600160a060020a031681565b600b8054829081106112e257fe5b600091825260209182902001805460408051601f600260001961010060018716150201909416939093049283018590048502810185019091528181529350909183018282801561128d5780601f106112625761010080835404028352916020019161128d565b600754600160a060020a031633146113b3576040805160e560020a62461bcd02815260206004820152602f60248201526000805160206130c68339815191526044820152608960020a6e37b936903a3434b99030b1ba34b7b702606482015290519081900360840190fd5b60006113bf8787612549565b9050608060405190810160405280868152602001858152602001848152602001838152506011866040518082805190602001908083835b602083106114155780518252601f1990920191602091820191016113f6565b51815160209384036101000a600019018019909216911617905292019485525060405193849003810190932084518051919461145694508593500190612f4a565b50602082810151600180840191909155604084015160028401556060909301516003928301559083018054928301808255600091825290829020885191936114a49391019190890190612f4a565b50506114dd604080519081016040528060138152602001606a60020a721c185e5b595b9d17d8da1958dacb9859191959028152506127b9565b50505050505050565b60006114f182612a28565b6010826040518082805190602001908083835b602083106115235780518252601f199092019160209182019101611504565b51815160209384036101000a6000190180199092169116179052920194855250604051938490030190922060030154949350505050565b6060600080600061156a85612aff565b6011856040518082805190602001908083835b6020831061159c5780518252601f19909201916020918201910161157d565b51815160209384036101000a6000190180199092169116179052920194855250604051938490038101842089519094601194508a9350918291908401908083835b602083106115fc5780518252601f1990920191602091820191016115dd565b51815160209384036101000a60001901801990921691161790529201948552506040519384900381018420600101548a519094601194508b9350918291908401908083835b602083106116605780518252601f199092019160209182019101611641565b51815160209384036101000a60001901801990921691161790529201948552506040519384900381018420600201548b519094601194508c9350918291908401908083835b602083106116c45780518252601f1990920191602091820191016116a5565b518151600019602094850361010090810a82019283169219939093169190911790925294909201968752604080519788900382018820600301548b54601f6002600183161590980290950116959095049283018290048202880182019052818752929594508893509184019050828280156117805780601f1061175557610100808354040283529160200191611780565b820191906000526020600020905b81548152906001019060200180831161176357829003601f168201915b5050505050935093509350935093509193509193565b600a805460408051602060026001851615610100026000190190941693909304601f8101849004840282018401909252818152929183018282801561128d5780601f106112625761010080835404028352916020019161128d565b6008805460408051602060026001851615610100026000190190941693909304601f8101849004840282018401909252818152929183018282801561128d5780601f106112625761010080835404028352916020019161128d565b600754600160a060020a031633146118b7576040805160e560020a62461bcd02815260206004820152602f60248201526000805160206130c68339815191526044820152608960020a6e37b936903a3434b99030b1ba34b7b702606482015290519081900360840190fd5b60006118c38585612549565b84519091506118d89082906020870190612f4a565b5082516118ee9060018301906020860190612f4a565b5060020155505050565b600754600160a060020a03163314611963576040805160e560020a62461bcd02815260206004820152602f60248201526000805160206130c68339815191526044820152608960020a6e37b936903a3434b99030b1ba34b7b702606482015290519081900360840190fd5b600d829055600c839055835161198090600a906020870190612f4a565b50600e8190558451611999906009906020880190612f4a565b506119d4604080519081016040528060168152602001605260020a751c185e5b595b9d17d8db185d5cd94b98dc99585d195902815250612bc4565b5050505050565b6060806000806119ea8661246f565b600f866040518082805190602001908083835b60208310611a1c5780518252601f1990920191602091820191016119fd565b51815160209384036101000a600019018019909216911617905292019485525060405193849003019092206001015487109150611a9b9050576040805160e560020a62461bcd0281526020600482015260106024820152608360020a6f09eeccae4ccd8deeecac840d2dcc8caf02604482015290519081900360640190fd5b600080905085600101600f886040518082805190602001908083835b60208310611ad65780518252601f199092019160209182019101611ab7565b51815160209384036101000a600019018019909216911617905292019485525060405193849003019092206001015492909211159150611b169050575060015b6060806000611c26600f8b6040518082805190602001908083835b60208310611b505780518252601f199092019160209182019101611b31565b51815160209384036101000a6000190180199092169116179052920194855250604051938490030190922060010180549092508c91508110611b8e57fe5b600091825260209182902001805460408051601f6002600019610100600187161502019094169390930492830185900485028101850190915281815292830182828015611c1c5780601f10611bf157610100808354040283529160200191611c1c565b820191906000526020600020905b815481529060010190602001808311611bff57829003601f168201915b505050505061220b565b919c909b509099509397509295505050505050565b600d5481565b60606000806000611cbc8560016010886040518082805190602001908083835b60208310611c805780518252601f199092019160209182019101611c61565b51815160209384036101000a6000190180199092169116179052920194855250604051938490030190922060030154929092039150612c909050565b611ea060116010876040518082805190602001908083835b60208310611cf35780518252601f199092019160209182019101611cd4565b6001836020036101000a038019825116818451168082178552505050505050905001915050908152602001604051809103902060030160016010896040518082805190602001908083835b60208310611d5d5780518252601f199092019160209182019101611d3e565b51815160209384036101000a600019018019909216911617905292019485525060405193849003019092206003015484549390039283109150611d9e905057fe5b906000526020600020016040518082805460018160011615610100020316600290048015611e035780601f10611de1576101008083540402835291820191611e03565b820191906000526020600020905b815481529060010190602001808311611def575b505092835250506040805160209281900383018120805460026001821615610100026000190190911604601f81018590048502830185019093528282529092909190830182828015611e965780601f10611e6b57610100808354040283529160200191611e96565b820191906000526020600020905b815481529060010190602001808311611e7957829003601f168201915b505050505061155a565b93509350935093509193509193565b600654600160a060020a031681565b6000805460408051602060026001851615610100026000190190941693909304601f8101849004840282018401909252818152929183018282801561128d5780601f106112625761010080835404028352916020019161128d565b6040805180820190915260168152605260020a751c185e5b595b9d17d8db185d5cd94b98dc99585d195902602082015281565b6060600080600080611f5d87612a28565b6010876040518082805190602001908083835b60208310611f8f5780518252601f199092019160209182019101611f70565b51815160209384036101000a60001901801990921691161790529201948552506040519384900301909220600301548810915061200e9050576040805160e560020a62461bcd0281526020600482015260106024820152608360020a6f09eeccae4ccd8deeecac840d2dcc8caf02604482015290519081900360640190fd5b6000809050866001016010896040518082805190602001908083835b602083106120495780518252601f19909201916020918201910161202a565b51815160209384036101000a6000190180199092169116179052920194855250604051938490030190922060030154929092111591506120899050575060015b6060600080600061216660108d6040518082805190602001908083835b602083106120c55780518252601f1990920191602091820191016120a6565b51815160209384036101000a6000190180199092169116179052920194855250604051938490030190922060030180549092508e9150811061210357fe5b600091825260209182902001805460408051601f6002600019610100600187161502019094169390930492830185900485028101850190915281815292830182828015611e965780601f10611e6b57610100808354040283529160200191611e96565b929f919e509c50909a50949850939650505050505050565b600e5481565b600754600160a060020a031633146121ef576040805160e560020a62461bcd02815260206004820152602f60248201526000805160206130c68339815191526044820152608960020a6e37b936903a3434b99030b1ba34b7b702606482015290519081900360840190fd5b6121f881612d6c565b5050565b600754600160a060020a031681565b606080600061221984612a28565b6010846040518082805190602001908083835b6020831061224b5780518252601f19909201916020918201910161222c565b51815160209384036101000a600019018019909216911617905292019485525060405193849003810184208851909460109450899350918291908401908083835b602083106122ab5780518252601f19909201916020918201910161228c565b6001836020036101000a03801982511681845116808217855250505050505090500191505090815260200160405180910390206001016010866040518082805190602001908083835b602083106123135780518252601f1990920191602091820191016122f4565b518151600019602094850361010090810a820192831692199390931691909117909252949092019687526040805197889003820188206002908101548b54601f60018216159098029095019094160494850182900482028801820190528387529095945087935084019050828280156123cd5780601f106123a2576101008083540402835291602001916123cd565b820191906000526020600020905b8154815290600101906020018083116123b057829003601f168201915b5050855460408051602060026001851615610100026000190190941693909304601f81018490048402820184019092528181529598508794509250840190508282801561245b5780601f106124305761010080835404028352916020019161245b565b820191906000526020600020905b81548152906001019060200180831161243e57829003601f168201915b505050505091509250925092509193909250565b600f816040518082805190602001908083835b602083106124a15780518252601f199092019160209182019101612482565b6001836020036101000a0380198251168184511680821785525050505050509050019150509081526020016040518091039020600001805460018160011615610100020316600290049050600014151515612546576040805160e560020a62461bcd02815260206004820152601b60248201527f5468697320726563656976657220646f65736e27742065786973740000000000604482015290519081900360640190fd5b50565b600061255483612d6c565b506010826040518082805190602001908083835b602083106125875780518252601f199092019160209182019101612568565b6001836020036101000a0380198251168184511680821785525050505050509050019150509081526020016040518091039020600001805460018160011615610100020316600290049050600014156127535760606080604051908101604052808481526020016020604051908101604052806000815250815260200160008152602001828152506010846040518082805190602001908083835b602083106126415780518252601f199092019160209182019101612622565b51815160209384036101000a600019018019909216911617905292019485525060405193849003810190932084518051919461268294508593500190612f4a565b50602082810151805161269b9260018501920190612f4a565b5060408201516002820155606082015180516126c1916003840191602090910190612fc8565b50905050600f846040518082805190602001908083835b602083106126f75780518252601f1990920191602091820191016126d8565b51815160209384036101000a6000190180199092169116179052920194855250604051938490038101909320600190810180549182018082556000918252908590208851919561274f95509201925090870190612f4a565b5050505b6010826040518082805190602001908083835b602083106127855780518252601f199092019160209182019101612766565b51815160209384036101000a6000190180199092169116179052920194855250604051938490030190922095945050505050565b6000805b6005546040805160e260020a633ce8989d0281526024810184905260048101918252600080546002600019600183161561010002019091160460448301819052600160a060020a039094169363f3a26274939192869291829160640190859080156128695780601f1061283e57610100808354040283529160200191612869565b820191906000526020600020905b81548152906001019060200180831161284c57829003601f168201915b5050935050505060206040518083038186803b15801561288857600080fd5b505afa15801561289c573d6000803e3d6000fd5b505050506040513d60208110156128b257600080fd5b50519150600101600160a060020a03821615612a135760408051306044820181905260248201928352855160648301528551600160a060020a0386169387939091829160840190602086019080838360005b8381101561291c578181015183820152602001612904565b50505050905090810190601f1680156129495780820380516001836020036101000a031916815260200191505b5060408051601f19818403018152918152602082018051600160e060020a031660e160020a63738f32bb0217815290518251929650945084935091508083835b602083106129a85780518252601f199092019160209182019101612989565b6001836020036101000a0380198251168184511680821785525050505050509050019150506000604051808303816000865af19150503d8060008114612a0a576040519150601f19603f3d011682016040523d82523d6000602084013e612a0f565b606091505b5050505b600160a060020a03821615156127bd57505050565b6010816040518082805190602001908083835b60208310612a5a5780518252601f199092019160209182019101612a3b565b6001836020036101000a0380198251168184511680821785525050505050509050019150509081526020016040518091039020600001805460018160011615610100020316600290049050600014151515612546576040805160e560020a62461bcd02815260206004820152601c60248201527f54686973207265666572656e636520646f65736e277420657869737400000000604482015290519081900360640190fd5b6011816040518082805190602001908083835b60208310612b315780518252601f199092019160209182019101612b12565b6001836020036101000a0380198251168184511680821785525050505050509050019150509081526020016040518091039020600001805460018160011615610100020316600290049050600014151515612546576040805160e560020a62461bcd02815260206004820181905260248201526000805160206130a6833981519152604482015290519081900360640190fd5b6006546040805160e160020a63738f32bb028152306024820181905260048201928352845160448301528451600160a060020a039094169363e71e65769386939091829160640190602086019080838360005b83811015612c2f578181015183820152602001612c17565b50505050905090810190601f168015612c5c5780820380516001836020036101000a031916815260200191505b509350505050600060405180830381600087803b158015612c7c57600080fd5b505af11580156119d4573d6000803e3d6000fd5b612c9982612a28565b6010826040518082805190602001908083835b60208310612ccb5780518252601f199092019160209182019101612cac565b51815160209384036101000a6000190180199092169116179052920194855250604051938490030190922060030180549092508391508110612d0957fe5b6000918252602090912001546002600019610100600184161502019091160415156121f8576040805160e560020a62461bcd02815260206004820181905260248201526000805160206130a6833981519152604482015290519081900360640190fd5b6000600f826040518082805190602001908083835b60208310612da05780518252601f199092019160209182019101612d81565b6001836020036101000a038019825116818451168082178552505050505050905001915050908152602001604051809103902060000180546001816001161561010002031660029004905060001415612ee5576060604080519081016040528084815260200182815250600f846040518082805190602001908083835b60208310612e3c5780518252601f199092019160209182019101612e1d565b51815160209384036101000a6000190180199092169116179052920194855250604051938490038101909320845180519194612e7d94508593500190612f4a565b506020828101518051612e969260018501920190612fc8565b5050600b8054600181018083556000929092528551919250612ee1917f0175b7a638427703f0dbe7bb9bbf987a2551717b34e79f33b5b1008d1fa01db9909101906020870190612f4a565b5050505b600f826040518082805190602001908083835b60208310612f175780518252601f199092019160209182019101612ef8565b51815160209384036101000a60001901801990921691161790529201948552506040519384900301909220949350505050565b828054600181600116156101000203166002900490600052602060002090601f016020900481019282601f10612f8b57805160ff1916838001178555612fb8565b82800160010185558215612fb8579182015b82811115612fb8578251825591602001919060010190612f9d565b50612fc4929150613021565b5090565b828054828255906000526020600020908101928215613015579160200282015b828111156130155782518051613005918491602090910190612f4a565b5091602001919060010190612fe8565b50612fc492915061303e565b61303b91905b80821115612fc45760008155600101613027565b90565b61303b91905b80821115612fc45760006130588282613061565b50600101613044565b50805460018160011615610100020316600290046000825580601f106130875750612546565b601f016020900490600052602060002090810190612546919061302156fe54686973207061796d656e7420636865636b20646f65736e27742065786973744f6e6c79205369676e617475726974206163636f756e742063616e2070657266a165627a7a72305820950d1b615c054ef16d15ed3335ee34aae17fae944ff8bc408eb0ddd9792565c80029",
  "source": "pragma solidity <0.6.0;\n\n/*\nGas to deploy: 3.347.342\n\nPaymentCheck status legend:\n\nUNPROCESSED    = 0;\nPROCESSING     = 1;\nPAID           = 2;\nOVER_PAID      = 3;\nPARTIALLY_PAID = 4;\n*/\n\nimport \"./Clause.sol\";\n\n\ncontract Payment is Clause(\n    \"payment_clause_notifiers\"\n)\n{\n    string constant public CLAUSE_EVENT_TYPE = \"payment_check.added\";\n    string constant public CREATION_EVENT_TYPE = \"payment_clause.created\";\n\n    struct PaymentCheck {\n        string id;\n        uint status;\n        uint checkedAt;\n        uint createdAt;\n    }\n\n    struct Reference {\n        string id;\n        string value;\n        uint price;\n        string[] checks;\n    }\n\n    struct Receiver {\n        string id;\n        string[] references;\n    }\n\n    address public signaturit;\n\n    string public contractId;\n    string public signatureId;\n    string public documentId;\n\n    string[] public receiversArray;\n\n    uint public startDate;\n    uint public endDate;\n    uint public period;\n\n    mapping(string => Receiver) private receivers;\n    mapping(string => Reference) private references;\n    mapping(string => PaymentCheck) private paymentChecks;\n\n    constructor(\n        address userContractAddress,\n        address signatureContractAddress,\n        string memory id\n    )\n        public\n    {\n        contractId = id;\n        signaturit = msg.sender;\n\n        userContract = SignaturitUserInterface(userContractAddress);\n        signatureContract = NotifierInterface(signatureContractAddress);\n    }\n\n    modifier signaturitOnly() {\n        require(\n            msg.sender == signaturit,\n            \"Only Signaturit account can perform this action\"\n        );\n\n        _;\n    }\n\n    function init(\n        string memory signature,\n        string memory document,\n        uint start,\n        uint end,\n        uint paymentPeriod\n    )\n        public\n        signaturitOnly\n    {\n        endDate = end;\n        startDate = start;\n        documentId = document;\n        period = paymentPeriod;\n        signatureId = signature;\n\n        _notifySignature(CREATION_EVENT_TYPE);\n    }\n\n    function setReceiver(\n        string memory id\n    )\n        public\n        signaturitOnly\n    {\n        _getReceiver(id);\n    }\n\n    function setReference(\n        string memory receiverId,\n        string memory referenceId,\n        string memory referenceValue,\n        uint referencePrice\n    )\n        public\n        signaturitOnly\n    {\n        Reference storage newReference = _getReference(\n            receiverId,\n            referenceId\n        );\n\n        newReference.id = referenceId;\n        newReference.value = referenceValue;\n        newReference.price = referencePrice;\n    }\n\n    function addPaymentCheck(\n        string memory receiverId,\n        string memory referenceId,\n        string memory paymentCheckId,\n        uint status,\n        uint checkedAt,\n        uint createdAt\n    )\n        public\n        signaturitOnly\n    {\n        Reference storage newReference = _getReference(\n            receiverId,\n            referenceId\n        );\n\n        paymentChecks[paymentCheckId] = PaymentCheck(\n            paymentCheckId,\n            status,\n            checkedAt,\n            createdAt\n        );\n\n        newReference.checks.push(paymentCheckId);\n\n        _notify(CLAUSE_EVENT_TYPE);\n    }\n\n    // Get paymentCheck if you got the id\n    function getPaymentCheckById(\n        string memory paymentCheckId\n    )\n        public\n        view\n        returns (\n            string memory id,\n            uint status,\n            uint checkedAt,\n            uint createdAt\n        )\n    {\n        _checkPaymentCheckExistence(paymentCheckId);\n\n        return (\n            paymentChecks[paymentCheckId].id,\n            paymentChecks[paymentCheckId].status,\n            paymentChecks[paymentCheckId].checkedAt,\n            paymentChecks[paymentCheckId].createdAt\n        );\n    }\n\n    // Get paymentCheckID if you want the last one given a referenceId\n    function getLastPaymentCheckFromReference(\n        string memory referenceId\n    )\n        public\n        view\n        returns (\n            string memory id,\n            uint status,\n            uint checkedAt,\n            uint createdAt\n        )\n    {\n        _checkPaymentCheckFromReferenceExistence(\n            referenceId,\n            references[referenceId].checks.length - 1\n        );\n\n        return getPaymentCheckById(\n            paymentChecks[\n                references[\n                    referenceId\n                ].checks[\n                    references[\n                        referenceId\n                    ].checks.length - 1\n                ]\n            ].id\n        );\n    }\n\n    // Get paymentCheckID if you want to iterate through all\n    // the paymentChecks of a reference\n    function getPaymentCheckFromReference(\n        string memory referenceId,\n        uint index\n    )\n        public\n        view\n        returns (\n            string memory id,\n            uint status,\n            uint checkedAt,\n            uint createdAt,\n            bool more\n        )\n    {\n        _checkReferenceExistence(referenceId);\n\n        require(\n            index < references[referenceId].checks.length,\n            \"Overflowed index\"\n        );\n\n        bool thereIsMore = false;\n\n        if (references[referenceId].checks.length > index + 1)\n            thereIsMore = true;\n\n        (\n            string memory paymentCheckId,\n            uint paymentCheckStatus,\n            uint paymentCheckCheckedAt,\n            uint paymentCheckCreatedAt\n        ) = getPaymentCheckById(\n            references[referenceId].checks[index]\n        );\n\n        return(\n            paymentCheckId,\n            paymentCheckStatus,\n            paymentCheckCheckedAt,\n            paymentCheckCreatedAt,\n            thereIsMore\n        );\n    }\n\n    // Get how many paymentChecks there are for a reference\n    function getPaymentCheckSizeFromReference(\n        string memory referenceId\n    )\n        public\n        view\n        returns (uint size)\n    {\n        _checkReferenceExistence(referenceId);\n\n        return references[referenceId].checks.length;\n    }\n\n    // Get reference if you got the id\n    function getReferenceById(\n        string memory referenceId\n    )\n        public\n        view\n        returns (\n            string memory id,\n            string memory value,\n            uint price\n        )\n    {\n        _checkReferenceExistence(referenceId);\n\n        return(\n            references[referenceId].id,\n            references[referenceId].value,\n            references[referenceId].price\n        );\n    }\n\n    // Get referenceID if you want to iterate through all\n    // the references of a receiver\n    function getReferenceFromReceiver(\n        string memory receiverId,\n        uint index\n    )\n        public\n        view\n        returns (\n            string memory id,\n            string memory value,\n            uint price,\n            bool more\n        )\n    {\n        _checkReceiverExistence(receiverId);\n\n        require(\n            index < receivers[receiverId].references.length,\n            \"Overflowed index\"\n        );\n\n        bool thereIsMore = false;\n\n        if (receivers[receiverId].references.length > index + 1)\n            thereIsMore = true;\n\n        (\n            string memory referenceId,\n            string memory referenceValue,\n            uint referencePrice\n        ) = getReferenceById(\n            receivers[receiverId].references[index]\n        );\n\n        return(\n            referenceId,\n            referenceValue,\n            referencePrice,\n            thereIsMore\n        );\n    }\n\n    // Get references size from receiver\n    function getReferenceSizeFromReceiver(\n        string memory receiverId\n    )\n        public\n        view\n        returns (uint size)\n    {\n        _checkReceiverExistence(receiverId);\n\n        return receivers[receiverId].references.length;\n    }\n\n    // Get receiverID by index\n    function getReceiverId(\n        uint index\n    )\n        public\n        view\n        returns (\n            string memory id,\n            bool more\n        )\n    {\n        require(\n            index < receiversArray.length,\n            \"Overflowed index\"\n        );\n\n        bool thereIsMore = false;\n\n        if (receiversArray.length > index + 1)\n            thereIsMore = true;\n\n        return(\n            receiversArray[index],\n            thereIsMore\n        );\n    }\n\n    function _getReceiver(\n        string memory id\n    )\n        private\n        returns (Receiver storage)\n    {\n        if (bytes(receivers[id].id).length == 0) {\n\n            string[] memory tmpString;\n\n            receivers[id] = Receiver(id, tmpString);\n\n            receiversArray.push(id);\n        }\n\n        return receivers[id];\n    }\n\n    function _getReference(\n        string memory receiverId,\n        string memory referenceId\n    )\n        private\n        returns (Reference storage)\n    {\n        _getReceiver(receiverId);\n\n        if (bytes(references[referenceId].id).length == 0) {\n\n            string[] memory tmpPaymentChecks;\n\n            references[referenceId] = Reference(\n                referenceId,\n                \"\",\n                0,\n                tmpPaymentChecks\n            );\n\n            receivers[receiverId].references.push(referenceId);\n        }\n\n        return references[referenceId];\n    }\n\n    function _checkReferenceExistence(\n        string memory id\n    )\n        private\n        view\n    {\n        require(\n            bytes(references[id].id).length != 0,\n            \"This reference doesn't exist\"\n        );\n    }\n\n    function _checkReceiverExistence(\n        string memory id\n    )\n        private\n        view\n    {\n        require(\n            bytes(receivers[id].id).length != 0,\n            \"This receiver doesn't exist\"\n        );\n    }\n\n    function _checkPaymentCheckFromReferenceExistence(\n        string memory referenceId,\n        uint index\n    )\n        private\n        view\n    {\n        _checkReferenceExistence(referenceId);\n\n        require(\n            bytes(references[referenceId].checks[index]).length != 0,\n            \"This payment check doesn't exist\"\n        );\n    }\n\n    function _checkPaymentCheckExistence(\n        string memory id\n    )\n        private\n        view\n    {\n        require(\n            bytes(paymentChecks[id].id).length != 0,\n            \"This payment check doesn't exist\"\n        );\n    }\n}\n",
  "sourcePath": "/home/administrator/workspace/signaturit-solidity-contracts/contracts/Payment.sol",
  "compiler": {
    "name": "solc",
    "version": "0.5.0+commit.1d4f565a.Emscripten.clang"
  },
  "schemaVersion": "3.0.11",
  "updatedAt": "2019-10-16T13:50:03.083Z",
  "devdoc": {
    "methods": {}
  },
  "userdoc": {
    "methods": {}
  }
}