{
  "contractName": "Payment",
  "abi": [
    {
      "constant": true,
      "inputs": [],
      "name": "startDate",
      "outputs": [
        {
          "internalType": "uint256",
          "name": "",
          "type": "uint256"
        }
      ],
      "payable": false,
      "stateMutability": "view",
      "type": "function"
    },
    {
      "constant": true,
      "inputs": [],
      "name": "signatureId",
      "outputs": [
        {
          "internalType": "string",
          "name": "",
          "type": "string"
        }
      ],
      "payable": false,
      "stateMutability": "view",
      "type": "function"
    },
    {
      "constant": true,
      "inputs": [],
      "name": "userContract",
      "outputs": [
        {
          "internalType": "contract UserInterface",
          "name": "",
          "type": "address"
        }
      ],
      "payable": false,
      "stateMutability": "view",
      "type": "function"
    },
    {
      "constant": true,
      "inputs": [],
      "name": "clause",
      "outputs": [
        {
          "internalType": "string",
          "name": "",
          "type": "string"
        }
      ],
      "payable": false,
      "stateMutability": "view",
      "type": "function"
    },
    {
      "constant": true,
      "inputs": [
        {
          "internalType": "uint256",
          "name": "",
          "type": "uint256"
        }
      ],
      "name": "receiversArray",
      "outputs": [
        {
          "internalType": "string",
          "name": "",
          "type": "string"
        }
      ],
      "payable": false,
      "stateMutability": "view",
      "type": "function"
    },
    {
      "constant": true,
      "inputs": [],
      "name": "documentId",
      "outputs": [
        {
          "internalType": "string",
          "name": "",
          "type": "string"
        }
      ],
      "payable": false,
      "stateMutability": "view",
      "type": "function"
    },
    {
      "constant": true,
      "inputs": [],
      "name": "contractId",
      "outputs": [
        {
          "internalType": "string",
          "name": "",
          "type": "string"
        }
      ],
      "payable": false,
      "stateMutability": "view",
      "type": "function"
    },
    {
      "constant": true,
      "inputs": [],
      "name": "NOTIFICATION_EVENT",
      "outputs": [
        {
          "internalType": "string",
          "name": "",
          "type": "string"
        }
      ],
      "payable": false,
      "stateMutability": "view",
      "type": "function"
    },
    {
      "constant": true,
      "inputs": [],
      "name": "endDate",
      "outputs": [
        {
          "internalType": "uint256",
          "name": "",
          "type": "uint256"
        }
      ],
      "payable": false,
      "stateMutability": "view",
      "type": "function"
    },
    {
      "constant": true,
      "inputs": [],
      "name": "signatureSmartContract",
      "outputs": [
        {
          "internalType": "contract SignatureInterface",
          "name": "",
          "type": "address"
        }
      ],
      "payable": false,
      "stateMutability": "view",
      "type": "function"
    },
    {
      "constant": true,
      "inputs": [],
      "name": "signatureContract",
      "outputs": [
        {
          "internalType": "contract SignatureInterface",
          "name": "",
          "type": "address"
        }
      ],
      "payable": false,
      "stateMutability": "view",
      "type": "function"
    },
    {
      "constant": true,
      "inputs": [],
      "name": "period",
      "outputs": [
        {
          "internalType": "uint256",
          "name": "",
          "type": "uint256"
        }
      ],
      "payable": false,
      "stateMutability": "view",
      "type": "function"
    },
    {
      "constant": true,
      "inputs": [],
      "name": "signaturit",
      "outputs": [
        {
          "internalType": "address",
          "name": "",
          "type": "address"
        }
      ],
      "payable": false,
      "stateMutability": "view",
      "type": "function"
    },
    {
      "inputs": [
        {
          "internalType": "address",
          "name": "userContractAddress",
          "type": "address"
        },
        {
          "internalType": "address",
          "name": "signatureContractAddress",
          "type": "address"
        },
        {
          "internalType": "string",
          "name": "id",
          "type": "string"
        }
      ],
      "payable": false,
      "stateMutability": "nonpayable",
      "type": "constructor"
    },
    {
      "constant": false,
      "inputs": [
        {
          "internalType": "string",
          "name": "signature",
          "type": "string"
        },
        {
          "internalType": "string",
          "name": "document",
          "type": "string"
        },
        {
          "internalType": "uint256",
          "name": "start",
          "type": "uint256"
        },
        {
          "internalType": "uint256",
          "name": "end",
          "type": "uint256"
        },
        {
          "internalType": "uint256",
          "name": "paymentPeriod",
          "type": "uint256"
        }
      ],
      "name": "init",
      "outputs": [],
      "payable": false,
      "stateMutability": "nonpayable",
      "type": "function"
    },
    {
      "constant": false,
      "inputs": [
        {
          "internalType": "string",
          "name": "id",
          "type": "string"
        }
      ],
      "name": "setReceiver",
      "outputs": [],
      "payable": false,
      "stateMutability": "nonpayable",
      "type": "function"
    },
    {
      "constant": false,
      "inputs": [
        {
          "internalType": "string",
          "name": "receiverId",
          "type": "string"
        },
        {
          "internalType": "string",
          "name": "referenceId",
          "type": "string"
        },
        {
          "internalType": "string",
          "name": "referenceValue",
          "type": "string"
        },
        {
          "internalType": "uint256",
          "name": "referencePrice",
          "type": "uint256"
        }
      ],
      "name": "setReference",
      "outputs": [],
      "payable": false,
      "stateMutability": "nonpayable",
      "type": "function"
    },
    {
      "constant": false,
      "inputs": [
        {
          "internalType": "string",
          "name": "receiverId",
          "type": "string"
        },
        {
          "internalType": "string",
          "name": "referenceId",
          "type": "string"
        },
        {
          "internalType": "string",
          "name": "paymentCheckId",
          "type": "string"
        },
        {
          "internalType": "uint256",
          "name": "status",
          "type": "uint256"
        },
        {
          "internalType": "uint256",
          "name": "checkedAt",
          "type": "uint256"
        },
        {
          "internalType": "uint256",
          "name": "createdAt",
          "type": "uint256"
        }
      ],
      "name": "addPaymentCheck",
      "outputs": [],
      "payable": false,
      "stateMutability": "nonpayable",
      "type": "function"
    },
    {
      "constant": true,
      "inputs": [
        {
          "internalType": "string",
          "name": "paymentCheckId",
          "type": "string"
        }
      ],
      "name": "getPaymentCheckById",
      "outputs": [
        {
          "internalType": "string",
          "name": "id",
          "type": "string"
        },
        {
          "internalType": "uint256",
          "name": "status",
          "type": "uint256"
        },
        {
          "internalType": "uint256",
          "name": "checkedAt",
          "type": "uint256"
        },
        {
          "internalType": "uint256",
          "name": "createdAt",
          "type": "uint256"
        }
      ],
      "payable": false,
      "stateMutability": "view",
      "type": "function"
    },
    {
      "constant": true,
      "inputs": [
        {
          "internalType": "string",
          "name": "referenceId",
          "type": "string"
        }
      ],
      "name": "getLastPaymentCheckFromReference",
      "outputs": [
        {
          "internalType": "string",
          "name": "id",
          "type": "string"
        },
        {
          "internalType": "uint256",
          "name": "status",
          "type": "uint256"
        },
        {
          "internalType": "uint256",
          "name": "checkedAt",
          "type": "uint256"
        },
        {
          "internalType": "uint256",
          "name": "createdAt",
          "type": "uint256"
        }
      ],
      "payable": false,
      "stateMutability": "view",
      "type": "function"
    },
    {
      "constant": true,
      "inputs": [
        {
          "internalType": "string",
          "name": "referenceId",
          "type": "string"
        },
        {
          "internalType": "uint256",
          "name": "index",
          "type": "uint256"
        }
      ],
      "name": "getPaymentCheckFromReference",
      "outputs": [
        {
          "internalType": "string",
          "name": "id",
          "type": "string"
        },
        {
          "internalType": "uint256",
          "name": "status",
          "type": "uint256"
        },
        {
          "internalType": "uint256",
          "name": "checkedAt",
          "type": "uint256"
        },
        {
          "internalType": "uint256",
          "name": "createdAt",
          "type": "uint256"
        },
        {
          "internalType": "bool",
          "name": "more",
          "type": "bool"
        }
      ],
      "payable": false,
      "stateMutability": "view",
      "type": "function"
    },
    {
      "constant": true,
      "inputs": [
        {
          "internalType": "string",
          "name": "referenceId",
          "type": "string"
        }
      ],
      "name": "getPaymentCheckSizeFromReference",
      "outputs": [
        {
          "internalType": "uint256",
          "name": "size",
          "type": "uint256"
        }
      ],
      "payable": false,
      "stateMutability": "view",
      "type": "function"
    },
    {
      "constant": true,
      "inputs": [
        {
          "internalType": "string",
          "name": "referenceId",
          "type": "string"
        }
      ],
      "name": "getReferenceById",
      "outputs": [
        {
          "internalType": "string",
          "name": "id",
          "type": "string"
        },
        {
          "internalType": "string",
          "name": "value",
          "type": "string"
        },
        {
          "internalType": "uint256",
          "name": "price",
          "type": "uint256"
        }
      ],
      "payable": false,
      "stateMutability": "view",
      "type": "function"
    },
    {
      "constant": true,
      "inputs": [
        {
          "internalType": "string",
          "name": "receiverId",
          "type": "string"
        },
        {
          "internalType": "uint256",
          "name": "index",
          "type": "uint256"
        }
      ],
      "name": "getReferenceFromReceiver",
      "outputs": [
        {
          "internalType": "string",
          "name": "id",
          "type": "string"
        },
        {
          "internalType": "string",
          "name": "value",
          "type": "string"
        },
        {
          "internalType": "uint256",
          "name": "price",
          "type": "uint256"
        },
        {
          "internalType": "bool",
          "name": "more",
          "type": "bool"
        }
      ],
      "payable": false,
      "stateMutability": "view",
      "type": "function"
    },
    {
      "constant": true,
      "inputs": [
        {
          "internalType": "string",
          "name": "receiverId",
          "type": "string"
        }
      ],
      "name": "getReferenceSizeFromReceiver",
      "outputs": [
        {
          "internalType": "uint256",
          "name": "size",
          "type": "uint256"
        }
      ],
      "payable": false,
      "stateMutability": "view",
      "type": "function"
    },
    {
      "constant": true,
      "inputs": [
        {
          "internalType": "uint256",
          "name": "index",
          "type": "uint256"
        }
      ],
      "name": "getReceiverId",
      "outputs": [
        {
          "internalType": "string",
          "name": "id",
          "type": "string"
        },
        {
          "internalType": "bool",
          "name": "more",
          "type": "bool"
        }
      ],
      "payable": false,
      "stateMutability": "view",
      "type": "function"
    }
  ],
  "bytecode": "0x60806040523480156200001157600080fd5b506040516200307738038062003077833981810160405260608110156200003757600080fd5b815160208301516040808501805191519395929483019291846401000000008211156200006357600080fd5b9083019060208201858111156200007957600080fd5b82516401000000008111828201881017156200009457600080fd5b82525081516020918201929091019080838360005b83811015620000c3578181015183820152602001620000a9565b50505050905090810190601f168015620000f15780820380516001836020036101000a031916815260200191505b506040818101905260078082527f7061796d656e740000000000000000000000000000000000000000000000000060208301908152919450620001399350600192506200018f565b50508051620001509060089060208401906200018f565b5050600780546001600160a01b03199081163317909155600580546001600160a01b039485169083161790556006805492909316911617905562000234565b828054600181600116156101000203166002900490600052602060002090601f016020900481019282601f10620001d257805160ff191683800117855562000202565b8280016001018555821562000202579182015b8281111562000202578251825591602001919060010190620001e5565b506200021092915062000214565b5090565b6200023191905b808211156200021057600081556001016200021b565b90565b612e3380620002446000396000f3fe608060405234801561001057600080fd5b50600436106101335760003560e01c80630b97bc861461013857806313820f19146101525780631c9a05ec146101f6578063395ba050146102965780635000596b146103135780635ee4a01a14610337578063605b46091461033f578063680488e21461035c5780636b7eab381461051757806374452c90146105bb57806378f7c83f146106ec5780638291286c146106f4578063881c2cc0146106fc578063b344427f146108ac578063b610f10f146108b4578063bfbcafd4146109e8578063c24a0f8b14610b7a578063c511d53114610b82578063c7e3bb0214610b8a578063d83070ab14610c2e578063e2ec46e114610c36578063ef78d4fd14610d31578063f405f28014610d39578063f9b5333514610ddd578063fc2e2c2814610de5575b600080fd5b610140610f2d565b60408051918252519081900360200190f35b6101406004803603602081101561016857600080fd5b810190602081018135600160201b81111561018257600080fd5b82018360208201111561019457600080fd5b803590602001918460018302840111600160201b831117156101b557600080fd5b91908080601f016020809104026020016040519081016040528093929190818152602001838380828437600092019190915250929550610f33945050505050565b6102136004803603602081101561020c57600080fd5b5035610fa7565b604051808060200183151515158152602001828103825284818151815260200191508051906020019080838360005b8381101561025a578181015183820152602001610242565b50505050905090810190601f1680156102875780820380516001836020036101000a031916815260200191505b50935050505060405180910390f35b61029e6110ba565b6040805160208082528351818301528351919283929083019185019080838360005b838110156102d85781810151838201526020016102c0565b50505050905090810190601f1680156103055780820380516001836020036101000a031916815260200191505b509250505060405180910390f35b61031b611148565b604080516001600160a01b039092168252519081900360200190f35b61029e611157565b61029e6004803603602081101561035557600080fd5b50356111b1565b610515600480360360c081101561037257600080fd5b810190602081018135600160201b81111561038c57600080fd5b82018360208201111561039e57600080fd5b803590602001918460018302840111600160201b831117156103bf57600080fd5b91908080601f0160208091040260200160405190810160405280939291908181526020018383808284376000920191909152509295949360208101935035915050600160201b81111561041157600080fd5b82018360208201111561042357600080fd5b803590602001918460018302840111600160201b8311171561044457600080fd5b91908080601f0160208091040260200160405190810160405280939291908181526020018383808284376000920191909152509295949360208101935035915050600160201b81111561049657600080fd5b8201836020820111156104a857600080fd5b803590602001918460018302840111600160201b831117156104c957600080fd5b91908080601f0160208091040260200160405190810160405280939291908181526020018383808284376000920191909152509295505082359350505060208101359060400135611224565b005b6101406004803603602081101561052d57600080fd5b810190602081018135600160201b81111561054757600080fd5b82018360208201111561055957600080fd5b803590602001918460018302840111600160201b8311171561057a57600080fd5b91908080601f01602080910402602001604051908101604052809392919081815260200183838082843760009201919091525092955061139d945050505050565b61065f600480360360208110156105d157600080fd5b810190602081018135600160201b8111156105eb57600080fd5b8201836020820111156105fd57600080fd5b803590602001918460018302840111600160201b8311171561061e57600080fd5b91908080601f016020809104026020016040519081016040528093929190818152602001838380828437600092019190915250929550611411945050505050565b6040518080602001858152602001848152602001838152602001828103825286818151815260200191508051906020019080838360005b838110156106ae578181015183820152602001610696565b50505050905090810190601f1680156106db5780820380516001836020036101000a031916815260200191505b509550505050505060405180910390f35b61029e61164d565b61029e6116a8565b6105156004803603608081101561071257600080fd5b810190602081018135600160201b81111561072c57600080fd5b82018360208201111561073e57600080fd5b803590602001918460018302840111600160201b8311171561075f57600080fd5b91908080601f0160208091040260200160405190810160405280939291908181526020018383808284376000920191909152509295949360208101935035915050600160201b8111156107b157600080fd5b8201836020820111156107c357600080fd5b803590602001918460018302840111600160201b831117156107e457600080fd5b91908080601f0160208091040260200160405190810160405280939291908181526020018383808284376000920191909152509295949360208101935035915050600160201b81111561083657600080fd5b82018360208201111561084857600080fd5b803590602001918460018302840111600160201b8311171561086957600080fd5b91908080601f0160208091040260200160405190810160405280939291908181526020018383808284376000920191909152509295505091359250611703915050565b61029e61178d565b610515600480360360a08110156108ca57600080fd5b810190602081018135600160201b8111156108e457600080fd5b8201836020820111156108f657600080fd5b803590602001918460018302840111600160201b8311171561091757600080fd5b91908080601f0160208091040260200160405190810160405280939291908181526020018383808284376000920191909152509295949360208101935035915050600160201b81111561096957600080fd5b82018360208201111561097b57600080fd5b803590602001918460018302840111600160201b8311171561099c57600080fd5b91908080601f01602080910402602001604051908101604052809392919081815260200183838082843760009201919091525092955050823593505050602081013590604001356117bc565b610a8e600480360360408110156109fe57600080fd5b810190602081018135600160201b811115610a1857600080fd5b820183602082011115610a2a57600080fd5b803590602001918460018302840111600160201b83111715610a4b57600080fd5b91908080601f016020809104026020016040519081016040528093929190818152602001838380828437600092019190915250929550509135925061184b915050565b60408051908101839052811515606082015260808082528551908201528451819060208083019160a084019189019080838360005b83811015610adb578181015183820152602001610ac3565b50505050905090810190601f168015610b085780820380516001836020036101000a031916815260200191505b50838103825286518152865160209182019188019080838360005b83811015610b3b578181015183820152602001610b23565b50505050905090810190601f168015610b685780820380516001836020036101000a031916815260200191505b50965050505050505060405180910390f35b610140611aa5565b61031b611aab565b61065f60048036036020811015610ba057600080fd5b810190602081018135600160201b811115610bba57600080fd5b820183602082011115610bcc57600080fd5b803590602001918460018302840111600160201b83111715610bed57600080fd5b91908080601f016020809104026020016040519081016040528093929190818152602001838380828437600092019190915250929550611aba945050505050565b61031b611d28565b610cdc60048036036040811015610c4c57600080fd5b810190602081018135600160201b811115610c6657600080fd5b820183602082011115610c7857600080fd5b803590602001918460018302840111600160201b83111715610c9957600080fd5b91908080601f0160208091040260200160405190810160405280939291908181526020018383808284376000920191909152509295505091359250611d37915050565b60408051602080820187905291810185905260608101849052821515608082015260a080825287519082015286519091829160c083019189019080838360008315610b3b578181015183820152602001610b23565b610140611f63565b61051560048036036020811015610d4f57600080fd5b810190602081018135600160201b811115610d6957600080fd5b820183602082011115610d7b57600080fd5b803590602001918460018302840111600160201b83111715610d9c57600080fd5b91908080601f016020809104026020016040519081016040528093929190818152602001838380828437600092019190915250929550611f69945050505050565b61031b611fbf565b610e8960048036036020811015610dfb57600080fd5b810190602081018135600160201b811115610e1557600080fd5b820183602082011115610e2757600080fd5b803590602001918460018302840111600160201b83111715610e4857600080fd5b91908080601f016020809104026020016040519081016040528093929190818152602001838380828437600092019190915250929550611fce945050505050565b604051808060200180602001848152602001838103835286818151815260200191508051906020019080838360005b83811015610ed0578181015183820152602001610eb8565b50505050905090810190601f168015610efd5780820380516001836020036101000a031916815260200191505b508381038252855181528551602091820191870190808383600083156106ae578181015183820152602001610696565b600c5481565b6000610f3e82612232565b600f826040518082805190602001908083835b60208310610f705780518252601f199092019160209182019101610f51565b51815160209384036101000a6000190180199092169116179052920194855250604051938490030190922060010154949350505050565b600b546060906000908310610ff6576040805162461bcd60e51b815260206004820152601060248201526f09eeccae4ccd8deeecac840d2dcc8caf60831b604482015290519081900360640190fd5b600b5460009060018501101561100a575060015b600b848154811061101757fe5b60009182526020918290200180546040805160026001841615610100026000190190931692909204601f81018590048502830185019091528082529192849284918301828280156110a95780601f1061107e576101008083540402835291602001916110a9565b820191906000526020600020905b81548152906001019060200180831161108c57829003601f168201915b505050505091509250925050915091565b6009805460408051602060026001851615610100026000190190941693909304601f810184900484028201840190925281815292918301828280156111405780601f1061111557610100808354040283529160200191611140565b820191906000526020600020905b81548152906001019060200180831161112357829003601f168201915b505050505081565b6005546001600160a01b031681565b60018054604080516020600284861615610100026000190190941693909304601f810184900484028201840190925281815292918301828280156111405780601f1061111557610100808354040283529160200191611140565b600b81815481106111be57fe5b600091825260209182902001805460408051601f60026000196101006001871615020190941693909304928301859004850281018501909152818152935090918301828280156111405780601f1061111557610100808354040283529160200191611140565b6007546001600160a01b0316331461126d5760405162461bcd60e51b815260040180806020018281038252602f815260200180612dd0602f913960400191505060405180910390fd5b60006112798787612305565b90506040518060800160405280868152602001858152602001848152602001838152506011866040518082805190602001908083835b602083106112ce5780518252601f1990920191602091820191016112af565b51815160209384036101000a600019018019909216911617905292019485525060405193849003810190932084518051919461130f94508593500190612c54565b506020828101516001808401919091556040840151600284015560609093015160039283015590830180549283018082556000918252908290208851919361135d9391019190890190612c54565b5050611394604051806040016040528060138152602001721c185e5b595b9d17d8da1958dacb9859191959606a1b81525086612573565b50505050505050565b60006113a88261272b565b6010826040518082805190602001908083835b602083106113da5780518252601f1990920191602091820191016113bb565b51815160209384036101000a6000190180199092169116179052920194855250604051938490030190922060030154949350505050565b60606000806000611421856127fc565b6011856040518082805190602001908083835b602083106114535780518252601f199092019160209182019101611434565b51815160209384036101000a6000190180199092169116179052920194855250604051938490038101842089519094601194508a9350918291908401908083835b602083106114b35780518252601f199092019160209182019101611494565b51815160209384036101000a60001901801990921691161790529201948552506040519384900381018420600101548a519094601194508b9350918291908401908083835b602083106115175780518252601f1990920191602091820191016114f8565b51815160209384036101000a60001901801990921691161790529201948552506040519384900381018420600201548b519094601194508c9350918291908401908083835b6020831061157b5780518252601f19909201916020918201910161155c565b518151600019602094850361010090810a82019283169219939093169190911790925294909201968752604080519788900382018820600301548b54601f6002600183161590980290950116959095049283018290048202880182019052818752929594508893509184019050828280156116375780601f1061160c57610100808354040283529160200191611637565b820191906000526020600020905b81548152906001019060200180831161161a57829003601f168201915b5050505050935093509350935093509193509193565b600a805460408051602060026001851615610100026000190190941693909304601f810184900484028201840190925281815292918301828280156111405780601f1061111557610100808354040283529160200191611140565b6008805460408051602060026001851615610100026000190190941693909304601f810184900484028201840190925281815292918301828280156111405780601f1061111557610100808354040283529160200191611140565b6007546001600160a01b0316331461174c5760405162461bcd60e51b815260040180806020018281038252602f815260200180612dd0602f913960400191505060405180910390fd5b60006117588585612305565b845190915061176d9082906020870190612c54565b5082516117839060018301906020860190612c54565b5060020155505050565b604051806040016040528060138152602001721c185e5b595b9d17d8da1958dacb9859191959606a1b81525081565b6007546001600160a01b031633146118055760405162461bcd60e51b815260040180806020018281038252602f815260200180612dd0602f913960400191505060405180910390fd5b600d829055600c839055835161182290600a906020870190612c54565b50600e819055845161183b906009906020880190612c54565b506118446128bc565b5050505050565b60608060008061185a86612232565b600f866040518082805190602001908083835b6020831061188c5780518252601f19909201916020918201910161186d565b51815160209384036101000a6000190180199092169116179052920194855250604051938490030190922060010154871091506119059050576040805162461bcd60e51b815260206004820152601060248201526f09eeccae4ccd8deeecac840d2dcc8caf60831b604482015290519081900360640190fd5b600080905085600101600f886040518082805190602001908083835b602083106119405780518252601f199092019160209182019101611921565b51815160209384036101000a6000190180199092169116179052920194855250604051938490030190922060010154929092111591506119809050575060015b6060806000611a90600f8b6040518082805190602001908083835b602083106119ba5780518252601f19909201916020918201910161199b565b51815160209384036101000a6000190180199092169116179052920194855250604051938490030190922060010180549092508c915081106119f857fe5b600091825260209182902001805460408051601f6002600019610100600187161502019094169390930492830185900485028101850190915281815292830182828015611a865780601f10611a5b57610100808354040283529160200191611a86565b820191906000526020600020905b815481529060010190602001808311611a6957829003601f168201915b5050505050611fce565b919c909b509099509397509295505050505050565b600d5481565b6012546001600160a01b031681565b60606000806000611b358560016010886040518082805190602001908083835b60208310611af95780518252601f199092019160209182019101611ada565b51815160209384036101000a600019018019909216911617905292019485525060405193849003019092206003015492909203915061299f9050565b611d1960116010876040518082805190602001908083835b60208310611b6c5780518252601f199092019160209182019101611b4d565b6001836020036101000a038019825116818451168082178552505050505050905001915050908152602001604051809103902060030160016010896040518082805190602001908083835b60208310611bd65780518252601f199092019160209182019101611bb7565b51815160209384036101000a600019018019909216911617905292019485525060405193849003019092206003015484549390039283109150611c17905057fe5b906000526020600020016040518082805460018160011615610100020316600290048015611c7c5780601f10611c5a576101008083540402835291820191611c7c565b820191906000526020600020905b815481529060010190602001808311611c68575b505092835250506040805160209281900383018120805460026001821615610100026000190190911604601f81018590048502830185019093528282529092909190830182828015611d0f5780601f10611ce457610100808354040283529160200191611d0f565b820191906000526020600020905b815481529060010190602001808311611cf257829003601f168201915b5050505050611411565b93509350935093509193509193565b6006546001600160a01b031681565b6060600080600080611d488761272b565b6010876040518082805190602001908083835b60208310611d7a5780518252601f199092019160209182019101611d5b565b51815160209384036101000a600019018019909216911617905292019485525060405193849003019092206003015488109150611df39050576040805162461bcd60e51b815260206004820152601060248201526f09eeccae4ccd8deeecac840d2dcc8caf60831b604482015290519081900360640190fd5b6000809050866001016010896040518082805190602001908083835b60208310611e2e5780518252601f199092019160209182019101611e0f565b51815160209384036101000a600019018019909216911617905292019485525060405193849003019092206003015492909211159150611e6e9050575060015b60606000806000611f4b60108d6040518082805190602001908083835b60208310611eaa5780518252601f199092019160209182019101611e8b565b51815160209384036101000a6000190180199092169116179052920194855250604051938490030190922060030180549092508e91508110611ee857fe5b600091825260209182902001805460408051601f6002600019610100600187161502019094169390930492830185900485028101850190915281815292830182828015611d0f5780601f10611ce457610100808354040283529160200191611d0f565b929f919e509c50909a50949850939650505050505050565b600e5481565b6007546001600160a01b03163314611fb25760405162461bcd60e51b815260040180806020018281038252602f815260200180612dd0602f913960400191505060405180910390fd5b611fbb81612a76565b5050565b6007546001600160a01b031681565b6060806000611fdc8461272b565b6010846040518082805190602001908083835b6020831061200e5780518252601f199092019160209182019101611fef565b51815160209384036101000a600019018019909216911617905292019485525060405193849003810184208851909460109450899350918291908401908083835b6020831061206e5780518252601f19909201916020918201910161204f565b6001836020036101000a03801982511681845116808217855250505050505090500191505090815260200160405180910390206001016010866040518082805190602001908083835b602083106120d65780518252601f1990920191602091820191016120b7565b518151600019602094850361010090810a820192831692199390931691909117909252949092019687526040805197889003820188206002908101548b54601f60018216159098029095019094160494850182900482028801820190528387529095945087935084019050828280156121905780601f1061216557610100808354040283529160200191612190565b820191906000526020600020905b81548152906001019060200180831161217357829003601f168201915b5050855460408051602060026001851615610100026000190190941693909304601f81018490048402820184019092528181529598508794509250840190508282801561221e5780601f106121f35761010080835404028352916020019161221e565b820191906000526020600020905b81548152906001019060200180831161220157829003601f168201915b505050505091509250925092509193909250565b600f816040518082805190602001908083835b602083106122645780518252601f199092019160209182019101612245565b6001836020036101000a038019825116818451168082178552505050505050905001915050908152602001604051809103902060000180546001816001161561010002031660029004905060001415612302576040805162461bcd60e51b815260206004820152601b60248201527a151a1a5cc81c9958d95a5d995c88191bd95cdb89dd08195e1a5cdd602a1b604482015290519081900360640190fd5b50565b600061231083612a76565b506010826040518082805190602001908083835b602083106123435780518252601f199092019160209182019101612324565b6001836020036101000a03801982511681845116808217855250505050505090500191505090815260200160405180910390206000018054600181600116156101000203166002900490506000141561250d576060604051806080016040528084815260200160405180602001604052806000815250815260200160008152602001828152506010846040518082805190602001908083835b602083106123fb5780518252601f1990920191602091820191016123dc565b51815160209384036101000a600019018019909216911617905292019485525060405193849003810190932084518051919461243c94508593500190612c54565b5060208281015180516124559260018501920190612c54565b50604082015160028201556060820151805161247b916003840191602090910190612cd2565b50905050600f846040518082805190602001908083835b602083106124b15780518252601f199092019160209182019101612492565b51815160209384036101000a6000190180199092169116179052920194855250604051938490038101909320600190810180549182018082556000918252908590208851919561250995509201925090870190612c54565b5050505b6010826040518082805190602001908083835b6020831061253f5780518252601f199092019160209182019101612520565b51815160209384036101000a6000190180199092169116179052920194855250604051938490030190922095945050505050565b600554604051634915986360e01b8152306004820181815260806024840190815260018054600260001982841615610100020190911604608486018190526001600160a01b0390961695634915986395919389938993919290916044810191606482019160a401908890801561262a5780601f106125ff5761010080835404028352916020019161262a565b820191906000526020600020905b81548152906001019060200180831161260d57829003601f168201915b5050848103835286518152865160209182019188019080838360005b8381101561265e578181015183820152602001612646565b50505050905090810190601f16801561268b5780820380516001836020036101000a031916815260200191505b50848103825285518152855160209182019187019080838360005b838110156126be5781810151838201526020016126a6565b50505050905090810190601f1680156126eb5780820380516001836020036101000a031916815260200191505b50975050505050505050600060405180830381600087803b15801561270f57600080fd5b505af1158015612723573d6000803e3d6000fd5b505050505050565b6010816040518082805190602001908083835b6020831061275d5780518252601f19909201916020918201910161273e565b6001836020036101000a038019825116818451168082178552505050505050905001915050908152602001604051809103902060000180546001816001161561010002031660029004905060001415612302576040805162461bcd60e51b815260206004820152601c60248201527b151a1a5cc81c9959995c995b98d948191bd95cdb89dd08195e1a5cdd60221b604482015290519081900360640190fd5b6011816040518082805190602001908083835b6020831061282e5780518252601f19909201916020918201910161280f565b6001836020036101000a038019825116818451168082178552505050505050905001915050908152602001604051809103902060000180546001816001161561010002031660029004905060001415612302576040805162461bcd60e51b81526020600482018190526024820152600080516020612db0833981519152604482015290519081900360640190fd5b6006546040805163b7fce16b60e01b815230602482018190526004820192835260018054600260001982841615610100020190911604604484018190526001600160a01b039095169463b7fce16b9491938291606490910190859080156129645780601f1061293957610100808354040283529160200191612964565b820191906000526020600020905b81548152906001019060200180831161294757829003601f168201915b50509350505050600060405180830381600087803b15801561298557600080fd5b505af1158015612999573d6000803e3d6000fd5b50505050565b6129a88261272b565b6010826040518082805190602001908083835b602083106129da5780518252601f1990920191602091820191016129bb565b51815160209384036101000a6000190180199092169116179052920194855250604051938490030190922060030180549092508391508110612a1857fe5b60009182526020909120015460026000196101006001841615020190911604611fbb576040805162461bcd60e51b81526020600482018190526024820152600080516020612db0833981519152604482015290519081900360640190fd5b6000600f826040518082805190602001908083835b60208310612aaa5780518252601f199092019160209182019101612a8b565b6001836020036101000a038019825116818451168082178552505050505050905001915050908152602001604051809103902060000180546001816001161561010002031660029004905060001415612bef576060604051806040016040528084815260200182815250600f846040518082805190602001908083835b60208310612b465780518252601f199092019160209182019101612b27565b51815160209384036101000a6000190180199092169116179052920194855250604051938490038101909320845180519194612b8794508593500190612c54565b506020828101518051612ba09260018501920190612cd2565b5050600b8054600181018083556000929092528551919250612beb917f0175b7a638427703f0dbe7bb9bbf987a2551717b34e79f33b5b1008d1fa01db9909101906020870190612c54565b5050505b600f826040518082805190602001908083835b60208310612c215780518252601f199092019160209182019101612c02565b51815160209384036101000a60001901801990921691161790529201948552506040519384900301909220949350505050565b828054600181600116156101000203166002900490600052602060002090601f016020900481019282601f10612c9557805160ff1916838001178555612cc2565b82800160010185558215612cc2579182015b82811115612cc2578251825591602001919060010190612ca7565b50612cce929150612d2b565b5090565b828054828255906000526020600020908101928215612d1f579160200282015b82811115612d1f5782518051612d0f918491602090910190612c54565b5091602001919060010190612cf2565b50612cce929150612d48565b612d4591905b80821115612cce5760008155600101612d31565b90565b612d4591905b80821115612cce576000612d628282612d6b565b50600101612d4e565b50805460018160011615610100020316600290046000825580601f10612d915750612302565b601f0160209004906000526020600020908101906123029190612d2b56fe54686973207061796d656e7420636865636b20646f65736e27742065786973744f6e6c79205369676e617475726974206163636f756e742063616e20706572666f726d207468697320616374696f6ea265627a7a7231582023941ffac5a09830a94d903f00a49cd09ca240be748e46b21075c2eea911c61c64736f6c634300050b0032",
  "source": "pragma solidity <0.6.0;\n\n/*\nGas to deploy: 3.347.342\n\nPaymentCheck status legend:\n\nUNPROCESSED    = 0;\nPROCESSING     = 1;\nPAID           = 2;\nOVER_PAID      = 3;\nPARTIALLY_PAID = 4;\n*/\n\nimport \"./interfaces/SignatureInterface.sol\";\nimport \"./Clause.sol\";\n\n\ncontract Payment is Clause(\"payment\"){\n    string constant public NOTIFICATION_EVENT = \"payment_check.added\";\n\n    struct PaymentCheck {\n        string id;\n        uint status;\n        uint checkedAt;\n        uint createdAt;\n    }\n\n    struct Reference {\n        string id;\n        string value;\n        uint price;\n        string[] checks;\n    }\n\n    struct Receiver {\n        string id;\n        string[] references;\n    }\n\n    address public signaturit;\n\n    string public contractId;\n    string public signatureId;\n    string public documentId;\n\n    string[] public receiversArray;\n\n    uint public startDate;\n    uint public endDate;\n    uint public period;\n\n    mapping(string => Receiver) private receivers;\n    mapping(string => Reference) private references;\n    mapping(string => PaymentCheck) private paymentChecks;\n\n    SignatureInterface public signatureSmartContract;\n\n    constructor(\n        address userContractAddress,\n        address signatureContractAddress,\n        string memory id\n    )\n        public\n    {\n        contractId = id;\n        signaturit = msg.sender;\n\n        userContract = UserInterface(userContractAddress);\n        signatureContract = SignatureInterface(signatureContractAddress);\n    }\n\n    modifier signaturitOnly() {\n        require(\n            msg.sender == signaturit,\n            \"Only Signaturit account can perform this action\"\n        );\n\n        _;\n    }\n\n    function init(\n        string memory signature,\n        string memory document,\n        uint start,\n        uint end,\n        uint paymentPeriod\n    )\n        public\n        signaturitOnly\n    {\n        endDate = end;\n        startDate = start;\n        documentId = document;\n        period = paymentPeriod;\n        signatureId = signature;\n\n        setClauseOnSignature();\n    }\n\n    function setReceiver(\n        string memory id\n    )\n        public\n        signaturitOnly\n    {\n        _getReceiver(id);\n    }\n\n    function setReference(\n        string memory receiverId,\n        string memory referenceId,\n        string memory referenceValue,\n        uint referencePrice\n    )\n        public\n        signaturitOnly\n    {\n        Reference storage newReference = _getReference(\n            receiverId,\n            referenceId\n        );\n\n        newReference.id = referenceId;\n        newReference.value = referenceValue;\n        newReference.price = referencePrice;\n    }\n\n    function addPaymentCheck(\n        string memory receiverId,\n        string memory referenceId,\n        string memory paymentCheckId,\n        uint status,\n        uint checkedAt,\n        uint createdAt\n    )\n        public\n        signaturitOnly\n    {\n        Reference storage newReference = _getReference(\n            receiverId,\n            referenceId\n        );\n\n        paymentChecks[paymentCheckId] = PaymentCheck(\n            paymentCheckId,\n            status,\n            checkedAt,\n            createdAt\n        );\n\n        newReference.checks.push(paymentCheckId);\n\n        publishNotification(\n            NOTIFICATION_EVENT,\n            paymentCheckId\n        );\n    }\n\n    // Get paymentCheck if you got the id\n    function getPaymentCheckById(\n        string memory paymentCheckId\n    )\n        public\n        view\n        returns (\n            string memory id,\n            uint status,\n            uint checkedAt,\n            uint createdAt\n        )\n    {\n        _checkPaymentCheckExistence(paymentCheckId);\n\n        return (\n            paymentChecks[paymentCheckId].id,\n            paymentChecks[paymentCheckId].status,\n            paymentChecks[paymentCheckId].checkedAt,\n            paymentChecks[paymentCheckId].createdAt\n        );\n    }\n\n    // Get paymentCheckID if you want the last one given a referenceId\n    function getLastPaymentCheckFromReference(\n        string memory referenceId\n    )\n        public\n        view\n        returns (\n            string memory id,\n            uint status,\n            uint checkedAt,\n            uint createdAt\n        )\n    {\n        _checkPaymentCheckFromReferenceExistence(\n            referenceId,\n            references[referenceId].checks.length - 1\n        );\n\n        return getPaymentCheckById(\n            paymentChecks[\n                references[\n                    referenceId\n                ].checks[\n                    references[\n                        referenceId\n                    ].checks.length - 1\n                ]\n            ].id\n        );\n    }\n\n    // Get paymentCheckID if you want to iterate through all\n    // the paymentChecks of a reference\n    function getPaymentCheckFromReference(\n        string memory referenceId,\n        uint index\n    )\n        public\n        view\n        returns (\n            string memory id,\n            uint status,\n            uint checkedAt,\n            uint createdAt,\n            bool more\n        )\n    {\n        _checkReferenceExistence(referenceId);\n\n        require(\n            index < references[referenceId].checks.length,\n            \"Overflowed index\"\n        );\n\n        bool thereIsMore = false;\n\n        if (references[referenceId].checks.length > index + 1)\n            thereIsMore = true;\n\n        (\n            string memory paymentCheckId,\n            uint paymentCheckStatus,\n            uint paymentCheckCheckedAt,\n            uint paymentCheckCreatedAt\n        ) = getPaymentCheckById(\n            references[referenceId].checks[index]\n        );\n\n        return(\n            paymentCheckId,\n            paymentCheckStatus,\n            paymentCheckCheckedAt,\n            paymentCheckCreatedAt,\n            thereIsMore\n        );\n    }\n\n    // Get how many paymentChecks there are for a reference\n    function getPaymentCheckSizeFromReference(\n        string memory referenceId\n    )\n        public\n        view\n        returns (uint size)\n    {\n        _checkReferenceExistence(referenceId);\n\n        return references[referenceId].checks.length;\n    }\n\n    // Get reference if you got the id\n    function getReferenceById(\n        string memory referenceId\n    )\n        public\n        view\n        returns (\n            string memory id,\n            string memory value,\n            uint price\n        )\n    {\n        _checkReferenceExistence(referenceId);\n\n        return(\n            references[referenceId].id,\n            references[referenceId].value,\n            references[referenceId].price\n        );\n    }\n\n    // Get referenceID if you want to iterate through all\n    // the references of a receiver\n    function getReferenceFromReceiver(\n        string memory receiverId,\n        uint index\n    )\n        public\n        view\n        returns (\n            string memory id,\n            string memory value,\n            uint price,\n            bool more\n        )\n    {\n        _checkReceiverExistence(receiverId);\n\n        require(\n            index < receivers[receiverId].references.length,\n            \"Overflowed index\"\n        );\n\n        bool thereIsMore = false;\n\n        if (receivers[receiverId].references.length > index + 1)\n            thereIsMore = true;\n\n        (\n            string memory referenceId,\n            string memory referenceValue,\n            uint referencePrice\n        ) = getReferenceById(\n            receivers[receiverId].references[index]\n        );\n\n        return(\n            referenceId,\n            referenceValue,\n            referencePrice,\n            thereIsMore\n        );\n    }\n\n    // Get references size from receiver\n    function getReferenceSizeFromReceiver(\n        string memory receiverId\n    )\n        public\n        view\n        returns (uint size)\n    {\n        _checkReceiverExistence(receiverId);\n\n        return receivers[receiverId].references.length;\n    }\n\n    // Get receiverID by index\n    function getReceiverId(\n        uint index\n    )\n        public\n        view\n        returns (\n            string memory id,\n            bool more\n        )\n    {\n        require(\n            index < receiversArray.length,\n            \"Overflowed index\"\n        );\n\n        bool thereIsMore = false;\n\n        if (receiversArray.length > index + 1)\n            thereIsMore = true;\n\n        return(\n            receiversArray[index],\n            thereIsMore\n        );\n    }\n\n    function _getReceiver(\n        string memory id\n    )\n        private\n        returns (Receiver storage)\n    {\n        if (bytes(receivers[id].id).length == 0) {\n\n            string[] memory tmpString;\n\n            receivers[id] = Receiver(id, tmpString);\n\n            receiversArray.push(id);\n        }\n\n        return receivers[id];\n    }\n\n    function _getReference(\n        string memory receiverId,\n        string memory referenceId\n    )\n        private\n        returns (Reference storage)\n    {\n        _getReceiver(receiverId);\n\n        if (bytes(references[referenceId].id).length == 0) {\n\n            string[] memory tmpPaymentChecks;\n\n            references[referenceId] = Reference(\n                referenceId,\n                \"\",\n                0,\n                tmpPaymentChecks\n            );\n\n            receivers[receiverId].references.push(referenceId);\n        }\n\n        return references[referenceId];\n    }\n\n    function _checkReferenceExistence(\n        string memory id\n    )\n        private\n        view\n    {\n        require(\n            bytes(references[id].id).length != 0,\n            \"This reference doesn't exist\"\n        );\n    }\n\n    function _checkReceiverExistence(\n        string memory id\n    )\n        private\n        view\n    {\n        require(\n            bytes(receivers[id].id).length != 0,\n            \"This receiver doesn't exist\"\n        );\n    }\n\n    function _checkPaymentCheckFromReferenceExistence(\n        string memory referenceId,\n        uint index\n    )\n        private\n        view\n    {\n        _checkReferenceExistence(referenceId);\n\n        require(\n            bytes(references[referenceId].checks[index]).length != 0,\n            \"This payment check doesn't exist\"\n        );\n    }\n\n    function _checkPaymentCheckExistence(\n        string memory id\n    )\n        private\n        view\n    {\n        require(\n            bytes(paymentChecks[id].id).length != 0,\n            \"This payment check doesn't exist\"\n        );\n    }\n}\n",
  "sourcePath": "/home/administrator/workspace/signaturit-solidity-contracts/contracts/Payment.sol",
  "compiler": {
    "name": "solc",
    "version": "0.5.11+commit.c082d0b4.Emscripten.clang"
  },
  "schemaVersion": "3.0.11",
  "updatedAt": "2019-08-30T12:59:40.744Z",
  "devdoc": {
    "methods": {}
  },
  "userdoc": {
    "methods": {}
  }
}