{
  "contractName": "Payment",
  "abi": [
    {
      "constant": true,
      "inputs": [],
      "name": "startDate",
      "outputs": [
        {
          "name": "",
          "type": "uint256"
        }
      ],
      "payable": false,
      "stateMutability": "view",
      "type": "function"
    },
    {
      "constant": true,
      "inputs": [],
      "name": "signatureId",
      "outputs": [
        {
          "name": "",
          "type": "string"
        }
      ],
      "payable": false,
      "stateMutability": "view",
      "type": "function"
    },
    {
      "constant": true,
      "inputs": [
        {
          "name": "",
          "type": "uint256"
        }
      ],
      "name": "receiversArray",
      "outputs": [
        {
          "name": "",
          "type": "string"
        }
      ],
      "payable": false,
      "stateMutability": "view",
      "type": "function"
    },
    {
      "constant": true,
      "inputs": [],
      "name": "documentId",
      "outputs": [
        {
          "name": "",
          "type": "string"
        }
      ],
      "payable": false,
      "stateMutability": "view",
      "type": "function"
    },
    {
      "constant": true,
      "inputs": [],
      "name": "contractId",
      "outputs": [
        {
          "name": "",
          "type": "string"
        }
      ],
      "payable": false,
      "stateMutability": "view",
      "type": "function"
    },
    {
      "constant": true,
      "inputs": [],
      "name": "userSmartContract",
      "outputs": [
        {
          "name": "",
          "type": "address"
        }
      ],
      "payable": false,
      "stateMutability": "view",
      "type": "function"
    },
    {
      "constant": true,
      "inputs": [],
      "name": "endDate",
      "outputs": [
        {
          "name": "",
          "type": "uint256"
        }
      ],
      "payable": false,
      "stateMutability": "view",
      "type": "function"
    },
    {
      "constant": true,
      "inputs": [],
      "name": "signatureSmartContract",
      "outputs": [
        {
          "name": "",
          "type": "address"
        }
      ],
      "payable": false,
      "stateMutability": "view",
      "type": "function"
    },
    {
      "constant": true,
      "inputs": [],
      "name": "period",
      "outputs": [
        {
          "name": "",
          "type": "uint256"
        }
      ],
      "payable": false,
      "stateMutability": "view",
      "type": "function"
    },
    {
      "constant": true,
      "inputs": [],
      "name": "signaturit",
      "outputs": [
        {
          "name": "",
          "type": "address"
        }
      ],
      "payable": false,
      "stateMutability": "view",
      "type": "function"
    },
    {
      "inputs": [
        {
          "name": "userContract",
          "type": "address"
        },
        {
          "name": "signatureContract",
          "type": "address"
        },
        {
          "name": "id",
          "type": "string"
        }
      ],
      "payable": false,
      "stateMutability": "nonpayable",
      "type": "constructor"
    },
    {
      "constant": false,
      "inputs": [
        {
          "name": "signature",
          "type": "string"
        },
        {
          "name": "document",
          "type": "string"
        },
        {
          "name": "start",
          "type": "uint256"
        },
        {
          "name": "end",
          "type": "uint256"
        },
        {
          "name": "paymentPeriod",
          "type": "uint256"
        }
      ],
      "name": "init",
      "outputs": [],
      "payable": false,
      "stateMutability": "nonpayable",
      "type": "function"
    },
    {
      "constant": false,
      "inputs": [
        {
          "name": "id",
          "type": "string"
        }
      ],
      "name": "setReceiver",
      "outputs": [],
      "payable": false,
      "stateMutability": "nonpayable",
      "type": "function"
    },
    {
      "constant": false,
      "inputs": [
        {
          "name": "receiverId",
          "type": "string"
        },
        {
          "name": "referenceId",
          "type": "string"
        },
        {
          "name": "referenceValue",
          "type": "string"
        },
        {
          "name": "referencePrice",
          "type": "uint256"
        }
      ],
      "name": "setReference",
      "outputs": [],
      "payable": false,
      "stateMutability": "nonpayable",
      "type": "function"
    },
    {
      "constant": false,
      "inputs": [
        {
          "name": "receiverId",
          "type": "string"
        },
        {
          "name": "referenceId",
          "type": "string"
        },
        {
          "name": "paymentCheckId",
          "type": "string"
        },
        {
          "name": "status",
          "type": "uint256"
        },
        {
          "name": "checkedAt",
          "type": "uint256"
        },
        {
          "name": "createdAt",
          "type": "uint256"
        }
      ],
      "name": "addPaymentCheck",
      "outputs": [],
      "payable": false,
      "stateMutability": "nonpayable",
      "type": "function"
    },
    {
      "constant": true,
      "inputs": [
        {
          "name": "paymentCheckId",
          "type": "string"
        }
      ],
      "name": "getPaymentCheckById",
      "outputs": [
        {
          "name": "id",
          "type": "string"
        },
        {
          "name": "status",
          "type": "uint256"
        },
        {
          "name": "checkedAt",
          "type": "uint256"
        },
        {
          "name": "createdAt",
          "type": "uint256"
        }
      ],
      "payable": false,
      "stateMutability": "view",
      "type": "function"
    },
    {
      "constant": true,
      "inputs": [
        {
          "name": "referenceId",
          "type": "string"
        }
      ],
      "name": "getLastPaymentCheckFromReference",
      "outputs": [
        {
          "name": "id",
          "type": "string"
        },
        {
          "name": "status",
          "type": "uint256"
        },
        {
          "name": "checkedAt",
          "type": "uint256"
        },
        {
          "name": "createdAt",
          "type": "uint256"
        }
      ],
      "payable": false,
      "stateMutability": "view",
      "type": "function"
    },
    {
      "constant": true,
      "inputs": [
        {
          "name": "referenceId",
          "type": "string"
        },
        {
          "name": "index",
          "type": "uint256"
        }
      ],
      "name": "getPaymentCheckFromReference",
      "outputs": [
        {
          "name": "id",
          "type": "string"
        },
        {
          "name": "status",
          "type": "uint256"
        },
        {
          "name": "checkedAt",
          "type": "uint256"
        },
        {
          "name": "createdAt",
          "type": "uint256"
        },
        {
          "name": "more",
          "type": "bool"
        }
      ],
      "payable": false,
      "stateMutability": "view",
      "type": "function"
    },
    {
      "constant": true,
      "inputs": [
        {
          "name": "referenceId",
          "type": "string"
        }
      ],
      "name": "getPaymentCheckSizeFromReference",
      "outputs": [
        {
          "name": "size",
          "type": "uint256"
        }
      ],
      "payable": false,
      "stateMutability": "view",
      "type": "function"
    },
    {
      "constant": true,
      "inputs": [
        {
          "name": "referenceId",
          "type": "string"
        }
      ],
      "name": "getReferenceById",
      "outputs": [
        {
          "name": "id",
          "type": "string"
        },
        {
          "name": "value",
          "type": "string"
        },
        {
          "name": "price",
          "type": "uint256"
        }
      ],
      "payable": false,
      "stateMutability": "view",
      "type": "function"
    },
    {
      "constant": true,
      "inputs": [
        {
          "name": "receiverId",
          "type": "string"
        },
        {
          "name": "index",
          "type": "uint256"
        }
      ],
      "name": "getReferenceFromReceiver",
      "outputs": [
        {
          "name": "id",
          "type": "string"
        },
        {
          "name": "value",
          "type": "string"
        },
        {
          "name": "price",
          "type": "uint256"
        },
        {
          "name": "more",
          "type": "bool"
        }
      ],
      "payable": false,
      "stateMutability": "view",
      "type": "function"
    },
    {
      "constant": true,
      "inputs": [
        {
          "name": "receiverId",
          "type": "string"
        }
      ],
      "name": "getReferenceSizeFromReceiver",
      "outputs": [
        {
          "name": "size",
          "type": "uint256"
        }
      ],
      "payable": false,
      "stateMutability": "view",
      "type": "function"
    },
    {
      "constant": true,
      "inputs": [
        {
          "name": "index",
          "type": "uint256"
        }
      ],
      "name": "getReceiverId",
      "outputs": [
        {
          "name": "id",
          "type": "string"
        },
        {
          "name": "more",
          "type": "bool"
        }
      ],
      "payable": false,
      "stateMutability": "view",
      "type": "function"
    }
  ],
  "bytecode": "0x60806040523480156200001157600080fd5b506040516200302a3803806200302a833981018060405260608110156200003757600080fd5b81516020830151604084018051929491938201926401000000008111156200005e57600080fd5b820160208101848111156200007257600080fd5b81516401000000008111828201871017156200008d57600080fd5b50508051909350620000a99250600191506020840190620000e8565b505060008054600160a060020a03199081163317909155600b8054600160a060020a03948516908316179055600c80549290931691161790556200018d565b828054600181600116156101000203166002900490600052602060002090601f016020900481019282601f106200012b57805160ff19168380011785556200015b565b828001600101855582156200015b579182015b828111156200015b5782518255916020019190600101906200013e565b50620001699291506200016d565b5090565b6200018a91905b8082111562000169576000815560010162000174565b90565b612e8d806200019d6000396000f3fe60806040526004361061010e5763ffffffff60e060020a6000350416630b97bc86811461011357806313820f191461013a5780631c9a05ec146101eb578063395ba05014610298578063605b460914610322578063680488e21461034c5780636b7eab381461051457806374452c90146105c557806378f7c83f146107035780638291286c14610718578063881c2cc01461072d578063b610f10f146108ea578063bfbcafd414610a2b578063c004240c14610bca578063c24a0f8b14610bfb578063c511d53114610c10578063c7e3bb0214610c25578063e2ec46e114610cd6578063ef78d4fd14610de1578063f405f28014610df6578063f9b5333514610ea7578063fc2e2c2814610ebc575b600080fd5b34801561011f57600080fd5b50610128611013565b60408051918252519081900360200190f35b34801561014657600080fd5b506101286004803603602081101561015d57600080fd5b810190602081018135602060020a81111561017757600080fd5b82018360208201111561018957600080fd5b803590602001918460018302840111602060020a831117156101aa57600080fd5b91908080601f016020809104026020016040519081016040528093929190818152602001838380828437600092019190915250929550611019945050505050565b3480156101f757600080fd5b506102156004803603602081101561020e57600080fd5b503561108d565b604051808060200183151515158152602001828103825284818151815260200191508051906020019080838360005b8381101561025c578181015183820152602001610244565b50505050905090810190601f1680156102895780820380516001836020036101000a031916815260200191505b50935050505060405180910390f35b3480156102a457600080fd5b506102ad6111a7565b6040805160208082528351818301528351919283929083019185019080838360005b838110156102e75781810151838201526020016102cf565b50505050905090810190601f1680156103145780820380516001836020036101000a031916815260200191505b509250505060405180910390f35b34801561032e57600080fd5b506102ad6004803603602081101561034557600080fd5b5035611232565b34801561035857600080fd5b50610512600480360360c081101561036f57600080fd5b810190602081018135602060020a81111561038957600080fd5b82018360208201111561039b57600080fd5b803590602001918460018302840111602060020a831117156103bc57600080fd5b91908080601f0160208091040260200160405190810160405280939291908181526020018383808284376000920191909152509295949360208101935035915050602060020a81111561040e57600080fd5b82018360208201111561042057600080fd5b803590602001918460018302840111602060020a8311171561044157600080fd5b91908080601f0160208091040260200160405190810160405280939291908181526020018383808284376000920191909152509295949360208101935035915050602060020a81111561049357600080fd5b8201836020820111156104a557600080fd5b803590602001918460018302840111602060020a831117156104c657600080fd5b91908080601f01602080910402602001604051908101604052809392919081815260200183838082843760009201919091525092955050823593505050602081013590604001356112a6565b005b34801561052057600080fd5b506101286004803603602081101561053757600080fd5b810190602081018135602060020a81111561055157600080fd5b82018360208201111561056357600080fd5b803590602001918460018302840111602060020a8311171561058457600080fd5b91908080601f0160208091040260200160405190810160405280939291908181526020018383808284376000920191909152509295506115cf945050505050565b3480156105d157600080fd5b50610676600480360360208110156105e857600080fd5b810190602081018135602060020a81111561060257600080fd5b82018360208201111561061457600080fd5b803590602001918460018302840111602060020a8311171561063557600080fd5b91908080601f016020809104026020016040519081016040528093929190818152602001838380828437600092019190915250929550611643945050505050565b6040518080602001858152602001848152602001838152602001828103825286818151815260200191508051906020019080838360005b838110156106c55781810151838201526020016106ad565b50505050905090810190601f1680156106f25780820380516001836020036101000a031916815260200191505b509550505050505060405180910390f35b34801561070f57600080fd5b506102ad61187f565b34801561072457600080fd5b506102ad6118da565b34801561073957600080fd5b506105126004803603608081101561075057600080fd5b810190602081018135602060020a81111561076a57600080fd5b82018360208201111561077c57600080fd5b803590602001918460018302840111602060020a8311171561079d57600080fd5b91908080601f0160208091040260200160405190810160405280939291908181526020018383808284376000920191909152509295949360208101935035915050602060020a8111156107ef57600080fd5b82018360208201111561080157600080fd5b803590602001918460018302840111602060020a8311171561082257600080fd5b91908080601f0160208091040260200160405190810160405280939291908181526020018383808284376000920191909152509295949360208101935035915050602060020a81111561087457600080fd5b82018360208201111561088657600080fd5b803590602001918460018302840111602060020a831117156108a757600080fd5b91908080601f0160208091040260200160405190810160405280939291908181526020018383808284376000920191909152509295505091359250611934915050565b3480156108f657600080fd5b50610512600480360360a081101561090d57600080fd5b810190602081018135602060020a81111561092757600080fd5b82018360208201111561093957600080fd5b803590602001918460018302840111602060020a8311171561095a57600080fd5b91908080601f0160208091040260200160405190810160405280939291908181526020018383808284376000920191909152509295949360208101935035915050602060020a8111156109ac57600080fd5b8201836020820111156109be57600080fd5b803590602001918460018302840111602060020a831117156109df57600080fd5b91908080601f01602080910402602001604051908101604052809392919081815260200183838082843760009201919091525092955050823593505050602081013590604001356119e0565b348015610a3757600080fd5b50610ade60048036036040811015610a4e57600080fd5b810190602081018135602060020a811115610a6857600080fd5b820183602082011115610a7a57600080fd5b803590602001918460018302840111602060020a83111715610a9b57600080fd5b91908080601f0160208091040260200160405190810160405280939291908181526020018383808284376000920191909152509295505091359250611b11915050565b60408051908101839052811515606082015260808082528551908201528451819060208083019160a084019189019080838360005b83811015610b2b578181015183820152602001610b13565b50505050905090810190601f168015610b585780820380516001836020036101000a031916815260200191505b50838103825286518152865160209182019188019080838360005b83811015610b8b578181015183820152602001610b73565b50505050905090810190601f168015610bb85780820380516001836020036101000a031916815260200191505b50965050505050505060405180910390f35b348015610bd657600080fd5b50610bdf611d71565b60408051600160a060020a039092168252519081900360200190f35b348015610c0757600080fd5b50610128611d80565b348015610c1c57600080fd5b50610bdf611d86565b348015610c3157600080fd5b5061067660048036036020811015610c4857600080fd5b810190602081018135602060020a811115610c6257600080fd5b820183602082011115610c7457600080fd5b803590602001918460018302840111602060020a83111715610c9557600080fd5b91908080601f016020809104026020016040519081016040528093929190818152602001838380828437600092019190915250929550611d95945050505050565b348015610ce257600080fd5b50610d8960048036036040811015610cf957600080fd5b810190602081018135602060020a811115610d1357600080fd5b820183602082011115610d2557600080fd5b803590602001918460018302840111602060020a83111715610d4657600080fd5b91908080601f0160208091040260200160405190810160405280939291908181526020018383808284376000920191909152509295505091359250612003915050565b6040518080602001868152602001858152602001848152602001831515151581526020018281038252878181518152602001915080519060200190808383600083811015610b8b578181015183820152602001610b73565b348015610ded57600080fd5b50610128612235565b348015610e0257600080fd5b5061051260048036036020811015610e1957600080fd5b810190602081018135602060020a811115610e3357600080fd5b820183602082011115610e4557600080fd5b803590602001918460018302840111602060020a83111715610e6657600080fd5b91908080601f01602080910402602001604051908101604052809392919081815260200183838082843760009201919091525092955061223b945050505050565b348015610eb357600080fd5b50610bdf6122b3565b348015610ec857600080fd5b50610f6d60048036036020811015610edf57600080fd5b810190602081018135602060020a811115610ef957600080fd5b820183602082011115610f0b57600080fd5b803590602001918460018302840111602060020a83111715610f2c57600080fd5b91908080601f0160208091040260200160405190810160405280939291908181526020018383808284376000920191909152509295506122c2945050505050565b604051808060200180602001848152602001838103835286818151815260200191508051906020019080838360005b83811015610fb4578181015183820152602001610f9c565b50505050905090810190601f168015610fe15780820380516001836020036101000a031916815260200191505b5083810382528551815285516020918201918701908083836000838110156106c55781810151838201526020016106ad565b60055481565b600061102482612526565b6008826040518082805190602001908083835b602083106110565780518252601f199092019160209182019101611037565b51815160209384036101000a6000190180199092169116179052920194855250604051938490030190922060010154949350505050565b60045460609060009083106110e2576040805160e560020a62461bcd0281526020600482015260106024820152608360020a6f09eeccae4ccd8deeecac840d2dcc8caf02604482015290519081900360640190fd5b6004546000906001850110156110f6575060015b600480548590811061110457fe5b60009182526020918290200180546040805160026001841615610100026000190190931692909204601f81018590048502830185019091528082529192849284918301828280156111965780601f1061116b57610100808354040283529160200191611196565b820191906000526020600020905b81548152906001019060200180831161117957829003601f168201915b505050505091509250925050915091565b6002805460408051602060018416156101000260001901909316849004601f8101849004840282018401909252818152929183018282801561122a5780601f106111ff5761010080835404028352916020019161122a565b820191906000526020600020905b81548152906001019060200180831161120d57829003601f168201915b505050505081565b600480548290811061124057fe5b600091825260209182902001805460408051601f600260001961010060018716150201909416939093049283018590048502810185019091528181529350909183018282801561122a5780601f106111ff5761010080835404028352916020019161122a565b600054600160a060020a03163314611311576040805160e560020a62461bcd02815260206004820152602f6024820152600080516020612e428339815191526044820152608960020a6e37b936903a3434b99030b1ba34b7b702606482015290519081900360840190fd5b600061131d8787612600565b905060806040519081016040528086815260200185815260200184815260200183815250600a866040518082805190602001908083835b602083106113735780518252601f199092019160209182019101611354565b51815160209384036101000a60001901801990921691161790529201948552506040519384900381019093208451805191946113b494508593500190612cc6565b50602082810151600180840191909155604084015160028401556060909301516003928301559083018054928301808255600091825290829020885191936114029391019190890190612cc6565b5050600b5460405160e360020a631eec954902815230600482018181526084830188905260a4830187905260c4830186905260e0602484019081528a5160e48501528a51600160a060020a039095169463f764aa48948c938e938d938d938d938d939092909160448101916064820191610104019060208c019080838360005b8381101561149a578181015183820152602001611482565b50505050905090810190601f1680156114c75780820380516001836020036101000a031916815260200191505b5084810383528951815289516020918201918b019080838360005b838110156114fa5781810151838201526020016114e2565b50505050905090810190601f1680156115275780820380516001836020036101000a031916815260200191505b5084810382528851815288516020918201918a019080838360005b8381101561155a578181015183820152602001611542565b50505050905090810190601f1680156115875780820380516001836020036101000a031916815260200191505b509a5050505050505050505050600060405180830381600087803b1580156115ae57600080fd5b505af11580156115c2573d6000803e3d6000fd5b5050505050505050505050565b60006115da82612870565b6009826040518082805190602001908083835b6020831061160c5780518252601f1990920191602091820191016115ed565b51815160209384036101000a6000190180199092169116179052920194855250604051938490030190922060030154949350505050565b6060600080600061165385612947565b600a856040518082805190602001908083835b602083106116855780518252601f199092019160209182019101611666565b51815160209384036101000a6000190180199092169116179052920194855250604051938490038101842089519094600a94508a9350918291908401908083835b602083106116e55780518252601f1990920191602091820191016116c6565b51815160209384036101000a60001901801990921691161790529201948552506040519384900381018420600101548a519094600a94508b9350918291908401908083835b602083106117495780518252601f19909201916020918201910161172a565b51815160209384036101000a60001901801990921691161790529201948552506040519384900381018420600201548b519094600a94508c9350918291908401908083835b602083106117ad5780518252601f19909201916020918201910161178e565b518151600019602094850361010090810a82019283169219939093169190911790925294909201968752604080519788900382018820600301548b54601f6002600183161590980290950116959095049283018290048202880182019052818752929594508893509184019050828280156118695780601f1061183e57610100808354040283529160200191611869565b820191906000526020600020905b81548152906001019060200180831161184c57829003601f168201915b5050505050935093509350935093509193509193565b6003805460408051602060026001851615610100026000190190941693909304601f8101849004840282018401909252818152929183018282801561122a5780601f106111ff5761010080835404028352916020019161122a565b60018054604080516020600284861615610100026000190190941693909304601f8101849004840282018401909252818152929183018282801561122a5780601f106111ff5761010080835404028352916020019161122a565b600054600160a060020a0316331461199f576040805160e560020a62461bcd02815260206004820152602f6024820152600080516020612e428339815191526044820152608960020a6e37b936903a3434b99030b1ba34b7b702606482015290519081900360840190fd5b60006119ab8585612600565b84519091506119c09082906020870190612cc6565b5082516119d69060018301906020860190612cc6565b5060020155505050565b600054600160a060020a03163314611a4b576040805160e560020a62461bcd02815260206004820152602f6024820152600080516020612e428339815191526044820152608960020a6e37b936903a3434b99030b1ba34b7b702606482015290519081900360840190fd5b600682905560058390558351611a68906003906020870190612cc6565b5060078190558451611a81906002906020880190612cc6565b50600c546040805160e060020a63b7fce16b028152306024820152600481018290526007604482015260ca60020a661c185e5b595b9d0260648201529051600160a060020a039092169163b7fce16b9160848082019260009290919082900301818387803b158015611af257600080fd5b505af1158015611b06573d6000803e3d6000fd5b505050505050505050565b606080600080611b2086612526565b6008866040518082805190602001908083835b60208310611b525780518252601f199092019160209182019101611b33565b51815160209384036101000a600019018019909216911617905292019485525060405193849003019092206001015487109150611bd19050576040805160e560020a62461bcd0281526020600482015260106024820152608360020a6f09eeccae4ccd8deeecac840d2dcc8caf02604482015290519081900360640190fd5b6000809050856001016008886040518082805190602001908083835b60208310611c0c5780518252601f199092019160209182019101611bed565b51815160209384036101000a600019018019909216911617905292019485525060405193849003019092206001015492909211159150611c4c9050575060015b6060806000611d5c60088b6040518082805190602001908083835b60208310611c865780518252601f199092019160209182019101611c67565b51815160209384036101000a6000190180199092169116179052920194855250604051938490030190922060010180549092508c91508110611cc457fe5b600091825260209182902001805460408051601f6002600019610100600187161502019094169390930492830185900485028101850190915281815292830182828015611d525780601f10611d2757610100808354040283529160200191611d52565b820191906000526020600020905b815481529060010190602001808311611d3557829003601f168201915b50505050506122c2565b919c909b509099509397509295505050505050565b600b54600160a060020a031681565b60065481565b600c54600160a060020a031681565b60606000806000611e108560016009886040518082805190602001908083835b60208310611dd45780518252601f199092019160209182019101611db5565b51815160209384036101000a6000190180199092169116179052920194855250604051938490030190922060030154929092039150612a0c9050565b611ff4600a6009876040518082805190602001908083835b60208310611e475780518252601f199092019160209182019101611e28565b6001836020036101000a038019825116818451168082178552505050505050905001915050908152602001604051809103902060030160016009896040518082805190602001908083835b60208310611eb15780518252601f199092019160209182019101611e92565b51815160209384036101000a600019018019909216911617905292019485525060405193849003019092206003015484549390039283109150611ef2905057fe5b906000526020600020016040518082805460018160011615610100020316600290048015611f575780601f10611f35576101008083540402835291820191611f57565b820191906000526020600020905b815481529060010190602001808311611f43575b505092835250506040805160209281900383018120805460026001821615610100026000190190911604601f81018590048502830185019093528282529092909190830182828015611fea5780601f10611fbf57610100808354040283529160200191611fea565b820191906000526020600020905b815481529060010190602001808311611fcd57829003601f168201915b5050505050611643565b93509350935093509193509193565b606060008060008061201487612870565b6009876040518082805190602001908083835b602083106120465780518252601f199092019160209182019101612027565b51815160209384036101000a6000190180199092169116179052920194855250604051938490030190922060030154881091506120c59050576040805160e560020a62461bcd0281526020600482015260106024820152608360020a6f09eeccae4ccd8deeecac840d2dcc8caf02604482015290519081900360640190fd5b6000809050866001016009896040518082805190602001908083835b602083106121005780518252601f1990920191602091820191016120e1565b51815160209384036101000a6000190180199092169116179052920194855250604051938490030190922060030154929092111591506121409050575060015b6060600080600061221d60098d6040518082805190602001908083835b6020831061217c5780518252601f19909201916020918201910161215d565b51815160209384036101000a6000190180199092169116179052920194855250604051938490030190922060030180549092508e915081106121ba57fe5b600091825260209182902001805460408051601f6002600019610100600187161502019094169390930492830185900485028101850190915281815292830182828015611fea5780601f10611fbf57610100808354040283529160200191611fea565b929f919e509c50909a50949850939650505050505050565b60075481565b600054600160a060020a031633146122a6576040805160e560020a62461bcd02815260206004820152602f6024820152600080516020612e428339815191526044820152608960020a6e37b936903a3434b99030b1ba34b7b702606482015290519081900360840190fd5b6122af81612ae8565b5050565b600054600160a060020a031681565b60608060006122d084612870565b6009846040518082805190602001908083835b602083106123025780518252601f1990920191602091820191016122e3565b51815160209384036101000a600019018019909216911617905292019485525060405193849003810184208851909460099450899350918291908401908083835b602083106123625780518252601f199092019160209182019101612343565b6001836020036101000a03801982511681845116808217855250505050505090500191505090815260200160405180910390206001016009866040518082805190602001908083835b602083106123ca5780518252601f1990920191602091820191016123ab565b518151600019602094850361010090810a820192831692199390931691909117909252949092019687526040805197889003820188206002908101548b54601f60018216159098029095019094160494850182900482028801820190528387529095945087935084019050828280156124845780601f1061245957610100808354040283529160200191612484565b820191906000526020600020905b81548152906001019060200180831161246757829003601f168201915b5050855460408051602060026001851615610100026000190190941693909304601f8101849004840282018401909252818152959850879450925084019050828280156125125780601f106124e757610100808354040283529160200191612512565b820191906000526020600020905b8154815290600101906020018083116124f557829003601f168201915b505050505091509250925092509193909250565b6008816040518082805190602001908083835b602083106125585780518252601f199092019160209182019101612539565b6001836020036101000a03801982511681845116808217855250505050505090500191505090815260200160405180910390206000018054600181600116156101000203166002900490506000141515156125fd576040805160e560020a62461bcd02815260206004820152601b60248201527f5468697320726563656976657220646f65736e27742065786973740000000000604482015290519081900360640190fd5b50565b600061260b83612ae8565b506009826040518082805190602001908083835b6020831061263e5780518252601f19909201916020918201910161261f565b6001836020036101000a03801982511681845116808217855250505050505090500191505090815260200160405180910390206000018054600181600116156101000203166002900490506000141561280a5760606080604051908101604052808481526020016020604051908101604052806000815250815260200160008152602001828152506009846040518082805190602001908083835b602083106126f85780518252601f1990920191602091820191016126d9565b51815160209384036101000a600019018019909216911617905292019485525060405193849003810190932084518051919461273994508593500190612cc6565b5060208281015180516127529260018501920190612cc6565b506040820151600282015560608201518051612778916003840191602090910190612d44565b509050506008846040518082805190602001908083835b602083106127ae5780518252601f19909201916020918201910161278f565b51815160209384036101000a6000190180199092169116179052920194855250604051938490038101909320600190810180549182018082556000918252908590208851919561280695509201925090870190612cc6565b5050505b6009826040518082805190602001908083835b6020831061283c5780518252601f19909201916020918201910161281d565b51815160209384036101000a6000190180199092169116179052920194855250604051938490030190922095945050505050565b6009816040518082805190602001908083835b602083106128a25780518252601f199092019160209182019101612883565b6001836020036101000a03801982511681845116808217855250505050505090500191505090815260200160405180910390206000018054600181600116156101000203166002900490506000141515156125fd576040805160e560020a62461bcd02815260206004820152601c60248201527f54686973207265666572656e636520646f65736e277420657869737400000000604482015290519081900360640190fd5b600a816040518082805190602001908083835b602083106129795780518252601f19909201916020918201910161295a565b6001836020036101000a03801982511681845116808217855250505050505090500191505090815260200160405180910390206000018054600181600116156101000203166002900490506000141515156125fd576040805160e560020a62461bcd0281526020600482018190526024820152600080516020612e22833981519152604482015290519081900360640190fd5b612a1582612870565b6009826040518082805190602001908083835b60208310612a475780518252601f199092019160209182019101612a28565b51815160209384036101000a6000190180199092169116179052920194855250604051938490030190922060030180549092508391508110612a8557fe5b6000918252602090912001546002600019610100600184161502019091160415156122af576040805160e560020a62461bcd0281526020600482018190526024820152600080516020612e22833981519152604482015290519081900360640190fd5b60006008826040518082805190602001908083835b60208310612b1c5780518252601f199092019160209182019101612afd565b6001836020036101000a038019825116818451168082178552505050505050905001915050908152602001604051809103902060000180546001816001161561010002031660029004905060001415612c615760606040805190810160405280848152602001828152506008846040518082805190602001908083835b60208310612bb85780518252601f199092019160209182019101612b99565b51815160209384036101000a6000190180199092169116179052920194855250604051938490038101909320845180519194612bf994508593500190612cc6565b506020828101518051612c129260018501920190612d44565b505060048054600181018083556000929092528551919250612c5d917f8a35acfbc15ff81a39ae7d344fd709f28e8600b4aa8c65c6b64bfe7fe36bd19b909101906020870190612cc6565b5050505b6008826040518082805190602001908083835b60208310612c935780518252601f199092019160209182019101612c74565b51815160209384036101000a60001901801990921691161790529201948552506040519384900301909220949350505050565b828054600181600116156101000203166002900490600052602060002090601f016020900481019282601f10612d0757805160ff1916838001178555612d34565b82800160010185558215612d34579182015b82811115612d34578251825591602001919060010190612d19565b50612d40929150612d9d565b5090565b828054828255906000526020600020908101928215612d91579160200282015b82811115612d915782518051612d81918491602090910190612cc6565b5091602001919060010190612d64565b50612d40929150612dba565b612db791905b80821115612d405760008155600101612da3565b90565b612db791905b80821115612d40576000612dd48282612ddd565b50600101612dc0565b50805460018160011615610100020316600290046000825580601f10612e0357506125fd565b601f0160209004906000526020600020908101906125fd9190612d9d56fe54686973207061796d656e7420636865636b20646f65736e27742065786973744f6e6c79205369676e617475726974206163636f756e742063616e2070657266a165627a7a72305820340da52ae150bee2b00fa3e1c31e70ae6898187164e0514082a12630ebfe6b400029",
  "source": "pragma solidity 0.5.0;\n\n/*\nGas to deploy: 4.323.950 units\n\nPaymentCheck status legend:\n\nUNPROCESSED    = 0;\nPROCESSING     = 1\nPAID           = 2;\nOVER_PAID      = 3;\nPARTIALLY_PAID = 4;\n*/\n\nimport \"./interfaces/SignatureInterface.sol\";\nimport \"./interfaces/UserInterface.sol\";\n\n\ncontract Payment {\n\n    struct PaymentCheck {\n        string id;\n        uint status;\n        uint checkedAt;\n        uint createdAt;\n    }\n\n    struct Reference {\n        string id;\n        string value;\n        uint price;\n        string[] checks;\n    }\n\n    struct Receiver {\n        string id;\n        string[] references;\n    }\n\n    address public signaturit;\n\n    string public contractId;\n    string public signatureId;\n    string public documentId;\n\n    string[] public receiversArray;\n\n    uint public startDate;\n    uint public endDate;\n    uint public period;\n\n    mapping(string => Receiver) private receivers;\n    mapping(string => Reference) private references;\n    mapping(string => PaymentCheck) private paymentChecks;\n\n    UserInterface public userSmartContract;\n    SignatureInterface public signatureSmartContract;\n\n    constructor(\n        address userContract,\n        address signatureContract,\n        string memory id\n    )\n        public\n    {\n        contractId = id;\n        signaturit = msg.sender;\n\n        userSmartContract = UserInterface(userContract);\n        signatureSmartContract = SignatureInterface(signatureContract);\n    }\n\n    modifier signaturitOnly() {\n        require(\n            msg.sender == signaturit,\n            \"Only Signaturit account can perform this action\"\n        );\n\n        _;\n    }\n\n    function init(\n        string memory signature,\n        string memory document,\n        uint start,\n        uint end,\n        uint paymentPeriod\n    )\n        public\n        signaturitOnly\n    {\n        endDate = end;\n        startDate = start;\n        documentId = document;\n        period = paymentPeriod;\n        signatureId = signature;\n\n        signatureSmartContract.setClause(\n            \"payment\",\n            address(this)\n        );\n    }\n\n    function setReceiver(\n        string memory id\n    )\n        public\n        signaturitOnly\n    {\n        _getReceiver(id);\n    }\n\n    function setReference(\n        string memory receiverId,\n        string memory referenceId,\n        string memory referenceValue,\n        uint referencePrice\n    )\n        public\n        signaturitOnly\n    {\n        Reference storage newReference = _getReference(\n            receiverId,\n            referenceId\n        );\n\n        newReference.id = referenceId;\n        newReference.value = referenceValue;\n        newReference.price = referencePrice;\n    }\n\n    function addPaymentCheck(\n        string memory receiverId,\n        string memory referenceId,\n        string memory paymentCheckId,\n        uint status,\n        uint checkedAt,\n        uint createdAt\n    )\n        public\n        signaturitOnly\n    {\n        Reference storage newReference = _getReference(\n            receiverId,\n            referenceId\n        );\n\n        paymentChecks[paymentCheckId] = PaymentCheck(\n            paymentCheckId,\n            status,\n            checkedAt,\n            createdAt\n        );\n\n        newReference.checks.push(paymentCheckId);\n\n        userSmartContract.notifyPaymentCheck(\n            address(this),\n            referenceId,\n            receiverId,\n            paymentCheckId,\n            status,\n            checkedAt,\n            createdAt\n        );\n    }\n\n    // Get paymentCheck if you got the id\n    function getPaymentCheckById(\n        string memory paymentCheckId\n    )\n        public\n        view\n        returns (\n            string memory id,\n            uint status,\n            uint checkedAt,\n            uint createdAt\n        )\n    {\n        _checkPaymentCheckExistence(paymentCheckId);\n\n        return (\n            paymentChecks[paymentCheckId].id,\n            paymentChecks[paymentCheckId].status,\n            paymentChecks[paymentCheckId].checkedAt,\n            paymentChecks[paymentCheckId].createdAt\n        );\n    }\n\n    // Get paymentCheckID if you want the last one given a referenceId\n    function getLastPaymentCheckFromReference(\n        string memory referenceId\n    )\n        public\n        view\n        returns (\n            string memory id,\n            uint status,\n            uint checkedAt,\n            uint createdAt\n        )\n    {\n        _checkPaymentCheckFromReferenceExistence(\n            referenceId,\n            references[referenceId].checks.length - 1\n        );\n\n        return getPaymentCheckById(\n            paymentChecks[\n                references[\n                    referenceId\n                ].checks[\n                    references[\n                        referenceId\n                    ].checks.length - 1\n                ]\n            ].id\n        );\n    }\n\n    // Get paymentCheckID if you want to iterate through all\n    // the paymentChecks of a reference\n    function getPaymentCheckFromReference(\n        string memory referenceId,\n        uint index\n    )\n        public\n        view\n        returns (\n            string memory id,\n            uint status,\n            uint checkedAt,\n            uint createdAt,\n            bool more\n        )\n    {\n        _checkReferenceExistence(referenceId);\n\n        require(\n            index < references[referenceId].checks.length,\n            \"Overflowed index\"\n        );\n\n        bool thereIsMore = false;\n\n        if (references[referenceId].checks.length > index + 1)\n            thereIsMore = true;\n\n        (\n            string memory paymentCheckId,\n            uint paymentCheckStatus,\n            uint paymentCheckCheckedAt,\n            uint paymentCheckCreatedAt\n        ) = getPaymentCheckById(\n            references[referenceId].checks[index]\n        );\n\n        return(\n            paymentCheckId,\n            paymentCheckStatus,\n            paymentCheckCheckedAt,\n            paymentCheckCreatedAt,\n            thereIsMore\n        );\n    }\n\n    // Get how many paymentChecks there are for a reference\n    function getPaymentCheckSizeFromReference(\n        string memory referenceId\n    )\n        public\n        view\n        returns (uint size)\n    {\n        _checkReferenceExistence(referenceId);\n\n        return references[referenceId].checks.length;\n    }\n\n    // Get reference if you got the id\n    function getReferenceById(\n        string memory referenceId\n    )\n        public\n        view\n        returns (\n            string memory id,\n            string memory value,\n            uint price\n        )\n    {\n        _checkReferenceExistence(referenceId);\n\n        return(\n            references[referenceId].id,\n            references[referenceId].value,\n            references[referenceId].price\n        );\n    }\n\n    // Get referenceID if you want to iterate through all\n    // the references of a receiver\n    function getReferenceFromReceiver(\n        string memory receiverId,\n        uint index\n    )\n        public\n        view\n        returns (\n            string memory id,\n            string memory value,\n            uint price,\n            bool more\n        )\n    {\n        _checkReceiverExistence(receiverId);\n\n        require(\n            index < receivers[receiverId].references.length,\n            \"Overflowed index\"\n        );\n\n        bool thereIsMore = false;\n\n        if (receivers[receiverId].references.length > index + 1)\n            thereIsMore = true;\n\n        (\n            string memory referenceId,\n            string memory referenceValue,\n            uint referencePrice\n        ) = getReferenceById(\n            receivers[receiverId].references[index]\n        );\n\n        return(\n            referenceId,\n            referenceValue,\n            referencePrice,\n            thereIsMore\n        );\n    }\n\n    // Get references size from receiver\n    function getReferenceSizeFromReceiver(\n        string memory receiverId\n    )\n        public\n        view\n        returns (uint size)\n    {\n        _checkReceiverExistence(receiverId);\n\n        return receivers[receiverId].references.length;\n    }\n\n    // Get receiverID by index\n    function getReceiverId(\n        uint index\n    )\n        public\n        view\n        returns (\n            string memory id,\n            bool more\n        )\n    {\n        require(\n            index < receiversArray.length,\n            \"Overflowed index\"\n        );\n\n        bool thereIsMore = false;\n\n        if (receiversArray.length > index + 1)\n            thereIsMore = true;\n\n        return(\n            receiversArray[index],\n            thereIsMore\n        );\n    }\n\n    function _getReceiver(\n        string memory id\n    )\n        private\n        returns (Receiver storage)\n    {\n        if (bytes(receivers[id].id).length == 0) {\n\n            string[] memory tmpString;\n\n            receivers[id] = Receiver(id, tmpString);\n\n            receiversArray.push(id);\n        }\n\n        return receivers[id];\n    }\n\n    function _getReference(\n        string memory receiverId,\n        string memory referenceId\n    )\n        private\n        returns (Reference storage)\n    {\n        _getReceiver(receiverId);\n\n        if (bytes(references[referenceId].id).length == 0) {\n\n            string[] memory tmpPaymentChecks;\n\n            references[referenceId] = Reference(\n                referenceId,\n                \"\",\n                0,\n                tmpPaymentChecks\n            );\n\n            receivers[receiverId].references.push(referenceId);\n        }\n\n        return references[referenceId];\n    }\n\n    function _checkReferenceExistence(\n        string memory id\n    )\n        private\n        view\n    {\n        require(\n            bytes(references[id].id).length != 0,\n            \"This reference doesn't exist\"\n        );\n    }\n\n    function _checkReceiverExistence(\n        string memory id\n    )\n        private\n        view\n    {\n        require(\n            bytes(receivers[id].id).length != 0,\n            \"This receiver doesn't exist\"\n        );\n    }\n\n    function _checkPaymentCheckFromReferenceExistence(\n        string memory referenceId,\n        uint index\n    )\n        private\n        view\n    {\n        _checkReferenceExistence(referenceId);\n\n        require(\n            bytes(references[referenceId].checks[index]).length != 0,\n            \"This payment check doesn't exist\"\n        );\n    }\n\n    function _checkPaymentCheckExistence(\n        string memory id\n    )\n        private\n        view\n    {\n        require(\n            bytes(paymentChecks[id].id).length != 0,\n            \"This payment check doesn't exist\"\n        );\n    }\n}\n",
  "sourcePath": "/home/administrator/workspace/signaturit-solidity-contracts/contracts/Payment.sol",
  "compiler": {
    "name": "solc",
    "version": "0.5.0+commit.1d4f565a.Emscripten.clang"
  },
  "schemaVersion": "3.0.11",
  "updatedAt": "2019-08-01T15:22:45.262Z",
  "devdoc": {
    "methods": {}
  },
  "userdoc": {
    "methods": {}
  }
}