{
  "contractName": "Payment",
  "abi": [
    {
      "constant": true,
      "inputs": [],
      "name": "startDate",
      "outputs": [
        {
          "name": "",
          "type": "uint256"
        }
      ],
      "payable": false,
      "stateMutability": "view",
      "type": "function"
    },
    {
      "constant": true,
      "inputs": [],
      "name": "signatureId",
      "outputs": [
        {
          "name": "",
          "type": "string"
        }
      ],
      "payable": false,
      "stateMutability": "view",
      "type": "function"
    },
    {
      "constant": true,
      "inputs": [],
      "name": "CLAUSE_EVENT_TYPE",
      "outputs": [
        {
          "name": "",
          "type": "string"
        }
      ],
      "payable": false,
      "stateMutability": "view",
      "type": "function"
    },
    {
      "constant": true,
      "inputs": [],
      "name": "userContract",
      "outputs": [
        {
          "name": "",
          "type": "address"
        }
      ],
      "payable": false,
      "stateMutability": "view",
      "type": "function"
    },
    {
      "constant": true,
      "inputs": [
        {
          "name": "",
          "type": "uint256"
        }
      ],
      "name": "receiversArray",
      "outputs": [
        {
          "name": "",
          "type": "string"
        }
      ],
      "payable": false,
      "stateMutability": "view",
      "type": "function"
    },
    {
      "constant": true,
      "inputs": [],
      "name": "documentId",
      "outputs": [
        {
          "name": "",
          "type": "string"
        }
      ],
      "payable": false,
      "stateMutability": "view",
      "type": "function"
    },
    {
      "constant": true,
      "inputs": [],
      "name": "contractId",
      "outputs": [
        {
          "name": "",
          "type": "string"
        }
      ],
      "payable": false,
      "stateMutability": "view",
      "type": "function"
    },
    {
      "constant": true,
      "inputs": [],
      "name": "endDate",
      "outputs": [
        {
          "name": "",
          "type": "uint256"
        }
      ],
      "payable": false,
      "stateMutability": "view",
      "type": "function"
    },
    {
      "constant": true,
      "inputs": [],
      "name": "signatureContract",
      "outputs": [
        {
          "name": "",
          "type": "address"
        }
      ],
      "payable": false,
      "stateMutability": "view",
      "type": "function"
    },
    {
      "constant": true,
      "inputs": [],
      "name": "notifiersKey",
      "outputs": [
        {
          "name": "",
          "type": "string"
        }
      ],
      "payable": false,
      "stateMutability": "view",
      "type": "function"
    },
    {
      "constant": true,
      "inputs": [],
      "name": "CREATION_EVENT_TYPE",
      "outputs": [
        {
          "name": "",
          "type": "string"
        }
      ],
      "payable": false,
      "stateMutability": "view",
      "type": "function"
    },
    {
      "constant": true,
      "inputs": [],
      "name": "period",
      "outputs": [
        {
          "name": "",
          "type": "uint256"
        }
      ],
      "payable": false,
      "stateMutability": "view",
      "type": "function"
    },
    {
      "constant": true,
      "inputs": [],
      "name": "signaturit",
      "outputs": [
        {
          "name": "",
          "type": "address"
        }
      ],
      "payable": false,
      "stateMutability": "view",
      "type": "function"
    },
    {
      "inputs": [
        {
          "name": "userContractAddress",
          "type": "address"
        },
        {
          "name": "signatureContractAddress",
          "type": "address"
        },
        {
          "name": "id",
          "type": "string"
        }
      ],
      "payable": false,
      "stateMutability": "nonpayable",
      "type": "constructor"
    },
    {
      "constant": false,
      "inputs": [
        {
          "name": "signature",
          "type": "string"
        },
        {
          "name": "document",
          "type": "string"
        },
        {
          "name": "start",
          "type": "uint256"
        },
        {
          "name": "end",
          "type": "uint256"
        },
        {
          "name": "paymentPeriod",
          "type": "uint256"
        }
      ],
      "name": "init",
      "outputs": [],
      "payable": false,
      "stateMutability": "nonpayable",
      "type": "function"
    },
    {
      "constant": false,
      "inputs": [
        {
          "name": "id",
          "type": "string"
        }
      ],
      "name": "setReceiver",
      "outputs": [],
      "payable": false,
      "stateMutability": "nonpayable",
      "type": "function"
    },
    {
      "constant": false,
      "inputs": [
        {
          "name": "receiverId",
          "type": "string"
        },
        {
          "name": "referenceId",
          "type": "string"
        },
        {
          "name": "referenceValue",
          "type": "string"
        },
        {
          "name": "referencePrice",
          "type": "uint256"
        }
      ],
      "name": "setReference",
      "outputs": [],
      "payable": false,
      "stateMutability": "nonpayable",
      "type": "function"
    },
    {
      "constant": false,
      "inputs": [
        {
          "name": "receiverId",
          "type": "string"
        },
        {
          "name": "referenceId",
          "type": "string"
        },
        {
          "name": "paymentCheckId",
          "type": "string"
        },
        {
          "name": "status",
          "type": "uint256"
        },
        {
          "name": "checkedAt",
          "type": "uint256"
        },
        {
          "name": "createdAt",
          "type": "uint256"
        }
      ],
      "name": "addPaymentCheck",
      "outputs": [],
      "payable": false,
      "stateMutability": "nonpayable",
      "type": "function"
    },
    {
      "constant": true,
      "inputs": [],
      "name": "getReceiversSize",
      "outputs": [
        {
          "name": "",
          "type": "uint256"
        }
      ],
      "payable": false,
      "stateMutability": "view",
      "type": "function"
    },
    {
      "constant": true,
      "inputs": [
        {
          "name": "paymentCheckId",
          "type": "string"
        }
      ],
      "name": "getPaymentCheckById",
      "outputs": [
        {
          "name": "id",
          "type": "string"
        },
        {
          "name": "status",
          "type": "uint256"
        },
        {
          "name": "checkedAt",
          "type": "uint256"
        },
        {
          "name": "createdAt",
          "type": "uint256"
        }
      ],
      "payable": false,
      "stateMutability": "view",
      "type": "function"
    },
    {
      "constant": true,
      "inputs": [
        {
          "name": "referenceId",
          "type": "string"
        }
      ],
      "name": "getLastPaymentCheckFromReference",
      "outputs": [
        {
          "name": "id",
          "type": "string"
        },
        {
          "name": "status",
          "type": "uint256"
        },
        {
          "name": "checkedAt",
          "type": "uint256"
        },
        {
          "name": "createdAt",
          "type": "uint256"
        }
      ],
      "payable": false,
      "stateMutability": "view",
      "type": "function"
    },
    {
      "constant": true,
      "inputs": [
        {
          "name": "referenceId",
          "type": "string"
        },
        {
          "name": "index",
          "type": "uint256"
        }
      ],
      "name": "getPaymentCheckFromReference",
      "outputs": [
        {
          "name": "id",
          "type": "string"
        },
        {
          "name": "status",
          "type": "uint256"
        },
        {
          "name": "checkedAt",
          "type": "uint256"
        },
        {
          "name": "createdAt",
          "type": "uint256"
        },
        {
          "name": "more",
          "type": "bool"
        }
      ],
      "payable": false,
      "stateMutability": "view",
      "type": "function"
    },
    {
      "constant": true,
      "inputs": [
        {
          "name": "referenceId",
          "type": "string"
        }
      ],
      "name": "getPaymentCheckSizeFromReference",
      "outputs": [
        {
          "name": "size",
          "type": "uint256"
        }
      ],
      "payable": false,
      "stateMutability": "view",
      "type": "function"
    },
    {
      "constant": true,
      "inputs": [
        {
          "name": "referenceId",
          "type": "string"
        }
      ],
      "name": "getReferenceById",
      "outputs": [
        {
          "name": "id",
          "type": "string"
        },
        {
          "name": "value",
          "type": "string"
        },
        {
          "name": "price",
          "type": "uint256"
        }
      ],
      "payable": false,
      "stateMutability": "view",
      "type": "function"
    },
    {
      "constant": true,
      "inputs": [
        {
          "name": "receiverId",
          "type": "string"
        },
        {
          "name": "index",
          "type": "uint256"
        }
      ],
      "name": "getReferenceFromReceiver",
      "outputs": [
        {
          "name": "id",
          "type": "string"
        },
        {
          "name": "value",
          "type": "string"
        },
        {
          "name": "price",
          "type": "uint256"
        },
        {
          "name": "more",
          "type": "bool"
        }
      ],
      "payable": false,
      "stateMutability": "view",
      "type": "function"
    },
    {
      "constant": true,
      "inputs": [
        {
          "name": "receiverId",
          "type": "string"
        }
      ],
      "name": "getReferenceSizeFromReceiver",
      "outputs": [
        {
          "name": "size",
          "type": "uint256"
        }
      ],
      "payable": false,
      "stateMutability": "view",
      "type": "function"
    },
    {
      "constant": true,
      "inputs": [
        {
          "name": "index",
          "type": "uint256"
        }
      ],
      "name": "getReceiverId",
      "outputs": [
        {
          "name": "id",
          "type": "string"
        },
        {
          "name": "more",
          "type": "bool"
        }
      ],
      "payable": false,
      "stateMutability": "view",
      "type": "function"
    }
  ],
  "bytecode": "0x60806040523480156200001157600080fd5b506040516200331c3803806200331c833981018060405260608110156200003757600080fd5b81516020830151604084018051929491938201926401000000008111156200005e57600080fd5b820160208101848111156200007257600080fd5b81516401000000008111828201871017156200008d57600080fd5b50506040805180820190915260188082527f7061796d656e742d636c617573652d6e6f74696669657273000000000000000060208301908152929550909350620000dc92506000919062000132565b50508051620000f390600890602084019062000132565b505060078054600160a060020a0319908116331790915560058054600160a060020a0394851690831617905560068054929093169116179055620001d7565b828054600181600116156101000203166002900490600052602060002090601f016020900481019282601f106200017557805160ff1916838001178555620001a5565b82800160010185558215620001a5579182015b82811115620001a557825182559160200191906001019062000188565b50620001b3929150620001b7565b5090565b620001d491905b80821115620001b35760008155600101620001be565b90565b61313580620001e76000396000f3fe60806040526004361061013a5763ffffffff60e060020a6000350416630b97bc86811461013f57806313820f19146101665780631c9a05ec14610217578063395ba050146102c45780634396fd121461034e5780635000596b14610363578063605b460914610394578063680488e2146103be578063683f4fc5146105865780636b7eab381461059b57806374452c901461064c57806378f7c83f1461078a5780638291286c1461079f578063881c2cc0146107b4578063b610f10f14610971578063bfbcafd414610ab2578063c24a0f8b14610c51578063c7e3bb0214610c66578063d83070ab14610d17578063d9026ed114610d2c578063dea8444414610d41578063e2ec46e114610d56578063ef78d4fd14610e61578063f405f28014610e76578063f9b5333514610f27578063fc2e2c2814610f3c575b600080fd5b34801561014b57600080fd5b50610154611093565b60408051918252519081900360200190f35b34801561017257600080fd5b506101546004803603602081101561018957600080fd5b810190602081018135602060020a8111156101a357600080fd5b8201836020820111156101b557600080fd5b803590602001918460018302840111602060020a831117156101d657600080fd5b91908080601f016020809104026020016040519081016040528093929190818152602001838380828437600092019190915250929550611099945050505050565b34801561022357600080fd5b506102416004803603602081101561023a57600080fd5b503561110d565b604051808060200183151515158152602001828103825284818151815260200191508051906020019080838360005b83811015610288578181015183820152602001610270565b50505050905090810190601f1680156102b55780820380516001836020036101000a031916815260200191505b50935050505060405180910390f35b3480156102d057600080fd5b506102d9611227565b6040805160208082528351818301528351919283929083019185019080838360005b838110156103135781810151838201526020016102fb565b50505050905090810190601f1680156103405780820380516001836020036101000a031916815260200191505b509250505060405180910390f35b34801561035a57600080fd5b506102d96112b5565b34801561036f57600080fd5b506103786112e5565b60408051600160a060020a039092168252519081900360200190f35b3480156103a057600080fd5b506102d9600480360360208110156103b757600080fd5b50356112f4565b3480156103ca57600080fd5b50610584600480360360c08110156103e157600080fd5b810190602081018135602060020a8111156103fb57600080fd5b82018360208201111561040d57600080fd5b803590602001918460018302840111602060020a8311171561042e57600080fd5b91908080601f0160208091040260200160405190810160405280939291908181526020018383808284376000920191909152509295949360208101935035915050602060020a81111561048057600080fd5b82018360208201111561049257600080fd5b803590602001918460018302840111602060020a831117156104b357600080fd5b91908080601f0160208091040260200160405190810160405280939291908181526020018383808284376000920191909152509295949360208101935035915050602060020a81111561050557600080fd5b82018360208201111561051757600080fd5b803590602001918460018302840111602060020a8311171561053857600080fd5b91908080601f0160208091040260200160405190810160405280939291908181526020018383808284376000920191909152509295505082359350505060208101359060400135611368565b005b34801561059257600080fd5b50610154611506565b3480156105a757600080fd5b50610154600480360360208110156105be57600080fd5b810190602081018135602060020a8111156105d857600080fd5b8201836020820111156105ea57600080fd5b803590602001918460018302840111602060020a8311171561060b57600080fd5b91908080601f01602080910402602001604051908101604052809392919081815260200183838082843760009201919091525092955061150d945050505050565b34801561065857600080fd5b506106fd6004803603602081101561066f57600080fd5b810190602081018135602060020a81111561068957600080fd5b82018360208201111561069b57600080fd5b803590602001918460018302840111602060020a831117156106bc57600080fd5b91908080601f016020809104026020016040519081016040528093929190818152602001838380828437600092019190915250929550611581945050505050565b6040518080602001858152602001848152602001838152602001828103825286818151815260200191508051906020019080838360005b8381101561074c578181015183820152602001610734565b50505050905090810190601f1680156107795780820380516001836020036101000a031916815260200191505b509550505050505060405180910390f35b34801561079657600080fd5b506102d96117bd565b3480156107ab57600080fd5b506102d9611818565b3480156107c057600080fd5b50610584600480360360808110156107d757600080fd5b810190602081018135602060020a8111156107f157600080fd5b82018360208201111561080357600080fd5b803590602001918460018302840111602060020a8311171561082457600080fd5b91908080601f0160208091040260200160405190810160405280939291908181526020018383808284376000920191909152509295949360208101935035915050602060020a81111561087657600080fd5b82018360208201111561088857600080fd5b803590602001918460018302840111602060020a831117156108a957600080fd5b91908080601f0160208091040260200160405190810160405280939291908181526020018383808284376000920191909152509295949360208101935035915050602060020a8111156108fb57600080fd5b82018360208201111561090d57600080fd5b803590602001918460018302840111602060020a8311171561092e57600080fd5b91908080601f0160208091040260200160405190810160405280939291908181526020018383808284376000920191909152509295505091359250611873915050565b34801561097d57600080fd5b50610584600480360360a081101561099457600080fd5b810190602081018135602060020a8111156109ae57600080fd5b8201836020820111156109c057600080fd5b803590602001918460018302840111602060020a831117156109e157600080fd5b91908080601f0160208091040260200160405190810160405280939291908181526020018383808284376000920191909152509295949360208101935035915050602060020a811115610a3357600080fd5b820183602082011115610a4557600080fd5b803590602001918460018302840111602060020a83111715610a6657600080fd5b91908080601f016020809104026020016040519081016040528093929190818152602001838380828437600092019190915250929550508235935050506020810135906040013561191f565b348015610abe57600080fd5b50610b6560048036036040811015610ad557600080fd5b810190602081018135602060020a811115610aef57600080fd5b820183602082011115610b0157600080fd5b803590602001918460018302840111602060020a83111715610b2257600080fd5b91908080601f0160208091040260200160405190810160405280939291908181526020018383808284376000920191909152509295505091359250611a02915050565b60408051908101839052811515606082015260808082528551908201528451819060208083019160a084019189019080838360005b83811015610bb2578181015183820152602001610b9a565b50505050905090810190601f168015610bdf5780820380516001836020036101000a031916815260200191505b50838103825286518152865160209182019188019080838360005b83811015610c12578181015183820152602001610bfa565b50505050905090810190601f168015610c3f5780820380516001836020036101000a031916815260200191505b50965050505050505060405180910390f35b348015610c5d57600080fd5b50610154611c62565b348015610c7257600080fd5b506106fd60048036036020811015610c8957600080fd5b810190602081018135602060020a811115610ca357600080fd5b820183602082011115610cb557600080fd5b803590602001918460018302840111602060020a83111715610cd657600080fd5b91908080601f016020809104026020016040519081016040528093929190818152602001838380828437600092019190915250929550611c68945050505050565b348015610d2357600080fd5b50610378611ed6565b348015610d3857600080fd5b506102d9611ee5565b348015610d4d57600080fd5b506102d9611f40565b348015610d6257600080fd5b50610e0960048036036040811015610d7957600080fd5b810190602081018135602060020a811115610d9357600080fd5b820183602082011115610da557600080fd5b803590602001918460018302840111602060020a83111715610dc657600080fd5b91908080601f0160208091040260200160405190810160405280939291908181526020018383808284376000920191909152509295505091359250611f73915050565b6040518080602001868152602001858152602001848152602001831515151581526020018281038252878181518152602001915080519060200190808383600083811015610c12578181015183820152602001610bfa565b348015610e6d57600080fd5b506101546121a5565b348015610e8257600080fd5b5061058460048036036020811015610e9957600080fd5b810190602081018135602060020a811115610eb357600080fd5b820183602082011115610ec557600080fd5b803590602001918460018302840111602060020a83111715610ee657600080fd5b91908080601f0160208091040260200160405190810160405280939291908181526020018383808284376000920191909152509295506121ab945050505050565b348015610f3357600080fd5b50610378612223565b348015610f4857600080fd5b50610fed60048036036020811015610f5f57600080fd5b810190602081018135602060020a811115610f7957600080fd5b820183602082011115610f8b57600080fd5b803590602001918460018302840111602060020a83111715610fac57600080fd5b91908080601f016020809104026020016040519081016040528093929190818152602001838380828437600092019190915250929550612232945050505050565b604051808060200180602001848152602001838103835286818151815260200191508051906020019080838360005b8381101561103457818101518382015260200161101c565b50505050905090810190601f1680156110615780820380516001836020036101000a031916815260200191505b50838103825285518152855160209182019187019080838360008381101561074c578181015183820152602001610734565b600c5481565b60006110a482612496565b600f826040518082805190602001908083835b602083106110d65780518252601f1990920191602091820191016110b7565b51815160209384036101000a6000190180199092169116179052920194855250604051938490030190922060010154949350505050565b600b546060906000908310611162576040805160e560020a62461bcd0281526020600482015260106024820152608360020a6f09eeccae4ccd8deeecac840d2dcc8caf02604482015290519081900360640190fd5b600b54600090600185011015611176575060015b600b80548590811061118457fe5b60009182526020918290200180546040805160026001841615610100026000190190931692909204601f81018590048502830185019091528082529192849284918301828280156112165780601f106111eb57610100808354040283529160200191611216565b820191906000526020600020905b8154815290600101906020018083116111f957829003601f168201915b505050505091509250925050915091565b6009805460408051602060026001851615610100026000190190941693909304601f810184900484028201840190925281815292918301828280156112ad5780601f10611282576101008083540402835291602001916112ad565b820191906000526020600020905b81548152906001019060200180831161129057829003601f168201915b505050505081565b6040805180820190915260138152606a60020a721c185e5b595b9d17d8da1958dacb985919195902602082015281565b600554600160a060020a031681565b600b80548290811061130257fe5b600091825260209182902001805460408051601f60026000196101006001871615020190941693909304928301859004850281018501909152818152935090918301828280156112ad5780601f10611282576101008083540402835291602001916112ad565b600754600160a060020a031633146113d3576040805160e560020a62461bcd02815260206004820152602f60248201526000805160206130ea8339815191526044820152608960020a6e37b936903a3434b99030b1ba34b7b702606482015290519081900360840190fd5b60006113df8787612570565b9050608060405190810160405280868152602001858152602001848152602001838152506011866040518082805190602001908083835b602083106114355780518252601f199092019160209182019101611416565b51815160209384036101000a600019018019909216911617905292019485525060405193849003810190932084518051919461147694508593500190612f71565b50602082810151600180840191909155604084015160028401556060909301516003928301559083018054928301808255600091825290829020885191936114c49391019190890190612f71565b50506114fd604080519081016040528060138152602001606a60020a721c185e5b595b9d17d8da1958dacb9859191959028152506127e0565b50505050505050565b600b545b90565b600061151882612a4f565b6010826040518082805190602001908083835b6020831061154a5780518252601f19909201916020918201910161152b565b51815160209384036101000a6000190180199092169116179052920194855250604051938490030190922060030154949350505050565b6060600080600061159185612b26565b6011856040518082805190602001908083835b602083106115c35780518252601f1990920191602091820191016115a4565b51815160209384036101000a6000190180199092169116179052920194855250604051938490038101842089519094601194508a9350918291908401908083835b602083106116235780518252601f199092019160209182019101611604565b51815160209384036101000a60001901801990921691161790529201948552506040519384900381018420600101548a519094601194508b9350918291908401908083835b602083106116875780518252601f199092019160209182019101611668565b51815160209384036101000a60001901801990921691161790529201948552506040519384900381018420600201548b519094601194508c9350918291908401908083835b602083106116eb5780518252601f1990920191602091820191016116cc565b518151600019602094850361010090810a82019283169219939093169190911790925294909201968752604080519788900382018820600301548b54601f6002600183161590980290950116959095049283018290048202880182019052818752929594508893509184019050828280156117a75780601f1061177c576101008083540402835291602001916117a7565b820191906000526020600020905b81548152906001019060200180831161178a57829003601f168201915b5050505050935093509350935093509193509193565b600a805460408051602060026001851615610100026000190190941693909304601f810184900484028201840190925281815292918301828280156112ad5780601f10611282576101008083540402835291602001916112ad565b6008805460408051602060026001851615610100026000190190941693909304601f810184900484028201840190925281815292918301828280156112ad5780601f10611282576101008083540402835291602001916112ad565b600754600160a060020a031633146118de576040805160e560020a62461bcd02815260206004820152602f60248201526000805160206130ea8339815191526044820152608960020a6e37b936903a3434b99030b1ba34b7b702606482015290519081900360840190fd5b60006118ea8585612570565b84519091506118ff9082906020870190612f71565b5082516119159060018301906020860190612f71565b5060020155505050565b600754600160a060020a0316331461198a576040805160e560020a62461bcd02815260206004820152602f60248201526000805160206130ea8339815191526044820152608960020a6e37b936903a3434b99030b1ba34b7b702606482015290519081900360840190fd5b600d829055600c83905583516119a790600a906020870190612f71565b50600e81905584516119c0906009906020880190612f71565b506119fb604080519081016040528060168152602001605260020a751c185e5b595b9d17d8db185d5cd94b98dc99585d195902815250612beb565b5050505050565b606080600080611a1186612496565b600f866040518082805190602001908083835b60208310611a435780518252601f199092019160209182019101611a24565b51815160209384036101000a600019018019909216911617905292019485525060405193849003019092206001015487109150611ac29050576040805160e560020a62461bcd0281526020600482015260106024820152608360020a6f09eeccae4ccd8deeecac840d2dcc8caf02604482015290519081900360640190fd5b600080905085600101600f886040518082805190602001908083835b60208310611afd5780518252601f199092019160209182019101611ade565b51815160209384036101000a600019018019909216911617905292019485525060405193849003019092206001015492909211159150611b3d9050575060015b6060806000611c4d600f8b6040518082805190602001908083835b60208310611b775780518252601f199092019160209182019101611b58565b51815160209384036101000a6000190180199092169116179052920194855250604051938490030190922060010180549092508c91508110611bb557fe5b600091825260209182902001805460408051601f6002600019610100600187161502019094169390930492830185900485028101850190915281815292830182828015611c435780601f10611c1857610100808354040283529160200191611c43565b820191906000526020600020905b815481529060010190602001808311611c2657829003601f168201915b5050505050612232565b919c909b509099509397509295505050505050565b600d5481565b60606000806000611ce38560016010886040518082805190602001908083835b60208310611ca75780518252601f199092019160209182019101611c88565b51815160209384036101000a6000190180199092169116179052920194855250604051938490030190922060030154929092039150612cb79050565b611ec760116010876040518082805190602001908083835b60208310611d1a5780518252601f199092019160209182019101611cfb565b6001836020036101000a038019825116818451168082178552505050505050905001915050908152602001604051809103902060030160016010896040518082805190602001908083835b60208310611d845780518252601f199092019160209182019101611d65565b51815160209384036101000a600019018019909216911617905292019485525060405193849003019092206003015484549390039283109150611dc5905057fe5b906000526020600020016040518082805460018160011615610100020316600290048015611e2a5780601f10611e08576101008083540402835291820191611e2a565b820191906000526020600020905b815481529060010190602001808311611e16575b505092835250506040805160209281900383018120805460026001821615610100026000190190911604601f81018590048502830185019093528282529092909190830182828015611ebd5780601f10611e9257610100808354040283529160200191611ebd565b820191906000526020600020905b815481529060010190602001808311611ea057829003601f168201915b5050505050611581565b93509350935093509193509193565b600654600160a060020a031681565b6000805460408051602060026001851615610100026000190190941693909304601f810184900484028201840190925281815292918301828280156112ad5780601f10611282576101008083540402835291602001916112ad565b6040805180820190915260168152605260020a751c185e5b595b9d17d8db185d5cd94b98dc99585d195902602082015281565b6060600080600080611f8487612a4f565b6010876040518082805190602001908083835b60208310611fb65780518252601f199092019160209182019101611f97565b51815160209384036101000a6000190180199092169116179052920194855250604051938490030190922060030154881091506120359050576040805160e560020a62461bcd0281526020600482015260106024820152608360020a6f09eeccae4ccd8deeecac840d2dcc8caf02604482015290519081900360640190fd5b6000809050866001016010896040518082805190602001908083835b602083106120705780518252601f199092019160209182019101612051565b51815160209384036101000a6000190180199092169116179052920194855250604051938490030190922060030154929092111591506120b09050575060015b6060600080600061218d60108d6040518082805190602001908083835b602083106120ec5780518252601f1990920191602091820191016120cd565b51815160209384036101000a6000190180199092169116179052920194855250604051938490030190922060030180549092508e9150811061212a57fe5b600091825260209182902001805460408051601f6002600019610100600187161502019094169390930492830185900485028101850190915281815292830182828015611ebd5780601f10611e9257610100808354040283529160200191611ebd565b929f919e509c50909a50949850939650505050505050565b600e5481565b600754600160a060020a03163314612216576040805160e560020a62461bcd02815260206004820152602f60248201526000805160206130ea8339815191526044820152608960020a6e37b936903a3434b99030b1ba34b7b702606482015290519081900360840190fd5b61221f81612d93565b5050565b600754600160a060020a031681565b606080600061224084612a4f565b6010846040518082805190602001908083835b602083106122725780518252601f199092019160209182019101612253565b51815160209384036101000a600019018019909216911617905292019485525060405193849003810184208851909460109450899350918291908401908083835b602083106122d25780518252601f1990920191602091820191016122b3565b6001836020036101000a03801982511681845116808217855250505050505090500191505090815260200160405180910390206001016010866040518082805190602001908083835b6020831061233a5780518252601f19909201916020918201910161231b565b518151600019602094850361010090810a820192831692199390931691909117909252949092019687526040805197889003820188206002908101548b54601f60018216159098029095019094160494850182900482028801820190528387529095945087935084019050828280156123f45780601f106123c9576101008083540402835291602001916123f4565b820191906000526020600020905b8154815290600101906020018083116123d757829003601f168201915b5050855460408051602060026001851615610100026000190190941693909304601f8101849004840282018401909252818152959850879450925084019050828280156124825780601f1061245757610100808354040283529160200191612482565b820191906000526020600020905b81548152906001019060200180831161246557829003601f168201915b505050505091509250925092509193909250565b600f816040518082805190602001908083835b602083106124c85780518252601f1990920191602091820191016124a9565b6001836020036101000a038019825116818451168082178552505050505050905001915050908152602001604051809103902060000180546001816001161561010002031660029004905060001415151561256d576040805160e560020a62461bcd02815260206004820152601b60248201527f5468697320726563656976657220646f65736e27742065786973740000000000604482015290519081900360640190fd5b50565b600061257b83612d93565b506010826040518082805190602001908083835b602083106125ae5780518252601f19909201916020918201910161258f565b6001836020036101000a03801982511681845116808217855250505050505090500191505090815260200160405180910390206000018054600181600116156101000203166002900490506000141561277a5760606080604051908101604052808481526020016020604051908101604052806000815250815260200160008152602001828152506010846040518082805190602001908083835b602083106126685780518252601f199092019160209182019101612649565b51815160209384036101000a60001901801990921691161790529201948552506040519384900381019093208451805191946126a994508593500190612f71565b5060208281015180516126c29260018501920190612f71565b5060408201516002820155606082015180516126e8916003840191602090910190612fef565b50905050600f846040518082805190602001908083835b6020831061271e5780518252601f1990920191602091820191016126ff565b51815160209384036101000a6000190180199092169116179052920194855250604051938490038101909320600190810180549182018082556000918252908590208851919561277695509201925090870190612f71565b5050505b6010826040518082805190602001908083835b602083106127ac5780518252601f19909201916020918201910161278d565b51815160209384036101000a6000190180199092169116179052920194855250604051938490030190922095945050505050565b6000805b6005546040805160e260020a633ce8989d0281526024810184905260048101918252600080546002600019600183161561010002019091160460448301819052600160a060020a039094169363f3a26274939192869291829160640190859080156128905780601f1061286557610100808354040283529160200191612890565b820191906000526020600020905b81548152906001019060200180831161287357829003601f168201915b5050935050505060206040518083038186803b1580156128af57600080fd5b505afa1580156128c3573d6000803e3d6000fd5b505050506040513d60208110156128d957600080fd5b50519150600101600160a060020a03821615612a3a5760408051306044820181905260248201928352855160648301528551600160a060020a0386169387939091829160840190602086019080838360005b8381101561294357818101518382015260200161292b565b50505050905090810190601f1680156129705780820380516001836020036101000a031916815260200191505b5060408051601f19818403018152918152602082018051600160e060020a031660e160020a63738f32bb0217815290518251929650945084935091508083835b602083106129cf5780518252601f1990920191602091820191016129b0565b6001836020036101000a0380198251168184511680821785525050505050509050019150506000604051808303816000865af19150503d8060008114612a31576040519150601f19603f3d011682016040523d82523d6000602084013e612a36565b606091505b5050505b600160a060020a03821615156127e457505050565b6010816040518082805190602001908083835b60208310612a815780518252601f199092019160209182019101612a62565b6001836020036101000a038019825116818451168082178552505050505050905001915050908152602001604051809103902060000180546001816001161561010002031660029004905060001415151561256d576040805160e560020a62461bcd02815260206004820152601c60248201527f54686973207265666572656e636520646f65736e277420657869737400000000604482015290519081900360640190fd5b6011816040518082805190602001908083835b60208310612b585780518252601f199092019160209182019101612b39565b6001836020036101000a038019825116818451168082178552505050505050905001915050908152602001604051809103902060000180546001816001161561010002031660029004905060001415151561256d576040805160e560020a62461bcd02815260206004820181905260248201526000805160206130ca833981519152604482015290519081900360640190fd5b6006546040805160e160020a63738f32bb028152306024820181905260048201928352845160448301528451600160a060020a039094169363e71e65769386939091829160640190602086019080838360005b83811015612c56578181015183820152602001612c3e565b50505050905090810190601f168015612c835780820380516001836020036101000a031916815260200191505b509350505050600060405180830381600087803b158015612ca357600080fd5b505af11580156119fb573d6000803e3d6000fd5b612cc082612a4f565b6010826040518082805190602001908083835b60208310612cf25780518252601f199092019160209182019101612cd3565b51815160209384036101000a6000190180199092169116179052920194855250604051938490030190922060030180549092508391508110612d3057fe5b60009182526020909120015460026000196101006001841615020190911604151561221f576040805160e560020a62461bcd02815260206004820181905260248201526000805160206130ca833981519152604482015290519081900360640190fd5b6000600f826040518082805190602001908083835b60208310612dc75780518252601f199092019160209182019101612da8565b6001836020036101000a038019825116818451168082178552505050505050905001915050908152602001604051809103902060000180546001816001161561010002031660029004905060001415612f0c576060604080519081016040528084815260200182815250600f846040518082805190602001908083835b60208310612e635780518252601f199092019160209182019101612e44565b51815160209384036101000a6000190180199092169116179052920194855250604051938490038101909320845180519194612ea494508593500190612f71565b506020828101518051612ebd9260018501920190612fef565b5050600b8054600181018083556000929092528551919250612f08917f0175b7a638427703f0dbe7bb9bbf987a2551717b34e79f33b5b1008d1fa01db9909101906020870190612f71565b5050505b600f826040518082805190602001908083835b60208310612f3e5780518252601f199092019160209182019101612f1f565b51815160209384036101000a60001901801990921691161790529201948552506040519384900301909220949350505050565b828054600181600116156101000203166002900490600052602060002090601f016020900481019282601f10612fb257805160ff1916838001178555612fdf565b82800160010185558215612fdf579182015b82811115612fdf578251825591602001919060010190612fc4565b50612feb929150613048565b5090565b82805482825590600052602060002090810192821561303c579160200282015b8281111561303c578251805161302c918491602090910190612f71565b509160200191906001019061300f565b50612feb929150613062565b61150a91905b80821115612feb576000815560010161304e565b61150a91905b80821115612feb57600061307c8282613085565b50600101613068565b50805460018160011615610100020316600290046000825580601f106130ab575061256d565b601f01602090049060005260206000209081019061256d919061304856fe54686973207061796d656e7420636865636b20646f65736e27742065786973744f6e6c79205369676e617475726974206163636f756e742063616e2070657266a165627a7a72305820c1e69bbc98edc62626a9ee6af15efad3ab7f2103961a69056ab8ad8f8cedb7e60029",
  "source": "pragma solidity <0.6.0;\n\n/*\nGas to deploy: 3.536.741\n\nPaymentCheck status legend:\n\nUNPROCESSED    = 0;\nPROCESSING     = 1;\nPAID           = 2;\nOVER_PAID      = 3;\nPARTIALLY_PAID = 4;\n*/\n\nimport \"./Clause.sol\";\n\n\ncontract Payment is Clause(\n    \"payment-clause-notifiers\"\n)\n{\n    string constant public CLAUSE_EVENT_TYPE = \"payment_check.added\";\n    string constant public CREATION_EVENT_TYPE = \"payment_clause.created\";\n\n    struct PaymentCheck {\n        string id;\n        uint status;\n        uint checkedAt;\n        uint createdAt;\n    }\n\n    struct Reference {\n        string id;\n        string value;\n        uint price;\n        string[] checks;\n    }\n\n    struct Receiver {\n        string id;\n        string[] references;\n    }\n\n    address public signaturit;\n\n    string public contractId;\n    string public signatureId;\n    string public documentId;\n\n    string[] public receiversArray;\n\n    uint public startDate;\n    uint public endDate;\n    uint public period;\n\n    mapping(string => Receiver) private receivers;\n    mapping(string => Reference) private references;\n    mapping(string => PaymentCheck) private paymentChecks;\n\n    constructor(\n        address userContractAddress,\n        address signatureContractAddress,\n        string memory id\n    )\n        public\n    {\n        contractId = id;\n        signaturit = msg.sender;\n\n        userContract = SignaturitUserInterface(userContractAddress);\n        signatureContract = NotifierInterface(signatureContractAddress);\n    }\n\n    modifier signaturitOnly() {\n        require(\n            msg.sender == signaturit,\n            \"Only Signaturit account can perform this action\"\n        );\n\n        _;\n    }\n\n    function init(\n        string memory signature,\n        string memory document,\n        uint start,\n        uint end,\n        uint paymentPeriod\n    )\n        public\n        signaturitOnly\n    {\n        endDate = end;\n        startDate = start;\n        documentId = document;\n        period = paymentPeriod;\n        signatureId = signature;\n\n        _notifySignature(CREATION_EVENT_TYPE);\n    }\n\n    function setReceiver(\n        string memory id\n    )\n        public\n        signaturitOnly\n    {\n        _getReceiver(id);\n    }\n\n    function setReference(\n        string memory receiverId,\n        string memory referenceId,\n        string memory referenceValue,\n        uint referencePrice\n    )\n        public\n        signaturitOnly\n    {\n        Reference storage newReference = _getReference(\n            receiverId,\n            referenceId\n        );\n\n        newReference.id = referenceId;\n        newReference.value = referenceValue;\n        newReference.price = referencePrice;\n    }\n\n    function addPaymentCheck(\n        string memory receiverId,\n        string memory referenceId,\n        string memory paymentCheckId,\n        uint status,\n        uint checkedAt,\n        uint createdAt\n    )\n        public\n        signaturitOnly\n    {\n        Reference storage newReference = _getReference(\n            receiverId,\n            referenceId\n        );\n\n        paymentChecks[paymentCheckId] = PaymentCheck(\n            paymentCheckId,\n            status,\n            checkedAt,\n            createdAt\n        );\n\n        newReference.checks.push(paymentCheckId);\n\n        _notify(CLAUSE_EVENT_TYPE);\n    }\n\n    function getReceiversSize()\n        public\n        view\n        returns(uint)\n    {\n        return receiversArray.length;\n    }\n\n    // Get paymentCheck if you got the id\n    function getPaymentCheckById(\n        string memory paymentCheckId\n    )\n        public\n        view\n        returns (\n            string memory id,\n            uint status,\n            uint checkedAt,\n            uint createdAt\n        )\n    {\n        _checkPaymentCheckExistence(paymentCheckId);\n\n        return (\n            paymentChecks[paymentCheckId].id,\n            paymentChecks[paymentCheckId].status,\n            paymentChecks[paymentCheckId].checkedAt,\n            paymentChecks[paymentCheckId].createdAt\n        );\n    }\n\n    // Get paymentCheckID if you want the last one given a referenceId\n    function getLastPaymentCheckFromReference(\n        string memory referenceId\n    )\n        public\n        view\n        returns (\n            string memory id,\n            uint status,\n            uint checkedAt,\n            uint createdAt\n        )\n    {\n        _checkPaymentCheckFromReferenceExistence(\n            referenceId,\n            references[referenceId].checks.length - 1\n        );\n\n        return getPaymentCheckById(\n            paymentChecks[\n                references[\n                    referenceId\n                ].checks[\n                    references[\n                        referenceId\n                    ].checks.length - 1\n                ]\n            ].id\n        );\n    }\n\n    // Get paymentCheckID if you want to iterate through all\n    // the paymentChecks of a reference\n    function getPaymentCheckFromReference(\n        string memory referenceId,\n        uint index\n    )\n        public\n        view\n        returns (\n            string memory id,\n            uint status,\n            uint checkedAt,\n            uint createdAt,\n            bool more\n        )\n    {\n        _checkReferenceExistence(referenceId);\n\n        require(\n            index < references[referenceId].checks.length,\n            \"Overflowed index\"\n        );\n\n        bool thereIsMore = false;\n\n        if (references[referenceId].checks.length > index + 1)\n            thereIsMore = true;\n\n        (\n            string memory paymentCheckId,\n            uint paymentCheckStatus,\n            uint paymentCheckCheckedAt,\n            uint paymentCheckCreatedAt\n        ) = getPaymentCheckById(\n            references[referenceId].checks[index]\n        );\n\n        return(\n            paymentCheckId,\n            paymentCheckStatus,\n            paymentCheckCheckedAt,\n            paymentCheckCreatedAt,\n            thereIsMore\n        );\n    }\n\n    // Get how many paymentChecks there are for a reference\n    function getPaymentCheckSizeFromReference(\n        string memory referenceId\n    )\n        public\n        view\n        returns (uint size)\n    {\n        _checkReferenceExistence(referenceId);\n\n        return references[referenceId].checks.length;\n    }\n\n    // Get reference if you got the id\n    function getReferenceById(\n        string memory referenceId\n    )\n        public\n        view\n        returns (\n            string memory id,\n            string memory value,\n            uint price\n        )\n    {\n        _checkReferenceExistence(referenceId);\n\n        return(\n            references[referenceId].id,\n            references[referenceId].value,\n            references[referenceId].price\n        );\n    }\n\n    // Get referenceID if you want to iterate through all\n    // the references of a receiver\n    function getReferenceFromReceiver(\n        string memory receiverId,\n        uint index\n    )\n        public\n        view\n        returns (\n            string memory id,\n            string memory value,\n            uint price,\n            bool more\n        )\n    {\n        _checkReceiverExistence(receiverId);\n\n        require(\n            index < receivers[receiverId].references.length,\n            \"Overflowed index\"\n        );\n\n        bool thereIsMore = false;\n\n        if (receivers[receiverId].references.length > index + 1)\n            thereIsMore = true;\n\n        (\n            string memory referenceId,\n            string memory referenceValue,\n            uint referencePrice\n        ) = getReferenceById(\n            receivers[receiverId].references[index]\n        );\n\n        return(\n            referenceId,\n            referenceValue,\n            referencePrice,\n            thereIsMore\n        );\n    }\n\n    // Get references size from receiver\n    function getReferenceSizeFromReceiver(\n        string memory receiverId\n    )\n        public\n        view\n        returns (uint size)\n    {\n        _checkReceiverExistence(receiverId);\n\n        return receivers[receiverId].references.length;\n    }\n\n    // Get receiverID by index\n    function getReceiverId(\n        uint index\n    )\n        public\n        view\n        returns (\n            string memory id,\n            bool more\n        )\n    {\n        require(\n            index < receiversArray.length,\n            \"Overflowed index\"\n        );\n\n        bool thereIsMore = false;\n\n        if (receiversArray.length > index + 1)\n            thereIsMore = true;\n\n        return(\n            receiversArray[index],\n            thereIsMore\n        );\n    }\n\n    function _getReceiver(\n        string memory id\n    )\n        private\n        returns (Receiver storage)\n    {\n        if (bytes(receivers[id].id).length == 0) {\n\n            string[] memory tmpString;\n\n            receivers[id] = Receiver(id, tmpString);\n\n            receiversArray.push(id);\n        }\n\n        return receivers[id];\n    }\n\n    function _getReference(\n        string memory receiverId,\n        string memory referenceId\n    )\n        private\n        returns (Reference storage)\n    {\n        _getReceiver(receiverId);\n\n        if (bytes(references[referenceId].id).length == 0) {\n\n            string[] memory tmpPaymentChecks;\n\n            references[referenceId] = Reference(\n                referenceId,\n                \"\",\n                0,\n                tmpPaymentChecks\n            );\n\n            receivers[receiverId].references.push(referenceId);\n        }\n\n        return references[referenceId];\n    }\n\n    function _checkReferenceExistence(\n        string memory id\n    )\n        private\n        view\n    {\n        require(\n            bytes(references[id].id).length != 0,\n            \"This reference doesn't exist\"\n        );\n    }\n\n    function _checkReceiverExistence(\n        string memory id\n    )\n        private\n        view\n    {\n        require(\n            bytes(receivers[id].id).length != 0,\n            \"This receiver doesn't exist\"\n        );\n    }\n\n    function _checkPaymentCheckFromReferenceExistence(\n        string memory referenceId,\n        uint index\n    )\n        private\n        view\n    {\n        _checkReferenceExistence(referenceId);\n\n        require(\n            bytes(references[referenceId].checks[index]).length != 0,\n            \"This payment check doesn't exist\"\n        );\n    }\n\n    function _checkPaymentCheckExistence(\n        string memory id\n    )\n        private\n        view\n    {\n        require(\n            bytes(paymentChecks[id].id).length != 0,\n            \"This payment check doesn't exist\"\n        );\n    }\n}\n",
  "sourcePath": "/home/administrator/workspace/signaturit-solidity-contracts/contracts/Payment.sol",
  "compiler": {
    "name": "solc",
    "version": "0.5.0+commit.1d4f565a.Emscripten.clang"
  },
  "schemaVersion": "2.0.3",
  "updatedAt": "2020-01-15T10:55:50.268Z"
}