{
  "contractName": "Payment",
  "abi": [
    {
      "constant": true,
      "inputs": [],
      "name": "startDate",
      "outputs": [
        {
          "name": "",
          "type": "uint256"
        }
      ],
      "payable": false,
      "stateMutability": "view",
      "type": "function"
    },
    {
      "constant": true,
      "inputs": [],
      "name": "signatureId",
      "outputs": [
        {
          "name": "",
          "type": "string"
        }
      ],
      "payable": false,
      "stateMutability": "view",
      "type": "function"
    },
    {
      "constant": true,
      "inputs": [],
      "name": "CLAUSE_EVENT_TYPE",
      "outputs": [
        {
          "name": "",
          "type": "string"
        }
      ],
      "payable": false,
      "stateMutability": "view",
      "type": "function"
    },
    {
      "constant": true,
      "inputs": [],
      "name": "userContract",
      "outputs": [
        {
          "name": "",
          "type": "address"
        }
      ],
      "payable": false,
      "stateMutability": "view",
      "type": "function"
    },
    {
      "constant": true,
      "inputs": [],
      "name": "clause",
      "outputs": [
        {
          "name": "",
          "type": "string"
        }
      ],
      "payable": false,
      "stateMutability": "view",
      "type": "function"
    },
    {
      "constant": true,
      "inputs": [
        {
          "name": "",
          "type": "uint256"
        }
      ],
      "name": "receiversArray",
      "outputs": [
        {
          "name": "",
          "type": "string"
        }
      ],
      "payable": false,
      "stateMutability": "view",
      "type": "function"
    },
    {
      "constant": true,
      "inputs": [],
      "name": "documentId",
      "outputs": [
        {
          "name": "",
          "type": "string"
        }
      ],
      "payable": false,
      "stateMutability": "view",
      "type": "function"
    },
    {
      "constant": true,
      "inputs": [],
      "name": "contractId",
      "outputs": [
        {
          "name": "",
          "type": "string"
        }
      ],
      "payable": false,
      "stateMutability": "view",
      "type": "function"
    },
    {
      "constant": true,
      "inputs": [],
      "name": "endDate",
      "outputs": [
        {
          "name": "",
          "type": "uint256"
        }
      ],
      "payable": false,
      "stateMutability": "view",
      "type": "function"
    },
    {
      "constant": true,
      "inputs": [],
      "name": "signatureContract",
      "outputs": [
        {
          "name": "",
          "type": "address"
        }
      ],
      "payable": false,
      "stateMutability": "view",
      "type": "function"
    },
    {
      "constant": true,
      "inputs": [],
      "name": "notifiersKey",
      "outputs": [
        {
          "name": "",
          "type": "string"
        }
      ],
      "payable": false,
      "stateMutability": "view",
      "type": "function"
    },
    {
      "constant": true,
      "inputs": [],
      "name": "CREATION_EVENT_TYPE",
      "outputs": [
        {
          "name": "",
          "type": "string"
        }
      ],
      "payable": false,
      "stateMutability": "view",
      "type": "function"
    },
    {
      "constant": true,
      "inputs": [],
      "name": "period",
      "outputs": [
        {
          "name": "",
          "type": "uint256"
        }
      ],
      "payable": false,
      "stateMutability": "view",
      "type": "function"
    },
    {
      "constant": true,
      "inputs": [],
      "name": "signaturit",
      "outputs": [
        {
          "name": "",
          "type": "address"
        }
      ],
      "payable": false,
      "stateMutability": "view",
      "type": "function"
    },
    {
      "inputs": [
        {
          "name": "userContractAddress",
          "type": "address"
        },
        {
          "name": "signatureContractAddress",
          "type": "address"
        },
        {
          "name": "id",
          "type": "string"
        }
      ],
      "payable": false,
      "stateMutability": "nonpayable",
      "type": "constructor"
    },
    {
      "constant": false,
      "inputs": [
        {
          "name": "signature",
          "type": "string"
        },
        {
          "name": "document",
          "type": "string"
        },
        {
          "name": "start",
          "type": "uint256"
        },
        {
          "name": "end",
          "type": "uint256"
        },
        {
          "name": "paymentPeriod",
          "type": "uint256"
        }
      ],
      "name": "init",
      "outputs": [],
      "payable": false,
      "stateMutability": "nonpayable",
      "type": "function"
    },
    {
      "constant": false,
      "inputs": [
        {
          "name": "id",
          "type": "string"
        }
      ],
      "name": "setReceiver",
      "outputs": [],
      "payable": false,
      "stateMutability": "nonpayable",
      "type": "function"
    },
    {
      "constant": false,
      "inputs": [
        {
          "name": "receiverId",
          "type": "string"
        },
        {
          "name": "referenceId",
          "type": "string"
        },
        {
          "name": "referenceValue",
          "type": "string"
        },
        {
          "name": "referencePrice",
          "type": "uint256"
        }
      ],
      "name": "setReference",
      "outputs": [],
      "payable": false,
      "stateMutability": "nonpayable",
      "type": "function"
    },
    {
      "constant": false,
      "inputs": [
        {
          "name": "receiverId",
          "type": "string"
        },
        {
          "name": "referenceId",
          "type": "string"
        },
        {
          "name": "paymentCheckId",
          "type": "string"
        },
        {
          "name": "status",
          "type": "uint256"
        },
        {
          "name": "checkedAt",
          "type": "uint256"
        },
        {
          "name": "createdAt",
          "type": "uint256"
        }
      ],
      "name": "addPaymentCheck",
      "outputs": [],
      "payable": false,
      "stateMutability": "nonpayable",
      "type": "function"
    },
    {
      "constant": true,
      "inputs": [
        {
          "name": "paymentCheckId",
          "type": "string"
        }
      ],
      "name": "getPaymentCheckById",
      "outputs": [
        {
          "name": "id",
          "type": "string"
        },
        {
          "name": "status",
          "type": "uint256"
        },
        {
          "name": "checkedAt",
          "type": "uint256"
        },
        {
          "name": "createdAt",
          "type": "uint256"
        }
      ],
      "payable": false,
      "stateMutability": "view",
      "type": "function"
    },
    {
      "constant": true,
      "inputs": [
        {
          "name": "referenceId",
          "type": "string"
        }
      ],
      "name": "getLastPaymentCheckFromReference",
      "outputs": [
        {
          "name": "id",
          "type": "string"
        },
        {
          "name": "status",
          "type": "uint256"
        },
        {
          "name": "checkedAt",
          "type": "uint256"
        },
        {
          "name": "createdAt",
          "type": "uint256"
        }
      ],
      "payable": false,
      "stateMutability": "view",
      "type": "function"
    },
    {
      "constant": true,
      "inputs": [
        {
          "name": "referenceId",
          "type": "string"
        },
        {
          "name": "index",
          "type": "uint256"
        }
      ],
      "name": "getPaymentCheckFromReference",
      "outputs": [
        {
          "name": "id",
          "type": "string"
        },
        {
          "name": "status",
          "type": "uint256"
        },
        {
          "name": "checkedAt",
          "type": "uint256"
        },
        {
          "name": "createdAt",
          "type": "uint256"
        },
        {
          "name": "more",
          "type": "bool"
        }
      ],
      "payable": false,
      "stateMutability": "view",
      "type": "function"
    },
    {
      "constant": true,
      "inputs": [
        {
          "name": "referenceId",
          "type": "string"
        }
      ],
      "name": "getPaymentCheckSizeFromReference",
      "outputs": [
        {
          "name": "size",
          "type": "uint256"
        }
      ],
      "payable": false,
      "stateMutability": "view",
      "type": "function"
    },
    {
      "constant": true,
      "inputs": [
        {
          "name": "referenceId",
          "type": "string"
        }
      ],
      "name": "getReferenceById",
      "outputs": [
        {
          "name": "id",
          "type": "string"
        },
        {
          "name": "value",
          "type": "string"
        },
        {
          "name": "price",
          "type": "uint256"
        }
      ],
      "payable": false,
      "stateMutability": "view",
      "type": "function"
    },
    {
      "constant": true,
      "inputs": [
        {
          "name": "receiverId",
          "type": "string"
        },
        {
          "name": "index",
          "type": "uint256"
        }
      ],
      "name": "getReferenceFromReceiver",
      "outputs": [
        {
          "name": "id",
          "type": "string"
        },
        {
          "name": "value",
          "type": "string"
        },
        {
          "name": "price",
          "type": "uint256"
        },
        {
          "name": "more",
          "type": "bool"
        }
      ],
      "payable": false,
      "stateMutability": "view",
      "type": "function"
    },
    {
      "constant": true,
      "inputs": [
        {
          "name": "receiverId",
          "type": "string"
        }
      ],
      "name": "getReferenceSizeFromReceiver",
      "outputs": [
        {
          "name": "size",
          "type": "uint256"
        }
      ],
      "payable": false,
      "stateMutability": "view",
      "type": "function"
    },
    {
      "constant": true,
      "inputs": [
        {
          "name": "index",
          "type": "uint256"
        }
      ],
      "name": "getReceiverId",
      "outputs": [
        {
          "name": "id",
          "type": "string"
        },
        {
          "name": "more",
          "type": "bool"
        }
      ],
      "payable": false,
      "stateMutability": "view",
      "type": "function"
    }
  ],
  "bytecode": "0x60806040523480156200001157600080fd5b50604051620033bb380380620033bb833981018060405260608110156200003757600080fd5b81516020830151604084018051929491938201926401000000008111156200005e57600080fd5b820160208101848111156200007257600080fd5b81516401000000008111828201871017156200008d57600080fd5b5050604080518082018252600781527f7061796d656e740000000000000000000000000000000000000000000000000060208083019182528351808501909452601884527f7061796d656e745f636c617573655f6e6f7469666965727300000000000000009084015281519396509094509092506200011091600291906200017d565b508051620001269060009060208401906200017d565b505081516200013e915060099060208401906200017d565b505060088054600160a060020a0319908116331790915560068054600160a060020a039485169083161790556007805492909316911617905562000222565b828054600181600116156101000203166002900490600052602060002090601f016020900481019282601f10620001c057805160ff1916838001178555620001f0565b82800160010185558215620001f0579182015b82811115620001f0578251825591602001919060010190620001d3565b50620001fe92915062000202565b5090565b6200021f91905b80821115620001fe576000815560010162000209565b90565b61318980620002326000396000f3fe60806040526004361061013a5763ffffffff60e060020a6000350416630b97bc86811461013f57806313820f19146101665780631c9a05ec14610217578063395ba050146102c45780634396fd121461034e5780635000596b146103635780635ee4a01a14610394578063605b4609146103a9578063680488e2146103d35780636b7eab381461059b57806374452c901461064c57806378f7c83f1461078a5780638291286c1461079f578063881c2cc0146107b4578063b610f10f14610971578063bfbcafd414610ab2578063c24a0f8b14610c51578063c7e3bb0214610c66578063d83070ab14610d17578063d9026ed114610d2c578063dea8444414610d41578063e2ec46e114610d56578063ef78d4fd14610e61578063f405f28014610e76578063f9b5333514610f27578063fc2e2c2814610f3c575b600080fd5b34801561014b57600080fd5b50610154611093565b60408051918252519081900360200190f35b34801561017257600080fd5b506101546004803603602081101561018957600080fd5b810190602081018135602060020a8111156101a357600080fd5b8201836020820111156101b557600080fd5b803590602001918460018302840111602060020a831117156101d657600080fd5b91908080601f016020809104026020016040519081016040528093929190818152602001838380828437600092019190915250929550611099945050505050565b34801561022357600080fd5b506102416004803603602081101561023a57600080fd5b503561110d565b604051808060200183151515158152602001828103825284818151815260200191508051906020019080838360005b83811015610288578181015183820152602001610270565b50505050905090810190601f1680156102b55780820380516001836020036101000a031916815260200191505b50935050505060405180910390f35b3480156102d057600080fd5b506102d9611227565b6040805160208082528351818301528351919283929083019185019080838360005b838110156103135781810151838201526020016102fb565b50505050905090810190601f1680156103405780820380516001836020036101000a031916815260200191505b509250505060405180910390f35b34801561035a57600080fd5b506102d96112b5565b34801561036f57600080fd5b506103786112e5565b60408051600160a060020a039092168252519081900360200190f35b3480156103a057600080fd5b506102d96112f4565b3480156103b557600080fd5b506102d9600480360360208110156103cc57600080fd5b503561134c565b3480156103df57600080fd5b50610599600480360360c08110156103f657600080fd5b810190602081018135602060020a81111561041057600080fd5b82018360208201111561042257600080fd5b803590602001918460018302840111602060020a8311171561044357600080fd5b91908080601f0160208091040260200160405190810160405280939291908181526020018383808284376000920191909152509295949360208101935035915050602060020a81111561049557600080fd5b8201836020820111156104a757600080fd5b803590602001918460018302840111602060020a831117156104c857600080fd5b91908080601f0160208091040260200160405190810160405280939291908181526020018383808284376000920191909152509295949360208101935035915050602060020a81111561051a57600080fd5b82018360208201111561052c57600080fd5b803590602001918460018302840111602060020a8311171561054d57600080fd5b91908080601f01602080910402602001604051908101604052809392919081815260200183838082843760009201919091525092955050823593505050602081013590604001356113c0565b005b3480156105a757600080fd5b50610154600480360360208110156105be57600080fd5b810190602081018135602060020a8111156105d857600080fd5b8201836020820111156105ea57600080fd5b803590602001918460018302840111602060020a8311171561060b57600080fd5b91908080601f01602080910402602001604051908101604052809392919081815260200183838082843760009201919091525092955061155e945050505050565b34801561065857600080fd5b506106fd6004803603602081101561066f57600080fd5b810190602081018135602060020a81111561068957600080fd5b82018360208201111561069b57600080fd5b803590602001918460018302840111602060020a831117156106bc57600080fd5b91908080601f0160208091040260200160405190810160405280939291908181526020018383808284376000920191909152509295506115d2945050505050565b6040518080602001858152602001848152602001838152602001828103825286818151815260200191508051906020019080838360005b8381101561074c578181015183820152602001610734565b50505050905090810190601f1680156107795780820380516001836020036101000a031916815260200191505b509550505050505060405180910390f35b34801561079657600080fd5b506102d961180e565b3480156107ab57600080fd5b506102d9611869565b3480156107c057600080fd5b50610599600480360360808110156107d757600080fd5b810190602081018135602060020a8111156107f157600080fd5b82018360208201111561080357600080fd5b803590602001918460018302840111602060020a8311171561082457600080fd5b91908080601f0160208091040260200160405190810160405280939291908181526020018383808284376000920191909152509295949360208101935035915050602060020a81111561087657600080fd5b82018360208201111561088857600080fd5b803590602001918460018302840111602060020a831117156108a957600080fd5b91908080601f0160208091040260200160405190810160405280939291908181526020018383808284376000920191909152509295949360208101935035915050602060020a8111156108fb57600080fd5b82018360208201111561090d57600080fd5b803590602001918460018302840111602060020a8311171561092e57600080fd5b91908080601f01602080910402602001604051908101604052809392919081815260200183838082843760009201919091525092955050913592506118c4915050565b34801561097d57600080fd5b50610599600480360360a081101561099457600080fd5b810190602081018135602060020a8111156109ae57600080fd5b8201836020820111156109c057600080fd5b803590602001918460018302840111602060020a831117156109e157600080fd5b91908080601f0160208091040260200160405190810160405280939291908181526020018383808284376000920191909152509295949360208101935035915050602060020a811115610a3357600080fd5b820183602082011115610a4557600080fd5b803590602001918460018302840111602060020a83111715610a6657600080fd5b91908080601f0160208091040260200160405190810160405280939291908181526020018383808284376000920191909152509295505082359350505060208101359060400135611970565b348015610abe57600080fd5b50610b6560048036036040811015610ad557600080fd5b810190602081018135602060020a811115610aef57600080fd5b820183602082011115610b0157600080fd5b803590602001918460018302840111602060020a83111715610b2257600080fd5b91908080601f0160208091040260200160405190810160405280939291908181526020018383808284376000920191909152509295505091359250611a53915050565b60408051908101839052811515606082015260808082528551908201528451819060208083019160a084019189019080838360005b83811015610bb2578181015183820152602001610b9a565b50505050905090810190601f168015610bdf5780820380516001836020036101000a031916815260200191505b50838103825286518152865160209182019188019080838360005b83811015610c12578181015183820152602001610bfa565b50505050905090810190601f168015610c3f5780820380516001836020036101000a031916815260200191505b50965050505050505060405180910390f35b348015610c5d57600080fd5b50610154611cb3565b348015610c7257600080fd5b506106fd60048036036020811015610c8957600080fd5b810190602081018135602060020a811115610ca357600080fd5b820183602082011115610cb557600080fd5b803590602001918460018302840111602060020a83111715610cd657600080fd5b91908080601f016020809104026020016040519081016040528093929190818152602001838380828437600092019190915250929550611cb9945050505050565b348015610d2357600080fd5b50610378611f27565b348015610d3857600080fd5b506102d9611f36565b348015610d4d57600080fd5b506102d9611f91565b348015610d6257600080fd5b50610e0960048036036040811015610d7957600080fd5b810190602081018135602060020a811115610d9357600080fd5b820183602082011115610da557600080fd5b803590602001918460018302840111602060020a83111715610dc657600080fd5b91908080601f0160208091040260200160405190810160405280939291908181526020018383808284376000920191909152509295505091359250611fc4915050565b6040518080602001868152602001858152602001848152602001831515151581526020018281038252878181518152602001915080519060200190808383600083811015610c12578181015183820152602001610bfa565b348015610e6d57600080fd5b506101546121f6565b348015610e8257600080fd5b5061059960048036036020811015610e9957600080fd5b810190602081018135602060020a811115610eb357600080fd5b820183602082011115610ec557600080fd5b803590602001918460018302840111602060020a83111715610ee657600080fd5b91908080601f0160208091040260200160405190810160405280939291908181526020018383808284376000920191909152509295506121fc945050505050565b348015610f3357600080fd5b50610378612274565b348015610f4857600080fd5b50610fed60048036036020811015610f5f57600080fd5b810190602081018135602060020a811115610f7957600080fd5b820183602082011115610f8b57600080fd5b803590602001918460018302840111602060020a83111715610fac57600080fd5b91908080601f016020809104026020016040519081016040528093929190818152602001838380828437600092019190915250929550612283945050505050565b604051808060200180602001848152602001838103835286818151815260200191508051906020019080838360005b8381101561103457818101518382015260200161101c565b50505050905090810190601f1680156110615780820380516001836020036101000a031916815260200191505b50838103825285518152855160209182019187019080838360008381101561074c578181015183820152602001610734565b600d5481565b60006110a4826124e7565b6010826040518082805190602001908083835b602083106110d65780518252601f1990920191602091820191016110b7565b51815160209384036101000a6000190180199092169116179052920194855250604051938490030190922060010154949350505050565b600c546060906000908310611162576040805160e560020a62461bcd0281526020600482015260106024820152608360020a6f09eeccae4ccd8deeecac840d2dcc8caf02604482015290519081900360640190fd5b600c54600090600185011015611176575060015b600c80548590811061118457fe5b60009182526020918290200180546040805160026001841615610100026000190190931692909204601f81018590048502830185019091528082529192849284918301828280156112165780601f106111eb57610100808354040283529160200191611216565b820191906000526020600020905b8154815290600101906020018083116111f957829003601f168201915b505050505091509250925050915091565b600a805460408051602060026001851615610100026000190190941693909304601f810184900484028201840190925281815292918301828280156112ad5780601f10611282576101008083540402835291602001916112ad565b820191906000526020600020905b81548152906001019060200180831161129057829003601f168201915b505050505081565b6040805180820190915260138152606a60020a721c185e5b595b9d17d8da1958dacb985919195902602082015281565b600654600160a060020a031681565b6002805460408051602060018416156101000260001901909316849004601f810184900484028201840190925281815292918301828280156112ad5780601f10611282576101008083540402835291602001916112ad565b600c80548290811061135a57fe5b600091825260209182902001805460408051601f60026000196101006001871615020190941693909304928301859004850281018501909152818152935090918301828280156112ad5780601f10611282576101008083540402835291602001916112ad565b600854600160a060020a0316331461142b576040805160e560020a62461bcd02815260206004820152602f602482015260008051602061313e8339815191526044820152608960020a6e37b936903a3434b99030b1ba34b7b702606482015290519081900360840190fd5b600061143787876125c1565b9050608060405190810160405280868152602001858152602001848152602001838152506012866040518082805190602001908083835b6020831061148d5780518252601f19909201916020918201910161146e565b51815160209384036101000a60001901801990921691161790529201948552506040519384900381019093208451805191946114ce94508593500190612fc2565b506020828101516001808401919091556040840151600284015560609093015160039283015590830180549283018082556000918252908290208851919361151c9391019190890190612fc2565b5050611555604080519081016040528060138152602001606a60020a721c185e5b595b9d17d8da1958dacb985919195902815250612831565b50505050505050565b600061156982612aa0565b6011826040518082805190602001908083835b6020831061159b5780518252601f19909201916020918201910161157c565b51815160209384036101000a6000190180199092169116179052920194855250604051938490030190922060030154949350505050565b606060008060006115e285612b77565b6012856040518082805190602001908083835b602083106116145780518252601f1990920191602091820191016115f5565b51815160209384036101000a6000190180199092169116179052920194855250604051938490038101842089519094601294508a9350918291908401908083835b602083106116745780518252601f199092019160209182019101611655565b51815160209384036101000a60001901801990921691161790529201948552506040519384900381018420600101548a519094601294508b9350918291908401908083835b602083106116d85780518252601f1990920191602091820191016116b9565b51815160209384036101000a60001901801990921691161790529201948552506040519384900381018420600201548b519094601294508c9350918291908401908083835b6020831061173c5780518252601f19909201916020918201910161171d565b518151600019602094850361010090810a82019283169219939093169190911790925294909201968752604080519788900382018820600301548b54601f6002600183161590980290950116959095049283018290048202880182019052818752929594508893509184019050828280156117f85780601f106117cd576101008083540402835291602001916117f8565b820191906000526020600020905b8154815290600101906020018083116117db57829003601f168201915b5050505050935093509350935093509193509193565b600b805460408051602060026001851615610100026000190190941693909304601f810184900484028201840190925281815292918301828280156112ad5780601f10611282576101008083540402835291602001916112ad565b6009805460408051602060026001851615610100026000190190941693909304601f810184900484028201840190925281815292918301828280156112ad5780601f10611282576101008083540402835291602001916112ad565b600854600160a060020a0316331461192f576040805160e560020a62461bcd02815260206004820152602f602482015260008051602061313e8339815191526044820152608960020a6e37b936903a3434b99030b1ba34b7b702606482015290519081900360840190fd5b600061193b85856125c1565b84519091506119509082906020870190612fc2565b5082516119669060018301906020860190612fc2565b5060020155505050565b600854600160a060020a031633146119db576040805160e560020a62461bcd02815260206004820152602f602482015260008051602061313e8339815191526044820152608960020a6e37b936903a3434b99030b1ba34b7b702606482015290519081900360840190fd5b600e829055600d83905583516119f890600b906020870190612fc2565b50600f8190558451611a1190600a906020880190612fc2565b50611a4c604080519081016040528060168152602001605260020a751c185e5b595b9d17d8db185d5cd94b98dc99585d195902815250612c3c565b5050505050565b606080600080611a62866124e7565b6010866040518082805190602001908083835b60208310611a945780518252601f199092019160209182019101611a75565b51815160209384036101000a600019018019909216911617905292019485525060405193849003019092206001015487109150611b139050576040805160e560020a62461bcd0281526020600482015260106024820152608360020a6f09eeccae4ccd8deeecac840d2dcc8caf02604482015290519081900360640190fd5b6000809050856001016010886040518082805190602001908083835b60208310611b4e5780518252601f199092019160209182019101611b2f565b51815160209384036101000a600019018019909216911617905292019485525060405193849003019092206001015492909211159150611b8e9050575060015b6060806000611c9e60108b6040518082805190602001908083835b60208310611bc85780518252601f199092019160209182019101611ba9565b51815160209384036101000a6000190180199092169116179052920194855250604051938490030190922060010180549092508c91508110611c0657fe5b600091825260209182902001805460408051601f6002600019610100600187161502019094169390930492830185900485028101850190915281815292830182828015611c945780601f10611c6957610100808354040283529160200191611c94565b820191906000526020600020905b815481529060010190602001808311611c7757829003601f168201915b5050505050612283565b919c909b509099509397509295505050505050565b600e5481565b60606000806000611d348560016011886040518082805190602001908083835b60208310611cf85780518252601f199092019160209182019101611cd9565b51815160209384036101000a6000190180199092169116179052920194855250604051938490030190922060030154929092039150612d089050565b611f1860126011876040518082805190602001908083835b60208310611d6b5780518252601f199092019160209182019101611d4c565b6001836020036101000a038019825116818451168082178552505050505050905001915050908152602001604051809103902060030160016011896040518082805190602001908083835b60208310611dd55780518252601f199092019160209182019101611db6565b51815160209384036101000a600019018019909216911617905292019485525060405193849003019092206003015484549390039283109150611e16905057fe5b906000526020600020016040518082805460018160011615610100020316600290048015611e7b5780601f10611e59576101008083540402835291820191611e7b565b820191906000526020600020905b815481529060010190602001808311611e67575b505092835250506040805160209281900383018120805460026001821615610100026000190190911604601f81018590048502830185019093528282529092909190830182828015611f0e5780601f10611ee357610100808354040283529160200191611f0e565b820191906000526020600020905b815481529060010190602001808311611ef157829003601f168201915b50505050506115d2565b93509350935093509193509193565b600754600160a060020a031681565b6000805460408051602060026001851615610100026000190190941693909304601f810184900484028201840190925281815292918301828280156112ad5780601f10611282576101008083540402835291602001916112ad565b6040805180820190915260168152605260020a751c185e5b595b9d17d8db185d5cd94b98dc99585d195902602082015281565b6060600080600080611fd587612aa0565b6011876040518082805190602001908083835b602083106120075780518252601f199092019160209182019101611fe8565b51815160209384036101000a6000190180199092169116179052920194855250604051938490030190922060030154881091506120869050576040805160e560020a62461bcd0281526020600482015260106024820152608360020a6f09eeccae4ccd8deeecac840d2dcc8caf02604482015290519081900360640190fd5b6000809050866001016011896040518082805190602001908083835b602083106120c15780518252601f1990920191602091820191016120a2565b51815160209384036101000a6000190180199092169116179052920194855250604051938490030190922060030154929092111591506121019050575060015b606060008060006121de60118d6040518082805190602001908083835b6020831061213d5780518252601f19909201916020918201910161211e565b51815160209384036101000a6000190180199092169116179052920194855250604051938490030190922060030180549092508e9150811061217b57fe5b600091825260209182902001805460408051601f6002600019610100600187161502019094169390930492830185900485028101850190915281815292830182828015611f0e5780601f10611ee357610100808354040283529160200191611f0e565b929f919e509c50909a50949850939650505050505050565b600f5481565b600854600160a060020a03163314612267576040805160e560020a62461bcd02815260206004820152602f602482015260008051602061313e8339815191526044820152608960020a6e37b936903a3434b99030b1ba34b7b702606482015290519081900360840190fd5b61227081612de4565b5050565b600854600160a060020a031681565b606080600061229184612aa0565b6011846040518082805190602001908083835b602083106122c35780518252601f1990920191602091820191016122a4565b51815160209384036101000a600019018019909216911617905292019485525060405193849003810184208851909460119450899350918291908401908083835b602083106123235780518252601f199092019160209182019101612304565b6001836020036101000a03801982511681845116808217855250505050505090500191505090815260200160405180910390206001016011866040518082805190602001908083835b6020831061238b5780518252601f19909201916020918201910161236c565b518151600019602094850361010090810a820192831692199390931691909117909252949092019687526040805197889003820188206002908101548b54601f60018216159098029095019094160494850182900482028801820190528387529095945087935084019050828280156124455780601f1061241a57610100808354040283529160200191612445565b820191906000526020600020905b81548152906001019060200180831161242857829003601f168201915b5050855460408051602060026001851615610100026000190190941693909304601f8101849004840282018401909252818152959850879450925084019050828280156124d35780601f106124a8576101008083540402835291602001916124d3565b820191906000526020600020905b8154815290600101906020018083116124b657829003601f168201915b505050505091509250925092509193909250565b6010816040518082805190602001908083835b602083106125195780518252601f1990920191602091820191016124fa565b6001836020036101000a03801982511681845116808217855250505050505090500191505090815260200160405180910390206000018054600181600116156101000203166002900490506000141515156125be576040805160e560020a62461bcd02815260206004820152601b60248201527f5468697320726563656976657220646f65736e27742065786973740000000000604482015290519081900360640190fd5b50565b60006125cc83612de4565b506011826040518082805190602001908083835b602083106125ff5780518252601f1990920191602091820191016125e0565b6001836020036101000a0380198251168184511680821785525050505050509050019150509081526020016040518091039020600001805460018160011615610100020316600290049050600014156127cb5760606080604051908101604052808481526020016020604051908101604052806000815250815260200160008152602001828152506011846040518082805190602001908083835b602083106126b95780518252601f19909201916020918201910161269a565b51815160209384036101000a60001901801990921691161790529201948552506040519384900381019093208451805191946126fa94508593500190612fc2565b5060208281015180516127139260018501920190612fc2565b506040820151600282015560608201518051612739916003840191602090910190613040565b509050506010846040518082805190602001908083835b6020831061276f5780518252601f199092019160209182019101612750565b51815160209384036101000a600019018019909216911617905292019485525060405193849003810190932060019081018054918201808255600091825290859020885191956127c795509201925090870190612fc2565b5050505b6011826040518082805190602001908083835b602083106127fd5780518252601f1990920191602091820191016127de565b51815160209384036101000a6000190180199092169116179052920194855250604051938490030190922095945050505050565b6000805b6006546040805160e260020a633ce8989d0281526024810184905260048101918252600080546002600019600183161561010002019091160460448301819052600160a060020a039094169363f3a26274939192869291829160640190859080156128e15780601f106128b6576101008083540402835291602001916128e1565b820191906000526020600020905b8154815290600101906020018083116128c457829003601f168201915b5050935050505060206040518083038186803b15801561290057600080fd5b505afa158015612914573d6000803e3d6000fd5b505050506040513d602081101561292a57600080fd5b50519150600101600160a060020a03821615612a8b5760408051306044820181905260248201928352855160648301528551600160a060020a0386169387939091829160840190602086019080838360005b8381101561299457818101518382015260200161297c565b50505050905090810190601f1680156129c15780820380516001836020036101000a031916815260200191505b5060408051601f19818403018152918152602082018051600160e060020a031660e160020a63738f32bb0217815290518251929650945084935091508083835b60208310612a205780518252601f199092019160209182019101612a01565b6001836020036101000a0380198251168184511680821785525050505050509050019150506000604051808303816000865af19150503d8060008114612a82576040519150601f19603f3d011682016040523d82523d6000602084013e612a87565b606091505b5050505b600160a060020a038216151561283557505050565b6011816040518082805190602001908083835b60208310612ad25780518252601f199092019160209182019101612ab3565b6001836020036101000a03801982511681845116808217855250505050505090500191505090815260200160405180910390206000018054600181600116156101000203166002900490506000141515156125be576040805160e560020a62461bcd02815260206004820152601c60248201527f54686973207265666572656e636520646f65736e277420657869737400000000604482015290519081900360640190fd5b6012816040518082805190602001908083835b60208310612ba95780518252601f199092019160209182019101612b8a565b6001836020036101000a03801982511681845116808217855250505050505090500191505090815260200160405180910390206000018054600181600116156101000203166002900490506000141515156125be576040805160e560020a62461bcd028152602060048201819052602482015260008051602061311e833981519152604482015290519081900360640190fd5b6007546040805160e160020a63738f32bb028152306024820181905260048201928352845160448301528451600160a060020a039094169363e71e65769386939091829160640190602086019080838360005b83811015612ca7578181015183820152602001612c8f565b50505050905090810190601f168015612cd45780820380516001836020036101000a031916815260200191505b509350505050600060405180830381600087803b158015612cf457600080fd5b505af1158015611a4c573d6000803e3d6000fd5b612d1182612aa0565b6011826040518082805190602001908083835b60208310612d435780518252601f199092019160209182019101612d24565b51815160209384036101000a6000190180199092169116179052920194855250604051938490030190922060030180549092508391508110612d8157fe5b600091825260209091200154600260001961010060018416150201909116041515612270576040805160e560020a62461bcd028152602060048201819052602482015260008051602061311e833981519152604482015290519081900360640190fd5b60006010826040518082805190602001908083835b60208310612e185780518252601f199092019160209182019101612df9565b6001836020036101000a038019825116818451168082178552505050505050905001915050908152602001604051809103902060000180546001816001161561010002031660029004905060001415612f5d5760606040805190810160405280848152602001828152506010846040518082805190602001908083835b60208310612eb45780518252601f199092019160209182019101612e95565b51815160209384036101000a6000190180199092169116179052920194855250604051938490038101909320845180519194612ef594508593500190612fc2565b506020828101518051612f0e9260018501920190613040565b5050600c8054600181018083556000929092528551919250612f59917fdf6966c971051c3d54ec59162606531493a51404a002842f56009d7e5cf4a8c7909101906020870190612fc2565b5050505b6010826040518082805190602001908083835b60208310612f8f5780518252601f199092019160209182019101612f70565b51815160209384036101000a60001901801990921691161790529201948552506040519384900301909220949350505050565b828054600181600116156101000203166002900490600052602060002090601f016020900481019282601f1061300357805160ff1916838001178555613030565b82800160010185558215613030579182015b82811115613030578251825591602001919060010190613015565b5061303c929150613099565b5090565b82805482825590600052602060002090810192821561308d579160200282015b8281111561308d578251805161307d918491602090910190612fc2565b5091602001919060010190613060565b5061303c9291506130b6565b6130b391905b8082111561303c576000815560010161309f565b90565b6130b391905b8082111561303c5760006130d082826130d9565b506001016130bc565b50805460018160011615610100020316600290046000825580601f106130ff57506125be565b601f0160209004906000526020600020908101906125be919061309956fe54686973207061796d656e7420636865636b20646f65736e27742065786973744f6e6c79205369676e617475726974206163636f756e742063616e2070657266a165627a7a72305820efaabfc09ee9165787d23d12ce0ffe707db007255da2d068f66b6e20f8fb612f0029",
  "source": "pragma solidity <0.6.0;\n\n/*\nGas to deploy: 3.347.342\n\nPaymentCheck status legend:\n\nUNPROCESSED    = 0;\nPROCESSING     = 1;\nPAID           = 2;\nOVER_PAID      = 3;\nPARTIALLY_PAID = 4;\n*/\n\nimport \"./Clause.sol\";\n\n\ncontract Payment is Clause(\n    \"payment\",\n    \"payment_clause_notifiers\"\n)\n{\n    string constant public CLAUSE_EVENT_TYPE = \"payment_check.added\";\n    string constant public CREATION_EVENT_TYPE = \"payment_clause.created\";\n\n    struct PaymentCheck {\n        string id;\n        uint status;\n        uint checkedAt;\n        uint createdAt;\n    }\n\n    struct Reference {\n        string id;\n        string value;\n        uint price;\n        string[] checks;\n    }\n\n    struct Receiver {\n        string id;\n        string[] references;\n    }\n\n    address public signaturit;\n\n    string public contractId;\n    string public signatureId;\n    string public documentId;\n\n    string[] public receiversArray;\n\n    uint public startDate;\n    uint public endDate;\n    uint public period;\n\n    mapping(string => Receiver) private receivers;\n    mapping(string => Reference) private references;\n    mapping(string => PaymentCheck) private paymentChecks;\n\n    constructor(\n        address userContractAddress,\n        address signatureContractAddress,\n        string memory id\n    )\n        public\n    {\n        contractId = id;\n        signaturit = msg.sender;\n\n        userContract = SignaturitUserInterface(userContractAddress);\n        signatureContract = NotifierInterface(signatureContractAddress);\n    }\n\n    modifier signaturitOnly() {\n        require(\n            msg.sender == signaturit,\n            \"Only Signaturit account can perform this action\"\n        );\n\n        _;\n    }\n\n    function init(\n        string memory signature,\n        string memory document,\n        uint start,\n        uint end,\n        uint paymentPeriod\n    )\n        public\n        signaturitOnly\n    {\n        endDate = end;\n        startDate = start;\n        documentId = document;\n        period = paymentPeriod;\n        signatureId = signature;\n\n        _notifySignature(CREATION_EVENT_TYPE);\n    }\n\n    function setReceiver(\n        string memory id\n    )\n        public\n        signaturitOnly\n    {\n        _getReceiver(id);\n    }\n\n    function setReference(\n        string memory receiverId,\n        string memory referenceId,\n        string memory referenceValue,\n        uint referencePrice\n    )\n        public\n        signaturitOnly\n    {\n        Reference storage newReference = _getReference(\n            receiverId,\n            referenceId\n        );\n\n        newReference.id = referenceId;\n        newReference.value = referenceValue;\n        newReference.price = referencePrice;\n    }\n\n    function addPaymentCheck(\n        string memory receiverId,\n        string memory referenceId,\n        string memory paymentCheckId,\n        uint status,\n        uint checkedAt,\n        uint createdAt\n    )\n        public\n        signaturitOnly\n    {\n        Reference storage newReference = _getReference(\n            receiverId,\n            referenceId\n        );\n\n        paymentChecks[paymentCheckId] = PaymentCheck(\n            paymentCheckId,\n            status,\n            checkedAt,\n            createdAt\n        );\n\n        newReference.checks.push(paymentCheckId);\n\n        _notify(CLAUSE_EVENT_TYPE);\n    }\n\n    // Get paymentCheck if you got the id\n    function getPaymentCheckById(\n        string memory paymentCheckId\n    )\n        public\n        view\n        returns (\n            string memory id,\n            uint status,\n            uint checkedAt,\n            uint createdAt\n        )\n    {\n        _checkPaymentCheckExistence(paymentCheckId);\n\n        return (\n            paymentChecks[paymentCheckId].id,\n            paymentChecks[paymentCheckId].status,\n            paymentChecks[paymentCheckId].checkedAt,\n            paymentChecks[paymentCheckId].createdAt\n        );\n    }\n\n    // Get paymentCheckID if you want the last one given a referenceId\n    function getLastPaymentCheckFromReference(\n        string memory referenceId\n    )\n        public\n        view\n        returns (\n            string memory id,\n            uint status,\n            uint checkedAt,\n            uint createdAt\n        )\n    {\n        _checkPaymentCheckFromReferenceExistence(\n            referenceId,\n            references[referenceId].checks.length - 1\n        );\n\n        return getPaymentCheckById(\n            paymentChecks[\n                references[\n                    referenceId\n                ].checks[\n                    references[\n                        referenceId\n                    ].checks.length - 1\n                ]\n            ].id\n        );\n    }\n\n    // Get paymentCheckID if you want to iterate through all\n    // the paymentChecks of a reference\n    function getPaymentCheckFromReference(\n        string memory referenceId,\n        uint index\n    )\n        public\n        view\n        returns (\n            string memory id,\n            uint status,\n            uint checkedAt,\n            uint createdAt,\n            bool more\n        )\n    {\n        _checkReferenceExistence(referenceId);\n\n        require(\n            index < references[referenceId].checks.length,\n            \"Overflowed index\"\n        );\n\n        bool thereIsMore = false;\n\n        if (references[referenceId].checks.length > index + 1)\n            thereIsMore = true;\n\n        (\n            string memory paymentCheckId,\n            uint paymentCheckStatus,\n            uint paymentCheckCheckedAt,\n            uint paymentCheckCreatedAt\n        ) = getPaymentCheckById(\n            references[referenceId].checks[index]\n        );\n\n        return(\n            paymentCheckId,\n            paymentCheckStatus,\n            paymentCheckCheckedAt,\n            paymentCheckCreatedAt,\n            thereIsMore\n        );\n    }\n\n    // Get how many paymentChecks there are for a reference\n    function getPaymentCheckSizeFromReference(\n        string memory referenceId\n    )\n        public\n        view\n        returns (uint size)\n    {\n        _checkReferenceExistence(referenceId);\n\n        return references[referenceId].checks.length;\n    }\n\n    // Get reference if you got the id\n    function getReferenceById(\n        string memory referenceId\n    )\n        public\n        view\n        returns (\n            string memory id,\n            string memory value,\n            uint price\n        )\n    {\n        _checkReferenceExistence(referenceId);\n\n        return(\n            references[referenceId].id,\n            references[referenceId].value,\n            references[referenceId].price\n        );\n    }\n\n    // Get referenceID if you want to iterate through all\n    // the references of a receiver\n    function getReferenceFromReceiver(\n        string memory receiverId,\n        uint index\n    )\n        public\n        view\n        returns (\n            string memory id,\n            string memory value,\n            uint price,\n            bool more\n        )\n    {\n        _checkReceiverExistence(receiverId);\n\n        require(\n            index < receivers[receiverId].references.length,\n            \"Overflowed index\"\n        );\n\n        bool thereIsMore = false;\n\n        if (receivers[receiverId].references.length > index + 1)\n            thereIsMore = true;\n\n        (\n            string memory referenceId,\n            string memory referenceValue,\n            uint referencePrice\n        ) = getReferenceById(\n            receivers[receiverId].references[index]\n        );\n\n        return(\n            referenceId,\n            referenceValue,\n            referencePrice,\n            thereIsMore\n        );\n    }\n\n    // Get references size from receiver\n    function getReferenceSizeFromReceiver(\n        string memory receiverId\n    )\n        public\n        view\n        returns (uint size)\n    {\n        _checkReceiverExistence(receiverId);\n\n        return receivers[receiverId].references.length;\n    }\n\n    // Get receiverID by index\n    function getReceiverId(\n        uint index\n    )\n        public\n        view\n        returns (\n            string memory id,\n            bool more\n        )\n    {\n        require(\n            index < receiversArray.length,\n            \"Overflowed index\"\n        );\n\n        bool thereIsMore = false;\n\n        if (receiversArray.length > index + 1)\n            thereIsMore = true;\n\n        return(\n            receiversArray[index],\n            thereIsMore\n        );\n    }\n\n    function _getReceiver(\n        string memory id\n    )\n        private\n        returns (Receiver storage)\n    {\n        if (bytes(receivers[id].id).length == 0) {\n\n            string[] memory tmpString;\n\n            receivers[id] = Receiver(id, tmpString);\n\n            receiversArray.push(id);\n        }\n\n        return receivers[id];\n    }\n\n    function _getReference(\n        string memory receiverId,\n        string memory referenceId\n    )\n        private\n        returns (Reference storage)\n    {\n        _getReceiver(receiverId);\n\n        if (bytes(references[referenceId].id).length == 0) {\n\n            string[] memory tmpPaymentChecks;\n\n            references[referenceId] = Reference(\n                referenceId,\n                \"\",\n                0,\n                tmpPaymentChecks\n            );\n\n            receivers[receiverId].references.push(referenceId);\n        }\n\n        return references[referenceId];\n    }\n\n    function _checkReferenceExistence(\n        string memory id\n    )\n        private\n        view\n    {\n        require(\n            bytes(references[id].id).length != 0,\n            \"This reference doesn't exist\"\n        );\n    }\n\n    function _checkReceiverExistence(\n        string memory id\n    )\n        private\n        view\n    {\n        require(\n            bytes(receivers[id].id).length != 0,\n            \"This receiver doesn't exist\"\n        );\n    }\n\n    function _checkPaymentCheckFromReferenceExistence(\n        string memory referenceId,\n        uint index\n    )\n        private\n        view\n    {\n        _checkReferenceExistence(referenceId);\n\n        require(\n            bytes(references[referenceId].checks[index]).length != 0,\n            \"This payment check doesn't exist\"\n        );\n    }\n\n    function _checkPaymentCheckExistence(\n        string memory id\n    )\n        private\n        view\n    {\n        require(\n            bytes(paymentChecks[id].id).length != 0,\n            \"This payment check doesn't exist\"\n        );\n    }\n}\n",
  "sourcePath": "/home/administrator/workspace/signaturit-solidity-contracts/contracts/Payment.sol",
  "compiler": {
    "name": "solc",
    "version": "0.5.0+commit.1d4f565a.Emscripten.clang"
  },
  "schemaVersion": "3.0.11",
  "updatedAt": "2019-10-07T13:27:50.861Z",
  "devdoc": {
    "methods": {}
  },
  "userdoc": {
    "methods": {}
  }
}