{
  "contractName": "Signature",
  "abi": [
    {
      "constant": true,
      "inputs": [],
      "name": "userContract",
      "outputs": [
        {
          "name": "",
          "type": "address"
        }
      ],
      "payable": false,
      "stateMutability": "view",
      "type": "function"
    },
    {
      "constant": true,
      "inputs": [],
      "name": "owner",
      "outputs": [
        {
          "name": "",
          "type": "address"
        }
      ],
      "payable": false,
      "stateMutability": "view",
      "type": "function"
    },
    {
      "constant": true,
      "inputs": [],
      "name": "id",
      "outputs": [
        {
          "name": "",
          "type": "string"
        }
      ],
      "payable": false,
      "stateMutability": "view",
      "type": "function"
    },
    {
      "constant": true,
      "inputs": [
        {
          "name": "",
          "type": "uint256"
        }
      ],
      "name": "documentsId",
      "outputs": [
        {
          "name": "",
          "type": "string"
        }
      ],
      "payable": false,
      "stateMutability": "view",
      "type": "function"
    },
    {
      "constant": true,
      "inputs": [],
      "name": "createdAt",
      "outputs": [
        {
          "name": "",
          "type": "int256"
        }
      ],
      "payable": false,
      "stateMutability": "view",
      "type": "function"
    },
    {
      "constant": true,
      "inputs": [],
      "name": "deployer",
      "outputs": [
        {
          "name": "",
          "type": "address"
        }
      ],
      "payable": false,
      "stateMutability": "view",
      "type": "function"
    },
    {
      "constant": true,
      "inputs": [],
      "name": "signaturit",
      "outputs": [
        {
          "name": "",
          "type": "address"
        }
      ],
      "payable": false,
      "stateMutability": "view",
      "type": "function"
    },
    {
      "inputs": [
        {
          "name": "signatureId",
          "type": "string"
        },
        {
          "name": "deployerAddress",
          "type": "address"
        },
        {
          "name": "signatureCreatedAt",
          "type": "int256"
        },
        {
          "name": "signatureOwner",
          "type": "address"
        },
        {
          "name": "userSmartContractAddress",
          "type": "address"
        }
      ],
      "payable": false,
      "stateMutability": "nonpayable",
      "type": "constructor"
    },
    {
      "constant": false,
      "inputs": [
        {
          "name": "attribute",
          "type": "string"
        },
        {
          "name": "adr",
          "type": "address"
        }
      ],
      "name": "notify",
      "outputs": [],
      "payable": false,
      "stateMutability": "nonpayable",
      "type": "function"
    },
    {
      "constant": false,
      "inputs": [],
      "name": "notifyCreation",
      "outputs": [],
      "payable": false,
      "stateMutability": "nonpayable",
      "type": "function"
    },
    {
      "constant": false,
      "inputs": [
        {
          "name": "documentId",
          "type": "string"
        },
        {
          "name": "signatureType",
          "type": "string"
        },
        {
          "name": "documentCreatedAt",
          "type": "uint256"
        }
      ],
      "name": "createDocument",
      "outputs": [],
      "payable": false,
      "stateMutability": "nonpayable",
      "type": "function"
    },
    {
      "constant": false,
      "inputs": [
        {
          "name": "documentId",
          "type": "string"
        },
        {
          "name": "documentOwner",
          "type": "address"
        }
      ],
      "name": "setDocumentOwner",
      "outputs": [],
      "payable": false,
      "stateMutability": "nonpayable",
      "type": "function"
    },
    {
      "constant": false,
      "inputs": [
        {
          "name": "documentId",
          "type": "string"
        },
        {
          "name": "signedFileHash",
          "type": "string"
        }
      ],
      "name": "setSignedFileHash",
      "outputs": [],
      "payable": false,
      "stateMutability": "nonpayable",
      "type": "function"
    },
    {
      "constant": false,
      "inputs": [
        {
          "name": "documentId",
          "type": "string"
        },
        {
          "name": "cancelReason",
          "type": "string"
        }
      ],
      "name": "cancelDocument",
      "outputs": [],
      "payable": false,
      "stateMutability": "nonpayable",
      "type": "function"
    },
    {
      "constant": false,
      "inputs": [
        {
          "name": "documentId",
          "type": "string"
        },
        {
          "name": "fileId",
          "type": "string"
        },
        {
          "name": "fileName",
          "type": "string"
        },
        {
          "name": "fileHash",
          "type": "string"
        },
        {
          "name": "fileCreatedAt",
          "type": "uint256"
        },
        {
          "name": "fileSize",
          "type": "uint256"
        }
      ],
      "name": "createFile",
      "outputs": [],
      "payable": false,
      "stateMutability": "nonpayable",
      "type": "function"
    },
    {
      "constant": false,
      "inputs": [
        {
          "name": "documentId",
          "type": "string"
        },
        {
          "name": "eventId",
          "type": "string"
        },
        {
          "name": "eventType",
          "type": "string"
        },
        {
          "name": "eventUserAgent",
          "type": "string"
        },
        {
          "name": "eventCreatedAt",
          "type": "uint256"
        }
      ],
      "name": "createEvent",
      "outputs": [],
      "payable": false,
      "stateMutability": "nonpayable",
      "type": "function"
    },
    {
      "constant": true,
      "inputs": [
        {
          "name": "clauseType",
          "type": "string"
        }
      ],
      "name": "getClause",
      "outputs": [
        {
          "name": "clauseAddress",
          "type": "address"
        }
      ],
      "payable": false,
      "stateMutability": "view",
      "type": "function"
    },
    {
      "constant": true,
      "inputs": [
        {
          "name": "documentId",
          "type": "string"
        }
      ],
      "name": "getDocument",
      "outputs": [
        {
          "name": "",
          "type": "address"
        }
      ],
      "payable": false,
      "stateMutability": "view",
      "type": "function"
    },
    {
      "constant": true,
      "inputs": [],
      "name": "getDocumentsSize",
      "outputs": [
        {
          "name": "",
          "type": "uint256"
        }
      ],
      "payable": false,
      "stateMutability": "view",
      "type": "function"
    },
    {
      "constant": true,
      "inputs": [
        {
          "name": "documentId",
          "type": "string"
        }
      ],
      "name": "getFile",
      "outputs": [
        {
          "name": "",
          "type": "address"
        }
      ],
      "payable": false,
      "stateMutability": "view",
      "type": "function"
    },
    {
      "constant": true,
      "inputs": [
        {
          "name": "documentId",
          "type": "string"
        },
        {
          "name": "eventId",
          "type": "string"
        }
      ],
      "name": "getEvent",
      "outputs": [
        {
          "name": "",
          "type": "address"
        }
      ],
      "payable": false,
      "stateMutability": "view",
      "type": "function"
    },
    {
      "constant": false,
      "inputs": [
        {
          "name": "notifiersKey",
          "type": "string"
        },
        {
          "name": "createdEvent",
          "type": "string"
        },
        {
          "name": "adrToNotify",
          "type": "address"
        }
      ],
      "name": "notifyEntityEvent",
      "outputs": [],
      "payable": false,
      "stateMutability": "nonpayable",
      "type": "function"
    }
  ],
  "bytecode": "0x60806040523480156200001157600080fd5b5060405162002da338038062002da3833981018060405260a08110156200003757600080fd5b8101908080516401000000008111156200005057600080fd5b820160208101848111156200006457600080fd5b81516401000000008111828201871017156200007f57600080fd5b5050602082810151604084015160608501516080909501516009805433600160a060020a031991821617909155600a80548216600160a060020a0380871691909117909155600b80548316828a1617905560118054909216908316179055845194975091955093929091620000fa91600c9188019062000109565b505050600e5550620001ae9050565b828054600181600116156101000203166002900490600052602060002090601f016020900481019282601f106200014c57805160ff19168380011785556200017c565b828001600101855582156200017c579182015b828111156200017c5782518255916020019190600101906200015f565b506200018a9291506200018e565b5090565b620001ab91905b808211156200018a576000815560010162000195565b90565b612be580620001be6000396000f3fe6080604052600436106101035763ffffffff60e060020a60003504166341e4422f811461010857806345608dd11461024257806346c3cf9c146103785780635000596b1461043457806354715390146104655780637ccb6a64146106aa5780638da5cb5b1461075b57806393fa656e146107705780639d79916c14610797578063a3474265146108cd578063af640d0f1461097e578063bdcf5b8e14610a08578063c918ef3814610c4a578063c97782c314610d80578063cf09e0d014610daa578063d5f3948814610dbf578063dbe13ef214610dd4578063e0876aa814610f15578063e2b4cf4c14610fc6578063e71e657614610fdb578063f9b5333514611097575b600080fd5b34801561011457600080fd5b506102406004803603606081101561012b57600080fd5b810190602081018135602060020a81111561014557600080fd5b82018360208201111561015757600080fd5b803590602001918460018302840111602060020a8311171561017857600080fd5b91908080601f0160208091040260200160405190810160405280939291908181526020018383808284376000920191909152509295949360208101935035915050602060020a8111156101ca57600080fd5b8201836020820111156101dc57600080fd5b803590602001918460018302840111602060020a831117156101fd57600080fd5b91908080601f01602080910402602001604051908101604052809392919081815260200183838082843760009201919091525092955050913592506110ac915050565b005b34801561024e57600080fd5b506102406004803603604081101561026557600080fd5b810190602081018135602060020a81111561027f57600080fd5b82018360208201111561029157600080fd5b803590602001918460018302840111602060020a831117156102b257600080fd5b91908080601f0160208091040260200160405190810160405280939291908181526020018383808284376000920191909152509295949360208101935035915050602060020a81111561030457600080fd5b82018360208201111561031657600080fd5b803590602001918460018302840111602060020a8311171561033757600080fd5b91908080601f0160208091040260200160405190810160405280939291908181526020018383808284376000920191909152509295506112a2945050505050565b34801561038457600080fd5b506102406004803603604081101561039b57600080fd5b810190602081018135602060020a8111156103b557600080fd5b8201836020820111156103c757600080fd5b803590602001918460018302840111602060020a831117156103e857600080fd5b91908080601f01602080910402602001604051908101604052809392919081815260200183838082843760009201919091525092955050509035600160a060020a031691506113f49050565b34801561044057600080fd5b506104496114c0565b60408051600160a060020a039092168252519081900360200190f35b34801561047157600080fd5b50610240600480360360c081101561048857600080fd5b810190602081018135602060020a8111156104a257600080fd5b8201836020820111156104b457600080fd5b803590602001918460018302840111602060020a831117156104d557600080fd5b91908080601f0160208091040260200160405190810160405280939291908181526020018383808284376000920191909152509295949360208101935035915050602060020a81111561052757600080fd5b82018360208201111561053957600080fd5b803590602001918460018302840111602060020a8311171561055a57600080fd5b91908080601f0160208091040260200160405190810160405280939291908181526020018383808284376000920191909152509295949360208101935035915050602060020a8111156105ac57600080fd5b8201836020820111156105be57600080fd5b803590602001918460018302840111602060020a831117156105df57600080fd5b91908080601f0160208091040260200160405190810160405280939291908181526020018383808284376000920191909152509295949360208101935035915050602060020a81111561063157600080fd5b82018360208201111561064357600080fd5b803590602001918460018302840111602060020a8311171561066457600080fd5b91908080601f01602080910402602001604051908101604052809392919081815260200183838082843760009201919091525092955050823593505050602001356114cf565b3480156106b657600080fd5b50610449600480360360208110156106cd57600080fd5b810190602081018135602060020a8111156106e757600080fd5b8201836020820111156106f957600080fd5b803590602001918460018302840111602060020a8311171561071a57600080fd5b91908080601f016020809104026020016040519081016040528093929190818152602001838380828437600092019190915250929550611830945050505050565b34801561076757600080fd5b506104496118ba565b34801561077c57600080fd5b506107856118c9565b60408051918252519081900360200190f35b3480156107a357600080fd5b50610240600480360360408110156107ba57600080fd5b810190602081018135602060020a8111156107d457600080fd5b8201836020820111156107e657600080fd5b803590602001918460018302840111602060020a8311171561080757600080fd5b91908080601f0160208091040260200160405190810160405280939291908181526020018383808284376000920191909152509295949360208101935035915050602060020a81111561085957600080fd5b82018360208201111561086b57600080fd5b803590602001918460018302840111602060020a8311171561088c57600080fd5b91908080601f0160208091040260200160405190810160405280939291908181526020018383808284376000920191909152509295506118d0945050505050565b3480156108d957600080fd5b50610449600480360360208110156108f057600080fd5b810190602081018135602060020a81111561090a57600080fd5b82018360208201111561091c57600080fd5b803590602001918460018302840111602060020a8311171561093d57600080fd5b91908080601f0160208091040260200160405190810160405280939291908181526020018383808284376000920191909152509295506119a0945050505050565b34801561098a57600080fd5b506109936119d3565b6040805160208082528351818301528351919283929083019185019080838360005b838110156109cd5781810151838201526020016109b5565b50505050905090810190601f1680156109fa5780820380516001836020036101000a031916815260200191505b509250505060405180910390f35b348015610a1457600080fd5b50610240600480360360a0811015610a2b57600080fd5b810190602081018135602060020a811115610a4557600080fd5b820183602082011115610a5757600080fd5b803590602001918460018302840111602060020a83111715610a7857600080fd5b91908080601f0160208091040260200160405190810160405280939291908181526020018383808284376000920191909152509295949360208101935035915050602060020a811115610aca57600080fd5b820183602082011115610adc57600080fd5b803590602001918460018302840111602060020a83111715610afd57600080fd5b91908080601f0160208091040260200160405190810160405280939291908181526020018383808284376000920191909152509295949360208101935035915050602060020a811115610b4f57600080fd5b820183602082011115610b6157600080fd5b803590602001918460018302840111602060020a83111715610b8257600080fd5b91908080601f0160208091040260200160405190810160405280939291908181526020018383808284376000920191909152509295949360208101935035915050602060020a811115610bd457600080fd5b820183602082011115610be657600080fd5b803590602001918460018302840111602060020a83111715610c0757600080fd5b91908080601f0160208091040260200160405190810160405280939291908181526020018383808284376000920191909152509295505091359250611a61915050565b348015610c5657600080fd5b5061044960048036036040811015610c6d57600080fd5b810190602081018135602060020a811115610c8757600080fd5b820183602082011115610c9957600080fd5b803590602001918460018302840111602060020a83111715610cba57600080fd5b91908080601f0160208091040260200160405190810160405280939291908181526020018383808284376000920191909152509295949360208101935035915050602060020a811115610d0c57600080fd5b820183602082011115610d1e57600080fd5b803590602001918460018302840111602060020a83111715610d3f57600080fd5b91908080601f016020809104026020016040519081016040528093929190818152602001838380828437600092019190915250929550611e24945050505050565b348015610d8c57600080fd5b5061099360048036036020811015610da357600080fd5b5035611f97565b348015610db657600080fd5b5061078561200b565b348015610dcb57600080fd5b50610449612011565b348015610de057600080fd5b5061024060048036036060811015610df757600080fd5b810190602081018135602060020a811115610e1157600080fd5b820183602082011115610e2357600080fd5b803590602001918460018302840111602060020a83111715610e4457600080fd5b91908080601f0160208091040260200160405190810160405280939291908181526020018383808284376000920191909152509295949360208101935035915050602060020a811115610e9657600080fd5b820183602082011115610ea857600080fd5b803590602001918460018302840111602060020a83111715610ec957600080fd5b91908080601f01602080910402602001604051908101604052809392919081815260200183838082843760009201919091525092955050509035600160a060020a031691506120209050565b348015610f2157600080fd5b5061044960048036036020811015610f3857600080fd5b810190602081018135602060020a811115610f5257600080fd5b820183602082011115610f6457600080fd5b803590602001918460018302840111602060020a83111715610f8557600080fd5b91908080601f0160208091040260200160405190810160405280939291908181526020018383808284376000920191909152509295506122e0945050505050565b348015610fd257600080fd5b506102406123e0565b348015610fe757600080fd5b5061024060048036036040811015610ffe57600080fd5b810190602081018135602060020a81111561101857600080fd5b82018360208201111561102a57600080fd5b803590602001918460018302840111602060020a8311171561104b57600080fd5b91908080601f01602080910402602001604051908101604052809392919081815260200183838082843760009201919091525092955050509035600160a060020a031691506124b49050565b3480156110a357600080fd5b50610449612698565b600954600160a060020a03163214611110576040805160e560020a62461bcd02815260206004820152602f6024820152600080516020612b9a8339815191526044820152600080516020612b7a833981519152606482015290519081900360840190fd5b600061111b846126a7565b6040805160e060020a6238a5b50281526024810185905260048101918252855160448201528551929350600160a060020a038416926238a5b59287928792829160640190602086019080838360005b8381101561118257818101518382015260200161116a565b50505050905090810190601f1680156111af5780820380516001836020036101000a031916815260200191505b509350505050600060405180830381600087803b1580156111cf57600080fd5b505af11580156111e3573d6000803e3d6000fd5b5050600d805460018101808355600092909252875191935061122d92507fd7b6990105719101dabeb77144f2a3385c8033acd3af97e9423a695e81ad1eb501906020880190612ae1565b505061129c604080519081016040528060128152602001607060020a71646f63756d656e742d6e6f74696669657273028152506040805190810160405280601981526020017f646f63756d656e742e636f6e74726163742e637265617465640000000000000081525083612020565b50505050565b600b54600160a060020a0316331461131e576040805160e560020a62461bcd02815260206004820152602e60248201527f4f6e6c7920746865206f776e6572206163636f756e742063616e20706572666f6044820152609160020a6d3936903a3434b99030b1ba34b7b702606482015290519081900360840190fd5b6000611329836126a7565b60405160e060020a630b4f3f3d028152602060048201818152855160248401528551939450600160a060020a03851693630b4f3f3d93879383926044909201919085019080838360005b8381101561138b578181015183820152602001611373565b50505050905090810190601f1680156113b85780820380516001836020036101000a031916815260200191505b5092505050600060405180830381600087803b1580156113d757600080fd5b505af11580156113eb573d6000803e3d6000fd5b50505050505050565b600954600160a060020a03163214611458576040805160e560020a62461bcd02815260206004820152602f6024820152600080516020612b9a8339815191526044820152600080516020612b7a833981519152606482015290519081900360840190fd5b6000611463836126a7565b905080600160a060020a03166313af4035836040518263ffffffff1660e060020a0281526004018082600160a060020a0316600160a060020a03168152602001915050600060405180830381600087803b1580156113d757600080fd5b601154600160a060020a031681565b600954600160a060020a03163214611533576040805160e560020a62461bcd02815260206004820152602f6024820152600080516020612b9a8339815191526044820152600080516020612b7a833981519152606482015290519081900360840190fd5b600061153e876126a7565b905080600160a060020a0316636bee1e1b87878787876040518663ffffffff1660e060020a02815260040180806020018060200180602001868152602001858152602001848103845289818151815260200191508051906020019080838360005b838110156115b757818101518382015260200161159f565b50505050905090810190601f1680156115e45780820380516001836020036101000a031916815260200191505b5084810383528851815288516020918201918a019080838360005b838110156116175781810151838201526020016115ff565b50505050905090810190601f1680156116445780820380516001836020036101000a031916815260200191505b50848103825287518152875160209182019189019080838360005b8381101561167757818101518382015260200161165f565b50505050905090810190601f1680156116a45780820380516001836020036101000a031916815260200191505b5098505050505050505050600060405180830381600087803b1580156116c957600080fd5b505af11580156116dd573d6000803e3d6000fd5b50505050600081600160a060020a0316638525855d6040518163ffffffff1660e060020a02815260040160206040518083038186803b15801561171f57600080fd5b505afa158015611733573d6000803e3d6000fd5b505050506040513d602081101561174957600080fd5b50519050600160a060020a03811615156117c2576040805160e560020a62461bcd02815260206004820152602960248201527f4572726f72207768696c652072657472696576696e672066696c652066726f6d604482015260ba60020a6808191bd8dd5b595b9d02606482015290519081900360840190fd5b6118266040805190810160405280600e8152602001609060020a6d66696c652d6e6f7469666965727302815250604080519081016040528060158152602001605a60020a74199a5b194b98dbdb9d1c9858dd0b98dc99585d19590281525083612020565b5050505050505050565b600061183b826129c8565b1515611849575060006118b5565b600f826040518082805190602001908083835b6020831061187b5780518252601f19909201916020918201910161185c565b51815160209384036101000a6000190180199092169116179052920194855250604051938490030190922054600160a060020a0316925050505b919050565b600b54600160a060020a031681565b600d545b90565b600954600160a060020a03163214611934576040805160e560020a62461bcd02815260206004820152602f6024820152600080516020612b9a8339815191526044820152600080516020612b7a833981519152606482015290519081900360840190fd5b600061193f836126a7565b60405160e660020a6302abdb1d028152602060048201818152855160248401528551939450600160a060020a0385169363aaf6c74093879383926044909201919085019080838360008381101561138b578181015183820152602001611373565b60006010826040518082805190602001908083836020831061187b5780518252601f19909201916020918201910161185c565b600c805460408051602060026001851615610100026000190190941693909304601f81018490048402820184019092528181529291830182828015611a595780601f10611a2e57610100808354040283529160200191611a59565b820191906000526020600020905b815481529060010190602001808311611a3c57829003601f168201915b505050505081565b600954600160a060020a03163214611ac5576040805160e560020a62461bcd02815260206004820152602f6024820152600080516020612b9a8339815191526044820152600080516020612b7a833981519152606482015290519081900360840190fd5b6000611ad0866126a7565b905080600160a060020a031663de4cd842868686866040518563ffffffff1660e060020a02815260040180806020018060200180602001858152602001848103845288818151815260200191508051906020019080838360005b83811015611b42578181015183820152602001611b2a565b50505050905090810190601f168015611b6f5780820380516001836020036101000a031916815260200191505b50848103835287518152875160209182019189019080838360005b83811015611ba2578181015183820152602001611b8a565b50505050905090810190601f168015611bcf5780820380516001836020036101000a031916815260200191505b50848103825286518152865160209182019188019080838360005b83811015611c02578181015183820152602001611bea565b50505050905090810190601f168015611c2f5780820380516001836020036101000a031916815260200191505b50975050505050505050600060405180830381600087803b158015611c5357600080fd5b505af1158015611c67573d6000803e3d6000fd5b505060405160e060020a63e190206302815260206004820181815289516024840152895160009550600160a060020a038716945063e1902063938b938392604490920191908501908083838b5b83811015611ccc578181015183820152602001611cb4565b50505050905090810190601f168015611cf95780820380516001836020036101000a031916815260200191505b509250505060206040518083038186803b158015611d1657600080fd5b505afa158015611d2a573d6000803e3d6000fd5b505050506040513d6020811015611d4057600080fd5b50519050600160a060020a0381161515611dba576040805160e560020a62461bcd02815260206004820152602a60248201527f4572726f72207768696c652072657472696576696e67206576656e742066726f604482015260b260020a691b48191bd8dd5b595b9d02606482015290519081900360840190fd5b6113eb6040805190810160405280600f8152602001608860020a6e6576656e742d6e6f74696669657273028152506040805190810160405280601681526020017f6576656e742e636f6e74726163742e637265617465640000000000000000000081525083612020565b6000611e2f836129c8565b1515611e3d57506000611f91565b6000600f846040518082805190602001908083835b60208310611e715780518252601f199092019160209182019101611e52565b51815160209384036101000a600019018019909216911617905292019485525060405193849003810184205460e060020a63e190206302855260048501828152885160248701528851600160a060020a039092169563e19020639550899450909283926044909201919085019080838360005b83811015611efc578181015183820152602001611ee4565b50505050905090810190601f168015611f295780820380516001836020036101000a031916815260200191505b509250505060206040518083038186803b158015611f4657600080fd5b505afa158015611f5a573d6000803e3d6000fd5b505050506040513d6020811015611f7057600080fd5b50519050600160a060020a0381161515611f8e576000915050611f91565b90505b92915050565b600d805482908110611fa557fe5b600091825260209182902001805460408051601f6002600019610100600187161502019094169390930492830185900485028101850190915281815293509091830182828015611a595780601f10611a2e57610100808354040283529160200191611a59565b600e5481565b600a54600160a060020a031681565b600954600160a060020a03163214612084576040805160e560020a62461bcd02815260206004820152602f6024820152600080516020612b9a8339815191526044820152600080516020612b7a833981519152606482015290519081900360840190fd5b6000805b6011546040805160e260020a633ce8989d0281526024810184905260048101918252875160448201528751600160a060020a039093169263f3a262749289928692829160640190602086019080838360005b838110156120f25781810151838201526020016120da565b50505050905090810190601f16801561211f5780820380516001836020036101000a031916815260200191505b50935050505060206040518083038186803b15801561213d57600080fd5b505afa158015612151573d6000803e3d6000fd5b505050506040513d602081101561216757600080fd5b50519150600101600160a060020a038216156122c95760408051600160a060020a038581166044830152602482019283528651606483015286519085169287928792829160840190602086019080838360005b838110156121d25781810151838201526020016121ba565b50505050905090810190601f1680156121ff5780820380516001836020036101000a031916815260200191505b5060408051601f19818403018152918152602082018051600160e060020a031660e160020a63738f32bb0217815290518251929650945084935091508083835b6020831061225e5780518252601f19909201916020918201910161223f565b6001836020036101000a0380198251168184511680821785525050505050509050019150506000604051808303816000865af19150503d80600081146122c0576040519150601f19603f3d011682016040523d82523d6000602084013e6122c5565b606091505b5050505b600160a060020a0382161515612088575050505050565b60006122eb826129c8565b15156122f9575060006118b5565b6000600f836040518082805190602001908083835b6020831061232d5780518252601f19909201916020918201910161230e565b51815160209384036101000a60001901801990921691161790529201948552506040805194859003820185205460e060020a638525855d0286529051600160a060020a0390911694638525855d94506004808201945090829003018186803b15801561239857600080fd5b505afa1580156123ac573d6000803e3d6000fd5b505050506040513d60208110156123c257600080fd5b50519050600160a060020a0381161515611f915760009150506118b5565b600954600160a060020a03163214612444576040805160e560020a62461bcd02815260206004820152602f6024820152600080516020612b9a8339815191526044820152600080516020612b7a833981519152606482015290519081900360840190fd5b6124b2604080519081016040528060138152602001606860020a727369676e61747572652d6e6f74696669657273028152506040805190810160405280601a81526020017f7369676e61747572652e636f6e74726163742e6372656174656400000000000081525030612020565b565b600954600160a060020a03163214612518576040805160e560020a62461bcd02815260206004820152602f6024820152600080516020612b9a8339815191526044820152600080516020612b7a833981519152606482015290519081900360840190fd5b61254360408051908101604052806007815260200160ca60020a661c185e5b595b9d02815250612a48565b61254c83612a48565b14156125d757806010836040518082805190602001908083835b602083106125855780518252601f199092019160209182019101612566565b51815160209384036101000a600019018019909216911617905292019485525060405193849003019092208054600160a060020a031916600160a060020a039490941693909317909255506126949050565b6126056040805190810160405280600a815260200160b160020a693a34b6b2b637b3b3b2b902815250612a48565b61260e83612a48565b141561269457806010836040518082805190602001908083835b602083106126475780518252601f199092019160209182019101612628565b51815160209384036101000a600019018019909216911617905292019485525060405193849003019092208054600160a060020a031916600160a060020a03949094169390931790925550505b5050565b600954600160a060020a031681565b60006126b2826129c8565b1561272857600f826040518082805190602001908083835b602083106126e95780518252601f1990920191602091820191016126ca565b51815160209384036101000a6000190180199092169116179052920194855250604051938490030190922054600160a060020a031692506118b5915050565b600a5460408051600160a060020a03909216604483018190526024830191825284516064840152845160009360609387928492829160849091019060208601908083838c5b8381101561278557818101518382015260200161276d565b50505050905090810190601f1680156127b25780820380516001836020036101000a031916815260200191505b5060408051601f19818403018152918152602082018051600160e060020a031660e260020a63226ddea10217815290518251929650945084935091508083835b602083106128115780518252601f1990920191602091820191016127f2565b6001836020036101000a038019825116818451168082178552505050505050905001915050600060405180830381855af49150503d8060008114612871576040519150601f19603f3d011682016040523d82523d6000602084013e612876565b606091505b50915091508115156128d2576040805160e560020a62461bcd02815260206004820152601e60248201527f4572726f72207768696c65206465706c6f79696e6720646f63756d656e740000604482015290519081900360640190fd5b6128db81612ada565b600f856040518082805190602001908083835b6020831061290d5780518252601f1990920191602091820191016128ee565b51815160209384036101000a600019018019909216911617905292019485525060405193849003810184208054600160a060020a031916600160a060020a03969096169590951790945550508551600f9287929182918401908083835b602083106129895780518252601f19909201916020918201910161296a565b51815160209384036101000a6000190180199092169116179052920194855250604051938490030190922054600160a060020a03169695505050505050565b600080600160a060020a0316600f836040518082805190602001908083835b60208310612a065780518252601f1990920191602091820191016129e7565b51815160209384036101000a6000190180199092169116179052920194855250604051938490030190922054600160a060020a03169290921415949350505050565b6000816040516020018080602001828103825283818151815260200191508051906020019080838360005b83811015612a8b578181015183820152602001612a73565b50505050905090810190601f168015612ab85780820380516001836020036101000a031916815260200191505b5092505050604051602081830303815290604052805190602001209050919050565b6020015190565b828054600181600116156101000203166002900490600052602060002090601f016020900481019282601f10612b2257805160ff1916838001178555612b4f565b82800160010185558215612b4f579182015b82811115612b4f578251825591602001919060010190612b34565b50612b5b929150612b5f565b5090565b6118cd91905b80821115612b5b5760008155600101612b6556fe6f726d207468697320616374696f6e00000000000000000000000000000000004f6e6c79205369676e617475726974206163636f756e742063616e2070657266a165627a7a7230582042ce6e03647c867f02bb5302fc7192c026a6670590ef5053c77eb2ccd2908b510029",
  "source": "pragma solidity <0.6.0;\n\n/*\nGas to deploy: 2.882.648\n*/\n\nimport \"./interfaces/SignatureInterface.sol\";\nimport \"./interfaces/NotifierInterface.sol\";\nimport \"./interfaces/DocumentInterface.sol\";\nimport \"./interfaces/UserInterface.sol\";\nimport \"./interfaces/FileInterface.sol\";\nimport \"./interfaces/EventInterface.sol\";\nimport \"./interfaces/SignaturitUserInterface.sol\";\nimport \"./libraries/Utils.sol\";\n\n\ncontract Signature is SignatureInterface, NotifierInterface {\n    string constant private SIGNATURE_CREATED_EVENT = \"signature.contract.created\";\n    string constant private DOCUMENT_CREATED_EVENT = \"document.contract.created\";\n    string constant private FILE_CREATED_EVENT = \"file.contract.created\";\n    string constant private EVENT_CREATED_EVENT = \"event.contract.created\";\n\n    string constant private SIGNATURE_NOTIFIERS_KEY = \"signature-notifiers\";\n    string constant private DOCUMENT_NOTIFIERS_KEY = \"document-notifiers\";\n    string constant private FILE_NOTIFIERS_KEY = \"file-notifiers\";\n    string constant private EVENT_NOTIFIERS_KEY = \"event-notifiers\";\n\n    address public signaturit;\n    address public deployer;\n    address public owner;\n\n    string public id;\n\n    string[] public documentsId;\n\n    int public createdAt;\n\n    mapping(string => DocumentInterface) private documents;\n\n    mapping(string => address) private clauses;\n\n    SignaturitUserInterface public userContract;\n\n    constructor(\n        string memory signatureId,\n        address deployerAddress,\n        int signatureCreatedAt,\n        address signatureOwner,\n        address userSmartContractAddress\n    ) public {\n        signaturit = msg.sender;\n        deployer = deployerAddress;\n\n        owner = signatureOwner;\n        userContract = SignaturitUserInterface(userSmartContractAddress);\n\n        id = signatureId;\n        createdAt = signatureCreatedAt;\n    }\n\n    modifier signaturitOnly() {\n        require(\n            tx.origin == signaturit,\n            \"Only Signaturit account can perform this action\"\n        );\n\n        _;\n    }\n\n    modifier ownerOnly() {\n        require(\n            msg.sender == owner,\n            \"Only the owner account can perform this action\"\n        );\n\n        _;\n    }\n\n    function notify(\n        string memory attribute,\n        address adr\n    )\n        public\n        signaturitOnly\n    {\n        if (Utils.keccak(attribute) == Utils.keccak(\"payment\")) clauses[attribute] = adr;\n        else if (Utils.keccak(attribute) == Utils.keccak(\"timelogger\")) clauses[attribute] = adr;\n    }\n\n    function notifyCreation()\n        public\n        signaturitOnly\n    {\n        notifyEntityEvent(SIGNATURE_NOTIFIERS_KEY, SIGNATURE_CREATED_EVENT, address(this));\n    }\n\n    function createDocument(\n        string memory documentId,\n        string memory signatureType,\n        uint documentCreatedAt\n    )\n        public\n        signaturitOnly\n    {\n        DocumentInterface document = _getDocument(documentId);\n\n        document.init(signatureType, documentCreatedAt);\n\n        documentsId.push(documentId);\n\n        notifyEntityEvent(DOCUMENT_NOTIFIERS_KEY, DOCUMENT_CREATED_EVENT, address(document));\n    }\n\n    function setDocumentOwner (\n        string memory documentId,\n        address documentOwner\n    )\n        public\n        signaturitOnly\n    {\n        DocumentInterface document = _getDocument(documentId);\n\n        document.setOwner(documentOwner);\n    }\n\n    function setSignedFileHash (\n        string memory documentId,\n        string memory signedFileHash\n    )\n        public \n        signaturitOnly\n    {\n        DocumentInterface document = _getDocument(documentId);\n\n        document.setFileHash(signedFileHash);\n    }\n\n    function cancelDocument (\n        string memory documentId,\n        string memory cancelReason\n    )\n        public\n        ownerOnly\n    {\n        DocumentInterface document = _getDocument(documentId);\n\n        document.cancel(cancelReason);\n    }\n\n    function createFile(\n        string memory documentId,\n        string memory fileId,\n        string memory fileName,\n        string memory fileHash,\n        uint fileCreatedAt,\n        uint fileSize\n    )\n        public\n        signaturitOnly\n    {\n        DocumentInterface document = _getDocument(documentId);\n\n        document.\n            createFile(\n            fileId,\n            fileName,\n            fileHash,\n            fileCreatedAt,\n            fileSize\n        );\n\n        FileInterface signatureFile = document.file();\n        require(\n            address(signatureFile) != address(0),\n            \"Error while retrieving file from document\"\n        );\n\n        notifyEntityEvent(FILE_NOTIFIERS_KEY, FILE_CREATED_EVENT, address(signatureFile));\n    }\n\n    function createEvent(\n        string memory documentId,\n        string memory eventId,\n        string memory eventType,\n        string memory eventUserAgent,\n        uint eventCreatedAt\n    )\n        public\n        signaturitOnly\n    {\n        DocumentInterface document = _getDocument(documentId);\n\n        document.createEvent(\n            eventId,\n            eventType,\n            eventUserAgent,\n            eventCreatedAt\n        );\n\n        EventInterface signatureEvent = document.getEvent(eventId);\n\n        require(\n            address(signatureEvent) != address(0),\n            \"Error while retrieving event from document\"\n        );\n\n        notifyEntityEvent(EVENT_NOTIFIERS_KEY, EVENT_CREATED_EVENT, address(signatureEvent));\n    }\n\n    function getClause(\n        string memory clauseType\n    )\n        public\n        view\n        returns (address clauseAddress)\n    {\n        return clauses[clauseType];\n    }\n\n    function getDocument(\n        string memory documentId\n    )\n        public\n        view\n        returns (address)\n    {\n        if (!_documentExist(documentId)) return address(0);\n\n        return address(documents[documentId]);\n    }\n\n    function getDocumentsSize()\n        public\n        view\n        returns (uint)\n    {\n        return documentsId.length;\n    }\n\n    function getFile(\n        string memory documentId\n    )\n        public\n        view\n        returns (address)\n    {\n        if (!_documentExist(documentId)) return address(0);\n\n        FileInterface signatureFile = documents[documentId].file();\n\n        if (address(signatureFile) == address(0)) return address(0);\n\n        return address(signatureFile);\n    }\n\n    function getEvent(\n        string memory documentId,\n        string memory eventId\n    )\n        public\n        view\n        returns (address)\n    {\n        if (!_documentExist(documentId)) return address(0);\n\n        EventInterface signatureEvent = documents[documentId].getEvent(\n            eventId\n        );\n\n        if (address(signatureEvent) == address(0)) return address(0);\n\n        return address(signatureEvent);\n    }\n\n    function notifyEntityEvent (\n        string memory notifiersKey,\n        string memory createdEvent,\n        address adrToNotify\n    )\n        public\n        signaturitOnly\n    {\n        address contractToNofify;\n        uint notificationIndex = 0;\n\n        do {\n            contractToNofify = userContract.getAddressArrayAttribute(notifiersKey, notificationIndex);\n            ++notificationIndex;\n\n            if (contractToNofify != address(0)) {\n                contractToNofify.call(\n                    abi.encodeWithSignature(\n                        \"notify(string,address)\",\n                        createdEvent,\n                        adrToNotify\n                    )\n                );\n            }\n        } while (contractToNofify != address(0));\n    }\n\n    function _getDocument(\n        string memory documentId\n    )\n        private\n        returns (DocumentInterface)\n    {\n        if (_documentExist(documentId))\n            return documents[documentId];\n\n        (\n            bool success,\n            bytes memory returnData\n        ) = deployer.delegatecall(\n            abi.encodeWithSignature(\"deployDocument(string,address)\",\n            documentId,\n            deployer)\n        );\n\n        require(\n            success,\n            \"Error while deploying document\"\n        );\n\n        documents[documentId] = DocumentInterface(\n            Utils._bytesToAddress(returnData)\n        );\n\n        return documents[documentId];\n    }\n\n    function _documentExist(\n        string memory documentId\n    )\n        private\n        view\n        returns (bool)\n    {\n        return address(documents[documentId]) != address(0);\n    }\n}\n",
  "sourcePath": "/home/administrator/workspace/signaturit-solidity-contracts/contracts/Signature.sol",
  "compiler": {
    "name": "solc",
    "version": "0.5.0+commit.1d4f565a.Emscripten.clang"
  },
  "schemaVersion": "3.0.11",
  "updatedAt": "2019-10-07T12:01:23.917Z",
  "devdoc": {
    "methods": {}
  },
  "userdoc": {
    "methods": {}
  }
}