{
  "contractName": "Signature",
  "abi": [
    {
      "constant": true,
      "inputs": [],
      "name": "owner",
      "outputs": [
        {
          "internalType": "address",
          "name": "",
          "type": "address"
        }
      ],
      "payable": false,
      "stateMutability": "view",
      "type": "function"
    },
    {
      "constant": true,
      "inputs": [],
      "name": "id",
      "outputs": [
        {
          "internalType": "string",
          "name": "",
          "type": "string"
        }
      ],
      "payable": false,
      "stateMutability": "view",
      "type": "function"
    },
    {
      "constant": true,
      "inputs": [],
      "name": "userSmartContract",
      "outputs": [
        {
          "internalType": "contract UserInterface",
          "name": "",
          "type": "address"
        }
      ],
      "payable": false,
      "stateMutability": "view",
      "type": "function"
    },
    {
      "constant": true,
      "inputs": [
        {
          "internalType": "uint256",
          "name": "",
          "type": "uint256"
        }
      ],
      "name": "documentsId",
      "outputs": [
        {
          "internalType": "string",
          "name": "",
          "type": "string"
        }
      ],
      "payable": false,
      "stateMutability": "view",
      "type": "function"
    },
    {
      "constant": true,
      "inputs": [],
      "name": "createdAt",
      "outputs": [
        {
          "internalType": "int256",
          "name": "",
          "type": "int256"
        }
      ],
      "payable": false,
      "stateMutability": "view",
      "type": "function"
    },
    {
      "constant": true,
      "inputs": [],
      "name": "deployer",
      "outputs": [
        {
          "internalType": "address",
          "name": "",
          "type": "address"
        }
      ],
      "payable": false,
      "stateMutability": "view",
      "type": "function"
    },
    {
      "constant": true,
      "inputs": [],
      "name": "signaturit",
      "outputs": [
        {
          "internalType": "address",
          "name": "",
          "type": "address"
        }
      ],
      "payable": false,
      "stateMutability": "view",
      "type": "function"
    },
    {
      "inputs": [
        {
          "internalType": "string",
          "name": "signatureId",
          "type": "string"
        },
        {
          "internalType": "address",
          "name": "deployerAddress",
          "type": "address"
        },
        {
          "internalType": "int256",
          "name": "signatureCreatedAt",
          "type": "int256"
        }
      ],
      "payable": false,
      "stateMutability": "nonpayable",
      "type": "constructor"
    },
    {
      "constant": false,
      "inputs": [
        {
          "internalType": "address",
          "name": "signatureOwner",
          "type": "address"
        },
        {
          "internalType": "address",
          "name": "userSmartContractAddress",
          "type": "address"
        }
      ],
      "name": "setSignatureOwner",
      "outputs": [],
      "payable": false,
      "stateMutability": "nonpayable",
      "type": "function"
    },
    {
      "constant": false,
      "inputs": [
        {
          "internalType": "string",
          "name": "documentId",
          "type": "string"
        },
        {
          "internalType": "string",
          "name": "signatureType",
          "type": "string"
        },
        {
          "internalType": "uint256",
          "name": "documentCreatedAt",
          "type": "uint256"
        }
      ],
      "name": "createDocument",
      "outputs": [],
      "payable": false,
      "stateMutability": "nonpayable",
      "type": "function"
    },
    {
      "constant": false,
      "inputs": [
        {
          "internalType": "string",
          "name": "documentId",
          "type": "string"
        },
        {
          "internalType": "address",
          "name": "documentOwner",
          "type": "address"
        }
      ],
      "name": "setDocumentOwner",
      "outputs": [],
      "payable": false,
      "stateMutability": "nonpayable",
      "type": "function"
    },
    {
      "constant": false,
      "inputs": [
        {
          "internalType": "string",
          "name": "documentId",
          "type": "string"
        },
        {
          "internalType": "string",
          "name": "signedFileHash",
          "type": "string"
        }
      ],
      "name": "setSignedFileHash",
      "outputs": [],
      "payable": false,
      "stateMutability": "nonpayable",
      "type": "function"
    },
    {
      "constant": false,
      "inputs": [
        {
          "internalType": "string",
          "name": "documentId",
          "type": "string"
        },
        {
          "internalType": "string",
          "name": "cancelReason",
          "type": "string"
        }
      ],
      "name": "cancelDocument",
      "outputs": [],
      "payable": false,
      "stateMutability": "nonpayable",
      "type": "function"
    },
    {
      "constant": false,
      "inputs": [
        {
          "internalType": "string",
          "name": "documentId",
          "type": "string"
        },
        {
          "internalType": "string",
          "name": "fileId",
          "type": "string"
        },
        {
          "internalType": "string",
          "name": "fileName",
          "type": "string"
        },
        {
          "internalType": "string",
          "name": "fileHash",
          "type": "string"
        },
        {
          "internalType": "uint256",
          "name": "fileCreatedAt",
          "type": "uint256"
        },
        {
          "internalType": "uint256",
          "name": "fileSize",
          "type": "uint256"
        }
      ],
      "name": "createFile",
      "outputs": [],
      "payable": false,
      "stateMutability": "nonpayable",
      "type": "function"
    },
    {
      "constant": false,
      "inputs": [
        {
          "internalType": "string",
          "name": "documentId",
          "type": "string"
        },
        {
          "internalType": "string",
          "name": "eventId",
          "type": "string"
        },
        {
          "internalType": "string",
          "name": "eventType",
          "type": "string"
        },
        {
          "internalType": "string",
          "name": "eventUserAgent",
          "type": "string"
        },
        {
          "internalType": "uint256",
          "name": "eventCreatedAt",
          "type": "uint256"
        }
      ],
      "name": "createEvent",
      "outputs": [],
      "payable": false,
      "stateMutability": "nonpayable",
      "type": "function"
    },
    {
      "constant": false,
      "inputs": [
        {
          "internalType": "string",
          "name": "clauseType",
          "type": "string"
        },
        {
          "internalType": "address",
          "name": "clauseAddress",
          "type": "address"
        }
      ],
      "name": "setClause",
      "outputs": [],
      "payable": false,
      "stateMutability": "nonpayable",
      "type": "function"
    },
    {
      "constant": true,
      "inputs": [
        {
          "internalType": "string",
          "name": "clauseType",
          "type": "string"
        }
      ],
      "name": "getClause",
      "outputs": [
        {
          "internalType": "address",
          "name": "clauseAddress",
          "type": "address"
        }
      ],
      "payable": false,
      "stateMutability": "view",
      "type": "function"
    },
    {
      "constant": true,
      "inputs": [
        {
          "internalType": "string",
          "name": "documentId",
          "type": "string"
        }
      ],
      "name": "getDocument",
      "outputs": [
        {
          "internalType": "contract DocumentInterface",
          "name": "",
          "type": "address"
        }
      ],
      "payable": false,
      "stateMutability": "view",
      "type": "function"
    },
    {
      "constant": true,
      "inputs": [],
      "name": "getDocumentsSize",
      "outputs": [
        {
          "internalType": "uint256",
          "name": "",
          "type": "uint256"
        }
      ],
      "payable": false,
      "stateMutability": "view",
      "type": "function"
    },
    {
      "constant": true,
      "inputs": [
        {
          "internalType": "string",
          "name": "documentId",
          "type": "string"
        }
      ],
      "name": "getFile",
      "outputs": [
        {
          "internalType": "contract FileInterface",
          "name": "",
          "type": "address"
        }
      ],
      "payable": false,
      "stateMutability": "view",
      "type": "function"
    },
    {
      "constant": true,
      "inputs": [
        {
          "internalType": "string",
          "name": "documentId",
          "type": "string"
        },
        {
          "internalType": "string",
          "name": "eventId",
          "type": "string"
        }
      ],
      "name": "getEvent",
      "outputs": [
        {
          "internalType": "contract EventInterface",
          "name": "",
          "type": "address"
        }
      ],
      "payable": false,
      "stateMutability": "view",
      "type": "function"
    }
  ],
  "bytecode": "0x60806040523480156200001157600080fd5b506040516200291e3803806200291e833981810160405260608110156200003757600080fd5b81019080805160405193929190846401000000008211156200005857600080fd5b9083019060208201858111156200006e57600080fd5b82516401000000008111828201881017156200008957600080fd5b82525081516020918201929091019080838360005b83811015620000b85781810151838201526020016200009e565b50505050905090810190601f168015620000e65780820380516001836020036101000a031916815260200191505b506040908152602082810151929091015160098054336001600160a01b031991821617909155600a80549091166001600160a01b038516179055855192945092506200013891600c9186019062000145565b50600e5550620001ea9050565b828054600181600116156101000203166002900490600052602060002090601f016020900481019282601f106200018857805160ff1916838001178555620001b8565b82800160010185558215620001b8579182015b82811115620001b85782518255916020019190600101906200019b565b50620001c6929150620001ca565b5090565b620001e791905b80821115620001c65760008155600101620001d1565b90565b61272480620001fa6000396000f3fe608060405234801561001057600080fd5b50600436106100fc5760003560e01c806341e4422f1461010157806345608dd11461022e57806346c3cf9c1461035757806354715390146104065780637ccb6a641461063e5780638da5cb5b146106fe57806393fa656e146107065780639d79916c14610720578063a347426514610849578063af640d0f146108ed578063b7fce16b1461096a578063bdcf5b8e14610a19578063c004240c14610c4e578063c918ef3814610c56578063c97782c314610d7f578063cf09e0d014610d9c578063d5f3948814610da4578063e0876aa814610dac578063f1c6eca914610e50578063f9b5333514610e7e575b600080fd5b61022c6004803603606081101561011757600080fd5b810190602081018135600160201b81111561013157600080fd5b82018360208201111561014357600080fd5b803590602001918460018302840111600160201b8311171561016457600080fd5b91908080601f0160208091040260200160405190810160405280939291908181526020018383808284376000920191909152509295949360208101935035915050600160201b8111156101b657600080fd5b8201836020820111156101c857600080fd5b803590602001918460018302840111600160201b831117156101e957600080fd5b91908080601f0160208091040260200160405190810160405280939291908181526020018383808284376000920191909152509295505091359250610e86915050565b005b61022c6004803603604081101561024457600080fd5b810190602081018135600160201b81111561025e57600080fd5b82018360208201111561027057600080fd5b803590602001918460018302840111600160201b8311171561029157600080fd5b91908080601f0160208091040260200160405190810160405280939291908181526020018383808284376000920191909152509295949360208101935035915050600160201b8111156102e357600080fd5b8201836020820111156102f557600080fd5b803590602001918460018302840111600160201b8311171561031657600080fd5b91908080601f016020809104026020016040519081016040528093929190818152602001838380828437600092019190915250929550611057945050505050565b61022c6004803603604081101561036d57600080fd5b810190602081018135600160201b81111561038757600080fd5b82018360208201111561039957600080fd5b803590602001918460018302840111600160201b831117156103ba57600080fd5b91908080601f016020809104026020016040519081016040528093929190818152602001838380828437600092019190915250929550505090356001600160a01b031691506111739050565b61022c600480360360c081101561041c57600080fd5b810190602081018135600160201b81111561043657600080fd5b82018360208201111561044857600080fd5b803590602001918460018302840111600160201b8311171561046957600080fd5b91908080601f0160208091040260200160405190810160405280939291908181526020018383808284376000920191909152509295949360208101935035915050600160201b8111156104bb57600080fd5b8201836020820111156104cd57600080fd5b803590602001918460018302840111600160201b831117156104ee57600080fd5b91908080601f0160208091040260200160405190810160405280939291908181526020018383808284376000920191909152509295949360208101935035915050600160201b81111561054057600080fd5b82018360208201111561055257600080fd5b803590602001918460018302840111600160201b8311171561057357600080fd5b91908080601f0160208091040260200160405190810160405280939291908181526020018383808284376000920191909152509295949360208101935035915050600160201b8111156105c557600080fd5b8201836020820111156105d757600080fd5b803590602001918460018302840111600160201b831117156105f857600080fd5b91908080601f0160208091040260200160405190810160405280939291908181526020018383808284376000920191909152509295505082359350505060200135611221565b6106e26004803603602081101561065457600080fd5b810190602081018135600160201b81111561066e57600080fd5b82018360208201111561068057600080fd5b803590602001918460018302840111600160201b831117156106a157600080fd5b91908080601f016020809104026020016040519081016040528093929190818152602001838380828437600092019190915250929550611553945050505050565b604080516001600160a01b039092168252519081900360200190f35b6106e261160a565b61070e611619565b60408051918252519081900360200190f35b61022c6004803603604081101561073657600080fd5b810190602081018135600160201b81111561075057600080fd5b82018360208201111561076257600080fd5b803590602001918460018302840111600160201b8311171561078357600080fd5b91908080601f0160208091040260200160405190810160405280939291908181526020018383808284376000920191909152509295949360208101935035915050600160201b8111156107d557600080fd5b8201836020820111156107e757600080fd5b803590602001918460018302840111600160201b8311171561080857600080fd5b91908080601f016020809104026020016040519081016040528093929190818152602001838380828437600092019190915250929550611620945050505050565b6106e26004803603602081101561085f57600080fd5b810190602081018135600160201b81111561087957600080fd5b82018360208201111561088b57600080fd5b803590602001918460018302840111600160201b831117156108ac57600080fd5b91908080601f0160208091040260200160405190810160405280939291908181526020018383808284376000920191909152509295506116d0945050505050565b6108f56117c7565b6040805160208082528351818301528351919283929083019185019080838360005b8381101561092f578181015183820152602001610917565b50505050905090810190601f16801561095c5780820380516001836020036101000a031916815260200191505b509250505060405180910390f35b61022c6004803603604081101561098057600080fd5b810190602081018135600160201b81111561099a57600080fd5b8201836020820111156109ac57600080fd5b803590602001918460018302840111600160201b831117156109cd57600080fd5b91908080601f016020809104026020016040519081016040528093929190818152602001838380828437600092019190915250929550505090356001600160a01b031691506118559050565b61022c600480360360a0811015610a2f57600080fd5b810190602081018135600160201b811115610a4957600080fd5b820183602082011115610a5b57600080fd5b803590602001918460018302840111600160201b83111715610a7c57600080fd5b91908080601f0160208091040260200160405190810160405280939291908181526020018383808284376000920191909152509295949360208101935035915050600160201b811115610ace57600080fd5b820183602082011115610ae057600080fd5b803590602001918460018302840111600160201b83111715610b0157600080fd5b91908080601f0160208091040260200160405190810160405280939291908181526020018383808284376000920191909152509295949360208101935035915050600160201b811115610b5357600080fd5b820183602082011115610b6557600080fd5b803590602001918460018302840111600160201b83111715610b8657600080fd5b91908080601f0160208091040260200160405190810160405280939291908181526020018383808284376000920191909152509295949360208101935035915050600160201b811115610bd857600080fd5b820183602082011115610bea57600080fd5b803590602001918460018302840111600160201b83111715610c0b57600080fd5b91908080601f0160208091040260200160405190810160405280939291908181526020018383808284376000920191909152509295505091359250611921915050565b6106e2611cb7565b6106e260048036036040811015610c6c57600080fd5b810190602081018135600160201b811115610c8657600080fd5b820183602082011115610c9857600080fd5b803590602001918460018302840111600160201b83111715610cb957600080fd5b91908080601f0160208091040260200160405190810160405280939291908181526020018383808284376000920191909152509295949360208101935035915050600160201b811115610d0b57600080fd5b820183602082011115610d1d57600080fd5b803590602001918460018302840111600160201b83111715610d3e57600080fd5b91908080601f016020809104026020016040519081016040528093929190818152602001838380828437600092019190915250929550611cc6945050505050565b6108f560048036036020811015610d9557600080fd5b5035611e9f565b61070e611f12565b6106e2611f18565b6106e260048036036020811015610dc257600080fd5b810190602081018135600160201b811115610ddc57600080fd5b820183602082011115610dee57600080fd5b803590602001918460018302840111600160201b83111715610e0f57600080fd5b91908080601f016020809104026020016040519081016040528093929190818152602001838380828437600092019190915250929550611f27945050505050565b61022c60048036036040811015610e6657600080fd5b506001600160a01b0381358116916020013516612082565b6106e26121d1565b6009546001600160a01b03163214610ecf5760405162461bcd60e51b815260040180806020018281038252602f8152602001806126c1602f913960400191505060405180910390fd5b6000610eda846121e0565b604080516238a5b560e01b815260248101859052600481019182528551604482015285519293506001600160a01b038416926238a5b59287928792829160640190602086019080838360005b83811015610f3e578181015183820152602001610f26565b50505050905090810190601f168015610f6b5780820380516001836020036101000a031916815260200191505b509350505050600060405180830381600087803b158015610f8b57600080fd5b505af1158015610f9f573d6000803e3d6000fd5b505060115460408051633e1bd58360e11b81526001600160a01b0386811660048301529151919092169350637c37ab069250602480830192600092919082900301818387803b158015610ff157600080fd5b505af1158015611005573d6000803e3d6000fd5b5050600d805460018101808355600092909252875191935061104f92507fd7b6990105719101dabeb77144f2a3385c8033acd3af97e9423a695e81ad1eb501906020880190612580565b505050505050565b600b546001600160a01b031633146110a05760405162461bcd60e51b815260040180806020018281038252602e815260200180612619602e913960400191505060405180910390fd5b60006110ab836121e0565b604051630b4f3f3d60e01b81526020600482018181528551602484015285519394506001600160a01b03851693630b4f3f3d93879383926044909201919085019080838360005b8381101561110a5781810151838201526020016110f2565b50505050905090810190601f1680156111375780820380516001836020036101000a031916815260200191505b5092505050600060405180830381600087803b15801561115657600080fd5b505af115801561116a573d6000803e3d6000fd5b50505050505050565b6009546001600160a01b031632146111bc5760405162461bcd60e51b815260040180806020018281038252602f8152602001806126c1602f913960400191505060405180910390fd5b60006111c7836121e0565b9050806001600160a01b03166313af4035836040518263ffffffff1660e01b815260040180826001600160a01b03166001600160a01b03168152602001915050600060405180830381600087803b15801561115657600080fd5b6009546001600160a01b0316321461126a5760405162461bcd60e51b815260040180806020018281038252602f8152602001806126c1602f913960400191505060405180910390fd5b6000611275876121e0565b9050806001600160a01b0316636bee1e1b87878787876040518663ffffffff1660e01b815260040180806020018060200180602001868152602001858152602001848103845289818151815260200191508051906020019080838360005b838110156112eb5781810151838201526020016112d3565b50505050905090810190601f1680156113185780820380516001836020036101000a031916815260200191505b5084810383528851815288516020918201918a019080838360005b8381101561134b578181015183820152602001611333565b50505050905090810190601f1680156113785780820380516001836020036101000a031916815260200191505b50848103825287518152875160209182019189019080838360005b838110156113ab578181015183820152602001611393565b50505050905090810190601f1680156113d85780820380516001836020036101000a031916815260200191505b5098505050505050505050600060405180830381600087803b1580156113fd57600080fd5b505af1158015611411573d6000803e3d6000fd5b505050506000816001600160a01b0316638525855d6040518163ffffffff1660e01b815260040160206040518083038186803b15801561145057600080fd5b505afa158015611464573d6000803e3d6000fd5b505050506040513d602081101561147a57600080fd5b505190506001600160a01b0381166114c35760405162461bcd60e51b81526004018080602001828103825260298152602001806126476029913960400191505060405180910390fd5b60115460408051630c0a715d60e41b81526001600160a01b0384811660248301526004820183905260096044830152687369676e617475726560b81b60648301529151919092169163c0a715d091608480830192600092919082900301818387803b15801561153157600080fd5b505af1158015611545573d6000803e3d6000fd5b505050505050505050505050565b600061155e826124f9565b6115995760405162461bcd60e51b815260040180806020018281038252602781526020018061269a6027913960400191505060405180910390fd5b600f826040518082805190602001908083835b602083106115cb5780518252601f1990920191602091820191016115ac565b51815160209384036101000a60001901801990921691161790529201948552506040519384900301909220546001600160a01b0316925050505b919050565b600b546001600160a01b031681565b600d545b90565b6009546001600160a01b031632146116695760405162461bcd60e51b815260040180806020018281038252602f8152602001806126c1602f913960400191505060405180910390fd5b6000611674836121e0565b6040516302abdb1d60e61b81526020600482018181528551602484015285519394506001600160a01b0385169363aaf6c7409387938392604490920191908501908083836000831561110a5781810151838201526020016110f2565b6000806001600160a01b03166010836040518082805190602001908083835b6020831061170e5780518252601f1990920191602091820191016116ef565b51815160209384036101000a60001901801990921691161790529201948552506040519384900301909220546001600160a01b0316929092141591506117969050576040805162461bcd60e51b8152602060048201526016602482015275151a1a5cc818db185d5cd9481a5cc81b9bdd081cd95d60521b604482015290519081900360640190fd5b601082604051808280519060200190808383602083106115cb5780518252601f1990920191602091820191016115ac565b600c805460408051602060026001851615610100026000190190941693909304601f8101849004840282018401909252818152929183018282801561184d5780601f106118225761010080835404028352916020019161184d565b820191906000526020600020905b81548152906001019060200180831161183057829003601f168201915b505050505081565b6009546001600160a01b0316321461189e5760405162461bcd60e51b815260040180806020018281038252602f8152602001806126c1602f913960400191505060405180910390fd5b806010836040518082805190602001908083835b602083106118d15780518252601f1990920191602091820191016118b2565b51815160209384036101000a6000190180199092169116179052920194855250604051938490030190922080546001600160a01b0319166001600160a01b03949094169390931790925550505050565b6009546001600160a01b0316321461196a5760405162461bcd60e51b815260040180806020018281038252602f8152602001806126c1602f913960400191505060405180910390fd5b6000611975866121e0565b9050806001600160a01b031663de4cd842868686866040518563ffffffff1660e01b815260040180806020018060200180602001858152602001848103845288818151815260200191508051906020019080838360005b838110156119e45781810151838201526020016119cc565b50505050905090810190601f168015611a115780820380516001836020036101000a031916815260200191505b50848103835287518152875160209182019189019080838360005b83811015611a44578181015183820152602001611a2c565b50505050905090810190601f168015611a715780820380516001836020036101000a031916815260200191505b50848103825286518152865160209182019188019080838360005b83811015611aa4578181015183820152602001611a8c565b50505050905090810190601f168015611ad15780820380516001836020036101000a031916815260200191505b50975050505050505050600060405180830381600087803b158015611af557600080fd5b505af1158015611b09573d6000803e3d6000fd5b505060405163e190206360e01b8152602060048201818152895160248401528951600095506001600160a01b038716945063e1902063938b938392604490920191908501908083838b5b83811015611b6b578181015183820152602001611b53565b50505050905090810190601f168015611b985780820380516001836020036101000a031916815260200191505b509250505060206040518083038186803b158015611bb557600080fd5b505afa158015611bc9573d6000803e3d6000fd5b505050506040513d6020811015611bdf57600080fd5b505190506001600160a01b038116611c285760405162461bcd60e51b815260040180806020018281038252602a815260200180612670602a913960400191505060405180910390fd5b60115460408051630a52679d60e11b81526001600160a01b0384811660248301526004820183905260096044830152687369676e617475726560b81b6064830152915191909216916314a4cf3a91608480830192600092919082900301818387803b158015611c9657600080fd5b505af1158015611caa573d6000803e3d6000fd5b5050505050505050505050565b6011546001600160a01b031681565b6000611cd1836124f9565b611d1f576040805162461bcd60e51b815260206004820152601a602482015279151a1948191bd8dd5b595b9d08191bd95cdb89dd08195e1a5cdd60321b604482015290519081900360640190fd5b6000600f846040518082805190602001908083835b60208310611d535780518252601f199092019160209182019101611d34565b51815160209384036101000a600019018019909216911617905292019485525060405193849003810184205463e190206360e01b8552600485018281528851602487015288516001600160a01b039092169563e19020639550899450909283926044909201919085019080838360005b83811015611ddb578181015183820152602001611dc3565b50505050905090810190601f168015611e085780820380516001836020036101000a031916815260200191505b509250505060206040518083038186803b158015611e2557600080fd5b505afa158015611e39573d6000803e3d6000fd5b505050506040513d6020811015611e4f57600080fd5b505190506001600160a01b038116611e985760405162461bcd60e51b815260040180806020018281038252602a815260200180612670602a913960400191505060405180910390fd5b9392505050565b600d8181548110611eac57fe5b600091825260209182902001805460408051601f600260001961010060018716150201909416939093049283018590048502810185019091528181529350909183018282801561184d5780601f106118225761010080835404028352916020019161184d565b600e5481565b600a546001600160a01b031681565b6000611f32826124f9565b611f6d5760405162461bcd60e51b815260040180806020018281038252602781526020018061269a6027913960400191505060405180910390fd5b6000600f836040518082805190602001908083835b60208310611fa15780518252601f199092019160209182019101611f82565b51815160209384036101000a600019018019909216911617905292019485525060408051948590038201852054638525855d60e01b865290516001600160a01b0390911694638525855d94506004808201945090829003018186803b15801561200957600080fd5b505afa15801561201d573d6000803e3d6000fd5b505050506040513d602081101561203357600080fd5b505190506001600160a01b03811661207c5760405162461bcd60e51b81526004018080602001828103825260298152602001806126476029913960400191505060405180910390fd5b92915050565b6009546001600160a01b031632146120cb5760405162461bcd60e51b815260040180806020018281038252602f8152602001806126c1602f913960400191505060405180910390fd5b600b80546001600160a01b038085166001600160a01b0319928316179092556011805484841692169190911790819055604080516321624b4760e01b8152306004820181815260248301938452600c8054600260001960018316156101000201909116046044850181905295909616956321624b47959294909391929091606401908490801561219c5780601f106121715761010080835404028352916020019161219c565b820191906000526020600020905b81548152906001019060200180831161217f57829003601f168201915b50509350505050600060405180830381600087803b1580156121bd57600080fd5b505af115801561104f573d6000803e3d6000fd5b6009546001600160a01b031681565b60006121eb826124f9565b1561226157600f826040518082805190602001908083835b602083106122225780518252601f199092019160209182019101612203565b51815160209384036101000a60001901801990921691161790529201948552506040519384900301909220546001600160a01b03169250611605915050565b600a54604080516001600160a01b03909216604483018190526024830191825284516064840152845160009360609387928492829160849091019060208601908083838c5b838110156122be5781810151838201526020016122a6565b50505050905090810190601f1680156122eb5780820380516001836020036101000a031916815260200191505b5060408051601f198184030181529181526020820180516001600160e01b031663226ddea160e21b17815290518251929650945084935091508083835b602083106123475780518252601f199092019160209182019101612328565b6001836020036101000a038019825116818451168082178552505050505050905001915050600060405180830381855af49150503d80600081146123a7576040519150601f19603f3d011682016040523d82523d6000602084013e6123ac565b606091505b509150915081612403576040805162461bcd60e51b815260206004820152601e60248201527f4572726f72207768696c65206465706c6f79696e6720646f63756d656e740000604482015290519081900360640190fd5b61240c81612579565b600f856040518082805190602001908083835b6020831061243e5780518252601f19909201916020918201910161241f565b51815160209384036101000a6000190180199092169116179052920194855250604051938490038101842080546001600160a01b0319166001600160a01b03969096169590951790945550508551600f9287929182918401908083835b602083106124ba5780518252601f19909201916020918201910161249b565b51815160209384036101000a60001901801990921691161790529201948552506040519384900301909220546001600160a01b03169695505050505050565b6000806001600160a01b0316600f836040518082805190602001908083835b602083106125375780518252601f199092019160209182019101612518565b51815160209384036101000a60001901801990921691161790529201948552506040519384900301909220546001600160a01b03169290921415949350505050565b6020015190565b828054600181600116156101000203166002900490600052602060002090601f016020900481019282601f106125c157805160ff19168380011785556125ee565b828001600101855582156125ee579182015b828111156125ee5782518255916020019190600101906125d3565b506125fa9291506125fe565b5090565b61161d91905b808211156125fa576000815560010161260456fe4f6e6c7920746865206f776e6572206163636f756e742063616e20706572666f726d207468697320616374696f6e4572726f72207768696c652072657472696576696e672066696c652066726f6d20646f63756d656e744572726f72207768696c652072657472696576696e67206576656e742066726f6d20646f63756d656e7454686520646f63756d656e742077697468207468697320696420646f65736e27742065786973744f6e6c79205369676e617475726974206163636f756e742063616e20706572666f726d207468697320616374696f6ea265627a7a72315820fa45c006032611924b9393be40629b778ea4c6097ef96b04db6bbcb9daf9e28264736f6c634300050b0032",
  "source": "pragma solidity <0.6.0;\n\n/*\nGas to deploy: 2.882.648\n*/\n\nimport \"./interfaces/SignatureInterface.sol\";\nimport \"./interfaces/DocumentInterface.sol\";\nimport \"./interfaces/UserInterface.sol\";\nimport \"./interfaces/FileInterface.sol\";\nimport \"./interfaces/EventInterface.sol\";\nimport \"./libraries/Utils.sol\";\n\n\ncontract Signature is SignatureInterface {\n    address public signaturit;\n    address public deployer;\n    address public owner;\n\n    string public id;\n\n    string[] public documentsId;\n\n    int public createdAt;\n\n    mapping(string => DocumentInterface) private documents;\n\n    mapping(string => address) private clauses;\n\n    UserInterface public userSmartContract;\n\n    constructor(\n        string memory signatureId,\n        address deployerAddress,\n        int signatureCreatedAt\n    ) public {\n        signaturit = msg.sender;\n        deployer = deployerAddress;\n\n        id = signatureId;\n        createdAt = signatureCreatedAt;\n    }\n\n    modifier signaturitOnly() {\n        require(\n            tx.origin == signaturit,\n            \"Only Signaturit account can perform this action\"\n        );\n\n        _;\n    }\n\n    modifier ownerOnly() {\n        require(\n            msg.sender == owner,\n            \"Only the owner account can perform this action\"\n        );\n\n        _;\n    }\n\n    function setSignatureOwner (\n        address signatureOwner,\n        address userSmartContractAddress\n    )\n        public\n        signaturitOnly\n    {\n        owner = signatureOwner;\n\n        userSmartContract = UserInterface(userSmartContractAddress);\n        userSmartContract.addSignature(address(this), id);\n    }\n\n    function createDocument(\n        string memory documentId,\n        string memory signatureType,\n        uint documentCreatedAt\n    )\n        public\n        signaturitOnly\n    {\n        DocumentInterface document = _getDocument(documentId);\n\n        document.init(signatureType, documentCreatedAt);\n\n        userSmartContract.addDocument(address(document));\n\n        documentsId.push(documentId);\n    }\n\n    function setDocumentOwner (\n        string memory documentId,\n        address documentOwner\n    )\n        public\n        signaturitOnly\n    {\n        DocumentInterface document = _getDocument(documentId);\n\n        document.setOwner(documentOwner);\n    }\n\n    function setSignedFileHash (\n        string memory documentId,\n        string memory signedFileHash\n    )\n        public\n        signaturitOnly\n    {\n        DocumentInterface document = _getDocument(documentId);\n\n        document.setFileHash(signedFileHash);\n    }\n\n    function cancelDocument (\n        string memory documentId,\n        string memory cancelReason\n    )\n        public\n        ownerOnly\n    {\n        DocumentInterface document = _getDocument(documentId);\n\n        document.cancel(cancelReason);\n    }\n\n    function createFile(\n        string memory documentId,\n        string memory fileId,\n        string memory fileName,\n        string memory fileHash,\n        uint fileCreatedAt,\n        uint fileSize\n    )\n        public\n        signaturitOnly\n    {\n        DocumentInterface document = _getDocument(documentId);\n\n        document.\n            createFile(\n            fileId,\n            fileName,\n            fileHash,\n            fileCreatedAt,\n            fileSize\n        );\n\n        FileInterface signatureFile = document.file();\n        require(\n            address(signatureFile) != address(0),\n            \"Error while retrieving file from document\"\n        );\n\n        userSmartContract.addFile(\n            \"signature\",\n            address(signatureFile)\n        );\n    }\n\n    function createEvent(\n        string memory documentId,\n        string memory eventId,\n        string memory eventType,\n        string memory eventUserAgent,\n        uint eventCreatedAt\n    )\n        public\n        signaturitOnly\n    {\n        DocumentInterface document = _getDocument(documentId);\n\n        document.createEvent(\n            eventId,\n            eventType,\n            eventUserAgent,\n            eventCreatedAt\n        );\n\n        EventInterface signatureEvent = document.getEvent(eventId);\n\n        require(\n            address(signatureEvent) != address(0),\n            \"Error while retrieving event from document\"\n        );\n\n        userSmartContract.addEvent(\"signature\", address(signatureEvent));\n    }\n\n    function setClause(\n        string memory clauseType,\n        address clauseAddress\n    )\n        public\n        signaturitOnly\n    {\n        clauses[clauseType] = clauseAddress;\n    }\n\n    function getClause(\n        string memory clauseType\n    )\n        public\n        view\n        returns (address clauseAddress)\n    {\n        require(\n            clauses[clauseType] != address(0),\n            \"This clause is not set\"\n        );\n\n        return clauses[clauseType];\n    }\n\n    function getDocument(\n        string memory documentId\n    )\n        public\n        view\n        returns (DocumentInterface)\n    {\n        require(\n            _documentExist(documentId),\n            \"The document with this id doesn't exist\"\n        );\n\n        return documents[documentId];\n    }\n\n    function getDocumentsSize()\n        public\n        view\n        returns (uint)\n    {\n        return documentsId.length;\n    }\n\n    function getFile(\n        string memory documentId\n    )\n        public\n        view\n        returns (FileInterface)\n    {\n        require(\n            _documentExist(documentId),\n            \"The document with this id doesn't exist\"\n        );\n\n        FileInterface signatureFile = documents[documentId].file();\n\n        require(\n            address(signatureFile) != address(0),\n            \"Error while retrieving file from document\"\n        );\n\n        return signatureFile;\n    }\n\n    function getEvent(\n        string memory documentId,\n        string memory eventId\n    )\n        public\n        view\n        returns (EventInterface)\n    {\n        require(\n            _documentExist(documentId),\n            \"The document doesn't exist\"\n        );\n\n        EventInterface signatureEvent = documents[documentId].getEvent(\n            eventId\n        );\n\n        require(\n            address(signatureEvent) != address(0),\n            \"Error while retrieving event from document\"\n        );\n\n        return signatureEvent;\n    }\n\n    function _getDocument(\n        string memory documentId\n    )\n        private\n        returns (DocumentInterface)\n    {\n        if (_documentExist(documentId))\n            return documents[documentId];\n\n        (\n            bool success,\n            bytes memory returnData\n        ) = deployer.delegatecall(\n            abi.encodeWithSignature(\"deployDocument(string,address)\",\n            documentId,\n            deployer)\n        );\n\n        require(\n            success,\n            \"Error while deploying document\"\n        );\n\n        documents[documentId] = DocumentInterface(\n            Utils._bytesToAddress(returnData)\n        );\n\n        return documents[documentId];\n    }\n\n    function _documentExist(\n        string memory documentId\n    )\n        private\n        view\n        returns (bool)\n    {\n        return address(documents[documentId]) != address(0);\n    }\n}\n",
  "sourcePath": "/home/administrator/workspace/signaturit-solidity-contracts/contracts/Signature.sol",
  "compiler": {
    "name": "solc",
    "version": "0.5.11+commit.c082d0b4.Emscripten.clang"
  },
  "schemaVersion": "3.0.11",
  "updatedAt": "2019-08-29T15:50:01.454Z",
  "devdoc": {
    "methods": {}
  },
  "userdoc": {
    "methods": {}
  }
}