{
  "contractName": "Signature",
  "abi": [
    {
      "constant": true,
      "inputs": [],
      "name": "owner",
      "outputs": [
        {
          "name": "",
          "type": "address"
        }
      ],
      "payable": false,
      "stateMutability": "view",
      "type": "function"
    },
    {
      "constant": true,
      "inputs": [],
      "name": "id",
      "outputs": [
        {
          "name": "",
          "type": "string"
        }
      ],
      "payable": false,
      "stateMutability": "view",
      "type": "function"
    },
    {
      "constant": true,
      "inputs": [],
      "name": "userSmartContract",
      "outputs": [
        {
          "name": "",
          "type": "address"
        }
      ],
      "payable": false,
      "stateMutability": "view",
      "type": "function"
    },
    {
      "constant": true,
      "inputs": [
        {
          "name": "",
          "type": "uint256"
        }
      ],
      "name": "documentsId",
      "outputs": [
        {
          "name": "",
          "type": "string"
        }
      ],
      "payable": false,
      "stateMutability": "view",
      "type": "function"
    },
    {
      "constant": true,
      "inputs": [],
      "name": "createdAt",
      "outputs": [
        {
          "name": "",
          "type": "int256"
        }
      ],
      "payable": false,
      "stateMutability": "view",
      "type": "function"
    },
    {
      "constant": true,
      "inputs": [],
      "name": "deployer",
      "outputs": [
        {
          "name": "",
          "type": "address"
        }
      ],
      "payable": false,
      "stateMutability": "view",
      "type": "function"
    },
    {
      "constant": true,
      "inputs": [],
      "name": "signaturit",
      "outputs": [
        {
          "name": "",
          "type": "address"
        }
      ],
      "payable": false,
      "stateMutability": "view",
      "type": "function"
    },
    {
      "inputs": [
        {
          "name": "signatureId",
          "type": "string"
        },
        {
          "name": "deployerAddress",
          "type": "address"
        },
        {
          "name": "signatureCreatedAt",
          "type": "int256"
        }
      ],
      "payable": false,
      "stateMutability": "nonpayable",
      "type": "constructor"
    },
    {
      "constant": false,
      "inputs": [
        {
          "name": "signatureOwner",
          "type": "address"
        },
        {
          "name": "userSmartContractAddress",
          "type": "address"
        }
      ],
      "name": "setSignatureOwner",
      "outputs": [],
      "payable": false,
      "stateMutability": "nonpayable",
      "type": "function"
    },
    {
      "constant": false,
      "inputs": [
        {
          "name": "documentId",
          "type": "string"
        },
        {
          "name": "signatureType",
          "type": "string"
        },
        {
          "name": "documentCreatedAt",
          "type": "uint256"
        }
      ],
      "name": "createDocument",
      "outputs": [],
      "payable": false,
      "stateMutability": "nonpayable",
      "type": "function"
    },
    {
      "constant": false,
      "inputs": [
        {
          "name": "documentId",
          "type": "string"
        },
        {
          "name": "documentOwner",
          "type": "address"
        }
      ],
      "name": "setDocumentOwner",
      "outputs": [],
      "payable": false,
      "stateMutability": "nonpayable",
      "type": "function"
    },
    {
      "constant": false,
      "inputs": [
        {
          "name": "documentId",
          "type": "string"
        },
        {
          "name": "signedFileHash",
          "type": "string"
        }
      ],
      "name": "setSignedFileHash",
      "outputs": [],
      "payable": false,
      "stateMutability": "nonpayable",
      "type": "function"
    },
    {
      "constant": false,
      "inputs": [
        {
          "name": "documentId",
          "type": "string"
        },
        {
          "name": "cancelReason",
          "type": "string"
        }
      ],
      "name": "cancelDocument",
      "outputs": [],
      "payable": false,
      "stateMutability": "nonpayable",
      "type": "function"
    },
    {
      "constant": false,
      "inputs": [
        {
          "name": "documentId",
          "type": "string"
        },
        {
          "name": "fileId",
          "type": "string"
        },
        {
          "name": "fileName",
          "type": "string"
        },
        {
          "name": "fileHash",
          "type": "string"
        },
        {
          "name": "fileCreatedAt",
          "type": "uint256"
        },
        {
          "name": "fileSize",
          "type": "uint256"
        }
      ],
      "name": "createFile",
      "outputs": [],
      "payable": false,
      "stateMutability": "nonpayable",
      "type": "function"
    },
    {
      "constant": false,
      "inputs": [
        {
          "name": "documentId",
          "type": "string"
        },
        {
          "name": "eventId",
          "type": "string"
        },
        {
          "name": "eventType",
          "type": "string"
        },
        {
          "name": "eventUserAgent",
          "type": "string"
        },
        {
          "name": "eventCreatedAt",
          "type": "uint256"
        }
      ],
      "name": "createEvent",
      "outputs": [],
      "payable": false,
      "stateMutability": "nonpayable",
      "type": "function"
    },
    {
      "constant": false,
      "inputs": [
        {
          "name": "clauseType",
          "type": "string"
        },
        {
          "name": "clauseAddress",
          "type": "address"
        }
      ],
      "name": "setClause",
      "outputs": [],
      "payable": false,
      "stateMutability": "nonpayable",
      "type": "function"
    },
    {
      "constant": true,
      "inputs": [
        {
          "name": "clauseType",
          "type": "string"
        }
      ],
      "name": "getClause",
      "outputs": [
        {
          "name": "clauseAddress",
          "type": "address"
        }
      ],
      "payable": false,
      "stateMutability": "view",
      "type": "function"
    },
    {
      "constant": true,
      "inputs": [
        {
          "name": "documentId",
          "type": "string"
        }
      ],
      "name": "getDocument",
      "outputs": [
        {
          "name": "",
          "type": "address"
        }
      ],
      "payable": false,
      "stateMutability": "view",
      "type": "function"
    },
    {
      "constant": true,
      "inputs": [],
      "name": "getDocumentsSize",
      "outputs": [
        {
          "name": "",
          "type": "uint256"
        }
      ],
      "payable": false,
      "stateMutability": "view",
      "type": "function"
    },
    {
      "constant": true,
      "inputs": [
        {
          "name": "documentId",
          "type": "string"
        }
      ],
      "name": "getFile",
      "outputs": [
        {
          "name": "",
          "type": "address"
        }
      ],
      "payable": false,
      "stateMutability": "view",
      "type": "function"
    },
    {
      "constant": true,
      "inputs": [
        {
          "name": "documentId",
          "type": "string"
        },
        {
          "name": "eventId",
          "type": "string"
        }
      ],
      "name": "getEvent",
      "outputs": [
        {
          "name": "",
          "type": "address"
        }
      ],
      "payable": false,
      "stateMutability": "view",
      "type": "function"
    }
  ],
  "bytecode": "0x60806040523480156200001157600080fd5b5060405162002b6438038062002b64833981018060405260608110156200003757600080fd5b8101908080516401000000008111156200005057600080fd5b820160208101848111156200006457600080fd5b81516401000000008111828201871017156200007f57600080fd5b50506020828101516040909301516009805433600160a060020a031991821617909155600a8054909116600160a060020a0386161790558251929550929350620000cf91600c91860190620000dc565b50600e5550620001819050565b828054600181600116156101000203166002900490600052602060002090601f016020900481019282601f106200011f57805160ff19168380011785556200014f565b828001600101855582156200014f579182015b828111156200014f57825182559160200191906001019062000132565b506200015d92915062000161565b5090565b6200017e91905b808211156200015d576000815560010162000168565b90565b6129d380620001916000396000f3fe6080604052600436106100f85763ffffffff60e060020a60003504166341e4422f81146100fd57806345608dd11461023757806346c3cf9c1461036d57806354715390146104295780637ccb6a641461066e5780638da5cb5b1461073b57806393fa656e146107505780639d79916c14610777578063a3474265146108ad578063af640d0f1461095e578063b7fce16b146109e8578063bdcf5b8e14610aa4578063c004240c14610ce6578063c918ef3814610cfb578063c97782c314610e31578063cf09e0d014610e5b578063d5f3948814610e70578063e0876aa814610e85578063f1c6eca914610f36578063f9b5333514610f71575b600080fd5b34801561010957600080fd5b506102356004803603606081101561012057600080fd5b810190602081018135602060020a81111561013a57600080fd5b82018360208201111561014c57600080fd5b803590602001918460018302840111602060020a8311171561016d57600080fd5b91908080601f0160208091040260200160405190810160405280939291908181526020018383808284376000920191909152509295949360208101935035915050602060020a8111156101bf57600080fd5b8201836020820111156101d157600080fd5b803590602001918460018302840111602060020a831117156101f257600080fd5b91908080601f0160208091040260200160405190810160405280939291908181526020018383808284376000920191909152509295505091359250610f86915050565b005b34801561024357600080fd5b506102356004803603604081101561025a57600080fd5b810190602081018135602060020a81111561027457600080fd5b82018360208201111561028657600080fd5b803590602001918460018302840111602060020a831117156102a757600080fd5b91908080601f0160208091040260200160405190810160405280939291908181526020018383808284376000920191909152509295949360208101935035915050602060020a8111156102f957600080fd5b82018360208201111561030b57600080fd5b803590602001918460018302840111602060020a8311171561032c57600080fd5b91908080601f016020809104026020016040519081016040528093929190818152602001838380828437600092019190915250929550611178945050505050565b34801561037957600080fd5b506102356004803603604081101561039057600080fd5b810190602081018135602060020a8111156103aa57600080fd5b8201836020820111156103bc57600080fd5b803590602001918460018302840111602060020a831117156103dd57600080fd5b91908080601f01602080910402602001604051908101604052809392919081815260200183838082843760009201919091525092955050509035600160a060020a031691506112ca9050565b34801561043557600080fd5b50610235600480360360c081101561044c57600080fd5b810190602081018135602060020a81111561046657600080fd5b82018360208201111561047857600080fd5b803590602001918460018302840111602060020a8311171561049957600080fd5b91908080601f0160208091040260200160405190810160405280939291908181526020018383808284376000920191909152509295949360208101935035915050602060020a8111156104eb57600080fd5b8201836020820111156104fd57600080fd5b803590602001918460018302840111602060020a8311171561051e57600080fd5b91908080601f0160208091040260200160405190810160405280939291908181526020018383808284376000920191909152509295949360208101935035915050602060020a81111561057057600080fd5b82018360208201111561058257600080fd5b803590602001918460018302840111602060020a831117156105a357600080fd5b91908080601f0160208091040260200160405190810160405280939291908181526020018383808284376000920191909152509295949360208101935035915050602060020a8111156105f557600080fd5b82018360208201111561060757600080fd5b803590602001918460018302840111602060020a8311171561062857600080fd5b91908080601f0160208091040260200160405190810160405280939291908181526020018383808284376000920191909152509295505082359350505060200135611396565b34801561067a57600080fd5b5061071f6004803603602081101561069157600080fd5b810190602081018135602060020a8111156106ab57600080fd5b8201836020820111156106bd57600080fd5b803590602001918460018302840111602060020a831117156106de57600080fd5b91908080601f01602080910402602001604051908101604052809392919081815260200183838082843760009201919091525092955061170d945050505050565b60408051600160a060020a039092168252519081900360200190f35b34801561074757600080fd5b5061071f6117e0565b34801561075c57600080fd5b506107656117ef565b60408051918252519081900360200190f35b34801561078357600080fd5b506102356004803603604081101561079a57600080fd5b810190602081018135602060020a8111156107b457600080fd5b8201836020820111156107c657600080fd5b803590602001918460018302840111602060020a831117156107e757600080fd5b91908080601f0160208091040260200160405190810160405280939291908181526020018383808284376000920191909152509295949360208101935035915050602060020a81111561083957600080fd5b82018360208201111561084b57600080fd5b803590602001918460018302840111602060020a8311171561086c57600080fd5b91908080601f0160208091040260200160405190810160405280939291908181526020018383808284376000920191909152509295506117f6945050505050565b3480156108b957600080fd5b5061071f600480360360208110156108d057600080fd5b810190602081018135602060020a8111156108ea57600080fd5b8201836020820111156108fc57600080fd5b803590602001918460018302840111602060020a8311171561091d57600080fd5b91908080601f0160208091040260200160405190810160405280939291908181526020018383808284376000920191909152509295506118c6945050505050565b34801561096a57600080fd5b506109736119c7565b6040805160208082528351818301528351919283929083019185019080838360005b838110156109ad578181015183820152602001610995565b50505050905090810190601f1680156109da5780820380516001836020036101000a031916815260200191505b509250505060405180910390f35b3480156109f457600080fd5b5061023560048036036040811015610a0b57600080fd5b810190602081018135602060020a811115610a2557600080fd5b820183602082011115610a3757600080fd5b803590602001918460018302840111602060020a83111715610a5857600080fd5b91908080601f01602080910402602001604051908101604052809392919081815260200183838082843760009201919091525092955050509035600160a060020a03169150611a559050565b348015610ab057600080fd5b50610235600480360360a0811015610ac757600080fd5b810190602081018135602060020a811115610ae157600080fd5b820183602082011115610af357600080fd5b803590602001918460018302840111602060020a83111715610b1457600080fd5b91908080601f0160208091040260200160405190810160405280939291908181526020018383808284376000920191909152509295949360208101935035915050602060020a811115610b6657600080fd5b820183602082011115610b7857600080fd5b803590602001918460018302840111602060020a83111715610b9957600080fd5b91908080601f0160208091040260200160405190810160405280939291908181526020018383808284376000920191909152509295949360208101935035915050602060020a811115610beb57600080fd5b820183602082011115610bfd57600080fd5b803590602001918460018302840111602060020a83111715610c1e57600080fd5b91908080601f0160208091040260200160405190810160405280939291908181526020018383808284376000920191909152509295949360208101935035915050602060020a811115610c7057600080fd5b820183602082011115610c8257600080fd5b803590602001918460018302840111602060020a83111715610ca357600080fd5b91908080601f0160208091040260200160405190810160405280939291908181526020018383808284376000920191909152509295505091359250611b3c915050565b348015610cf257600080fd5b5061071f611f18565b348015610d0757600080fd5b5061071f60048036036040811015610d1e57600080fd5b810190602081018135602060020a811115610d3857600080fd5b820183602082011115610d4a57600080fd5b803590602001918460018302840111602060020a83111715610d6b57600080fd5b91908080601f0160208091040260200160405190810160405280939291908181526020018383808284376000920191909152509295949360208101935035915050602060020a811115610dbd57600080fd5b820183602082011115610dcf57600080fd5b803590602001918460018302840111602060020a83111715610df057600080fd5b91908080601f016020809104026020016040519081016040528093929190818152602001838380828437600092019190915250929550611f27945050505050565b348015610e3d57600080fd5b5061097360048036036020811015610e5457600080fd5b503561212a565b348015610e6757600080fd5b5061076561219e565b348015610e7c57600080fd5b5061071f6121a4565b348015610e9157600080fd5b5061071f60048036036020811015610ea857600080fd5b810190602081018135602060020a811115610ec257600080fd5b820183602082011115610ed457600080fd5b803590602001918460018302840111602060020a83111715610ef557600080fd5b91908080601f0160208091040260200160405190810160405280939291908181526020018383808284376000920191909152509295506121b3945050505050565b348015610f4257600080fd5b5061023560048036036040811015610f5957600080fd5b50600160a060020a038135811691602001351661234b565b348015610f7d57600080fd5b5061071f6124b8565b600954600160a060020a03163214610fea576040805160e560020a62461bcd02815260206004820152602f60248201526000805160206129688339815191526044820152600080516020612908833981519152606482015290519081900360840190fd5b6000610ff5846124c7565b6040805160e060020a6238a5b50281526024810185905260048101918252855160448201528551929350600160a060020a038416926238a5b59287928792829160640190602086019080838360005b8381101561105c578181015183820152602001611044565b50505050905090810190601f1680156110895780820380516001836020036101000a031916815260200191505b509350505050600060405180830381600087803b1580156110a957600080fd5b505af11580156110bd573d6000803e3d6000fd5b50506011546040805160e160020a633e1bd583028152600160a060020a0386811660048301529151919092169350637c37ab069250602480830192600092919082900301818387803b15801561111257600080fd5b505af1158015611126573d6000803e3d6000fd5b5050600d805460018101808355600092909252875191935061117092507fd7b6990105719101dabeb77144f2a3385c8033acd3af97e9423a695e81ad1eb50190602088019061286f565b505050505050565b600b54600160a060020a031633146111f4576040805160e560020a62461bcd02815260206004820152602e60248201527f4f6e6c7920746865206f776e6572206163636f756e742063616e20706572666f6044820152609160020a6d3936903a3434b99030b1ba34b7b702606482015290519081900360840190fd5b60006111ff836124c7565b60405160e060020a630b4f3f3d028152602060048201818152855160248401528551939450600160a060020a03851693630b4f3f3d93879383926044909201919085019080838360005b83811015611261578181015183820152602001611249565b50505050905090810190601f16801561128e5780820380516001836020036101000a031916815260200191505b5092505050600060405180830381600087803b1580156112ad57600080fd5b505af11580156112c1573d6000803e3d6000fd5b50505050505050565b600954600160a060020a0316321461132e576040805160e560020a62461bcd02815260206004820152602f60248201526000805160206129688339815191526044820152600080516020612908833981519152606482015290519081900360840190fd5b6000611339836124c7565b905080600160a060020a03166313af4035836040518263ffffffff1660e060020a0281526004018082600160a060020a0316600160a060020a03168152602001915050600060405180830381600087803b1580156112ad57600080fd5b600954600160a060020a031632146113fa576040805160e560020a62461bcd02815260206004820152602f60248201526000805160206129688339815191526044820152600080516020612908833981519152606482015290519081900360840190fd5b6000611405876124c7565b905080600160a060020a0316636bee1e1b87878787876040518663ffffffff1660e060020a02815260040180806020018060200180602001868152602001858152602001848103845289818151815260200191508051906020019080838360005b8381101561147e578181015183820152602001611466565b50505050905090810190601f1680156114ab5780820380516001836020036101000a031916815260200191505b5084810383528851815288516020918201918a019080838360005b838110156114de5781810151838201526020016114c6565b50505050905090810190601f16801561150b5780820380516001836020036101000a031916815260200191505b50848103825287518152875160209182019189019080838360005b8381101561153e578181015183820152602001611526565b50505050905090810190601f16801561156b5780820380516001836020036101000a031916815260200191505b5098505050505050505050600060405180830381600087803b15801561159057600080fd5b505af11580156115a4573d6000803e3d6000fd5b50505050600081600160a060020a0316638525855d6040518163ffffffff1660e060020a02815260040160206040518083038186803b1580156115e657600080fd5b505afa1580156115fa573d6000803e3d6000fd5b505050506040513d602081101561161057600080fd5b50519050600160a060020a0381161515611677576040805160e560020a62461bcd0281526020600482015260296024820152600080516020612928833981519152604482015260ba60020a6808191bd8dd5b595b9d02606482015290519081900360840190fd5b6011546040805160e460020a630c0a715d028152600160a060020a038481166024830152600482018390526009604483015260b860020a687369676e61747572650260648301529151919092169163c0a715d091608480830192600092919082900301818387803b1580156116eb57600080fd5b505af11580156116ff573d6000803e3d6000fd5b505050505050505050505050565b6000611718826127e8565b151561176f576040805160e560020a62461bcd0281526020600482015260276024820152600080516020612988833981519152604482015260ca60020a661d08195e1a5cdd02606482015290519081900360840190fd5b600f826040518082805190602001908083835b602083106117a15780518252601f199092019160209182019101611782565b51815160209384036101000a6000190180199092169116179052920194855250604051938490030190922054600160a060020a0316925050505b919050565b600b54600160a060020a031681565b600d545b90565b600954600160a060020a0316321461185a576040805160e560020a62461bcd02815260206004820152602f60248201526000805160206129688339815191526044820152600080516020612908833981519152606482015290519081900360840190fd5b6000611865836124c7565b60405160e660020a6302abdb1d028152602060048201818152855160248401528551939450600160a060020a0385169363aaf6c740938793839260449092019190850190808383600083811015611261578181015183820152602001611249565b600080600160a060020a03166010836040518082805190602001908083835b602083106119045780518252601f1990920191602091820191016118e5565b51815160209384036101000a6000190180199092169116179052920194855250604051938490030190922054600160a060020a0316929092141591506119969050576040805160e560020a62461bcd02815260206004820152601660248201527f5468697320636c61757365206973206e6f742073657400000000000000000000604482015290519081900360640190fd5b601082604051808280519060200190808383602083106117a15780518252601f199092019160209182019101611782565b600c805460408051602060026001851615610100026000190190941693909304601f81018490048402820184019092528181529291830182828015611a4d5780601f10611a2257610100808354040283529160200191611a4d565b820191906000526020600020905b815481529060010190602001808311611a3057829003601f168201915b505050505081565b600954600160a060020a03163214611ab9576040805160e560020a62461bcd02815260206004820152602f60248201526000805160206129688339815191526044820152600080516020612908833981519152606482015290519081900360840190fd5b806010836040518082805190602001908083835b60208310611aec5780518252601f199092019160209182019101611acd565b51815160209384036101000a600019018019909216911617905292019485525060405193849003019092208054600160a060020a031916600160a060020a03949094169390931790925550505050565b600954600160a060020a03163214611ba0576040805160e560020a62461bcd02815260206004820152602f60248201526000805160206129688339815191526044820152600080516020612908833981519152606482015290519081900360840190fd5b6000611bab866124c7565b905080600160a060020a031663de4cd842868686866040518563ffffffff1660e060020a02815260040180806020018060200180602001858152602001848103845288818151815260200191508051906020019080838360005b83811015611c1d578181015183820152602001611c05565b50505050905090810190601f168015611c4a5780820380516001836020036101000a031916815260200191505b50848103835287518152875160209182019189019080838360005b83811015611c7d578181015183820152602001611c65565b50505050905090810190601f168015611caa5780820380516001836020036101000a031916815260200191505b50848103825286518152865160209182019188019080838360005b83811015611cdd578181015183820152602001611cc5565b50505050905090810190601f168015611d0a5780820380516001836020036101000a031916815260200191505b50975050505050505050600060405180830381600087803b158015611d2e57600080fd5b505af1158015611d42573d6000803e3d6000fd5b505060405160e060020a63e190206302815260206004820181815289516024840152895160009550600160a060020a038716945063e1902063938b938392604490920191908501908083838b5b83811015611da7578181015183820152602001611d8f565b50505050905090810190601f168015611dd45780820380516001836020036101000a031916815260200191505b509250505060206040518083038186803b158015611df157600080fd5b505afa158015611e05573d6000803e3d6000fd5b505050506040513d6020811015611e1b57600080fd5b50519050600160a060020a0381161515611e83576040805160e560020a62461bcd02815260206004820152602a6024820152600080516020612948833981519152604482015260b260020a691b48191bd8dd5b595b9d02606482015290519081900360840190fd5b6011546040805160e160020a630a52679d028152600160a060020a038481166024830152600482018390526009604483015260b860020a687369676e6174757265026064830152915191909216916314a4cf3a91608480830192600092919082900301818387803b158015611ef757600080fd5b505af1158015611f0b573d6000803e3d6000fd5b5050505050505050505050565b601154600160a060020a031681565b6000611f32836127e8565b1515611f88576040805160e560020a62461bcd02815260206004820152601a60248201527f54686520646f63756d656e7420646f65736e2774206578697374000000000000604482015290519081900360640190fd5b6000600f846040518082805190602001908083835b60208310611fbc5780518252601f199092019160209182019101611f9d565b51815160209384036101000a600019018019909216911617905292019485525060405193849003810184205460e060020a63e190206302855260048501828152885160248701528851600160a060020a039092169563e19020639550899450909283926044909201919085019080838360005b8381101561204757818101518382015260200161202f565b50505050905090810190601f1680156120745780820380516001836020036101000a031916815260200191505b509250505060206040518083038186803b15801561209157600080fd5b505afa1580156120a5573d6000803e3d6000fd5b505050506040513d60208110156120bb57600080fd5b50519050600160a060020a0381161515612123576040805160e560020a62461bcd02815260206004820152602a6024820152600080516020612948833981519152604482015260b260020a691b48191bd8dd5b595b9d02606482015290519081900360840190fd5b9392505050565b600d80548290811061213857fe5b600091825260209182902001805460408051601f6002600019610100600187161502019094169390930492830185900485028101850190915281815293509091830182828015611a4d5780601f10611a2257610100808354040283529160200191611a4d565b600e5481565b600a54600160a060020a031681565b60006121be826127e8565b1515612215576040805160e560020a62461bcd0281526020600482015260276024820152600080516020612988833981519152604482015260ca60020a661d08195e1a5cdd02606482015290519081900360840190fd5b6000600f836040518082805190602001908083835b602083106122495780518252601f19909201916020918201910161222a565b51815160209384036101000a60001901801990921691161790529201948552506040805194859003820185205460e060020a638525855d0286529051600160a060020a0390911694638525855d94506004808201945090829003018186803b1580156122b457600080fd5b505afa1580156122c8573d6000803e3d6000fd5b505050506040513d60208110156122de57600080fd5b50519050600160a060020a0381161515612345576040805160e560020a62461bcd0281526020600482015260296024820152600080516020612928833981519152604482015260ba60020a6808191bd8dd5b595b9d02606482015290519081900360840190fd5b92915050565b600954600160a060020a031632146123af576040805160e560020a62461bcd02815260206004820152602f60248201526000805160206129688339815191526044820152600080516020612908833981519152606482015290519081900360840190fd5b600b8054600160a060020a03808516600160a060020a03199283161790925560118054848416921691909117908190556040805160e060020a6321624b47028152306004820181815260248301938452600c8054600260001960018316156101000201909116046044850181905295909616956321624b4795929490939192909160640190849080156124835780601f1061245857610100808354040283529160200191612483565b820191906000526020600020905b81548152906001019060200180831161246657829003601f168201915b50509350505050600060405180830381600087803b1580156124a457600080fd5b505af1158015611170573d6000803e3d6000fd5b600954600160a060020a031681565b60006124d2826127e8565b1561254857600f826040518082805190602001908083835b602083106125095780518252601f1990920191602091820191016124ea565b51815160209384036101000a6000190180199092169116179052920194855250604051938490030190922054600160a060020a031692506117db915050565b600a5460408051600160a060020a03909216604483018190526024830191825284516064840152845160009360609387928492829160849091019060208601908083838c5b838110156125a557818101518382015260200161258d565b50505050905090810190601f1680156125d25780820380516001836020036101000a031916815260200191505b5060408051601f19818403018152918152602082018051600160e060020a031660e260020a63226ddea10217815290518251929650945084935091508083835b602083106126315780518252601f199092019160209182019101612612565b6001836020036101000a038019825116818451168082178552505050505050905001915050600060405180830381855af49150503d8060008114612691576040519150601f19603f3d011682016040523d82523d6000602084013e612696565b606091505b50915091508115156126f2576040805160e560020a62461bcd02815260206004820152601e60248201527f4572726f72207768696c65206465706c6f79696e6720646f63756d656e740000604482015290519081900360640190fd5b6126fb81612868565b600f856040518082805190602001908083835b6020831061272d5780518252601f19909201916020918201910161270e565b51815160209384036101000a600019018019909216911617905292019485525060405193849003810184208054600160a060020a031916600160a060020a03969096169590951790945550508551600f9287929182918401908083835b602083106127a95780518252601f19909201916020918201910161278a565b51815160209384036101000a6000190180199092169116179052920194855250604051938490030190922054600160a060020a03169695505050505050565b600080600160a060020a0316600f836040518082805190602001908083835b602083106128265780518252601f199092019160209182019101612807565b51815160209384036101000a6000190180199092169116179052920194855250604051938490030190922054600160a060020a03169290921415949350505050565b6020015190565b828054600181600116156101000203166002900490600052602060002090601f016020900481019282601f106128b057805160ff19168380011785556128dd565b828001600101855582156128dd579182015b828111156128dd5782518255916020019190600101906128c2565b506128e99291506128ed565b5090565b6117f391905b808211156128e957600081556001016128f356fe6f726d207468697320616374696f6e00000000000000000000000000000000004572726f72207768696c652072657472696576696e672066696c652066726f6d4572726f72207768696c652072657472696576696e67206576656e742066726f4f6e6c79205369676e617475726974206163636f756e742063616e207065726654686520646f63756d656e742077697468207468697320696420646f65736e27a165627a7a72305820632132a61aef77f76ccde29417cf389684463728e7962be26895a66ae5be123e0029",
  "source": "pragma solidity <0.6.0;\n\n/*\nGas to deploy: 2.882.648\n*/\n\nimport \"./interfaces/SignatureInterface.sol\";\nimport \"./interfaces/DocumentInterface.sol\";\nimport \"./interfaces/UserInterface.sol\";\nimport \"./interfaces/FileInterface.sol\";\nimport \"./interfaces/EventInterface.sol\";\nimport \"./libraries/Utils.sol\";\n\n\ncontract Signature is SignatureInterface {\n    address public signaturit;\n    address public deployer;\n    address public owner;\n\n    string public id;\n\n    string[] public documentsId;\n\n    int public createdAt;\n\n    mapping(string => DocumentInterface) private documents;\n\n    mapping(string => address) private clauses;\n\n    UserInterface public userSmartContract;\n\n    constructor(\n        string memory signatureId,\n        address deployerAddress,\n        int signatureCreatedAt\n    ) public {\n        signaturit = msg.sender;\n        deployer = deployerAddress;\n\n        id = signatureId;\n        createdAt = signatureCreatedAt;\n    }\n\n    modifier signaturitOnly() {\n        require(\n            tx.origin == signaturit,\n            \"Only Signaturit account can perform this action\"\n        );\n\n        _;\n    }\n\n    modifier ownerOnly() {\n        require(\n            msg.sender == owner,\n            \"Only the owner account can perform this action\"\n        );\n\n        _;\n    }\n\n    function setSignatureOwner (\n        address signatureOwner,\n        address userSmartContractAddress\n    )\n        public\n        signaturitOnly\n    {\n        owner = signatureOwner;\n\n        userSmartContract = UserInterface(userSmartContractAddress);\n        userSmartContract.addSignature(address(this), id);\n    }\n\n    function createDocument(\n        string memory documentId,\n        string memory signatureType,\n        uint documentCreatedAt\n    )\n        public\n        signaturitOnly\n    {\n        DocumentInterface document = _getDocument(documentId);\n\n        document.init(signatureType, documentCreatedAt);\n\n        userSmartContract.addDocument(address(document));\n\n        documentsId.push(documentId);\n    }\n\n    function setDocumentOwner (\n        string memory documentId,\n        address documentOwner\n    )\n        public\n        signaturitOnly\n    {\n        DocumentInterface document = _getDocument(documentId);\n\n        document.setOwner(documentOwner);\n    }\n\n    function setSignedFileHash (\n        string memory documentId,\n        string memory signedFileHash\n    )\n        public\n        signaturitOnly\n    {\n        DocumentInterface document = _getDocument(documentId);\n\n        document.setFileHash(signedFileHash);\n    }\n\n    function cancelDocument (\n        string memory documentId,\n        string memory cancelReason\n    )\n        public\n        ownerOnly\n    {\n        DocumentInterface document = _getDocument(documentId);\n\n        document.cancel(cancelReason);\n    }\n\n    function createFile(\n        string memory documentId,\n        string memory fileId,\n        string memory fileName,\n        string memory fileHash,\n        uint fileCreatedAt,\n        uint fileSize\n    )\n        public\n        signaturitOnly\n    {\n        DocumentInterface document = _getDocument(documentId);\n\n        document.\n            createFile(\n            fileId,\n            fileName,\n            fileHash,\n            fileCreatedAt,\n            fileSize\n        );\n\n        FileInterface signatureFile = document.file();\n        require(\n            address(signatureFile) != address(0),\n            \"Error while retrieving file from document\"\n        );\n\n        userSmartContract.addFile(\n            \"signature\",\n            address(signatureFile)\n        );\n    }\n\n    function createEvent(\n        string memory documentId,\n        string memory eventId,\n        string memory eventType,\n        string memory eventUserAgent,\n        uint eventCreatedAt\n    )\n        public\n        signaturitOnly\n    {\n        DocumentInterface document = _getDocument(documentId);\n\n        document.createEvent(\n            eventId,\n            eventType,\n            eventUserAgent,\n            eventCreatedAt\n        );\n\n        EventInterface signatureEvent = document.getEvent(eventId);\n\n        require(\n            address(signatureEvent) != address(0),\n            \"Error while retrieving event from document\"\n        );\n\n        userSmartContract.addEvent(\"signature\", address(signatureEvent));\n    }\n\n    function setClause(\n        string memory clauseType,\n        address clauseAddress\n    )\n        public\n        signaturitOnly\n    {\n        clauses[clauseType] = clauseAddress;\n    }\n\n    function getClause(\n        string memory clauseType\n    )\n        public\n        view\n        returns (address clauseAddress)\n    {\n        require(\n            clauses[clauseType] != address(0),\n            \"This clause is not set\"\n        );\n\n        return clauses[clauseType];\n    }\n\n    function getDocument(\n        string memory documentId\n    )\n        public\n        view\n        returns (DocumentInterface)\n    {\n        require(\n            _documentExist(documentId),\n            \"The document with this id doesn't exist\"\n        );\n\n        return documents[documentId];\n    }\n\n    function getDocumentsSize()\n        public\n        view\n        returns (uint)\n    {\n        return documentsId.length;\n    }\n\n    function getFile(\n        string memory documentId\n    )\n        public\n        view\n        returns (FileInterface)\n    {\n        require(\n            _documentExist(documentId),\n            \"The document with this id doesn't exist\"\n        );\n\n        FileInterface signatureFile = documents[documentId].file();\n\n        require(\n            address(signatureFile) != address(0),\n            \"Error while retrieving file from document\"\n        );\n\n        return signatureFile;\n    }\n\n    function getEvent(\n        string memory documentId,\n        string memory eventId\n    )\n        public\n        view\n        returns (EventInterface)\n    {\n        require(\n            _documentExist(documentId),\n            \"The document doesn't exist\"\n        );\n\n        EventInterface signatureEvent = documents[documentId].getEvent(\n            eventId\n        );\n\n        require(\n            address(signatureEvent) != address(0),\n            \"Error while retrieving event from document\"\n        );\n\n        return signatureEvent;\n    }\n\n    function _getDocument(\n        string memory documentId\n    )\n        private\n        returns (DocumentInterface)\n    {\n        if (_documentExist(documentId))\n            return documents[documentId];\n\n        (\n            bool success,\n            bytes memory returnData\n        ) = deployer.delegatecall(\n            abi.encodeWithSignature(\"deployDocument(string,address)\",\n            documentId,\n            deployer)\n        );\n\n        require(\n            success,\n            \"Error while deploying document\"\n        );\n\n        documents[documentId] = DocumentInterface(\n            Utils._bytesToAddress(returnData)\n        );\n\n        return documents[documentId];\n    }\n\n    function _documentExist(\n        string memory documentId\n    )\n        private\n        view\n        returns (bool)\n    {\n        return address(documents[documentId]) != address(0);\n    }\n}\n",
  "sourcePath": "/Users/alex/workspace/signaturit-solidity-contracts/contracts/Signature.sol",
  "compiler": {
    "name": "solc",
    "version": "0.5.0+commit.1d4f565a.Emscripten.clang"
  },
  "schemaVersion": "3.0.13",
  "updatedAt": "2019-08-30T15:18:25.778Z",
  "devdoc": {
    "methods": {}
  },
  "userdoc": {
    "methods": {}
  }
}