{
  "contractName": "SignaturitUser",
  "abi": [
    {
      "constant": true,
      "inputs": [
        {
          "name": "",
          "type": "bytes32"
        }
      ],
      "name": "addressAttr",
      "outputs": [
        {
          "name": "",
          "type": "address"
        }
      ],
      "payable": false,
      "stateMutability": "view",
      "type": "function"
    },
    {
      "constant": true,
      "inputs": [
        {
          "name": "",
          "type": "bytes32"
        }
      ],
      "name": "numberAttr",
      "outputs": [
        {
          "name": "",
          "type": "int256"
        }
      ],
      "payable": false,
      "stateMutability": "view",
      "type": "function"
    },
    {
      "constant": true,
      "inputs": [
        {
          "name": "",
          "type": "bytes32"
        }
      ],
      "name": "boolAttr",
      "outputs": [
        {
          "name": "",
          "type": "bool"
        }
      ],
      "payable": false,
      "stateMutability": "view",
      "type": "function"
    },
    {
      "constant": true,
      "inputs": [],
      "name": "ownerAddress",
      "outputs": [
        {
          "name": "",
          "type": "address"
        }
      ],
      "payable": false,
      "stateMutability": "view",
      "type": "function"
    },
    {
      "constant": true,
      "inputs": [
        {
          "name": "",
          "type": "bytes32"
        },
        {
          "name": "",
          "type": "uint256"
        }
      ],
      "name": "numberArrayAttr",
      "outputs": [
        {
          "name": "",
          "type": "int256"
        }
      ],
      "payable": false,
      "stateMutability": "view",
      "type": "function"
    },
    {
      "constant": true,
      "inputs": [],
      "name": "rootAddress",
      "outputs": [
        {
          "name": "",
          "type": "address"
        }
      ],
      "payable": false,
      "stateMutability": "view",
      "type": "function"
    },
    {
      "constant": true,
      "inputs": [
        {
          "name": "",
          "type": "bytes32"
        },
        {
          "name": "",
          "type": "uint256"
        }
      ],
      "name": "boolArrayAttr",
      "outputs": [
        {
          "name": "",
          "type": "bool"
        }
      ],
      "payable": false,
      "stateMutability": "view",
      "type": "function"
    },
    {
      "constant": true,
      "inputs": [
        {
          "name": "",
          "type": "bytes32"
        }
      ],
      "name": "stringAttr",
      "outputs": [
        {
          "name": "",
          "type": "string"
        }
      ],
      "payable": false,
      "stateMutability": "view",
      "type": "function"
    },
    {
      "constant": true,
      "inputs": [
        {
          "name": "",
          "type": "bytes32"
        },
        {
          "name": "",
          "type": "uint256"
        }
      ],
      "name": "addressArrayAttr",
      "outputs": [
        {
          "name": "",
          "type": "address"
        }
      ],
      "payable": false,
      "stateMutability": "view",
      "type": "function"
    },
    {
      "inputs": [
        {
          "name": "_ownerAddress",
          "type": "address"
        }
      ],
      "payable": false,
      "stateMutability": "nonpayable",
      "type": "constructor"
    },
    {
      "constant": false,
      "inputs": [
        {
          "name": "key",
          "type": "string"
        },
        {
          "name": "value",
          "type": "string"
        }
      ],
      "name": "setStringAttribute",
      "outputs": [],
      "payable": false,
      "stateMutability": "nonpayable",
      "type": "function"
    },
    {
      "constant": false,
      "inputs": [
        {
          "name": "key",
          "type": "string"
        }
      ],
      "name": "deleteStringAttribute",
      "outputs": [],
      "payable": false,
      "stateMutability": "nonpayable",
      "type": "function"
    },
    {
      "constant": true,
      "inputs": [
        {
          "name": "key",
          "type": "string"
        }
      ],
      "name": "getStringAttribute",
      "outputs": [
        {
          "name": "",
          "type": "string"
        }
      ],
      "payable": false,
      "stateMutability": "view",
      "type": "function"
    },
    {
      "constant": false,
      "inputs": [
        {
          "name": "key",
          "type": "string"
        },
        {
          "name": "value",
          "type": "string"
        }
      ],
      "name": "setStringArrayAttribute",
      "outputs": [],
      "payable": false,
      "stateMutability": "nonpayable",
      "type": "function"
    },
    {
      "constant": false,
      "inputs": [
        {
          "name": "key",
          "type": "string"
        },
        {
          "name": "index",
          "type": "uint256"
        }
      ],
      "name": "deleteStringArrayAttribute",
      "outputs": [],
      "payable": false,
      "stateMutability": "nonpayable",
      "type": "function"
    },
    {
      "constant": true,
      "inputs": [
        {
          "name": "key",
          "type": "string"
        },
        {
          "name": "index",
          "type": "uint256"
        }
      ],
      "name": "getStringArrayAttribute",
      "outputs": [
        {
          "name": "",
          "type": "string"
        }
      ],
      "payable": false,
      "stateMutability": "view",
      "type": "function"
    },
    {
      "constant": false,
      "inputs": [
        {
          "name": "key",
          "type": "string"
        },
        {
          "name": "value",
          "type": "int256"
        }
      ],
      "name": "setNumberAttribute",
      "outputs": [],
      "payable": false,
      "stateMutability": "nonpayable",
      "type": "function"
    },
    {
      "constant": false,
      "inputs": [
        {
          "name": "key",
          "type": "string"
        }
      ],
      "name": "deleteNumberAttribute",
      "outputs": [],
      "payable": false,
      "stateMutability": "nonpayable",
      "type": "function"
    },
    {
      "constant": true,
      "inputs": [
        {
          "name": "key",
          "type": "string"
        }
      ],
      "name": "getNumberAttribute",
      "outputs": [
        {
          "name": "",
          "type": "int256"
        }
      ],
      "payable": false,
      "stateMutability": "view",
      "type": "function"
    },
    {
      "constant": false,
      "inputs": [
        {
          "name": "key",
          "type": "string"
        },
        {
          "name": "value",
          "type": "int256"
        }
      ],
      "name": "setNumberArrayAttribute",
      "outputs": [],
      "payable": false,
      "stateMutability": "nonpayable",
      "type": "function"
    },
    {
      "constant": false,
      "inputs": [
        {
          "name": "key",
          "type": "string"
        },
        {
          "name": "index",
          "type": "uint256"
        }
      ],
      "name": "deleteNumberArrayAttribute",
      "outputs": [],
      "payable": false,
      "stateMutability": "nonpayable",
      "type": "function"
    },
    {
      "constant": true,
      "inputs": [
        {
          "name": "key",
          "type": "string"
        },
        {
          "name": "index",
          "type": "uint256"
        }
      ],
      "name": "getNumberArrayAttribute",
      "outputs": [
        {
          "name": "",
          "type": "int256"
        }
      ],
      "payable": false,
      "stateMutability": "view",
      "type": "function"
    },
    {
      "constant": false,
      "inputs": [
        {
          "name": "key",
          "type": "string"
        },
        {
          "name": "value",
          "type": "address"
        }
      ],
      "name": "setAddressAttribute",
      "outputs": [],
      "payable": false,
      "stateMutability": "nonpayable",
      "type": "function"
    },
    {
      "constant": false,
      "inputs": [
        {
          "name": "key",
          "type": "string"
        }
      ],
      "name": "deleteAddressAttribute",
      "outputs": [],
      "payable": false,
      "stateMutability": "nonpayable",
      "type": "function"
    },
    {
      "constant": true,
      "inputs": [
        {
          "name": "key",
          "type": "string"
        }
      ],
      "name": "getAddressAttribute",
      "outputs": [
        {
          "name": "",
          "type": "address"
        }
      ],
      "payable": false,
      "stateMutability": "view",
      "type": "function"
    },
    {
      "constant": false,
      "inputs": [
        {
          "name": "key",
          "type": "string"
        },
        {
          "name": "value",
          "type": "address"
        }
      ],
      "name": "setAddressArrayAttribute",
      "outputs": [],
      "payable": false,
      "stateMutability": "nonpayable",
      "type": "function"
    },
    {
      "constant": false,
      "inputs": [
        {
          "name": "key",
          "type": "string"
        },
        {
          "name": "index",
          "type": "uint256"
        }
      ],
      "name": "deleteAddressArrayAttribute",
      "outputs": [],
      "payable": false,
      "stateMutability": "nonpayable",
      "type": "function"
    },
    {
      "constant": true,
      "inputs": [
        {
          "name": "key",
          "type": "string"
        },
        {
          "name": "index",
          "type": "uint256"
        }
      ],
      "name": "getAddressArrayAttribute",
      "outputs": [
        {
          "name": "",
          "type": "address"
        }
      ],
      "payable": false,
      "stateMutability": "view",
      "type": "function"
    },
    {
      "constant": false,
      "inputs": [
        {
          "name": "key",
          "type": "string"
        },
        {
          "name": "value",
          "type": "bool"
        }
      ],
      "name": "setBooleanAttribute",
      "outputs": [],
      "payable": false,
      "stateMutability": "nonpayable",
      "type": "function"
    },
    {
      "constant": false,
      "inputs": [
        {
          "name": "key",
          "type": "string"
        }
      ],
      "name": "deleteBooleanAttribute",
      "outputs": [],
      "payable": false,
      "stateMutability": "nonpayable",
      "type": "function"
    },
    {
      "constant": true,
      "inputs": [
        {
          "name": "key",
          "type": "string"
        }
      ],
      "name": "getBooleanAttribute",
      "outputs": [
        {
          "name": "",
          "type": "bool"
        }
      ],
      "payable": false,
      "stateMutability": "view",
      "type": "function"
    },
    {
      "constant": false,
      "inputs": [
        {
          "name": "key",
          "type": "string"
        },
        {
          "name": "value",
          "type": "bool"
        }
      ],
      "name": "setBooleanArrayAttribute",
      "outputs": [],
      "payable": false,
      "stateMutability": "nonpayable",
      "type": "function"
    },
    {
      "constant": true,
      "inputs": [
        {
          "name": "key",
          "type": "string"
        },
        {
          "name": "index",
          "type": "uint256"
        }
      ],
      "name": "getBooleanArrayAttribute",
      "outputs": [
        {
          "name": "",
          "type": "bool"
        }
      ],
      "payable": false,
      "stateMutability": "view",
      "type": "function"
    },
    {
      "constant": false,
      "inputs": [
        {
          "name": "key",
          "type": "string"
        },
        {
          "name": "index",
          "type": "uint256"
        }
      ],
      "name": "deleteBooleanArrayAttribute",
      "outputs": [],
      "payable": false,
      "stateMutability": "nonpayable",
      "type": "function"
    }
  ],
  "bytecode": "0x608060405234801561001057600080fd5b506040516020806129718339810180604052602081101561003057600080fd5b5051600a805433600160a060020a031991821617909155600b8054909116600160a060020a039092169190911790556129038061006e6000396000f3fe6080604052600436106101875763ffffffff60e060020a6000350416630611ff70811461018c578063080f7f90146102b457806310a093331461036957806324ead3c61461041c5780632ccc8381146104cd57806334311d8e146105925780633454a8161461064e578063366e8b8f1461069457806344947cec146107475780635e734e291461080c57806361aab0181461094257806361d5b6571461096c57806366ae09bc14610a1f5780636793bcc214610a495780636b21944a14610afc57806375b877e514610bad57806383eff6ef14610c5e5780638c9c487414610d115780638caf4de314610dc25780638f84aa0914610ef85780639226b7e414610f0d5780639518d93314610fbe5780639cefb31e14610fee578063a6d1c1b7146110a1578063aaa2b8c814611154578063ac3e500114611169578063d47f3f2514611199578063d661f878146111c3578063e09b5a971461127f578063eebb59a014611330578063ef0ac8c814611360578063f3a2627414611413578063ff6ccad6146114c6575b600080fd5b34801561019857600080fd5b5061023f600480360360408110156101af57600080fd5b810190602081018135602060020a8111156101c957600080fd5b8201836020820111156101db57600080fd5b803590602001918460018302840111602060020a831117156101fc57600080fd5b91908080601f0160208091040260200160405190810160405280939291908181526020018383808284376000920191909152509295505091359250611577915050565b6040805160208082528351818301528351919283929083019185019080838360005b83811015610279578181015183820152602001610261565b50505050905090810190601f1680156102a65780820380516001836020036101000a031916815260200191505b509250505060405180910390f35b3480156102c057600080fd5b50610367600480360360408110156102d757600080fd5b810190602081018135602060020a8111156102f157600080fd5b82018360208201111561030357600080fd5b803590602001918460018302840111602060020a8311171561032457600080fd5b91908080601f016020809104026020016040519081016040528093929190818152602001838380828437600092019190915250929550509135925061166a915050565b005b34801561037557600080fd5b506103676004803603604081101561038c57600080fd5b810190602081018135602060020a8111156103a657600080fd5b8201836020820111156103b857600080fd5b803590602001918460018302840111602060020a831117156103d957600080fd5b91908080601f01602080910402602001604051908101604052809392919081815260200183838082843760009201919091525092955050913592506117ad915050565b34801561042857600080fd5b5061023f6004803603602081101561043f57600080fd5b810190602081018135602060020a81111561045957600080fd5b82018360208201111561046b57600080fd5b803590602001918460018302840111602060020a8311171561048c57600080fd5b91908080601f0160208091040260200160405190810160405280939291908181526020018383808284376000920191909152509295506118e0945050505050565b3480156104d957600080fd5b5061057e600480360360208110156104f057600080fd5b810190602081018135602060020a81111561050a57600080fd5b82018360208201111561051c57600080fd5b803590602001918460018302840111602060020a8311171561053d57600080fd5b91908080601f01602080910402602001604051908101604052809392919081815260200183838082843760009201919091525092955061198f945050505050565b604080519115158252519081900360200190f35b34801561059e57600080fd5b50610367600480360360408110156105b557600080fd5b810190602081018135602060020a8111156105cf57600080fd5b8201836020820111156105e157600080fd5b803590602001918460018302840111602060020a8311171561060257600080fd5b91908080601f01602080910402602001604051908101604052809392919081815260200183838082843760009201919091525092955050509035600160a060020a031691506119b49050565b34801561065a57600080fd5b506106786004803603602081101561067157600080fd5b5035611a52565b60408051600160a060020a039092168252519081900360200190f35b3480156106a057600080fd5b50610367600480360360408110156106b757600080fd5b810190602081018135602060020a8111156106d157600080fd5b8201836020820111156106e357600080fd5b803590602001918460018302840111602060020a8311171561070457600080fd5b91908080601f0160208091040260200160405190810160405280939291908181526020018383808284376000920191909152509295505050503515159050611a6d565b34801561075357600080fd5b506107fa6004803603604081101561076a57600080fd5b810190602081018135602060020a81111561078457600080fd5b82018360208201111561079657600080fd5b803590602001918460018302840111602060020a831117156107b757600080fd5b91908080601f0160208091040260200160405190810160405280939291908181526020018383808284376000920191909152509295505091359250611afc915050565b60408051918252519081900360200190f35b34801561081857600080fd5b506103676004803603604081101561082f57600080fd5b810190602081018135602060020a81111561084957600080fd5b82018360208201111561085b57600080fd5b803590602001918460018302840111602060020a8311171561087c57600080fd5b91908080601f0160208091040260200160405190810160405280939291908181526020018383808284376000920191909152509295949360208101935035915050602060020a8111156108ce57600080fd5b8201836020820111156108e057600080fd5b803590602001918460018302840111602060020a8311171561090157600080fd5b91908080601f016020809104026020016040519081016040528093929190818152602001838380828437600092019190915250929550611b58945050505050565b34801561094e57600080fd5b506107fa6004803603602081101561096557600080fd5b5035611bfd565b34801561097857600080fd5b5061057e6004803603604081101561098f57600080fd5b810190602081018135602060020a8111156109a957600080fd5b8201836020820111156109bb57600080fd5b803590602001918460018302840111602060020a831117156109dc57600080fd5b91908080601f0160208091040260200160405190810160405280939291908181526020018383808284376000920191909152509295505091359250611c0f915050565b348015610a2b57600080fd5b5061057e60048036036020811015610a4257600080fd5b5035611c76565b348015610a5557600080fd5b5061036760048036036040811015610a6c57600080fd5b810190602081018135602060020a811115610a8657600080fd5b820183602082011115610a9857600080fd5b803590602001918460018302840111602060020a83111715610ab957600080fd5b91908080601f0160208091040260200160405190810160405280939291908181526020018383808284376000920191909152509295505050503515159050611c8b565b348015610b0857600080fd5b5061036760048036036020811015610b1f57600080fd5b810190602081018135602060020a811115610b3957600080fd5b820183602082011115610b4b57600080fd5b803590602001918460018302840111602060020a83111715610b6c57600080fd5b91908080601f016020809104026020016040519081016040528093929190818152602001838380828437600092019190915250929550611d3d945050505050565b348015610bb957600080fd5b5061036760048036036020811015610bd057600080fd5b810190602081018135602060020a811115610bea57600080fd5b820183602082011115610bfc57600080fd5b803590602001918460018302840111602060020a83111715610c1d57600080fd5b91908080601f016020809104026020016040519081016040528093929190818152602001838380828437600092019190915250929550611dc4945050505050565b348015610c6a57600080fd5b5061036760048036036040811015610c8157600080fd5b810190602081018135602060020a811115610c9b57600080fd5b820183602082011115610cad57600080fd5b803590602001918460018302840111602060020a83111715610cce57600080fd5b91908080601f0160208091040260200160405190810160405280939291908181526020018383808284376000920191909152509295505091359250611e63915050565b348015610d1d57600080fd5b5061067860048036036020811015610d3457600080fd5b810190602081018135602060020a811115610d4e57600080fd5b820183602082011115610d6057600080fd5b803590602001918460018302840111602060020a83111715610d8157600080fd5b91908080601f016020809104026020016040519081016040528093929190818152602001838380828437600092019190915250929550611fa9945050505050565b348015610dce57600080fd5b5061036760048036036040811015610de557600080fd5b810190602081018135602060020a811115610dff57600080fd5b820183602082011115610e1157600080fd5b803590602001918460018302840111602060020a83111715610e3257600080fd5b91908080601f0160208091040260200160405190810160405280939291908181526020018383808284376000920191909152509295949360208101935035915050602060020a811115610e8457600080fd5b820183602082011115610e9657600080fd5b803590602001918460018302840111602060020a83111715610eb757600080fd5b91908080601f016020809104026020016040519081016040528093929190818152602001838380828437600092019190915250929550611fd4945050505050565b348015610f0457600080fd5b5061067861206b565b348015610f1957600080fd5b5061036760048036036020811015610f3057600080fd5b810190602081018135602060020a811115610f4a57600080fd5b820183602082011115610f5c57600080fd5b803590602001918460018302840111602060020a83111715610f7d57600080fd5b91908080601f01602080910402602001604051908101604052809392919081815260200183838082843760009201919091525092955061207a945050505050565b348015610fca57600080fd5b506107fa60048036036040811015610fe157600080fd5b5080359060200135612107565b348015610ffa57600080fd5b506103676004803603604081101561101157600080fd5b810190602081018135602060020a81111561102b57600080fd5b82018360208201111561103d57600080fd5b803590602001918460018302840111602060020a8311171561105e57600080fd5b91908080601f0160208091040260200160405190810160405280939291908181526020018383808284376000920191909152509295505091359250612137915050565b3480156110ad57600080fd5b50610367600480360360408110156110c457600080fd5b810190602081018135602060020a8111156110de57600080fd5b8201836020820111156110f057600080fd5b803590602001918460018302840111602060020a8311171561111157600080fd5b91908080601f01602080910402602001604051908101604052809392919081815260200183838082843760009201919091525092955050913592506121ba915050565b34801561116057600080fd5b5061067861224d565b34801561117557600080fd5b5061057e6004803603604081101561118c57600080fd5b508035906020013561225c565b3480156111a557600080fd5b5061023f600480360360208110156111bc57600080fd5b503561229e565b3480156111cf57600080fd5b50610367600480360360408110156111e657600080fd5b810190602081018135602060020a81111561120057600080fd5b82018360208201111561121257600080fd5b803590602001918460018302840111602060020a8311171561123357600080fd5b91908080601f01602080910402602001604051908101604052809392919081815260200183838082843760009201919091525092955050509035600160a060020a031691506123399050565b34801561128b57600080fd5b50610367600480360360208110156112a257600080fd5b810190602081018135602060020a8111156112bc57600080fd5b8201836020820111156112ce57600080fd5b803590602001918460018302840111602060020a831117156112ef57600080fd5b91908080601f0160208091040260200160405190810160405280939291908181526020018383808284376000920191909152509295506123e7945050505050565b34801561133c57600080fd5b506106786004803603604081101561135357600080fd5b5080359060200135612467565b34801561136c57600080fd5b506103676004803603604081101561138357600080fd5b810190602081018135602060020a81111561139d57600080fd5b8201836020820111156113af57600080fd5b803590602001918460018302840111602060020a831117156113d057600080fd5b91908080601f016020809104026020016040519081016040528093929190818152602001838380828437600092019190915250929550509135925061249e915050565b34801561141f57600080fd5b506106786004803603604081101561143657600080fd5b810190602081018135602060020a81111561145057600080fd5b82018360208201111561146257600080fd5b803590602001918460018302840111602060020a8311171561148357600080fd5b91908080601f01602080910402602001604051908101604052809392919081815260200183838082843760009201919091525092955050913592506125b4915050565b3480156114d257600080fd5b506107fa600480360360208110156114e957600080fd5b810190602081018135602060020a81111561150357600080fd5b82018360208201111561151557600080fd5b803590602001918460018302840111602060020a8311171561153657600080fd5b91908080601f016020809104026020016040519081016040528093929190818152602001838380828437600092019190915250929550612611945050505050565b6060600061158484612633565b6000818152600d6020526040902054909150831015611652576000818152600d602052604090208054849081106115b757fe5b600091825260209182902001805460408051601f60026000196101006001871615020190941693909304928301859004850281018501909152818152928301828280156116455780601f1061161a57610100808354040283529160200191611645565b820191906000526020600020905b81548152906001019060200180831161162857829003601f168201915b5050505050915050611664565b50506040805160208101909152600081525b92915050565b600a54600160a060020a031632146116cc576040805160e560020a62461bcd02815260206004820152602660248201526000805160206128b8833981519152604482015260d160020a6530b1ba34b7b702606482015290519081900360840190fd5b60006116d783612633565b6000818152601160205260409020549091508083106116f75750506117a9565b825b6001820381101561178557600083815260116020526040902080546001830190811061172157fe5b6000918252602080832090910154858352601190915260409091208054600160a060020a03909216918390811061175457fe5b60009182526020909120018054600160a060020a031916600160a060020a03929092169190911790556001016116f9565b5060008281526011602052604090208054906117a59060001983016126c5565b5050505b5050565b600a54600160a060020a0316321461180f576040805160e560020a62461bcd02815260206004820152602660248201526000805160206128b8833981519152604482015260d160020a6530b1ba34b7b702606482015290519081900360840190fd5b600061181a83612633565b6000818152600d602052604090205490915080831061183a5750506117a9565b825b600182038110156118c0576000838152600d6020526040902080546001830190811061186457fe5b90600052602060002001600d60008581526020019081526020016000208281548110151561188e57fe5b9060005260206000200190805460018160011615610100020316600290046118b79291906126e9565b5060010161183c565b506000828152600d602052604090208054906117a590600019830161276e565b606060006118ed83612633565b6000818152600c60209081526040918290208054835160026001831615610100026000190190921691909104601f810184900484028201840190945283815293945091908301828280156119825780601f1061195757610100808354040283529160200191611982565b820191906000526020600020905b81548152906001019060200180831161196557829003601f168201915b5050505050915050919050565b60008061199b83612633565b60009081526012602052604090205460ff169392505050565b600a54600160a060020a03163214611a16576040805160e560020a62461bcd02815260206004820152602660248201526000805160206128b8833981519152604482015260d160020a6530b1ba34b7b702606482015290519081900360840190fd5b6000611a2183612633565b60009081526010602052604090208054600160a060020a031916600160a060020a0393909316929092179091555050565b601060205260009081526040902054600160a060020a031681565b600a54600160a060020a03163214611acf576040805160e560020a62461bcd02815260206004820152602660248201526000805160206128b8833981519152604482015260d160020a6530b1ba34b7b702606482015290519081900360840190fd5b6000611ada83612633565b6000908152601260205260409020805460ff1916921515929092179091555050565b600080611b0884612633565b6000818152600f6020526040902054909150831015611b4e576000818152600f60205260409020805484908110611b3b57fe5b9060005260206000200154915050611664565b5060009392505050565b600a54600160a060020a03163214611bba576040805160e560020a62461bcd02815260206004820152602660248201526000805160206128b8833981519152604482015260d160020a6530b1ba34b7b702606482015290519081900360840190fd5b6000611bc583612633565b6000818152600d60209081526040822080546001810180835591845292829020865194955090936117a5939190910191860190612792565b600e6020526000908152604090205481565b600080611c1b84612633565b600081815260136020526040902054909150831015611b4e576000818152601360205260409020805484908110611c4e57fe5b90600052602060002090602091828204019190069054906101000a900460ff16915050611664565b60126020526000908152604090205460ff1681565b600a54600160a060020a03163214611ced576040805160e560020a62461bcd02815260206004820152602660248201526000805160206128b8833981519152604482015260d160020a6530b1ba34b7b702606482015290519081900360840190fd5b6000611cf883612633565b60009081526013602090815260408220805460018101825590835291819020908204018054931515601f9092166101000a91820260ff90920219909316179091555050565b600a54600160a060020a03163214611d9f576040805160e560020a62461bcd02815260206004820152602660248201526000805160206128b8833981519152604482015260d160020a6530b1ba34b7b702606482015290519081900360840190fd5b6000611daa82612633565b6000908152601260205260409020805460ff191690555050565b600a54600160a060020a03163214611e26576040805160e560020a62461bcd02815260206004820152602660248201526000805160206128b8833981519152604482015260d160020a6530b1ba34b7b702606482015290519081900360840190fd5b6000611e3182612633565b6040805160208181018084526000808452858152600c9092529290209051929350611e5e92909190612792565b505050565b600a54600160a060020a03163214611ec5576040805160e560020a62461bcd02815260206004820152602660248201526000805160206128b8833981519152604482015260d160020a6530b1ba34b7b702606482015290519081900360840190fd5b6000611ed083612633565b600081815260136020526040902054909150808310611ef05750506117a9565b825b60018203811015611f89576000838152601360205260409020805460018301908110611f1a57fe5b600091825260208083208183040154868452601390915260409092208054601f9092166101000a90920460ff16919083908110611f5357fe5b90600052602060002090602091828204019190066101000a81548160ff0219169083151502179055508080600101915050611ef2565b5060008281526013602052604090208054906117a5906000198301612800565b600080611fb583612633565b600090815260106020526040902054600160a060020a03169392505050565b600a54600160a060020a03163214612036576040805160e560020a62461bcd02815260206004820152602660248201526000805160206128b8833981519152604482015260d160020a6530b1ba34b7b702606482015290519081900360840190fd5b600061204183612633565b6000818152600c602090815260409091208451929350612065929091850190612792565b50505050565b600b54600160a060020a031681565b600a54600160a060020a031632146120dc576040805160e560020a62461bcd02815260206004820152602660248201526000805160206128b8833981519152604482015260d160020a6530b1ba34b7b702606482015290519081900360840190fd5b60006120e782612633565b60009081526010602052604090208054600160a060020a03191690555050565b600f6020528160005260406000208181548110151561212257fe5b90600052602060002001600091509150505481565b600a54600160a060020a03163214612199576040805160e560020a62461bcd02815260206004820152602660248201526000805160206128b8833981519152604482015260d160020a6530b1ba34b7b702606482015290519081900360840190fd5b60006121a483612633565b6000908152600e60205260409020919091555050565b600a54600160a060020a0316321461221c576040805160e560020a62461bcd02815260206004820152602660248201526000805160206128b8833981519152604482015260d160020a6530b1ba34b7b702606482015290519081900360840190fd5b600061222783612633565b6000908152600f6020908152604082208054600181018255908352912001919091555050565b600a54600160a060020a031681565b60136020528160005260406000208181548110151561227757fe5b9060005260206000209060209182820401919006915091509054906101000a900460ff1681565b600c6020908152600091825260409182902080548351601f6002600019610100600186161502019093169290920491820184900484028101840190945280845290918301828280156123315780601f1061230657610100808354040283529160200191612331565b820191906000526020600020905b81548152906001019060200180831161231457829003601f168201915b505050505081565b600a54600160a060020a0316321461239b576040805160e560020a62461bcd02815260206004820152602660248201526000805160206128b8833981519152604482015260d160020a6530b1ba34b7b702606482015290519081900360840190fd5b60006123a683612633565b6000908152601160209081526040822080546001810182559083529120018054600160a060020a031916600160a060020a0393909316929092179091555050565b600a54600160a060020a03163214612449576040805160e560020a62461bcd02815260206004820152602660248201526000805160206128b8833981519152604482015260d160020a6530b1ba34b7b702606482015290519081900360840190fd5b600061245482612633565b6000908152600e60205260408120555050565b60116020528160005260406000208181548110151561248257fe5b600091825260209091200154600160a060020a03169150829050565b600a54600160a060020a03163214612500576040805160e560020a62461bcd02815260206004820152602660248201526000805160206128b8833981519152604482015260d160020a6530b1ba34b7b702606482015290519081900360840190fd5b600061250b83612633565b6000818152600f602052604090205490915080831061252b5750506117a9565b825b60018203811015612594576000838152600f6020526040902080546001830190811061255557fe5b9060005260206000200154600f60008581526020019081526020016000208281548110151561258057fe5b60009182526020909120015560010161252d565b506000828152600f602052604090208054906117a59060001983016126c5565b6000806125c084612633565b600081815260116020526040902054909150831015611b4e5760008181526011602052604090208054849081106125f357fe5b600091825260209091200154600160a060020a031691506116649050565b60008061261d83612633565b6000908152600e60205260409020549392505050565b6000816040516020018080602001828103825283818151815260200191508051906020019080838360005b8381101561267657818101518382015260200161265e565b50505050905090810190601f1680156126a35780820380516001836020036101000a031916815260200191505b5092505050604051602081830303815290604052805190602001209050919050565b815481835581811115611e5e57600083815260209020611e5e918101908301612830565b828054600181600116156101000203166002900490600052602060002090601f016020900481019282601f10612722578054855561275e565b8280016001018555821561275e57600052602060002091601f016020900482015b8281111561275e578254825591600101919060010190612743565b5061276a929150612830565b5090565b815481835581811115611e5e57600083815260209020611e5e91810190830161284d565b828054600181600116156101000203166002900490600052602060002090601f016020900481019282601f106127d357805160ff191683800117855561275e565b8280016001018555821561275e579182015b8281111561275e5782518255916020019190600101906127e5565b815481835581811115611e5e57601f016020900481601f01602090048360005260206000209182019101611e5e91905b61284a91905b8082111561276a5760008155600101612836565b90565b61284a91905b8082111561276a5760006128678282612870565b50600101612853565b50805460018160011615610100020316600290046000825580601f1061289657506128b4565b601f0160209004906000526020600020908101906128b49190612830565b5056fe4f6e6c7920746865206f776e65722063616e20706572666f726d207468697320a165627a7a723058205658995a0e2c4d843fb7a1764aa9caaf1b41ae1e622b2534778535c1233559150029",
  "source": "pragma solidity <0.6.0;\n\nimport \"./interfaces/SignaturitUserInterface.sol\";\nimport \"./libraries/Utils.sol\";\n\n/*\nGas to deploy: 2.896.394\n*/\n\ncontract SignaturitUser is SignaturitUserInterface {\n    address public rootAddress;\n    address public ownerAddress;\n\n    mapping (bytes32 => string) public stringAttr;\n    mapping (bytes32 => string[]) private stringArrayAttr;\n    mapping (bytes32 => int) public numberAttr;\n    mapping (bytes32 => int[]) public numberArrayAttr;\n    mapping (bytes32 => address) public addressAttr;\n    mapping (bytes32 => address[]) public addressArrayAttr;\n    mapping (bytes32 => bool) public boolAttr;\n    mapping (bytes32 => bool[]) public boolArrayAttr;\n\n    constructor (\n        address _ownerAddress\n    ) public {\n        rootAddress = msg.sender;\n        ownerAddress = _ownerAddress;\n    }\n\n    modifier protected() {\n        require(\n            tx.origin == rootAddress,\n            \"Only the owner can perform this action\"\n        );\n\n        _;\n    }\n\n    function setStringAttribute (\n        string memory key,\n        string memory value\n    )\n        public\n        protected\n    {\n        bytes32 bytes32key = Utils.keccak(key);\n\n        stringAttr[bytes32key] = value;\n    }\n\n    function deleteStringAttribute (\n        string memory key\n    )\n        public\n        protected\n    {\n        bytes32 bytes32key = Utils.keccak(key);\n\n        stringAttr[bytes32key] = \"\";\n    }\n\n    function getStringAttribute (\n        string memory key\n    )\n        public\n        view\n        returns (string memory)\n    {\n        bytes32 bytes32key = Utils.keccak(key);\n\n        return stringAttr[bytes32key];\n    }\n\n    function setStringArrayAttribute (\n        string memory key,\n        string memory value\n    )\n        public\n        protected\n    {\n        bytes32 bytes32key = Utils.keccak(key);\n        stringArrayAttr[bytes32key].push(value);\n    }\n\n    function deleteStringArrayAttribute (\n        string memory key,\n        uint index\n    )\n        public\n        protected\n    {\n        bytes32 bytes32key = Utils.keccak(key);\n        uint arrayLength = stringArrayAttr[bytes32key].length;\n\n        if (index >= arrayLength) return;\n\n        for (uint i = index; i < arrayLength - 1; i++){\n            stringArrayAttr[bytes32key][i] = stringArrayAttr[bytes32key][i+1];\n        }\n\n        stringArrayAttr[bytes32key].length--;\n    }\n\n    function getStringArrayAttribute (\n        string memory key,\n        uint index\n    )\n        public\n        view\n        returns (string memory)\n    {\n        bytes32 bytes32key = Utils.keccak(key);\n\n        if (stringArrayAttr[bytes32key].length > index) {\n            return stringArrayAttr[bytes32key][index];\n        }\n\n        return \"\";\n    }\n\n    function setNumberAttribute (\n        string memory key,\n        int value\n    )\n        public\n        protected\n    {\n        bytes32 bytes32key = Utils.keccak(key);\n        numberAttr[bytes32key] = value;\n    }\n\n    function deleteNumberAttribute (\n        string memory key\n    )\n        public\n        protected\n    {\n        bytes32 bytes32key = Utils.keccak(key);\n        numberAttr[bytes32key] = 0;\n    }\n\n    function getNumberAttribute (\n        string memory key\n    )\n        public\n        view\n        returns (int)\n    {\n        bytes32 bytes32key = Utils.keccak(key);\n\n        return numberAttr[bytes32key];\n    }\n\n    function setNumberArrayAttribute (\n        string memory key,\n        int value\n    )\n        public\n        protected\n    {\n        bytes32 bytes32key = Utils.keccak(key);\n        numberArrayAttr[bytes32key].push(value);\n    }\n\n    function deleteNumberArrayAttribute (\n        string memory key,\n        uint index\n    )\n        public\n        protected\n    {\n        bytes32 bytes32key = Utils.keccak(key);\n        uint arrayLength = numberArrayAttr[bytes32key].length;\n\n        if (index >= arrayLength) return;\n\n        for (uint i = index; i < arrayLength - 1; i++){\n            numberArrayAttr[bytes32key][i] = numberArrayAttr[bytes32key][i+1];\n        }\n\n        numberArrayAttr[bytes32key].length--;\n    }\n\n    function getNumberArrayAttribute (\n        string memory key,\n        uint index\n    )\n        public\n        view\n        returns (int)\n    {\n        bytes32 bytes32key = Utils.keccak(key);\n\n        if (numberArrayAttr[bytes32key].length > index) {\n            return numberArrayAttr[bytes32key][index];\n        }\n\n        return 0;\n    }\n\n    function setAddressAttribute (\n        string memory key,\n        address value\n    )\n        public\n        protected\n    {\n        bytes32 bytes32key = Utils.keccak(key);\n\n        addressAttr[bytes32key] = value;\n    }\n\n    function deleteAddressAttribute (\n        string memory key\n    )\n        public\n        protected\n    {\n        bytes32 bytes32key = Utils.keccak(key);\n\n        addressAttr[bytes32key] = address(0);\n    }\n\n    function getAddressAttribute (\n        string memory key\n    )\n        public\n        view\n        returns (address)\n    {\n        bytes32 bytes32key = Utils.keccak(key);\n\n        return addressAttr[bytes32key];\n    }\n\n    function setAddressArrayAttribute (\n        string memory key,\n        address value\n    )\n        public\n        protected\n    {\n        bytes32 bytes32key = Utils.keccak(key);\n        addressArrayAttr[bytes32key].push(value);\n    }\n\n    function deleteAddressArrayAttribute (\n        string memory key,\n        uint index\n    )\n        public\n        protected\n    {\n        bytes32 bytes32key = Utils.keccak(key);\n        uint arrayLength = addressArrayAttr[bytes32key].length;\n\n        if (index >= arrayLength) return;\n\n        for (uint i = index; i < arrayLength - 1; i++){\n            addressArrayAttr[bytes32key][i] = addressArrayAttr[bytes32key][i+1];\n        }\n\n        addressArrayAttr[bytes32key].length--;\n    }\n\n    function getAddressArrayAttribute (\n        string memory key,\n        uint index\n    )\n        public\n        view\n        returns (address)\n    {\n        bytes32 bytes32key = Utils.keccak(key);\n\n        if (addressArrayAttr[bytes32key].length > index) {\n            return addressArrayAttr[bytes32key][index];\n        }\n\n        return address(0);\n    }\n\n    function setBooleanAttribute (\n        string memory key,\n        bool value\n    )\n        public\n        protected\n    {\n        bytes32 bytes32key = Utils.keccak(key);\n\n        boolAttr[bytes32key] = value;\n    }\n\n    function deleteBooleanAttribute (\n        string memory key\n    )\n        public\n        protected\n    {\n        bytes32 bytes32key = Utils.keccak(key);\n\n        boolAttr[bytes32key] = false;\n    }\n\n    function getBooleanAttribute (\n        string memory key\n    )\n        public\n        view\n        returns (bool)\n    {\n        bytes32 bytes32key = Utils.keccak(key);\n\n        return boolAttr[bytes32key];\n    }\n\n    function setBooleanArrayAttribute (\n        string memory key,\n        bool value\n    )\n        public\n        protected\n    {\n        bytes32 bytes32key = Utils.keccak(key);\n        boolArrayAttr[bytes32key].push(value);\n    }\n\n    function getBooleanArrayAttribute (\n        string memory key,\n        uint index\n    )\n        public\n        view\n        returns (bool)\n    {\n        bytes32 bytes32key = Utils.keccak(key);\n\n        if (boolArrayAttr[bytes32key].length > index) {\n            return boolArrayAttr[bytes32key][index];\n        }\n\n        return false;\n    }\n\n    function deleteBooleanArrayAttribute (\n        string memory key,\n        uint index\n    )\n        public\n        protected\n    {\n        bytes32 bytes32key = Utils.keccak(key);\n        uint arrayLength = boolArrayAttr[bytes32key].length;\n\n        if (index >= arrayLength) return;\n\n        for (uint i = index; i < arrayLength - 1; i++){\n            boolArrayAttr[bytes32key][i] = boolArrayAttr[bytes32key][i+1];\n        }\n\n        boolArrayAttr[bytes32key].length--;\n    }\n}\n",
  "sourcePath": "/home/administrator/workspace/signaturit-solidity-contracts/contracts/SignaturitUser.sol",
  "compiler": {
    "name": "solc",
    "version": "0.5.0+commit.1d4f565a.Emscripten.clang"
  },
  "schemaVersion": "2.0.3",
  "updatedAt": "2020-01-15T10:55:50.283Z"
}