{
  "contractName": "Signature",
  "abi": [
    {
      "constant": true,
      "inputs": [],
      "name": "userContract",
      "outputs": [
        {
          "name": "",
          "type": "address"
        }
      ],
      "payable": false,
      "stateMutability": "view",
      "type": "function"
    },
    {
      "constant": true,
      "inputs": [],
      "name": "owner",
      "outputs": [
        {
          "name": "",
          "type": "address"
        }
      ],
      "payable": false,
      "stateMutability": "view",
      "type": "function"
    },
    {
      "constant": true,
      "inputs": [],
      "name": "id",
      "outputs": [
        {
          "name": "",
          "type": "string"
        }
      ],
      "payable": false,
      "stateMutability": "view",
      "type": "function"
    },
    {
      "constant": true,
      "inputs": [
        {
          "name": "",
          "type": "uint256"
        }
      ],
      "name": "documentsId",
      "outputs": [
        {
          "name": "",
          "type": "string"
        }
      ],
      "payable": false,
      "stateMutability": "view",
      "type": "function"
    },
    {
      "constant": true,
      "inputs": [],
      "name": "createdAt",
      "outputs": [
        {
          "name": "",
          "type": "int256"
        }
      ],
      "payable": false,
      "stateMutability": "view",
      "type": "function"
    },
    {
      "constant": true,
      "inputs": [],
      "name": "deployer",
      "outputs": [
        {
          "name": "",
          "type": "address"
        }
      ],
      "payable": false,
      "stateMutability": "view",
      "type": "function"
    },
    {
      "constant": true,
      "inputs": [],
      "name": "signaturit",
      "outputs": [
        {
          "name": "",
          "type": "address"
        }
      ],
      "payable": false,
      "stateMutability": "view",
      "type": "function"
    },
    {
      "inputs": [
        {
          "name": "signatureId",
          "type": "string"
        },
        {
          "name": "deployerAddress",
          "type": "address"
        },
        {
          "name": "signatureCreatedAt",
          "type": "int256"
        },
        {
          "name": "signatureOwner",
          "type": "address"
        },
        {
          "name": "userSmartContractAddress",
          "type": "address"
        }
      ],
      "payable": false,
      "stateMutability": "nonpayable",
      "type": "constructor"
    },
    {
      "constant": false,
      "inputs": [
        {
          "name": "attribute",
          "type": "string"
        },
        {
          "name": "adr",
          "type": "address"
        }
      ],
      "name": "notify",
      "outputs": [],
      "payable": false,
      "stateMutability": "nonpayable",
      "type": "function"
    },
    {
      "constant": false,
      "inputs": [],
      "name": "notifyCreation",
      "outputs": [],
      "payable": false,
      "stateMutability": "nonpayable",
      "type": "function"
    },
    {
      "constant": false,
      "inputs": [
        {
          "name": "documentId",
          "type": "string"
        },
        {
          "name": "signatureType",
          "type": "string"
        },
        {
          "name": "documentCreatedAt",
          "type": "uint256"
        }
      ],
      "name": "createDocument",
      "outputs": [],
      "payable": false,
      "stateMutability": "nonpayable",
      "type": "function"
    },
    {
      "constant": false,
      "inputs": [
        {
          "name": "documentId",
          "type": "string"
        },
        {
          "name": "documentOwner",
          "type": "address"
        }
      ],
      "name": "setDocumentOwner",
      "outputs": [],
      "payable": false,
      "stateMutability": "nonpayable",
      "type": "function"
    },
    {
      "constant": false,
      "inputs": [
        {
          "name": "documentId",
          "type": "string"
        },
        {
          "name": "signedFileHash",
          "type": "string"
        }
      ],
      "name": "setSignedFileHash",
      "outputs": [],
      "payable": false,
      "stateMutability": "nonpayable",
      "type": "function"
    },
    {
      "constant": false,
      "inputs": [
        {
          "name": "documentId",
          "type": "string"
        },
        {
          "name": "cancelReason",
          "type": "string"
        }
      ],
      "name": "cancelDocument",
      "outputs": [],
      "payable": false,
      "stateMutability": "nonpayable",
      "type": "function"
    },
    {
      "constant": false,
      "inputs": [
        {
          "name": "documentId",
          "type": "string"
        },
        {
          "name": "fileId",
          "type": "string"
        },
        {
          "name": "fileName",
          "type": "string"
        },
        {
          "name": "fileHash",
          "type": "string"
        },
        {
          "name": "fileCreatedAt",
          "type": "uint256"
        },
        {
          "name": "fileSize",
          "type": "uint256"
        }
      ],
      "name": "createFile",
      "outputs": [],
      "payable": false,
      "stateMutability": "nonpayable",
      "type": "function"
    },
    {
      "constant": false,
      "inputs": [
        {
          "name": "documentId",
          "type": "string"
        },
        {
          "name": "eventId",
          "type": "string"
        },
        {
          "name": "eventType",
          "type": "string"
        },
        {
          "name": "eventUserAgent",
          "type": "string"
        },
        {
          "name": "eventCreatedAt",
          "type": "uint256"
        }
      ],
      "name": "createEvent",
      "outputs": [],
      "payable": false,
      "stateMutability": "nonpayable",
      "type": "function"
    },
    {
      "constant": true,
      "inputs": [
        {
          "name": "clauseType",
          "type": "string"
        }
      ],
      "name": "getClause",
      "outputs": [
        {
          "name": "clauseAddress",
          "type": "address"
        }
      ],
      "payable": false,
      "stateMutability": "view",
      "type": "function"
    },
    {
      "constant": true,
      "inputs": [
        {
          "name": "documentId",
          "type": "string"
        }
      ],
      "name": "getDocument",
      "outputs": [
        {
          "name": "",
          "type": "address"
        }
      ],
      "payable": false,
      "stateMutability": "view",
      "type": "function"
    },
    {
      "constant": true,
      "inputs": [
        {
          "name": "index",
          "type": "uint256"
        }
      ],
      "name": "getDocumentByIndex",
      "outputs": [
        {
          "name": "",
          "type": "address"
        }
      ],
      "payable": false,
      "stateMutability": "view",
      "type": "function"
    },
    {
      "constant": true,
      "inputs": [],
      "name": "getDocumentsSize",
      "outputs": [
        {
          "name": "",
          "type": "uint256"
        }
      ],
      "payable": false,
      "stateMutability": "view",
      "type": "function"
    },
    {
      "constant": true,
      "inputs": [
        {
          "name": "documentId",
          "type": "string"
        }
      ],
      "name": "getFile",
      "outputs": [
        {
          "name": "",
          "type": "address"
        }
      ],
      "payable": false,
      "stateMutability": "view",
      "type": "function"
    },
    {
      "constant": true,
      "inputs": [
        {
          "name": "documentId",
          "type": "string"
        },
        {
          "name": "eventId",
          "type": "string"
        }
      ],
      "name": "getEvent",
      "outputs": [
        {
          "name": "",
          "type": "address"
        }
      ],
      "payable": false,
      "stateMutability": "view",
      "type": "function"
    }
  ],
  "bytecode": "0x60806040523480156200001157600080fd5b5060405162002b0938038062002b09833981018060405260a08110156200003757600080fd5b8101908080516401000000008111156200005057600080fd5b820160208101848111156200006457600080fd5b81516401000000008111828201871017156200007f57600080fd5b5050602082810151604084015160608501516080909501516009805433600160a060020a031991821617909155600a80548216600160a060020a0380871691909117909155600b80548316828a1617905560118054909216908316179055845194975091955093929091620000fa91600c9188019062000109565b505050600e5550620001ae9050565b828054600181600116156101000203166002900490600052602060002090601f016020900481019282601f106200014c57805160ff19168380011785556200017c565b828001600101855582156200017c579182015b828111156200017c5782518255916020019190600101906200015f565b506200018a9291506200018e565b5090565b620001ab91905b808211156200018a576000815560010162000195565b90565b61294b80620001be6000396000f3fe6080604052600436106101035763ffffffff60e060020a6000350416633764a7cd811461010857806341e4422f1461014e57806345608dd11461028857806346c3cf9c146103be5780635000596b1461047a578063547153901461048f5780637ccb6a64146106d45780638da5cb5b1461078557806393fa656e1461079a5780639d79916c146107c1578063a3474265146108f7578063af640d0f146109a8578063bdcf5b8e14610a32578063c918ef3814610c74578063c97782c314610daa578063cf09e0d014610dd4578063d5f3948814610de9578063e0876aa814610dfe578063e2b4cf4c14610eaf578063e71e657614610ec4578063f9b5333514610f80575b600080fd5b34801561011457600080fd5b506101326004803603602081101561012b57600080fd5b5035610f95565b60408051600160a060020a039092168252519081900360200190f35b34801561015a57600080fd5b506102866004803603606081101561017157600080fd5b810190602081018135602060020a81111561018b57600080fd5b82018360208201111561019d57600080fd5b803590602001918460018302840111602060020a831117156101be57600080fd5b91908080601f0160208091040260200160405190810160405280939291908181526020018383808284376000920191909152509295949360208101935035915050602060020a81111561021057600080fd5b82018360208201111561022257600080fd5b803590602001918460018302840111602060020a8311171561024357600080fd5b91908080601f0160208091040260200160405190810160405280939291908181526020018383808284376000920191909152509295505091359250611049915050565b005b34801561029457600080fd5b50610286600480360360408110156102ab57600080fd5b810190602081018135602060020a8111156102c557600080fd5b8201836020820111156102d757600080fd5b803590602001918460018302840111602060020a831117156102f857600080fd5b91908080601f0160208091040260200160405190810160405280939291908181526020018383808284376000920191909152509295949360208101935035915050602060020a81111561034a57600080fd5b82018360208201111561035c57600080fd5b803590602001918460018302840111602060020a8311171561037d57600080fd5b91908080601f01602080910402602001604051908101604052809392919081815260200183838082843760009201919091525092955061123f945050505050565b3480156103ca57600080fd5b50610286600480360360408110156103e157600080fd5b810190602081018135602060020a8111156103fb57600080fd5b82018360208201111561040d57600080fd5b803590602001918460018302840111602060020a8311171561042e57600080fd5b91908080601f01602080910402602001604051908101604052809392919081815260200183838082843760009201919091525092955050509035600160a060020a031691506113919050565b34801561048657600080fd5b5061013261145d565b34801561049b57600080fd5b50610286600480360360c08110156104b257600080fd5b810190602081018135602060020a8111156104cc57600080fd5b8201836020820111156104de57600080fd5b803590602001918460018302840111602060020a831117156104ff57600080fd5b91908080601f0160208091040260200160405190810160405280939291908181526020018383808284376000920191909152509295949360208101935035915050602060020a81111561055157600080fd5b82018360208201111561056357600080fd5b803590602001918460018302840111602060020a8311171561058457600080fd5b91908080601f0160208091040260200160405190810160405280939291908181526020018383808284376000920191909152509295949360208101935035915050602060020a8111156105d657600080fd5b8201836020820111156105e857600080fd5b803590602001918460018302840111602060020a8311171561060957600080fd5b91908080601f0160208091040260200160405190810160405280939291908181526020018383808284376000920191909152509295949360208101935035915050602060020a81111561065b57600080fd5b82018360208201111561066d57600080fd5b803590602001918460018302840111602060020a8311171561068e57600080fd5b91908080601f016020809104026020016040519081016040528093929190818152602001838380828437600092019190915250929550508235935050506020013561146c565b3480156106e057600080fd5b50610132600480360360208110156106f757600080fd5b810190602081018135602060020a81111561071157600080fd5b82018360208201111561072357600080fd5b803590602001918460018302840111602060020a8311171561074457600080fd5b91908080601f016020809104026020016040519081016040528093929190818152602001838380828437600092019190915250929550611687945050505050565b34801561079157600080fd5b5061013261170f565b3480156107a657600080fd5b506107af61171e565b60408051918252519081900360200190f35b3480156107cd57600080fd5b50610286600480360360408110156107e457600080fd5b810190602081018135602060020a8111156107fe57600080fd5b82018360208201111561081057600080fd5b803590602001918460018302840111602060020a8311171561083157600080fd5b91908080601f0160208091040260200160405190810160405280939291908181526020018383808284376000920191909152509295949360208101935035915050602060020a81111561088357600080fd5b82018360208201111561089557600080fd5b803590602001918460018302840111602060020a831117156108b657600080fd5b91908080601f016020809104026020016040519081016040528093929190818152602001838380828437600092019190915250929550611725945050505050565b34801561090357600080fd5b506101326004803603602081101561091a57600080fd5b810190602081018135602060020a81111561093457600080fd5b82018360208201111561094657600080fd5b803590602001918460018302840111602060020a8311171561096757600080fd5b91908080601f0160208091040260200160405190810160405280939291908181526020018383808284376000920191909152509295506117f5945050505050565b3480156109b457600080fd5b506109bd611828565b6040805160208082528351818301528351919283929083019185019080838360005b838110156109f75781810151838201526020016109df565b50505050905090810190601f168015610a245780820380516001836020036101000a031916815260200191505b509250505060405180910390f35b348015610a3e57600080fd5b50610286600480360360a0811015610a5557600080fd5b810190602081018135602060020a811115610a6f57600080fd5b820183602082011115610a8157600080fd5b803590602001918460018302840111602060020a83111715610aa257600080fd5b91908080601f0160208091040260200160405190810160405280939291908181526020018383808284376000920191909152509295949360208101935035915050602060020a811115610af457600080fd5b820183602082011115610b0657600080fd5b803590602001918460018302840111602060020a83111715610b2757600080fd5b91908080601f0160208091040260200160405190810160405280939291908181526020018383808284376000920191909152509295949360208101935035915050602060020a811115610b7957600080fd5b820183602082011115610b8b57600080fd5b803590602001918460018302840111602060020a83111715610bac57600080fd5b91908080601f0160208091040260200160405190810160405280939291908181526020018383808284376000920191909152509295949360208101935035915050602060020a811115610bfe57600080fd5b820183602082011115610c1057600080fd5b803590602001918460018302840111602060020a83111715610c3157600080fd5b91908080601f01602080910402602001604051908101604052809392919081815260200183838082843760009201919091525092955050913592506118b6915050565b348015610c8057600080fd5b5061013260048036036040811015610c9757600080fd5b810190602081018135602060020a811115610cb157600080fd5b820183602082011115610cc357600080fd5b803590602001918460018302840111602060020a83111715610ce457600080fd5b91908080601f0160208091040260200160405190810160405280939291908181526020018383808284376000920191909152509295949360208101935035915050602060020a811115610d3657600080fd5b820183602082011115610d4857600080fd5b803590602001918460018302840111602060020a83111715610d6957600080fd5b91908080601f016020809104026020016040519081016040528093929190818152602001838380828437600092019190915250929550611ac8945050505050565b348015610db657600080fd5b506109bd60048036036020811015610dcd57600080fd5b5035611c3b565b348015610de057600080fd5b506107af611caf565b348015610df557600080fd5b50610132611cb5565b348015610e0a57600080fd5b5061013260048036036020811015610e2157600080fd5b810190602081018135602060020a811115610e3b57600080fd5b820183602082011115610e4d57600080fd5b803590602001918460018302840111602060020a83111715610e6e57600080fd5b91908080601f016020809104026020016040519081016040528093929190818152602001838380828437600092019190915250929550611cc4945050505050565b348015610ebb57600080fd5b50610286611dc4565b348015610ed057600080fd5b5061028660048036036040811015610ee757600080fd5b810190602081018135602060020a811115610f0157600080fd5b820183602082011115610f1357600080fd5b803590602001918460018302840111602060020a83111715610f3457600080fd5b91908080601f01602080910402602001604051908101604052809392919081815260200183838082843760009201919091525092955050509035600160a060020a03169150611e989050565b348015610f8c57600080fd5b506101326120de565b600d5460009060001901821115610fae57506000611044565b600f600d83815481101515610fbf57fe5b9060005260206000200160405180828054600181600116156101000203166002900480156110245780601f10611002576101008083540402835291820191611024565b820191906000526020600020905b815481529060010190602001808311611010575b5050928352505060405190819003602001902054600160a060020a031690505b919050565b600954600160a060020a031632146110ad576040805160e560020a62461bcd02815260206004820152602f602482015260008051602061290083398151915260448201526000805160206128e0833981519152606482015290519081900360840190fd5b60006110b8846120ed565b6040805160e060020a6238a5b50281526024810185905260048101918252855160448201528551929350600160a060020a038416926238a5b59287928792829160640190602086019080838360005b8381101561111f578181015183820152602001611107565b50505050905090810190601f16801561114c5780820380516001836020036101000a031916815260200191505b509350505050600060405180830381600087803b15801561116c57600080fd5b505af1158015611180573d6000803e3d6000fd5b5050600d80546001810180835560009290925287519193506111ca92507fd7b6990105719101dabeb77144f2a3385c8033acd3af97e9423a695e81ad1eb501906020880190612847565b5050611239604080519081016040528060128152602001607060020a71646f63756d656e742d6e6f74696669657273028152506040805190810160405280601981526020017f646f63756d656e742e636f6e74726163742e6372656174656400000000000000815250836124d2565b50505050565b600b54600160a060020a031633146112bb576040805160e560020a62461bcd02815260206004820152602e60248201527f4f6e6c7920746865206f776e6572206163636f756e742063616e20706572666f6044820152609160020a6d3936903a3434b99030b1ba34b7b702606482015290519081900360840190fd5b60006112c6836120ed565b60405160e060020a630b4f3f3d028152602060048201818152855160248401528551939450600160a060020a03851693630b4f3f3d93879383926044909201919085019080838360005b83811015611328578181015183820152602001611310565b50505050905090810190601f1680156113555780820380516001836020036101000a031916815260200191505b5092505050600060405180830381600087803b15801561137457600080fd5b505af1158015611388573d6000803e3d6000fd5b50505050505050565b600954600160a060020a031632146113f5576040805160e560020a62461bcd02815260206004820152602f602482015260008051602061290083398151915260448201526000805160206128e0833981519152606482015290519081900360840190fd5b6000611400836120ed565b905080600160a060020a03166313af4035836040518263ffffffff1660e060020a0281526004018082600160a060020a0316600160a060020a03168152602001915050600060405180830381600087803b15801561137457600080fd5b601154600160a060020a031681565b600954600160a060020a031632146114d0576040805160e560020a62461bcd02815260206004820152602f602482015260008051602061290083398151915260448201526000805160206128e0833981519152606482015290519081900360840190fd5b60006114db876120ed565b905080600160a060020a0316636bee1e1b87878787876040518663ffffffff1660e060020a02815260040180806020018060200180602001868152602001858152602001848103845289818151815260200191508051906020019080838360005b8381101561155457818101518382015260200161153c565b50505050905090810190601f1680156115815780820380516001836020036101000a031916815260200191505b5084810383528851815288516020918201918a019080838360005b838110156115b457818101518382015260200161159c565b50505050905090810190601f1680156115e15780820380516001836020036101000a031916815260200191505b50848103825287518152875160209182019189019080838360005b838110156116145781810151838201526020016115fc565b50505050905090810190601f1680156116415780820380516001836020036101000a031916815260200191505b5098505050505050505050600060405180830381600087803b15801561166657600080fd5b505af115801561167a573d6000803e3d6000fd5b5050505050505050505050565b60006116928261272e565b15156116a057506000611044565b600f826040518082805190602001908083835b602083106116d25780518252601f1990920191602091820191016116b3565b51815160209384036101000a6000190180199092169116179052920194855250604051938490030190922054600160a060020a0316949350505050565b600b54600160a060020a031681565b600d545b90565b600954600160a060020a03163214611789576040805160e560020a62461bcd02815260206004820152602f602482015260008051602061290083398151915260448201526000805160206128e0833981519152606482015290519081900360840190fd5b6000611794836120ed565b60405160e660020a6302abdb1d028152602060048201818152855160248401528551939450600160a060020a0385169363aaf6c740938793839260449092019190850190808383600083811015611328578181015183820152602001611310565b6000601082604051808280519060200190808383602083106116d25780518252601f1990920191602091820191016116b3565b600c805460408051602060026001851615610100026000190190941693909304601f810184900484028201840190925281815292918301828280156118ae5780601f10611883576101008083540402835291602001916118ae565b820191906000526020600020905b81548152906001019060200180831161189157829003601f168201915b505050505081565b600954600160a060020a0316321461191a576040805160e560020a62461bcd02815260206004820152602f602482015260008051602061290083398151915260448201526000805160206128e0833981519152606482015290519081900360840190fd5b6000611925866120ed565b905080600160a060020a031663de4cd842868686866040518563ffffffff1660e060020a02815260040180806020018060200180602001858152602001848103845288818151815260200191508051906020019080838360005b8381101561199757818101518382015260200161197f565b50505050905090810190601f1680156119c45780820380516001836020036101000a031916815260200191505b50848103835287518152875160209182019189019080838360005b838110156119f75781810151838201526020016119df565b50505050905090810190601f168015611a245780820380516001836020036101000a031916815260200191505b50848103825286518152865160209182019188019080838360005b83811015611a57578181015183820152602001611a3f565b50505050905090810190601f168015611a845780820380516001836020036101000a031916815260200191505b50975050505050505050600060405180830381600087803b158015611aa857600080fd5b505af1158015611abc573d6000803e3d6000fd5b50505050505050505050565b6000611ad38361272e565b1515611ae157506000611c35565b6000600f846040518082805190602001908083835b60208310611b155780518252601f199092019160209182019101611af6565b51815160209384036101000a600019018019909216911617905292019485525060405193849003810184205460e060020a63e190206302855260048501828152885160248701528851600160a060020a039092169563e19020639550899450909283926044909201919085019080838360005b83811015611ba0578181015183820152602001611b88565b50505050905090810190601f168015611bcd5780820380516001836020036101000a031916815260200191505b509250505060206040518083038186803b158015611bea57600080fd5b505afa158015611bfe573d6000803e3d6000fd5b505050506040513d6020811015611c1457600080fd5b50519050600160a060020a0381161515611c32576000915050611c35565b90505b92915050565b600d805482908110611c4957fe5b600091825260209182902001805460408051601f60026000196101006001871615020190941693909304928301859004850281018501909152818152935090918301828280156118ae5780601f10611883576101008083540402835291602001916118ae565b600e5481565b600a54600160a060020a031681565b6000611ccf8261272e565b1515611cdd57506000611044565b6000600f836040518082805190602001908083835b60208310611d115780518252601f199092019160209182019101611cf2565b51815160209384036101000a60001901801990921691161790529201948552506040805194859003820185205460e060020a638525855d0286529051600160a060020a0390911694638525855d94506004808201945090829003018186803b158015611d7c57600080fd5b505afa158015611d90573d6000803e3d6000fd5b505050506040513d6020811015611da657600080fd5b50519050600160a060020a0381161515611c35576000915050611044565b600954600160a060020a03163214611e28576040805160e560020a62461bcd02815260206004820152602f602482015260008051602061290083398151915260448201526000805160206128e0833981519152606482015290519081900360840190fd5b611e96604080519081016040528060138152602001606860020a727369676e61747572652d6e6f74696669657273028152506040805190810160405280601a81526020017f7369676e61747572652e636f6e74726163742e63726561746564000000000000815250306124d2565b565b600954600160a060020a03163214611efc576040805160e560020a62461bcd02815260206004820152602f602482015260008051602061290083398151915260448201526000805160206128e0833981519152606482015290519081900360840190fd5b611f3a6040805190810160405280601681526020017f7061796d656e745f636c617573652e63726561746564000000000000000000008152506127ae565b611f43836127ae565b1415611fec57604080518082018252600780825260ca60020a661c185e5b595b9d026020830190815292518493601093928291908083835b60208310611f9a5780518252601f199092019160209182019101611f7b565b51815160209384036101000a600019018019909216911617905292019485525060405193849003019092208054600160a060020a031916600160a060020a039490941693909317909255506120da9050565b61202a6040805190810160405280601981526020017f74696d656c6f676765725f636c617573652e63726561746564000000000000008152506127ae565b612033836127ae565b14156120da57604080518082018252600a80825260b160020a693a34b6b2b637b3b3b2b9026020830190815292518493601093928291908083835b6020831061208d5780518252601f19909201916020918201910161206e565b51815160209384036101000a600019018019909216911617905292019485525060405193849003019092208054600160a060020a031916600160a060020a03949094169390931790925550505b5050565b600954600160a060020a031681565b60006120f88261272e565b1561216e57600f826040518082805190602001908083835b6020831061212f5780518252601f199092019160209182019101612110565b51815160209384036101000a6000190180199092169116179052920194855250604051938490030190922054600160a060020a03169250611044915050565b600a5460408051600160a060020a03909216604483018190526024830191825284516064840152845160009360609387928492829160849091019060208601908083838c5b838110156121cb5781810151838201526020016121b3565b50505050905090810190601f1680156121f85780820380516001836020036101000a031916815260200191505b5060408051601f19818403018152918152602082018051600160e060020a031660e260020a63226ddea10217815290518251929650945084935091508083835b602083106122575780518252601f199092019160209182019101612238565b6001836020036101000a038019825116818451168082178552505050505050905001915050600060405180830381855af49150503d80600081146122b7576040519150601f19603f3d011682016040523d82523d6000602084013e6122bc565b606091505b5091509150811515612318576040805160e560020a62461bcd02815260206004820152601e60248201527f4572726f72207768696c65206465706c6f79696e6720646f63756d656e740000604482015290519081900360640190fd5b61232181612840565b600f856040518082805190602001908083835b602083106123535780518252601f199092019160209182019101612334565b51815160209384036101000a600019018019909216911617905292019485525060405193849003810184208054600160a060020a031916600160a060020a03969096169590951790945550508551600f9287929182918401908083835b602083106123cf5780518252601f1990920191602091820191016123b0565b51815160209384036101000a6000190180199092169116179052920194855250604080519485900390910184205460115460e060020a63acf635b9028652600160a060020a039081166004870152915191169363acf635b99350602480820193506000929182900301818387803b15801561244957600080fd5b505af115801561245d573d6000803e3d6000fd5b50505050600f846040518082805190602001908083835b602083106124935780518252601f199092019160209182019101612474565b51815160209384036101000a6000190180199092169116179052920194855250604051938490030190922054600160a060020a03169695505050505050565b6000805b6011546040805160e260020a633ce8989d0281526024810184905260048101918252875160448201528751600160a060020a039093169263f3a262749289928692829160640190602086019080838360005b83811015612540578181015183820152602001612528565b50505050905090810190601f16801561256d5780820380516001836020036101000a031916815260200191505b50935050505060206040518083038186803b15801561258b57600080fd5b505afa15801561259f573d6000803e3d6000fd5b505050506040513d60208110156125b557600080fd5b50519150600101600160a060020a038216156127175760408051600160a060020a038581166044830152602482019283528651606483015286519085169287928792829160840190602086019080838360005b83811015612620578181015183820152602001612608565b50505050905090810190601f16801561264d5780820380516001836020036101000a031916815260200191505b5060408051601f19818403018152918152602082018051600160e060020a031660e160020a63738f32bb0217815290518251929650945084935091508083835b602083106126ac5780518252601f19909201916020918201910161268d565b6001836020036101000a0380198251168184511680821785525050505050509050019150506000604051808303816000865af19150503d806000811461270e576040519150601f19603f3d011682016040523d82523d6000602084013e612713565b606091505b5050505b600160a060020a03821615156124d6575050505050565b600080600160a060020a0316600f836040518082805190602001908083835b6020831061276c5780518252601f19909201916020918201910161274d565b51815160209384036101000a6000190180199092169116179052920194855250604051938490030190922054600160a060020a03169290921415949350505050565b6000816040516020018080602001828103825283818151815260200191508051906020019080838360005b838110156127f15781810151838201526020016127d9565b50505050905090810190601f16801561281e5780820380516001836020036101000a031916815260200191505b5092505050604051602081830303815290604052805190602001209050919050565b6020015190565b828054600181600116156101000203166002900490600052602060002090601f016020900481019282601f1061288857805160ff19168380011785556128b5565b828001600101855582156128b5579182015b828111156128b557825182559160200191906001019061289a565b506128c19291506128c5565b5090565b61172291905b808211156128c157600081556001016128cb56fe6f726d207468697320616374696f6e00000000000000000000000000000000004f6e6c79205369676e617475726974206163636f756e742063616e2070657266a165627a7a723058207f1f174d281b5224201987cec8a86bb71fc4d10ef306fe78fbd72418e36f268b0029",
  "source": "pragma solidity <0.6.0;\n\n/*\nGas to deploy: 3.329.557\n*/\n\nimport \"./interfaces/SignatureInterface.sol\";\nimport \"./interfaces/NotifierInterface.sol\";\nimport \"./interfaces/DocumentInterface.sol\";\nimport \"./interfaces/SignaturitUserInterface.sol\";\nimport \"./interfaces/FileInterface.sol\";\nimport \"./interfaces/EventInterface.sol\";\nimport \"./interfaces/SignaturitUserInterface.sol\";\nimport \"./libraries/Utils.sol\";\n\n\ncontract Signature is SignatureInterface, NotifierInterface {\n    string constant private SIGNATURE_CREATED_EVENT = \"signature.contract.created\";\n    string constant private DOCUMENT_CREATED_EVENT = \"document.contract.created\";\n\n    string constant private SIGNATURE_NOTIFIERS_KEY = \"signature-notifiers\";\n    string constant private DOCUMENT_NOTIFIERS_KEY = \"document-notifiers\";\n\n    string constant private PAYMENT_CLAUSE_CREATED = \"payment_clause.created\";\n    string constant private TIMELOGGER_CLAUSE_CREATED = \"timelogger_clause.created\";\n    string constant private PAYMENT_CLAUSE_KEY = \"payment\";\n    string constant private TIMELOGGER_CLAUSE_KEY = \"timelogger\";\n\n    address public signaturit;\n    address public deployer;\n    address public owner;\n\n    string public id;\n\n    string[] public documentsId;\n\n    int public createdAt;\n\n    mapping(string => DocumentInterface) private documents;\n\n    mapping(string => address) private clauses;\n\n    SignaturitUserInterface public userContract;\n\n    constructor(\n        string memory signatureId,\n        address deployerAddress,\n        int signatureCreatedAt,\n        address signatureOwner,\n        address userSmartContractAddress\n    ) public {\n        signaturit = msg.sender;\n        deployer = deployerAddress;\n\n        owner = signatureOwner;\n        userContract = SignaturitUserInterface(userSmartContractAddress);\n\n        id = signatureId;\n        createdAt = signatureCreatedAt;\n    }\n\n    modifier signaturitOnly() {\n        require(\n            tx.origin == signaturit,\n            \"Only Signaturit account can perform this action\"\n        );\n\n        _;\n    }\n\n    modifier ownerOnly() {\n        require(\n            msg.sender == owner,\n            \"Only the owner account can perform this action\"\n        );\n\n        _;\n    }\n\n    function notify(\n        string memory attribute,\n        address adr\n    )\n        public\n        signaturitOnly\n    {\n        if (Utils.keccak(attribute) == Utils.keccak(PAYMENT_CLAUSE_CREATED)) clauses[PAYMENT_CLAUSE_KEY] = adr;\n        else if (Utils.keccak(attribute) == Utils.keccak(TIMELOGGER_CLAUSE_CREATED)) clauses[TIMELOGGER_CLAUSE_KEY] = adr;\n    }\n\n    function notifyCreation()\n        public\n        signaturitOnly\n    {\n        _notifyEntityEvent(SIGNATURE_NOTIFIERS_KEY, SIGNATURE_CREATED_EVENT, address(this));\n    }\n\n    function createDocument(\n        string memory documentId,\n        string memory signatureType,\n        uint documentCreatedAt\n    )\n        public\n        signaturitOnly\n    {\n        DocumentInterface document = _getDocument(documentId);\n\n        document.init(signatureType, documentCreatedAt);\n\n        documentsId.push(documentId);\n\n        _notifyEntityEvent(DOCUMENT_NOTIFIERS_KEY, DOCUMENT_CREATED_EVENT, address(document));\n    }\n\n    function setDocumentOwner (\n        string memory documentId,\n        address documentOwner\n    )\n        public\n        signaturitOnly\n    {\n        DocumentInterface document = _getDocument(documentId);\n\n        document.setOwner(documentOwner);\n    }\n\n    function setSignedFileHash (\n        string memory documentId,\n        string memory signedFileHash\n    )\n        public\n        signaturitOnly\n    {\n        DocumentInterface document = _getDocument(documentId);\n\n        document.setFileHash(signedFileHash);\n    }\n\n    function cancelDocument (\n        string memory documentId,\n        string memory cancelReason\n    )\n        public\n        ownerOnly\n    {\n        DocumentInterface document = _getDocument(documentId);\n\n        document.cancel(cancelReason);\n    }\n\n    function createFile(\n        string memory documentId,\n        string memory fileId,\n        string memory fileName,\n        string memory fileHash,\n        uint fileCreatedAt,\n        uint fileSize\n    )\n        public\n        signaturitOnly\n    {\n        DocumentInterface document = _getDocument(documentId);\n\n        document.\n            createFile(\n            fileId,\n            fileName,\n            fileHash,\n            fileCreatedAt,\n            fileSize\n        );\n    }\n\n    function createEvent(\n        string memory documentId,\n        string memory eventId,\n        string memory eventType,\n        string memory eventUserAgent,\n        uint eventCreatedAt\n    )\n        public\n        signaturitOnly\n    {\n        DocumentInterface document = _getDocument(documentId);\n\n        document.createEvent(\n            eventId,\n            eventType,\n            eventUserAgent,\n            eventCreatedAt\n        );\n    }\n\n    function getClause(\n        string memory clauseType\n    )\n        public\n        view\n        returns (address clauseAddress)\n    {\n        return clauses[clauseType];\n    }\n\n    function getDocument(\n        string memory documentId\n    )\n        public\n        view\n        returns (address)\n    {\n        if (!_documentExist(documentId)) return address(0);\n\n        return address(documents[documentId]);\n    }\n\n    function getDocumentByIndex(\n        uint index\n    )\n        public\n        view\n        returns (address)\n    {\n        if (index > documentsId.length - 1) return address(0);\n\n        return address(documents[documentsId[index]]);\n    }\n\n    function getDocumentsSize()\n        public\n        view\n        returns (uint)\n    {\n        return documentsId.length;\n    }\n\n    function getFile(\n        string memory documentId\n    )\n        public\n        view\n        returns (address)\n    {\n        if (!_documentExist(documentId)) return address(0);\n\n        FileInterface signatureFile = documents[documentId].file();\n\n        if (address(signatureFile) == address(0)) return address(0);\n\n        return address(signatureFile);\n    }\n\n    function getEvent(\n        string memory documentId,\n        string memory eventId\n    )\n        public\n        view\n        returns (address)\n    {\n        if (!_documentExist(documentId)) return address(0);\n\n        EventInterface signatureEvent = EventInterface(documents[documentId].getEvent(\n            eventId\n        ));\n\n        if (address(signatureEvent) == address(0)) return address(0);\n\n        return address(signatureEvent);\n    }\n\n    function _notifyEntityEvent (\n        string memory notifiersKey,\n        string memory createdEvent,\n        address adrToNotify\n    )\n        private\n    {\n        address contractToNofify;\n        uint notificationIndex = 0;\n\n        do {\n            contractToNofify = userContract.getAddressArrayAttribute(notifiersKey, notificationIndex);\n            ++notificationIndex;\n\n            if (contractToNofify != address(0)) {\n                contractToNofify.call(\n                    abi.encodeWithSignature(\n                        \"notify(string,address)\",\n                        createdEvent,\n                        adrToNotify\n                    )\n                );\n            }\n        } while (contractToNofify != address(0));\n    }\n\n    function _getDocument(\n        string memory documentId\n    )\n        private\n        returns (DocumentInterface)\n    {\n        if (_documentExist(documentId))\n            return documents[documentId];\n\n        (\n            bool success,\n            bytes memory returnData\n        ) = deployer.delegatecall(\n            abi.encodeWithSignature(\"deployDocument(string,address)\",\n            documentId,\n            deployer)\n        );\n\n        require(\n            success,\n            \"Error while deploying document\"\n        );\n\n        documents[documentId] = DocumentInterface(\n            Utils._bytesToAddress(returnData)\n        );\n\n        documents[documentId].setSignatureOwner(address(userContract));\n\n        return documents[documentId];\n    }\n\n    function _documentExist(\n        string memory documentId\n    )\n        private\n        view\n        returns (bool)\n    {\n        return address(documents[documentId]) != address(0);\n    }\n}\n",
  "sourcePath": "/home/administrator/workspace/signaturit-solidity-contracts/contracts/Signature.sol",
  "compiler": {
    "name": "solc",
    "version": "0.5.0+commit.1d4f565a.Emscripten.clang"
  },
  "schemaVersion": "2.0.3",
  "updatedAt": "2020-01-15T10:55:50.272Z"
}