{
  "contractName": "Signature",
  "abi": [
    {
      "constant": true,
      "inputs": [],
      "name": "userContract",
      "outputs": [
        {
          "name": "",
          "type": "address"
        }
      ],
      "payable": false,
      "stateMutability": "view",
      "type": "function"
    },
    {
      "constant": true,
      "inputs": [],
      "name": "owner",
      "outputs": [
        {
          "name": "",
          "type": "address"
        }
      ],
      "payable": false,
      "stateMutability": "view",
      "type": "function"
    },
    {
      "constant": true,
      "inputs": [],
      "name": "id",
      "outputs": [
        {
          "name": "",
          "type": "string"
        }
      ],
      "payable": false,
      "stateMutability": "view",
      "type": "function"
    },
    {
      "constant": true,
      "inputs": [
        {
          "name": "",
          "type": "uint256"
        }
      ],
      "name": "documentsId",
      "outputs": [
        {
          "name": "",
          "type": "string"
        }
      ],
      "payable": false,
      "stateMutability": "view",
      "type": "function"
    },
    {
      "constant": true,
      "inputs": [],
      "name": "createdAt",
      "outputs": [
        {
          "name": "",
          "type": "int256"
        }
      ],
      "payable": false,
      "stateMutability": "view",
      "type": "function"
    },
    {
      "constant": true,
      "inputs": [],
      "name": "deployer",
      "outputs": [
        {
          "name": "",
          "type": "address"
        }
      ],
      "payable": false,
      "stateMutability": "view",
      "type": "function"
    },
    {
      "constant": true,
      "inputs": [],
      "name": "signaturit",
      "outputs": [
        {
          "name": "",
          "type": "address"
        }
      ],
      "payable": false,
      "stateMutability": "view",
      "type": "function"
    },
    {
      "inputs": [
        {
          "name": "signatureId",
          "type": "string"
        },
        {
          "name": "deployerAddress",
          "type": "address"
        },
        {
          "name": "signatureCreatedAt",
          "type": "int256"
        },
        {
          "name": "signatureOwner",
          "type": "address"
        },
        {
          "name": "userSmartContractAddress",
          "type": "address"
        }
      ],
      "payable": false,
      "stateMutability": "nonpayable",
      "type": "constructor"
    },
    {
      "constant": false,
      "inputs": [
        {
          "name": "attribute",
          "type": "string"
        },
        {
          "name": "adr",
          "type": "address"
        }
      ],
      "name": "notify",
      "outputs": [],
      "payable": false,
      "stateMutability": "nonpayable",
      "type": "function"
    },
    {
      "constant": false,
      "inputs": [],
      "name": "notifyCreation",
      "outputs": [],
      "payable": false,
      "stateMutability": "nonpayable",
      "type": "function"
    },
    {
      "constant": false,
      "inputs": [
        {
          "name": "documentId",
          "type": "string"
        },
        {
          "name": "signatureType",
          "type": "string"
        },
        {
          "name": "documentCreatedAt",
          "type": "uint256"
        }
      ],
      "name": "createDocument",
      "outputs": [],
      "payable": false,
      "stateMutability": "nonpayable",
      "type": "function"
    },
    {
      "constant": false,
      "inputs": [
        {
          "name": "documentId",
          "type": "string"
        },
        {
          "name": "documentOwner",
          "type": "address"
        }
      ],
      "name": "setDocumentOwner",
      "outputs": [],
      "payable": false,
      "stateMutability": "nonpayable",
      "type": "function"
    },
    {
      "constant": false,
      "inputs": [
        {
          "name": "documentId",
          "type": "string"
        },
        {
          "name": "signedFileHash",
          "type": "string"
        }
      ],
      "name": "setSignedFileHash",
      "outputs": [],
      "payable": false,
      "stateMutability": "nonpayable",
      "type": "function"
    },
    {
      "constant": false,
      "inputs": [
        {
          "name": "documentId",
          "type": "string"
        },
        {
          "name": "cancelReason",
          "type": "string"
        }
      ],
      "name": "cancelDocument",
      "outputs": [],
      "payable": false,
      "stateMutability": "nonpayable",
      "type": "function"
    },
    {
      "constant": false,
      "inputs": [
        {
          "name": "documentId",
          "type": "string"
        },
        {
          "name": "fileId",
          "type": "string"
        },
        {
          "name": "fileName",
          "type": "string"
        },
        {
          "name": "fileHash",
          "type": "string"
        },
        {
          "name": "fileCreatedAt",
          "type": "uint256"
        },
        {
          "name": "fileSize",
          "type": "uint256"
        }
      ],
      "name": "createFile",
      "outputs": [],
      "payable": false,
      "stateMutability": "nonpayable",
      "type": "function"
    },
    {
      "constant": false,
      "inputs": [
        {
          "name": "documentId",
          "type": "string"
        },
        {
          "name": "eventId",
          "type": "string"
        },
        {
          "name": "eventType",
          "type": "string"
        },
        {
          "name": "eventUserAgent",
          "type": "string"
        },
        {
          "name": "eventCreatedAt",
          "type": "uint256"
        }
      ],
      "name": "createEvent",
      "outputs": [],
      "payable": false,
      "stateMutability": "nonpayable",
      "type": "function"
    },
    {
      "constant": true,
      "inputs": [
        {
          "name": "clauseType",
          "type": "string"
        }
      ],
      "name": "getClause",
      "outputs": [
        {
          "name": "clauseAddress",
          "type": "address"
        }
      ],
      "payable": false,
      "stateMutability": "view",
      "type": "function"
    },
    {
      "constant": true,
      "inputs": [
        {
          "name": "documentId",
          "type": "string"
        }
      ],
      "name": "getDocument",
      "outputs": [
        {
          "name": "",
          "type": "address"
        }
      ],
      "payable": false,
      "stateMutability": "view",
      "type": "function"
    },
    {
      "constant": true,
      "inputs": [
        {
          "name": "index",
          "type": "uint256"
        }
      ],
      "name": "getDocumentByIndex",
      "outputs": [
        {
          "name": "",
          "type": "address"
        }
      ],
      "payable": false,
      "stateMutability": "view",
      "type": "function"
    },
    {
      "constant": true,
      "inputs": [],
      "name": "getDocumentsSize",
      "outputs": [
        {
          "name": "",
          "type": "uint256"
        }
      ],
      "payable": false,
      "stateMutability": "view",
      "type": "function"
    },
    {
      "constant": true,
      "inputs": [
        {
          "name": "documentId",
          "type": "string"
        }
      ],
      "name": "getFile",
      "outputs": [
        {
          "name": "",
          "type": "address"
        }
      ],
      "payable": false,
      "stateMutability": "view",
      "type": "function"
    },
    {
      "constant": true,
      "inputs": [
        {
          "name": "documentId",
          "type": "string"
        },
        {
          "name": "eventId",
          "type": "string"
        }
      ],
      "name": "getEvent",
      "outputs": [
        {
          "name": "",
          "type": "address"
        }
      ],
      "payable": false,
      "stateMutability": "view",
      "type": "function"
    },
    {
      "constant": false,
      "inputs": [
        {
          "name": "notifiersKey",
          "type": "string"
        },
        {
          "name": "createdEvent",
          "type": "string"
        },
        {
          "name": "adrToNotify",
          "type": "address"
        }
      ],
      "name": "notifyEntityEvent",
      "outputs": [],
      "payable": false,
      "stateMutability": "nonpayable",
      "type": "function"
    }
  ],
  "bytecode": "0x60806040523480156200001157600080fd5b5060405162002e3338038062002e33833981018060405260a08110156200003757600080fd5b8101908080516401000000008111156200005057600080fd5b820160208101848111156200006457600080fd5b81516401000000008111828201871017156200007f57600080fd5b5050602082810151604084015160608501516080909501516009805433600160a060020a031991821617909155600a80548216600160a060020a0380871691909117909155600b80548316828a1617905560118054909216908316179055845194975091955093929091620000fa91600c9188019062000109565b505050600e5550620001ae9050565b828054600181600116156101000203166002900490600052602060002090601f016020900481019282601f106200014c57805160ff19168380011785556200017c565b828001600101855582156200017c579182015b828111156200017c5782518255916020019190600101906200015f565b506200018a9291506200018e565b5090565b620001ab91905b808211156200018a576000815560010162000195565b90565b612c7580620001be6000396000f3fe60806040526004361061010e5763ffffffff60e060020a6000350416633764a7cd811461011357806341e4422f1461015957806345608dd11461029357806346c3cf9c146103c95780635000596b14610485578063547153901461049a5780637ccb6a64146106df5780638da5cb5b1461079057806393fa656e146107a55780639d79916c146107cc578063a347426514610902578063af640d0f146109b3578063bdcf5b8e14610a3d578063c918ef3814610c7f578063c97782c314610db5578063cf09e0d014610ddf578063d5f3948814610df4578063dbe13ef214610e09578063e0876aa814610f4a578063e2b4cf4c14610ffb578063e71e657614611010578063f9b53335146110cc575b600080fd5b34801561011f57600080fd5b5061013d6004803603602081101561013657600080fd5b50356110e1565b60408051600160a060020a039092168252519081900360200190f35b34801561016557600080fd5b506102916004803603606081101561017c57600080fd5b810190602081018135602060020a81111561019657600080fd5b8201836020820111156101a857600080fd5b803590602001918460018302840111602060020a831117156101c957600080fd5b91908080601f0160208091040260200160405190810160405280939291908181526020018383808284376000920191909152509295949360208101935035915050602060020a81111561021b57600080fd5b82018360208201111561022d57600080fd5b803590602001918460018302840111602060020a8311171561024e57600080fd5b91908080601f0160208091040260200160405190810160405280939291908181526020018383808284376000920191909152509295505091359250611195915050565b005b34801561029f57600080fd5b50610291600480360360408110156102b657600080fd5b810190602081018135602060020a8111156102d057600080fd5b8201836020820111156102e257600080fd5b803590602001918460018302840111602060020a8311171561030357600080fd5b91908080601f0160208091040260200160405190810160405280939291908181526020018383808284376000920191909152509295949360208101935035915050602060020a81111561035557600080fd5b82018360208201111561036757600080fd5b803590602001918460018302840111602060020a8311171561038857600080fd5b91908080601f01602080910402602001604051908101604052809392919081815260200183838082843760009201919091525092955061138b945050505050565b3480156103d557600080fd5b50610291600480360360408110156103ec57600080fd5b810190602081018135602060020a81111561040657600080fd5b82018360208201111561041857600080fd5b803590602001918460018302840111602060020a8311171561043957600080fd5b91908080601f01602080910402602001604051908101604052809392919081815260200183838082843760009201919091525092955050509035600160a060020a031691506114dd9050565b34801561049157600080fd5b5061013d6115a9565b3480156104a657600080fd5b50610291600480360360c08110156104bd57600080fd5b810190602081018135602060020a8111156104d757600080fd5b8201836020820111156104e957600080fd5b803590602001918460018302840111602060020a8311171561050a57600080fd5b91908080601f0160208091040260200160405190810160405280939291908181526020018383808284376000920191909152509295949360208101935035915050602060020a81111561055c57600080fd5b82018360208201111561056e57600080fd5b803590602001918460018302840111602060020a8311171561058f57600080fd5b91908080601f0160208091040260200160405190810160405280939291908181526020018383808284376000920191909152509295949360208101935035915050602060020a8111156105e157600080fd5b8201836020820111156105f357600080fd5b803590602001918460018302840111602060020a8311171561061457600080fd5b91908080601f0160208091040260200160405190810160405280939291908181526020018383808284376000920191909152509295949360208101935035915050602060020a81111561066657600080fd5b82018360208201111561067857600080fd5b803590602001918460018302840111602060020a8311171561069957600080fd5b91908080601f01602080910402602001604051908101604052809392919081815260200183838082843760009201919091525092955050823593505050602001356115b8565b3480156106eb57600080fd5b5061013d6004803603602081101561070257600080fd5b810190602081018135602060020a81111561071c57600080fd5b82018360208201111561072e57600080fd5b803590602001918460018302840111602060020a8311171561074f57600080fd5b91908080601f016020809104026020016040519081016040528093929190818152602001838380828437600092019190915250929550611919945050505050565b34801561079c57600080fd5b5061013d6119a1565b3480156107b157600080fd5b506107ba6119b0565b60408051918252519081900360200190f35b3480156107d857600080fd5b50610291600480360360408110156107ef57600080fd5b810190602081018135602060020a81111561080957600080fd5b82018360208201111561081b57600080fd5b803590602001918460018302840111602060020a8311171561083c57600080fd5b91908080601f0160208091040260200160405190810160405280939291908181526020018383808284376000920191909152509295949360208101935035915050602060020a81111561088e57600080fd5b8201836020820111156108a057600080fd5b803590602001918460018302840111602060020a831117156108c157600080fd5b91908080601f0160208091040260200160405190810160405280939291908181526020018383808284376000920191909152509295506119b7945050505050565b34801561090e57600080fd5b5061013d6004803603602081101561092557600080fd5b810190602081018135602060020a81111561093f57600080fd5b82018360208201111561095157600080fd5b803590602001918460018302840111602060020a8311171561097257600080fd5b91908080601f016020809104026020016040519081016040528093929190818152602001838380828437600092019190915250929550611a87945050505050565b3480156109bf57600080fd5b506109c8611aba565b6040805160208082528351818301528351919283929083019185019080838360005b83811015610a025781810151838201526020016109ea565b50505050905090810190601f168015610a2f5780820380516001836020036101000a031916815260200191505b509250505060405180910390f35b348015610a4957600080fd5b50610291600480360360a0811015610a6057600080fd5b810190602081018135602060020a811115610a7a57600080fd5b820183602082011115610a8c57600080fd5b803590602001918460018302840111602060020a83111715610aad57600080fd5b91908080601f0160208091040260200160405190810160405280939291908181526020018383808284376000920191909152509295949360208101935035915050602060020a811115610aff57600080fd5b820183602082011115610b1157600080fd5b803590602001918460018302840111602060020a83111715610b3257600080fd5b91908080601f0160208091040260200160405190810160405280939291908181526020018383808284376000920191909152509295949360208101935035915050602060020a811115610b8457600080fd5b820183602082011115610b9657600080fd5b803590602001918460018302840111602060020a83111715610bb757600080fd5b91908080601f0160208091040260200160405190810160405280939291908181526020018383808284376000920191909152509295949360208101935035915050602060020a811115610c0957600080fd5b820183602082011115610c1b57600080fd5b803590602001918460018302840111602060020a83111715610c3c57600080fd5b91908080601f0160208091040260200160405190810160405280939291908181526020018383808284376000920191909152509295505091359250611b48915050565b348015610c8b57600080fd5b5061013d60048036036040811015610ca257600080fd5b810190602081018135602060020a811115610cbc57600080fd5b820183602082011115610cce57600080fd5b803590602001918460018302840111602060020a83111715610cef57600080fd5b91908080601f0160208091040260200160405190810160405280939291908181526020018383808284376000920191909152509295949360208101935035915050602060020a811115610d4157600080fd5b820183602082011115610d5357600080fd5b803590602001918460018302840111602060020a83111715610d7457600080fd5b91908080601f016020809104026020016040519081016040528093929190818152602001838380828437600092019190915250929550611f0b945050505050565b348015610dc157600080fd5b506109c860048036036020811015610dd857600080fd5b503561207e565b348015610deb57600080fd5b506107ba6120f2565b348015610e0057600080fd5b5061013d6120f8565b348015610e1557600080fd5b5061029160048036036060811015610e2c57600080fd5b810190602081018135602060020a811115610e4657600080fd5b820183602082011115610e5857600080fd5b803590602001918460018302840111602060020a83111715610e7957600080fd5b91908080601f0160208091040260200160405190810160405280939291908181526020018383808284376000920191909152509295949360208101935035915050602060020a811115610ecb57600080fd5b820183602082011115610edd57600080fd5b803590602001918460018302840111602060020a83111715610efe57600080fd5b91908080601f01602080910402602001604051908101604052809392919081815260200183838082843760009201919091525092955050509035600160a060020a031691506121079050565b348015610f5657600080fd5b5061013d60048036036020811015610f6d57600080fd5b810190602081018135602060020a811115610f8757600080fd5b820183602082011115610f9957600080fd5b803590602001918460018302840111602060020a83111715610fba57600080fd5b91908080601f0160208091040260200160405190810160405280939291908181526020018383808284376000920191909152509295506123c7945050505050565b34801561100757600080fd5b506102916124c7565b34801561101c57600080fd5b506102916004803603604081101561103357600080fd5b810190602081018135602060020a81111561104d57600080fd5b82018360208201111561105f57600080fd5b803590602001918460018302840111602060020a8311171561108057600080fd5b91908080601f01602080910402602001604051908101604052809392919081815260200183838082843760009201919091525092955050509035600160a060020a0316915061259b9050565b3480156110d857600080fd5b5061013d612728565b600d54600090600019018211156110fa57506000611190565b600f600d8381548110151561110b57fe5b9060005260206000200160405180828054600181600116156101000203166002900480156111705780601f1061114e576101008083540402835291820191611170565b820191906000526020600020905b81548152906001019060200180831161115c575b5050928352505060405190819003602001902054600160a060020a031690505b919050565b600954600160a060020a031632146111f9576040805160e560020a62461bcd02815260206004820152602f6024820152600080516020612c2a8339815191526044820152600080516020612c0a833981519152606482015290519081900360840190fd5b600061120484612737565b6040805160e060020a6238a5b50281526024810185905260048101918252855160448201528551929350600160a060020a038416926238a5b59287928792829160640190602086019080838360005b8381101561126b578181015183820152602001611253565b50505050905090810190601f1680156112985780820380516001836020036101000a031916815260200191505b509350505050600060405180830381600087803b1580156112b857600080fd5b505af11580156112cc573d6000803e3d6000fd5b5050600d805460018101808355600092909252875191935061131692507fd7b6990105719101dabeb77144f2a3385c8033acd3af97e9423a695e81ad1eb501906020880190612b71565b5050611385604080519081016040528060128152602001607060020a71646f63756d656e742d6e6f74696669657273028152506040805190810160405280601981526020017f646f63756d656e742e636f6e74726163742e637265617465640000000000000081525083612107565b50505050565b600b54600160a060020a03163314611407576040805160e560020a62461bcd02815260206004820152602e60248201527f4f6e6c7920746865206f776e6572206163636f756e742063616e20706572666f6044820152609160020a6d3936903a3434b99030b1ba34b7b702606482015290519081900360840190fd5b600061141283612737565b60405160e060020a630b4f3f3d028152602060048201818152855160248401528551939450600160a060020a03851693630b4f3f3d93879383926044909201919085019080838360005b8381101561147457818101518382015260200161145c565b50505050905090810190601f1680156114a15780820380516001836020036101000a031916815260200191505b5092505050600060405180830381600087803b1580156114c057600080fd5b505af11580156114d4573d6000803e3d6000fd5b50505050505050565b600954600160a060020a03163214611541576040805160e560020a62461bcd02815260206004820152602f6024820152600080516020612c2a8339815191526044820152600080516020612c0a833981519152606482015290519081900360840190fd5b600061154c83612737565b905080600160a060020a03166313af4035836040518263ffffffff1660e060020a0281526004018082600160a060020a0316600160a060020a03168152602001915050600060405180830381600087803b1580156114c057600080fd5b601154600160a060020a031681565b600954600160a060020a0316321461161c576040805160e560020a62461bcd02815260206004820152602f6024820152600080516020612c2a8339815191526044820152600080516020612c0a833981519152606482015290519081900360840190fd5b600061162787612737565b905080600160a060020a0316636bee1e1b87878787876040518663ffffffff1660e060020a02815260040180806020018060200180602001868152602001858152602001848103845289818151815260200191508051906020019080838360005b838110156116a0578181015183820152602001611688565b50505050905090810190601f1680156116cd5780820380516001836020036101000a031916815260200191505b5084810383528851815288516020918201918a019080838360005b838110156117005781810151838201526020016116e8565b50505050905090810190601f16801561172d5780820380516001836020036101000a031916815260200191505b50848103825287518152875160209182019189019080838360005b83811015611760578181015183820152602001611748565b50505050905090810190601f16801561178d5780820380516001836020036101000a031916815260200191505b5098505050505050505050600060405180830381600087803b1580156117b257600080fd5b505af11580156117c6573d6000803e3d6000fd5b50505050600081600160a060020a0316638525855d6040518163ffffffff1660e060020a02815260040160206040518083038186803b15801561180857600080fd5b505afa15801561181c573d6000803e3d6000fd5b505050506040513d602081101561183257600080fd5b50519050600160a060020a03811615156118ab576040805160e560020a62461bcd02815260206004820152602960248201527f4572726f72207768696c652072657472696576696e672066696c652066726f6d604482015260ba60020a6808191bd8dd5b595b9d02606482015290519081900360840190fd5b61190f6040805190810160405280600e8152602001609060020a6d66696c652d6e6f7469666965727302815250604080519081016040528060158152602001605a60020a74199a5b194b98dbdb9d1c9858dd0b98dc99585d19590281525083612107565b5050505050505050565b600061192482612a58565b151561193257506000611190565b600f826040518082805190602001908083835b602083106119645780518252601f199092019160209182019101611945565b51815160209384036101000a6000190180199092169116179052920194855250604051938490030190922054600160a060020a0316949350505050565b600b54600160a060020a031681565b600d545b90565b600954600160a060020a03163214611a1b576040805160e560020a62461bcd02815260206004820152602f6024820152600080516020612c2a8339815191526044820152600080516020612c0a833981519152606482015290519081900360840190fd5b6000611a2683612737565b60405160e660020a6302abdb1d028152602060048201818152855160248401528551939450600160a060020a0385169363aaf6c74093879383926044909201919085019080838360008381101561147457818101518382015260200161145c565b6000601082604051808280519060200190808383602083106119645780518252601f199092019160209182019101611945565b600c805460408051602060026001851615610100026000190190941693909304601f81018490048402820184019092528181529291830182828015611b405780601f10611b1557610100808354040283529160200191611b40565b820191906000526020600020905b815481529060010190602001808311611b2357829003601f168201915b505050505081565b600954600160a060020a03163214611bac576040805160e560020a62461bcd02815260206004820152602f6024820152600080516020612c2a8339815191526044820152600080516020612c0a833981519152606482015290519081900360840190fd5b6000611bb786612737565b905080600160a060020a031663de4cd842868686866040518563ffffffff1660e060020a02815260040180806020018060200180602001858152602001848103845288818151815260200191508051906020019080838360005b83811015611c29578181015183820152602001611c11565b50505050905090810190601f168015611c565780820380516001836020036101000a031916815260200191505b50848103835287518152875160209182019189019080838360005b83811015611c89578181015183820152602001611c71565b50505050905090810190601f168015611cb65780820380516001836020036101000a031916815260200191505b50848103825286518152865160209182019188019080838360005b83811015611ce9578181015183820152602001611cd1565b50505050905090810190601f168015611d165780820380516001836020036101000a031916815260200191505b50975050505050505050600060405180830381600087803b158015611d3a57600080fd5b505af1158015611d4e573d6000803e3d6000fd5b505060405160e060020a63e190206302815260206004820181815289516024840152895160009550600160a060020a038716945063e1902063938b938392604490920191908501908083838b5b83811015611db3578181015183820152602001611d9b565b50505050905090810190601f168015611de05780820380516001836020036101000a031916815260200191505b509250505060206040518083038186803b158015611dfd57600080fd5b505afa158015611e11573d6000803e3d6000fd5b505050506040513d6020811015611e2757600080fd5b50519050600160a060020a0381161515611ea1576040805160e560020a62461bcd02815260206004820152602a60248201527f4572726f72207768696c652072657472696576696e67206576656e742066726f604482015260b260020a691b48191bd8dd5b595b9d02606482015290519081900360840190fd5b6114d46040805190810160405280600f8152602001608860020a6e6576656e742d6e6f74696669657273028152506040805190810160405280601681526020017f6576656e742e636f6e74726163742e637265617465640000000000000000000081525083612107565b6000611f1683612a58565b1515611f2457506000612078565b6000600f846040518082805190602001908083835b60208310611f585780518252601f199092019160209182019101611f39565b51815160209384036101000a600019018019909216911617905292019485525060405193849003810184205460e060020a63e190206302855260048501828152885160248701528851600160a060020a039092169563e19020639550899450909283926044909201919085019080838360005b83811015611fe3578181015183820152602001611fcb565b50505050905090810190601f1680156120105780820380516001836020036101000a031916815260200191505b509250505060206040518083038186803b15801561202d57600080fd5b505afa158015612041573d6000803e3d6000fd5b505050506040513d602081101561205757600080fd5b50519050600160a060020a0381161515612075576000915050612078565b90505b92915050565b600d80548290811061208c57fe5b600091825260209182902001805460408051601f6002600019610100600187161502019094169390930492830185900485028101850190915281815293509091830182828015611b405780601f10611b1557610100808354040283529160200191611b40565b600e5481565b600a54600160a060020a031681565b600954600160a060020a0316321461216b576040805160e560020a62461bcd02815260206004820152602f6024820152600080516020612c2a8339815191526044820152600080516020612c0a833981519152606482015290519081900360840190fd5b6000805b6011546040805160e260020a633ce8989d0281526024810184905260048101918252875160448201528751600160a060020a039093169263f3a262749289928692829160640190602086019080838360005b838110156121d95781810151838201526020016121c1565b50505050905090810190601f1680156122065780820380516001836020036101000a031916815260200191505b50935050505060206040518083038186803b15801561222457600080fd5b505afa158015612238573d6000803e3d6000fd5b505050506040513d602081101561224e57600080fd5b50519150600101600160a060020a038216156123b05760408051600160a060020a038581166044830152602482019283528651606483015286519085169287928792829160840190602086019080838360005b838110156122b95781810151838201526020016122a1565b50505050905090810190601f1680156122e65780820380516001836020036101000a031916815260200191505b5060408051601f19818403018152918152602082018051600160e060020a031660e160020a63738f32bb0217815290518251929650945084935091508083835b602083106123455780518252601f199092019160209182019101612326565b6001836020036101000a0380198251168184511680821785525050505050509050019150506000604051808303816000865af19150503d80600081146123a7576040519150601f19603f3d011682016040523d82523d6000602084013e6123ac565b606091505b5050505b600160a060020a038216151561216f575050505050565b60006123d282612a58565b15156123e057506000611190565b6000600f836040518082805190602001908083835b602083106124145780518252601f1990920191602091820191016123f5565b51815160209384036101000a60001901801990921691161790529201948552506040805194859003820185205460e060020a638525855d0286529051600160a060020a0390911694638525855d94506004808201945090829003018186803b15801561247f57600080fd5b505afa158015612493573d6000803e3d6000fd5b505050506040513d60208110156124a957600080fd5b50519050600160a060020a0381161515612078576000915050611190565b600954600160a060020a0316321461252b576040805160e560020a62461bcd02815260206004820152602f6024820152600080516020612c2a8339815191526044820152600080516020612c0a833981519152606482015290519081900360840190fd5b612599604080519081016040528060138152602001606860020a727369676e61747572652d6e6f74696669657273028152506040805190810160405280601a81526020017f7369676e61747572652e636f6e74726163742e6372656174656400000000000081525030612107565b565b600954600160a060020a031632146125ff576040805160e560020a62461bcd02815260206004820152602f6024820152600080516020612c2a8339815191526044820152600080516020612c0a833981519152606482015290519081900360840190fd5b61263d6040805190810160405280601681526020017f7061796d656e745f636c617573652e6372656174656400000000000000000000815250612ad8565b61264683612ad8565b1415612692576040805160ca60020a661c185e5b595b9d0281526010600782015290519081900360270190208054600160a060020a038316600160a060020a0319909116179055612724565b6126d06040805190810160405280601981526020017f74696d656c6f676765725f636c617573652e6372656174656400000000000000815250612ad8565b6126d983612ad8565b1415612724576040805160b160020a693a34b6b2b637b3b3b2b90281526010600a820152905190819003602a0190208054600160a060020a038316600160a060020a03199091161790555b5050565b600954600160a060020a031681565b600061274282612a58565b156127b857600f826040518082805190602001908083835b602083106127795780518252601f19909201916020918201910161275a565b51815160209384036101000a6000190180199092169116179052920194855250604051938490030190922054600160a060020a03169250611190915050565b600a5460408051600160a060020a03909216604483018190526024830191825284516064840152845160009360609387928492829160849091019060208601908083838c5b838110156128155781810151838201526020016127fd565b50505050905090810190601f1680156128425780820380516001836020036101000a031916815260200191505b5060408051601f19818403018152918152602082018051600160e060020a031660e260020a63226ddea10217815290518251929650945084935091508083835b602083106128a15780518252601f199092019160209182019101612882565b6001836020036101000a038019825116818451168082178552505050505050905001915050600060405180830381855af49150503d8060008114612901576040519150601f19603f3d011682016040523d82523d6000602084013e612906565b606091505b5091509150811515612962576040805160e560020a62461bcd02815260206004820152601e60248201527f4572726f72207768696c65206465706c6f79696e6720646f63756d656e740000604482015290519081900360640190fd5b61296b81612b6a565b600f856040518082805190602001908083835b6020831061299d5780518252601f19909201916020918201910161297e565b51815160209384036101000a600019018019909216911617905292019485525060405193849003810184208054600160a060020a031916600160a060020a03969096169590951790945550508551600f9287929182918401908083835b60208310612a195780518252601f1990920191602091820191016129fa565b51815160209384036101000a6000190180199092169116179052920194855250604051938490030190922054600160a060020a03169695505050505050565b600080600160a060020a0316600f836040518082805190602001908083835b60208310612a965780518252601f199092019160209182019101612a77565b51815160209384036101000a6000190180199092169116179052920194855250604051938490030190922054600160a060020a03169290921415949350505050565b6000816040516020018080602001828103825283818151815260200191508051906020019080838360005b83811015612b1b578181015183820152602001612b03565b50505050905090810190601f168015612b485780820380516001836020036101000a031916815260200191505b5092505050604051602081830303815290604052805190602001209050919050565b6020015190565b828054600181600116156101000203166002900490600052602060002090601f016020900481019282601f10612bb257805160ff1916838001178555612bdf565b82800160010185558215612bdf579182015b82811115612bdf578251825591602001919060010190612bc4565b50612beb929150612bef565b5090565b6119b491905b80821115612beb5760008155600101612bf556fe6f726d207468697320616374696f6e00000000000000000000000000000000004f6e6c79205369676e617475726974206163636f756e742063616e2070657266a165627a7a72305820076835d962ab1ddf1d6f3c7aea3c3408f21ab04fe854a535c54a5896aac56ea10029",
  "source": "pragma solidity <0.6.0;\n\n/*\nGas to deploy: 2.882.648\n*/\n\nimport \"./interfaces/SignatureInterface.sol\";\nimport \"./interfaces/NotifierInterface.sol\";\nimport \"./interfaces/DocumentInterface.sol\";\nimport \"./interfaces/UserInterface.sol\";\nimport \"./interfaces/FileInterface.sol\";\nimport \"./interfaces/EventInterface.sol\";\nimport \"./interfaces/SignaturitUserInterface.sol\";\nimport \"./libraries/Utils.sol\";\n\n\ncontract Signature is SignatureInterface, NotifierInterface {\n    string constant private SIGNATURE_CREATED_EVENT = \"signature.contract.created\";\n    string constant private DOCUMENT_CREATED_EVENT = \"document.contract.created\";\n    string constant private FILE_CREATED_EVENT = \"file.contract.created\";\n    string constant private EVENT_CREATED_EVENT = \"event.contract.created\";\n\n    string constant private SIGNATURE_NOTIFIERS_KEY = \"signature-notifiers\";\n    string constant private DOCUMENT_NOTIFIERS_KEY = \"document-notifiers\";\n    string constant private FILE_NOTIFIERS_KEY = \"file-notifiers\";\n    string constant private EVENT_NOTIFIERS_KEY = \"event-notifiers\";\n\n    address public signaturit;\n    address public deployer;\n    address public owner;\n\n    string public id;\n\n    string[] public documentsId;\n\n    int public createdAt;\n\n    mapping(string => DocumentInterface) private documents;\n\n    mapping(string => address) private clauses;\n\n    SignaturitUserInterface public userContract;\n\n    constructor(\n        string memory signatureId,\n        address deployerAddress,\n        int signatureCreatedAt,\n        address signatureOwner,\n        address userSmartContractAddress\n    ) public {\n        signaturit = msg.sender;\n        deployer = deployerAddress;\n\n        owner = signatureOwner;\n        userContract = SignaturitUserInterface(userSmartContractAddress);\n\n        id = signatureId;\n        createdAt = signatureCreatedAt;\n    }\n\n    modifier signaturitOnly() {\n        require(\n            tx.origin == signaturit,\n            \"Only Signaturit account can perform this action\"\n        );\n\n        _;\n    }\n\n    modifier ownerOnly() {\n        require(\n            msg.sender == owner,\n            \"Only the owner account can perform this action\"\n        );\n\n        _;\n    }\n\n    function notify(\n        string memory attribute,\n        address adr\n    )\n        public\n        signaturitOnly\n    {\n        if (Utils.keccak(attribute) == Utils.keccak(\"payment_clause.created\")) clauses[\"payment\"] = adr;\n        else if (Utils.keccak(attribute) == Utils.keccak(\"timelogger_clause.created\")) clauses[\"timelogger\"] = adr;\n    }\n\n    function notifyCreation()\n        public\n        signaturitOnly\n    {\n        notifyEntityEvent(SIGNATURE_NOTIFIERS_KEY, SIGNATURE_CREATED_EVENT, address(this));\n    }\n\n    function createDocument(\n        string memory documentId,\n        string memory signatureType,\n        uint documentCreatedAt\n    )\n        public\n        signaturitOnly\n    {\n        DocumentInterface document = _getDocument(documentId);\n\n        document.init(signatureType, documentCreatedAt);\n\n        documentsId.push(documentId);\n\n        notifyEntityEvent(DOCUMENT_NOTIFIERS_KEY, DOCUMENT_CREATED_EVENT, address(document));\n    }\n\n    function setDocumentOwner (\n        string memory documentId,\n        address documentOwner\n    )\n        public\n        signaturitOnly\n    {\n        DocumentInterface document = _getDocument(documentId);\n\n        document.setOwner(documentOwner);\n    }\n\n    function setSignedFileHash (\n        string memory documentId,\n        string memory signedFileHash\n    )\n        public \n        signaturitOnly\n    {\n        DocumentInterface document = _getDocument(documentId);\n\n        document.setFileHash(signedFileHash);\n    }\n\n    function cancelDocument (\n        string memory documentId,\n        string memory cancelReason\n    )\n        public\n        ownerOnly\n    {\n        DocumentInterface document = _getDocument(documentId);\n\n        document.cancel(cancelReason);\n    }\n\n    function createFile(\n        string memory documentId,\n        string memory fileId,\n        string memory fileName,\n        string memory fileHash,\n        uint fileCreatedAt,\n        uint fileSize\n    )\n        public\n        signaturitOnly\n    {\n        DocumentInterface document = _getDocument(documentId);\n\n        document.\n            createFile(\n            fileId,\n            fileName,\n            fileHash,\n            fileCreatedAt,\n            fileSize\n        );\n\n        FileInterface signatureFile = document.file();\n        require(\n            address(signatureFile) != address(0),\n            \"Error while retrieving file from document\"\n        );\n\n        notifyEntityEvent(FILE_NOTIFIERS_KEY, FILE_CREATED_EVENT, address(signatureFile));\n    }\n\n    function createEvent(\n        string memory documentId,\n        string memory eventId,\n        string memory eventType,\n        string memory eventUserAgent,\n        uint eventCreatedAt\n    )\n        public\n        signaturitOnly\n    {\n        DocumentInterface document = _getDocument(documentId);\n\n        document.createEvent(\n            eventId,\n            eventType,\n            eventUserAgent,\n            eventCreatedAt\n        );\n\n        EventInterface signatureEvent = document.getEvent(eventId);\n\n        require(\n            address(signatureEvent) != address(0),\n            \"Error while retrieving event from document\"\n        );\n\n        notifyEntityEvent(EVENT_NOTIFIERS_KEY, EVENT_CREATED_EVENT, address(signatureEvent));\n    }\n\n    function getClause(\n        string memory clauseType\n    )\n        public\n        view\n        returns (address clauseAddress)\n    {\n        return clauses[clauseType];\n    }\n\n    function getDocument(\n        string memory documentId\n    )\n        public\n        view\n        returns (address)\n    {\n        if (!_documentExist(documentId)) return address(0);\n\n        return address(documents[documentId]);\n    }\n\n    function getDocumentByIndex(\n        uint index\n    )\n        public\n        view\n        returns (address)\n    {\n        if (index > documentsId.length - 1) return address(0);\n\n        return address(documents[documentsId[index]]);\n    }\n\n    function getDocumentsSize()\n        public\n        view\n        returns (uint)\n    {\n        return documentsId.length;\n    }\n\n    function getFile(\n        string memory documentId\n    )\n        public\n        view\n        returns (address)\n    {\n        if (!_documentExist(documentId)) return address(0);\n\n        FileInterface signatureFile = documents[documentId].file();\n\n        if (address(signatureFile) == address(0)) return address(0);\n\n        return address(signatureFile);\n    }\n\n    function getEvent(\n        string memory documentId,\n        string memory eventId\n    )\n        public\n        view\n        returns (address)\n    {\n        if (!_documentExist(documentId)) return address(0);\n\n        EventInterface signatureEvent = documents[documentId].getEvent(\n            eventId\n        );\n\n        if (address(signatureEvent) == address(0)) return address(0);\n\n        return address(signatureEvent);\n    }\n\n    function notifyEntityEvent (\n        string memory notifiersKey,\n        string memory createdEvent,\n        address adrToNotify\n    )\n        public\n        signaturitOnly\n    {\n        address contractToNofify;\n        uint notificationIndex = 0;\n\n        do {\n            contractToNofify = userContract.getAddressArrayAttribute(notifiersKey, notificationIndex);\n            ++notificationIndex;\n\n            if (contractToNofify != address(0)) {\n                contractToNofify.call(\n                    abi.encodeWithSignature(\n                        \"notify(string,address)\",\n                        createdEvent,\n                        adrToNotify\n                    )\n                );\n            }\n        } while (contractToNofify != address(0));\n    }\n\n    function _getDocument(\n        string memory documentId\n    )\n        private\n        returns (DocumentInterface)\n    {\n        if (_documentExist(documentId))\n            return documents[documentId];\n\n        (\n            bool success,\n            bytes memory returnData\n        ) = deployer.delegatecall(\n            abi.encodeWithSignature(\"deployDocument(string,address)\",\n            documentId,\n            deployer)\n        );\n\n        require(\n            success,\n            \"Error while deploying document\"\n        );\n\n        documents[documentId] = DocumentInterface(\n            Utils._bytesToAddress(returnData)\n        );\n\n        return documents[documentId];\n    }\n\n    function _documentExist(\n        string memory documentId\n    )\n        private\n        view\n        returns (bool)\n    {\n        return address(documents[documentId]) != address(0);\n    }\n}\n",
  "sourcePath": "/home/administrator/workspace/signaturit-solidity-contracts/contracts/Signature.sol",
  "compiler": {
    "name": "solc",
    "version": "0.5.0+commit.1d4f565a.Emscripten.clang"
  },
  "schemaVersion": "3.0.11",
  "updatedAt": "2019-10-07T13:40:56.955Z",
  "devdoc": {
    "methods": {}
  },
  "userdoc": {
    "methods": {}
  }
}