{
  "contractName": "SignaturitUser",
  "abi": [
    {
      "constant": true,
      "inputs": [
        {
          "name": "",
          "type": "bytes32"
        }
      ],
      "name": "addressAttr",
      "outputs": [
        {
          "name": "",
          "type": "address"
        }
      ],
      "payable": false,
      "stateMutability": "view",
      "type": "function"
    },
    {
      "constant": true,
      "inputs": [
        {
          "name": "",
          "type": "bytes32"
        }
      ],
      "name": "numberAttr",
      "outputs": [
        {
          "name": "",
          "type": "int256"
        }
      ],
      "payable": false,
      "stateMutability": "view",
      "type": "function"
    },
    {
      "constant": true,
      "inputs": [
        {
          "name": "",
          "type": "bytes32"
        }
      ],
      "name": "boolAttr",
      "outputs": [
        {
          "name": "",
          "type": "bool"
        }
      ],
      "payable": false,
      "stateMutability": "view",
      "type": "function"
    },
    {
      "constant": true,
      "inputs": [],
      "name": "ownerAddress",
      "outputs": [
        {
          "name": "",
          "type": "address"
        }
      ],
      "payable": false,
      "stateMutability": "view",
      "type": "function"
    },
    {
      "constant": true,
      "inputs": [
        {
          "name": "",
          "type": "bytes32"
        },
        {
          "name": "",
          "type": "uint256"
        }
      ],
      "name": "numberArrayAttr",
      "outputs": [
        {
          "name": "",
          "type": "int256"
        }
      ],
      "payable": false,
      "stateMutability": "view",
      "type": "function"
    },
    {
      "constant": true,
      "inputs": [],
      "name": "rootAddress",
      "outputs": [
        {
          "name": "",
          "type": "address"
        }
      ],
      "payable": false,
      "stateMutability": "view",
      "type": "function"
    },
    {
      "constant": true,
      "inputs": [
        {
          "name": "",
          "type": "bytes32"
        },
        {
          "name": "",
          "type": "uint256"
        }
      ],
      "name": "boolArrayAttr",
      "outputs": [
        {
          "name": "",
          "type": "bool"
        }
      ],
      "payable": false,
      "stateMutability": "view",
      "type": "function"
    },
    {
      "constant": true,
      "inputs": [
        {
          "name": "",
          "type": "bytes32"
        }
      ],
      "name": "stringAttr",
      "outputs": [
        {
          "name": "",
          "type": "string"
        }
      ],
      "payable": false,
      "stateMutability": "view",
      "type": "function"
    },
    {
      "constant": true,
      "inputs": [
        {
          "name": "",
          "type": "bytes32"
        },
        {
          "name": "",
          "type": "uint256"
        }
      ],
      "name": "addressArrayAttr",
      "outputs": [
        {
          "name": "",
          "type": "address"
        }
      ],
      "payable": false,
      "stateMutability": "view",
      "type": "function"
    },
    {
      "inputs": [
        {
          "name": "_ownerAddress",
          "type": "address"
        }
      ],
      "payable": false,
      "stateMutability": "nonpayable",
      "type": "constructor"
    },
    {
      "constant": false,
      "inputs": [
        {
          "name": "key",
          "type": "string"
        },
        {
          "name": "value",
          "type": "string"
        }
      ],
      "name": "setStringAttribute",
      "outputs": [],
      "payable": false,
      "stateMutability": "nonpayable",
      "type": "function"
    },
    {
      "constant": true,
      "inputs": [
        {
          "name": "key",
          "type": "string"
        }
      ],
      "name": "getStringAttribute",
      "outputs": [
        {
          "name": "",
          "type": "string"
        }
      ],
      "payable": false,
      "stateMutability": "view",
      "type": "function"
    },
    {
      "constant": false,
      "inputs": [
        {
          "name": "key",
          "type": "string"
        },
        {
          "name": "value",
          "type": "string"
        }
      ],
      "name": "setStringArrayAttribute",
      "outputs": [],
      "payable": false,
      "stateMutability": "nonpayable",
      "type": "function"
    },
    {
      "constant": true,
      "inputs": [
        {
          "name": "key",
          "type": "string"
        },
        {
          "name": "index",
          "type": "uint256"
        }
      ],
      "name": "getStringArrayAttribute",
      "outputs": [
        {
          "name": "",
          "type": "string"
        }
      ],
      "payable": false,
      "stateMutability": "view",
      "type": "function"
    },
    {
      "constant": false,
      "inputs": [
        {
          "name": "key",
          "type": "string"
        },
        {
          "name": "value",
          "type": "int256"
        }
      ],
      "name": "setNumberAttribute",
      "outputs": [],
      "payable": false,
      "stateMutability": "nonpayable",
      "type": "function"
    },
    {
      "constant": true,
      "inputs": [
        {
          "name": "key",
          "type": "string"
        }
      ],
      "name": "getNumberAttribute",
      "outputs": [
        {
          "name": "",
          "type": "int256"
        }
      ],
      "payable": false,
      "stateMutability": "view",
      "type": "function"
    },
    {
      "constant": false,
      "inputs": [
        {
          "name": "key",
          "type": "string"
        },
        {
          "name": "value",
          "type": "int256"
        }
      ],
      "name": "setNumberArrayAttribute",
      "outputs": [],
      "payable": false,
      "stateMutability": "nonpayable",
      "type": "function"
    },
    {
      "constant": true,
      "inputs": [
        {
          "name": "key",
          "type": "string"
        },
        {
          "name": "index",
          "type": "uint256"
        }
      ],
      "name": "getNumberArrayAttribute",
      "outputs": [
        {
          "name": "",
          "type": "int256"
        }
      ],
      "payable": false,
      "stateMutability": "view",
      "type": "function"
    },
    {
      "constant": false,
      "inputs": [
        {
          "name": "key",
          "type": "string"
        },
        {
          "name": "value",
          "type": "address"
        }
      ],
      "name": "setAddressAttribute",
      "outputs": [],
      "payable": false,
      "stateMutability": "nonpayable",
      "type": "function"
    },
    {
      "constant": true,
      "inputs": [
        {
          "name": "key",
          "type": "string"
        }
      ],
      "name": "getAddressAttribute",
      "outputs": [
        {
          "name": "",
          "type": "address"
        }
      ],
      "payable": false,
      "stateMutability": "view",
      "type": "function"
    },
    {
      "constant": false,
      "inputs": [
        {
          "name": "key",
          "type": "string"
        },
        {
          "name": "value",
          "type": "address"
        }
      ],
      "name": "setAddressArrayAttribute",
      "outputs": [],
      "payable": false,
      "stateMutability": "nonpayable",
      "type": "function"
    },
    {
      "constant": true,
      "inputs": [
        {
          "name": "key",
          "type": "string"
        },
        {
          "name": "index",
          "type": "uint256"
        }
      ],
      "name": "getAddressArrayAttribute",
      "outputs": [
        {
          "name": "",
          "type": "address"
        }
      ],
      "payable": false,
      "stateMutability": "view",
      "type": "function"
    },
    {
      "constant": false,
      "inputs": [
        {
          "name": "key",
          "type": "string"
        },
        {
          "name": "value",
          "type": "bool"
        }
      ],
      "name": "setBooleanAttribute",
      "outputs": [],
      "payable": false,
      "stateMutability": "nonpayable",
      "type": "function"
    },
    {
      "constant": true,
      "inputs": [
        {
          "name": "key",
          "type": "string"
        }
      ],
      "name": "getBooleanAttribute",
      "outputs": [
        {
          "name": "",
          "type": "bool"
        }
      ],
      "payable": false,
      "stateMutability": "view",
      "type": "function"
    },
    {
      "constant": false,
      "inputs": [
        {
          "name": "key",
          "type": "string"
        },
        {
          "name": "value",
          "type": "bool"
        }
      ],
      "name": "setBooleanArrayAttribute",
      "outputs": [],
      "payable": false,
      "stateMutability": "nonpayable",
      "type": "function"
    },
    {
      "constant": true,
      "inputs": [
        {
          "name": "key",
          "type": "string"
        },
        {
          "name": "index",
          "type": "uint256"
        }
      ],
      "name": "getBooleanArrayAttribute",
      "outputs": [
        {
          "name": "",
          "type": "bool"
        }
      ],
      "payable": false,
      "stateMutability": "view",
      "type": "function"
    }
  ],
  "bytecode": "0x608060405234801561001057600080fd5b50604051602080611b338339810180604052602081101561003057600080fd5b505160008054600160a060020a0319908116331790915560018054600160a060020a0390931692909116919091179055611ac48061006f6000396000f3fe60806040526004361061012f5763ffffffff60e060020a6000350416630611ff70811461013457806324ead3c61461025c5780632ccc83811461030d57806334311d8e146103d25780633454a81614610490578063366e8b8f146104d657806344947cec146105895780635e734e291461064e57806361aab0181461078457806361d5b657146107ae57806366ae09bc146108615780636793bcc21461088b5780638c9c48741461093e5780638caf4de3146109ef5780638f84aa0914610b255780639518d93314610b3a5780639cefb31e14610b6a578063a6d1c1b714610c1d578063aaa2b8c814610cd0578063ac3e500114610ce5578063d47f3f2514610d15578063d661f87814610d3f578063eebb59a014610dfb578063f3a2627414610e2b578063ff6ccad614610ede575b600080fd5b34801561014057600080fd5b506101e76004803603604081101561015757600080fd5b810190602081018135602060020a81111561017157600080fd5b82018360208201111561018357600080fd5b803590602001918460018302840111602060020a831117156101a457600080fd5b91908080601f0160208091040260200160405190810160405280939291908181526020018383808284376000920191909152509295505091359250610f8f915050565b6040805160208082528351818301528351919283929083019185019080838360005b83811015610221578181015183820152602001610209565b50505050905090810190601f16801561024e5780820380516001836020036101000a031916815260200191505b509250505060405180910390f35b34801561026857600080fd5b506101e76004803603602081101561027f57600080fd5b810190602081018135602060020a81111561029957600080fd5b8201836020820111156102ab57600080fd5b803590602001918460018302840111602060020a831117156102cc57600080fd5b91908080601f016020809104026020016040519081016040528093929190818152602001838380828437600092019190915250929550611082945050505050565b34801561031957600080fd5b506103be6004803603602081101561033057600080fd5b810190602081018135602060020a81111561034a57600080fd5b82018360208201111561035c57600080fd5b803590602001918460018302840111602060020a8311171561037d57600080fd5b91908080601f016020809104026020016040519081016040528093929190818152602001838380828437600092019190915250929550611131945050505050565b604080519115158252519081900360200190f35b3480156103de57600080fd5b5061048e600480360360408110156103f557600080fd5b810190602081018135602060020a81111561040f57600080fd5b82018360208201111561042157600080fd5b803590602001918460018302840111602060020a8311171561044257600080fd5b91908080601f01602080910402602001604051908101604052809392919081815260200183838082843760009201919091525092955050509035600160a060020a031691506111569050565b005b34801561049c57600080fd5b506104ba600480360360208110156104b357600080fd5b50356111f4565b60408051600160a060020a039092168252519081900360200190f35b3480156104e257600080fd5b5061048e600480360360408110156104f957600080fd5b810190602081018135602060020a81111561051357600080fd5b82018360208201111561052557600080fd5b803590602001918460018302840111602060020a8311171561054657600080fd5b91908080601f016020809104026020016040519081016040528093929190818152602001838380828437600092019190915250929550505050351515905061120f565b34801561059557600080fd5b5061063c600480360360408110156105ac57600080fd5b810190602081018135602060020a8111156105c657600080fd5b8201836020820111156105d857600080fd5b803590602001918460018302840111602060020a831117156105f957600080fd5b91908080601f016020809104026020016040519081016040528093929190818152602001838380828437600092019190915250929550509135925061129e915050565b60408051918252519081900360200190f35b34801561065a57600080fd5b5061048e6004803603604081101561067157600080fd5b810190602081018135602060020a81111561068b57600080fd5b82018360208201111561069d57600080fd5b803590602001918460018302840111602060020a831117156106be57600080fd5b91908080601f0160208091040260200160405190810160405280939291908181526020018383808284376000920191909152509295949360208101935035915050602060020a81111561071057600080fd5b82018360208201111561072257600080fd5b803590602001918460018302840111602060020a8311171561074357600080fd5b91908080601f0160208091040260200160405190810160405280939291908181526020018383808284376000920191909152509295506112fa945050505050565b34801561079057600080fd5b5061063c600480360360208110156107a757600080fd5b50356113a6565b3480156107ba57600080fd5b506103be600480360360408110156107d157600080fd5b810190602081018135602060020a8111156107eb57600080fd5b8201836020820111156107fd57600080fd5b803590602001918460018302840111602060020a8311171561081e57600080fd5b91908080601f01602080910402602001604051908101604052809392919081815260200183838082843760009201919091525092955050913592506113b8915050565b34801561086d57600080fd5b506103be6004803603602081101561088457600080fd5b503561141f565b34801561089757600080fd5b5061048e600480360360408110156108ae57600080fd5b810190602081018135602060020a8111156108c857600080fd5b8201836020820111156108da57600080fd5b803590602001918460018302840111602060020a831117156108fb57600080fd5b91908080601f0160208091040260200160405190810160405280939291908181526020018383808284376000920191909152509295505050503515159050611434565b34801561094a57600080fd5b506104ba6004803603602081101561096157600080fd5b810190602081018135602060020a81111561097b57600080fd5b82018360208201111561098d57600080fd5b803590602001918460018302840111602060020a831117156109ae57600080fd5b91908080601f0160208091040260200160405190810160405280939291908181526020018383808284376000920191909152509295506114e6945050505050565b3480156109fb57600080fd5b5061048e60048036036040811015610a1257600080fd5b810190602081018135602060020a811115610a2c57600080fd5b820183602082011115610a3e57600080fd5b803590602001918460018302840111602060020a83111715610a5f57600080fd5b91908080601f0160208091040260200160405190810160405280939291908181526020018383808284376000920191909152509295949360208101935035915050602060020a811115610ab157600080fd5b820183602082011115610ac357600080fd5b803590602001918460018302840111602060020a83111715610ae457600080fd5b91908080601f016020809104026020016040519081016040528093929190818152602001838380828437600092019190915250929550611511945050505050565b348015610b3157600080fd5b506104ba6115a8565b348015610b4657600080fd5b5061063c60048036036040811015610b5d57600080fd5b50803590602001356115b7565b348015610b7657600080fd5b5061048e60048036036040811015610b8d57600080fd5b810190602081018135602060020a811115610ba757600080fd5b820183602082011115610bb957600080fd5b803590602001918460018302840111602060020a83111715610bda57600080fd5b91908080601f01602080910402602001604051908101604052809392919081815260200183838082843760009201919091525092955050913592506115e7915050565b348015610c2957600080fd5b5061048e60048036036040811015610c4057600080fd5b810190602081018135602060020a811115610c5a57600080fd5b820183602082011115610c6c57600080fd5b803590602001918460018302840111602060020a83111715610c8d57600080fd5b91908080601f016020809104026020016040519081016040528093929190818152602001838380828437600092019190915250929550509135925061166a915050565b348015610cdc57600080fd5b506104ba6116fd565b348015610cf157600080fd5b506103be60048036036040811015610d0857600080fd5b508035906020013561170c565b348015610d2157600080fd5b506101e760048036036020811015610d3857600080fd5b503561174e565b348015610d4b57600080fd5b5061048e60048036036040811015610d6257600080fd5b810190602081018135602060020a811115610d7c57600080fd5b820183602082011115610d8e57600080fd5b803590602001918460018302840111602060020a83111715610daf57600080fd5b91908080601f01602080910402602001604051908101604052809392919081815260200183838082843760009201919091525092955050509035600160a060020a031691506117e79050565b348015610e0757600080fd5b506104ba60048036036040811015610e1e57600080fd5b5080359060200135611895565b348015610e3757600080fd5b506104ba60048036036040811015610e4e57600080fd5b810190602081018135602060020a811115610e6857600080fd5b820183602082011115610e7a57600080fd5b803590602001918460018302840111602060020a83111715610e9b57600080fd5b91908080601f01602080910402602001604051908101604052809392919081815260200183838082843760009201919091525092955050913592506118cc915050565b348015610eea57600080fd5b5061063c60048036036020811015610f0157600080fd5b810190602081018135602060020a811115610f1b57600080fd5b820183602082011115610f2d57600080fd5b803590602001918460018302840111602060020a83111715610f4e57600080fd5b91908080601f016020809104026020016040519081016040528093929190818152602001838380828437600092019190915250929550611929945050505050565b60606000610f9c8461194b565b60008181526003602052604090205490915083101561106a576000818152600360205260409020805484908110610fcf57fe5b600091825260209182902001805460408051601f600260001961010060018716150201909416939093049283018590048502810185019091528181529283018282801561105d5780601f106110325761010080835404028352916020019161105d565b820191906000526020600020905b81548152906001019060200180831161104057829003601f168201915b505050505091505061107c565b50506040805160208101909152600081525b92915050565b6060600061108f8361194b565b600081815260026020818152604092839020805484516001821615610100026000190190911693909304601f8101839004830284018301909452838352939450909291908301828280156111245780601f106110f957610100808354040283529160200191611124565b820191906000526020600020905b81548152906001019060200180831161110757829003601f168201915b5050505050915050919050565b60008061113d8361194b565b60009081526008602052604090205460ff169392505050565b600054600160a060020a031632146111b8576040805160e560020a62461bcd0281526020600482015260266024820152600080516020611a79833981519152604482015260d160020a6530b1ba34b7b702606482015290519081900360840190fd5b60006111c38361194b565b60009081526006602052604090208054600160a060020a031916600160a060020a0393909316929092179091555050565b600660205260009081526040902054600160a060020a031681565b600054600160a060020a03163214611271576040805160e560020a62461bcd0281526020600482015260266024820152600080516020611a79833981519152604482015260d160020a6530b1ba34b7b702606482015290519081900360840190fd5b600061127c8361194b565b6000908152600860205260409020805460ff1916921515929092179091555050565b6000806112aa8461194b565b6000818152600560205260409020549091508310156112f05760008181526005602052604090208054849081106112dd57fe5b906000526020600020015491505061107c565b5060009392505050565b600054600160a060020a0316321461135c576040805160e560020a62461bcd0281526020600482015260266024820152600080516020611a79833981519152604482015260d160020a6530b1ba34b7b702606482015290519081900360840190fd5b60006113678361194b565b60008181526003602090815260408220805460018101808355918452928290208651949550909361139f9391909101918601906119dd565b5050505050565b60046020526000908152604090205481565b6000806113c48461194b565b6000818152600960205260409020549091508310156112f05760008181526009602052604090208054849081106113f757fe5b90600052602060002090602091828204019190069054906101000a900460ff1691505061107c565b60086020526000908152604090205460ff1681565b600054600160a060020a03163214611496576040805160e560020a62461bcd0281526020600482015260266024820152600080516020611a79833981519152604482015260d160020a6530b1ba34b7b702606482015290519081900360840190fd5b60006114a18361194b565b60009081526009602090815260408220805460018101825590835291819020908204018054931515601f9092166101000a91820260ff90920219909316179091555050565b6000806114f28361194b565b600090815260066020526040902054600160a060020a03169392505050565b600054600160a060020a03163214611573576040805160e560020a62461bcd0281526020600482015260266024820152600080516020611a79833981519152604482015260d160020a6530b1ba34b7b702606482015290519081900360840190fd5b600061157e8361194b565b600081815260026020908152604090912084519293506115a29290918501906119dd565b50505050565b600154600160a060020a031681565b6005602052816000526040600020818154811015156115d257fe5b90600052602060002001600091509150505481565b600054600160a060020a03163214611649576040805160e560020a62461bcd0281526020600482015260266024820152600080516020611a79833981519152604482015260d160020a6530b1ba34b7b702606482015290519081900360840190fd5b60006116548361194b565b6000908152600460205260409020919091555050565b600054600160a060020a031632146116cc576040805160e560020a62461bcd0281526020600482015260266024820152600080516020611a79833981519152604482015260d160020a6530b1ba34b7b702606482015290519081900360840190fd5b60006116d78361194b565b600090815260056020908152604082208054600181018255908352912001919091555050565b600054600160a060020a031681565b60096020528160005260406000208181548110151561172757fe5b9060005260206000209060209182820401919006915091509054906101000a900460ff1681565b600260208181526000928352604092839020805484516001821615610100026000190190911693909304601f81018390048302840183019094528383529192908301828280156117df5780601f106117b4576101008083540402835291602001916117df565b820191906000526020600020905b8154815290600101906020018083116117c257829003601f168201915b505050505081565b600054600160a060020a03163214611849576040805160e560020a62461bcd0281526020600482015260266024820152600080516020611a79833981519152604482015260d160020a6530b1ba34b7b702606482015290519081900360840190fd5b60006118548361194b565b6000908152600760209081526040822080546001810182559083529120018054600160a060020a031916600160a060020a0393909316929092179091555050565b6007602052816000526040600020818154811015156118b057fe5b600091825260209091200154600160a060020a03169150829050565b6000806118d88461194b565b6000818152600760205260409020549091508310156112f057600081815260076020526040902080548490811061190b57fe5b600091825260209091200154600160a060020a0316915061107c9050565b6000806119358361194b565b6000908152600460205260409020549392505050565b6000816040516020018080602001828103825283818151815260200191508051906020019080838360005b8381101561198e578181015183820152602001611976565b50505050905090810190601f1680156119bb5780820380516001836020036101000a031916815260200191505b5092505050604051602081830303815290604052805190602001209050919050565b828054600181600116156101000203166002900490600052602060002090601f016020900481019282601f10611a1e57805160ff1916838001178555611a4b565b82800160010185558215611a4b579182015b82811115611a4b578251825591602001919060010190611a30565b50611a57929150611a5b565b5090565b611a7591905b80821115611a575760008155600101611a61565b9056fe4f6e6c7920746865206f776e65722063616e20706572666f726d207468697320a165627a7a723058201c6e445294dbabf85196944178046864236f1aa8a87031a392f4fcfcbd633c090029",
  "source": "pragma solidity <0.6.0;\n\n\ncontract SignaturitUser {\n    address public rootAddress;\n    address public ownerAddress;\n\n    mapping (bytes32 => string) public stringAttr;\n    mapping (bytes32 => string[]) private stringArrayAttr;\n    mapping (bytes32 => int) public numberAttr;\n    mapping (bytes32 => int[]) public numberArrayAttr;\n    mapping (bytes32 => address) public addressAttr;\n    mapping (bytes32 => address[]) public addressArrayAttr;\n    mapping (bytes32 => bool) public boolAttr;\n    mapping (bytes32 => bool[]) public boolArrayAttr;\n\n\n    constructor (\n        address _ownerAddress\n    ) public {\n        rootAddress = msg.sender;\n        ownerAddress = _ownerAddress;\n    }\n\n    modifier protected() {\n        require(\n            tx.origin == rootAddress,\n            \"Only the owner can perform this action\"\n        );\n\n        _;\n    }\n\n    function setStringAttribute (\n        string memory key,\n        string memory value\n    )\n        public\n        protected\n    {\n        bytes32 bytes32key = _keccak256(key);\n\n        stringAttr[bytes32key] = value;\n    }\n\n    function getStringAttribute (\n        string memory key\n    ) \n        public\n        view\n        returns (string memory)\n     {\n        bytes32 bytes32key = _keccak256(key);\n\n        return stringAttr[bytes32key];\n    }\n\n    function setStringArrayAttribute (\n        string memory key,\n        string memory value\n    )\n        public\n        protected\n    {\n        bytes32 bytes32key = _keccak256(key);\n        stringArrayAttr[bytes32key].push(value);\n    }\n\n    function getStringArrayAttribute (\n        string memory key,\n        uint index\n    )\n        public\n        view\n        returns (string memory)\n    {\n        bytes32 bytes32key = _keccak256(key);\n\n        if(stringArrayAttr[bytes32key].length > index) {\n            return stringArrayAttr[bytes32key][index];\n        }\n\n        return '';\n    }\n\n    function setNumberAttribute (\n        string memory key,\n        int value\n    )\n        public\n        protected\n    {\n        bytes32 bytes32key = _keccak256(key);\n        numberAttr[bytes32key] = value;\n    }\n\n    function getNumberAttribute (\n        string memory key\n    )\n        public\n        view\n        returns (int)\n     {\n        bytes32 bytes32key = _keccak256(key);\n\n        return numberAttr[bytes32key];\n    }\n\n    function setNumberArrayAttribute (\n        string memory key,\n        int value\n    )\n        public\n        protected\n    {\n        bytes32 bytes32key = _keccak256(key);\n        numberArrayAttr[bytes32key].push(value);\n    }\n\n    function getNumberArrayAttribute (\n        string memory key,\n        uint index\n    )\n        public\n        view\n        returns (int)\n    {\n        bytes32 bytes32key = _keccak256(key);\n\n        if(numberArrayAttr[bytes32key].length > index) {\n            return numberArrayAttr[bytes32key][index];\n        }\n\n        return 0;\n    }\n\n    function setAddressAttribute (\n        string memory key,\n        address value\n    )\n        public\n        protected\n    {\n        bytes32 bytes32key = _keccak256(key);\n\n        addressAttr[bytes32key] = value;\n    }\n\n    function getAddressAttribute (\n        string memory key\n    )\n        public\n        view\n        returns (address)\n     {\n        bytes32 bytes32key = _keccak256(key);\n\n        return addressAttr[bytes32key];\n    }\n\n    function setAddressArrayAttribute (\n        string memory key,\n        address value\n    )\n        public\n        protected\n    {\n        bytes32 bytes32key = _keccak256(key);\n        addressArrayAttr[bytes32key].push(value);\n    }\n\n    function getAddressArrayAttribute (\n        string memory key,\n        uint index\n    )\n        public\n        view\n        returns (address)\n    {\n        bytes32 bytes32key = _keccak256(key);\n\n        if(addressArrayAttr[bytes32key].length > index) {\n            return addressArrayAttr[bytes32key][index];\n        }\n\n        return address(0);\n    }\n\n    function setBooleanAttribute (\n        string memory key,\n        bool value\n    )\n        public\n        protected\n    {\n        bytes32 bytes32key = _keccak256(key);\n\n        boolAttr[bytes32key] = value;\n    }\n\n    function getBooleanAttribute (\n        string memory key\n    )\n        public\n        view\n        returns (bool)\n     {\n        bytes32 bytes32key = _keccak256(key);\n\n        return boolAttr[bytes32key];\n    }\n\n    function setBooleanArrayAttribute (\n        string memory key,\n        bool value\n    )\n        public\n        protected\n    {\n        bytes32 bytes32key = _keccak256(key);\n        boolArrayAttr[bytes32key].push(value);\n    }\n\n    function getBooleanArrayAttribute (\n        string memory key,\n        uint index\n    )\n        public\n        view\n        returns (bool)\n    {\n        bytes32 bytes32key = _keccak256(key);\n\n        if(boolArrayAttr[bytes32key].length > index) {\n            return boolArrayAttr[bytes32key][index];\n        }\n\n        return false;\n    }\n\n    function _keccak256 (\n        string memory value\n    )\n        private\n        pure\n        returns (bytes32)\n    {\n        return keccak256(\n            abi.encode(value)\n        );\n    }\n}",
  "sourcePath": "/Users/alex/workspace/signaturit-solidity-contracts/contracts/SignaturitUser.sol",
  "compiler": {
    "name": "solc",
    "version": "0.5.0+commit.1d4f565a.Emscripten.clang"
  },
  "schemaVersion": "3.0.13",
  "updatedAt": "2019-09-25T15:46:21.490Z",
  "devdoc": {
    "methods": {}
  },
  "userdoc": {
    "methods": {}
  }
}