{
  "contractName": "TimeLogger",
  "abi": [
    {
      "constant": true,
      "inputs": [],
      "name": "startDate",
      "outputs": [
        {
          "internalType": "uint256",
          "name": "",
          "type": "uint256"
        }
      ],
      "payable": false,
      "stateMutability": "view",
      "type": "function"
    },
    {
      "constant": true,
      "inputs": [],
      "name": "duration",
      "outputs": [
        {
          "internalType": "int256",
          "name": "",
          "type": "int256"
        }
      ],
      "payable": false,
      "stateMutability": "view",
      "type": "function"
    },
    {
      "constant": true,
      "inputs": [],
      "name": "EXTERNAL_SOURCE",
      "outputs": [
        {
          "internalType": "string",
          "name": "",
          "type": "string"
        }
      ],
      "payable": false,
      "stateMutability": "view",
      "type": "function"
    },
    {
      "constant": true,
      "inputs": [],
      "name": "signatureId",
      "outputs": [
        {
          "internalType": "string",
          "name": "",
          "type": "string"
        }
      ],
      "payable": false,
      "stateMutability": "view",
      "type": "function"
    },
    {
      "constant": true,
      "inputs": [],
      "name": "expired",
      "outputs": [
        {
          "internalType": "bool",
          "name": "",
          "type": "bool"
        }
      ],
      "payable": false,
      "stateMutability": "view",
      "type": "function"
    },
    {
      "constant": true,
      "inputs": [],
      "name": "userContract",
      "outputs": [
        {
          "internalType": "contract UserInterface",
          "name": "",
          "type": "address"
        }
      ],
      "payable": false,
      "stateMutability": "view",
      "type": "function"
    },
    {
      "constant": true,
      "inputs": [],
      "name": "clause",
      "outputs": [
        {
          "internalType": "string",
          "name": "",
          "type": "string"
        }
      ],
      "payable": false,
      "stateMutability": "view",
      "type": "function"
    },
    {
      "constant": true,
      "inputs": [
        {
          "internalType": "uint256",
          "name": "",
          "type": "uint256"
        }
      ],
      "name": "timeLog",
      "outputs": [
        {
          "internalType": "uint256",
          "name": "timeStart",
          "type": "uint256"
        },
        {
          "internalType": "uint256",
          "name": "timeEnd",
          "type": "uint256"
        },
        {
          "internalType": "string",
          "name": "source",
          "type": "string"
        },
        {
          "internalType": "bool",
          "name": "valid",
          "type": "bool"
        }
      ],
      "payable": false,
      "stateMutability": "view",
      "type": "function"
    },
    {
      "constant": true,
      "inputs": [],
      "name": "SECONDS_PER_DAY",
      "outputs": [
        {
          "internalType": "uint256",
          "name": "",
          "type": "uint256"
        }
      ],
      "payable": false,
      "stateMutability": "view",
      "type": "function"
    },
    {
      "constant": true,
      "inputs": [],
      "name": "documentId",
      "outputs": [
        {
          "internalType": "string",
          "name": "",
          "type": "string"
        }
      ],
      "payable": false,
      "stateMutability": "view",
      "type": "function"
    },
    {
      "constant": true,
      "inputs": [],
      "name": "contractId",
      "outputs": [
        {
          "internalType": "string",
          "name": "",
          "type": "string"
        }
      ],
      "payable": false,
      "stateMutability": "view",
      "type": "function"
    },
    {
      "constant": true,
      "inputs": [],
      "name": "NOTIFICATION_EVENT",
      "outputs": [
        {
          "internalType": "string",
          "name": "",
          "type": "string"
        }
      ],
      "payable": false,
      "stateMutability": "view",
      "type": "function"
    },
    {
      "constant": true,
      "inputs": [],
      "name": "SOLIDITY_SOURCE",
      "outputs": [
        {
          "internalType": "string",
          "name": "",
          "type": "string"
        }
      ],
      "payable": false,
      "stateMutability": "view",
      "type": "function"
    },
    {
      "constant": true,
      "inputs": [],
      "name": "endDate",
      "outputs": [
        {
          "internalType": "uint256",
          "name": "",
          "type": "uint256"
        }
      ],
      "payable": false,
      "stateMutability": "view",
      "type": "function"
    },
    {
      "constant": true,
      "inputs": [],
      "name": "workerId",
      "outputs": [
        {
          "internalType": "string",
          "name": "",
          "type": "string"
        }
      ],
      "payable": false,
      "stateMutability": "view",
      "type": "function"
    },
    {
      "constant": true,
      "inputs": [],
      "name": "weeklyHours",
      "outputs": [
        {
          "internalType": "uint256",
          "name": "",
          "type": "uint256"
        }
      ],
      "payable": false,
      "stateMutability": "view",
      "type": "function"
    },
    {
      "constant": true,
      "inputs": [],
      "name": "signatureContract",
      "outputs": [
        {
          "internalType": "contract SignatureInterface",
          "name": "",
          "type": "address"
        }
      ],
      "payable": false,
      "stateMutability": "view",
      "type": "function"
    },
    {
      "constant": true,
      "inputs": [],
      "name": "signaturit",
      "outputs": [
        {
          "internalType": "address",
          "name": "",
          "type": "address"
        }
      ],
      "payable": false,
      "stateMutability": "view",
      "type": "function"
    },
    {
      "inputs": [
        {
          "internalType": "address",
          "name": "userContractAddress",
          "type": "address"
        },
        {
          "internalType": "address",
          "name": "signatureContractAddress",
          "type": "address"
        },
        {
          "internalType": "string",
          "name": "id",
          "type": "string"
        }
      ],
      "payable": false,
      "stateMutability": "nonpayable",
      "type": "constructor"
    },
    {
      "constant": false,
      "inputs": [
        {
          "internalType": "string",
          "name": "signature",
          "type": "string"
        },
        {
          "internalType": "string",
          "name": "document",
          "type": "string"
        },
        {
          "internalType": "string",
          "name": "worker",
          "type": "string"
        },
        {
          "internalType": "uint256",
          "name": "start",
          "type": "uint256"
        },
        {
          "internalType": "uint256",
          "name": "end",
          "type": "uint256"
        },
        {
          "internalType": "uint256",
          "name": "weekHours",
          "type": "uint256"
        },
        {
          "internalType": "int256",
          "name": "contractDuration",
          "type": "int256"
        }
      ],
      "name": "init",
      "outputs": [],
      "payable": false,
      "stateMutability": "nonpayable",
      "type": "function"
    },
    {
      "constant": false,
      "inputs": [
        {
          "internalType": "uint256",
          "name": "time",
          "type": "uint256"
        }
      ],
      "name": "externalSourceLog",
      "outputs": [],
      "payable": false,
      "stateMutability": "nonpayable",
      "type": "function"
    },
    {
      "constant": false,
      "inputs": [],
      "name": "soliditySourceLog",
      "outputs": [],
      "payable": false,
      "stateMutability": "nonpayable",
      "type": "function"
    },
    {
      "constant": false,
      "inputs": [
        {
          "internalType": "bool",
          "name": "status",
          "type": "bool"
        }
      ],
      "name": "setExpiration",
      "outputs": [],
      "payable": false,
      "stateMutability": "nonpayable",
      "type": "function"
    },
    {
      "constant": false,
      "inputs": [
        {
          "internalType": "uint256",
          "name": "thisDay",
          "type": "uint256"
        },
        {
          "internalType": "uint256",
          "name": "start",
          "type": "uint256"
        },
        {
          "internalType": "uint256",
          "name": "end",
          "type": "uint256"
        }
      ],
      "name": "createTimeLog",
      "outputs": [],
      "payable": false,
      "stateMutability": "nonpayable",
      "type": "function"
    },
    {
      "constant": false,
      "inputs": [
        {
          "internalType": "uint256",
          "name": "thisDay",
          "type": "uint256"
        },
        {
          "internalType": "uint256",
          "name": "logIndex",
          "type": "uint256"
        },
        {
          "internalType": "uint256",
          "name": "start",
          "type": "uint256"
        },
        {
          "internalType": "uint256",
          "name": "end",
          "type": "uint256"
        },
        {
          "internalType": "bool",
          "name": "validity",
          "type": "bool"
        }
      ],
      "name": "correctTimeLog",
      "outputs": [],
      "payable": false,
      "stateMutability": "nonpayable",
      "type": "function"
    },
    {
      "constant": true,
      "inputs": [
        {
          "internalType": "uint256",
          "name": "thisDay",
          "type": "uint256"
        }
      ],
      "name": "getDayTime",
      "outputs": [
        {
          "internalType": "uint256",
          "name": "total",
          "type": "uint256"
        }
      ],
      "payable": false,
      "stateMutability": "view",
      "type": "function"
    },
    {
      "constant": true,
      "inputs": [
        {
          "internalType": "uint256",
          "name": "startDay",
          "type": "uint256"
        },
        {
          "internalType": "uint256",
          "name": "endDay",
          "type": "uint256"
        }
      ],
      "name": "getTotalLoggedTime",
      "outputs": [
        {
          "internalType": "uint256",
          "name": "total",
          "type": "uint256"
        }
      ],
      "payable": false,
      "stateMutability": "view",
      "type": "function"
    },
    {
      "constant": true,
      "inputs": [
        {
          "internalType": "uint256",
          "name": "thisDay",
          "type": "uint256"
        },
        {
          "internalType": "uint256",
          "name": "index",
          "type": "uint256"
        }
      ],
      "name": "getTimeLog",
      "outputs": [
        {
          "internalType": "uint256",
          "name": "start",
          "type": "uint256"
        },
        {
          "internalType": "uint256",
          "name": "end",
          "type": "uint256"
        },
        {
          "internalType": "string",
          "name": "source",
          "type": "string"
        },
        {
          "internalType": "bool",
          "name": "valid",
          "type": "bool"
        },
        {
          "internalType": "bool",
          "name": "more",
          "type": "bool"
        }
      ],
      "payable": false,
      "stateMutability": "view",
      "type": "function"
    }
  ],
  "bytecode": "0x60806040526000600d553480156200001657600080fd5b5060405162001f2838038062001f28833981810160405260608110156200003c57600080fd5b815160208301516040808501805191519395929483019291846401000000008211156200006857600080fd5b9083019060208201858111156200007e57600080fd5b82516401000000008111828201881017156200009957600080fd5b82525081516020918201929091019080838360005b83811015620000c8578181015183820152602001620000ae565b50505050905090810190601f168015620000f65780820380516001836020036101000a031916815260200191505b5060408181019052600a8082527f74696d656c6f6767657200000000000000000000000000000000000000000000602083019081529194506200013e93506001925062000194565b505080516200015590600290602084019062000194565b5050600080546001600160a01b03199081163317909155600580546001600160a01b039485169083161790556006805492909316911617905562000239565b828054600181600116156101000203166002900490600052602060002090601f016020900481019282601f10620001d757805160ff191683800117855562000207565b8280016001018555821562000207579182015b8281111562000207578251825591602001919060010190620001ea565b506200021592915062000219565b5090565b6200023691905b8082111562000215576000815560010162000220565b90565b611cdf80620002496000396000f3fe608060405234801561001057600080fd5b50600436106101495760003560e01c80630b97bc861461014e5780630fb5a6b4146101685780631217d312146101705780631261243f1461018f5780632c22475c1461034e5780632cd52e1b146103cb578063395ba050146103e85780634c2067c7146103f05780635000596b1461040c5780635ee4a01a1461043057806362a925eb1461043857806374f0314f146104e657806378f7c83f146104ee5780638291286c146104f6578063846a7963146104fe578063a06bd8d71461051d578063a8cbc345146105dc578063b344427f14610605578063b644bb3b1461060d578063c24a0f8b14610615578063c3d4c7c21461061d578063c782bbdd14610625578063d83070ab1461062d578063ed3baf3814610635578063ef8c71541461066c578063f638522c14610674578063f9b5333514610697575b600080fd5b61015661069f565b60408051918252519081900360200190f35b6101566106a5565b61018d6004803603602081101561018657600080fd5b50356106ab565b005b61018d600480360360e08110156101a557600080fd5b810190602081018135600160201b8111156101bf57600080fd5b8201836020820111156101d157600080fd5b803590602001918460018302840111600160201b831117156101f257600080fd5b91908080601f0160208091040260200160405190810160405280939291908181526020018383808284376000920191909152509295949360208101935035915050600160201b81111561024457600080fd5b82018360208201111561025657600080fd5b803590602001918460018302840111600160201b8311171561027757600080fd5b91908080601f0160208091040260200160405190810160405280939291908181526020018383808284376000920191909152509295949360208101935035915050600160201b8111156102c957600080fd5b8201836020820111156102db57600080fd5b803590602001918460018302840111600160201b831117156102fc57600080fd5b91908080601f01602080910402602001604051908101604052809392919081815260200183838082843760009201919091525092955050823593505050602081013590604081013590606001356107ec565b6103566108a0565b6040805160208082528351818301528351919283929083019185019080838360005b83811015610390578181015183820152602001610378565b50505050905090810190601f1680156103bd5780820380516001836020036101000a031916815260200191505b509250505060405180910390f35b610156600480360360208110156103e157600080fd5b50356108c4565b6103566108fe565b6103f861098c565b604080519115158252519081900360200190f35b610414610995565b604080516001600160a01b039092168252519081900360200190f35b6103566109a4565b6104556004803603602081101561044e57600080fd5b50356109fe565b604051808581526020018481526020018060200183151515158152602001828103825284818151815260200191508051906020019080838360005b838110156104a8578181015183820152602001610490565b50505050905090810190601f1680156104d55780820380516001836020036101000a031916815260200191505b509550505050505060405180910390f35b610156610ad6565b610356610add565b610356610b38565b61018d6004803603602081101561051457600080fd5b50351515610b90565b6105406004803603604081101561053357600080fd5b5080359060200135610bec565b60405180868152602001858152602001806020018415151515815260200183151515158152602001828103825285818151815260200191508051906020019080838360005b8381101561059d578181015183820152602001610585565b50505050905090810190601f1680156105ca5780820380516001836020036101000a031916815260200191505b50965050505050505060405180910390f35b61018d600480360360608110156105f257600080fd5b5080359060208101359060400135610e34565b610356610ee1565b610356610f0b565b610156610f2f565b610356610f35565b610156610f90565b610414610f96565b61018d600480360360a081101561064b57600080fd5b50803590602081013590604081013590606081013590608001351515610fa5565b61018d61113f565b6101566004803603604081101561068a57600080fd5b508035906020013561127f565b6104146112e0565b600a5481565b600c5481565b600560009054906101000a90046001600160a01b03166001600160a01b031663e4128fb36040518163ffffffff1660e01b815260040160206040518083038186803b1580156106f957600080fd5b505afa15801561070d573d6000803e3d6000fd5b505050506040513d602081101561072357600080fd5b50516001600160a01b0316331461076b5760405162461bcd60e51b815260040180806020018281038252602e815260200180611c4e602e913960400191505060405180910390fd5b60085460ff16156107bf576040805162461bcd60e51b8152602060048201526019602482015278151a1a5cc818dbdb9d1c9858dd081a185cc8195e1c1a5c9959603a1b604482015290519081900360640190fd5b6107e98160405180604001604052806008815260200167195e1d195c9b985b60c21b8152506112ef565b50565b6000546001600160a01b031633146108355760405162461bcd60e51b815260040180806020018281038252602f815260200180611c7c602f913960400191505060405180910390fd5b6008805460ff191690556009839055600a849055845161085c906007906020880190611b78565b508551610870906003906020890190611b78565b50600b82905586516108899060049060208a0190611b78565b50600c819055610897611349565b50505050505050565b60405180604001604052806008815260200167195e1d195c9b985b60c21b81525081565b6000818152600f602052604081206002015460ff166108e5575060006108f9565b506000818152600f60205260409020600101545b919050565b6004805460408051602060026001851615610100026000190190941693909304601f810184900484028201840190925281815292918301828280156109845780601f1061095957610100808354040283529160200191610984565b820191906000526020600020905b81548152906001019060200180831161096757829003601f168201915b505050505081565b60085460ff1681565b6005546001600160a01b031681565b60018054604080516020600284861615610100026000190190941693909304601f810184900484028201840190925281815292918301828280156109845780601f1061095957610100808354040283529160200191610984565b600e8181548110610a0b57fe5b9060005260206000209060040201600091509050806000015490806001015490806002018054600181600116156101000203166002900480601f016020809104026020016040519081016040528092919081815260200182805460018160011615610100020316600290048015610ac35780601f10610a9857610100808354040283529160200191610ac3565b820191906000526020600020905b815481529060010190602001808311610aa657829003601f168201915b5050506003909301549192505060ff1684565b6201518081565b6003805460408051602060026001851615610100026000190190941693909304601f810184900484028201840190925281815292918301828280156109845780601f1061095957610100808354040283529160200191610984565b6002805460408051602060018416156101000260001901909316849004601f810184900484028201840190925281815292918301828280156109845780601f1061095957610100808354040283529160200191610984565b6000546001600160a01b03163314610bd95760405162461bcd60e51b815260040180806020018281038252602f815260200180611c7c602f913960400191505060405180910390fd5b6008805460ff1916911515919091179055565b6000828152600f602052604081206002015481906060908290819060ff161580610c2457506000878152600f60205260409020548610155b15610c4957505060408051602081019091526000808252935083925090508180610e2a565b6000878152600f602052604081205460001901871015610c67575060015b6000888152600f602052604090208054600e919089908110610c8557fe5b906000526020600020015481548110610c9a57fe5b906000526020600020906004020160000154600e600f60008b81526020019081526020016000206000018981548110610ccf57fe5b906000526020600020015481548110610ce457fe5b906000526020600020906004020160010154600e600f60008c81526020019081526020016000206000018a81548110610d1957fe5b906000526020600020015481548110610d2e57fe5b9060005260206000209060040201600201600e600f60008d81526020019081526020016000206000018b81548110610d6257fe5b906000526020600020015481548110610d7757fe5b6000918252602091829020600491909102016003015482546040805160026101006001851615026000190190931692909204601f810185900485028301850190915280825260ff9092169287928591830182828015610e175780601f10610dec57610100808354040283529160200191610e17565b820191906000526020600020905b815481529060010190602001808311610dfa57829003601f168201915b5050505050925095509550955095509550505b9295509295909350565b6000546001600160a01b03163314610e7d5760405162461bcd60e51b815260040180806020018281038252602f815260200180611c7c602f913960400191505060405180910390fd5b610e868361142c565b610eb1838360405180604001604052806008815260200167195e1d195c9b985b60c21b8152506114a5565b610edc838260405180604001604052806008815260200167195e1d195c9b985b60c21b8152506115b5565b505050565b6040518060400160405280600e81526020016d1d1a5b5957db1bd9cb985919195960921b81525081565b60405180604001604052806008815260200167736f6c696469747960c01b81525081565b60095481565b6007805460408051602060026001851615610100026000190190941693909304601f810184900484028201840190925281815292918301828280156109845780601f1061095957610100808354040283529160200191610984565b600b5481565b6006546001600160a01b031681565b6000546001600160a01b03163314610fee5760405162461bcd60e51b815260040180806020018281038252602f815260200180611c7c602f913960400191505060405180910390fd5b82821015611038576040805162461bcd60e51b8152602060048201526012602482015271496e76616c69642074696d65206672616d6560701b604482015290519081900360640190fd5b6000858152600f6020526040812080548690811061105257fe5b9060005260206000200154905083600e828154811061106d57fe5b90600052602060002090600402016000018190555082600e828154811061109057fe5b90600052602060002090600402016001018190555081600e82815481106110b357fe5b906000526020600020906004020160030160006101000a81548160ff02191690831515021790555060405180604001604052806008815260200167195e1d195c9b985b60c21b815250600e828154811061110957fe5b9060005260206000209060040201600201908051906020019061112d929190611b78565b50611137866117e8565b505050505050565b600560009054906101000a90046001600160a01b03166001600160a01b031663e4128fb36040518163ffffffff1660e01b815260040160206040518083038186803b15801561118d57600080fd5b505afa1580156111a1573d6000803e3d6000fd5b505050506040513d60208110156111b757600080fd5b50516001600160a01b031633146111ff5760405162461bcd60e51b815260040180806020018281038252602e815260200180611c4e602e913960400191505060405180910390fd5b60085460ff1615611253576040805162461bcd60e51b8152602060048201526019602482015278151a1a5cc818dbdb9d1c9858dd081a185cc8195e1c1a5c9959603a1b604482015290519081900360640190fd5b61127d4260405180604001604052806008815260200167736f6c696469747960c01b8152506112ef565b565b600081831115611291575060006112da565b6000835b8381116112d6576000818152600f602052604090206002015460ff16156112ce576000818152600f602052604090206001015491909101905b600101611295565b5090505b92915050565b6000546001600160a01b031681565b6201518082046112fe8161142c565b600d541561133657600d548111156113205761131b8184846118b9565b61132b565b61132b8184846115b5565b506000600d55611345565b6113418184846114a5565b600d555b5050565b6006546040805163b7fce16b60e01b815230602482018190526004820192835260018054600260001982841615610100020190911604604484018190526001600160a01b039095169463b7fce16b9491938291606490910190859080156113f15780601f106113c6576101008083540402835291602001916113f1565b820191906000526020600020905b8154815290600101906020018083116113d457829003601f168201915b50509350505050600060405180830381600087803b15801561141257600080fd5b505af1158015611426573d6000803e3d6000fd5b50505050565b6000818152600f60205260409020546107e957604080516060818101835280825260006020808401829052600184860152858252600f8152939020825180519294919261147c9284920190611bf6565b50602082015160018201556040909101516002909101805460ff19169115159190911790555050565b6040805160808101825283815260006020808301828152938301858152600160608501819052600e80549182018082559452845160049091027fbb7b4a454dc3493923482f07822329ed19e8244eff582cc204f8554c3620c3fd810191825595517fbb7b4a454dc3493923482f07822329ed19e8244eff582cc204f8554c3620c3fe8701559051805193959193611565937fbb7b4a454dc3493923482f07822329ed19e8244eff582cc204f8554c3620c3ff909301929190910190611b78565b50606091909101516003909101805460ff1916911515919091179055506000838152600f602090815260408220600e54815460018101835591845291909220600019909101910155610edc6118ff565b6000838152600f60205260408120805460001981019081106115d357fe5b90600052602060002001549050600e81815481106115ed57fe5b906000526020600020906004020160000154831015611648576040805162461bcd60e51b8152602060048201526012602482015271496e76616c69642074696d65206672616d6560701b604482015290519081900360640190fd5b816040516020018082805190602001908083835b6020831061167b5780518252601f19909201916020918201910161165c565b6001836020036101000a03801982511681845116808217855250505050505090500191505060405160208183030381529060405280519060200120600e82815481106116c357fe5b906000526020600020906004020160020160405160200180828054600181600116156101000203166002900480156117325780601f10611710576101008083540402835291820191611732565b820191906000526020600020905b81548152906001019060200180831161171e575b505091505060405160208183030381529060405280519060200120146117865781600e828154811061176057fe5b90600052602060002090600402016002019080519060200190611784929190611b78565b505b82600e828154811061179457fe5b906000526020600020906004020160010181905550600e81815481106117b657fe5b60009182526020808320600490920290910154958252600f905260409020600101805494909303939093019091555050565b6000805b6000838152600f60205260409020548110156118a3576000838152600f602052604090208054600e91908390811061182057fe5b90600052602060002001548154811061183557fe5b906000526020600020906004020160000154600e600f6000868152602001908152602001600020600001838154811061186a57fe5b90600052602060002001548154811061187f57fe5b906000526020600020906004020160010154038201915080806001019150506117ec565b506000918252600f602052604090912060010155565b600d546201518081810201906118d09082846115b5565b6118dc84600d5461193e565b6201518084026118ed8582856114a5565b6118f88585856115b5565b5050505050565b61127d6040518060400160405280600e81526020016d1d1a5b5957db1bd9cb985919195960921b815250604051806020016040528060008152506119c8565b600181015b82811015610edc576119548161142c565b6000620151808202905060006201518082019050611993838360405180604001604052806008815260200167736f6c696469747960c01b8152506114a5565b6119be838260405180604001604052806008815260200167736f6c696469747960c01b8152506115b5565b5050600101611943565b600554604051634915986360e01b8152306004820181815260806024840190815260018054600260001982841615610100020190911604608486018190526001600160a01b0390961695634915986395919389938993919290916044810191606482019160a4019088908015611a7f5780601f10611a5457610100808354040283529160200191611a7f565b820191906000526020600020905b815481529060010190602001808311611a6257829003601f168201915b5050848103835286518152865160209182019188019080838360005b83811015611ab3578181015183820152602001611a9b565b50505050905090810190601f168015611ae05780820380516001836020036101000a031916815260200191505b50848103825285518152855160209182019187019080838360005b83811015611b13578181015183820152602001611afb565b50505050905090810190601f168015611b405780820380516001836020036101000a031916815260200191505b50975050505050505050600060405180830381600087803b158015611b6457600080fd5b505af1158015611137573d6000803e3d6000fd5b828054600181600116156101000203166002900490600052602060002090601f016020900481019282601f10611bb957805160ff1916838001178555611be6565b82800160010185558215611be6579182015b82811115611be6578251825591602001919060010190611bcb565b50611bf2929150611c30565b5090565b828054828255906000526020600020908101928215611be65791602002820182811115611be6578251825591602001919060010190611bcb565b611c4a91905b80821115611bf25760008155600101611c36565b9056fe4f6e6c7920746865206f776e6572206163636f756e742063616e20706572666f726d207468697320616374696f6e4f6e6c79205369676e617475726974206163636f756e742063616e20706572666f726d207468697320616374696f6ea265627a7a723158202788d1d65ebdfd658e74ba544ef2725611b7b7dd3c147828bdefb377eee68bd764736f6c634300050b0032",
  "source": "pragma solidity <0.6.0;\n\n/*\nGas to deploy: 2.168.027\n*/\n\nimport \"./Clause.sol\";\n\n\ncontract TimeLogger is Clause(\"timelogger\") {\n    uint constant public SECONDS_PER_DAY = 86400;\n    string constant public SOLIDITY_SOURCE = \"solidity\";\n    string constant public EXTERNAL_SOURCE = \"external\";\n    string constant public NOTIFICATION_EVENT = \"time_log.added\";\n\n    struct TimeLog {\n        uint timeStart;\n        uint timeEnd;\n        string source;\n        bool valid;\n    }\n\n    struct Day {\n        uint[] timelogs;\n        uint total;\n        bool existence;\n    }\n\n    string public workerId;\n\n    bool public expired;\n\n    uint public endDate;\n    uint public startDate;\n    uint public weeklyHours;\n\n    int public duration;\n\n    uint private lastOpenDay = 0;\n\n    TimeLog[] public timeLog;\n\n    mapping(uint => Day) private day;\n\n    constructor(\n        address userContractAddress,\n        address signatureContractAddress,\n        string memory id\n    )\n        public\n    {\n        contractId = id;\n        signaturit = msg.sender;\n\n        userContract = UserInterface(userContractAddress);\n        signatureContract = SignatureInterface(signatureContractAddress);\n    }\n\n    modifier signaturitOnly() {\n        require(\n            msg.sender == signaturit,\n            \"Only Signaturit account can perform this action\"\n        );\n\n        _;\n    }\n\n    modifier onlyOwner() {\n        require(\n            msg.sender == address(userContract.userAddress()),\n            \"Only the owner account can perform this action\"\n        );\n\n        _;\n    }\n\n    modifier notExpired() {\n        require(\n            expired == false,\n            \"This contract has expired\"\n        );\n\n        _;\n    }\n\n    function init(\n        string memory signature,\n        string memory document,\n        string memory worker,\n        uint start,\n        uint end,\n        uint weekHours,\n        int contractDuration\n    )\n        public\n        signaturitOnly\n    {\n        expired = false;\n\n        endDate = end;\n        startDate = start;\n        workerId = worker;\n        documentId = document;\n        weeklyHours = weekHours;\n        signatureId = signature;\n        duration = contractDuration;\n\n        setClauseOnSignature();\n    }\n\n    //Externals\n\n    function externalSourceLog(\n        uint time\n    )\n        external\n        onlyOwner\n        notExpired\n    {\n        _logTime(time, EXTERNAL_SOURCE);\n    }\n\n    function soliditySourceLog()\n        external\n        onlyOwner\n        notExpired\n    {\n        _logTime(block.timestamp, SOLIDITY_SOURCE);\n    }\n\n    function setExpiration(\n        bool status\n    )\n        external\n        signaturitOnly\n    {\n        expired = status;\n    }\n\n    function createTimeLog(\n        uint thisDay,\n        uint start,\n        uint end\n    ) external signaturitOnly {\n        _setDay(thisDay);\n\n        _createLog(thisDay, start, EXTERNAL_SOURCE);\n\n        _closeLog(thisDay, end, EXTERNAL_SOURCE);\n    }\n\n    function correctTimeLog(\n        uint thisDay,\n        uint logIndex,\n        uint start,\n        uint end,\n        bool validity\n    )\n        external\n        signaturitOnly\n    {\n        require(end >= start, \"Invalid time frame\");\n\n        uint index = day[thisDay].timelogs[logIndex];\n\n        timeLog[index].timeStart = start;\n        timeLog[index].timeEnd = end;\n        timeLog[index].valid = validity;\n        timeLog[index].source = EXTERNAL_SOURCE;\n\n        _recalculateTotal(thisDay);\n    }\n\n    //Getters\n\n    function getDayTime(\n        uint thisDay\n    )\n        external\n        view\n        returns(uint total)\n    {\n        if (!day[thisDay].existence) return 0;\n        return day[thisDay].total;\n    }\n\n    function getTotalLoggedTime(\n        uint startDay,\n        uint endDay\n    )\n        external\n        view\n        returns(uint total)\n    {\n        if (startDay > endDay) return 0;\n\n        uint totalAmount = 0;\n\n        for (uint i = startDay; i <= endDay; i++) {\n            if (day[i].existence) totalAmount += day[i].total;\n        }\n\n        return totalAmount;\n    }\n\n    function getTimeLog(\n        uint thisDay,\n        uint index\n    )\n        external\n        view\n        returns(\n            uint start,\n            uint end,\n            string memory source,\n            bool valid,\n            bool more\n        )\n    {\n        if (\n            !day[thisDay].existence ||\n            day[thisDay].timelogs.length <= index\n        ) {\n            return (0, 0, \"\", false, false);\n        }\n\n        bool thereIsMore = false;\n\n        if (index < day[thisDay].timelogs.length - 1) thereIsMore = true;\n\n        return (\n            timeLog[day[thisDay].timelogs[index]].timeStart,\n            timeLog[day[thisDay].timelogs[index]].timeEnd,\n            timeLog[day[thisDay].timelogs[index]].source,\n            timeLog[day[thisDay].timelogs[index]].valid,\n            thereIsMore\n        );\n    }\n\n    //Internals\n\n    function _logTime(\n        uint time,\n        string memory source\n    )\n        internal\n    {\n        uint today = time / SECONDS_PER_DAY;\n\n        _setDay(today);\n\n        if (lastOpenDay != 0) {\n            if (today > lastOpenDay) {\n                _completePendingDays(today, time, source);\n            } else {\n                _closeLog(today, time, source);\n            }\n\n            lastOpenDay = 0;\n\n            return;\n        }\n\n        _createLog(today, time, source);\n\n        lastOpenDay = today;\n    }\n\n    function _createLog(\n        uint thisDay,\n        uint startTime,\n        string memory source\n    )\n        internal\n    {\n        timeLog.push(TimeLog(startTime, 0, source, true));\n\n        day[thisDay].timelogs.push(timeLog.length - 1);\n\n        _publish();\n    }\n\n    function _closeLog(\n        uint thisDay,\n        uint endTime,\n        string memory source\n    )\n        internal\n    {\n        uint index = day[thisDay].timelogs[day[thisDay].timelogs.length - 1];\n\n        require(endTime >= timeLog[index].timeStart, \"Invalid time frame\");\n\n        //Assumption: if source coming from input doesnt equal the one saved, prefer the last one\n        if (\n            keccak256(abi.encodePacked((timeLog[index].source))) != keccak256(abi.encodePacked((source)))\n        )\n\n            timeLog[index].source = source;\n\n        timeLog[index].timeEnd = endTime;\n\n        day[thisDay].total += endTime - timeLog[index].timeStart;\n    }\n\n    function _completePendingDays(\n        uint today,\n        uint nowInSeconds,\n        string memory source\n    )\n        internal\n    {\n        uint lastMidnight = (lastOpenDay*SECONDS_PER_DAY)+SECONDS_PER_DAY;\n\n        _closeLog(lastOpenDay, lastMidnight, source);\n\n        _completeDaysInTheGap(today, lastOpenDay);\n\n        uint todayMidnight = today*SECONDS_PER_DAY;\n\n        _createLog(today, todayMidnight, source);\n\n        _closeLog(today, nowInSeconds, source);\n    }\n\n    function _completeDaysInTheGap(\n        uint today,\n        uint lastDay\n    )\n        internal\n    {\n        //fulfill the days in the gap with 24h single log\n        for (uint i = lastDay + 1; i < today; i++) {\n            _setDay(i);\n\n            uint startOfTheDay = i*SECONDS_PER_DAY;\n            uint endOfTheDay = startOfTheDay + SECONDS_PER_DAY;\n\n            _createLog(i, startOfTheDay, SOLIDITY_SOURCE);\n\n            _closeLog(i, endOfTheDay, SOLIDITY_SOURCE);\n        }\n    }\n\n    function _recalculateTotal(\n        uint thisDay\n    )\n        internal\n    {\n        uint totalAmount;\n\n        for (uint i = 0; i < day[thisDay].timelogs.length; i++) {\n            totalAmount += (\n                    timeLog[day[thisDay].timelogs[i]].timeEnd - timeLog[day[thisDay].timelogs[i]].timeStart\n            );\n        }\n\n        day[thisDay].total = totalAmount;\n    }\n\n    function _setDay(\n        uint today\n    )\n        internal\n    {\n        if (day[today].timelogs.length == 0) {\n            uint[] memory tmpArray;\n\n            day[today] = Day(tmpArray, 0, true);\n        }\n    }\n\n    function _publish()\n        internal\n    {\n        publishNotification(\n            NOTIFICATION_EVENT,\n            \"\"\n        );\n    }\n}\n",
  "sourcePath": "/home/administrator/workspace/signaturit-solidity-contracts/contracts/TimeLogger.sol",
  "compiler": {
    "name": "solc",
    "version": "0.5.11+commit.c082d0b4.Emscripten.clang"
  },
  "schemaVersion": "3.0.11",
  "updatedAt": "2019-08-30T12:59:40.761Z",
  "devdoc": {
    "methods": {}
  },
  "userdoc": {
    "methods": {}
  }
}