{
  "contractName": "TimeLogger",
  "abi": [
    {
      "constant": true,
      "inputs": [],
      "name": "startDate",
      "outputs": [
        {
          "name": "",
          "type": "uint256"
        }
      ],
      "payable": false,
      "stateMutability": "view",
      "type": "function"
    },
    {
      "constant": true,
      "inputs": [],
      "name": "duration",
      "outputs": [
        {
          "name": "",
          "type": "int256"
        }
      ],
      "payable": false,
      "stateMutability": "view",
      "type": "function"
    },
    {
      "constant": true,
      "inputs": [],
      "name": "notificationEvent",
      "outputs": [
        {
          "name": "",
          "type": "string"
        }
      ],
      "payable": false,
      "stateMutability": "view",
      "type": "function"
    },
    {
      "constant": true,
      "inputs": [],
      "name": "EXTERNAL_SOURCE",
      "outputs": [
        {
          "name": "",
          "type": "string"
        }
      ],
      "payable": false,
      "stateMutability": "view",
      "type": "function"
    },
    {
      "constant": true,
      "inputs": [],
      "name": "signatureId",
      "outputs": [
        {
          "name": "",
          "type": "string"
        }
      ],
      "payable": false,
      "stateMutability": "view",
      "type": "function"
    },
    {
      "constant": true,
      "inputs": [],
      "name": "expired",
      "outputs": [
        {
          "name": "",
          "type": "bool"
        }
      ],
      "payable": false,
      "stateMutability": "view",
      "type": "function"
    },
    {
      "constant": true,
      "inputs": [],
      "name": "userContract",
      "outputs": [
        {
          "name": "",
          "type": "address"
        }
      ],
      "payable": false,
      "stateMutability": "view",
      "type": "function"
    },
    {
      "constant": true,
      "inputs": [],
      "name": "clause",
      "outputs": [
        {
          "name": "",
          "type": "string"
        }
      ],
      "payable": false,
      "stateMutability": "view",
      "type": "function"
    },
    {
      "constant": true,
      "inputs": [
        {
          "name": "",
          "type": "uint256"
        }
      ],
      "name": "timeLog",
      "outputs": [
        {
          "name": "timeStart",
          "type": "uint256"
        },
        {
          "name": "timeEnd",
          "type": "uint256"
        },
        {
          "name": "source",
          "type": "string"
        },
        {
          "name": "valid",
          "type": "bool"
        }
      ],
      "payable": false,
      "stateMutability": "view",
      "type": "function"
    },
    {
      "constant": true,
      "inputs": [],
      "name": "SECONDS_PER_DAY",
      "outputs": [
        {
          "name": "",
          "type": "uint256"
        }
      ],
      "payable": false,
      "stateMutability": "view",
      "type": "function"
    },
    {
      "constant": true,
      "inputs": [],
      "name": "documentId",
      "outputs": [
        {
          "name": "",
          "type": "string"
        }
      ],
      "payable": false,
      "stateMutability": "view",
      "type": "function"
    },
    {
      "constant": true,
      "inputs": [],
      "name": "ownerContract",
      "outputs": [
        {
          "name": "",
          "type": "address"
        }
      ],
      "payable": false,
      "stateMutability": "view",
      "type": "function"
    },
    {
      "constant": true,
      "inputs": [],
      "name": "contractId",
      "outputs": [
        {
          "name": "",
          "type": "string"
        }
      ],
      "payable": false,
      "stateMutability": "view",
      "type": "function"
    },
    {
      "constant": true,
      "inputs": [],
      "name": "SOLIDITY_SOURCE",
      "outputs": [
        {
          "name": "",
          "type": "string"
        }
      ],
      "payable": false,
      "stateMutability": "view",
      "type": "function"
    },
    {
      "constant": true,
      "inputs": [],
      "name": "endDate",
      "outputs": [
        {
          "name": "",
          "type": "uint256"
        }
      ],
      "payable": false,
      "stateMutability": "view",
      "type": "function"
    },
    {
      "constant": true,
      "inputs": [],
      "name": "weeklyHours",
      "outputs": [
        {
          "name": "",
          "type": "uint256"
        }
      ],
      "payable": false,
      "stateMutability": "view",
      "type": "function"
    },
    {
      "constant": true,
      "inputs": [],
      "name": "signatureContract",
      "outputs": [
        {
          "name": "",
          "type": "address"
        }
      ],
      "payable": false,
      "stateMutability": "view",
      "type": "function"
    },
    {
      "constant": true,
      "inputs": [],
      "name": "lastOpenDay",
      "outputs": [
        {
          "name": "",
          "type": "uint256"
        }
      ],
      "payable": false,
      "stateMutability": "view",
      "type": "function"
    },
    {
      "constant": true,
      "inputs": [],
      "name": "signaturit",
      "outputs": [
        {
          "name": "",
          "type": "address"
        }
      ],
      "payable": false,
      "stateMutability": "view",
      "type": "function"
    },
    {
      "inputs": [
        {
          "name": "managerContractAddress",
          "type": "address"
        },
        {
          "name": "ownerContractAddress",
          "type": "address"
        },
        {
          "name": "signatureContractAddress",
          "type": "address"
        },
        {
          "name": "id",
          "type": "string"
        },
        {
          "name": "document",
          "type": "string"
        },
        {
          "name": "start",
          "type": "uint256"
        },
        {
          "name": "end",
          "type": "uint256"
        },
        {
          "name": "weekHours",
          "type": "uint256"
        },
        {
          "name": "contractDuration",
          "type": "int256"
        }
      ],
      "payable": false,
      "stateMutability": "nonpayable",
      "type": "constructor"
    },
    {
      "constant": false,
      "inputs": [
        {
          "name": "time",
          "type": "uint256"
        }
      ],
      "name": "externalSourceLog",
      "outputs": [],
      "payable": false,
      "stateMutability": "nonpayable",
      "type": "function"
    },
    {
      "constant": false,
      "inputs": [],
      "name": "soliditySourceLog",
      "outputs": [],
      "payable": false,
      "stateMutability": "nonpayable",
      "type": "function"
    },
    {
      "constant": false,
      "inputs": [],
      "name": "expireContract",
      "outputs": [],
      "payable": false,
      "stateMutability": "nonpayable",
      "type": "function"
    },
    {
      "constant": false,
      "inputs": [
        {
          "name": "thisDay",
          "type": "uint256"
        },
        {
          "name": "start",
          "type": "uint256"
        },
        {
          "name": "end",
          "type": "uint256"
        }
      ],
      "name": "createTimeLog",
      "outputs": [],
      "payable": false,
      "stateMutability": "nonpayable",
      "type": "function"
    },
    {
      "constant": false,
      "inputs": [
        {
          "name": "thisDay",
          "type": "uint256"
        },
        {
          "name": "logIndex",
          "type": "uint256"
        },
        {
          "name": "start",
          "type": "uint256"
        },
        {
          "name": "end",
          "type": "uint256"
        },
        {
          "name": "validity",
          "type": "bool"
        }
      ],
      "name": "editTimeLog",
      "outputs": [],
      "payable": false,
      "stateMutability": "nonpayable",
      "type": "function"
    },
    {
      "constant": true,
      "inputs": [
        {
          "name": "thisDay",
          "type": "uint256"
        }
      ],
      "name": "getDayTime",
      "outputs": [
        {
          "name": "total",
          "type": "uint256"
        }
      ],
      "payable": false,
      "stateMutability": "view",
      "type": "function"
    },
    {
      "constant": true,
      "inputs": [
        {
          "name": "startDay",
          "type": "uint256"
        },
        {
          "name": "endDay",
          "type": "uint256"
        }
      ],
      "name": "getTotalLoggedTime",
      "outputs": [
        {
          "name": "total",
          "type": "uint256"
        }
      ],
      "payable": false,
      "stateMutability": "view",
      "type": "function"
    },
    {
      "constant": true,
      "inputs": [
        {
          "name": "thisDay",
          "type": "uint256"
        },
        {
          "name": "index",
          "type": "uint256"
        }
      ],
      "name": "getTimeLog",
      "outputs": [
        {
          "name": "start",
          "type": "uint256"
        },
        {
          "name": "end",
          "type": "uint256"
        },
        {
          "name": "source",
          "type": "string"
        },
        {
          "name": "valid",
          "type": "bool"
        },
        {
          "name": "more",
          "type": "bool"
        }
      ],
      "payable": false,
      "stateMutability": "view",
      "type": "function"
    }
  ],
  "bytecode": "0x60806040526000600c553480156200001657600080fd5b506040516200219d3803806200219d83398101806040526101208110156200003d57600080fd5b81516020830151604084015160608501805193959294919391830192916401000000008111156200006d57600080fd5b820160208101848111156200008157600080fd5b81516401000000008111828201871017156200009c57600080fd5b50509291906020018051640100000000811115620000b957600080fd5b82016020810184811115620000cd57600080fd5b8151640100000000811182820187101715620000e857600080fd5b5050602080830151604080850151606086015160809096015182518084018452600a81527f74696d656c6f67676572000000000000000000000000000000000000000000008187019081528451808601909552600e85527f74696d655f6c6f672e6164646564000000000000000000000000000000000000968501969096528051969950939750909594909362000183916002919062000348565b5080516200019990600090602084019062000348565b50508651620001b19150600390602089019062000348565b508451620001c790600490602088019062000348565b50600a8490556009839055600b829055600d8190556008805460068054600160a060020a0319908116600160a060020a038e811691909117909255600160a860020a03199092168b821617909255600780549091169189169190911790556200023864010000000062000247810204565b505050505050505050620003ed565b600754604080517fe71e657600000000000000000000000000000000000000000000000000000000815230602482018190526004820192835260028054600019600182161561010002011681900460448401819052600160a060020a039095169463e71e65769491938291606490910190859080156200030b5780601f10620002df576101008083540402835291602001916200030b565b820191906000526020600020905b815481529060010190602001808311620002ed57829003601f168201915b50509350505050600060405180830381600087803b1580156200032d57600080fd5b505af115801562000342573d6000803e3d6000fd5b50505050565b828054600181600116156101000203166002900490600052602060002090601f016020900481019282601f106200038b57805160ff1916838001178555620003bb565b82800160010185558215620003bb579182015b82811115620003bb5782518255916020019190600101906200039e565b50620003c9929150620003cd565b5090565b620003ea91905b80821115620003c95760008155600101620003d4565b90565b611da080620003fd6000396000f3fe6080604052600436106101455763ffffffff60e060020a6000350416630b97bc86811461014a5780630f73d0b4146101715780630fb5a6b4146101885780631179b1501461019d5780631217d3121461022757806324269a62146102515780632c22475c146102955780632cd52e1b146102aa578063395ba050146102d45780634c2067c7146102e95780635000596b146103125780635ee4a01a1461034357806362a925eb1461035857806374f0314f1461041357806378f7c83f146104285780637f74ac151461043d5780638291286c14610452578063a06bd8d714610467578063a8cbc34514610533578063b644bb3b14610569578063c24a0f8b1461057e578063c782bbdd14610593578063d83070ab146105a8578063dd0340c4146105bd578063ef8c7154146105d2578063f638522c146105e7578063f9b5333514610617575b600080fd5b34801561015657600080fd5b5061015f61062c565b60408051918252519081900360200190f35b34801561017d57600080fd5b50610186610632565b005b34801561019457600080fd5b5061015f610730565b3480156101a957600080fd5b506101b2610736565b6040805160208082528351818301528351919283929083019185019080838360005b838110156101ec5781810151838201526020016101d4565b50505050905090810190601f1680156102195780820380516001836020036101000a031916815260200191505b509250505060405180910390f35b34801561023357600080fd5b506101866004803603602081101561024a57600080fd5b50356107c4565b34801561025d57600080fd5b50610186600480360360a081101561027457600080fd5b5080359060208101359060408101359060608101359060800135151561092a565b3480156102a157600080fd5b506101b2610b6f565b3480156102b657600080fd5b5061015f600480360360208110156102cd57600080fd5b5035610b94565b3480156102e057600080fd5b506101b2610bd0565b3480156102f557600080fd5b506102fe610c2b565b604080519115158252519081900360200190f35b34801561031e57600080fd5b50610327610c3b565b60408051600160a060020a039092168252519081900360200190f35b34801561034f57600080fd5b506101b2610c4a565b34801561036457600080fd5b506103826004803603602081101561037b57600080fd5b5035610ca2565b604051808581526020018481526020018060200183151515158152602001828103825284818151815260200191508051906020019080838360005b838110156103d55781810151838201526020016103bd565b50505050905090810190601f1680156104025780820380516001836020036101000a031916815260200191505b509550505050505060405180910390f35b34801561041f57600080fd5b5061015f610d7b565b34801561043457600080fd5b506101b2610d82565b34801561044957600080fd5b50610327610ddd565b34801561045e57600080fd5b506101b2610dec565b34801561047357600080fd5b506104976004803603604081101561048a57600080fd5b5080359060200135610e47565b60405180868152602001858152602001806020018415151515815260200183151515158152602001828103825285818151815260200191508051906020019080838360005b838110156104f45781810151838201526020016104dc565b50505050905090810190601f1680156105215780820380516001836020036101000a031916815260200191505b50965050505050505060405180910390f35b34801561053f57600080fd5b506101866004803603606081101561055657600080fd5b5080359060208101359060400135611096565b34801561057557600080fd5b506101b26111e6565b34801561058a57600080fd5b5061015f61120b565b34801561059f57600080fd5b5061015f611211565b3480156105b457600080fd5b50610327611217565b3480156105c957600080fd5b5061015f611226565b3480156105de57600080fd5b5061018661122c565b3480156105f357600080fd5b5061015f6004803603604081101561060a57600080fd5b50803590602001356113a1565b34801561062357600080fd5b50610327611402565b600a5481565b600660009054906101000a9004600160a060020a0316600160a060020a0316638f84aa096040518163ffffffff1660e060020a02815260040160206040518083038186803b15801561068357600080fd5b505afa158015610697573d6000803e3d6000fd5b505050506040513d60208110156106ad57600080fd5b5051600160a060020a03163314610718576040805160e560020a62461bcd0281526020600482015260306024820152600080516020611d558339815191526044820152608160020a6f3337b936903a3434b99030b1ba34b7b702606482015290519081900360840190fd5b6008805460a060020a60ff02191660a060020a179055565b600d5481565b6000805460408051602060026001851615610100026000190190941693909304601f810184900484028201840190925281815292918301828280156107bc5780601f10610791576101008083540402835291602001916107bc565b820191906000526020600020905b81548152906001019060200180831161079f57829003601f168201915b505050505081565b600660009054906101000a9004600160a060020a0316600160a060020a0316638f84aa096040518163ffffffff1660e060020a02815260040160206040518083038186803b15801561081557600080fd5b505afa158015610829573d6000803e3d6000fd5b505050506040513d602081101561083f57600080fd5b5051600160a060020a031633146108aa576040805160e560020a62461bcd0281526020600482015260306024820152600080516020611d558339815191526044820152608160020a6f3337b936903a3434b99030b1ba34b7b702606482015290519081900360840190fd5b60085460a060020a900460ff16156108fa576040805160e560020a62461bcd0281526020600482015260196024820152600080516020611d35833981519152604482015290519081900360640190fd5b6109278160408051908101604052806008815260200160c260020a67195e1d195c9b985b02815250611411565b50565b600660009054906101000a9004600160a060020a0316600160a060020a0316638f84aa096040518163ffffffff1660e060020a02815260040160206040518083038186803b15801561097b57600080fd5b505afa15801561098f573d6000803e3d6000fd5b505050506040513d60208110156109a557600080fd5b5051600160a060020a03163314610a10576040805160e560020a62461bcd0281526020600482015260306024820152600080516020611d558339815191526044820152608160020a6f3337b936903a3434b99030b1ba34b7b702606482015290519081900360840190fd5b82821015610a60576040805160e560020a62461bcd0281526020600482015260126024820152607060020a71496e76616c69642074696d65206672616d6502604482015290519081900360640190fd5b6000858152600f60205260408120805486908110610a7a57fe5b9060005260206000200154905083600e82815481101515610a9757fe5b6000918252602090912060049091020155600e805484919083908110610ab957fe5b90600052602060002090600402016001018190555081600e82815481101515610ade57fe5b906000526020600020906004020160030160006101000a81548160ff02191690831515021790555060408051908101604052806008815260200160c260020a67195e1d195c9b985b02815250600e82815481101515610b3957fe5b90600052602060002090600402016002019080519060200190610b5d929190611c5f565b50610b6786611474565b505050505050565b604080518082019091526008815260c260020a67195e1d195c9b985b02602082015281565b6000818152600f602052604081206002015460ff161515610bb757506000610bcb565b506000818152600f60205260409020600101545b919050565b6005805460408051602060026001851615610100026000190190941693909304601f810184900484028201840190925281815292918301828280156107bc5780601f10610791576101008083540402835291602001916107bc565b60085460a060020a900460ff1681565b600654600160a060020a031681565b6002805460408051602060018416156101000260001901909316849004601f810184900484028201840190925281815292918301828280156107bc5780601f10610791576101008083540402835291602001916107bc565b600e805482908110610cb057fe5b9060005260206000209060040201600091509050806000015490806001015490806002018054600181600116156101000203166002900480601f016020809104026020016040519081016040528092919081815260200182805460018160011615610100020316600290048015610d685780601f10610d3d57610100808354040283529160200191610d68565b820191906000526020600020905b815481529060010190602001808311610d4b57829003601f168201915b5050506003909301549192505060ff1684565b6201518081565b6004805460408051602060026001851615610100026000190190941693909304601f810184900484028201840190925281815292918301828280156107bc5780601f10610791576101008083540402835291602001916107bc565b600854600160a060020a031681565b6003805460408051602060026001851615610100026000190190941693909304601f810184900484028201840190925281815292918301828280156107bc5780601f10610791576101008083540402835291602001916107bc565b6000828152600f602052604081206002015481906060908290819060ff161580610e7f57506000878152600f60205260409020548610155b15610ea45750506040805160208101909152600080825293508392509050818061108c565b6000878152600f602052604081205460001901871015610ec2575060015b6000888152600f602052604090208054600e919089908110610ee057fe5b9060005260206000200154815481101515610ef757fe5b600091825260208083206004909202909101548a8352600f90915260409091208054600e91908a908110610f2757fe5b9060005260206000200154815481101515610f3e57fe5b906000526020600020906004020160010154600e600f60008c81526020019081526020016000206000018a815481101515610f7557fe5b9060005260206000200154815481101515610f8c57fe5b9060005260206000209060040201600201600e600f60008d81526020019081526020016000206000018b815481101515610fc257fe5b9060005260206000200154815481101515610fd957fe5b6000918252602091829020600491909102016003015482546040805160026101006001851615026000190190931692909204601f810185900485028301850190915280825260ff90921692879285918301828280156110795780601f1061104e57610100808354040283529160200191611079565b820191906000526020600020905b81548152906001019060200180831161105c57829003601f168201915b5050505050925095509550955095509550505b9295509295909350565b600660009054906101000a9004600160a060020a0316600160a060020a0316638f84aa096040518163ffffffff1660e060020a02815260040160206040518083038186803b1580156110e757600080fd5b505afa1580156110fb573d6000803e3d6000fd5b505050506040513d602081101561111157600080fd5b5051600160a060020a0316331461117c576040805160e560020a62461bcd0281526020600482015260306024820152600080516020611d558339815191526044820152608160020a6f3337b936903a3434b99030b1ba34b7b702606482015290519081900360840190fd5b61118583611544565b6111b3838360408051908101604052806008815260200160c260020a67195e1d195c9b985b028152506115bf565b6111e1838260408051908101604052806008815260200160c260020a67195e1d195c9b985b028152506116cb565b505050565b604080518082019091526008815260c060020a67736f6c696469747902602082015281565b60095481565b600b5481565b600754600160a060020a031681565b600c5481565b600860009054906101000a9004600160a060020a0316600160a060020a0316638f84aa096040518163ffffffff1660e060020a02815260040160206040518083038186803b15801561127d57600080fd5b505afa158015611291573d6000803e3d6000fd5b505050506040513d60208110156112a757600080fd5b5051600160a060020a03163314611322576040805160e560020a62461bcd02815260206004820152602e60248201527f4f6e6c7920746865206f776e6572206163636f756e742063616e20706572666f6044820152609160020a6d3936903a3434b99030b1ba34b7b702606482015290519081900360840190fd5b60085460a060020a900460ff1615611372576040805160e560020a62461bcd0281526020600482015260196024820152600080516020611d35833981519152604482015290519081900360640190fd5b61139f4260408051908101604052806008815260200160c060020a67736f6c696469747902815250611411565b565b6000818311156113b3575060006113fc565b6000835b8381116113f8576000818152600f602052604090206002015460ff16156113f0576000818152600f602052604090206001015491909101905b6001016113b7565b5090505b92915050565b600154600160a060020a031681565b62015180820461142081611544565b600c541561145857600c548111156114425761143d81848461190d565b61144d565b61144d8184846116cb565b506000600c55611470565b6114638184846115bf565b600c8190556111e1611953565b5050565b6000805b6000838152600f602052604090205481101561152e576000838152600f602052604090208054600e9190839081106114ac57fe5b90600052602060002001548154811015156114c357fe5b60009182526020808320600490920290910154858352600f90915260409091208054600e9190849081106114f357fe5b906000526020600020015481548110151561150a57fe5b90600052602060002090600402016001015403820191508080600101915050611478565b506000918252600f602052604090912060010155565b6000818152600f6020526040902054151561092757604080516060818101835280825260006020808401829052600184860152858252600f815293902082518051929491926115969284920190611cdd565b50602082015160018201556040909101516002909101805460ff19169115159190911790555050565b6040805160808101825283815260006020808301828152938301858152600160608501819052600e80549182018082559452845160049091027fbb7b4a454dc3493923482f07822329ed19e8244eff582cc204f8554c3620c3fd810191825595517fbb7b4a454dc3493923482f07822329ed19e8244eff582cc204f8554c3620c3fe870155905180519395919361167f937fbb7b4a454dc3493923482f07822329ed19e8244eff582cc204f8554c3620c3ff909301929190910190611c5f565b50606091909101516003909101805460ff19169115159190911790555050506000908152600f602090815260408220600e54815460018101835591845291909220600019909101910155565b6000838152600f60205260408120805460001981019081106116e957fe5b90600052602060002001549050600e8181548110151561170557fe5b6000918252602090912060049091020154831015611765576040805160e560020a62461bcd0281526020600482015260126024820152607060020a71496e76616c69642074696d65206672616d6502604482015290519081900360640190fd5b816040516020018082805190602001908083835b602083106117985780518252601f199092019160209182019101611779565b6001836020036101000a03801982511681845116808217855250505050505090500191505060405160208183030381529060405280519060200120600e828154811015156117e257fe5b906000526020600020906004020160020160405160200180828054600181600116156101000203166002900480156118515780601f1061182f576101008083540402835291820191611851565b820191906000526020600020905b81548152906001019060200180831161183d575b5050915050604051602081830303815290604052805190602001201415156118a95781600e8281548110151561188357fe5b906000526020600020906004020160020190805190602001906118a7929190611c5f565b505b82600e828154811015156118b957fe5b6000918252602090912060016004909202010155600e8054829081106118db57fe5b60009182526020808320600490920290910154958252600f905260409020600101805494909303939093019091555050565b600c546201518081810201906119249082846116cb565b61193084600c54611bd6565b6201518084026119418582856115bf565b61194c8585856116cb565b5050505050565b6000805b6006546040805160e260020a633ce8989d0281526024810184905260048101918252600080546002600019600183161561010002019091160460448301819052600160a060020a039094169363f3a2627493919286929182916064019085908015611a035780601f106119d857610100808354040283529160200191611a03565b820191906000526020600020905b8154815290600101906020018083116119e657829003601f168201915b5050935050505060206040518083038186803b158015611a2257600080fd5b505afa158015611a36573d6000803e3d6000fd5b505050506040513d6020811015611a4c57600080fd5b50519150600101600160a060020a03821615611bc25760408051306044820181905260248201928352600080546002600019610100600184161502019091160460648401819052600160a060020a038716949193829160849091019085908015611af75780601f10611acc57610100808354040283529160200191611af7565b820191906000526020600020905b815481529060010190602001808311611ada57829003601f168201915b505060408051601f19818403018152918152602082018051600160e060020a031660e160020a63738f32bb0217815290518251929650945084935091508083835b60208310611b575780518252601f199092019160209182019101611b38565b6001836020036101000a0380198251168184511680821785525050505050509050019150506000604051808303816000865af19150503d8060008114611bb9576040519150601f19603f3d011682016040523d82523d6000602084013e611bbe565b606091505b5050505b600160a060020a0382161515611957575050565b600181015b828110156111e157611bec81611544565b604080518082019091526008815260c060020a67736f6c6964697479026020820152620151808281029190820190611c2790849084906115bf565b611c55838260408051908101604052806008815260200160c060020a67736f6c6964697479028152506116cb565b5050600101611bdb565b828054600181600116156101000203166002900490600052602060002090601f016020900481019282601f10611ca057805160ff1916838001178555611ccd565b82800160010185558215611ccd579182015b82811115611ccd578251825591602001919060010190611cb2565b50611cd9929150611d17565b5090565b828054828255906000526020600020908101928215611ccd5791602002820182811115611ccd578251825591602001919060010190611cb2565b611d3191905b80821115611cd95760008155600101611d1d565b9056fe5468697320636f6e7472616374206861732065787069726564000000000000004f6e6c7920746865206d616e61676572206163636f756e742063616e20706572a165627a7a72305820fdda3e54c90b248f2d32e6aae7d23662bebb887b32c0bdc174f8e2c6e19252e10029",
  "source": "pragma solidity <0.6.0;\n\n/*\nGas to deploy: 2.168.027\n*/\n\nimport \"./Clause.sol\";\n\n\ncontract TimeLogger is Clause(\n    \"timelogger\",\n    \"time_log.added\"\n)\n{\n    uint constant public SECONDS_PER_DAY = 86400;\n\n    string constant public SOLIDITY_SOURCE = \"solidity\";\n    string constant public EXTERNAL_SOURCE = \"external\";\n\n    struct TimeLog {\n        uint timeStart;\n        uint timeEnd;\n        string source;\n        bool valid;\n    }\n\n    struct Day {\n        uint[] timelogs;\n        uint total;\n        bool existence;\n    }\n\n    SignaturitUserInterface public ownerContract;\n\n    bool public expired;\n\n    uint public endDate;\n    uint public startDate;\n    uint public weeklyHours;\n    uint public lastOpenDay = 0;\n\n    int public duration;\n\n    TimeLog[] public timeLog;\n\n    mapping(uint => Day) private day;\n\n    constructor (\n        address managerContractAddress,\n        address ownerContractAddress,\n        address signatureContractAddress,\n        string memory id,\n        string memory document,\n        uint start,\n        uint end,\n        uint weekHours,\n        int contractDuration\n    )\n        public\n    {\n        contractId = id;\n        documentId = document;\n\n        startDate = start;\n        endDate = end;\n        weeklyHours = weekHours;\n        duration = contractDuration;\n\n        expired = false;\n\n        userContract = SignaturitUserInterface(managerContractAddress);\n        ownerContract = SignaturitUserInterface(ownerContractAddress);\n        signatureContract = NotifierInterface(signatureContractAddress);\n\n        _notifySignature();\n    }\n\n    modifier onlyManager() {\n        require(\n            msg.sender == address(userContract.ownerAddress()),\n            \"Only the manager account can perform this action\"\n        );\n\n        _;\n    }\n\n    modifier onlyOwner() {\n        require(\n            msg.sender == address(ownerContract.ownerAddress()),\n            \"Only the owner account can perform this action\"\n        );\n\n        _;\n    }\n\n    modifier notExpired() {\n        require(\n            expired == false,\n            \"This contract has expired\"\n        );\n\n        _;\n    }\n\n    //Externals\n    function externalSourceLog(\n        uint time\n    )\n        external\n        onlyManager\n        notExpired\n    {\n        _logTime(time, EXTERNAL_SOURCE);\n    }\n\n    function soliditySourceLog()\n        external\n        onlyOwner\n        notExpired\n    {\n        _logTime(block.timestamp, SOLIDITY_SOURCE);\n    }\n\n    function expireContract()\n        external\n        onlyManager\n    {\n        expired = true;\n    }\n\n    function createTimeLog(\n        uint thisDay,\n        uint start,\n        uint end\n    )\n        external\n        onlyManager\n    {\n        _setDay(thisDay);\n\n        _createLog(thisDay, start, EXTERNAL_SOURCE);\n\n        _closeLog(thisDay, end, EXTERNAL_SOURCE);\n    }\n\n    function editTimeLog(\n        uint thisDay,\n        uint logIndex,\n        uint start,\n        uint end,\n        bool validity\n    )\n        external\n        onlyManager\n    {\n        require(end >= start, \"Invalid time frame\");\n\n        uint index = day[thisDay].timelogs[logIndex];\n\n        timeLog[index].timeStart = start;\n        timeLog[index].timeEnd = end;\n        timeLog[index].valid = validity;\n        timeLog[index].source = EXTERNAL_SOURCE;\n\n        _recalculateTotal(thisDay);\n    }\n\n    //Getters\n\n    function getDayTime(\n        uint thisDay\n    )\n        external\n        view\n        returns(uint total)\n    {\n        if (!day[thisDay].existence) return 0;\n\n        return day[thisDay].total;\n    }\n\n    function getTotalLoggedTime(\n        uint startDay,\n        uint endDay\n    )\n        external\n        view\n        returns(uint total)\n    {\n        if (startDay > endDay) return 0;\n\n        uint totalAmount = 0;\n\n        for (uint i = startDay; i <= endDay; i++) {\n            if (day[i].existence) totalAmount += day[i].total;\n        }\n\n        return totalAmount;\n    }\n\n    function getTimeLog(\n        uint thisDay,\n        uint index\n    )\n        external\n        view\n        returns(\n            uint start,\n            uint end,\n            string memory source,\n            bool valid,\n            bool more\n        )\n    {\n        if (\n            !day[thisDay].existence ||\n            day[thisDay].timelogs.length <= index\n        ) {\n            return (0, 0, \"\", false, false);\n        }\n\n        bool thereIsMore = false;\n\n        if (index < day[thisDay].timelogs.length - 1) thereIsMore = true;\n\n        return (\n            timeLog[day[thisDay].timelogs[index]].timeStart,\n            timeLog[day[thisDay].timelogs[index]].timeEnd,\n            timeLog[day[thisDay].timelogs[index]].source,\n            timeLog[day[thisDay].timelogs[index]].valid,\n            thereIsMore\n        );\n    }\n\n    //Internals\n\n    function _logTime(\n        uint time,\n        string memory source\n    )\n        internal\n    {\n        uint today = time / SECONDS_PER_DAY;\n\n        _setDay(today);\n\n        if (lastOpenDay != 0) {\n            if (today > lastOpenDay) {\n                _completePendingDays(today, time, source);\n            } else {\n                _closeLog(today, time, source);\n            }\n\n            lastOpenDay = 0;\n\n            return;\n        }\n\n        _createLog(today, time, source);\n\n        lastOpenDay = today;\n\n        _notify();\n    }\n\n    function _createLog(\n        uint thisDay,\n        uint startTime,\n        string memory source\n    )\n        internal\n    {\n        timeLog.push(TimeLog(startTime, 0, source, true));\n\n        day[thisDay].timelogs.push(timeLog.length - 1);\n    }\n\n    function _closeLog(\n        uint thisDay,\n        uint endTime,\n        string memory source\n    )\n        internal\n    {\n        uint index = day[thisDay].timelogs[day[thisDay].timelogs.length - 1];\n\n        require(endTime >= timeLog[index].timeStart, \"Invalid time frame\");\n\n        //Assumption: if source coming from input doesnt equal the one saved, prefer the last one\n        if (\n            keccak256(abi.encodePacked((timeLog[index].source))) != keccak256(abi.encodePacked((source)))\n        )\n\n            timeLog[index].source = source;\n\n        timeLog[index].timeEnd = endTime;\n\n        day[thisDay].total += endTime - timeLog[index].timeStart;\n    }\n\n    function _completePendingDays(\n        uint today,\n        uint nowInSeconds,\n        string memory source\n    )\n        internal\n    {\n        uint lastMidnight = (lastOpenDay*SECONDS_PER_DAY)+SECONDS_PER_DAY;\n\n        _closeLog(lastOpenDay, lastMidnight, source);\n\n        _completeDaysInTheGap(today, lastOpenDay);\n\n        uint todayMidnight = today*SECONDS_PER_DAY;\n\n        _createLog(today, todayMidnight, source);\n\n        _closeLog(today, nowInSeconds, source);\n    }\n\n    function _completeDaysInTheGap(\n        uint today,\n        uint lastDay\n    )\n        internal\n    {\n        //fulfill the days in the gap with 24h single log\n        for (uint i = lastDay + 1; i < today; i++) {\n            _setDay(i);\n\n            uint startOfTheDay = i*SECONDS_PER_DAY;\n            uint endOfTheDay = startOfTheDay + SECONDS_PER_DAY;\n\n            _createLog(i, startOfTheDay, SOLIDITY_SOURCE);\n\n            _closeLog(i, endOfTheDay, SOLIDITY_SOURCE);\n        }\n    }\n\n    function _recalculateTotal(\n        uint thisDay\n    )\n        internal\n    {\n        uint totalAmount;\n\n        for (uint i = 0; i < day[thisDay].timelogs.length; i++) {\n            totalAmount += (\n                    timeLog[day[thisDay].timelogs[i]].timeEnd - timeLog[day[thisDay].timelogs[i]].timeStart\n            );\n        }\n\n        day[thisDay].total = totalAmount;\n    }\n\n    function _setDay(\n        uint today\n    )\n        internal\n    {\n        if (day[today].timelogs.length == 0) {\n            uint[] memory tmpArray;\n\n            day[today] = Day(tmpArray, 0, true);\n        }\n    }\n}\n",
  "sourcePath": "/home/administrator/workspace/signaturit-solidity-contracts/contracts/TimeLogger.sol",
  "compiler": {
    "name": "solc",
    "version": "0.5.0+commit.1d4f565a.Emscripten.clang"
  },
  "schemaVersion": "3.0.11",
  "updatedAt": "2019-10-07T12:01:23.933Z",
  "devdoc": {
    "methods": {}
  },
  "userdoc": {
    "methods": {}
  }
}