{
  "contractName": "TimeLogger",
  "abi": [
    {
      "constant": true,
      "inputs": [],
      "name": "startDate",
      "outputs": [
        {
          "name": "",
          "type": "uint256"
        }
      ],
      "payable": false,
      "stateMutability": "view",
      "type": "function"
    },
    {
      "constant": true,
      "inputs": [],
      "name": "duration",
      "outputs": [
        {
          "name": "",
          "type": "int256"
        }
      ],
      "payable": false,
      "stateMutability": "view",
      "type": "function"
    },
    {
      "constant": true,
      "inputs": [],
      "name": "EXTERNAL_SOURCE",
      "outputs": [
        {
          "name": "",
          "type": "string"
        }
      ],
      "payable": false,
      "stateMutability": "view",
      "type": "function"
    },
    {
      "constant": true,
      "inputs": [],
      "name": "signatureId",
      "outputs": [
        {
          "name": "",
          "type": "string"
        }
      ],
      "payable": false,
      "stateMutability": "view",
      "type": "function"
    },
    {
      "constant": true,
      "inputs": [],
      "name": "CLAUSE_EVENT_TYPE",
      "outputs": [
        {
          "name": "",
          "type": "string"
        }
      ],
      "payable": false,
      "stateMutability": "view",
      "type": "function"
    },
    {
      "constant": true,
      "inputs": [],
      "name": "expired",
      "outputs": [
        {
          "name": "",
          "type": "bool"
        }
      ],
      "payable": false,
      "stateMutability": "view",
      "type": "function"
    },
    {
      "constant": true,
      "inputs": [],
      "name": "userContract",
      "outputs": [
        {
          "name": "",
          "type": "address"
        }
      ],
      "payable": false,
      "stateMutability": "view",
      "type": "function"
    },
    {
      "constant": true,
      "inputs": [
        {
          "name": "",
          "type": "uint256"
        }
      ],
      "name": "timeLog",
      "outputs": [
        {
          "name": "timeStart",
          "type": "uint256"
        },
        {
          "name": "timeEnd",
          "type": "uint256"
        },
        {
          "name": "source",
          "type": "string"
        },
        {
          "name": "valid",
          "type": "bool"
        }
      ],
      "payable": false,
      "stateMutability": "view",
      "type": "function"
    },
    {
      "constant": true,
      "inputs": [],
      "name": "SECONDS_PER_DAY",
      "outputs": [
        {
          "name": "",
          "type": "uint256"
        }
      ],
      "payable": false,
      "stateMutability": "view",
      "type": "function"
    },
    {
      "constant": true,
      "inputs": [],
      "name": "documentId",
      "outputs": [
        {
          "name": "",
          "type": "string"
        }
      ],
      "payable": false,
      "stateMutability": "view",
      "type": "function"
    },
    {
      "constant": true,
      "inputs": [],
      "name": "ownerContract",
      "outputs": [
        {
          "name": "",
          "type": "address"
        }
      ],
      "payable": false,
      "stateMutability": "view",
      "type": "function"
    },
    {
      "constant": true,
      "inputs": [],
      "name": "contractId",
      "outputs": [
        {
          "name": "",
          "type": "string"
        }
      ],
      "payable": false,
      "stateMutability": "view",
      "type": "function"
    },
    {
      "constant": true,
      "inputs": [],
      "name": "SOLIDITY_SOURCE",
      "outputs": [
        {
          "name": "",
          "type": "string"
        }
      ],
      "payable": false,
      "stateMutability": "view",
      "type": "function"
    },
    {
      "constant": true,
      "inputs": [],
      "name": "endDate",
      "outputs": [
        {
          "name": "",
          "type": "uint256"
        }
      ],
      "payable": false,
      "stateMutability": "view",
      "type": "function"
    },
    {
      "constant": true,
      "inputs": [],
      "name": "weeklyHours",
      "outputs": [
        {
          "name": "",
          "type": "uint256"
        }
      ],
      "payable": false,
      "stateMutability": "view",
      "type": "function"
    },
    {
      "constant": true,
      "inputs": [],
      "name": "signatureContract",
      "outputs": [
        {
          "name": "",
          "type": "address"
        }
      ],
      "payable": false,
      "stateMutability": "view",
      "type": "function"
    },
    {
      "constant": true,
      "inputs": [],
      "name": "notifiersKey",
      "outputs": [
        {
          "name": "",
          "type": "string"
        }
      ],
      "payable": false,
      "stateMutability": "view",
      "type": "function"
    },
    {
      "constant": true,
      "inputs": [],
      "name": "lastOpenDay",
      "outputs": [
        {
          "name": "",
          "type": "uint256"
        }
      ],
      "payable": false,
      "stateMutability": "view",
      "type": "function"
    },
    {
      "constant": true,
      "inputs": [],
      "name": "CREATION_EVENT_TYPE",
      "outputs": [
        {
          "name": "",
          "type": "string"
        }
      ],
      "payable": false,
      "stateMutability": "view",
      "type": "function"
    },
    {
      "constant": true,
      "inputs": [],
      "name": "VALIDATED_NOTIFIERS_KEY",
      "outputs": [
        {
          "name": "",
          "type": "string"
        }
      ],
      "payable": false,
      "stateMutability": "view",
      "type": "function"
    },
    {
      "constant": true,
      "inputs": [],
      "name": "signaturit",
      "outputs": [
        {
          "name": "",
          "type": "address"
        }
      ],
      "payable": false,
      "stateMutability": "view",
      "type": "function"
    },
    {
      "inputs": [
        {
          "name": "managerContractAddress",
          "type": "address"
        },
        {
          "name": "ownerContractAddress",
          "type": "address"
        },
        {
          "name": "signatureContractAddress",
          "type": "address"
        },
        {
          "name": "id",
          "type": "string"
        },
        {
          "name": "document",
          "type": "string"
        },
        {
          "name": "start",
          "type": "uint256"
        },
        {
          "name": "end",
          "type": "uint256"
        },
        {
          "name": "weekHours",
          "type": "uint256"
        },
        {
          "name": "contractDuration",
          "type": "int256"
        }
      ],
      "payable": false,
      "stateMutability": "nonpayable",
      "type": "constructor"
    },
    {
      "constant": false,
      "inputs": [
        {
          "name": "time",
          "type": "uint256"
        }
      ],
      "name": "externalSourceLog",
      "outputs": [],
      "payable": false,
      "stateMutability": "nonpayable",
      "type": "function"
    },
    {
      "constant": false,
      "inputs": [],
      "name": "soliditySourceLog",
      "outputs": [],
      "payable": false,
      "stateMutability": "nonpayable",
      "type": "function"
    },
    {
      "constant": false,
      "inputs": [],
      "name": "expireContract",
      "outputs": [],
      "payable": false,
      "stateMutability": "nonpayable",
      "type": "function"
    },
    {
      "constant": false,
      "inputs": [
        {
          "name": "thisDay",
          "type": "uint256"
        },
        {
          "name": "start",
          "type": "uint256"
        },
        {
          "name": "end",
          "type": "uint256"
        }
      ],
      "name": "createTimeLog",
      "outputs": [],
      "payable": false,
      "stateMutability": "nonpayable",
      "type": "function"
    },
    {
      "constant": false,
      "inputs": [
        {
          "name": "thisDay",
          "type": "uint256"
        },
        {
          "name": "logIndex",
          "type": "uint256"
        },
        {
          "name": "start",
          "type": "uint256"
        },
        {
          "name": "end",
          "type": "uint256"
        },
        {
          "name": "validity",
          "type": "bool"
        }
      ],
      "name": "editTimeLog",
      "outputs": [],
      "payable": false,
      "stateMutability": "nonpayable",
      "type": "function"
    },
    {
      "constant": true,
      "inputs": [
        {
          "name": "thisDay",
          "type": "uint256"
        }
      ],
      "name": "getDayTime",
      "outputs": [
        {
          "name": "total",
          "type": "uint256"
        }
      ],
      "payable": false,
      "stateMutability": "view",
      "type": "function"
    },
    {
      "constant": true,
      "inputs": [
        {
          "name": "startDay",
          "type": "uint256"
        },
        {
          "name": "endDay",
          "type": "uint256"
        }
      ],
      "name": "getTotalLoggedTime",
      "outputs": [
        {
          "name": "total",
          "type": "uint256"
        }
      ],
      "payable": false,
      "stateMutability": "view",
      "type": "function"
    },
    {
      "constant": true,
      "inputs": [
        {
          "name": "thisDay",
          "type": "uint256"
        },
        {
          "name": "index",
          "type": "uint256"
        }
      ],
      "name": "getTimeLog",
      "outputs": [
        {
          "name": "start",
          "type": "uint256"
        },
        {
          "name": "end",
          "type": "uint256"
        },
        {
          "name": "source",
          "type": "string"
        },
        {
          "name": "valid",
          "type": "bool"
        },
        {
          "name": "more",
          "type": "bool"
        }
      ],
      "payable": false,
      "stateMutability": "view",
      "type": "function"
    }
  ],
  "bytecode": "0x60806040526000600b553480156200001657600080fd5b50604051620025463803806200254683398101806040526101208110156200003d57600080fd5b81516020830151604084015160608501805193959294919391830192916401000000008111156200006d57600080fd5b820160208101848111156200008157600080fd5b81516401000000008111828201871017156200009c57600080fd5b50509291906020018051640100000000811115620000b957600080fd5b82016020810184811115620000cd57600080fd5b8151640100000000811182820187101715620000e857600080fd5b505060208083015160408085015160608601516080909601518251808401909352601b8084527f74696d656c6f676765722d636c617573652d6e6f7469666965727300000000009584019586529598509296509493919290916200014f9160009162000667565b505085516200016690600290602089019062000667565b5084516200017c90600390602088019062000667565b5060098490556008839055600a829055600c8190556007805460058054600160a060020a0319908116600160a060020a038e81169190911792839055600160a860020a03199093168c841617909355600680549093168a831617909255604080518082018252601381527f76616c6964617465642d6e6f746966696572730000000000000000000000000060208083019190915282517f8f84aa090000000000000000000000000000000000000000000000000000000081529251949093169363d661f8789391928592638f84aa0992600483810193829003018186803b1580156200026757600080fd5b505afa1580156200027c573d6000803e3d6000fd5b505050506040513d60208110156200029357600080fd5b5051604080517c010000000000000000000000000000000000000000000000000000000063ffffffff8616028152600160a060020a038316602482015260048101918252835160448201528351829160640190602086019080838360005b838110156200030b578181015183820152602001620002f1565b50505050905090810190601f168015620003395780820380516001836020036101000a031916815260200191505b509350505050600060405180830381600087803b1580156200035a57600080fd5b505af11580156200036f573d6000803e3d6000fd5b5050600554604080518082018252601381527f76616c6964617465642d6e6f746966696572730000000000000000000000000060208083019190915260075483517f8f84aa090000000000000000000000000000000000000000000000000000000081529351600160a060020a03958616975063d661f878965092941692638f84aa099260048083019392829003018186803b1580156200040f57600080fd5b505afa15801562000424573d6000803e3d6000fd5b505050506040513d60208110156200043b57600080fd5b5051604080517c010000000000000000000000000000000000000000000000000000000063ffffffff8616028152600160a060020a038316602482015260048101918252835160448201528351829160640190602086019080838360005b83811015620004b357818101518382015260200162000499565b50505050905090810190601f168015620004e15780820380516001836020036101000a031916815260200191505b509350505050600060405180830381600087803b1580156200050257600080fd5b505af115801562000517573d6000803e3d6000fd5b505050506200056a6040805190810160405280601981526020017f74696d656c6f676765725f636c617573652e637265617465640000000000000081525062000579640100000000026401000000009004565b5050505050505050506200070c565b600654604080517fe71e6576000000000000000000000000000000000000000000000000000000008152306024820181905260048201928352845160448301528451600160a060020a039094169363e71e65769386939091829160640190602086019080838360005b83811015620005fc578181015183820152602001620005e2565b50505050905090810190601f1680156200062a5780820380516001836020036101000a031916815260200191505b509350505050600060405180830381600087803b1580156200064b57600080fd5b505af115801562000660573d6000803e3d6000fd5b5050505050565b828054600181600116156101000203166002900490600052602060002090601f016020900481019282601f10620006aa57805160ff1916838001178555620006da565b82800160010185558215620006da579182015b82811115620006da578251825591602001919060010190620006bd565b50620006e8929150620006ec565b5090565b6200070991905b80821115620006e85760008155600101620006f3565b90565b611e2a806200071c6000396000f3fe60806040526004361061015b5763ffffffff60e060020a6000350416630b97bc8681146101605780630f73d0b4146101875780630fb5a6b41461019e5780631217d312146101b357806324269a62146101dd5780632c22475c146102215780632cd52e1b146102ab578063395ba050146102d55780634396fd12146102ea5780634c2067c7146102ff5780635000596b1461032857806362a925eb1461035957806374f0314f1461041457806378f7c83f146104295780637f74ac151461043e5780638291286c14610453578063a06bd8d714610468578063a8cbc34514610534578063b644bb3b1461056a578063c24a0f8b1461057f578063c782bbdd14610594578063d83070ab146105a9578063d9026ed1146105be578063dd0340c4146105d3578063dea84444146105e8578063ef8c7154146105fd578063f39ea3df14610612578063f638522c14610627578063f9b5333514610657575b600080fd5b34801561016c57600080fd5b5061017561066c565b60408051918252519081900360200190f35b34801561019357600080fd5b5061019c610672565b005b3480156101aa57600080fd5b50610175610770565b3480156101bf57600080fd5b5061019c600480360360208110156101d657600080fd5b5035610776565b3480156101e957600080fd5b5061019c600480360360a081101561020057600080fd5b508035906020810135906040810135906060810135906080013515156108dc565b34801561022d57600080fd5b50610236610b21565b6040805160208082528351818301528351919283929083019185019080838360005b83811015610270578181015183820152602001610258565b50505050905090810190601f16801561029d5780820380516001836020036101000a031916815260200191505b509250505060405180910390f35b3480156102b757600080fd5b50610175600480360360208110156102ce57600080fd5b5035610b46565b3480156102e157600080fd5b50610236610b82565b3480156102f657600080fd5b50610236610c10565b34801561030b57600080fd5b50610314610c3a565b604080519115158252519081900360200190f35b34801561033457600080fd5b5061033d610c4a565b60408051600160a060020a039092168252519081900360200190f35b34801561036557600080fd5b506103836004803603602081101561037c57600080fd5b5035610c59565b604051808581526020018481526020018060200183151515158152602001828103825284818151815260200191508051906020019080838360005b838110156103d65781810151838201526020016103be565b50505050905090810190601f1680156104035780820380516001836020036101000a031916815260200191505b509550505050505060405180910390f35b34801561042057600080fd5b50610175610d32565b34801561043557600080fd5b50610236610d39565b34801561044a57600080fd5b5061033d610d94565b34801561045f57600080fd5b50610236610da3565b34801561047457600080fd5b506104986004803603604081101561048b57600080fd5b5080359060200135610dfb565b60405180868152602001858152602001806020018415151515815260200183151515158152602001828103825285818151815260200191508051906020019080838360005b838110156104f55781810151838201526020016104dd565b50505050905090810190601f1680156105225780820380516001836020036101000a031916815260200191505b50965050505050505060405180910390f35b34801561054057600080fd5b5061019c6004803603606081101561055757600080fd5b508035906020810135906040013561104a565b34801561057657600080fd5b5061023661119a565b34801561058b57600080fd5b506101756111bf565b3480156105a057600080fd5b506101756111c5565b3480156105b557600080fd5b5061033d6111cb565b3480156105ca57600080fd5b506102366111da565b3480156105df57600080fd5b50610175611235565b3480156105f457600080fd5b5061023661123b565b34801561060957600080fd5b5061019c611272565b34801561061e57600080fd5b506102366113e7565b34801561063357600080fd5b506101756004803603604081101561064a57600080fd5b5080359060200135611417565b34801561066357600080fd5b5061033d611478565b60095481565b600560009054906101000a9004600160a060020a0316600160a060020a0316638f84aa096040518163ffffffff1660e060020a02815260040160206040518083038186803b1580156106c357600080fd5b505afa1580156106d7573d6000803e3d6000fd5b505050506040513d60208110156106ed57600080fd5b5051600160a060020a03163314610758576040805160e560020a62461bcd0281526020600482015260306024820152600080516020611ddf8339815191526044820152608160020a6f3337b936903a3434b99030b1ba34b7b702606482015290519081900360840190fd5b6007805460a060020a60ff02191660a060020a179055565b600c5481565b600560009054906101000a9004600160a060020a0316600160a060020a0316638f84aa096040518163ffffffff1660e060020a02815260040160206040518083038186803b1580156107c757600080fd5b505afa1580156107db573d6000803e3d6000fd5b505050506040513d60208110156107f157600080fd5b5051600160a060020a0316331461085c576040805160e560020a62461bcd0281526020600482015260306024820152600080516020611ddf8339815191526044820152608160020a6f3337b936903a3434b99030b1ba34b7b702606482015290519081900360840190fd5b60075460a060020a900460ff16156108ac576040805160e560020a62461bcd0281526020600482015260196024820152600080516020611dbf833981519152604482015290519081900360640190fd5b6108d98160408051908101604052806008815260200160c260020a67195e1d195c9b985b02815250611487565b50565b600560009054906101000a9004600160a060020a0316600160a060020a0316638f84aa096040518163ffffffff1660e060020a02815260040160206040518083038186803b15801561092d57600080fd5b505afa158015610941573d6000803e3d6000fd5b505050506040513d602081101561095757600080fd5b5051600160a060020a031633146109c2576040805160e560020a62461bcd0281526020600482015260306024820152600080516020611ddf8339815191526044820152608160020a6f3337b936903a3434b99030b1ba34b7b702606482015290519081900360840190fd5b82821015610a12576040805160e560020a62461bcd0281526020600482015260126024820152607060020a71496e76616c69642074696d65206672616d6502604482015290519081900360640190fd5b6000858152600e60205260408120805486908110610a2c57fe5b9060005260206000200154905083600d82815481101515610a4957fe5b6000918252602090912060049091020155600d805484919083908110610a6b57fe5b90600052602060002090600402016001018190555081600d82815481101515610a9057fe5b906000526020600020906004020160030160006101000a81548160ff02191690831515021790555060408051908101604052806008815260200160c260020a67195e1d195c9b985b02815250600d82815481101515610aeb57fe5b90600052602060002090600402016002019080519060200190610b0f929190611ce9565b50610b1986611512565b505050505050565b604080518082019091526008815260c260020a67195e1d195c9b985b02602082015281565b6000818152600e602052604081206002015460ff161515610b6957506000610b7d565b506000818152600e60205260409020600101545b919050565b6004805460408051602060026001851615610100026000190190941693909304601f81018490048402820184019092528181529291830182828015610c085780601f10610bdd57610100808354040283529160200191610c08565b820191906000526020600020905b815481529060010190602001808311610beb57829003601f168201915b505050505081565b60408051808201909152600d8152609a60020a6c1d1a5b595b1bd9cb985919195902602082015281565b60075460a060020a900460ff1681565b600554600160a060020a031681565b600d805482908110610c6757fe5b9060005260206000209060040201600091509050806000015490806001015490806002018054600181600116156101000203166002900480601f016020809104026020016040519081016040528092919081815260200182805460018160011615610100020316600290048015610d1f5780601f10610cf457610100808354040283529160200191610d1f565b820191906000526020600020905b815481529060010190602001808311610d0257829003601f168201915b5050506003909301549192505060ff1684565b6201518081565b6003805460408051602060026001851615610100026000190190941693909304601f81018490048402820184019092528181529291830182828015610c085780601f10610bdd57610100808354040283529160200191610c08565b600754600160a060020a031681565b6002805460408051602060018416156101000260001901909316849004601f81018490048402820184019092528181529291830182828015610c085780601f10610bdd57610100808354040283529160200191610c08565b6000828152600e602052604081206002015481906060908290819060ff161580610e3357506000878152600e60205260409020548610155b15610e5857505060408051602081019091526000808252935083925090508180611040565b6000878152600e602052604081205460001901871015610e76575060015b6000888152600e602052604090208054600d919089908110610e9457fe5b9060005260206000200154815481101515610eab57fe5b600091825260208083206004909202909101548a8352600e90915260409091208054600d91908a908110610edb57fe5b9060005260206000200154815481101515610ef257fe5b906000526020600020906004020160010154600d600e60008c81526020019081526020016000206000018a815481101515610f2957fe5b9060005260206000200154815481101515610f4057fe5b9060005260206000209060040201600201600d600e60008d81526020019081526020016000206000018b815481101515610f7657fe5b9060005260206000200154815481101515610f8d57fe5b6000918252602091829020600491909102016003015482546040805160026101006001851615026000190190931692909204601f810185900485028301850190915280825260ff909216928792859183018282801561102d5780601f106110025761010080835404028352916020019161102d565b820191906000526020600020905b81548152906001019060200180831161101057829003601f168201915b5050505050925095509550955095509550505b9295509295909350565b600560009054906101000a9004600160a060020a0316600160a060020a0316638f84aa096040518163ffffffff1660e060020a02815260040160206040518083038186803b15801561109b57600080fd5b505afa1580156110af573d6000803e3d6000fd5b505050506040513d60208110156110c557600080fd5b5051600160a060020a03163314611130576040805160e560020a62461bcd0281526020600482015260306024820152600080516020611ddf8339815191526044820152608160020a6f3337b936903a3434b99030b1ba34b7b702606482015290519081900360840190fd5b611139836115e2565b611167838360408051908101604052806008815260200160c260020a67195e1d195c9b985b0281525061165d565b611195838260408051908101604052806008815260200160c260020a67195e1d195c9b985b02815250611769565b505050565b604080518082019091526008815260c060020a67736f6c696469747902602082015281565b60085481565b600a5481565b600654600160a060020a031681565b6000805460408051602060026001851615610100026000190190941693909304601f81018490048402820184019092528181529291830182828015610c085780601f10610bdd57610100808354040283529160200191610c08565b600b5481565b60408051808201909152601981527f74696d656c6f676765725f636c617573652e6372656174656400000000000000602082015281565b600760009054906101000a9004600160a060020a0316600160a060020a0316638f84aa096040518163ffffffff1660e060020a02815260040160206040518083038186803b1580156112c357600080fd5b505afa1580156112d7573d6000803e3d6000fd5b505050506040513d60208110156112ed57600080fd5b5051600160a060020a03163314611368576040805160e560020a62461bcd02815260206004820152602e60248201527f4f6e6c7920746865206f776e6572206163636f756e742063616e20706572666f6044820152609160020a6d3936903a3434b99030b1ba34b7b702606482015290519081900360840190fd5b60075460a060020a900460ff16156113b8576040805160e560020a62461bcd0281526020600482015260196024820152600080516020611dbf833981519152604482015290519081900360640190fd5b6113e54260408051908101604052806008815260200160c060020a67736f6c696469747902815250611487565b565b6040805180820190915260138152606860020a7276616c6964617465642d6e6f7469666965727302602082015281565b60008183111561142957506000611472565b6000835b83811161146e576000818152600e602052604090206002015460ff1615611466576000818152600e602052604090206001015491909101905b60010161142d565b5090505b92915050565b600154600160a060020a031681565b620151808204611496816115e2565b600b54156114ce57600b548111156114b8576114b38184846119ab565b6114c3565b6114c3818484611769565b506000600b5561150e565b6114d981848461165d565b600b81905560408051808201909152600d8152609a60020a6c1d1a5b595b1bd9cb9859191959026020820152611195906119f1565b5050565b6000805b6000838152600e60205260409020548110156115cc576000838152600e602052604090208054600d91908390811061154a57fe5b906000526020600020015481548110151561156157fe5b60009182526020808320600490920290910154858352600e90915260409091208054600d91908490811061159157fe5b90600052602060002001548154811015156115a857fe5b90600052602060002090600402016001015403820191508080600101915050611516565b506000918252600e602052604090912060010155565b6000818152600e602052604090205415156108d957604080516060818101835280825260006020808401829052600184860152858252600e815293902082518051929491926116349284920190611d67565b50602082015160018201556040909101516002909101805460ff19169115159190911790555050565b6040805160808101825283815260006020808301828152938301858152600160608501819052600d80549182018082559452845160049091027fd7b6990105719101dabeb77144f2a3385c8033acd3af97e9423a695e81ad1eb5810191825595517fd7b6990105719101dabeb77144f2a3385c8033acd3af97e9423a695e81ad1eb6870155905180519395919361171d937fd7b6990105719101dabeb77144f2a3385c8033acd3af97e9423a695e81ad1eb7909301929190910190611ce9565b50606091909101516003909101805460ff19169115159190911790555050506000908152600e602090815260408220600d54815460018101835591845291909220600019909101910155565b6000838152600e602052604081208054600019810190811061178757fe5b90600052602060002001549050600d818154811015156117a357fe5b6000918252602090912060049091020154831015611803576040805160e560020a62461bcd0281526020600482015260126024820152607060020a71496e76616c69642074696d65206672616d6502604482015290519081900360640190fd5b816040516020018082805190602001908083835b602083106118365780518252601f199092019160209182019101611817565b6001836020036101000a03801982511681845116808217855250505050505090500191505060405160208183030381529060405280519060200120600d8281548110151561188057fe5b906000526020600020906004020160020160405160200180828054600181600116156101000203166002900480156118ef5780601f106118cd5761010080835404028352918201916118ef565b820191906000526020600020905b8154815290600101906020018083116118db575b5050915050604051602081830303815290604052805190602001201415156119475781600d8281548110151561192157fe5b90600052602060002090600402016002019080519060200190611945929190611ce9565b505b82600d8281548110151561195757fe5b6000918252602090912060016004909202010155600d80548290811061197957fe5b60009182526020808320600490920290910154958252600e905260409020600101805494909303939093019091555050565b600b546201518081810201906119c2908284611769565b6119ce84600b54611c60565b6201518084026119df85828561165d565b6119ea858585611769565b5050505050565b6000805b6005546040805160e260020a633ce8989d0281526024810184905260048101918252600080546002600019600183161561010002019091160460448301819052600160a060020a039094169363f3a2627493919286929182916064019085908015611aa15780601f10611a7657610100808354040283529160200191611aa1565b820191906000526020600020905b815481529060010190602001808311611a8457829003601f168201915b5050935050505060206040518083038186803b158015611ac057600080fd5b505afa158015611ad4573d6000803e3d6000fd5b505050506040513d6020811015611aea57600080fd5b50519150600101600160a060020a03821615611c4b5760408051306044820181905260248201928352855160648301528551600160a060020a0386169387939091829160840190602086019080838360005b83811015611b54578181015183820152602001611b3c565b50505050905090810190601f168015611b815780820380516001836020036101000a031916815260200191505b5060408051601f19818403018152918152602082018051600160e060020a031660e160020a63738f32bb0217815290518251929650945084935091508083835b60208310611be05780518252601f199092019160209182019101611bc1565b6001836020036101000a0380198251168184511680821785525050505050509050019150506000604051808303816000865af19150503d8060008114611c42576040519150601f19603f3d011682016040523d82523d6000602084013e611c47565b606091505b5050505b600160a060020a03821615156119f557505050565b600181015b8281101561119557611c76816115e2565b604080518082019091526008815260c060020a67736f6c6964697479026020820152620151808281029190820190611cb1908490849061165d565b611cdf838260408051908101604052806008815260200160c060020a67736f6c696469747902815250611769565b5050600101611c65565b828054600181600116156101000203166002900490600052602060002090601f016020900481019282601f10611d2a57805160ff1916838001178555611d57565b82800160010185558215611d57579182015b82811115611d57578251825591602001919060010190611d3c565b50611d63929150611da1565b5090565b828054828255906000526020600020908101928215611d575791602002820182811115611d57578251825591602001919060010190611d3c565b611dbb91905b80821115611d635760008155600101611da7565b9056fe5468697320636f6e7472616374206861732065787069726564000000000000004f6e6c7920746865206d616e61676572206163636f756e742063616e20706572a165627a7a7230582084ce70241efa60bd418620eb2be9b79a28b9adf49cebffec3e37a07bc4d9ffff0029",
  "source": "pragma solidity <0.6.0;\n\n/*\nGas to deploy: 2.168.027\n*/\n\nimport \"./Clause.sol\";\n\n\ncontract TimeLogger is Clause(\n    \"timelogger-clause-notifiers\"\n)\n{\n    uint constant public SECONDS_PER_DAY = 86400;\n\n    string constant public SOLIDITY_SOURCE = \"solidity\";\n    string constant public EXTERNAL_SOURCE = \"external\";\n\n    string constant public CLAUSE_EVENT_TYPE = \"timelog.added\";\n    string constant public CREATION_EVENT_TYPE = \"timelogger_clause.created\";\n\n    string constant public VALIDATED_NOTIFIERS_KEY = \"validated-notifiers\";\n\n    struct TimeLog {\n        uint timeStart;\n        uint timeEnd;\n        string source;\n        bool valid;\n    }\n\n    struct Day {\n        uint[] timelogs;\n        uint total;\n        bool existence;\n    }\n\n    SignaturitUserInterface public ownerContract;\n\n    bool public expired;\n\n    uint public endDate;\n    uint public startDate;\n    uint public weeklyHours;\n    uint public lastOpenDay = 0;\n\n    int public duration;\n\n    TimeLog[] public timeLog;\n\n    mapping(uint => Day) private day;\n\n    constructor (\n        address managerContractAddress,\n        address ownerContractAddress,\n        address signatureContractAddress,\n        string memory id,\n        string memory document,\n        uint start,\n        uint end,\n        uint weekHours,\n        int contractDuration\n    )\n        public\n    {\n        contractId = id;\n        documentId = document;\n\n        startDate = start;\n        endDate = end;\n        weeklyHours = weekHours;\n        duration = contractDuration;\n\n        expired = false;\n\n        userContract = SignaturitUserInterface(managerContractAddress);\n        ownerContract = SignaturitUserInterface(ownerContractAddress);\n        signatureContract = NotifierInterface(signatureContractAddress);\n\n        userContract.setAddressArrayAttribute(VALIDATED_NOTIFIERS_KEY, userContract.ownerAddress());\n        userContract.setAddressArrayAttribute(VALIDATED_NOTIFIERS_KEY, ownerContract.ownerAddress());\n\n        _notifySignature(CREATION_EVENT_TYPE);\n    }\n\n    modifier onlyManager() {\n        require(\n            msg.sender == address(userContract.ownerAddress()),\n            \"Only the manager account can perform this action\"\n        );\n\n        _;\n    }\n\n    modifier onlyOwner() {\n        require(\n            msg.sender == address(ownerContract.ownerAddress()),\n            \"Only the owner account can perform this action\"\n        );\n\n        _;\n    }\n\n    modifier notExpired() {\n        require(\n            expired == false,\n            \"This contract has expired\"\n        );\n\n        _;\n    }\n\n    //Externals\n    function externalSourceLog(\n        uint time\n    )\n        external\n        onlyManager\n        notExpired\n    {\n        _logTime(time, EXTERNAL_SOURCE);\n    }\n\n    function soliditySourceLog()\n        external\n        onlyOwner\n        notExpired\n    {\n        _logTime(block.timestamp, SOLIDITY_SOURCE);\n    }\n\n    function expireContract()\n        external\n        onlyManager\n    {\n        expired = true;\n    }\n\n    function createTimeLog(\n        uint thisDay,\n        uint start,\n        uint end\n    )\n        external\n        onlyManager\n    {\n        _setDay(thisDay);\n\n        _createLog(thisDay, start, EXTERNAL_SOURCE);\n\n        _closeLog(thisDay, end, EXTERNAL_SOURCE);\n    }\n\n    function editTimeLog(\n        uint thisDay,\n        uint logIndex,\n        uint start,\n        uint end,\n        bool validity\n    )\n        external\n        onlyManager\n    {\n        require(end >= start, \"Invalid time frame\");\n\n        uint index = day[thisDay].timelogs[logIndex];\n\n        timeLog[index].timeStart = start;\n        timeLog[index].timeEnd = end;\n        timeLog[index].valid = validity;\n        timeLog[index].source = EXTERNAL_SOURCE;\n\n        _recalculateTotal(thisDay);\n    }\n\n    //Getters\n\n    function getDayTime(\n        uint thisDay\n    )\n        external\n        view\n        returns(uint total)\n    {\n        if (!day[thisDay].existence) return 0;\n\n        return day[thisDay].total;\n    }\n\n    function getTotalLoggedTime(\n        uint startDay,\n        uint endDay\n    )\n        external\n        view\n        returns(uint total)\n    {\n        if (startDay > endDay) return 0;\n\n        uint totalAmount = 0;\n\n        for (uint i = startDay; i <= endDay; i++) {\n            if (day[i].existence) totalAmount += day[i].total;\n        }\n\n        return totalAmount;\n    }\n\n    function getTimeLog(\n        uint thisDay,\n        uint index\n    )\n        external\n        view\n        returns(\n            uint start,\n            uint end,\n            string memory source,\n            bool valid,\n            bool more\n        )\n    {\n        if (\n            !day[thisDay].existence ||\n            day[thisDay].timelogs.length <= index\n        ) {\n            return (0, 0, \"\", false, false);\n        }\n\n        bool thereIsMore = false;\n\n        if (index < day[thisDay].timelogs.length - 1) thereIsMore = true;\n\n        return (\n            timeLog[day[thisDay].timelogs[index]].timeStart,\n            timeLog[day[thisDay].timelogs[index]].timeEnd,\n            timeLog[day[thisDay].timelogs[index]].source,\n            timeLog[day[thisDay].timelogs[index]].valid,\n            thereIsMore\n        );\n    }\n\n    //Internals\n\n    function _logTime(\n        uint time,\n        string memory source\n    )\n        internal\n    {\n        uint today = time / SECONDS_PER_DAY;\n\n        _setDay(today);\n\n        if (lastOpenDay != 0) {\n            if (today > lastOpenDay) {\n                _completePendingDays(today, time, source);\n            } else {\n                _closeLog(today, time, source);\n            }\n\n            lastOpenDay = 0;\n\n            return;\n        }\n\n        _createLog(today, time, source);\n\n        lastOpenDay = today;\n\n        _notify(CLAUSE_EVENT_TYPE);\n    }\n\n    function _createLog(\n        uint thisDay,\n        uint startTime,\n        string memory source\n    )\n        internal\n    {\n        timeLog.push(TimeLog(startTime, 0, source, true));\n\n        day[thisDay].timelogs.push(timeLog.length - 1);\n    }\n\n    function _closeLog(\n        uint thisDay,\n        uint endTime,\n        string memory source\n    )\n        internal\n    {\n        uint index = day[thisDay].timelogs[day[thisDay].timelogs.length - 1];\n\n        require(endTime >= timeLog[index].timeStart, \"Invalid time frame\");\n\n        //Assumption: if source coming from input doesnt equal the one saved, prefer the last one\n        if (\n            keccak256(abi.encodePacked((timeLog[index].source))) != keccak256(abi.encodePacked((source)))\n        )\n\n            timeLog[index].source = source;\n\n        timeLog[index].timeEnd = endTime;\n\n        day[thisDay].total += endTime - timeLog[index].timeStart;\n    }\n\n    function _completePendingDays(\n        uint today,\n        uint nowInSeconds,\n        string memory source\n    )\n        internal\n    {\n        uint lastMidnight = (lastOpenDay*SECONDS_PER_DAY)+SECONDS_PER_DAY;\n\n        _closeLog(lastOpenDay, lastMidnight, source);\n\n        _completeDaysInTheGap(today, lastOpenDay);\n\n        uint todayMidnight = today*SECONDS_PER_DAY;\n\n        _createLog(today, todayMidnight, source);\n\n        _closeLog(today, nowInSeconds, source);\n    }\n\n    function _completeDaysInTheGap(\n        uint today,\n        uint lastDay\n    )\n        internal\n    {\n        //fulfill the days in the gap with 24h single log\n        for (uint i = lastDay + 1; i < today; i++) {\n            _setDay(i);\n\n            uint startOfTheDay = i*SECONDS_PER_DAY;\n            uint endOfTheDay = startOfTheDay + SECONDS_PER_DAY;\n\n            _createLog(i, startOfTheDay, SOLIDITY_SOURCE);\n\n            _closeLog(i, endOfTheDay, SOLIDITY_SOURCE);\n        }\n    }\n\n    function _recalculateTotal(\n        uint thisDay\n    )\n        internal\n    {\n        uint totalAmount;\n\n        for (uint i = 0; i < day[thisDay].timelogs.length; i++) {\n            totalAmount += (\n                    timeLog[day[thisDay].timelogs[i]].timeEnd - timeLog[day[thisDay].timelogs[i]].timeStart\n            );\n        }\n\n        day[thisDay].total = totalAmount;\n    }\n\n    function _setDay(\n        uint today\n    )\n        internal\n    {\n        if (day[today].timelogs.length == 0) {\n            uint[] memory tmpArray;\n\n            day[today] = Day(tmpArray, 0, true);\n        }\n    }\n}\n",
  "sourcePath": "/home/administrator/workspace/signaturit-solidity-contracts/contracts/TimeLogger.sol",
  "compiler": {
    "name": "solc",
    "version": "0.5.0+commit.1d4f565a.Emscripten.clang"
  },
  "schemaVersion": "3.0.11",
  "updatedAt": "2019-10-16T13:50:03.106Z",
  "devdoc": {
    "methods": {}
  },
  "userdoc": {
    "methods": {}
  }
}