{
  "contractName": "TimeLogger",
  "abi": [
    {
      "constant": true,
      "inputs": [],
      "name": "startDate",
      "outputs": [
        {
          "name": "",
          "type": "uint256"
        }
      ],
      "payable": false,
      "stateMutability": "view",
      "type": "function"
    },
    {
      "constant": true,
      "inputs": [],
      "name": "duration",
      "outputs": [
        {
          "name": "",
          "type": "int256"
        }
      ],
      "payable": false,
      "stateMutability": "view",
      "type": "function"
    },
    {
      "constant": true,
      "inputs": [],
      "name": "EXTERNAL_SOURCE",
      "outputs": [
        {
          "name": "",
          "type": "string"
        }
      ],
      "payable": false,
      "stateMutability": "view",
      "type": "function"
    },
    {
      "constant": true,
      "inputs": [],
      "name": "signatureId",
      "outputs": [
        {
          "name": "",
          "type": "string"
        }
      ],
      "payable": false,
      "stateMutability": "view",
      "type": "function"
    },
    {
      "constant": true,
      "inputs": [],
      "name": "expired",
      "outputs": [
        {
          "name": "",
          "type": "bool"
        }
      ],
      "payable": false,
      "stateMutability": "view",
      "type": "function"
    },
    {
      "constant": true,
      "inputs": [],
      "name": "userContract",
      "outputs": [
        {
          "name": "",
          "type": "address"
        }
      ],
      "payable": false,
      "stateMutability": "view",
      "type": "function"
    },
    {
      "constant": true,
      "inputs": [],
      "name": "clause",
      "outputs": [
        {
          "name": "",
          "type": "string"
        }
      ],
      "payable": false,
      "stateMutability": "view",
      "type": "function"
    },
    {
      "constant": true,
      "inputs": [
        {
          "name": "",
          "type": "uint256"
        }
      ],
      "name": "timeLog",
      "outputs": [
        {
          "name": "timeStart",
          "type": "uint256"
        },
        {
          "name": "timeEnd",
          "type": "uint256"
        },
        {
          "name": "source",
          "type": "string"
        },
        {
          "name": "valid",
          "type": "bool"
        }
      ],
      "payable": false,
      "stateMutability": "view",
      "type": "function"
    },
    {
      "constant": true,
      "inputs": [],
      "name": "SECONDS_PER_DAY",
      "outputs": [
        {
          "name": "",
          "type": "uint256"
        }
      ],
      "payable": false,
      "stateMutability": "view",
      "type": "function"
    },
    {
      "constant": true,
      "inputs": [],
      "name": "documentId",
      "outputs": [
        {
          "name": "",
          "type": "string"
        }
      ],
      "payable": false,
      "stateMutability": "view",
      "type": "function"
    },
    {
      "constant": true,
      "inputs": [],
      "name": "contractId",
      "outputs": [
        {
          "name": "",
          "type": "string"
        }
      ],
      "payable": false,
      "stateMutability": "view",
      "type": "function"
    },
    {
      "constant": true,
      "inputs": [],
      "name": "NOTIFICATION_EVENT",
      "outputs": [
        {
          "name": "",
          "type": "string"
        }
      ],
      "payable": false,
      "stateMutability": "view",
      "type": "function"
    },
    {
      "constant": true,
      "inputs": [],
      "name": "SOLIDITY_SOURCE",
      "outputs": [
        {
          "name": "",
          "type": "string"
        }
      ],
      "payable": false,
      "stateMutability": "view",
      "type": "function"
    },
    {
      "constant": true,
      "inputs": [],
      "name": "endDate",
      "outputs": [
        {
          "name": "",
          "type": "uint256"
        }
      ],
      "payable": false,
      "stateMutability": "view",
      "type": "function"
    },
    {
      "constant": true,
      "inputs": [],
      "name": "workerId",
      "outputs": [
        {
          "name": "",
          "type": "string"
        }
      ],
      "payable": false,
      "stateMutability": "view",
      "type": "function"
    },
    {
      "constant": true,
      "inputs": [],
      "name": "weeklyHours",
      "outputs": [
        {
          "name": "",
          "type": "uint256"
        }
      ],
      "payable": false,
      "stateMutability": "view",
      "type": "function"
    },
    {
      "constant": true,
      "inputs": [],
      "name": "signatureContract",
      "outputs": [
        {
          "name": "",
          "type": "address"
        }
      ],
      "payable": false,
      "stateMutability": "view",
      "type": "function"
    },
    {
      "constant": true,
      "inputs": [],
      "name": "signaturit",
      "outputs": [
        {
          "name": "",
          "type": "address"
        }
      ],
      "payable": false,
      "stateMutability": "view",
      "type": "function"
    },
    {
      "inputs": [
        {
          "name": "userContractAddress",
          "type": "address"
        },
        {
          "name": "signatureContractAddress",
          "type": "address"
        },
        {
          "name": "id",
          "type": "string"
        }
      ],
      "payable": false,
      "stateMutability": "nonpayable",
      "type": "constructor"
    },
    {
      "constant": false,
      "inputs": [
        {
          "name": "signature",
          "type": "string"
        },
        {
          "name": "document",
          "type": "string"
        },
        {
          "name": "worker",
          "type": "string"
        },
        {
          "name": "start",
          "type": "uint256"
        },
        {
          "name": "end",
          "type": "uint256"
        },
        {
          "name": "weekHours",
          "type": "uint256"
        },
        {
          "name": "contractDuration",
          "type": "int256"
        }
      ],
      "name": "init",
      "outputs": [],
      "payable": false,
      "stateMutability": "nonpayable",
      "type": "function"
    },
    {
      "constant": false,
      "inputs": [
        {
          "name": "time",
          "type": "uint256"
        }
      ],
      "name": "externalSourceLog",
      "outputs": [],
      "payable": false,
      "stateMutability": "nonpayable",
      "type": "function"
    },
    {
      "constant": false,
      "inputs": [],
      "name": "soliditySourceLog",
      "outputs": [],
      "payable": false,
      "stateMutability": "nonpayable",
      "type": "function"
    },
    {
      "constant": false,
      "inputs": [
        {
          "name": "status",
          "type": "bool"
        }
      ],
      "name": "setExpiration",
      "outputs": [],
      "payable": false,
      "stateMutability": "nonpayable",
      "type": "function"
    },
    {
      "constant": false,
      "inputs": [
        {
          "name": "thisDay",
          "type": "uint256"
        },
        {
          "name": "start",
          "type": "uint256"
        },
        {
          "name": "end",
          "type": "uint256"
        }
      ],
      "name": "createTimeLog",
      "outputs": [],
      "payable": false,
      "stateMutability": "nonpayable",
      "type": "function"
    },
    {
      "constant": false,
      "inputs": [
        {
          "name": "thisDay",
          "type": "uint256"
        },
        {
          "name": "logIndex",
          "type": "uint256"
        },
        {
          "name": "start",
          "type": "uint256"
        },
        {
          "name": "end",
          "type": "uint256"
        },
        {
          "name": "validity",
          "type": "bool"
        }
      ],
      "name": "correctTimeLog",
      "outputs": [],
      "payable": false,
      "stateMutability": "nonpayable",
      "type": "function"
    },
    {
      "constant": true,
      "inputs": [
        {
          "name": "thisDay",
          "type": "uint256"
        }
      ],
      "name": "getDayTime",
      "outputs": [
        {
          "name": "total",
          "type": "uint256"
        }
      ],
      "payable": false,
      "stateMutability": "view",
      "type": "function"
    },
    {
      "constant": true,
      "inputs": [
        {
          "name": "startDay",
          "type": "uint256"
        },
        {
          "name": "endDay",
          "type": "uint256"
        }
      ],
      "name": "getTotalLoggedTime",
      "outputs": [
        {
          "name": "total",
          "type": "uint256"
        }
      ],
      "payable": false,
      "stateMutability": "view",
      "type": "function"
    },
    {
      "constant": true,
      "inputs": [
        {
          "name": "thisDay",
          "type": "uint256"
        },
        {
          "name": "index",
          "type": "uint256"
        }
      ],
      "name": "getTimeLog",
      "outputs": [
        {
          "name": "start",
          "type": "uint256"
        },
        {
          "name": "end",
          "type": "uint256"
        },
        {
          "name": "source",
          "type": "string"
        },
        {
          "name": "valid",
          "type": "bool"
        },
        {
          "name": "more",
          "type": "bool"
        }
      ],
      "payable": false,
      "stateMutability": "view",
      "type": "function"
    }
  ],
  "bytecode": "0x60806040526000600d553480156200001657600080fd5b506040516200211a3803806200211a833981018060405260608110156200003c57600080fd5b81516020830151604084018051929491938201926401000000008111156200006357600080fd5b820160208101848111156200007757600080fd5b81516401000000008111828201871017156200009257600080fd5b505060408051808201909152600a8082527f74696d656c6f676765720000000000000000000000000000000000000000000060208301908152929550909350620000e192506001919062000137565b50508051620000f890600290602084019062000137565b505060008054600160a060020a0319908116331790915560058054600160a060020a0394851690831617905560068054929093169116179055620001dc565b828054600181600116156101000203166002900490600052602060002090601f016020900481019282601f106200017a57805160ff1916838001178555620001aa565b82800160010185558215620001aa579182015b82811115620001aa5782518255916020019190600101906200018d565b50620001b8929150620001bc565b5090565b620001d991905b80821115620001b85760008155600101620001c3565b90565b611f2e80620001ec6000396000f3fe6080604052600436106101455763ffffffff60e060020a6000350416630b97bc86811461014a5780630fb5a6b4146101715780631217d312146101865780631261243f146101b25780632c22475c1461037e5780632cd52e1b14610408578063395ba050146104325780634c2067c7146104475780635000596b146104705780635ee4a01a146104a157806362a925eb146104b657806374f0314f1461057157806378f7c83f146105865780638291286c1461059b578063846a7963146105b0578063a06bd8d7146105dc578063a8cbc345146106a8578063b344427f146106de578063b644bb3b146106f3578063c24a0f8b14610708578063c3d4c7c21461071d578063c782bbdd14610732578063d83070ab14610747578063ed3baf381461075c578063ef8c7154146107a0578063f638522c146107b5578063f9b53335146107e5575b600080fd5b34801561015657600080fd5b5061015f6107fa565b60408051918252519081900360200190f35b34801561017d57600080fd5b5061015f610800565b34801561019257600080fd5b506101b0600480360360208110156101a957600080fd5b5035610806565b005b3480156101be57600080fd5b506101b0600480360360e08110156101d557600080fd5b810190602081018135602060020a8111156101ef57600080fd5b82018360208201111561020157600080fd5b803590602001918460018302840111602060020a8311171561022257600080fd5b91908080601f0160208091040260200160405190810160405280939291908181526020018383808284376000920191909152509295949360208101935035915050602060020a81111561027457600080fd5b82018360208201111561028657600080fd5b803590602001918460018302840111602060020a831117156102a757600080fd5b91908080601f0160208091040260200160405190810160405280939291908181526020018383808284376000920191909152509295949360208101935035915050602060020a8111156102f957600080fd5b82018360208201111561030b57600080fd5b803590602001918460018302840111602060020a8311171561032c57600080fd5b91908080601f0160208091040260200160405190810160405280939291908181526020018383808284376000920191909152509295505082359350505060208101359060408101359060600135610963565b34801561038a57600080fd5b50610393610a39565b6040805160208082528351818301528351919283929083019185019080838360005b838110156103cd5781810151838201526020016103b5565b50505050905090810190601f1680156103fa5780820380516001836020036101000a031916815260200191505b509250505060405180910390f35b34801561041457600080fd5b5061015f6004803603602081101561042b57600080fd5b5035610a5e565b34801561043e57600080fd5b50610393610a9a565b34801561045357600080fd5b5061045c610b28565b604080519115158252519081900360200190f35b34801561047c57600080fd5b50610485610b31565b60408051600160a060020a039092168252519081900360200190f35b3480156104ad57600080fd5b50610393610b40565b3480156104c257600080fd5b506104e0600480360360208110156104d957600080fd5b5035610b9a565b604051808581526020018481526020018060200183151515158152602001828103825284818151815260200191508051906020019080838360005b8381101561053357818101518382015260200161051b565b50505050905090810190601f1680156105605780820380516001836020036101000a031916815260200191505b509550505050505060405180910390f35b34801561057d57600080fd5b5061015f610c73565b34801561059257600080fd5b50610393610c7a565b3480156105a757600080fd5b50610393610cd5565b3480156105bc57600080fd5b506101b0600480360360208110156105d357600080fd5b50351515610d2d565b3480156105e857600080fd5b5061060c600480360360408110156105ff57600080fd5b5080359060200135610dab565b60405180868152602001858152602001806020018415151515815260200183151515158152602001828103825285818151815260200191508051906020019080838360005b83811015610669578181015183820152602001610651565b50505050905090810190601f1680156106965780820380516001836020036101000a031916815260200191505b50965050505050505060405180910390f35b3480156106b457600080fd5b506101b0600480360360608110156106cb57600080fd5b5080359060208101359060400135610ffa565b3480156106ea57600080fd5b506103936110cf565b3480156106ff57600080fd5b506103936110fa565b34801561071457600080fd5b5061015f61111f565b34801561072957600080fd5b50610393611125565b34801561073e57600080fd5b5061015f611180565b34801561075357600080fd5b50610485611186565b34801561076857600080fd5b506101b0600480360360a081101561077f57600080fd5b50803590602081013590604081013590606081013590608001351515611195565b3480156107ac57600080fd5b506101b061135f565b3480156107c157600080fd5b5061015f600480360360408110156107d857600080fd5b50803590602001356114bb565b3480156107f157600080fd5b5061048561151c565b600a5481565b600c5481565b600560009054906101000a9004600160a060020a0316600160a060020a031663e4128fb36040518163ffffffff1660e060020a02815260040160206040518083038186803b15801561085757600080fd5b505afa15801561086b573d6000803e3d6000fd5b505050506040513d602081101561088157600080fd5b5051600160a060020a031633146108ea576040805160e560020a62461bcd02815260206004820152602e6024820152600080516020611ea38339815191526044820152609160020a6d3936903a3434b99030b1ba34b7b702606482015290519081900360840190fd5b60085460ff1615610933576040805160e560020a62461bcd0281526020600482015260196024820152600080516020611ee3833981519152604482015290519081900360640190fd5b6109608160408051908101604052806008815260200160c260020a67195e1d195c9b985b0281525061152b565b50565b600054600160a060020a031633146109ce576040805160e560020a62461bcd02815260206004820152602f6024820152600080516020611ec38339815191526044820152608960020a6e37b936903a3434b99030b1ba34b7b702606482015290519081900360840190fd5b6008805460ff191690556009839055600a84905584516109f5906007906020880190611dcd565b508551610a09906003906020890190611dcd565b50600b8290558651610a229060049060208a0190611dcd565b50600c819055610a30611585565b50505050505050565b604080518082019091526008815260c260020a67195e1d195c9b985b02602082015281565b6000818152600f602052604081206002015460ff161515610a8157506000610a95565b506000818152600f60205260409020600101545b919050565b6004805460408051602060026001851615610100026000190190941693909304601f81018490048402820184019092528181529291830182828015610b205780601f10610af557610100808354040283529160200191610b20565b820191906000526020600020905b815481529060010190602001808311610b0357829003601f168201915b505050505081565b60085460ff1681565b600554600160a060020a031681565b60018054604080516020600284861615610100026000190190941693909304601f81018490048402820184019092528181529291830182828015610b205780601f10610af557610100808354040283529160200191610b20565b600e805482908110610ba857fe5b9060005260206000209060040201600091509050806000015490806001015490806002018054600181600116156101000203166002900480601f016020809104026020016040519081016040528092919081815260200182805460018160011615610100020316600290048015610c605780601f10610c3557610100808354040283529160200191610c60565b820191906000526020600020905b815481529060010190602001808311610c4357829003601f168201915b5050506003909301549192505060ff1684565b6201518081565b6003805460408051602060026001851615610100026000190190941693909304601f81018490048402820184019092528181529291830182828015610b205780601f10610af557610100808354040283529160200191610b20565b6002805460408051602060018416156101000260001901909316849004601f81018490048402820184019092528181529291830182828015610b205780601f10610af557610100808354040283529160200191610b20565b600054600160a060020a03163314610d98576040805160e560020a62461bcd02815260206004820152602f6024820152600080516020611ec38339815191526044820152608960020a6e37b936903a3434b99030b1ba34b7b702606482015290519081900360840190fd5b6008805460ff1916911515919091179055565b6000828152600f602052604081206002015481906060908290819060ff161580610de357506000878152600f60205260409020548610155b15610e0857505060408051602081019091526000808252935083925090508180610ff0565b6000878152600f602052604081205460001901871015610e26575060015b6000888152600f602052604090208054600e919089908110610e4457fe5b9060005260206000200154815481101515610e5b57fe5b600091825260208083206004909202909101548a8352600f90915260409091208054600e91908a908110610e8b57fe5b9060005260206000200154815481101515610ea257fe5b906000526020600020906004020160010154600e600f60008c81526020019081526020016000206000018a815481101515610ed957fe5b9060005260206000200154815481101515610ef057fe5b9060005260206000209060040201600201600e600f60008d81526020019081526020016000206000018b815481101515610f2657fe5b9060005260206000200154815481101515610f3d57fe5b6000918252602091829020600491909102016003015482546040805160026101006001851615026000190190931692909204601f810185900485028301850190915280825260ff9092169287928591830182828015610fdd5780601f10610fb257610100808354040283529160200191610fdd565b820191906000526020600020905b815481529060010190602001808311610fc057829003601f168201915b5050505050925095509550955095509550505b9295509295909350565b600054600160a060020a03163314611065576040805160e560020a62461bcd02815260206004820152602f6024820152600080516020611ec38339815191526044820152608960020a6e37b936903a3434b99030b1ba34b7b702606482015290519081900360840190fd5b61106e8361166b565b61109c838360408051908101604052806008815260200160c260020a67195e1d195c9b985b028152506116e6565b6110ca838260408051908101604052806008815260200160c260020a67195e1d195c9b985b028152506117f6565b505050565b60408051808201909152600e8152609260020a6d1d1a5b5957db1bd9cb985919195902602082015281565b604080518082019091526008815260c060020a67736f6c696469747902602082015281565b60095481565b6007805460408051602060026001851615610100026000190190941693909304601f81018490048402820184019092528181529291830182828015610b205780601f10610af557610100808354040283529160200191610b20565b600b5481565b600654600160a060020a031681565b600054600160a060020a03163314611200576040805160e560020a62461bcd02815260206004820152602f6024820152600080516020611ec38339815191526044820152608960020a6e37b936903a3434b99030b1ba34b7b702606482015290519081900360840190fd5b82821015611250576040805160e560020a62461bcd0281526020600482015260126024820152607060020a71496e76616c69642074696d65206672616d6502604482015290519081900360640190fd5b6000858152600f6020526040812080548690811061126a57fe5b9060005260206000200154905083600e8281548110151561128757fe5b6000918252602090912060049091020155600e8054849190839081106112a957fe5b90600052602060002090600402016001018190555081600e828154811015156112ce57fe5b906000526020600020906004020160030160006101000a81548160ff02191690831515021790555060408051908101604052806008815260200160c260020a67195e1d195c9b985b02815250600e8281548110151561132957fe5b9060005260206000209060040201600201908051906020019061134d929190611dcd565b5061135786611a38565b505050505050565b600560009054906101000a9004600160a060020a0316600160a060020a031663e4128fb36040518163ffffffff1660e060020a02815260040160206040518083038186803b1580156113b057600080fd5b505afa1580156113c4573d6000803e3d6000fd5b505050506040513d60208110156113da57600080fd5b5051600160a060020a03163314611443576040805160e560020a62461bcd02815260206004820152602e6024820152600080516020611ea38339815191526044820152609160020a6d3936903a3434b99030b1ba34b7b702606482015290519081900360840190fd5b60085460ff161561148c576040805160e560020a62461bcd0281526020600482015260196024820152600080516020611ee3833981519152604482015290519081900360640190fd5b6114b94260408051908101604052806008815260200160c060020a67736f6c69646974790281525061152b565b565b6000818311156114cd57506000611516565b6000835b838111611512576000818152600f602052604090206002015460ff161561150a576000818152600f602052604090206001015491909101905b6001016114d1565b5090505b92915050565b600054600160a060020a031681565b62015180820461153a8161166b565b600d541561157257600d5481111561155c57611557818484611b08565b611567565b6115678184846117f6565b506000600d55611581565b61157d8184846116e6565b600d555b5050565b6006546040805160e060020a63b7fce16b0281523060248201819052600482019283526001805460026000198284161561010002019091160460448401819052600160a060020a039095169463b7fce16b9491938291606490910190859080156116305780601f1061160557610100808354040283529160200191611630565b820191906000526020600020905b81548152906001019060200180831161161357829003601f168201915b50509350505050600060405180830381600087803b15801561165157600080fd5b505af1158015611665573d6000803e3d6000fd5b50505050565b6000818152600f6020526040902054151561096057604080516060818101835280825260006020808401829052600184860152858252600f815293902082518051929491926116bd9284920190611e4b565b50602082015160018201556040909101516002909101805460ff19169115159190911790555050565b6040805160808101825283815260006020808301828152938301858152600160608501819052600e80549182018082559452845160049091027fbb7b4a454dc3493923482f07822329ed19e8244eff582cc204f8554c3620c3fd810191825595517fbb7b4a454dc3493923482f07822329ed19e8244eff582cc204f8554c3620c3fe87015590518051939591936117a6937fbb7b4a454dc3493923482f07822329ed19e8244eff582cc204f8554c3620c3ff909301929190910190611dcd565b50606091909101516003909101805460ff1916911515919091179055506000838152600f602090815260408220600e548154600181018355918452919092206000199091019101556110ca611b4e565b6000838152600f602052604081208054600019810190811061181457fe5b90600052602060002001549050600e8181548110151561183057fe5b6000918252602090912060049091020154831015611890576040805160e560020a62461bcd0281526020600482015260126024820152607060020a71496e76616c69642074696d65206672616d6502604482015290519081900360640190fd5b816040516020018082805190602001908083835b602083106118c35780518252601f1990920191602091820191016118a4565b6001836020036101000a03801982511681845116808217855250505050505090500191505060405160208183030381529060405280519060200120600e8281548110151561190d57fe5b9060005260206000209060040201600201604051602001808280546001816001161561010002031660029004801561197c5780601f1061195a57610100808354040283529182019161197c565b820191906000526020600020905b815481529060010190602001808311611968575b5050915050604051602081830303815290604052805190602001201415156119d45781600e828154811015156119ae57fe5b906000526020600020906004020160020190805190602001906119d2929190611dcd565b505b82600e828154811015156119e457fe5b6000918252602090912060016004909202010155600e805482908110611a0657fe5b60009182526020808320600490920290910154958252600f905260409020600101805494909303939093019091555050565b6000805b6000838152600f6020526040902054811015611af2576000838152600f602052604090208054600e919083908110611a7057fe5b9060005260206000200154815481101515611a8757fe5b60009182526020808320600490920290910154858352600f90915260409091208054600e919084908110611ab757fe5b9060005260206000200154815481101515611ace57fe5b90600052602060002090600402016001015403820191508080600101915050611a3c565b506000918252600f602052604090912060010155565b600d54620151808181020190611b1f9082846117f6565b611b2b84600d54611b91565b620151808402611b3c8582856116e6565b611b478585856117f6565b5050505050565b6114b96040805190810160405280600e8152602001609260020a6d1d1a5b5957db1bd9cb9859191959028152506020604051908101604052806000815250611c1a565b600181015b828110156110ca57611ba78161166b565b604080518082019091526008815260c060020a67736f6c6964697479026020820152620151808281029190820190611be290849084906116e6565b611c10838260408051908101604052806008815260200160c060020a67736f6c6964697479028152506117f6565b5050600101611b96565b60055460405160e060020a634915986302815230600482018181526080602484019081526001805460026000198284161561010002019091160460848601819052600160a060020a0390961695634915986395919389938993919290916044810191606482019160a4019088908015611cd45780601f10611ca957610100808354040283529160200191611cd4565b820191906000526020600020905b815481529060010190602001808311611cb757829003601f168201915b5050848103835286518152865160209182019188019080838360005b83811015611d08578181015183820152602001611cf0565b50505050905090810190601f168015611d355780820380516001836020036101000a031916815260200191505b50848103825285518152855160209182019187019080838360005b83811015611d68578181015183820152602001611d50565b50505050905090810190601f168015611d955780820380516001836020036101000a031916815260200191505b50975050505050505050600060405180830381600087803b158015611db957600080fd5b505af1158015611357573d6000803e3d6000fd5b828054600181600116156101000203166002900490600052602060002090601f016020900481019282601f10611e0e57805160ff1916838001178555611e3b565b82800160010185558215611e3b579182015b82811115611e3b578251825591602001919060010190611e20565b50611e47929150611e85565b5090565b828054828255906000526020600020908101928215611e3b5791602002820182811115611e3b578251825591602001919060010190611e20565b611e9f91905b80821115611e475760008155600101611e8b565b9056fe4f6e6c7920746865206f776e6572206163636f756e742063616e20706572666f4f6e6c79205369676e617475726974206163636f756e742063616e20706572665468697320636f6e747261637420686173206578706972656400000000000000a165627a7a7230582070f9b5f7b7bd93f46a571a576b0a36525f84ab4aaa1a04a6e8c0ca8becb9a24d0029",
  "source": "pragma solidity <0.6.0;\n\n/*\nGas to deploy: 2.168.027\n*/\n\nimport \"./Clause.sol\";\n\n\ncontract TimeLogger is Clause(\"timelogger\") {\n    uint constant public SECONDS_PER_DAY = 86400;\n    string constant public SOLIDITY_SOURCE = \"solidity\";\n    string constant public EXTERNAL_SOURCE = \"external\";\n    string constant public NOTIFICATION_EVENT = \"time_log.added\";\n\n    struct TimeLog {\n        uint timeStart;\n        uint timeEnd;\n        string source;\n        bool valid;\n    }\n\n    struct Day {\n        uint[] timelogs;\n        uint total;\n        bool existence;\n    }\n\n    string public workerId;\n\n    bool public expired;\n\n    uint public endDate;\n    uint public startDate;\n    uint public weeklyHours;\n\n    int public duration;\n\n    uint private lastOpenDay = 0;\n\n    TimeLog[] public timeLog;\n\n    mapping(uint => Day) private day;\n\n    constructor(\n        address userContractAddress,\n        address signatureContractAddress,\n        string memory id\n    )\n        public\n    {\n        contractId = id;\n        signaturit = msg.sender;\n\n        userContract = UserInterface(userContractAddress);\n        signatureContract = SignatureInterface(signatureContractAddress);\n    }\n\n    modifier signaturitOnly() {\n        require(\n            msg.sender == signaturit,\n            \"Only Signaturit account can perform this action\"\n        );\n\n        _;\n    }\n\n    modifier onlyOwner() {\n        require(\n            msg.sender == address(userContract.userAddress()),\n            \"Only the owner account can perform this action\"\n        );\n\n        _;\n    }\n\n    modifier notExpired() {\n        require(\n            expired == false,\n            \"This contract has expired\"\n        );\n\n        _;\n    }\n\n    function init(\n        string memory signature,\n        string memory document,\n        string memory worker,\n        uint start,\n        uint end,\n        uint weekHours,\n        int contractDuration\n    )\n        public\n        signaturitOnly\n    {\n        expired = false;\n\n        endDate = end;\n        startDate = start;\n        workerId = worker;\n        documentId = document;\n        weeklyHours = weekHours;\n        signatureId = signature;\n        duration = contractDuration;\n\n        setClauseOnSignature();\n    }\n\n    //Externals\n\n    function externalSourceLog(\n        uint time\n    )\n        external\n        onlyOwner\n        notExpired\n    {\n        _logTime(time, EXTERNAL_SOURCE);\n    }\n\n    function soliditySourceLog()\n        external\n        onlyOwner\n        notExpired\n    {\n        _logTime(block.timestamp, SOLIDITY_SOURCE);\n    }\n\n    function setExpiration(\n        bool status\n    )\n        external\n        signaturitOnly\n    {\n        expired = status;\n    }\n\n    function createTimeLog(\n        uint thisDay,\n        uint start,\n        uint end\n    ) external signaturitOnly {\n        _setDay(thisDay);\n\n        _createLog(thisDay, start, EXTERNAL_SOURCE);\n\n        _closeLog(thisDay, end, EXTERNAL_SOURCE);\n    }\n\n    function correctTimeLog(\n        uint thisDay,\n        uint logIndex,\n        uint start,\n        uint end,\n        bool validity\n    )\n        external\n        signaturitOnly\n    {\n        require(end >= start, \"Invalid time frame\");\n\n        uint index = day[thisDay].timelogs[logIndex];\n\n        timeLog[index].timeStart = start;\n        timeLog[index].timeEnd = end;\n        timeLog[index].valid = validity;\n        timeLog[index].source = EXTERNAL_SOURCE;\n\n        _recalculateTotal(thisDay);\n    }\n\n    //Getters\n\n    function getDayTime(\n        uint thisDay\n    )\n        external\n        view\n        returns(uint total)\n    {\n        if (!day[thisDay].existence) return 0;\n        return day[thisDay].total;\n    }\n\n    function getTotalLoggedTime(\n        uint startDay,\n        uint endDay\n    )\n        external\n        view\n        returns(uint total)\n    {\n        if (startDay > endDay) return 0;\n\n        uint totalAmount = 0;\n\n        for (uint i = startDay; i <= endDay; i++) {\n            if (day[i].existence) totalAmount += day[i].total;\n        }\n\n        return totalAmount;\n    }\n\n    function getTimeLog(\n        uint thisDay,\n        uint index\n    )\n        external\n        view\n        returns(\n            uint start,\n            uint end,\n            string memory source,\n            bool valid,\n            bool more\n        )\n    {\n        if (\n            !day[thisDay].existence ||\n            day[thisDay].timelogs.length <= index\n        ) {\n            return (0, 0, \"\", false, false);\n        }\n\n        bool thereIsMore = false;\n\n        if (index < day[thisDay].timelogs.length - 1) thereIsMore = true;\n\n        return (\n            timeLog[day[thisDay].timelogs[index]].timeStart,\n            timeLog[day[thisDay].timelogs[index]].timeEnd,\n            timeLog[day[thisDay].timelogs[index]].source,\n            timeLog[day[thisDay].timelogs[index]].valid,\n            thereIsMore\n        );\n    }\n\n    //Internals\n\n    function _logTime(\n        uint time,\n        string memory source\n    )\n        internal\n    {\n        uint today = time / SECONDS_PER_DAY;\n\n        _setDay(today);\n\n        if (lastOpenDay != 0) {\n            if (today > lastOpenDay) {\n                _completePendingDays(today, time, source);\n            } else {\n                _closeLog(today, time, source);\n            }\n\n            lastOpenDay = 0;\n\n            return;\n        }\n\n        _createLog(today, time, source);\n\n        lastOpenDay = today;\n    }\n\n    function _createLog(\n        uint thisDay,\n        uint startTime,\n        string memory source\n    )\n        internal\n    {\n        timeLog.push(TimeLog(startTime, 0, source, true));\n\n        day[thisDay].timelogs.push(timeLog.length - 1);\n\n        _publish();\n    }\n\n    function _closeLog(\n        uint thisDay,\n        uint endTime,\n        string memory source\n    )\n        internal\n    {\n        uint index = day[thisDay].timelogs[day[thisDay].timelogs.length - 1];\n\n        require(endTime >= timeLog[index].timeStart, \"Invalid time frame\");\n\n        //Assumption: if source coming from input doesnt equal the one saved, prefer the last one\n        if (\n            keccak256(abi.encodePacked((timeLog[index].source))) != keccak256(abi.encodePacked((source)))\n        )\n\n            timeLog[index].source = source;\n\n        timeLog[index].timeEnd = endTime;\n\n        day[thisDay].total += endTime - timeLog[index].timeStart;\n    }\n\n    function _completePendingDays(\n        uint today,\n        uint nowInSeconds,\n        string memory source\n    )\n        internal\n    {\n        uint lastMidnight = (lastOpenDay*SECONDS_PER_DAY)+SECONDS_PER_DAY;\n\n        _closeLog(lastOpenDay, lastMidnight, source);\n\n        _completeDaysInTheGap(today, lastOpenDay);\n\n        uint todayMidnight = today*SECONDS_PER_DAY;\n\n        _createLog(today, todayMidnight, source);\n\n        _closeLog(today, nowInSeconds, source);\n    }\n\n    function _completeDaysInTheGap(\n        uint today,\n        uint lastDay\n    )\n        internal\n    {\n        //fulfill the days in the gap with 24h single log\n        for (uint i = lastDay + 1; i < today; i++) {\n            _setDay(i);\n\n            uint startOfTheDay = i*SECONDS_PER_DAY;\n            uint endOfTheDay = startOfTheDay + SECONDS_PER_DAY;\n\n            _createLog(i, startOfTheDay, SOLIDITY_SOURCE);\n\n            _closeLog(i, endOfTheDay, SOLIDITY_SOURCE);\n        }\n    }\n\n    function _recalculateTotal(\n        uint thisDay\n    )\n        internal\n    {\n        uint totalAmount;\n\n        for (uint i = 0; i < day[thisDay].timelogs.length; i++) {\n            totalAmount += (\n                    timeLog[day[thisDay].timelogs[i]].timeEnd - timeLog[day[thisDay].timelogs[i]].timeStart\n            );\n        }\n\n        day[thisDay].total = totalAmount;\n    }\n\n    function _setDay(\n        uint today\n    )\n        internal\n    {\n        if (day[today].timelogs.length == 0) {\n            uint[] memory tmpArray;\n\n            day[today] = Day(tmpArray, 0, true);\n        }\n    }\n\n    function _publish()\n        internal\n    {\n        publishNotification(\n            NOTIFICATION_EVENT,\n            \"\"\n        );\n    }\n}\n",
  "sourcePath": "/Users/alex/workspace/signaturit-solidity-contracts/contracts/TimeLogger.sol",
  "compiler": {
    "name": "solc",
    "version": "0.5.0+commit.1d4f565a.Emscripten.clang"
  },
  "schemaVersion": "3.0.13",
  "updatedAt": "2019-09-02T13:03:09.894Z",
  "devdoc": {
    "methods": {}
  },
  "userdoc": {
    "methods": {}
  }
}