{
  "contractName": "TimeLogger",
  "abi": [
    {
      "constant": true,
      "inputs": [],
      "name": "startDate",
      "outputs": [
        {
          "name": "",
          "type": "uint256"
        }
      ],
      "payable": false,
      "stateMutability": "view",
      "type": "function"
    },
    {
      "constant": true,
      "inputs": [],
      "name": "duration",
      "outputs": [
        {
          "name": "",
          "type": "int256"
        }
      ],
      "payable": false,
      "stateMutability": "view",
      "type": "function"
    },
    {
      "constant": true,
      "inputs": [],
      "name": "EXTERNAL_SOURCE",
      "outputs": [
        {
          "name": "",
          "type": "string"
        }
      ],
      "payable": false,
      "stateMutability": "view",
      "type": "function"
    },
    {
      "constant": true,
      "inputs": [],
      "name": "signatureId",
      "outputs": [
        {
          "name": "",
          "type": "string"
        }
      ],
      "payable": false,
      "stateMutability": "view",
      "type": "function"
    },
    {
      "constant": true,
      "inputs": [],
      "name": "expired",
      "outputs": [
        {
          "name": "",
          "type": "bool"
        }
      ],
      "payable": false,
      "stateMutability": "view",
      "type": "function"
    },
    {
      "constant": true,
      "inputs": [],
      "name": "userContract",
      "outputs": [
        {
          "name": "",
          "type": "address"
        }
      ],
      "payable": false,
      "stateMutability": "view",
      "type": "function"
    },
    {
      "constant": true,
      "inputs": [],
      "name": "clause",
      "outputs": [
        {
          "name": "",
          "type": "string"
        }
      ],
      "payable": false,
      "stateMutability": "view",
      "type": "function"
    },
    {
      "constant": true,
      "inputs": [
        {
          "name": "",
          "type": "uint256"
        }
      ],
      "name": "timeLog",
      "outputs": [
        {
          "name": "timeStart",
          "type": "uint256"
        },
        {
          "name": "timeEnd",
          "type": "uint256"
        },
        {
          "name": "source",
          "type": "string"
        },
        {
          "name": "valid",
          "type": "bool"
        }
      ],
      "payable": false,
      "stateMutability": "view",
      "type": "function"
    },
    {
      "constant": true,
      "inputs": [],
      "name": "SECONDS_PER_DAY",
      "outputs": [
        {
          "name": "",
          "type": "uint256"
        }
      ],
      "payable": false,
      "stateMutability": "view",
      "type": "function"
    },
    {
      "constant": true,
      "inputs": [],
      "name": "documentId",
      "outputs": [
        {
          "name": "",
          "type": "string"
        }
      ],
      "payable": false,
      "stateMutability": "view",
      "type": "function"
    },
    {
      "constant": true,
      "inputs": [],
      "name": "contractId",
      "outputs": [
        {
          "name": "",
          "type": "string"
        }
      ],
      "payable": false,
      "stateMutability": "view",
      "type": "function"
    },
    {
      "constant": true,
      "inputs": [],
      "name": "NOTIFICATION_EVENT",
      "outputs": [
        {
          "name": "",
          "type": "string"
        }
      ],
      "payable": false,
      "stateMutability": "view",
      "type": "function"
    },
    {
      "constant": true,
      "inputs": [],
      "name": "SOLIDITY_SOURCE",
      "outputs": [
        {
          "name": "",
          "type": "string"
        }
      ],
      "payable": false,
      "stateMutability": "view",
      "type": "function"
    },
    {
      "constant": true,
      "inputs": [],
      "name": "endDate",
      "outputs": [
        {
          "name": "",
          "type": "uint256"
        }
      ],
      "payable": false,
      "stateMutability": "view",
      "type": "function"
    },
    {
      "constant": true,
      "inputs": [],
      "name": "weeklyHours",
      "outputs": [
        {
          "name": "",
          "type": "uint256"
        }
      ],
      "payable": false,
      "stateMutability": "view",
      "type": "function"
    },
    {
      "constant": true,
      "inputs": [],
      "name": "signatureContract",
      "outputs": [
        {
          "name": "",
          "type": "address"
        }
      ],
      "payable": false,
      "stateMutability": "view",
      "type": "function"
    },
    {
      "constant": true,
      "inputs": [],
      "name": "signaturit",
      "outputs": [
        {
          "name": "",
          "type": "address"
        }
      ],
      "payable": false,
      "stateMutability": "view",
      "type": "function"
    },
    {
      "inputs": [
        {
          "name": "managerContractAddress",
          "type": "address"
        },
        {
          "name": "ownerContractAddress",
          "type": "address"
        },
        {
          "name": "signatureContractAddress",
          "type": "address"
        },
        {
          "name": "id",
          "type": "string"
        },
        {
          "name": "document",
          "type": "string"
        },
        {
          "name": "start",
          "type": "uint256"
        },
        {
          "name": "end",
          "type": "uint256"
        },
        {
          "name": "weekHours",
          "type": "uint256"
        },
        {
          "name": "contractDuration",
          "type": "int256"
        }
      ],
      "payable": false,
      "stateMutability": "nonpayable",
      "type": "constructor"
    },
    {
      "constant": false,
      "inputs": [
        {
          "name": "time",
          "type": "uint256"
        }
      ],
      "name": "externalSourceLog",
      "outputs": [],
      "payable": false,
      "stateMutability": "nonpayable",
      "type": "function"
    },
    {
      "constant": false,
      "inputs": [],
      "name": "soliditySourceLog",
      "outputs": [],
      "payable": false,
      "stateMutability": "nonpayable",
      "type": "function"
    },
    {
      "constant": false,
      "inputs": [],
      "name": "expireContract",
      "outputs": [],
      "payable": false,
      "stateMutability": "nonpayable",
      "type": "function"
    },
    {
      "constant": false,
      "inputs": [
        {
          "name": "thisDay",
          "type": "uint256"
        },
        {
          "name": "start",
          "type": "uint256"
        },
        {
          "name": "end",
          "type": "uint256"
        }
      ],
      "name": "createTimeLog",
      "outputs": [],
      "payable": false,
      "stateMutability": "nonpayable",
      "type": "function"
    },
    {
      "constant": false,
      "inputs": [
        {
          "name": "thisDay",
          "type": "uint256"
        },
        {
          "name": "logIndex",
          "type": "uint256"
        },
        {
          "name": "start",
          "type": "uint256"
        },
        {
          "name": "end",
          "type": "uint256"
        },
        {
          "name": "validity",
          "type": "bool"
        }
      ],
      "name": "editTimeLog",
      "outputs": [],
      "payable": false,
      "stateMutability": "nonpayable",
      "type": "function"
    },
    {
      "constant": true,
      "inputs": [
        {
          "name": "thisDay",
          "type": "uint256"
        }
      ],
      "name": "getDayTime",
      "outputs": [
        {
          "name": "total",
          "type": "uint256"
        }
      ],
      "payable": false,
      "stateMutability": "view",
      "type": "function"
    },
    {
      "constant": true,
      "inputs": [
        {
          "name": "startDay",
          "type": "uint256"
        },
        {
          "name": "endDay",
          "type": "uint256"
        }
      ],
      "name": "getTotalLoggedTime",
      "outputs": [
        {
          "name": "total",
          "type": "uint256"
        }
      ],
      "payable": false,
      "stateMutability": "view",
      "type": "function"
    },
    {
      "constant": true,
      "inputs": [
        {
          "name": "thisDay",
          "type": "uint256"
        },
        {
          "name": "index",
          "type": "uint256"
        }
      ],
      "name": "getTimeLog",
      "outputs": [
        {
          "name": "start",
          "type": "uint256"
        },
        {
          "name": "end",
          "type": "uint256"
        },
        {
          "name": "source",
          "type": "string"
        },
        {
          "name": "valid",
          "type": "bool"
        },
        {
          "name": "more",
          "type": "bool"
        }
      ],
      "payable": false,
      "stateMutability": "view",
      "type": "function"
    }
  ],
  "bytecode": "0x60806040526000600b553480156200001657600080fd5b5060405162001e4138038062001e4183398101806040526101208110156200003d57600080fd5b81516020830151604084015160608501805193959294919391830192916401000000008111156200006d57600080fd5b820160208101848111156200008157600080fd5b81516401000000008111828201871017156200009c57600080fd5b50509291906020018051640100000000811115620000b957600080fd5b82016020810184811115620000cd57600080fd5b8151640100000000811182820187101715620000e857600080fd5b505060208083015160408085015160608601516080909601518251808401909352600a8084527f74696d656c6f67676572000000000000000000000000000000000000000000009584019586529598509296509493919290916200014f91600191620002fe565b5050855162000166906002906020890190620002fe565b5084516200017c906003906020880190620002fe565b5060098490556008839055600a829055600c8190556007805460058054600160a060020a0319908116600160a060020a038e811691909117909255600160a860020a03199092168b82161790925560068054909116918916919091179055620001ed640100000000620001fc810204565b505050505050505050620003a3565b600654604080517fb7fce16b0000000000000000000000000000000000000000000000000000000081523060248201819052600482019283526001805460026000198284161561010002019091160460448401819052600160a060020a039095169463b7fce16b949193829160649091019085908015620002c15780601f106200029557610100808354040283529160200191620002c1565b820191906000526020600020905b815481529060010190602001808311620002a357829003601f168201915b50509350505050600060405180830381600087803b158015620002e357600080fd5b505af1158015620002f8573d6000803e3d6000fd5b50505050565b828054600181600116156101000203166002900490600052602060002090601f016020900481019282601f106200034157805160ff191683800117855562000371565b8280016001018555821562000371579182015b828111156200037157825182559160200191906001019062000354565b506200037f92915062000383565b5090565b620003a091905b808211156200037f57600081556001016200038a565b90565b611a8e80620003b36000396000f3fe60806040526004361061012f5763ffffffff60e060020a6000350416630b97bc8681146101345780630f73d0b41461015b5780630fb5a6b4146101725780631217d3121461018757806324269a62146101b15780632c22475c146101f55780632cd52e1b1461027f578063395ba050146102a95780634c2067c7146102be5780635000596b146102e75780635ee4a01a1461031857806362a925eb1461032d57806374f0314f146103e857806378f7c83f146103fd5780638291286c14610412578063a06bd8d714610427578063a8cbc345146104f3578063b344427f14610529578063b644bb3b1461053e578063c24a0f8b14610553578063c782bbdd14610568578063d83070ab1461057d578063ef8c715414610592578063f638522c146105a7578063f9b53335146105d7575b600080fd5b34801561014057600080fd5b506101496105ec565b60408051918252519081900360200190f35b34801561016757600080fd5b506101706105f2565b005b34801561017e57600080fd5b506101496106f0565b34801561019357600080fd5b50610170600480360360208110156101aa57600080fd5b50356106f6565b3480156101bd57600080fd5b50610170600480360360a08110156101d457600080fd5b5080359060208101359060408101359060608101359060800135151561085c565b34801561020157600080fd5b5061020a610aa1565b6040805160208082528351818301528351919283929083019185019080838360005b8381101561024457818101518382015260200161022c565b50505050905090810190601f1680156102715780820380516001836020036101000a031916815260200191505b509250505060405180910390f35b34801561028b57600080fd5b50610149600480360360208110156102a257600080fd5b5035610ac6565b3480156102b557600080fd5b5061020a610b02565b3480156102ca57600080fd5b506102d3610b90565b604080519115158252519081900360200190f35b3480156102f357600080fd5b506102fc610ba0565b60408051600160a060020a039092168252519081900360200190f35b34801561032457600080fd5b5061020a610baf565b34801561033957600080fd5b506103576004803603602081101561035057600080fd5b5035610c09565b604051808581526020018481526020018060200183151515158152602001828103825284818151815260200191508051906020019080838360005b838110156103aa578181015183820152602001610392565b50505050905090810190601f1680156103d75780820380516001836020036101000a031916815260200191505b509550505050505060405180910390f35b3480156103f457600080fd5b50610149610ce2565b34801561040957600080fd5b5061020a610ce9565b34801561041e57600080fd5b5061020a610d44565b34801561043357600080fd5b506104576004803603604081101561044a57600080fd5b5080359060200135610d9c565b60405180868152602001858152602001806020018415151515815260200183151515158152602001828103825285818151815260200191508051906020019080838360005b838110156104b457818101518382015260200161049c565b50505050905090810190601f1680156104e15780820380516001836020036101000a031916815260200191505b50965050505050505060405180910390f35b3480156104ff57600080fd5b506101706004803603606081101561051657600080fd5b5080359060208101359060400135610feb565b34801561053557600080fd5b5061020a61113b565b34801561054a57600080fd5b5061020a611166565b34801561055f57600080fd5b5061014961118b565b34801561057457600080fd5b50610149611191565b34801561058957600080fd5b506102fc611197565b34801561059e57600080fd5b506101706111a6565b3480156105b357600080fd5b50610149600480360360408110156105ca57600080fd5b508035906020013561131b565b3480156105e357600080fd5b506102fc61137c565b60095481565b600560009054906101000a9004600160a060020a0316600160a060020a031663e4128fb36040518163ffffffff1660e060020a02815260040160206040518083038186803b15801561064357600080fd5b505afa158015610657573d6000803e3d6000fd5b505050506040513d602081101561066d57600080fd5b5051600160a060020a031633146106d8576040805160e560020a62461bcd0281526020600482015260306024820152600080516020611a438339815191526044820152608160020a6f3337b936903a3434b99030b1ba34b7b702606482015290519081900360840190fd5b6007805460a060020a60ff02191660a060020a179055565b600c5481565b600560009054906101000a9004600160a060020a0316600160a060020a031663e4128fb36040518163ffffffff1660e060020a02815260040160206040518083038186803b15801561074757600080fd5b505afa15801561075b573d6000803e3d6000fd5b505050506040513d602081101561077157600080fd5b5051600160a060020a031633146107dc576040805160e560020a62461bcd0281526020600482015260306024820152600080516020611a438339815191526044820152608160020a6f3337b936903a3434b99030b1ba34b7b702606482015290519081900360840190fd5b60075460a060020a900460ff161561082c576040805160e560020a62461bcd0281526020600482015260196024820152600080516020611a23833981519152604482015290519081900360640190fd5b6108598160408051908101604052806008815260200160c260020a67195e1d195c9b985b0281525061138b565b50565b600560009054906101000a9004600160a060020a0316600160a060020a031663e4128fb36040518163ffffffff1660e060020a02815260040160206040518083038186803b1580156108ad57600080fd5b505afa1580156108c1573d6000803e3d6000fd5b505050506040513d60208110156108d757600080fd5b5051600160a060020a03163314610942576040805160e560020a62461bcd0281526020600482015260306024820152600080516020611a438339815191526044820152608160020a6f3337b936903a3434b99030b1ba34b7b702606482015290519081900360840190fd5b82821015610992576040805160e560020a62461bcd0281526020600482015260126024820152607060020a71496e76616c69642074696d65206672616d6502604482015290519081900360640190fd5b6000858152600e602052604081208054869081106109ac57fe5b9060005260206000200154905083600d828154811015156109c957fe5b6000918252602090912060049091020155600d8054849190839081106109eb57fe5b90600052602060002090600402016001018190555081600d82815481101515610a1057fe5b906000526020600020906004020160030160006101000a81548160ff02191690831515021790555060408051908101604052806008815260200160c260020a67195e1d195c9b985b02815250600d82815481101515610a6b57fe5b90600052602060002090600402016002019080519060200190610a8f92919061194d565b50610a99866113e5565b505050505050565b604080518082019091526008815260c260020a67195e1d195c9b985b02602082015281565b6000818152600e602052604081206002015460ff161515610ae957506000610afd565b506000818152600e60205260409020600101545b919050565b6004805460408051602060026001851615610100026000190190941693909304601f81018490048402820184019092528181529291830182828015610b885780601f10610b5d57610100808354040283529160200191610b88565b820191906000526020600020905b815481529060010190602001808311610b6b57829003601f168201915b505050505081565b60075460a060020a900460ff1681565b600554600160a060020a031681565b60018054604080516020600284861615610100026000190190941693909304601f81018490048402820184019092528181529291830182828015610b885780601f10610b5d57610100808354040283529160200191610b88565b600d805482908110610c1757fe5b9060005260206000209060040201600091509050806000015490806001015490806002018054600181600116156101000203166002900480601f016020809104026020016040519081016040528092919081815260200182805460018160011615610100020316600290048015610ccf5780601f10610ca457610100808354040283529160200191610ccf565b820191906000526020600020905b815481529060010190602001808311610cb257829003601f168201915b5050506003909301549192505060ff1684565b6201518081565b6003805460408051602060026001851615610100026000190190941693909304601f81018490048402820184019092528181529291830182828015610b885780601f10610b5d57610100808354040283529160200191610b88565b6002805460408051602060018416156101000260001901909316849004601f81018490048402820184019092528181529291830182828015610b885780601f10610b5d57610100808354040283529160200191610b88565b6000828152600e602052604081206002015481906060908290819060ff161580610dd457506000878152600e60205260409020548610155b15610df957505060408051602081019091526000808252935083925090508180610fe1565b6000878152600e602052604081205460001901871015610e17575060015b6000888152600e602052604090208054600d919089908110610e3557fe5b9060005260206000200154815481101515610e4c57fe5b600091825260208083206004909202909101548a8352600e90915260409091208054600d91908a908110610e7c57fe5b9060005260206000200154815481101515610e9357fe5b906000526020600020906004020160010154600d600e60008c81526020019081526020016000206000018a815481101515610eca57fe5b9060005260206000200154815481101515610ee157fe5b9060005260206000209060040201600201600d600e60008d81526020019081526020016000206000018b815481101515610f1757fe5b9060005260206000200154815481101515610f2e57fe5b6000918252602091829020600491909102016003015482546040805160026101006001851615026000190190931692909204601f810185900485028301850190915280825260ff9092169287928591830182828015610fce5780601f10610fa357610100808354040283529160200191610fce565b820191906000526020600020905b815481529060010190602001808311610fb157829003601f168201915b5050505050925095509550955095509550505b9295509295909350565b600560009054906101000a9004600160a060020a0316600160a060020a031663e4128fb36040518163ffffffff1660e060020a02815260040160206040518083038186803b15801561103c57600080fd5b505afa158015611050573d6000803e3d6000fd5b505050506040513d602081101561106657600080fd5b5051600160a060020a031633146110d1576040805160e560020a62461bcd0281526020600482015260306024820152600080516020611a438339815191526044820152608160020a6f3337b936903a3434b99030b1ba34b7b702606482015290519081900360840190fd5b6110da836114b5565b611108838360408051908101604052806008815260200160c260020a67195e1d195c9b985b02815250611530565b611136838260408051908101604052806008815260200160c260020a67195e1d195c9b985b0281525061163c565b505050565b60408051808201909152600e8152609260020a6d1d1a5b5957db1bd9cb985919195902602082015281565b604080518082019091526008815260c060020a67736f6c696469747902602082015281565b60085481565b600a5481565b600654600160a060020a031681565b600760009054906101000a9004600160a060020a0316600160a060020a031663e4128fb36040518163ffffffff1660e060020a02815260040160206040518083038186803b1580156111f757600080fd5b505afa15801561120b573d6000803e3d6000fd5b505050506040513d602081101561122157600080fd5b5051600160a060020a0316331461129c576040805160e560020a62461bcd02815260206004820152602e60248201527f4f6e6c7920746865206f776e6572206163636f756e742063616e20706572666f6044820152609160020a6d3936903a3434b99030b1ba34b7b702606482015290519081900360840190fd5b60075460a060020a900460ff16156112ec576040805160e560020a62461bcd0281526020600482015260196024820152600080516020611a23833981519152604482015290519081900360640190fd5b6113194260408051908101604052806008815260200160c060020a67736f6c69646974790281525061138b565b565b60008183111561132d57506000611376565b6000835b838111611372576000818152600e602052604090206002015460ff161561136a576000818152600e602052604090206001015491909101905b600101611331565b5090505b92915050565b600054600160a060020a031681565b62015180820461139a816114b5565b600b54156113d257600b548111156113bc576113b781848461187e565b6113c7565b6113c781848461163c565b506000600b556113e1565b6113dd818484611530565b600b555b5050565b6000805b6000838152600e602052604090205481101561149f576000838152600e602052604090208054600d91908390811061141d57fe5b906000526020600020015481548110151561143457fe5b60009182526020808320600490920290910154858352600e90915260409091208054600d91908490811061146457fe5b906000526020600020015481548110151561147b57fe5b906000526020600020906004020160010154038201915080806001019150506113e9565b506000918252600e602052604090912060010155565b6000818152600e6020526040902054151561085957604080516060818101835280825260006020808401829052600184860152858252600e8152939020825180519294919261150792849201906119cb565b50602082015160018201556040909101516002909101805460ff19169115159190911790555050565b6040805160808101825283815260006020808301828152938301858152600160608501819052600d80549182018082559452845160049091027fd7b6990105719101dabeb77144f2a3385c8033acd3af97e9423a695e81ad1eb5810191825595517fd7b6990105719101dabeb77144f2a3385c8033acd3af97e9423a695e81ad1eb687015590518051939591936115f0937fd7b6990105719101dabeb77144f2a3385c8033acd3af97e9423a695e81ad1eb790930192919091019061194d565b50606091909101516003909101805460ff19169115159190911790555050506000908152600e602090815260408220600d54815460018101835591845291909220600019909101910155565b6000838152600e602052604081208054600019810190811061165a57fe5b90600052602060002001549050600d8181548110151561167657fe5b60009182526020909120600490910201548310156116d6576040805160e560020a62461bcd0281526020600482015260126024820152607060020a71496e76616c69642074696d65206672616d6502604482015290519081900360640190fd5b816040516020018082805190602001908083835b602083106117095780518252601f1990920191602091820191016116ea565b6001836020036101000a03801982511681845116808217855250505050505090500191505060405160208183030381529060405280519060200120600d8281548110151561175357fe5b906000526020600020906004020160020160405160200180828054600181600116156101000203166002900480156117c25780601f106117a05761010080835404028352918201916117c2565b820191906000526020600020905b8154815290600101906020018083116117ae575b50509150506040516020818303038152906040528051906020012014151561181a5781600d828154811015156117f457fe5b9060005260206000209060040201600201908051906020019061181892919061194d565b505b82600d8281548110151561182a57fe5b6000918252602090912060016004909202010155600d80548290811061184c57fe5b60009182526020808320600490920290910154958252600e905260409020600101805494909303939093019091555050565b600b5462015180818102019061189590828461163c565b6118a184600b546118c4565b6201518084026118b2858285611530565b6118bd85858561163c565b5050505050565b600181015b82811015611136576118da816114b5565b604080518082019091526008815260c060020a67736f6c69646974790260208201526201518082810291908201906119159084908490611530565b611943838260408051908101604052806008815260200160c060020a67736f6c69646974790281525061163c565b50506001016118c9565b828054600181600116156101000203166002900490600052602060002090601f016020900481019282601f1061198e57805160ff19168380011785556119bb565b828001600101855582156119bb579182015b828111156119bb5782518255916020019190600101906119a0565b506119c7929150611a05565b5090565b8280548282559060005260206000209081019282156119bb57916020028201828111156119bb5782518255916020019190600101906119a0565b611a1f91905b808211156119c75760008155600101611a0b565b9056fe5468697320636f6e7472616374206861732065787069726564000000000000004f6e6c7920746865206d616e61676572206163636f756e742063616e20706572a165627a7a723058202259564a924fbeb25458e78aa40ef8b3c6ba5f2e703597a1db3e002b1fe189120029",
  "source": "pragma solidity <0.6.0;\n\n/*\nGas to deploy: 2.168.027\n*/\n\nimport \"./Clause.sol\";\n\n\ncontract TimeLogger is Clause(\"timelogger\") {\n    uint constant public SECONDS_PER_DAY = 86400;\n\n    string constant public SOLIDITY_SOURCE = \"solidity\";\n    string constant public EXTERNAL_SOURCE = \"external\";\n    string constant public NOTIFICATION_EVENT = \"time_log.added\";\n\n    struct TimeLog {\n        uint timeStart;\n        uint timeEnd;\n        string source;\n        bool valid;\n    }\n\n    struct Day {\n        uint[] timelogs;\n        uint total;\n        bool existence;\n    }\n    \n\n    UserInterface ownerContract;\n\n    bool public expired;\n\n    uint public endDate;\n    uint public startDate;\n    uint public weeklyHours;\n    uint private lastOpenDay = 0;\n\n    int public duration;\n\n    TimeLog[] public timeLog;\n\n    mapping(uint => Day) private day;\n\n    constructor (\n        address managerContractAddress,\n        address ownerContractAddress,\n        address signatureContractAddress,\n        string memory id,\n        string memory document,\n        uint start,\n        uint end,\n        uint weekHours,\n        int contractDuration\n    )\n        public\n    {\n        contractId = id;\n        documentId = document;\n        \n        startDate = start;\n        endDate = end;\n        weeklyHours = weekHours;\n        duration = contractDuration;\n\n        expired = false;\n        \n        userContract = UserInterface(managerContractAddress);\n        ownerContract = UserInterface(ownerContractAddress);\n        signatureContract = SignatureInterface(signatureContractAddress);\n\n        setClauseOnSignature();\n    }\n    \n    modifier onlyManager() {\n        require(\n            msg.sender == address(userContract.userAddress()),\n            \"Only the manager account can perform this action\"\n        );\n\n        _;\n    }\n\n    modifier onlyOwner() {\n        require(\n            msg.sender == address(ownerContract.userAddress()),\n            \"Only the owner account can perform this action\"\n        );\n\n        _;\n    }\n\n    modifier notExpired() {\n        require(\n            expired == false,\n            \"This contract has expired\"\n        );\n\n        _;\n    }\n\n    //Externals\n    function externalSourceLog(\n        uint time\n    )\n        external\n        onlyManager\n        notExpired\n    {\n        _logTime(time, EXTERNAL_SOURCE);\n    }\n\n    function soliditySourceLog()\n        external\n        onlyOwner\n        notExpired\n    {\n        _logTime(block.timestamp, SOLIDITY_SOURCE);\n    }\n\n    function expireContract()\n        external\n        onlyManager\n    {\n        expired = true;\n    }\n\n    function createTimeLog(\n        uint thisDay,\n        uint start,\n        uint end\n    ) \n        external\n        onlyManager\n    {\n        _setDay(thisDay);\n\n        _createLog(thisDay, start, EXTERNAL_SOURCE);\n\n        _closeLog(thisDay, end, EXTERNAL_SOURCE);\n    }\n\n    function editTimeLog(\n        uint thisDay,\n        uint logIndex,\n        uint start,\n        uint end,\n        bool validity\n    )\n        external\n        onlyManager\n    {\n        require(end >= start, \"Invalid time frame\");\n\n        uint index = day[thisDay].timelogs[logIndex];\n\n        timeLog[index].timeStart = start;\n        timeLog[index].timeEnd = end;\n        timeLog[index].valid = validity;\n        timeLog[index].source = EXTERNAL_SOURCE;\n\n        _recalculateTotal(thisDay);\n    }\n\n    //Getters\n\n    function getDayTime(\n        uint thisDay\n    )\n        external\n        view\n        returns(uint total)\n    {\n        if (!day[thisDay].existence) return 0;\n\n        return day[thisDay].total;\n    }\n\n    function getTotalLoggedTime(\n        uint startDay,\n        uint endDay\n    )\n        external\n        view\n        returns(uint total)\n    {\n        if (startDay > endDay) return 0;\n\n        uint totalAmount = 0;\n\n        for (uint i = startDay; i <= endDay; i++) {\n            if (day[i].existence) totalAmount += day[i].total;\n        }\n\n        return totalAmount;\n    }\n\n    function getTimeLog(\n        uint thisDay,\n        uint index\n    )\n        external\n        view\n        returns(\n            uint start,\n            uint end,\n            string memory source,\n            bool valid,\n            bool more\n        )\n    {\n        if (\n            !day[thisDay].existence ||\n            day[thisDay].timelogs.length <= index\n        ) {\n            return (0, 0, \"\", false, false);\n        }\n\n        bool thereIsMore = false;\n\n        if (index < day[thisDay].timelogs.length - 1) thereIsMore = true;\n\n        return (\n            timeLog[day[thisDay].timelogs[index]].timeStart,\n            timeLog[day[thisDay].timelogs[index]].timeEnd,\n            timeLog[day[thisDay].timelogs[index]].source,\n            timeLog[day[thisDay].timelogs[index]].valid,\n            thereIsMore\n        );\n    }\n\n    //Internals\n\n    function _logTime(\n        uint time,\n        string memory source\n    )\n        internal\n    {\n        uint today = time / SECONDS_PER_DAY;\n\n        _setDay(today);\n\n        if (lastOpenDay != 0) {\n            if (today > lastOpenDay) {\n                _completePendingDays(today, time, source);\n            } else {\n                _closeLog(today, time, source);\n            }\n\n            lastOpenDay = 0;\n\n            return;\n        }\n\n        _createLog(today, time, source);\n\n        lastOpenDay = today;\n    }\n\n    function _createLog(\n        uint thisDay,\n        uint startTime,\n        string memory source\n    )\n        internal\n    {\n        timeLog.push(TimeLog(startTime, 0, source, true));\n\n        day[thisDay].timelogs.push(timeLog.length - 1);\n    }\n\n    function _closeLog(\n        uint thisDay,\n        uint endTime,\n        string memory source\n    )\n        internal\n    {\n        uint index = day[thisDay].timelogs[day[thisDay].timelogs.length - 1];\n\n        require(endTime >= timeLog[index].timeStart, \"Invalid time frame\");\n\n        //Assumption: if source coming from input doesnt equal the one saved, prefer the last one\n        if (\n            keccak256(abi.encodePacked((timeLog[index].source))) != keccak256(abi.encodePacked((source)))\n        )\n\n            timeLog[index].source = source;\n\n        timeLog[index].timeEnd = endTime;\n\n        day[thisDay].total += endTime - timeLog[index].timeStart;\n    }\n\n    function _completePendingDays(\n        uint today,\n        uint nowInSeconds,\n        string memory source\n    )\n        internal\n    {\n        uint lastMidnight = (lastOpenDay*SECONDS_PER_DAY)+SECONDS_PER_DAY;\n\n        _closeLog(lastOpenDay, lastMidnight, source);\n\n        _completeDaysInTheGap(today, lastOpenDay);\n\n        uint todayMidnight = today*SECONDS_PER_DAY;\n\n        _createLog(today, todayMidnight, source);\n\n        _closeLog(today, nowInSeconds, source);\n    }\n\n    function _completeDaysInTheGap(\n        uint today,\n        uint lastDay\n    )\n        internal\n    {\n        //fulfill the days in the gap with 24h single log\n        for (uint i = lastDay + 1; i < today; i++) {\n            _setDay(i);\n\n            uint startOfTheDay = i*SECONDS_PER_DAY;\n            uint endOfTheDay = startOfTheDay + SECONDS_PER_DAY;\n\n            _createLog(i, startOfTheDay, SOLIDITY_SOURCE);\n\n            _closeLog(i, endOfTheDay, SOLIDITY_SOURCE);\n        }\n    }\n\n    function _recalculateTotal(\n        uint thisDay\n    )\n        internal\n    {\n        uint totalAmount;\n\n        for (uint i = 0; i < day[thisDay].timelogs.length; i++) {\n            totalAmount += (\n                    timeLog[day[thisDay].timelogs[i]].timeEnd - timeLog[day[thisDay].timelogs[i]].timeStart\n            );\n        }\n\n        day[thisDay].total = totalAmount;\n    }\n\n    function _setDay(\n        uint today\n    )\n        internal\n    {\n        if (day[today].timelogs.length == 0) {\n            uint[] memory tmpArray;\n\n            day[today] = Day(tmpArray, 0, true);\n        }\n    }\n\n    function _publish()\n        internal\n    {\n        publishNotification(\n            NOTIFICATION_EVENT,\n            \"\"\n        );\n    }\n}\n",
  "sourcePath": "/Users/alex/workspace/signaturit-solidity-contracts/contracts/TimeLogger.sol",
  "compiler": {
    "name": "solc",
    "version": "0.5.0+commit.1d4f565a.Emscripten.clang"
  },
  "schemaVersion": "3.0.13",
  "updatedAt": "2019-09-10T15:15:25.498Z",
  "devdoc": {
    "methods": {}
  },
  "userdoc": {
    "methods": {}
  }
}