{
  "contractName": "TimeLogger",
  "abi": [
    {
      "constant": true,
      "inputs": [],
      "name": "startDate",
      "outputs": [
        {
          "name": "",
          "type": "uint256"
        }
      ],
      "payable": false,
      "stateMutability": "view",
      "type": "function"
    },
    {
      "constant": true,
      "inputs": [],
      "name": "duration",
      "outputs": [
        {
          "name": "",
          "type": "int256"
        }
      ],
      "payable": false,
      "stateMutability": "view",
      "type": "function"
    },
    {
      "constant": true,
      "inputs": [],
      "name": "EXTERNAL_SOURCE",
      "outputs": [
        {
          "name": "",
          "type": "string"
        }
      ],
      "payable": false,
      "stateMutability": "view",
      "type": "function"
    },
    {
      "constant": true,
      "inputs": [],
      "name": "signatureId",
      "outputs": [
        {
          "name": "",
          "type": "string"
        }
      ],
      "payable": false,
      "stateMutability": "view",
      "type": "function"
    },
    {
      "constant": true,
      "inputs": [],
      "name": "CLAUSE_EVENT_TYPE",
      "outputs": [
        {
          "name": "",
          "type": "string"
        }
      ],
      "payable": false,
      "stateMutability": "view",
      "type": "function"
    },
    {
      "constant": true,
      "inputs": [],
      "name": "expired",
      "outputs": [
        {
          "name": "",
          "type": "bool"
        }
      ],
      "payable": false,
      "stateMutability": "view",
      "type": "function"
    },
    {
      "constant": true,
      "inputs": [],
      "name": "userContract",
      "outputs": [
        {
          "name": "",
          "type": "address"
        }
      ],
      "payable": false,
      "stateMutability": "view",
      "type": "function"
    },
    {
      "constant": true,
      "inputs": [
        {
          "name": "",
          "type": "uint256"
        }
      ],
      "name": "timeLog",
      "outputs": [
        {
          "name": "timeStart",
          "type": "uint256"
        },
        {
          "name": "timeEnd",
          "type": "uint256"
        },
        {
          "name": "source",
          "type": "string"
        },
        {
          "name": "valid",
          "type": "bool"
        }
      ],
      "payable": false,
      "stateMutability": "view",
      "type": "function"
    },
    {
      "constant": true,
      "inputs": [],
      "name": "SECONDS_PER_DAY",
      "outputs": [
        {
          "name": "",
          "type": "uint256"
        }
      ],
      "payable": false,
      "stateMutability": "view",
      "type": "function"
    },
    {
      "constant": true,
      "inputs": [],
      "name": "documentId",
      "outputs": [
        {
          "name": "",
          "type": "string"
        }
      ],
      "payable": false,
      "stateMutability": "view",
      "type": "function"
    },
    {
      "constant": true,
      "inputs": [],
      "name": "ownerContract",
      "outputs": [
        {
          "name": "",
          "type": "address"
        }
      ],
      "payable": false,
      "stateMutability": "view",
      "type": "function"
    },
    {
      "constant": true,
      "inputs": [],
      "name": "contractId",
      "outputs": [
        {
          "name": "",
          "type": "string"
        }
      ],
      "payable": false,
      "stateMutability": "view",
      "type": "function"
    },
    {
      "constant": true,
      "inputs": [],
      "name": "SOLIDITY_SOURCE",
      "outputs": [
        {
          "name": "",
          "type": "string"
        }
      ],
      "payable": false,
      "stateMutability": "view",
      "type": "function"
    },
    {
      "constant": true,
      "inputs": [],
      "name": "endDate",
      "outputs": [
        {
          "name": "",
          "type": "uint256"
        }
      ],
      "payable": false,
      "stateMutability": "view",
      "type": "function"
    },
    {
      "constant": true,
      "inputs": [],
      "name": "weeklyHours",
      "outputs": [
        {
          "name": "",
          "type": "uint256"
        }
      ],
      "payable": false,
      "stateMutability": "view",
      "type": "function"
    },
    {
      "constant": true,
      "inputs": [],
      "name": "signatureContract",
      "outputs": [
        {
          "name": "",
          "type": "address"
        }
      ],
      "payable": false,
      "stateMutability": "view",
      "type": "function"
    },
    {
      "constant": true,
      "inputs": [],
      "name": "notifiersKey",
      "outputs": [
        {
          "name": "",
          "type": "string"
        }
      ],
      "payable": false,
      "stateMutability": "view",
      "type": "function"
    },
    {
      "constant": true,
      "inputs": [],
      "name": "lastOpenDay",
      "outputs": [
        {
          "name": "",
          "type": "uint256"
        }
      ],
      "payable": false,
      "stateMutability": "view",
      "type": "function"
    },
    {
      "constant": true,
      "inputs": [],
      "name": "CREATION_EVENT_TYPE",
      "outputs": [
        {
          "name": "",
          "type": "string"
        }
      ],
      "payable": false,
      "stateMutability": "view",
      "type": "function"
    },
    {
      "constant": true,
      "inputs": [],
      "name": "signaturit",
      "outputs": [
        {
          "name": "",
          "type": "address"
        }
      ],
      "payable": false,
      "stateMutability": "view",
      "type": "function"
    },
    {
      "inputs": [
        {
          "name": "managerContractAddress",
          "type": "address"
        },
        {
          "name": "ownerContractAddress",
          "type": "address"
        },
        {
          "name": "signatureContractAddress",
          "type": "address"
        },
        {
          "name": "id",
          "type": "string"
        },
        {
          "name": "document",
          "type": "string"
        },
        {
          "name": "start",
          "type": "uint256"
        },
        {
          "name": "end",
          "type": "uint256"
        },
        {
          "name": "weekHours",
          "type": "uint256"
        },
        {
          "name": "contractDuration",
          "type": "int256"
        }
      ],
      "payable": false,
      "stateMutability": "nonpayable",
      "type": "constructor"
    },
    {
      "constant": false,
      "inputs": [
        {
          "name": "time",
          "type": "uint256"
        }
      ],
      "name": "externalSourceLog",
      "outputs": [],
      "payable": false,
      "stateMutability": "nonpayable",
      "type": "function"
    },
    {
      "constant": false,
      "inputs": [],
      "name": "soliditySourceLog",
      "outputs": [],
      "payable": false,
      "stateMutability": "nonpayable",
      "type": "function"
    },
    {
      "constant": false,
      "inputs": [],
      "name": "expireContract",
      "outputs": [],
      "payable": false,
      "stateMutability": "nonpayable",
      "type": "function"
    },
    {
      "constant": false,
      "inputs": [
        {
          "name": "thisDay",
          "type": "uint256"
        },
        {
          "name": "start",
          "type": "uint256"
        },
        {
          "name": "end",
          "type": "uint256"
        }
      ],
      "name": "createTimeLog",
      "outputs": [],
      "payable": false,
      "stateMutability": "nonpayable",
      "type": "function"
    },
    {
      "constant": false,
      "inputs": [
        {
          "name": "thisDay",
          "type": "uint256"
        },
        {
          "name": "logIndex",
          "type": "uint256"
        },
        {
          "name": "start",
          "type": "uint256"
        },
        {
          "name": "end",
          "type": "uint256"
        },
        {
          "name": "validity",
          "type": "bool"
        }
      ],
      "name": "editTimeLog",
      "outputs": [],
      "payable": false,
      "stateMutability": "nonpayable",
      "type": "function"
    },
    {
      "constant": true,
      "inputs": [
        {
          "name": "thisDay",
          "type": "uint256"
        }
      ],
      "name": "getDayTime",
      "outputs": [
        {
          "name": "total",
          "type": "uint256"
        }
      ],
      "payable": false,
      "stateMutability": "view",
      "type": "function"
    },
    {
      "constant": true,
      "inputs": [
        {
          "name": "startDay",
          "type": "uint256"
        },
        {
          "name": "endDay",
          "type": "uint256"
        }
      ],
      "name": "getTotalLoggedTime",
      "outputs": [
        {
          "name": "total",
          "type": "uint256"
        }
      ],
      "payable": false,
      "stateMutability": "view",
      "type": "function"
    },
    {
      "constant": true,
      "inputs": [
        {
          "name": "thisDay",
          "type": "uint256"
        },
        {
          "name": "index",
          "type": "uint256"
        }
      ],
      "name": "getTimeLog",
      "outputs": [
        {
          "name": "start",
          "type": "uint256"
        },
        {
          "name": "end",
          "type": "uint256"
        },
        {
          "name": "source",
          "type": "string"
        },
        {
          "name": "valid",
          "type": "bool"
        },
        {
          "name": "more",
          "type": "bool"
        }
      ],
      "payable": false,
      "stateMutability": "view",
      "type": "function"
    }
  ],
  "bytecode": "0x60806040526000600b553480156200001657600080fd5b50604051620021ae380380620021ae83398101806040526101208110156200003d57600080fd5b81516020830151604084015160608501805193959294919391830192916401000000008111156200006d57600080fd5b820160208101848111156200008157600080fd5b81516401000000008111828201871017156200009c57600080fd5b50509291906020018051640100000000811115620000b957600080fd5b82016020810184811115620000cd57600080fd5b8151640100000000811182820187101715620000e857600080fd5b505060208083015160408085015160608601516080909601518251808401909352601a8084527f74696d656c6f6765722d636c617573652d6e6f746966696572730000000000009584019586529598509296509493919290916200014f916000916200031f565b50508551620001669060029060208901906200031f565b5084516200017c9060039060208801906200031f565b5060098490556008839055600a829055600c8190556007805460058054600160a060020a0319908116600160a060020a038e811691909117909255600160a860020a03199092168b8216179092556006805490911691891691909117905560408051808201909152601981527f74696d656c6f676765725f636c617573652e63726561746564000000000000006020820152620002229064010000000062000231810204565b505050505050505050620003c4565b600654604080517fe71e6576000000000000000000000000000000000000000000000000000000008152306024820181905260048201928352845160448301528451600160a060020a039094169363e71e65769386939091829160640190602086019080838360005b83811015620002b45781810151838201526020016200029a565b50505050905090810190601f168015620002e25780820380516001836020036101000a031916815260200191505b509350505050600060405180830381600087803b1580156200030357600080fd5b505af115801562000318573d6000803e3d6000fd5b5050505050565b828054600181600116156101000203166002900490600052602060002090601f016020900481019282601f106200036257805160ff191683800117855562000392565b8280016001018555821562000392579182015b828111156200039257825182559160200191906001019062000375565b50620003a0929150620003a4565b5090565b620003c191905b80821115620003a05760008155600101620003ab565b90565b611dda80620003d46000396000f3fe6080604052600436106101505763ffffffff60e060020a6000350416630b97bc8681146101555780630f73d0b41461017c5780630fb5a6b4146101935780631217d312146101a857806324269a62146101d25780632c22475c146102165780632cd52e1b146102a0578063395ba050146102ca5780634396fd12146102df5780634c2067c7146102f45780635000596b1461031d57806362a925eb1461034e57806374f0314f1461040957806378f7c83f1461041e5780637f74ac15146104335780638291286c14610448578063a06bd8d71461045d578063a8cbc34514610529578063b644bb3b1461055f578063c24a0f8b14610574578063c782bbdd14610589578063d83070ab1461059e578063d9026ed1146105b3578063dd0340c4146105c8578063dea84444146105dd578063ef8c7154146105f2578063f638522c14610607578063f9b5333514610637575b600080fd5b34801561016157600080fd5b5061016a61064c565b60408051918252519081900360200190f35b34801561018857600080fd5b50610191610652565b005b34801561019f57600080fd5b5061016a610750565b3480156101b457600080fd5b50610191600480360360208110156101cb57600080fd5b5035610756565b3480156101de57600080fd5b50610191600480360360a08110156101f557600080fd5b508035906020810135906040810135906060810135906080013515156108bc565b34801561022257600080fd5b5061022b610b01565b6040805160208082528351818301528351919283929083019185019080838360005b8381101561026557818101518382015260200161024d565b50505050905090810190601f1680156102925780820380516001836020036101000a031916815260200191505b509250505060405180910390f35b3480156102ac57600080fd5b5061016a600480360360208110156102c357600080fd5b5035610b26565b3480156102d657600080fd5b5061022b610b62565b3480156102eb57600080fd5b5061022b610bf0565b34801561030057600080fd5b50610309610c1a565b604080519115158252519081900360200190f35b34801561032957600080fd5b50610332610c2a565b60408051600160a060020a039092168252519081900360200190f35b34801561035a57600080fd5b506103786004803603602081101561037157600080fd5b5035610c39565b604051808581526020018481526020018060200183151515158152602001828103825284818151815260200191508051906020019080838360005b838110156103cb5781810151838201526020016103b3565b50505050905090810190601f1680156103f85780820380516001836020036101000a031916815260200191505b509550505050505060405180910390f35b34801561041557600080fd5b5061016a610d12565b34801561042a57600080fd5b5061022b610d19565b34801561043f57600080fd5b50610332610d74565b34801561045457600080fd5b5061022b610d83565b34801561046957600080fd5b5061048d6004803603604081101561048057600080fd5b5080359060200135610ddb565b60405180868152602001858152602001806020018415151515815260200183151515158152602001828103825285818151815260200191508051906020019080838360005b838110156104ea5781810151838201526020016104d2565b50505050905090810190601f1680156105175780820380516001836020036101000a031916815260200191505b50965050505050505060405180910390f35b34801561053557600080fd5b506101916004803603606081101561054c57600080fd5b508035906020810135906040013561102a565b34801561056b57600080fd5b5061022b61117a565b34801561058057600080fd5b5061016a61119f565b34801561059557600080fd5b5061016a6111a5565b3480156105aa57600080fd5b506103326111ab565b3480156105bf57600080fd5b5061022b6111ba565b3480156105d457600080fd5b5061016a611215565b3480156105e957600080fd5b5061022b61121b565b3480156105fe57600080fd5b50610191611252565b34801561061357600080fd5b5061016a6004803603604081101561062a57600080fd5b50803590602001356113c7565b34801561064357600080fd5b50610332611428565b60095481565b600560009054906101000a9004600160a060020a0316600160a060020a0316638f84aa096040518163ffffffff1660e060020a02815260040160206040518083038186803b1580156106a357600080fd5b505afa1580156106b7573d6000803e3d6000fd5b505050506040513d60208110156106cd57600080fd5b5051600160a060020a03163314610738576040805160e560020a62461bcd0281526020600482015260306024820152600080516020611d8f8339815191526044820152608160020a6f3337b936903a3434b99030b1ba34b7b702606482015290519081900360840190fd5b6007805460a060020a60ff02191660a060020a179055565b600c5481565b600560009054906101000a9004600160a060020a0316600160a060020a0316638f84aa096040518163ffffffff1660e060020a02815260040160206040518083038186803b1580156107a757600080fd5b505afa1580156107bb573d6000803e3d6000fd5b505050506040513d60208110156107d157600080fd5b5051600160a060020a0316331461083c576040805160e560020a62461bcd0281526020600482015260306024820152600080516020611d8f8339815191526044820152608160020a6f3337b936903a3434b99030b1ba34b7b702606482015290519081900360840190fd5b60075460a060020a900460ff161561088c576040805160e560020a62461bcd0281526020600482015260196024820152600080516020611d6f833981519152604482015290519081900360640190fd5b6108b98160408051908101604052806008815260200160c260020a67195e1d195c9b985b02815250611437565b50565b600560009054906101000a9004600160a060020a0316600160a060020a0316638f84aa096040518163ffffffff1660e060020a02815260040160206040518083038186803b15801561090d57600080fd5b505afa158015610921573d6000803e3d6000fd5b505050506040513d602081101561093757600080fd5b5051600160a060020a031633146109a2576040805160e560020a62461bcd0281526020600482015260306024820152600080516020611d8f8339815191526044820152608160020a6f3337b936903a3434b99030b1ba34b7b702606482015290519081900360840190fd5b828210156109f2576040805160e560020a62461bcd0281526020600482015260126024820152607060020a71496e76616c69642074696d65206672616d6502604482015290519081900360640190fd5b6000858152600e60205260408120805486908110610a0c57fe5b9060005260206000200154905083600d82815481101515610a2957fe5b6000918252602090912060049091020155600d805484919083908110610a4b57fe5b90600052602060002090600402016001018190555081600d82815481101515610a7057fe5b906000526020600020906004020160030160006101000a81548160ff02191690831515021790555060408051908101604052806008815260200160c260020a67195e1d195c9b985b02815250600d82815481101515610acb57fe5b90600052602060002090600402016002019080519060200190610aef929190611c99565b50610af9866114c2565b505050505050565b604080518082019091526008815260c260020a67195e1d195c9b985b02602082015281565b6000818152600e602052604081206002015460ff161515610b4957506000610b5d565b506000818152600e60205260409020600101545b919050565b6004805460408051602060026001851615610100026000190190941693909304601f81018490048402820184019092528181529291830182828015610be85780601f10610bbd57610100808354040283529160200191610be8565b820191906000526020600020905b815481529060010190602001808311610bcb57829003601f168201915b505050505081565b60408051808201909152600d8152609a60020a6c1d1a5b595b1bd9cb985919195902602082015281565b60075460a060020a900460ff1681565b600554600160a060020a031681565b600d805482908110610c4757fe5b9060005260206000209060040201600091509050806000015490806001015490806002018054600181600116156101000203166002900480601f016020809104026020016040519081016040528092919081815260200182805460018160011615610100020316600290048015610cff5780601f10610cd457610100808354040283529160200191610cff565b820191906000526020600020905b815481529060010190602001808311610ce257829003601f168201915b5050506003909301549192505060ff1684565b6201518081565b6003805460408051602060026001851615610100026000190190941693909304601f81018490048402820184019092528181529291830182828015610be85780601f10610bbd57610100808354040283529160200191610be8565b600754600160a060020a031681565b6002805460408051602060018416156101000260001901909316849004601f81018490048402820184019092528181529291830182828015610be85780601f10610bbd57610100808354040283529160200191610be8565b6000828152600e602052604081206002015481906060908290819060ff161580610e1357506000878152600e60205260409020548610155b15610e3857505060408051602081019091526000808252935083925090508180611020565b6000878152600e602052604081205460001901871015610e56575060015b6000888152600e602052604090208054600d919089908110610e7457fe5b9060005260206000200154815481101515610e8b57fe5b600091825260208083206004909202909101548a8352600e90915260409091208054600d91908a908110610ebb57fe5b9060005260206000200154815481101515610ed257fe5b906000526020600020906004020160010154600d600e60008c81526020019081526020016000206000018a815481101515610f0957fe5b9060005260206000200154815481101515610f2057fe5b9060005260206000209060040201600201600d600e60008d81526020019081526020016000206000018b815481101515610f5657fe5b9060005260206000200154815481101515610f6d57fe5b6000918252602091829020600491909102016003015482546040805160026101006001851615026000190190931692909204601f810185900485028301850190915280825260ff909216928792859183018282801561100d5780601f10610fe25761010080835404028352916020019161100d565b820191906000526020600020905b815481529060010190602001808311610ff057829003601f168201915b5050505050925095509550955095509550505b9295509295909350565b600560009054906101000a9004600160a060020a0316600160a060020a0316638f84aa096040518163ffffffff1660e060020a02815260040160206040518083038186803b15801561107b57600080fd5b505afa15801561108f573d6000803e3d6000fd5b505050506040513d60208110156110a557600080fd5b5051600160a060020a03163314611110576040805160e560020a62461bcd0281526020600482015260306024820152600080516020611d8f8339815191526044820152608160020a6f3337b936903a3434b99030b1ba34b7b702606482015290519081900360840190fd5b61111983611592565b611147838360408051908101604052806008815260200160c260020a67195e1d195c9b985b0281525061160d565b611175838260408051908101604052806008815260200160c260020a67195e1d195c9b985b02815250611719565b505050565b604080518082019091526008815260c060020a67736f6c696469747902602082015281565b60085481565b600a5481565b600654600160a060020a031681565b6000805460408051602060026001851615610100026000190190941693909304601f81018490048402820184019092528181529291830182828015610be85780601f10610bbd57610100808354040283529160200191610be8565b600b5481565b60408051808201909152601981527f74696d656c6f676765725f636c617573652e6372656174656400000000000000602082015281565b600760009054906101000a9004600160a060020a0316600160a060020a0316638f84aa096040518163ffffffff1660e060020a02815260040160206040518083038186803b1580156112a357600080fd5b505afa1580156112b7573d6000803e3d6000fd5b505050506040513d60208110156112cd57600080fd5b5051600160a060020a03163314611348576040805160e560020a62461bcd02815260206004820152602e60248201527f4f6e6c7920746865206f776e6572206163636f756e742063616e20706572666f6044820152609160020a6d3936903a3434b99030b1ba34b7b702606482015290519081900360840190fd5b60075460a060020a900460ff1615611398576040805160e560020a62461bcd0281526020600482015260196024820152600080516020611d6f833981519152604482015290519081900360640190fd5b6113c54260408051908101604052806008815260200160c060020a67736f6c696469747902815250611437565b565b6000818311156113d957506000611422565b6000835b83811161141e576000818152600e602052604090206002015460ff1615611416576000818152600e602052604090206001015491909101905b6001016113dd565b5090505b92915050565b600154600160a060020a031681565b62015180820461144681611592565b600b541561147e57600b548111156114685761146381848461195b565b611473565b611473818484611719565b506000600b556114be565b61148981848461160d565b600b81905560408051808201909152600d8152609a60020a6c1d1a5b595b1bd9cb9859191959026020820152611175906119a1565b5050565b6000805b6000838152600e602052604090205481101561157c576000838152600e602052604090208054600d9190839081106114fa57fe5b906000526020600020015481548110151561151157fe5b60009182526020808320600490920290910154858352600e90915260409091208054600d91908490811061154157fe5b906000526020600020015481548110151561155857fe5b906000526020600020906004020160010154038201915080806001019150506114c6565b506000918252600e602052604090912060010155565b6000818152600e602052604090205415156108b957604080516060818101835280825260006020808401829052600184860152858252600e815293902082518051929491926115e49284920190611d17565b50602082015160018201556040909101516002909101805460ff19169115159190911790555050565b6040805160808101825283815260006020808301828152938301858152600160608501819052600d80549182018082559452845160049091027fd7b6990105719101dabeb77144f2a3385c8033acd3af97e9423a695e81ad1eb5810191825595517fd7b6990105719101dabeb77144f2a3385c8033acd3af97e9423a695e81ad1eb687015590518051939591936116cd937fd7b6990105719101dabeb77144f2a3385c8033acd3af97e9423a695e81ad1eb7909301929190910190611c99565b50606091909101516003909101805460ff19169115159190911790555050506000908152600e602090815260408220600d54815460018101835591845291909220600019909101910155565b6000838152600e602052604081208054600019810190811061173757fe5b90600052602060002001549050600d8181548110151561175357fe5b60009182526020909120600490910201548310156117b3576040805160e560020a62461bcd0281526020600482015260126024820152607060020a71496e76616c69642074696d65206672616d6502604482015290519081900360640190fd5b816040516020018082805190602001908083835b602083106117e65780518252601f1990920191602091820191016117c7565b6001836020036101000a03801982511681845116808217855250505050505090500191505060405160208183030381529060405280519060200120600d8281548110151561183057fe5b9060005260206000209060040201600201604051602001808280546001816001161561010002031660029004801561189f5780601f1061187d57610100808354040283529182019161189f565b820191906000526020600020905b81548152906001019060200180831161188b575b5050915050604051602081830303815290604052805190602001201415156118f75781600d828154811015156118d157fe5b906000526020600020906004020160020190805190602001906118f5929190611c99565b505b82600d8281548110151561190757fe5b6000918252602090912060016004909202010155600d80548290811061192957fe5b60009182526020808320600490920290910154958252600e905260409020600101805494909303939093019091555050565b600b54620151808181020190611972908284611719565b61197e84600b54611c10565b62015180840261198f85828561160d565b61199a858585611719565b5050505050565b6000805b6005546040805160e260020a633ce8989d0281526024810184905260048101918252600080546002600019600183161561010002019091160460448301819052600160a060020a039094169363f3a2627493919286929182916064019085908015611a515780601f10611a2657610100808354040283529160200191611a51565b820191906000526020600020905b815481529060010190602001808311611a3457829003601f168201915b5050935050505060206040518083038186803b158015611a7057600080fd5b505afa158015611a84573d6000803e3d6000fd5b505050506040513d6020811015611a9a57600080fd5b50519150600101600160a060020a03821615611bfb5760408051306044820181905260248201928352855160648301528551600160a060020a0386169387939091829160840190602086019080838360005b83811015611b04578181015183820152602001611aec565b50505050905090810190601f168015611b315780820380516001836020036101000a031916815260200191505b5060408051601f19818403018152918152602082018051600160e060020a031660e160020a63738f32bb0217815290518251929650945084935091508083835b60208310611b905780518252601f199092019160209182019101611b71565b6001836020036101000a0380198251168184511680821785525050505050509050019150506000604051808303816000865af19150503d8060008114611bf2576040519150601f19603f3d011682016040523d82523d6000602084013e611bf7565b606091505b5050505b600160a060020a03821615156119a557505050565b600181015b8281101561117557611c2681611592565b604080518082019091526008815260c060020a67736f6c6964697479026020820152620151808281029190820190611c61908490849061160d565b611c8f838260408051908101604052806008815260200160c060020a67736f6c696469747902815250611719565b5050600101611c15565b828054600181600116156101000203166002900490600052602060002090601f016020900481019282601f10611cda57805160ff1916838001178555611d07565b82800160010185558215611d07579182015b82811115611d07578251825591602001919060010190611cec565b50611d13929150611d51565b5090565b828054828255906000526020600020908101928215611d075791602002820182811115611d07578251825591602001919060010190611cec565b611d6b91905b80821115611d135760008155600101611d57565b9056fe5468697320636f6e7472616374206861732065787069726564000000000000004f6e6c7920746865206d616e61676572206163636f756e742063616e20706572a165627a7a72305820c877c4a3e964f6bcc7ad405dfdb46f332c57e826da90a75a9b624a443bbc644d0029",
  "source": "pragma solidity <0.6.0;\n\n/*\nGas to deploy: 2.168.027\n*/\n\nimport \"./Clause.sol\";\n\n\ncontract TimeLogger is Clause(\n    \"timeloger-clause-notifiers\"\n)\n{\n    uint constant public SECONDS_PER_DAY = 86400;\n\n    string constant public SOLIDITY_SOURCE = \"solidity\";\n    string constant public EXTERNAL_SOURCE = \"external\";\n\n    string constant public CLAUSE_EVENT_TYPE = \"timelog.added\";\n    string constant public CREATION_EVENT_TYPE = \"timelogger_clause.created\";\n\n\n    struct TimeLog {\n        uint timeStart;\n        uint timeEnd;\n        string source;\n        bool valid;\n    }\n\n    struct Day {\n        uint[] timelogs;\n        uint total;\n        bool existence;\n    }\n\n    SignaturitUserInterface public ownerContract;\n\n    bool public expired;\n\n    uint public endDate;\n    uint public startDate;\n    uint public weeklyHours;\n    uint public lastOpenDay = 0;\n\n    int public duration;\n\n    TimeLog[] public timeLog;\n\n    mapping(uint => Day) private day;\n\n    constructor (\n        address managerContractAddress,\n        address ownerContractAddress,\n        address signatureContractAddress,\n        string memory id,\n        string memory document,\n        uint start,\n        uint end,\n        uint weekHours,\n        int contractDuration\n    )\n        public\n    {\n        contractId = id;\n        documentId = document;\n\n        startDate = start;\n        endDate = end;\n        weeklyHours = weekHours;\n        duration = contractDuration;\n\n        expired = false;\n\n        userContract = SignaturitUserInterface(managerContractAddress);\n        ownerContract = SignaturitUserInterface(ownerContractAddress);\n        signatureContract = NotifierInterface(signatureContractAddress);\n\n        _notifySignature(CREATION_EVENT_TYPE);\n    }\n\n    modifier onlyManager() {\n        require(\n            msg.sender == address(userContract.ownerAddress()),\n            \"Only the manager account can perform this action\"\n        );\n\n        _;\n    }\n\n    modifier onlyOwner() {\n        require(\n            msg.sender == address(ownerContract.ownerAddress()),\n            \"Only the owner account can perform this action\"\n        );\n\n        _;\n    }\n\n    modifier notExpired() {\n        require(\n            expired == false,\n            \"This contract has expired\"\n        );\n\n        _;\n    }\n\n    //Externals\n    function externalSourceLog(\n        uint time\n    )\n        external\n        onlyManager\n        notExpired\n    {\n        _logTime(time, EXTERNAL_SOURCE);\n    }\n\n    function soliditySourceLog()\n        external\n        onlyOwner\n        notExpired\n    {\n        _logTime(block.timestamp, SOLIDITY_SOURCE);\n    }\n\n    function expireContract()\n        external\n        onlyManager\n    {\n        expired = true;\n    }\n\n    function createTimeLog(\n        uint thisDay,\n        uint start,\n        uint end\n    )\n        external\n        onlyManager\n    {\n        _setDay(thisDay);\n\n        _createLog(thisDay, start, EXTERNAL_SOURCE);\n\n        _closeLog(thisDay, end, EXTERNAL_SOURCE);\n    }\n\n    function editTimeLog(\n        uint thisDay,\n        uint logIndex,\n        uint start,\n        uint end,\n        bool validity\n    )\n        external\n        onlyManager\n    {\n        require(end >= start, \"Invalid time frame\");\n\n        uint index = day[thisDay].timelogs[logIndex];\n\n        timeLog[index].timeStart = start;\n        timeLog[index].timeEnd = end;\n        timeLog[index].valid = validity;\n        timeLog[index].source = EXTERNAL_SOURCE;\n\n        _recalculateTotal(thisDay);\n    }\n\n    //Getters\n\n    function getDayTime(\n        uint thisDay\n    )\n        external\n        view\n        returns(uint total)\n    {\n        if (!day[thisDay].existence) return 0;\n\n        return day[thisDay].total;\n    }\n\n    function getTotalLoggedTime(\n        uint startDay,\n        uint endDay\n    )\n        external\n        view\n        returns(uint total)\n    {\n        if (startDay > endDay) return 0;\n\n        uint totalAmount = 0;\n\n        for (uint i = startDay; i <= endDay; i++) {\n            if (day[i].existence) totalAmount += day[i].total;\n        }\n\n        return totalAmount;\n    }\n\n    function getTimeLog(\n        uint thisDay,\n        uint index\n    )\n        external\n        view\n        returns(\n            uint start,\n            uint end,\n            string memory source,\n            bool valid,\n            bool more\n        )\n    {\n        if (\n            !day[thisDay].existence ||\n            day[thisDay].timelogs.length <= index\n        ) {\n            return (0, 0, \"\", false, false);\n        }\n\n        bool thereIsMore = false;\n\n        if (index < day[thisDay].timelogs.length - 1) thereIsMore = true;\n\n        return (\n            timeLog[day[thisDay].timelogs[index]].timeStart,\n            timeLog[day[thisDay].timelogs[index]].timeEnd,\n            timeLog[day[thisDay].timelogs[index]].source,\n            timeLog[day[thisDay].timelogs[index]].valid,\n            thereIsMore\n        );\n    }\n\n    //Internals\n\n    function _logTime(\n        uint time,\n        string memory source\n    )\n        internal\n    {\n        uint today = time / SECONDS_PER_DAY;\n\n        _setDay(today);\n\n        if (lastOpenDay != 0) {\n            if (today > lastOpenDay) {\n                _completePendingDays(today, time, source);\n            } else {\n                _closeLog(today, time, source);\n            }\n\n            lastOpenDay = 0;\n\n            return;\n        }\n\n        _createLog(today, time, source);\n\n        lastOpenDay = today;\n\n        _notify(CLAUSE_EVENT_TYPE);\n    }\n\n    function _createLog(\n        uint thisDay,\n        uint startTime,\n        string memory source\n    )\n        internal\n    {\n        timeLog.push(TimeLog(startTime, 0, source, true));\n\n        day[thisDay].timelogs.push(timeLog.length - 1);\n    }\n\n    function _closeLog(\n        uint thisDay,\n        uint endTime,\n        string memory source\n    )\n        internal\n    {\n        uint index = day[thisDay].timelogs[day[thisDay].timelogs.length - 1];\n\n        require(endTime >= timeLog[index].timeStart, \"Invalid time frame\");\n\n        //Assumption: if source coming from input doesnt equal the one saved, prefer the last one\n        if (\n            keccak256(abi.encodePacked((timeLog[index].source))) != keccak256(abi.encodePacked((source)))\n        )\n\n            timeLog[index].source = source;\n\n        timeLog[index].timeEnd = endTime;\n\n        day[thisDay].total += endTime - timeLog[index].timeStart;\n    }\n\n    function _completePendingDays(\n        uint today,\n        uint nowInSeconds,\n        string memory source\n    )\n        internal\n    {\n        uint lastMidnight = (lastOpenDay*SECONDS_PER_DAY)+SECONDS_PER_DAY;\n\n        _closeLog(lastOpenDay, lastMidnight, source);\n\n        _completeDaysInTheGap(today, lastOpenDay);\n\n        uint todayMidnight = today*SECONDS_PER_DAY;\n\n        _createLog(today, todayMidnight, source);\n\n        _closeLog(today, nowInSeconds, source);\n    }\n\n    function _completeDaysInTheGap(\n        uint today,\n        uint lastDay\n    )\n        internal\n    {\n        //fulfill the days in the gap with 24h single log\n        for (uint i = lastDay + 1; i < today; i++) {\n            _setDay(i);\n\n            uint startOfTheDay = i*SECONDS_PER_DAY;\n            uint endOfTheDay = startOfTheDay + SECONDS_PER_DAY;\n\n            _createLog(i, startOfTheDay, SOLIDITY_SOURCE);\n\n            _closeLog(i, endOfTheDay, SOLIDITY_SOURCE);\n        }\n    }\n\n    function _recalculateTotal(\n        uint thisDay\n    )\n        internal\n    {\n        uint totalAmount;\n\n        for (uint i = 0; i < day[thisDay].timelogs.length; i++) {\n            totalAmount += (\n                    timeLog[day[thisDay].timelogs[i]].timeEnd - timeLog[day[thisDay].timelogs[i]].timeStart\n            );\n        }\n\n        day[thisDay].total = totalAmount;\n    }\n\n    function _setDay(\n        uint today\n    )\n        internal\n    {\n        if (day[today].timelogs.length == 0) {\n            uint[] memory tmpArray;\n\n            day[today] = Day(tmpArray, 0, true);\n        }\n    }\n}\n",
  "sourcePath": "/home/administrator/workspace/signaturit-solidity-contracts/contracts/TimeLogger.sol",
  "compiler": {
    "name": "solc",
    "version": "0.5.0+commit.1d4f565a.Emscripten.clang"
  },
  "schemaVersion": "3.0.11",
  "updatedAt": "2019-10-08T15:18:42.729Z",
  "devdoc": {
    "methods": {}
  },
  "userdoc": {
    "methods": {}
  }
}