{
  "contractName": "UserAuthority",
  "abi": [
    {
      "constant": true,
      "inputs": [],
      "name": "rootAddress",
      "outputs": [
        {
          "name": "",
          "type": "address"
        }
      ],
      "payable": false,
      "stateMutability": "view",
      "type": "function"
    },
    {
      "inputs": [],
      "payable": false,
      "stateMutability": "nonpayable",
      "type": "constructor"
    },
    {
      "constant": false,
      "inputs": [
        {
          "name": "adminAdr",
          "type": "address"
        }
      ],
      "name": "createAdmin",
      "outputs": [],
      "payable": false,
      "stateMutability": "nonpayable",
      "type": "function"
    },
    {
      "constant": false,
      "inputs": [
        {
          "name": "userAdr",
          "type": "address"
        }
      ],
      "name": "createUser",
      "outputs": [],
      "payable": false,
      "stateMutability": "nonpayable",
      "type": "function"
    },
    {
      "constant": false,
      "inputs": [
        {
          "name": "userAdr",
          "type": "address"
        },
        {
          "name": "contractAddress",
          "type": "address"
        }
      ],
      "name": "setUserContract",
      "outputs": [],
      "payable": false,
      "stateMutability": "nonpayable",
      "type": "function"
    },
    {
      "constant": false,
      "inputs": [
        {
          "name": "userAdr",
          "type": "address"
        },
        {
          "name": "role",
          "type": "uint256"
        }
      ],
      "name": "setRole",
      "outputs": [],
      "payable": false,
      "stateMutability": "nonpayable",
      "type": "function"
    },
    {
      "constant": false,
      "inputs": [
        {
          "name": "userAdr",
          "type": "address"
        },
        {
          "name": "reputation",
          "type": "uint256"
        }
      ],
      "name": "setReputation",
      "outputs": [],
      "payable": false,
      "stateMutability": "nonpayable",
      "type": "function"
    },
    {
      "constant": false,
      "inputs": [
        {
          "name": "userAdr",
          "type": "address"
        },
        {
          "name": "validity",
          "type": "bool"
        }
      ],
      "name": "setValidity",
      "outputs": [],
      "payable": false,
      "stateMutability": "nonpayable",
      "type": "function"
    },
    {
      "constant": true,
      "inputs": [
        {
          "name": "userAdr",
          "type": "address"
        }
      ],
      "name": "getUser",
      "outputs": [
        {
          "name": "contractAddress",
          "type": "address"
        },
        {
          "name": "role",
          "type": "uint256"
        },
        {
          "name": "reputation",
          "type": "uint256"
        },
        {
          "name": "validity",
          "type": "bool"
        },
        {
          "name": "managedUsers",
          "type": "uint256"
        }
      ],
      "payable": false,
      "stateMutability": "view",
      "type": "function"
    },
    {
      "constant": true,
      "inputs": [
        {
          "name": "userAdr",
          "type": "address"
        },
        {
          "name": "index",
          "type": "uint256"
        }
      ],
      "name": "getManagedUser",
      "outputs": [
        {
          "name": "adr",
          "type": "address"
        },
        {
          "name": "more",
          "type": "bool"
        }
      ],
      "payable": false,
      "stateMutability": "view",
      "type": "function"
    },
    {
      "constant": true,
      "inputs": [
        {
          "name": "userAdr",
          "type": "address"
        },
        {
          "name": "managerAdr",
          "type": "address"
        }
      ],
      "name": "isUserManager",
      "outputs": [
        {
          "name": "",
          "type": "bool"
        }
      ],
      "payable": false,
      "stateMutability": "view",
      "type": "function"
    }
  ],
  "bytecode": "0x608060405234801561001057600080fd5b506000805433600160a060020a0319918216178083556040805160a0810182528481526002602080830182815260058486019081526001606080870182815260808801828152600160a060020a039a8b168d5283875298909b2087518154909b169a9099169990991788559151918701919091555191850191909155945160038401805460ff191691151591909117905590518051939491936100b992600485019201906100c3565b509050505061014f565b828054828255906000526020600020908101928215610118579160200282015b828111156101185782518254600160a060020a031916600160a060020a039091161782556020909201916001909101906100e3565b50610124929150610128565b5090565b61014c91905b80821115610124578054600160a060020a031916815560010161012e565b90565b610adc8061015e6000396000f3fe60806040526004361061008a5763ffffffff60e060020a60003504166304020595811461008f578063648243f2146100c45780636f77926b1461012057806374277a631461018a57806398e03c30146101c3578063aaa2b8c814610212578063b120c16a14610243578063cdd876181461027c578063e55ec2cc146102af578063f4142a36146102ea575b600080fd5b34801561009b57600080fd5b506100c2600480360360208110156100b257600080fd5b5035600160a060020a0316610325565b005b3480156100d057600080fd5b506100fd600480360360408110156100e757600080fd5b50600160a060020a038135169060200135610480565b60408051600160a060020a03909316835290151560208301528051918290030190f35b34801561012c57600080fd5b506101536004803603602081101561014357600080fd5b5035600160a060020a0316610566565b60408051600160a060020a039096168652602086019490945284840192909252151560608401526080830152519081900360a00190f35b34801561019657600080fd5b506100c2600480360360408110156101ad57600080fd5b50600160a060020a0381351690602001356105f1565b3480156101cf57600080fd5b506101fe600480360360408110156101e657600080fd5b50600160a060020a03813581169160200135166106e8565b604080519115158252519081900360200190f35b34801561021e57600080fd5b5061022761071a565b60408051600160a060020a039092168252519081900360200190f35b34801561024f57600080fd5b506100c26004803603604081101561026657600080fd5b50600160a060020a038135169060200135610729565b34801561028857600080fd5b506100c26004803603602081101561029f57600080fd5b5035600160a060020a03166107b4565b3480156102bb57600080fd5b506100c2600480360360408110156102d257600080fd5b50600160a060020a03813581169160200135166108b0565b3480156102f657600080fd5b506100c26004803603604081101561030d57600080fd5b50600160a060020a038135169060200135151561094a565b336000908152600160208190526040909120810154101561038f576040805160e560020a62461bcd0281526020600482015260256024820152600080516020610a71833981519152604482015260d960020a6431ba34b7b702606482015290519081900360840190fd5b6040805160a0810182526000808252600160208084018281526003858701818152606080880186815260808901828152600160a060020a038c81168a528888529a90982089518154600160a060020a0319169b169a909a178a559351958901959095555160028801559051908601805460ff191691151591909117905591518051919492610425926004850192909101906109e4565b50505050600160a060020a031660008181526001602081815260408084203385526005018252808420805460ff1916841790558282528320600401805492830181558352909120018054600160a060020a0319169091179055565b600160a060020a038216600090815260016020526040812060040154819015806104e35750600160a060020a03841660009081526001602052604081206004018054859081106104cc57fe5b600091825260209091200154600160a060020a0316145b156104f35750600090508061055f565b600160a060020a0384166000908152600160205260408120600401546000190184101561051e575060015b600160a060020a038516600090815260016020526040902060040180548590811061054557fe5b600091825260209091200154600160a060020a0316925090505b9250929050565b600160a060020a038116600090815260016020526040812060030154819081908190819060ff16156105d857505050600160a060020a03808416600090815260016020819052604090912080549181015460028201546003830154600490930154939094169550935060ff16906105e8565b5060009350839250829150819050805b91939590929450565b336000908152600160208190526040822001548391108015610618575061061881336106e8565b151561065c576040805160e560020a62461bcd0281526020600482015260136024820152600080516020610a91833981519152604482015290519081900360640190fd5b33600090815260016020819052604090912001548211156106c7576040805160e560020a62461bcd02815260206004820152601860248201527f43616e27742073657420616e2068696768657220726f6c650000000000000000604482015290519081900360640190fd5b50600160a060020a0390911660009081526001602081905260409091200155565b600160a060020a0391821660009081526001602090815260408083209390941682526005909201909152205460ff1690565b600054600160a060020a031681565b336000908152600160208190526040822001548391108015610750575061075081336106e8565b1515610794576040805160e560020a62461bcd0281526020600482015260136024820152600080516020610a91833981519152604482015290519081900360640190fd5b50600160a060020a03909116600090815260016020526040902060020155565b336000908152600160208190526040822001541161081b576040805160e560020a62461bcd0281526020600482015260256024820152600080516020610a71833981519152604482015260d960020a6431ba34b7b702606482015290519081900360840190fd5b6040805160a0810182526000808252602080830182815260038486018181526001606080880182815260808901828152600160a060020a038c81168a528489529a90982089518154600160a060020a0319169b169a909a178a55945191890191909155905160028801559151908601805460ff19169115159190911790559151805192949261042592600485019201906109e4565b3360009081526001602081905260408220015483911080156108d757506108d781336106e8565b151561091b576040805160e560020a62461bcd0281526020600482015260136024820152600080516020610a91833981519152604482015290519081900360640190fd5b50600160a060020a0391821660009081526001602052604090208054600160a060020a03191691909216179055565b336000908152600160208190526040822001548391108015610971575061097181336106e8565b15156109b5576040805160e560020a62461bcd0281526020600482015260136024820152600080516020610a91833981519152604482015290519081900360640190fd5b50600160a060020a03919091166000908152600160205260409020600301805460ff1916911515919091179055565b828054828255906000526020600020908101928215610a39579160200282015b82811115610a395782518254600160a060020a031916600160a060020a03909116178255602090920191600190910190610a04565b50610a45929150610a49565b5090565b610a6d91905b80821115610a45578054600160a060020a0319168155600101610a4f565b9056fe546865206163636f756e742063616e277420706572666f726d20746869732061556e617574686f72697a656420616374696f6e00000000000000000000000000a165627a7a72305820e6affa619ee6a4e72fa55bd2b855766df8d24986d62f21b7de831f48111e5bc70029",
  "source": "pragma solidity <0.6.0;\n\nimport \"./libraries/Utils.sol\";\n\n/*\nGas to deploy: 880.108\n*/\n\n\ncontract UserAuthority {\n    string constant private MANAGERS_KEY = \"admitted-managers\";\n\n    address public rootAddress;\n\n    struct User {\n        address contractAddress;\n        uint role;\n        uint reputation;\n        bool validity;\n        address[] managedUsers;\n        mapping(address => bool) managers;\n    }\n    \n    mapping(address => User) private users;\n\n    constructor () public {\n        rootAddress = msg.sender;\n\n        address[] memory tmpAddresses;\n\n        users[rootAddress] = User(address(0), 2, 5, true, tmpAddresses);\n    }\n\n    modifier allowedAdminCreation() {\n        require(\n            users[msg.sender].role >= 1,\n            \"The account can't perform this action\"\n        );\n\n        _;\n    }\n\n    modifier allowedUserCreation() {\n        require(\n            users[msg.sender].role > 0,\n            \"The account can't perform this action\"\n        );\n\n        _;\n    }\n\n    modifier allowedEdit(address userAdr) {\n        require(\n            users[msg.sender].role > 0 &&\n            isUserManager(userAdr, msg.sender),\n            \"Unauthorized action\"\n        );\n\n        _;\n    }\n\n    function createAdmin(\n        address adminAdr\n    )\n        public\n        allowedAdminCreation\n    {\n        address[] memory tmpAddresses;\n\n        users[adminAdr] = User(address(0), 1, 3, true, tmpAddresses);\n\n        users[adminAdr].managers[msg.sender] = true;\n\n        users[msg.sender].managedUsers.push(adminAdr);\n    }\n\n    function createUser(\n        address userAdr\n    )\n        public\n        allowedUserCreation\n    {\n        address[] memory tmpAddresses;\n\n        users[userAdr] = User(address(0), 0, 3, true, tmpAddresses);\n\n        users[userAdr].managers[msg.sender] = true;\n\n        users[msg.sender].managedUsers.push(userAdr);\n    }\n\n    function setUserContract(\n        address userAdr,\n        address contractAddress\n    )\n        public\n        allowedEdit(userAdr)\n    {\n        users[userAdr].contractAddress = contractAddress;\n    }\n\n    function setRole(\n        address userAdr,\n        uint role\n    )\n        public\n        allowedEdit(userAdr)\n    {\n        require(role <= users[msg.sender].role, \"Can't set an higher role\");\n\n        users[userAdr].role = role;\n    }\n\n    function setReputation(\n        address userAdr,\n        uint reputation\n    )\n        public\n        allowedEdit(userAdr)\n    {\n        users[userAdr].reputation = reputation;\n    }\n\n    function setValidity(\n        address userAdr,\n        bool validity\n    )\n        public\n        allowedEdit(userAdr)\n    {\n        users[userAdr].validity = validity;\n    }\n\n    function getUser(\n        address userAdr\n    )\n        public\n        view\n        returns(\n            address contractAddress,\n            uint role,\n            uint reputation,\n            bool validity,\n            uint managedUsers\n        )\n    {\n        if (users[userAdr].validity)\n\n            return(\n                users[userAdr].contractAddress,\n                users[userAdr].role,\n                users[userAdr].reputation,\n                users[userAdr].validity,\n                users[userAdr].managedUsers.length\n            );\n\n        else\n            return(address(0), 0, 0, false, 0);\n    }\n\n    function getManagedUser(\n        address userAdr,\n        uint index\n    )\n        public\n        view\n        returns (\n            address adr,\n            bool more\n        )\n    {\n        if (\n            users[userAdr].managedUsers.length == 0 ||\n            users[userAdr].managedUsers[index] == address(0)\n        )\n            return(address(0), false);\n\n        bool thereIsMore = false;\n\n        if (index < users[userAdr].managedUsers.length - 1) thereIsMore = true;\n\n        return(\n            users[userAdr].managedUsers[index],\n            thereIsMore\n        );\n    }\n\n    function isUserManager(\n        address userAdr,\n        address managerAdr\n    )\n        public\n        view\n        returns (bool)\n    {\n        return users[userAdr].managers[managerAdr];\n    }\n}\n",
  "sourcePath": "/home/administrator/workspace/signaturit-solidity-contracts/contracts/UserAuthority.sol",
  "compiler": {
    "name": "solc",
    "version": "0.5.0+commit.1d4f565a.Emscripten.clang"
  },
  "schemaVersion": "2.0.3",
  "updatedAt": "2020-01-15T10:55:50.253Z"
}