{
  "contractName": "User",
  "abi": [
    {
      "constant": true,
      "inputs": [
        {
          "name": "",
          "type": "uint256"
        }
      ],
      "name": "certifiedEmailFiles",
      "outputs": [
        {
          "name": "",
          "type": "address"
        }
      ],
      "payable": false,
      "stateMutability": "view",
      "type": "function"
    },
    {
      "constant": true,
      "inputs": [
        {
          "name": "",
          "type": "uint256"
        }
      ],
      "name": "certifiedFiles",
      "outputs": [
        {
          "name": "",
          "type": "address"
        }
      ],
      "payable": false,
      "stateMutability": "view",
      "type": "function"
    },
    {
      "constant": true,
      "inputs": [
        {
          "name": "",
          "type": "uint256"
        }
      ],
      "name": "signatureFiles",
      "outputs": [
        {
          "name": "",
          "type": "address"
        }
      ],
      "payable": false,
      "stateMutability": "view",
      "type": "function"
    },
    {
      "constant": true,
      "inputs": [],
      "name": "certificatePublicKey",
      "outputs": [
        {
          "name": "",
          "type": "string"
        }
      ],
      "payable": false,
      "stateMutability": "view",
      "type": "function"
    },
    {
      "constant": true,
      "inputs": [
        {
          "name": "",
          "type": "uint256"
        }
      ],
      "name": "certificates",
      "outputs": [
        {
          "name": "",
          "type": "address"
        }
      ],
      "payable": false,
      "stateMutability": "view",
      "type": "function"
    },
    {
      "constant": true,
      "inputs": [],
      "name": "signaturitAddress",
      "outputs": [
        {
          "name": "",
          "type": "address"
        }
      ],
      "payable": false,
      "stateMutability": "view",
      "type": "function"
    },
    {
      "constant": true,
      "inputs": [
        {
          "name": "",
          "type": "uint256"
        }
      ],
      "name": "certifiedEmailEvents",
      "outputs": [
        {
          "name": "",
          "type": "address"
        }
      ],
      "payable": false,
      "stateMutability": "view",
      "type": "function"
    },
    {
      "constant": true,
      "inputs": [
        {
          "name": "",
          "type": "uint256"
        }
      ],
      "name": "signatureEvents",
      "outputs": [
        {
          "name": "",
          "type": "address"
        }
      ],
      "payable": false,
      "stateMutability": "view",
      "type": "function"
    },
    {
      "constant": true,
      "inputs": [
        {
          "name": "",
          "type": "uint256"
        }
      ],
      "name": "signatures",
      "outputs": [
        {
          "name": "",
          "type": "address"
        }
      ],
      "payable": false,
      "stateMutability": "view",
      "type": "function"
    },
    {
      "constant": true,
      "inputs": [
        {
          "name": "",
          "type": "uint256"
        }
      ],
      "name": "documents",
      "outputs": [
        {
          "name": "",
          "type": "address"
        }
      ],
      "payable": false,
      "stateMutability": "view",
      "type": "function"
    },
    {
      "constant": true,
      "inputs": [],
      "name": "userAddress",
      "outputs": [
        {
          "name": "",
          "type": "address"
        }
      ],
      "payable": false,
      "stateMutability": "view",
      "type": "function"
    },
    {
      "constant": true,
      "inputs": [
        {
          "name": "",
          "type": "uint256"
        }
      ],
      "name": "certifiedEmails",
      "outputs": [
        {
          "name": "",
          "type": "address"
        }
      ],
      "payable": false,
      "stateMutability": "view",
      "type": "function"
    },
    {
      "inputs": [
        {
          "name": "_userAddress",
          "type": "address"
        }
      ],
      "payable": false,
      "stateMutability": "nonpayable",
      "type": "constructor"
    },
    {
      "anonymous": false,
      "inputs": [
        {
          "indexed": false,
          "name": "adr",
          "type": "address"
        }
      ],
      "name": "SignatureAdded",
      "type": "event"
    },
    {
      "anonymous": false,
      "inputs": [
        {
          "indexed": false,
          "name": "adr",
          "type": "address"
        }
      ],
      "name": "DocumentAdded",
      "type": "event"
    },
    {
      "anonymous": false,
      "inputs": [
        {
          "indexed": false,
          "name": "adr",
          "type": "address"
        },
        {
          "indexed": false,
          "name": "source",
          "type": "string"
        }
      ],
      "name": "FileAdded",
      "type": "event"
    },
    {
      "anonymous": false,
      "inputs": [
        {
          "indexed": false,
          "name": "adr",
          "type": "address"
        },
        {
          "indexed": false,
          "name": "source",
          "type": "string"
        }
      ],
      "name": "EventAdded",
      "type": "event"
    },
    {
      "anonymous": false,
      "inputs": [
        {
          "indexed": false,
          "name": "adr",
          "type": "address"
        }
      ],
      "name": "CertifiedEmailAdded",
      "type": "event"
    },
    {
      "anonymous": false,
      "inputs": [
        {
          "indexed": false,
          "name": "key",
          "type": "string"
        }
      ],
      "name": "CertificatePublickeySet",
      "type": "event"
    },
    {
      "anonymous": false,
      "inputs": [
        {
          "indexed": false,
          "name": "adr",
          "type": "address"
        }
      ],
      "name": "CertificateAdded",
      "type": "event"
    },
    {
      "anonymous": false,
      "inputs": [
        {
          "indexed": false,
          "name": "adr",
          "type": "address"
        }
      ],
      "name": "CertifiedFileAdded",
      "type": "event"
    },
    {
      "anonymous": false,
      "inputs": [
        {
          "indexed": false,
          "name": "clauseContract",
          "type": "address"
        },
        {
          "indexed": false,
          "name": "clauseType",
          "type": "string"
        },
        {
          "indexed": false,
          "name": "notificationType",
          "type": "string"
        },
        {
          "indexed": false,
          "name": "id",
          "type": "string"
        }
      ],
      "name": "ClauseNotification",
      "type": "event"
    },
    {
      "constant": false,
      "inputs": [
        {
          "name": "key",
          "type": "string"
        }
      ],
      "name": "setCertificatePublicKey",
      "outputs": [],
      "payable": false,
      "stateMutability": "nonpayable",
      "type": "function"
    },
    {
      "constant": false,
      "inputs": [
        {
          "name": "signatureAddress",
          "type": "address"
        },
        {
          "name": "id",
          "type": "string"
        }
      ],
      "name": "addSignature",
      "outputs": [],
      "payable": false,
      "stateMutability": "nonpayable",
      "type": "function"
    },
    {
      "constant": false,
      "inputs": [
        {
          "name": "documentAddress",
          "type": "address"
        }
      ],
      "name": "addDocument",
      "outputs": [],
      "payable": false,
      "stateMutability": "nonpayable",
      "type": "function"
    },
    {
      "constant": false,
      "inputs": [
        {
          "name": "fileType",
          "type": "string"
        },
        {
          "name": "fileAddress",
          "type": "address"
        }
      ],
      "name": "addFile",
      "outputs": [],
      "payable": false,
      "stateMutability": "nonpayable",
      "type": "function"
    },
    {
      "constant": false,
      "inputs": [
        {
          "name": "eventSource",
          "type": "string"
        },
        {
          "name": "eventAddress",
          "type": "address"
        }
      ],
      "name": "addEvent",
      "outputs": [],
      "payable": false,
      "stateMutability": "nonpayable",
      "type": "function"
    },
    {
      "constant": false,
      "inputs": [
        {
          "name": "certifiedEmailAddress",
          "type": "address"
        },
        {
          "name": "id",
          "type": "string"
        }
      ],
      "name": "addCertifiedEmail",
      "outputs": [],
      "payable": false,
      "stateMutability": "nonpayable",
      "type": "function"
    },
    {
      "constant": false,
      "inputs": [
        {
          "name": "certificate",
          "type": "address"
        }
      ],
      "name": "addCertificate",
      "outputs": [],
      "payable": false,
      "stateMutability": "nonpayable",
      "type": "function"
    },
    {
      "constant": false,
      "inputs": [
        {
          "name": "certifiedFileAddress",
          "type": "address"
        },
        {
          "name": "id",
          "type": "string"
        }
      ],
      "name": "addCertifiedFile",
      "outputs": [],
      "payable": false,
      "stateMutability": "nonpayable",
      "type": "function"
    },
    {
      "constant": false,
      "inputs": [
        {
          "name": "clauseContract",
          "type": "address"
        },
        {
          "name": "clauseType",
          "type": "string"
        },
        {
          "name": "notificationType",
          "type": "string"
        },
        {
          "name": "id",
          "type": "string"
        }
      ],
      "name": "clauseNotification",
      "outputs": [],
      "payable": false,
      "stateMutability": "nonpayable",
      "type": "function"
    },
    {
      "constant": true,
      "inputs": [
        {
          "name": "id",
          "type": "string"
        }
      ],
      "name": "getSignatureById",
      "outputs": [
        {
          "name": "",
          "type": "address"
        }
      ],
      "payable": false,
      "stateMutability": "view",
      "type": "function"
    },
    {
      "constant": true,
      "inputs": [
        {
          "name": "index",
          "type": "uint256"
        }
      ],
      "name": "getSignature",
      "outputs": [
        {
          "name": "adr",
          "type": "address"
        },
        {
          "name": "more",
          "type": "bool"
        }
      ],
      "payable": false,
      "stateMutability": "view",
      "type": "function"
    },
    {
      "constant": true,
      "inputs": [
        {
          "name": "index",
          "type": "uint256"
        }
      ],
      "name": "getDocument",
      "outputs": [
        {
          "name": "adr",
          "type": "address"
        },
        {
          "name": "more",
          "type": "bool"
        }
      ],
      "payable": false,
      "stateMutability": "view",
      "type": "function"
    },
    {
      "constant": true,
      "inputs": [
        {
          "name": "index",
          "type": "uint256"
        }
      ],
      "name": "getSignatureFile",
      "outputs": [
        {
          "name": "adr",
          "type": "address"
        },
        {
          "name": "more",
          "type": "bool"
        }
      ],
      "payable": false,
      "stateMutability": "view",
      "type": "function"
    },
    {
      "constant": true,
      "inputs": [
        {
          "name": "index",
          "type": "uint256"
        }
      ],
      "name": "getSignatureEvent",
      "outputs": [
        {
          "name": "adr",
          "type": "address"
        },
        {
          "name": "more",
          "type": "bool"
        }
      ],
      "payable": false,
      "stateMutability": "view",
      "type": "function"
    },
    {
      "constant": true,
      "inputs": [
        {
          "name": "id",
          "type": "string"
        }
      ],
      "name": "getCertifiedEmailById",
      "outputs": [
        {
          "name": "",
          "type": "address"
        }
      ],
      "payable": false,
      "stateMutability": "view",
      "type": "function"
    },
    {
      "constant": true,
      "inputs": [
        {
          "name": "index",
          "type": "uint256"
        }
      ],
      "name": "getCertifiedEmail",
      "outputs": [
        {
          "name": "adr",
          "type": "address"
        },
        {
          "name": "more",
          "type": "bool"
        }
      ],
      "payable": false,
      "stateMutability": "view",
      "type": "function"
    },
    {
      "constant": true,
      "inputs": [
        {
          "name": "index",
          "type": "uint256"
        }
      ],
      "name": "getCertificate",
      "outputs": [
        {
          "name": "adr",
          "type": "address"
        },
        {
          "name": "more",
          "type": "bool"
        }
      ],
      "payable": false,
      "stateMutability": "view",
      "type": "function"
    },
    {
      "constant": true,
      "inputs": [
        {
          "name": "index",
          "type": "uint256"
        }
      ],
      "name": "getCertifiedEmailFile",
      "outputs": [
        {
          "name": "adr",
          "type": "address"
        },
        {
          "name": "more",
          "type": "bool"
        }
      ],
      "payable": false,
      "stateMutability": "view",
      "type": "function"
    },
    {
      "constant": true,
      "inputs": [
        {
          "name": "index",
          "type": "uint256"
        }
      ],
      "name": "getCertifiedEmailEvent",
      "outputs": [
        {
          "name": "adr",
          "type": "address"
        },
        {
          "name": "more",
          "type": "bool"
        }
      ],
      "payable": false,
      "stateMutability": "view",
      "type": "function"
    },
    {
      "constant": true,
      "inputs": [
        {
          "name": "id",
          "type": "string"
        }
      ],
      "name": "getCertifiedFileById",
      "outputs": [
        {
          "name": "",
          "type": "address"
        }
      ],
      "payable": false,
      "stateMutability": "view",
      "type": "function"
    },
    {
      "constant": true,
      "inputs": [
        {
          "name": "index",
          "type": "uint256"
        }
      ],
      "name": "getCertifiedFile",
      "outputs": [
        {
          "name": "adr",
          "type": "address"
        },
        {
          "name": "more",
          "type": "bool"
        }
      ],
      "payable": false,
      "stateMutability": "view",
      "type": "function"
    },
    {
      "constant": true,
      "inputs": [],
      "name": "getSignaturesCount",
      "outputs": [
        {
          "name": "count",
          "type": "uint256"
        }
      ],
      "payable": false,
      "stateMutability": "view",
      "type": "function"
    },
    {
      "constant": true,
      "inputs": [],
      "name": "getDocumentsCount",
      "outputs": [
        {
          "name": "count",
          "type": "uint256"
        }
      ],
      "payable": false,
      "stateMutability": "view",
      "type": "function"
    },
    {
      "constant": true,
      "inputs": [],
      "name": "getSignatureFilesCount",
      "outputs": [
        {
          "name": "count",
          "type": "uint256"
        }
      ],
      "payable": false,
      "stateMutability": "view",
      "type": "function"
    },
    {
      "constant": true,
      "inputs": [],
      "name": "getSignatureEventsCount",
      "outputs": [
        {
          "name": "count",
          "type": "uint256"
        }
      ],
      "payable": false,
      "stateMutability": "view",
      "type": "function"
    },
    {
      "constant": true,
      "inputs": [],
      "name": "getCertifiedEmailsCount",
      "outputs": [
        {
          "name": "count",
          "type": "uint256"
        }
      ],
      "payable": false,
      "stateMutability": "view",
      "type": "function"
    },
    {
      "constant": true,
      "inputs": [],
      "name": "getCertificatesCount",
      "outputs": [
        {
          "name": "count",
          "type": "uint256"
        }
      ],
      "payable": false,
      "stateMutability": "view",
      "type": "function"
    },
    {
      "constant": true,
      "inputs": [],
      "name": "getCertifiedEmailFilesCount",
      "outputs": [
        {
          "name": "count",
          "type": "uint256"
        }
      ],
      "payable": false,
      "stateMutability": "view",
      "type": "function"
    },
    {
      "constant": true,
      "inputs": [],
      "name": "getCertifiedEmailEventsCount",
      "outputs": [
        {
          "name": "count",
          "type": "uint256"
        }
      ],
      "payable": false,
      "stateMutability": "view",
      "type": "function"
    },
    {
      "constant": true,
      "inputs": [],
      "name": "getCertifiedFilesCount",
      "outputs": [
        {
          "name": "count",
          "type": "uint256"
        }
      ],
      "payable": false,
      "stateMutability": "view",
      "type": "function"
    }
  ],
  "bytecode": "0x608060405234801561001057600080fd5b506040516020806126df8339810180604052602081101561003057600080fd5b50516004805433600160a060020a03199182161790915560058054909116600160a060020a039092169190911790556126718061006e6000396000f3fe6080604052600436106101ea5763ffffffff60e060020a60003504166302a569e681146101ef57806307158d5d1461023c5780630bcf963b1461026657806314a4cf3a1461028d57806316afb87f1461034b5780631892ae1b1461039157806321624b471461044257806334fa5f7e146105035780633b39e7bb1461052d5780633f9b250a14610542578063446521ca1461056c578063491598631461061d57806349a869b2146107e857806351640fee14610812578063588c54861461083c5780635c1f3a56146108515780635e54f82e1461086657806362430dd8146108f0578063663b3e221461091a57806369b8eda4146109445780636d1ff751146109595780637581760814610a0a5780637912d6ac14610acb5780637c37ab0614610af55780637c6ebde914610b285780637d66347314610b5b5780638237ab8314610b7057806383428a7914610b855780638be1019414610baf5780638fb03a0214610bd9578063aaa7f4f914610bee578063aad47bca14610caf578063b2611a7514610cd9578063bd9b812e14610d03578063c0a715d014610d2d578063c2ed2b0514610de9578063c50679fc14610e13578063e068f27314610e3d578063e4128fb314610eee578063ecc7f18314610f03578063fa4123a614610f18578063fd52c3f614610f42575b600080fd5b3480156101fb57600080fd5b506102196004803603602081101561021257600080fd5b5035610f57565b60408051600160a060020a03909316835290151560208301528051918290030190f35b34801561024857600080fd5b506102196004803603602081101561025f57600080fd5b5035610fb7565b34801561027257600080fd5b5061027b61100d565b60408051918252519081900360200190f35b34801561029957600080fd5b50610349600480360360408110156102b057600080fd5b810190602081018135602060020a8111156102ca57600080fd5b8201836020820111156102dc57600080fd5b803590602001918460018302840111602060020a831117156102fd57600080fd5b91908080601f01602080910402602001604051908101604052809392919081815260200183838082843760009201919091525092955050509035600160a060020a031691506110149050565b005b34801561035757600080fd5b506103756004803603602081101561036e57600080fd5b5035611325565b60408051600160a060020a039092168252519081900360200190f35b34801561039d57600080fd5b50610375600480360360208110156103b457600080fd5b810190602081018135602060020a8111156103ce57600080fd5b8201836020820111156103e057600080fd5b803590602001918460018302840111602060020a8311171561040157600080fd5b91908080601f01602080910402602001604051908101604052809392919081815260200183838082843760009201919091525092955061134d945050505050565b34801561044e57600080fd5b506103496004803603604081101561046557600080fd5b600160a060020a038235169190810190604081016020820135602060020a81111561048f57600080fd5b8201836020820111156104a157600080fd5b803590602001918460018302840111602060020a831117156104c257600080fd5b91908080601f016020809104026020016040519081016040528093929190818152602001838380828437600092019190915250929550611446945050505050565b34801561050f57600080fd5b506103756004803603602081101561052657600080fd5b503561159c565b34801561053957600080fd5b5061027b6115aa565b34801561054e57600080fd5b506102196004803603602081101561056557600080fd5b50356115b0565b34801561057857600080fd5b506103756004803603602081101561058f57600080fd5b810190602081018135602060020a8111156105a957600080fd5b8201836020820111156105bb57600080fd5b803590602001918460018302840111602060020a831117156105dc57600080fd5b91908080601f016020809104026020016040519081016040528093929190818152602001838380828437600092019190915250929550611606945050505050565b34801561062957600080fd5b506103496004803603608081101561064057600080fd5b600160a060020a038235169190810190604081016020820135602060020a81111561066a57600080fd5b82018360208201111561067c57600080fd5b803590602001918460018302840111602060020a8311171561069d57600080fd5b91908080601f0160208091040260200160405190810160405280939291908181526020018383808284376000920191909152509295949360208101935035915050602060020a8111156106ef57600080fd5b82018360208201111561070157600080fd5b803590602001918460018302840111602060020a8311171561072257600080fd5b91908080601f0160208091040260200160405190810160405280939291908181526020018383808284376000920191909152509295949360208101935035915050602060020a81111561077457600080fd5b82018360208201111561078657600080fd5b803590602001918460018302840111602060020a831117156107a757600080fd5b91908080601f0160208091040260200160405190810160405280939291908181526020018383808284376000920191909152509295506116bf945050505050565b3480156107f457600080fd5b506103756004803603602081101561080b57600080fd5b50356118d3565b34801561081e57600080fd5b506102196004803603602081101561083557600080fd5b50356118e1565b34801561084857600080fd5b5061027b611937565b34801561085d57600080fd5b5061027b61193d565b34801561087257600080fd5b5061087b611943565b6040805160208082528351818301528351919283929083019185019080838360005b838110156108b557818101518382015260200161089d565b50505050905090810190601f1680156108e25780820380516001836020036101000a031916815260200191505b509250505060405180910390f35b3480156108fc57600080fd5b506102196004803603602081101561091357600080fd5b50356119d1565b34801561092657600080fd5b506103756004803603602081101561093d57600080fd5b5035611a27565b34801561095057600080fd5b50610375611a35565b34801561096557600080fd5b506103756004803603602081101561097c57600080fd5b810190602081018135602060020a81111561099657600080fd5b8201836020820111156109a857600080fd5b803590602001918460018302840111602060020a831117156109c957600080fd5b91908080601f016020809104026020016040519081016040528093929190818152602001838380828437600092019190915250929550611a44945050505050565b348015610a1657600080fd5b5061034960048036036040811015610a2d57600080fd5b600160a060020a038235169190810190604081016020820135602060020a811115610a5757600080fd5b820183602082011115610a6957600080fd5b803590602001918460018302840111602060020a83111715610a8a57600080fd5b91908080601f016020809104026020016040519081016040528093929190818152602001838380828437600092019190915250929550611afd945050505050565b348015610ad757600080fd5b5061037560048036036020811015610aee57600080fd5b5035611c53565b348015610b0157600080fd5b5061034960048036036020811015610b1857600080fd5b5035600160a060020a0316611c61565b348015610b3457600080fd5b5061034960048036036020811015610b4b57600080fd5b5035600160a060020a0316611d49565b348015610b6757600080fd5b5061027b611e31565b348015610b7c57600080fd5b5061027b611e37565b348015610b9157600080fd5b5061037560048036036020811015610ba857600080fd5b5035611e3d565b348015610bbb57600080fd5b5061037560048036036020811015610bd257600080fd5b5035611e4b565b348015610be557600080fd5b5061027b611e59565b348015610bfa57600080fd5b5061034960048036036040811015610c1157600080fd5b600160a060020a038235169190810190604081016020820135602060020a811115610c3b57600080fd5b820183602082011115610c4d57600080fd5b803590602001918460018302840111602060020a83111715610c6e57600080fd5b91908080601f016020809104026020016040519081016040528093929190818152602001838380828437600092019190915250929550611e5f945050505050565b348015610cbb57600080fd5b5061021960048036036020811015610cd257600080fd5b5035611fb5565b348015610ce557600080fd5b5061021960048036036020811015610cfc57600080fd5b503561200b565b348015610d0f57600080fd5b5061021960048036036020811015610d2657600080fd5b5035612061565b348015610d3957600080fd5b5061034960048036036040811015610d5057600080fd5b810190602081018135602060020a811115610d6a57600080fd5b820183602082011115610d7c57600080fd5b803590602001918460018302840111602060020a83111715610d9d57600080fd5b91908080601f01602080910402602001604051908101604052809392919081815260200183838082843760009201919091525092955050509035600160a060020a031691506120b79050565b348015610df557600080fd5b5061037560048036036020811015610e0c57600080fd5b5035612388565b348015610e1f57600080fd5b5061021960048036036020811015610e3657600080fd5b5035612396565b348015610e4957600080fd5b5061034960048036036020811015610e6057600080fd5b810190602081018135602060020a811115610e7a57600080fd5b820183602082011115610e8c57600080fd5b803590602001918460018302840111602060020a83111715610ead57600080fd5b91908080601f0160208091040260200160405190810160405280939291908181526020018383808284376000920191909152509295506123ec945050505050565b348015610efa57600080fd5b50610375612514565b348015610f0f57600080fd5b5061027b612523565b348015610f2457600080fd5b5061037560048036036020811015610f3b57600080fd5b5035612529565b348015610f4e57600080fd5b5061027b612537565b600080610f696006805490508461253d565b1515610f7a57506000905080610fb2565b6006805484908110610f8857fe5b600091825260209091200154600654600160a060020a0390911690610fad9085612558565b915091505b915091565b600080610fc9600c805490508461253d565b1515610fda57506000905080610fb2565b600c805484908110610fe857fe5b600091825260209091200154600c54600160a060020a0390911690610fad9085612558565b6007545b90565b600454600160a060020a03163214611078576040805160e560020a62461bcd02815260206004820152602f60248201526000805160206126268339815191526044820152600080516020612606833981519152606482015290519081900360840190fd5b604051602001808060b860020a687369676e617475726502815250600901905060405160208183030381529060405280519060200120826040516020018082805190602001908083835b602083106110e15780518252601f1990920191602091820191016110c2565b6001836020036101000a03801982511681845116808217855250505050505090500191505060405160208183030381529060405280519060200120141561117257600a80546001810182556000919091527fc65a7bb8d6351c1cf70c95a316cc6a92839c986682d98bc35f958f4883f9d2a8018054600160a060020a031916600160a060020a03831617905561126e565b6040516020018080608a60020a6e18d95c9d1a599a595917d95b585a5b02815250600f01905060405160208183030381529060405280519060200120826040516020018082805190602001908083835b602083106111e15780518252601f1990920191602091820191016111c2565b6001836020036101000a03801982511681845116808217855250505050505090500191505060405160208183030381529060405280519060200120141561126e57600b80546001810182556000919091527f0175b7a638427703f0dbe7bb9bbf987a2551717b34e79f33b5b1008d1fa01db9018054600160a060020a031916600160a060020a0383161790555b7f153594e72b817d485e2869681e89c7d4380a6c15a2024abbeefdc6e75995102f81836040518083600160a060020a0316600160a060020a0316815260200180602001828103825283818151815260200191508051906020019080838360005b838110156112e65781810151838201526020016112ce565b50505050905090810190601f1680156113135780820380516001836020036101000a031916815260200191505b50935050505060405180910390a15050565b600980548290811061133357fe5b600091825260209091200154600160a060020a0316905081565b600080600160a060020a03166011836040518082805190602001908083835b6020831061138b5780518252601f19909201916020918201910161136c565b51815160209384036101000a6000190180199092169116179052920194855250604051938490030190922054600160a060020a0316929092141591506113d5905057506000611441565b6011826040518082805190602001908083835b602083106114075780518252601f1990920191602091820191016113e8565b51815160209384036101000a6000190180199092169116179052920194855250604051938490030190922054600160a060020a0316925050505b919050565b600454600160a060020a031632146114aa576040805160e560020a62461bcd02815260206004820152602f60248201526000805160206126268339815191526044820152600080516020612606833981519152606482015290519081900360840190fd5b81600f826040518082805190602001908083835b602083106114dd5780518252601f1990920191602091820191016114be565b51815160209384036101000a60001901801990921691161790529201948552506040805194859003820185208054600160a060020a0319908116600160a060020a0398891617909155600680546001810182556000919091527ff652222313e28459528d920b65115c16c04f3efc82aaedc97be59f3f377c0d3f018054909116968916968717905594845293517f6e810e4496ec107fcad4184c63e69d6d90f2d83c7aaf9a6f3a2bbc428b8846b8949381900390930192915050a15050565b600e80548290811061133357fe5b600e5490565b6000806115c26007805490508461253d565b15156115d357506000905080610fb2565b60078054849081106115e157fe5b600091825260209091200154600754600160a060020a0390911690610fad9085612558565b600080600160a060020a0316600f836040518082805190602001908083835b602083106116445780518252601f199092019160209182019101611625565b51815160209384036101000a6000190180199092169116179052920194855250604051938490030190922054600160a060020a03169290921415915061168e905057506000611441565b600f82604051808280519060200190808383602083106114075780518252601f1990920191602091820191016113e8565b600554600160a060020a03163214806116e25750600454600160a060020a031632145b151561174c576040805160e560020a62461bcd02815260206004820152602f60248201527f4f6e6c7920616e20616c6c6f776564206163636f756e742063616e20706572666044820152600080516020612606833981519152606482015290519081900360840190fd5b7f606fab2fd17b85e25a10184e6da37b2208fa4530adeb693b21d5803a0ff92258848484846040518085600160a060020a0316600160a060020a03168152602001806020018060200180602001848103845287818151815260200191508051906020019080838360005b838110156117ce5781810151838201526020016117b6565b50505050905090810190601f1680156117fb5780820380516001836020036101000a031916815260200191505b50848103835286518152865160209182019188019080838360005b8381101561182e578181015183820152602001611816565b50505050905090810190601f16801561185b5780820380516001836020036101000a031916815260200191505b50848103825285518152855160209182019187019080838360005b8381101561188e578181015183820152602001611876565b50505050905090810190601f1680156118bb5780820380516001836020036101000a031916815260200191505b5097505050505050505060405180910390a150505050565b600880548290811061133357fe5b6000806118f3600d805490508461253d565b151561190457506000905080610fb2565b600d80548490811061191257fe5b600091825260209091200154600d54600160a060020a0390911690610fad9085612558565b600a5490565b600b5490565b6003805460408051602060026001851615610100026000190190941693909304601f810184900484028201840190925281815292918301828280156119c95780601f1061199e576101008083540402835291602001916119c9565b820191906000526020600020905b8154815290600101906020018083116119ac57829003601f168201915b505050505081565b6000806119e36008805490508461253d565b15156119f457506000905080610fb2565b6008805484908110611a0257fe5b600091825260209091200154600854600160a060020a0390911690610fad9085612558565b600d80548290811061133357fe5b600454600160a060020a031681565b600080600160a060020a03166010836040518082805190602001908083835b60208310611a825780518252601f199092019160209182019101611a63565b51815160209384036101000a6000190180199092169116179052920194855250604051938490030190922054600160a060020a031692909214159150611acc905057506000611441565b601082604051808280519060200190808383602083106114075780518252601f1990920191602091820191016113e8565b600454600160a060020a03163214611b61576040805160e560020a62461bcd02815260206004820152602f60248201526000805160206126268339815191526044820152600080516020612606833981519152606482015290519081900360840190fd5b816011826040518082805190602001908083835b60208310611b945780518252601f199092019160209182019101611b75565b51815160209384036101000a60001901801990921691161790529201948552506040805194859003820185208054600160a060020a0319908116600160a060020a0398891617909155600e80546001810182556000919091527fbb7b4a454dc3493923482f07822329ed19e8244eff582cc204f8554c3620c3fd018054909116968916968717905594845293517f83f6f626c1a7bb935e511aed9ae646cd24de53fb86ce032632fef62d2f573462949381900390930192915050a15050565b600b80548290811061133357fe5b600454600160a060020a03163214611cc5576040805160e560020a62461bcd02815260206004820152602f60248201526000805160206126268339815191526044820152600080516020612606833981519152606482015290519081900360840190fd5b600780546001810182556000919091527fa66cc928b5edb82af9bd49922954155ab7b0942694bea4ce44661d9a8736c688018054600160a060020a038316600160a060020a0319909116811790915560408051918252517f789ba6f7cf2054e80c94618ed522f3f52ea04a6d85eac2eda1ff5b88c9a0e9a79181900360200190a150565b600454600160a060020a03163214611dad576040805160e560020a62461bcd02815260206004820152602f60248201526000805160206126268339815191526044820152600080516020612606833981519152606482015290519081900360840190fd5b600d80546001810182556000919091527fd7b6990105719101dabeb77144f2a3385c8033acd3af97e9423a695e81ad1eb5018054600160a060020a038316600160a060020a0319909116811790915560408051918252517f6697c31d0c16a2d80cf5bde8e7ed12c5fb8d8c5ca0f1364a9caa0a56b39c54579181900360200190a150565b600c5490565b60085490565b600a80548290811061133357fe5b600680548290811061133357fe5b600d5490565b600454600160a060020a03163214611ec3576040805160e560020a62461bcd02815260206004820152602f60248201526000805160206126268339815191526044820152600080516020612606833981519152606482015290519081900360840190fd5b816010826040518082805190602001908083835b60208310611ef65780518252601f199092019160209182019101611ed7565b51815160209384036101000a60001901801990921691161790529201948552506040805194859003820185208054600160a060020a0319908116600160a060020a0398891617909155600c80546001810182556000919091527fdf6966c971051c3d54ec59162606531493a51404a002842f56009d7e5cf4a8c7018054909116968916968717905594845293517f5df292efd50cbb25e17f64216e52404df76c8f7effc90cd6e1566d56a6fea45a949381900390930192915050a15050565b600080611fc7600a805490508461253d565b1515611fd857506000905080610fb2565b600a805484908110611fe657fe5b600091825260209091200154600a54600160a060020a0390911690610fad9085612558565b60008061201d6009805490508461253d565b151561202e57506000905080610fb2565b600980548490811061203c57fe5b600091825260209091200154600954600160a060020a0390911690610fad9085612558565b600080612073600b805490508461253d565b151561208457506000905080610fb2565b600b80548490811061209257fe5b600091825260209091200154600b54600160a060020a0390911690610fad9085612558565b600454600160a060020a0316321461211b576040805160e560020a62461bcd02815260206004820152602f60248201526000805160206126268339815191526044820152600080516020612606833981519152606482015290519081900360840190fd5b604051602001808060b860020a687369676e617475726502815250600901905060405160208183030381529060405280519060200120826040516020018082805190602001908083835b602083106121845780518252601f199092019160209182019101612165565b6001836020036101000a03801982511681845116808217855250505050505090500191505060405160208183030381529060405280519060200120141561221557600880546001810182556000919091527ff3f7a9fe364faab93b216da50a3214154f22a0a2b415b23a84c8169e8b636ee3018054600160a060020a031916600160a060020a038316179055612311565b6040516020018080608a60020a6e18d95c9d1a599a595917d95b585a5b02815250600f01905060405160208183030381529060405280519060200120826040516020018082805190602001908083835b602083106122845780518252601f199092019160209182019101612265565b6001836020036101000a03801982511681845116808217855250505050505090500191505060405160208183030381529060405280519060200120141561231157600980546001810182556000919091527f6e1540171b6c0c960b71a7020d9f60077f6af931a8bbf590da0223dacf75c7af018054600160a060020a031916600160a060020a0383161790555b7f771ad20575501c8cafc4a8793006515911d6e497fd5838018654c9b50347430c81836040518083600160a060020a0316600160a060020a031681526020018060200182810382528381815181526020019150805190602001908083836000838110156112e65781810151838201526020016112ce565b600780548290811061133357fe5b6000806123a8600e805490508461253d565b15156123b957506000905080610fb2565b600e8054849081106123c757fe5b600091825260209091200154600e54600160a060020a0390911690610fad9085612558565b600454600160a060020a03163214612450576040805160e560020a62461bcd02815260206004820152602f60248201526000805160206126268339815191526044820152600080516020612606833981519152606482015290519081900360840190fd5b805161246390600390602084019061256d565b5060408051602080825260038054600260001961010060018416150201909116049183018290527f22b4eb86fca32b75cd9b81b9e6162fffbe60e087c7f1b597fb370a3df3436152939092918291820190849080156125035780601f106124d857610100808354040283529160200191612503565b820191906000526020600020905b8154815290600101906020018083116124e657829003601f168201915b50509250505060405180910390a150565b600554600160a060020a031681565b60095490565b600c80548290811061133357fe5b60065490565b600082821061254e57506000612552565b5060015b92915050565b600081600101831161254e5760009392505050565b828054600181600116156101000203166002900490600052602060002090601f016020900481019282601f106125ae57805160ff19168380011785556125db565b828001600101855582156125db579182015b828111156125db5782518255916020019190600101906125c0565b506125e79291506125eb565b5090565b61101191905b808211156125e757600081556001016125f156fe6f726d207468697320616374696f6e00000000000000000000000000000000004f6e6c79205369676e617475726974206163636f756e742063616e2070657266a165627a7a72305820fe2c01143592da691bc4b72f7dceb17d3866c49c30672be3cf9458084a18e9650029",
  "source": "pragma solidity <0.6.0;\n\n/*\nGas to deploy: 2.511.966\n*/\n\nimport \"./interfaces/UserInterface.sol\";\n\n\ncontract User is UserInterface {\n    string public certificatePublicKey;\n\n    address public signaturitAddress;\n    address public userAddress;\n\n    address[] public signatures;\n    address[] public documents;\n    address[] public signatureFiles;\n    address[] public certifiedEmailFiles;\n    address[] public signatureEvents;\n    address[] public certifiedEmailEvents;\n    address[] public certifiedEmails;\n    address[] public certificates;\n    address[] public certifiedFiles;\n\n    mapping(string => address) private signaturesIndexes;\n    mapping(string => address) private certifiedEmailsIndexes;\n    mapping(string => address) private certifiedFilesIndexes;\n\n    event SignatureAdded(address adr);\n    event DocumentAdded(address adr);\n    event FileAdded(address adr, string source);\n    event EventAdded(address adr, string source);\n    event CertifiedEmailAdded(address adr);\n    event CertificatePublickeySet(string key);\n    event CertificateAdded(address adr);\n    event CertifiedFileAdded(address adr);\n    event ClauseNotification(\n        address clauseContract,\n        string clauseType,\n        string notificationType,\n        string id\n    );\n\n    constructor (address _userAddress) public {\n        signaturitAddress = msg.sender;\n        userAddress = _userAddress;\n    }\n\n    modifier signaturitOnly() {\n        require(\n            tx.origin == signaturitAddress,\n            \"Only Signaturit account can perform this action\"\n        );\n\n        _;\n    }\n\n    modifier onlyAllowed() {\n        require(\n            tx.origin == userAddress || tx.origin == signaturitAddress,\n            \"Only an allowed account can perform this action\"\n        );\n\n        _;\n    }\n\n    function setCertificatePublicKey(\n        string memory key\n    )\n        public\n        signaturitOnly\n    {\n        certificatePublicKey = key;\n        emit CertificatePublickeySet(certificatePublicKey);\n    }\n\n    function addSignature(\n        address signatureAddress,\n        string memory id\n    )\n        public\n        signaturitOnly\n    {\n        signaturesIndexes[id] = signatureAddress;\n        signatures.push(signatureAddress);\n\n        emit SignatureAdded(signatureAddress);\n    }\n\n    function addDocument(\n        address documentAddress\n    )\n        public\n        signaturitOnly\n    {\n        documents.push(documentAddress);\n\n        emit DocumentAdded(documentAddress);\n    }\n\n    function addFile(\n        string memory fileType,\n        address fileAddress\n    )\n        public\n        signaturitOnly\n    {\n        if (\n            keccak256(\n                abi.encodePacked((fileType))\n            ) == keccak256(\n                abi.encodePacked((\"signature\"))\n            )\n        ) {\n            signatureFiles.push(fileAddress);\n        } else if (\n            keccak256(\n                abi.encodePacked((fileType))\n            ) == keccak256(\n                abi.encodePacked((\"certified_email\"))\n            )\n        ) {\n            certifiedEmailFiles.push(fileAddress);\n        }\n\n        emit FileAdded(fileAddress, fileType);\n    }\n\n    function addEvent(\n        string memory eventSource,\n        address eventAddress\n    )\n        public\n        signaturitOnly\n    {\n        if (\n            keccak256(\n                abi.encodePacked((eventSource))\n            ) == keccak256(\n                abi.encodePacked((\"signature\"))\n            )\n        ) {\n            signatureEvents.push(eventAddress);\n        } else if (\n            keccak256(\n                abi.encodePacked((eventSource))\n            ) == keccak256(\n                abi.encodePacked((\"certified_email\"))\n            )\n        ) {\n            certifiedEmailEvents.push(eventAddress);\n        }\n\n        emit EventAdded(eventAddress, eventSource);\n    }\n\n    function addCertifiedEmail(\n        address certifiedEmailAddress,\n        string memory id\n    )\n        public\n        signaturitOnly\n    {\n        certifiedEmailsIndexes[id] = certifiedEmailAddress;\n        certifiedEmails.push(certifiedEmailAddress);\n\n        emit CertifiedEmailAdded(certifiedEmailAddress);\n    }\n\n    function addCertificate(\n        address certificate\n    )\n        public\n        signaturitOnly\n    {\n        certificates.push(certificate);\n\n        emit CertificateAdded(certificate);\n    }\n\n    function addCertifiedFile(\n        address certifiedFileAddress,\n        string memory id\n    )\n        public\n        signaturitOnly\n    {\n        certifiedFilesIndexes[id] = certifiedFileAddress;\n        certifiedFiles.push(certifiedFileAddress);\n\n        emit CertifiedFileAdded(certifiedFileAddress);\n    }\n\n    function clauseNotification(\n        address clauseContract,\n        string memory clauseType,\n        string memory notificationType,\n        string memory id\n    )\n        public\n        onlyAllowed\n    {\n        emit ClauseNotification(\n            clauseContract,\n            clauseType,\n            notificationType,\n            id\n        );\n    }\n\n    function getSignatureById(\n        string memory id\n    )\n        public\n        view\n        returns (address)\n    {\n        if (signaturesIndexes[id] == address(0)) return address(0);\n\n        return signaturesIndexes[id];\n    }\n\n    function getSignature(\n        uint index\n    )\n        public\n        view\n        returns (address adr, bool more)\n    {\n        if (!_checkValidity(signatures.length, index)) return (address(0), false);\n\n        return (\n            signatures[index],\n            _moreIsFound(signatures.length, index)\n        );\n    }\n\n    function getDocument(\n        uint index\n    )\n        public\n        view\n        returns (address adr, bool more)\n    {\n        if (!_checkValidity(documents.length, index)) return (address(0), false);\n\n        return (\n            documents[index],\n            _moreIsFound(documents.length, index)\n        );\n    }\n\n    function getSignatureFile(\n        uint index\n    )\n        public\n        view\n        returns (address adr, bool more)\n    {\n        if (!_checkValidity(signatureFiles.length, index)) return (address(0), false);\n\n        return (\n            signatureFiles[index],\n            _moreIsFound(signatureFiles.length, index)\n        );\n    }\n\n    function getSignatureEvent(\n        uint index\n    )\n        public\n        view\n        returns (address adr, bool more)\n    {\n        if (!_checkValidity(signatureEvents.length, index)) return (address(0), false);\n\n        return (\n            signatureEvents[index],\n            _moreIsFound(signatureEvents.length, index)\n        );\n    }\n\n    function getCertifiedEmailById(\n        string memory id\n    )\n        public\n        view\n        returns (address)\n    {\n        if (certifiedEmailsIndexes[id] == address(0)) return address(0);\n\n        return certifiedEmailsIndexes[id];\n    }\n\n    function getCertifiedEmail(\n        uint index\n    )\n        public\n        view\n        returns (address adr, bool more)\n    {\n        if (!_checkValidity(certifiedEmails.length, index)) return (address(0), false);\n\n        return(\n            certifiedEmails[index],\n            _moreIsFound(certifiedEmails.length, index)\n        );\n    }\n\n    function getCertificate(\n        uint index\n    )\n        public\n        view\n        returns (address adr, bool more)\n    {\n        if (!_checkValidity(certificates.length, index)) return (address(0), false);\n\n        return(\n            certificates[index],\n            _moreIsFound(certificates.length, index)\n        );\n    }\n\n    function getCertifiedEmailFile(\n        uint index\n    )\n        public\n        view\n        returns (address adr, bool more)\n    {\n        if (!_checkValidity(certifiedEmailFiles.length, index)) return (address(0), false);\n\n        return (\n            certifiedEmailFiles[index],\n            _moreIsFound(certifiedEmailFiles.length, index)\n        );\n    }\n\n    function getCertifiedEmailEvent(\n        uint index\n    )\n        public\n        view\n        returns (address adr, bool more)\n    {\n        if (!_checkValidity(certifiedEmailEvents.length, index)) return (address(0), false);\n\n        return (\n            certifiedEmailEvents[index],\n            _moreIsFound(certifiedEmailEvents.length, index)\n        );\n    }\n\n    function getCertifiedFileById(\n        string memory id\n    )\n        public\n        view\n        returns (address)\n    {\n        if (certifiedFilesIndexes[id] == address(0)) return address(0);\n\n        return certifiedFilesIndexes[id];\n    }\n\n    function getCertifiedFile(\n        uint index\n    )\n        public\n        view\n        returns (address adr, bool more)\n    {\n        if (!_checkValidity(certifiedFiles.length, index)) return (address(0), false);\n\n        return (\n            certifiedFiles[index],\n            _moreIsFound(certifiedFiles.length, index)\n        );\n    }\n\n    function getSignaturesCount()\n        public\n        view\n        returns (uint256 count)\n    {\n        return signatures.length;\n    }\n\n    function getDocumentsCount()\n        public\n        view\n        returns (uint256 count)\n    {\n        return documents.length;\n    }\n\n    function getSignatureFilesCount()\n        public\n        view\n        returns (uint256 count)\n    {\n        return signatureFiles.length;\n    }\n\n    function getSignatureEventsCount()\n        public\n        view\n        returns (uint256 count)\n    {\n        return signatureEvents.length;\n    }\n\n    function getCertifiedEmailsCount()\n        public\n        view\n        returns (uint256 count)\n    {\n        return certifiedEmails.length;\n    }\n\n    function getCertificatesCount()\n        public\n        view\n        returns (uint256 count)\n    {\n        return certificates.length;\n    }\n\n    function getCertifiedEmailFilesCount()\n        public\n        view\n        returns (uint256 count)\n    {\n        return certifiedEmailFiles.length;\n    }\n\n    function getCertifiedEmailEventsCount()\n        public\n        view\n        returns (uint256 count)\n    {\n        return certifiedEmailEvents.length;\n    }\n\n    function getCertifiedFilesCount()\n        public\n        view\n        returns (uint256 count)\n    {\n        return certifiedFiles.length;\n    }\n\n    function _checkValidity(\n        uint length,\n        uint index\n    )\n        internal\n        pure\n        returns(bool)\n    {\n        if (index >= length) return false;\n\n        return true;\n    }\n\n    function _moreIsFound(\n        uint length,\n        uint index\n    )\n        internal\n        pure\n        returns (bool)\n    {\n        return length > index + 1 ? true : false;\n    }\n}\n",
  "sourcePath": "/Users/alex/workspace/signaturit-solidity-contracts/contracts/User.sol",
  "compiler": {
    "name": "solc",
    "version": "0.5.0+commit.1d4f565a.Emscripten.clang"
  },
  "schemaVersion": "3.0.13",
  "updatedAt": "2019-09-20T13:40:26.109Z",
  "devdoc": {
    "methods": {}
  },
  "userdoc": {
    "methods": {}
  }
}