{
  "contractName": "User",
  "abi": [
    {
      "constant": true,
      "inputs": [
        {
          "name": "",
          "type": "uint256"
        }
      ],
      "name": "certifiedEmailFiles",
      "outputs": [
        {
          "name": "",
          "type": "address"
        }
      ],
      "payable": false,
      "stateMutability": "view",
      "type": "function"
    },
    {
      "constant": true,
      "inputs": [
        {
          "name": "",
          "type": "uint256"
        }
      ],
      "name": "certifiedFiles",
      "outputs": [
        {
          "name": "",
          "type": "address"
        }
      ],
      "payable": false,
      "stateMutability": "view",
      "type": "function"
    },
    {
      "constant": true,
      "inputs": [
        {
          "name": "",
          "type": "uint256"
        }
      ],
      "name": "signatureFiles",
      "outputs": [
        {
          "name": "",
          "type": "address"
        }
      ],
      "payable": false,
      "stateMutability": "view",
      "type": "function"
    },
    {
      "constant": true,
      "inputs": [
        {
          "name": "",
          "type": "uint256"
        }
      ],
      "name": "certificates",
      "outputs": [
        {
          "name": "",
          "type": "address"
        }
      ],
      "payable": false,
      "stateMutability": "view",
      "type": "function"
    },
    {
      "constant": true,
      "inputs": [],
      "name": "signaturitAddress",
      "outputs": [
        {
          "name": "",
          "type": "address"
        }
      ],
      "payable": false,
      "stateMutability": "view",
      "type": "function"
    },
    {
      "constant": true,
      "inputs": [
        {
          "name": "",
          "type": "uint256"
        }
      ],
      "name": "certifiedEmailEvents",
      "outputs": [
        {
          "name": "",
          "type": "address"
        }
      ],
      "payable": false,
      "stateMutability": "view",
      "type": "function"
    },
    {
      "constant": true,
      "inputs": [
        {
          "name": "",
          "type": "uint256"
        }
      ],
      "name": "signatureEvents",
      "outputs": [
        {
          "name": "",
          "type": "address"
        }
      ],
      "payable": false,
      "stateMutability": "view",
      "type": "function"
    },
    {
      "constant": true,
      "inputs": [
        {
          "name": "",
          "type": "uint256"
        }
      ],
      "name": "signatures",
      "outputs": [
        {
          "name": "",
          "type": "address"
        }
      ],
      "payable": false,
      "stateMutability": "view",
      "type": "function"
    },
    {
      "constant": true,
      "inputs": [
        {
          "name": "",
          "type": "uint256"
        }
      ],
      "name": "documents",
      "outputs": [
        {
          "name": "",
          "type": "address"
        }
      ],
      "payable": false,
      "stateMutability": "view",
      "type": "function"
    },
    {
      "constant": true,
      "inputs": [],
      "name": "userAddress",
      "outputs": [
        {
          "name": "",
          "type": "address"
        }
      ],
      "payable": false,
      "stateMutability": "view",
      "type": "function"
    },
    {
      "constant": true,
      "inputs": [
        {
          "name": "",
          "type": "uint256"
        }
      ],
      "name": "certifiedEmails",
      "outputs": [
        {
          "name": "",
          "type": "address"
        }
      ],
      "payable": false,
      "stateMutability": "view",
      "type": "function"
    },
    {
      "inputs": [
        {
          "name": "_userAddress",
          "type": "address"
        }
      ],
      "payable": false,
      "stateMutability": "nonpayable",
      "type": "constructor"
    },
    {
      "anonymous": false,
      "inputs": [
        {
          "indexed": false,
          "name": "adr",
          "type": "address"
        }
      ],
      "name": "SignatureAdded",
      "type": "event"
    },
    {
      "anonymous": false,
      "inputs": [
        {
          "indexed": false,
          "name": "adr",
          "type": "address"
        }
      ],
      "name": "DocumentAdded",
      "type": "event"
    },
    {
      "anonymous": false,
      "inputs": [
        {
          "indexed": false,
          "name": "adr",
          "type": "address"
        },
        {
          "indexed": false,
          "name": "source",
          "type": "string"
        }
      ],
      "name": "FileAdded",
      "type": "event"
    },
    {
      "anonymous": false,
      "inputs": [
        {
          "indexed": false,
          "name": "adr",
          "type": "address"
        },
        {
          "indexed": false,
          "name": "source",
          "type": "string"
        }
      ],
      "name": "EventAdded",
      "type": "event"
    },
    {
      "anonymous": false,
      "inputs": [
        {
          "indexed": false,
          "name": "adr",
          "type": "address"
        }
      ],
      "name": "CertifiedEmailAdded",
      "type": "event"
    },
    {
      "anonymous": false,
      "inputs": [
        {
          "indexed": false,
          "name": "adr",
          "type": "address"
        }
      ],
      "name": "CertificateAdded",
      "type": "event"
    },
    {
      "anonymous": false,
      "inputs": [
        {
          "indexed": false,
          "name": "adr",
          "type": "address"
        }
      ],
      "name": "CertifiedFileAdded",
      "type": "event"
    },
    {
      "anonymous": false,
      "inputs": [
        {
          "indexed": false,
          "name": "paymentContract",
          "type": "address"
        },
        {
          "indexed": false,
          "name": "referenceId",
          "type": "string"
        },
        {
          "indexed": false,
          "name": "receiverId",
          "type": "string"
        },
        {
          "indexed": false,
          "name": "statementId",
          "type": "string"
        },
        {
          "indexed": false,
          "name": "status",
          "type": "uint256"
        },
        {
          "indexed": false,
          "name": "receivedAt",
          "type": "uint256"
        },
        {
          "indexed": false,
          "name": "checkedAt",
          "type": "uint256"
        }
      ],
      "name": "PaymentCheck",
      "type": "event"
    },
    {
      "anonymous": false,
      "inputs": [
        {
          "indexed": false,
          "name": "paymentContract",
          "type": "address"
        },
        {
          "indexed": false,
          "name": "referenceId",
          "type": "string"
        },
        {
          "indexed": false,
          "name": "receiverId",
          "type": "string"
        },
        {
          "indexed": false,
          "name": "statementId",
          "type": "string"
        },
        {
          "indexed": false,
          "name": "status",
          "type": "string"
        },
        {
          "indexed": false,
          "name": "receivedAt",
          "type": "uint256"
        },
        {
          "indexed": false,
          "name": "checkedAt",
          "type": "uint256"
        }
      ],
      "name": "PaymentCheck",
      "type": "event"
    },
    {
      "constant": false,
      "inputs": [
        {
          "name": "signatureAddress",
          "type": "address"
        },
        {
          "name": "id",
          "type": "string"
        }
      ],
      "name": "addSignature",
      "outputs": [],
      "payable": false,
      "stateMutability": "nonpayable",
      "type": "function"
    },
    {
      "constant": false,
      "inputs": [
        {
          "name": "documentAddress",
          "type": "address"
        }
      ],
      "name": "addDocument",
      "outputs": [],
      "payable": false,
      "stateMutability": "nonpayable",
      "type": "function"
    },
    {
      "constant": false,
      "inputs": [
        {
          "name": "fileType",
          "type": "string"
        },
        {
          "name": "fileAddress",
          "type": "address"
        }
      ],
      "name": "addFile",
      "outputs": [],
      "payable": false,
      "stateMutability": "nonpayable",
      "type": "function"
    },
    {
      "constant": false,
      "inputs": [
        {
          "name": "eventSource",
          "type": "string"
        },
        {
          "name": "eventAddress",
          "type": "address"
        }
      ],
      "name": "addEvent",
      "outputs": [],
      "payable": false,
      "stateMutability": "nonpayable",
      "type": "function"
    },
    {
      "constant": false,
      "inputs": [
        {
          "name": "certifiedEmailAddress",
          "type": "address"
        },
        {
          "name": "id",
          "type": "string"
        }
      ],
      "name": "addCertifiedEmail",
      "outputs": [],
      "payable": false,
      "stateMutability": "nonpayable",
      "type": "function"
    },
    {
      "constant": false,
      "inputs": [
        {
          "name": "certificate",
          "type": "address"
        }
      ],
      "name": "addCertificate",
      "outputs": [],
      "payable": false,
      "stateMutability": "nonpayable",
      "type": "function"
    },
    {
      "constant": false,
      "inputs": [
        {
          "name": "certifiedFileAddress",
          "type": "address"
        },
        {
          "name": "id",
          "type": "string"
        }
      ],
      "name": "addCertifiedFile",
      "outputs": [],
      "payable": false,
      "stateMutability": "nonpayable",
      "type": "function"
    },
    {
      "constant": false,
      "inputs": [
        {
          "name": "paymentContract",
          "type": "address"
        },
        {
          "name": "referenceId",
          "type": "string"
        },
        {
          "name": "receiverId",
          "type": "string"
        },
        {
          "name": "statementId",
          "type": "string"
        },
        {
          "name": "status",
          "type": "uint256"
        },
        {
          "name": "receivedAt",
          "type": "uint256"
        },
        {
          "name": "checkedAt",
          "type": "uint256"
        }
      ],
      "name": "notifyPaymentCheck",
      "outputs": [],
      "payable": false,
      "stateMutability": "nonpayable",
      "type": "function"
    },
    {
      "constant": true,
      "inputs": [
        {
          "name": "id",
          "type": "string"
        }
      ],
      "name": "getSignatureById",
      "outputs": [
        {
          "name": "",
          "type": "address"
        }
      ],
      "payable": false,
      "stateMutability": "view",
      "type": "function"
    },
    {
      "constant": true,
      "inputs": [
        {
          "name": "index",
          "type": "uint256"
        }
      ],
      "name": "getSignature",
      "outputs": [
        {
          "name": "adr",
          "type": "address"
        },
        {
          "name": "more",
          "type": "bool"
        }
      ],
      "payable": false,
      "stateMutability": "view",
      "type": "function"
    },
    {
      "constant": true,
      "inputs": [
        {
          "name": "index",
          "type": "uint256"
        }
      ],
      "name": "getDocument",
      "outputs": [
        {
          "name": "adr",
          "type": "address"
        },
        {
          "name": "more",
          "type": "bool"
        }
      ],
      "payable": false,
      "stateMutability": "view",
      "type": "function"
    },
    {
      "constant": true,
      "inputs": [
        {
          "name": "index",
          "type": "uint256"
        }
      ],
      "name": "getSignatureFile",
      "outputs": [
        {
          "name": "adr",
          "type": "address"
        },
        {
          "name": "more",
          "type": "bool"
        }
      ],
      "payable": false,
      "stateMutability": "view",
      "type": "function"
    },
    {
      "constant": true,
      "inputs": [
        {
          "name": "index",
          "type": "uint256"
        }
      ],
      "name": "getSignatureEvent",
      "outputs": [
        {
          "name": "adr",
          "type": "address"
        },
        {
          "name": "more",
          "type": "bool"
        }
      ],
      "payable": false,
      "stateMutability": "view",
      "type": "function"
    },
    {
      "constant": true,
      "inputs": [
        {
          "name": "id",
          "type": "string"
        }
      ],
      "name": "getCertifiedEmailById",
      "outputs": [
        {
          "name": "",
          "type": "address"
        }
      ],
      "payable": false,
      "stateMutability": "view",
      "type": "function"
    },
    {
      "constant": true,
      "inputs": [
        {
          "name": "index",
          "type": "uint256"
        }
      ],
      "name": "getCertifiedEmail",
      "outputs": [
        {
          "name": "adr",
          "type": "address"
        },
        {
          "name": "more",
          "type": "bool"
        }
      ],
      "payable": false,
      "stateMutability": "view",
      "type": "function"
    },
    {
      "constant": true,
      "inputs": [
        {
          "name": "index",
          "type": "uint256"
        }
      ],
      "name": "getCertificate",
      "outputs": [
        {
          "name": "adr",
          "type": "address"
        },
        {
          "name": "more",
          "type": "bool"
        }
      ],
      "payable": false,
      "stateMutability": "view",
      "type": "function"
    },
    {
      "constant": true,
      "inputs": [
        {
          "name": "index",
          "type": "uint256"
        }
      ],
      "name": "getCertifiedEmailFile",
      "outputs": [
        {
          "name": "adr",
          "type": "address"
        },
        {
          "name": "more",
          "type": "bool"
        }
      ],
      "payable": false,
      "stateMutability": "view",
      "type": "function"
    },
    {
      "constant": true,
      "inputs": [
        {
          "name": "index",
          "type": "uint256"
        }
      ],
      "name": "getCertifiedEmailEvent",
      "outputs": [
        {
          "name": "adr",
          "type": "address"
        },
        {
          "name": "more",
          "type": "bool"
        }
      ],
      "payable": false,
      "stateMutability": "view",
      "type": "function"
    },
    {
      "constant": true,
      "inputs": [
        {
          "name": "id",
          "type": "string"
        }
      ],
      "name": "getCertifiedFileById",
      "outputs": [
        {
          "name": "",
          "type": "address"
        }
      ],
      "payable": false,
      "stateMutability": "view",
      "type": "function"
    },
    {
      "constant": true,
      "inputs": [
        {
          "name": "index",
          "type": "uint256"
        }
      ],
      "name": "getCertifiedFile",
      "outputs": [
        {
          "name": "adr",
          "type": "address"
        },
        {
          "name": "more",
          "type": "bool"
        }
      ],
      "payable": false,
      "stateMutability": "view",
      "type": "function"
    },
    {
      "constant": true,
      "inputs": [],
      "name": "getSignaturesCount",
      "outputs": [
        {
          "name": "count",
          "type": "uint256"
        }
      ],
      "payable": false,
      "stateMutability": "view",
      "type": "function"
    },
    {
      "constant": true,
      "inputs": [],
      "name": "getDocumentsCount",
      "outputs": [
        {
          "name": "count",
          "type": "uint256"
        }
      ],
      "payable": false,
      "stateMutability": "view",
      "type": "function"
    },
    {
      "constant": true,
      "inputs": [],
      "name": "getSignatureFilesCount",
      "outputs": [
        {
          "name": "count",
          "type": "uint256"
        }
      ],
      "payable": false,
      "stateMutability": "view",
      "type": "function"
    },
    {
      "constant": true,
      "inputs": [],
      "name": "getSignatureEventsCount",
      "outputs": [
        {
          "name": "count",
          "type": "uint256"
        }
      ],
      "payable": false,
      "stateMutability": "view",
      "type": "function"
    },
    {
      "constant": true,
      "inputs": [],
      "name": "getCertifiedEmailsCount",
      "outputs": [
        {
          "name": "count",
          "type": "uint256"
        }
      ],
      "payable": false,
      "stateMutability": "view",
      "type": "function"
    },
    {
      "constant": true,
      "inputs": [],
      "name": "getCertificatesCount",
      "outputs": [
        {
          "name": "count",
          "type": "uint256"
        }
      ],
      "payable": false,
      "stateMutability": "view",
      "type": "function"
    },
    {
      "constant": true,
      "inputs": [],
      "name": "getCertifiedEmailFilesCount",
      "outputs": [
        {
          "name": "count",
          "type": "uint256"
        }
      ],
      "payable": false,
      "stateMutability": "view",
      "type": "function"
    },
    {
      "constant": true,
      "inputs": [],
      "name": "getCertifiedEmailEventsCount",
      "outputs": [
        {
          "name": "count",
          "type": "uint256"
        }
      ],
      "payable": false,
      "stateMutability": "view",
      "type": "function"
    },
    {
      "constant": true,
      "inputs": [],
      "name": "getCertifiedFilesCount",
      "outputs": [
        {
          "name": "count",
          "type": "uint256"
        }
      ],
      "payable": false,
      "stateMutability": "view",
      "type": "function"
    }
  ],
  "bytecode": "0x608060405234801561001057600080fd5b506040516020806124088339810180604052602081101561003057600080fd5b50516002805433600160a060020a03199182161790915560038054909116600160a060020a0390921691909117905561239a8061006e6000396000f3fe6080604052600436106101d45763ffffffff60e060020a60003504166302a569e681146101d957806307158d5d146102265780630bcf963b1461025057806314a4cf3a1461027757806316afb87f146103355780631892ae1b1461037b57806321624b471461042c57806334fa5f7e146104ed5780633b39e7bb146105175780633f9b250a1461052c578063446521ca1461055657806349a869b21461060757806351640fee14610631578063588c54861461065b5780635c1f3a561461067057806362430dd814610685578063663b3e22146106af57806369b8eda4146106d95780636d1ff751146106ee578063758176081461079f5780637912d6ac146108605780637c37ab061461088a5780637c6ebde9146108bd5780637d663473146108f05780638237ab831461090557806383428a791461091a5780638be10194146109445780638fb03a021461096e578063aaa7f4f914610983578063aad47bca14610a44578063b2611a7514610a6e578063bd9b812e14610a98578063c0a715d014610ac2578063c2ed2b0514610b7e578063c50679fc14610ba8578063e4128fb314610bd2578063ecc7f18314610be7578063f764aa4814610bfc578063fa4123a614610dd2578063fd52c3f614610dfc575b600080fd5b3480156101e557600080fd5b50610203600480360360208110156101fc57600080fd5b5035610e11565b60408051600160a060020a03909316835290151560208301528051918290030190f35b34801561023257600080fd5b506102036004803603602081101561024957600080fd5b5035610e5f565b34801561025c57600080fd5b50610265610ea4565b60408051918252519081900360200190f35b34801561028357600080fd5b506103336004803603604081101561029a57600080fd5b810190602081018135602060020a8111156102b457600080fd5b8201836020820111156102c657600080fd5b803590602001918460018302840111602060020a831117156102e757600080fd5b91908080601f01602080910402602001604051908101604052809392919081815260200183838082843760009201919091525092955050509035600160a060020a03169150610eaa9050565b005b34801561034157600080fd5b5061035f6004803603602081101561035857600080fd5b50356111bb565b60408051600160a060020a039092168252519081900360200190f35b34801561038757600080fd5b5061035f6004803603602081101561039e57600080fd5b810190602081018135602060020a8111156103b857600080fd5b8201836020820111156103ca57600080fd5b803590602001918460018302840111602060020a831117156103eb57600080fd5b91908080601f0160208091040260200160405190810160405280939291908181526020018383808284376000920191909152509295506111e3945050505050565b34801561043857600080fd5b506103336004803603604081101561044f57600080fd5b600160a060020a038235169190810190604081016020820135602060020a81111561047957600080fd5b82018360208201111561048b57600080fd5b803590602001918460018302840111602060020a831117156104ac57600080fd5b91908080601f01602080910402602001604051908101604052809392919081815260200183838082843760009201919091525092955061132c945050505050565b3480156104f957600080fd5b5061035f6004803603602081101561051057600080fd5b5035611482565b34801561052357600080fd5b50610265611490565b34801561053857600080fd5b506102036004803603602081101561054f57600080fd5b5035611496565b34801561056257600080fd5b5061035f6004803603602081101561057957600080fd5b810190602081018135602060020a81111561059357600080fd5b8201836020820111156105a557600080fd5b803590602001918460018302840111602060020a831117156105c657600080fd5b91908080601f0160208091040260200160405190810160405280939291908181526020018383808284376000920191909152509295506114db945050505050565b34801561061357600080fd5b5061035f6004803603602081101561062a57600080fd5b50356115e6565b34801561063d57600080fd5b506102036004803603602081101561065457600080fd5b50356115f4565b34801561066757600080fd5b50610265611639565b34801561067c57600080fd5b5061026561163f565b34801561069157600080fd5b50610203600480360360208110156106a857600080fd5b5035611645565b3480156106bb57600080fd5b5061035f600480360360208110156106d257600080fd5b503561168a565b3480156106e557600080fd5b5061035f611698565b3480156106fa57600080fd5b5061035f6004803603602081101561071157600080fd5b810190602081018135602060020a81111561072b57600080fd5b82018360208201111561073d57600080fd5b803590602001918460018302840111602060020a8311171561075e57600080fd5b91908080601f0160208091040260200160405190810160405280939291908181526020018383808284376000920191909152509295506116a7945050505050565b3480156107ab57600080fd5b50610333600480360360408110156107c257600080fd5b600160a060020a038235169190810190604081016020820135602060020a8111156107ec57600080fd5b8201836020820111156107fe57600080fd5b803590602001918460018302840111602060020a8311171561081f57600080fd5b91908080601f0160208091040260200160405190810160405280939291908181526020018383808284376000920191909152509295506117bc945050505050565b34801561086c57600080fd5b5061035f6004803603602081101561088357600080fd5b5035611912565b34801561089657600080fd5b50610333600480360360208110156108ad57600080fd5b5035600160a060020a0316611920565b3480156108c957600080fd5b50610333600480360360208110156108e057600080fd5b5035600160a060020a0316611a08565b3480156108fc57600080fd5b50610265611af0565b34801561091157600080fd5b50610265611af6565b34801561092657600080fd5b5061035f6004803603602081101561093d57600080fd5b5035611afc565b34801561095057600080fd5b5061035f6004803603602081101561096757600080fd5b5035611b0a565b34801561097a57600080fd5b50610265611b18565b34801561098f57600080fd5b50610333600480360360408110156109a657600080fd5b600160a060020a038235169190810190604081016020820135602060020a8111156109d057600080fd5b8201836020820111156109e257600080fd5b803590602001918460018302840111602060020a83111715610a0357600080fd5b91908080601f016020809104026020016040519081016040528093929190818152602001838380828437600092019190915250929550611b1e945050505050565b348015610a5057600080fd5b5061020360048036036020811015610a6757600080fd5b5035611c74565b348015610a7a57600080fd5b5061020360048036036020811015610a9157600080fd5b5035611cb9565b348015610aa457600080fd5b5061020360048036036020811015610abb57600080fd5b5035611cfe565b348015610ace57600080fd5b5061033360048036036040811015610ae557600080fd5b810190602081018135602060020a811115610aff57600080fd5b820183602082011115610b1157600080fd5b803590602001918460018302840111602060020a83111715610b3257600080fd5b91908080601f01602080910402602001604051908101604052809392919081815260200183838082843760009201919091525092955050509035600160a060020a03169150611d439050565b348015610b8a57600080fd5b5061035f60048036036020811015610ba157600080fd5b5035612014565b348015610bb457600080fd5b5061020360048036036020811015610bcb57600080fd5b5035612022565b348015610bde57600080fd5b5061035f612067565b348015610bf357600080fd5b50610265612076565b348015610c0857600080fd5b50610333600480360360e0811015610c1f57600080fd5b600160a060020a038235169190810190604081016020820135602060020a811115610c4957600080fd5b820183602082011115610c5b57600080fd5b803590602001918460018302840111602060020a83111715610c7c57600080fd5b91908080601f0160208091040260200160405190810160405280939291908181526020018383808284376000920191909152509295949360208101935035915050602060020a811115610cce57600080fd5b820183602082011115610ce057600080fd5b803590602001918460018302840111602060020a83111715610d0157600080fd5b91908080601f0160208091040260200160405190810160405280939291908181526020018383808284376000920191909152509295949360208101935035915050602060020a811115610d5357600080fd5b820183602082011115610d6557600080fd5b803590602001918460018302840111602060020a83111715610d8657600080fd5b91908080601f016020809104026020016040519081016040528093929190818152602001838380828437600092019190915250929550508235935050506020810135906040013561207c565b348015610dde57600080fd5b5061035f60048036036020811015610df557600080fd5b5035612282565b348015610e0857600080fd5b50610265612290565b600080610e2360048054905084612296565b6004805484908110610e3157fe5b600091825260209091200154600454600160a060020a0390911690610e5690856122f1565b91509150915091565b600080610e71600a8054905084612296565b600a805484908110610e7f57fe5b600091825260209091200154600a54600160a060020a0390911690610e5690856122f1565b60055490565b600254600160a060020a03163214610f0e576040805160e560020a62461bcd02815260206004820152602f602482015260008051602061234f833981519152604482015260008051602061230f833981519152606482015290519081900360840190fd5b604051602001808060b860020a687369676e617475726502815250600901905060405160208183030381529060405280519060200120826040516020018082805190602001908083835b60208310610f775780518252601f199092019160209182019101610f58565b6001836020036101000a03801982511681845116808217855250505050505090500191505060405160208183030381529060405280519060200120141561100857600880546001810182556000919091527ff3f7a9fe364faab93b216da50a3214154f22a0a2b415b23a84c8169e8b636ee3018054600160a060020a031916600160a060020a038316179055611104565b6040516020018080608a60020a6e18d95c9d1a599a595917d95b585a5b02815250600f01905060405160208183030381529060405280519060200120826040516020018082805190602001908083835b602083106110775780518252601f199092019160209182019101611058565b6001836020036101000a03801982511681845116808217855250505050505090500191505060405160208183030381529060405280519060200120141561110457600980546001810182556000919091527f6e1540171b6c0c960b71a7020d9f60077f6af931a8bbf590da0223dacf75c7af018054600160a060020a031916600160a060020a0383161790555b7f153594e72b817d485e2869681e89c7d4380a6c15a2024abbeefdc6e75995102f81836040518083600160a060020a0316600160a060020a0316815260200180602001828103825283818151815260200191508051906020019080838360005b8381101561117c578181015183820152602001611164565b50505050905090810190601f1680156111a95780820380516001836020036101000a031916815260200191505b50935050505060405180910390a15050565b60078054829081106111c957fe5b600091825260209091200154600160a060020a0316905081565b600080600160a060020a0316600f836040518082805190602001908083835b602083106112215780518252601f199092019160209182019101611202565b51815160209384036101000a6000190180199092169116179052920194855250604051938490030190922054600160a060020a0316929092141591506112bd9050576040805160e560020a62461bcd028152602060048201526030602482015260008051602061232f8339815191526044820152608060020a6f207361766564207369676e617475726502606482015290519081900360840190fd5b600f826040518082805190602001908083835b602083106112ef5780518252601f1990920191602091820191016112d0565b51815160209384036101000a6000190180199092169116179052920194855250604051938490030190922054600160a060020a0316949350505050565b600254600160a060020a03163214611390576040805160e560020a62461bcd02815260206004820152602f602482015260008051602061234f833981519152604482015260008051602061230f833981519152606482015290519081900360840190fd5b81600d826040518082805190602001908083835b602083106113c35780518252601f1990920191602091820191016113a4565b51815160209384036101000a60001901801990921691161790529201948552506040805194859003820185208054600160a060020a0319908116600160a060020a0398891617909155600480546001810182556000919091527f8a35acfbc15ff81a39ae7d344fd709f28e8600b4aa8c65c6b64bfe7fe36bd19b018054909116968916968717905594845293517f6e810e4496ec107fcad4184c63e69d6d90f2d83c7aaf9a6f3a2bbc428b8846b8949381900390930192915050a15050565b600c8054829081106111c957fe5b600c5490565b6000806114a860058054905084612296565b60058054849081106114b657fe5b600091825260209091200154600554600160a060020a0390911690610e5690856122f1565b600080600160a060020a0316600d836040518082805190602001908083835b602083106115195780518252601f1990920191602091820191016114fa565b51815160209384036101000a6000190180199092169116179052920194855250604051938490030190922054600160a060020a0316929092141591506115b59050576040805160e560020a62461bcd028152602060048201526030602482015260008051602061232f8339815191526044820152608060020a6f207361766564207369676e617475726502606482015290519081900360840190fd5b600d82604051808280519060200190808383602083106112ef5780518252601f1990920191602091820191016112d0565b60068054829081106111c957fe5b600080611606600b8054905084612296565b600b80548490811061161457fe5b600091825260209091200154600b54600160a060020a0390911690610e5690856122f1565b60085490565b60095490565b60008061165760068054905084612296565b600680548490811061166557fe5b600091825260209091200154600654600160a060020a0390911690610e5690856122f1565b600b8054829081106111c957fe5b600254600160a060020a031681565b600080600160a060020a0316600e836040518082805190602001908083835b602083106116e55780518252601f1990920191602091820191016116c6565b51815160209384036101000a6000190180199092169116179052920194855250604051938490030190922054600160a060020a03169290921415915061178b9050576040805160e560020a62461bcd028152602060048201526036602482015260008051602061232f83398151915260448201527f2073617665642063657274696669656420656d61696c00000000000000000000606482015290519081900360840190fd5b600e82604051808280519060200190808383602083106112ef5780518252601f1990920191602091820191016112d0565b600254600160a060020a03163214611820576040805160e560020a62461bcd02815260206004820152602f602482015260008051602061234f833981519152604482015260008051602061230f833981519152606482015290519081900360840190fd5b81600f826040518082805190602001908083835b602083106118535780518252601f199092019160209182019101611834565b51815160209384036101000a60001901801990921691161790529201948552506040805194859003820185208054600160a060020a0319908116600160a060020a0398891617909155600c80546001810182556000919091527fdf6966c971051c3d54ec59162606531493a51404a002842f56009d7e5cf4a8c7018054909116968916968717905594845293517f83f6f626c1a7bb935e511aed9ae646cd24de53fb86ce032632fef62d2f573462949381900390930192915050a15050565b60098054829081106111c957fe5b600254600160a060020a03163214611984576040805160e560020a62461bcd02815260206004820152602f602482015260008051602061234f833981519152604482015260008051602061230f833981519152606482015290519081900360840190fd5b600580546001810182556000919091527f036b6384b5eca791c62761152d0c79bb0604c104a5fb6f4eb0703f3154bb3db0018054600160a060020a038316600160a060020a0319909116811790915560408051918252517f789ba6f7cf2054e80c94618ed522f3f52ea04a6d85eac2eda1ff5b88c9a0e9a79181900360200190a150565b600254600160a060020a03163214611a6c576040805160e560020a62461bcd02815260206004820152602f602482015260008051602061234f833981519152604482015260008051602061230f833981519152606482015290519081900360840190fd5b600b80546001810182556000919091527f0175b7a638427703f0dbe7bb9bbf987a2551717b34e79f33b5b1008d1fa01db9018054600160a060020a038316600160a060020a0319909116811790915560408051918252517f6697c31d0c16a2d80cf5bde8e7ed12c5fb8d8c5ca0f1364a9caa0a56b39c54579181900360200190a150565b600a5490565b60065490565b60088054829081106111c957fe5b60048054829081106111c957fe5b600b5490565b600254600160a060020a03163214611b82576040805160e560020a62461bcd02815260206004820152602f602482015260008051602061234f833981519152604482015260008051602061230f833981519152606482015290519081900360840190fd5b81600e826040518082805190602001908083835b60208310611bb55780518252601f199092019160209182019101611b96565b51815160209384036101000a60001901801990921691161790529201948552506040805194859003820185208054600160a060020a0319908116600160a060020a0398891617909155600a80546001810182556000919091527fc65a7bb8d6351c1cf70c95a316cc6a92839c986682d98bc35f958f4883f9d2a8018054909116968916968717905594845293517f5df292efd50cbb25e17f64216e52404df76c8f7effc90cd6e1566d56a6fea45a949381900390930192915050a15050565b600080611c8660088054905084612296565b6008805484908110611c9457fe5b600091825260209091200154600854600160a060020a0390911690610e5690856122f1565b600080611ccb60078054905084612296565b6007805484908110611cd957fe5b600091825260209091200154600754600160a060020a0390911690610e5690856122f1565b600080611d1060098054905084612296565b6009805484908110611d1e57fe5b600091825260209091200154600954600160a060020a0390911690610e5690856122f1565b600254600160a060020a03163214611da7576040805160e560020a62461bcd02815260206004820152602f602482015260008051602061234f833981519152604482015260008051602061230f833981519152606482015290519081900360840190fd5b604051602001808060b860020a687369676e617475726502815250600901905060405160208183030381529060405280519060200120826040516020018082805190602001908083835b60208310611e105780518252601f199092019160209182019101611df1565b6001836020036101000a038019825116818451168082178552505050505050905001915050604051602081830303815290604052805190602001201415611ea157600680546001810182556000919091527ff652222313e28459528d920b65115c16c04f3efc82aaedc97be59f3f377c0d3f018054600160a060020a031916600160a060020a038316179055611f9d565b6040516020018080608a60020a6e18d95c9d1a599a595917d95b585a5b02815250600f01905060405160208183030381529060405280519060200120826040516020018082805190602001908083835b60208310611f105780518252601f199092019160209182019101611ef1565b6001836020036101000a038019825116818451168082178552505050505050905001915050604051602081830303815290604052805190602001201415611f9d57600780546001810182556000919091527fa66cc928b5edb82af9bd49922954155ab7b0942694bea4ce44661d9a8736c688018054600160a060020a031916600160a060020a0383161790555b7f771ad20575501c8cafc4a8793006515911d6e497fd5838018654c9b50347430c81836040518083600160a060020a0316600160a060020a0316815260200180602001828103825283818151815260200191508051906020019080838360008381101561117c578181015183820152602001611164565b60058054829081106111c957fe5b600080612034600c8054905084612296565b600c80548490811061204257fe5b600091825260209091200154600c54600160a060020a0390911690610e5690856122f1565b600354600160a060020a031681565b60075490565b600254600160a060020a031632146120e0576040805160e560020a62461bcd02815260206004820152602f602482015260008051602061234f833981519152604482015260008051602061230f833981519152606482015290519081900360840190fd5b7fe6b1f5a9f2c3bd33c98a5a3bb868001a223090383d012aca5c76274f40c388bb878787878787876040518088600160a060020a0316600160a060020a0316815260200180602001806020018060200187815260200186815260200185815260200184810384528a818151815260200191508051906020019080838360005b8381101561217757818101518382015260200161215f565b50505050905090810190601f1680156121a45780820380516001836020036101000a031916815260200191505b5084810383528951815289516020918201918b019080838360005b838110156121d75781810151838201526020016121bf565b50505050905090810190601f1680156122045780820380516001836020036101000a031916815260200191505b5084810382528851815288516020918201918a019080838360005b8381101561223757818101518382015260200161221f565b50505050905090810190601f1680156122645780820380516001836020036101000a031916815260200191505b509a505050505050505050505060405180910390a150505050505050565b600a8054829081106111c957fe5b60045490565b8181106122ed576040805160e560020a62461bcd02815260206004820152601a60248201527f5468697320656c656d656e7420646f65736e2774206578697374000000000000604482015290519081900360640190fd5b5050565b6000816001018311612304576000612307565b60015b939250505056fe6f726d207468697320616374696f6e00000000000000000000000000000000005468697320696420646f65736e7420636f72726573706f6e6420746f20616e794f6e6c79205369676e617475726974206163636f756e742063616e2070657266a165627a7a723058209608f767e900e35bf7ee37897f2807e67da2f3e07de5fc4992c535ddc6f2e1550029",
  "source": "pragma solidity 0.5.0;\n\n/*Gas to deploy: 3.623.029 */\n\nimport \"./interfaces/UserInterface.sol\";\n\n\ncontract User is UserInterface {\n\n    address public signaturitAddress;\n    address public userAddress;\n\n    address[] public signatures;\n    address[] public documents;\n    address[] public signatureFiles;\n    address[] public certifiedEmailFiles;\n    address[] public signatureEvents;\n    address[] public certifiedEmailEvents;\n    address[] public certifiedEmails;\n    address[] public certificates;\n    address[] public certifiedFiles;\n\n    mapping(string => address) private signaturesIndexes;\n    mapping(string => address) private certifiedEmailsIndexes;\n    mapping(string => address) private certifiedFilesIndexes;\n\n    event SignatureAdded(address adr);\n    event DocumentAdded(address adr);\n    event FileAdded(address adr, string source);\n    event EventAdded(address adr, string source);\n    event CertifiedEmailAdded(address adr);\n    event CertificateAdded(address adr);\n    event CertifiedFileAdded(address adr);\n    event PaymentCheck(\n        address paymentContract,\n        string referenceId,\n        string receiverId,\n        string statementId,\n        uint status,\n        uint receivedAt,\n        uint checkedAt\n    );\n\n    constructor (address _userAddress) public {\n        signaturitAddress = msg.sender;\n        userAddress = _userAddress;\n    }\n\n    modifier signaturitOnly() {\n        require(\n            tx.origin == signaturitAddress,\n            \"Only Signaturit account can perform this action\"\n        );\n\n        _;\n    }\n\n    function addSignature(\n        address signatureAddress,\n        string memory id\n    )\n        public\n        signaturitOnly\n    {\n        signaturesIndexes[id] = signatureAddress;\n        signatures.push(signatureAddress);\n\n        emit SignatureAdded(signatureAddress);\n    }\n\n    function addDocument(\n        address documentAddress\n    )\n        public\n        signaturitOnly\n    {\n        documents.push(documentAddress);\n\n        emit DocumentAdded(documentAddress);\n    }\n\n    function addFile(\n        string memory fileType,\n        address fileAddress\n    )\n        public\n        signaturitOnly\n    {\n        if (\n            keccak256(\n                abi.encodePacked((fileType))\n            ) == keccak256(\n                abi.encodePacked((\"signature\"))\n            )\n        ) {\n            signatureFiles.push(fileAddress);\n        } else if (\n            keccak256(\n                abi.encodePacked((fileType))\n            ) == keccak256(\n                abi.encodePacked((\"certified_email\"))\n            )\n        ) {\n            certifiedEmailFiles.push(fileAddress);\n        }\n\n        emit FileAdded(fileAddress, fileType);\n    }\n\n    function addEvent(\n        string memory eventSource,\n        address eventAddress\n    )\n        public\n        signaturitOnly\n    {\n        if (\n            keccak256(\n                abi.encodePacked((eventSource))\n            ) == keccak256(\n                abi.encodePacked((\"signature\"))\n            )\n        ) {\n            signatureEvents.push(eventAddress);\n        } else if (\n            keccak256(\n                abi.encodePacked((eventSource))\n            ) == keccak256(\n                abi.encodePacked((\"certified_email\"))\n            )\n        ) {\n            certifiedEmailEvents.push(eventAddress);\n        }\n\n        emit EventAdded(eventAddress, eventSource);\n    }\n\n    function addCertifiedEmail(\n        address certifiedEmailAddress,\n        string memory id\n    )\n        public\n        signaturitOnly\n    {\n        certifiedEmailsIndexes[id] = certifiedEmailAddress;\n        certifiedEmails.push(certifiedEmailAddress);\n\n        emit CertifiedEmailAdded(certifiedEmailAddress);\n    }\n\n    function addCertificate(\n        address certificate\n    )\n        public\n        signaturitOnly\n    {\n        certificates.push(certificate);\n\n        emit CertificateAdded(certificate);\n    }\n\n    function addCertifiedFile(\n        address certifiedFileAddress,\n        string memory id\n    )\n        public\n        signaturitOnly\n    {\n        certifiedFilesIndexes[id] = certifiedFileAddress;\n        certifiedFiles.push(certifiedFileAddress);\n\n        emit CertifiedFileAdded(certifiedFileAddress);\n    }\n\n    function notifyPaymentCheck(\n        address paymentContract,\n        string memory referenceId,\n        string memory receiverId,\n        string memory statementId,\n        uint status,\n        uint receivedAt,\n        uint checkedAt\n    )\n        public\n        signaturitOnly\n    {\n        emit PaymentCheck(\n            paymentContract,\n            referenceId,\n            receiverId,\n            statementId,\n            status,\n            receivedAt,\n            checkedAt\n        );\n    }\n\n    function getSignatureById(\n        string memory id\n    )\n        public\n        view\n        returns (address)\n    {\n        require(\n            signaturesIndexes[id] != address(0),\n            \"This id doesnt correspond to any saved signature\"\n        );\n\n        return signaturesIndexes[id];\n    }\n\n    function getSignature(\n        uint index\n    )\n        public\n        view\n        returns (address adr, bool more)\n    {\n        _checkValidity(signatures.length, index);\n\n        return (\n            signatures[index],\n            _moreIsFound(signatures.length, index)\n        );\n    }\n\n    function getDocument(\n        uint index\n    )\n        public\n        view\n        returns (address adr, bool more)\n    {\n        _checkValidity(documents.length, index);\n\n        return (\n            documents[index],\n            _moreIsFound(documents.length, index)\n        );\n    }\n\n    function getSignatureFile(\n        uint index\n    )\n        public\n        view\n        returns (address adr, bool more)\n    {\n        _checkValidity(signatureFiles.length, index);\n\n        return (\n            signatureFiles[index],\n            _moreIsFound(signatureFiles.length, index)\n        );\n    }\n\n    function getSignatureEvent(\n        uint index\n    )\n        public\n        view\n        returns (address adr, bool more)\n    {\n        _checkValidity(signatureEvents.length, index);\n\n        return (\n            signatureEvents[index],\n            _moreIsFound(signatureEvents.length, index)\n        );\n    }\n\n    function getCertifiedEmailById(\n        string memory id\n    )\n        public\n        view\n        returns (address)\n    {\n        require(\n            certifiedEmailsIndexes[id] != address(0),\n            \"This id doesnt correspond to any saved certified email\"\n        );\n\n        return certifiedEmailsIndexes[id];\n    }\n\n    function getCertifiedEmail(\n        uint index\n    )\n        public\n        view\n        returns (address adr, bool more)\n    {\n        _checkValidity(certifiedEmails.length, index);\n\n        return(\n            certifiedEmails[index],\n            _moreIsFound(certifiedEmails.length, index)\n        );\n    }\n\n    function getCertificate(\n        uint index\n    )\n        public\n        view\n        returns (address adr, bool more)\n    {\n        _checkValidity(certificates.length, index);\n\n        return(\n            certificates[index],\n            _moreIsFound(certificates.length, index)\n        );\n    }\n\n    function getCertifiedEmailFile(\n        uint index\n    )\n        public\n        view\n        returns (address adr, bool more)\n    {\n        _checkValidity(certifiedEmailFiles.length, index);\n\n        return (\n            certifiedEmailFiles[index],\n            _moreIsFound(certifiedEmailFiles.length, index)\n        );\n    }\n\n    function getCertifiedEmailEvent(\n        uint index\n    )\n        public\n        view\n        returns (address adr, bool more)\n    {\n        _checkValidity(certifiedEmailEvents.length, index);\n\n        return (\n            certifiedEmailEvents[index],\n            _moreIsFound(certifiedEmailEvents.length, index)\n        );\n    }\n\n    function getCertifiedFileById(\n        string memory id\n    )\n        public\n        view\n        returns (address)\n    {\n        require(\n            certifiedFilesIndexes[id] != address(0),\n            \"This id doesnt correspond to any saved signature\"\n        );\n\n        return certifiedFilesIndexes[id];\n    }\n\n    function getCertifiedFile(\n        uint index\n    )\n        public\n        view\n        returns (address adr, bool more)\n    {\n        _checkValidity(certifiedFiles.length, index);\n\n        return (\n            certifiedFiles[index],\n            _moreIsFound(certifiedFiles.length, index)\n        );\n    }\n\n    function getSignaturesCount()\n        public\n        view\n        returns (uint256 count)\n    {\n        return signatures.length;\n    }\n\n    function getDocumentsCount()\n        public\n        view\n        returns (uint256 count)\n    {\n        return documents.length;\n    }\n\n    function getSignatureFilesCount()\n        public\n        view\n        returns (uint256 count)\n    {\n        return signatureFiles.length;\n    }\n\n    function getSignatureEventsCount()\n        public\n        view\n        returns (uint256 count)\n    {\n        return signatureEvents.length;\n    }\n\n    function getCertifiedEmailsCount()\n        public\n        view\n        returns (uint256 count)\n    {\n        return certifiedEmails.length;\n    }\n\n    function getCertificatesCount()\n        public\n        view\n        returns (uint256 count)\n    {\n        return certificates.length;\n    }\n\n    function getCertifiedEmailFilesCount()\n        public\n        view\n        returns (uint256 count)\n    {\n        return certifiedEmailFiles.length;\n    }\n\n    function getCertifiedEmailEventsCount()\n        public\n        view\n        returns (uint256 count)\n    {\n        return certifiedEmailEvents.length;\n    }\n\n    function getCertifiedFilesCount()\n        public\n        view\n        returns (uint256 count)\n    {\n        return certifiedFiles.length;\n    }\n\n    function _checkValidity(\n        uint length,\n        uint index\n    )\n        internal\n        pure\n    {\n        require(\n            index < length,\n            \"This element doesn't exist\"\n        );\n    }\n\n    function _moreIsFound(\n        uint length,\n        uint index\n    )\n        internal\n        pure\n        returns (bool)\n    {\n        return length > index + 1 ? true : false;\n    }\n}\n",
  "sourcePath": "/home/administrator/workspace/bc-smart-contracts/contracts/User.sol",
  "compiler": {
    "name": "solc",
    "version": "0.5.0+commit.1d4f565a.Emscripten.clang"
  },
  "schemaVersion": "3.0.11",
  "updatedAt": "2019-07-05T13:37:35.297Z",
  "devdoc": {
    "methods": {}
  },
  "userdoc": {
    "methods": {}
  }
}