{
  "contractName": "User",
  "abi": [
    {
      "constant": true,
      "inputs": [
        {
          "name": "",
          "type": "uint256"
        }
      ],
      "name": "certifiedEmailFiles",
      "outputs": [
        {
          "name": "",
          "type": "address"
        }
      ],
      "payable": false,
      "stateMutability": "view",
      "type": "function"
    },
    {
      "constant": true,
      "inputs": [
        {
          "name": "",
          "type": "uint256"
        }
      ],
      "name": "certifiedFiles",
      "outputs": [
        {
          "name": "",
          "type": "address"
        }
      ],
      "payable": false,
      "stateMutability": "view",
      "type": "function"
    },
    {
      "constant": true,
      "inputs": [
        {
          "name": "",
          "type": "uint256"
        }
      ],
      "name": "signatureFiles",
      "outputs": [
        {
          "name": "",
          "type": "address"
        }
      ],
      "payable": false,
      "stateMutability": "view",
      "type": "function"
    },
    {
      "constant": true,
      "inputs": [],
      "name": "certificatePublicKey",
      "outputs": [
        {
          "name": "",
          "type": "string"
        }
      ],
      "payable": false,
      "stateMutability": "view",
      "type": "function"
    },
    {
      "constant": true,
      "inputs": [
        {
          "name": "",
          "type": "uint256"
        }
      ],
      "name": "certificates",
      "outputs": [
        {
          "name": "",
          "type": "address"
        }
      ],
      "payable": false,
      "stateMutability": "view",
      "type": "function"
    },
    {
      "constant": true,
      "inputs": [],
      "name": "signaturitAddress",
      "outputs": [
        {
          "name": "",
          "type": "address"
        }
      ],
      "payable": false,
      "stateMutability": "view",
      "type": "function"
    },
    {
      "constant": true,
      "inputs": [
        {
          "name": "",
          "type": "uint256"
        }
      ],
      "name": "certifiedEmailEvents",
      "outputs": [
        {
          "name": "",
          "type": "address"
        }
      ],
      "payable": false,
      "stateMutability": "view",
      "type": "function"
    },
    {
      "constant": true,
      "inputs": [
        {
          "name": "",
          "type": "uint256"
        }
      ],
      "name": "signatureEvents",
      "outputs": [
        {
          "name": "",
          "type": "address"
        }
      ],
      "payable": false,
      "stateMutability": "view",
      "type": "function"
    },
    {
      "constant": true,
      "inputs": [
        {
          "name": "",
          "type": "uint256"
        }
      ],
      "name": "signatures",
      "outputs": [
        {
          "name": "",
          "type": "address"
        }
      ],
      "payable": false,
      "stateMutability": "view",
      "type": "function"
    },
    {
      "constant": true,
      "inputs": [
        {
          "name": "",
          "type": "uint256"
        }
      ],
      "name": "documents",
      "outputs": [
        {
          "name": "",
          "type": "address"
        }
      ],
      "payable": false,
      "stateMutability": "view",
      "type": "function"
    },
    {
      "constant": true,
      "inputs": [],
      "name": "userAddress",
      "outputs": [
        {
          "name": "",
          "type": "address"
        }
      ],
      "payable": false,
      "stateMutability": "view",
      "type": "function"
    },
    {
      "constant": true,
      "inputs": [
        {
          "name": "",
          "type": "uint256"
        }
      ],
      "name": "certifiedEmails",
      "outputs": [
        {
          "name": "",
          "type": "address"
        }
      ],
      "payable": false,
      "stateMutability": "view",
      "type": "function"
    },
    {
      "inputs": [
        {
          "name": "_userAddress",
          "type": "address"
        }
      ],
      "payable": false,
      "stateMutability": "nonpayable",
      "type": "constructor"
    },
    {
      "anonymous": false,
      "inputs": [
        {
          "indexed": false,
          "name": "adr",
          "type": "address"
        }
      ],
      "name": "SignatureAdded",
      "type": "event"
    },
    {
      "anonymous": false,
      "inputs": [
        {
          "indexed": false,
          "name": "adr",
          "type": "address"
        }
      ],
      "name": "DocumentAdded",
      "type": "event"
    },
    {
      "anonymous": false,
      "inputs": [
        {
          "indexed": false,
          "name": "adr",
          "type": "address"
        },
        {
          "indexed": false,
          "name": "source",
          "type": "string"
        }
      ],
      "name": "FileAdded",
      "type": "event"
    },
    {
      "anonymous": false,
      "inputs": [
        {
          "indexed": false,
          "name": "adr",
          "type": "address"
        },
        {
          "indexed": false,
          "name": "source",
          "type": "string"
        }
      ],
      "name": "EventAdded",
      "type": "event"
    },
    {
      "anonymous": false,
      "inputs": [
        {
          "indexed": false,
          "name": "adr",
          "type": "address"
        }
      ],
      "name": "CertifiedEmailAdded",
      "type": "event"
    },
    {
      "anonymous": false,
      "inputs": [
        {
          "indexed": false,
          "name": "key",
          "type": "string"
        }
      ],
      "name": "CertificatePublickeySet",
      "type": "event"
    },
    {
      "anonymous": false,
      "inputs": [
        {
          "indexed": false,
          "name": "adr",
          "type": "address"
        }
      ],
      "name": "CertificateAdded",
      "type": "event"
    },
    {
      "anonymous": false,
      "inputs": [
        {
          "indexed": false,
          "name": "adr",
          "type": "address"
        }
      ],
      "name": "CertifiedFileAdded",
      "type": "event"
    },
    {
      "anonymous": false,
      "inputs": [
        {
          "indexed": false,
          "name": "clauseContract",
          "type": "address"
        },
        {
          "indexed": false,
          "name": "notificationType",
          "type": "string"
        },
        {
          "indexed": false,
          "name": "id",
          "type": "string"
        }
      ],
      "name": "ClauseNotification",
      "type": "event"
    },
    {
      "constant": false,
      "inputs": [
        {
          "name": "key",
          "type": "string"
        }
      ],
      "name": "setCertificatePublicKey",
      "outputs": [],
      "payable": false,
      "stateMutability": "nonpayable",
      "type": "function"
    },
    {
      "constant": false,
      "inputs": [
        {
          "name": "signatureAddress",
          "type": "address"
        },
        {
          "name": "id",
          "type": "string"
        }
      ],
      "name": "addSignature",
      "outputs": [],
      "payable": false,
      "stateMutability": "nonpayable",
      "type": "function"
    },
    {
      "constant": false,
      "inputs": [
        {
          "name": "documentAddress",
          "type": "address"
        }
      ],
      "name": "addDocument",
      "outputs": [],
      "payable": false,
      "stateMutability": "nonpayable",
      "type": "function"
    },
    {
      "constant": false,
      "inputs": [
        {
          "name": "fileType",
          "type": "string"
        },
        {
          "name": "fileAddress",
          "type": "address"
        }
      ],
      "name": "addFile",
      "outputs": [],
      "payable": false,
      "stateMutability": "nonpayable",
      "type": "function"
    },
    {
      "constant": false,
      "inputs": [
        {
          "name": "eventSource",
          "type": "string"
        },
        {
          "name": "eventAddress",
          "type": "address"
        }
      ],
      "name": "addEvent",
      "outputs": [],
      "payable": false,
      "stateMutability": "nonpayable",
      "type": "function"
    },
    {
      "constant": false,
      "inputs": [
        {
          "name": "certifiedEmailAddress",
          "type": "address"
        },
        {
          "name": "id",
          "type": "string"
        }
      ],
      "name": "addCertifiedEmail",
      "outputs": [],
      "payable": false,
      "stateMutability": "nonpayable",
      "type": "function"
    },
    {
      "constant": false,
      "inputs": [
        {
          "name": "certificate",
          "type": "address"
        }
      ],
      "name": "addCertificate",
      "outputs": [],
      "payable": false,
      "stateMutability": "nonpayable",
      "type": "function"
    },
    {
      "constant": false,
      "inputs": [
        {
          "name": "certifiedFileAddress",
          "type": "address"
        },
        {
          "name": "id",
          "type": "string"
        }
      ],
      "name": "addCertifiedFile",
      "outputs": [],
      "payable": false,
      "stateMutability": "nonpayable",
      "type": "function"
    },
    {
      "constant": false,
      "inputs": [
        {
          "name": "clauseContract",
          "type": "address"
        },
        {
          "name": "notificationType",
          "type": "string"
        },
        {
          "name": "id",
          "type": "string"
        }
      ],
      "name": "clauseNotification",
      "outputs": [],
      "payable": false,
      "stateMutability": "nonpayable",
      "type": "function"
    },
    {
      "constant": true,
      "inputs": [
        {
          "name": "id",
          "type": "string"
        }
      ],
      "name": "getSignatureById",
      "outputs": [
        {
          "name": "",
          "type": "address"
        }
      ],
      "payable": false,
      "stateMutability": "view",
      "type": "function"
    },
    {
      "constant": true,
      "inputs": [
        {
          "name": "index",
          "type": "uint256"
        }
      ],
      "name": "getSignature",
      "outputs": [
        {
          "name": "adr",
          "type": "address"
        },
        {
          "name": "more",
          "type": "bool"
        }
      ],
      "payable": false,
      "stateMutability": "view",
      "type": "function"
    },
    {
      "constant": true,
      "inputs": [
        {
          "name": "index",
          "type": "uint256"
        }
      ],
      "name": "getDocument",
      "outputs": [
        {
          "name": "adr",
          "type": "address"
        },
        {
          "name": "more",
          "type": "bool"
        }
      ],
      "payable": false,
      "stateMutability": "view",
      "type": "function"
    },
    {
      "constant": true,
      "inputs": [
        {
          "name": "index",
          "type": "uint256"
        }
      ],
      "name": "getSignatureFile",
      "outputs": [
        {
          "name": "adr",
          "type": "address"
        },
        {
          "name": "more",
          "type": "bool"
        }
      ],
      "payable": false,
      "stateMutability": "view",
      "type": "function"
    },
    {
      "constant": true,
      "inputs": [
        {
          "name": "index",
          "type": "uint256"
        }
      ],
      "name": "getSignatureEvent",
      "outputs": [
        {
          "name": "adr",
          "type": "address"
        },
        {
          "name": "more",
          "type": "bool"
        }
      ],
      "payable": false,
      "stateMutability": "view",
      "type": "function"
    },
    {
      "constant": true,
      "inputs": [
        {
          "name": "id",
          "type": "string"
        }
      ],
      "name": "getCertifiedEmailById",
      "outputs": [
        {
          "name": "",
          "type": "address"
        }
      ],
      "payable": false,
      "stateMutability": "view",
      "type": "function"
    },
    {
      "constant": true,
      "inputs": [
        {
          "name": "index",
          "type": "uint256"
        }
      ],
      "name": "getCertifiedEmail",
      "outputs": [
        {
          "name": "adr",
          "type": "address"
        },
        {
          "name": "more",
          "type": "bool"
        }
      ],
      "payable": false,
      "stateMutability": "view",
      "type": "function"
    },
    {
      "constant": true,
      "inputs": [
        {
          "name": "index",
          "type": "uint256"
        }
      ],
      "name": "getCertificate",
      "outputs": [
        {
          "name": "adr",
          "type": "address"
        },
        {
          "name": "more",
          "type": "bool"
        }
      ],
      "payable": false,
      "stateMutability": "view",
      "type": "function"
    },
    {
      "constant": true,
      "inputs": [
        {
          "name": "index",
          "type": "uint256"
        }
      ],
      "name": "getCertifiedEmailFile",
      "outputs": [
        {
          "name": "adr",
          "type": "address"
        },
        {
          "name": "more",
          "type": "bool"
        }
      ],
      "payable": false,
      "stateMutability": "view",
      "type": "function"
    },
    {
      "constant": true,
      "inputs": [
        {
          "name": "index",
          "type": "uint256"
        }
      ],
      "name": "getCertifiedEmailEvent",
      "outputs": [
        {
          "name": "adr",
          "type": "address"
        },
        {
          "name": "more",
          "type": "bool"
        }
      ],
      "payable": false,
      "stateMutability": "view",
      "type": "function"
    },
    {
      "constant": true,
      "inputs": [
        {
          "name": "id",
          "type": "string"
        }
      ],
      "name": "getCertifiedFileById",
      "outputs": [
        {
          "name": "",
          "type": "address"
        }
      ],
      "payable": false,
      "stateMutability": "view",
      "type": "function"
    },
    {
      "constant": true,
      "inputs": [
        {
          "name": "index",
          "type": "uint256"
        }
      ],
      "name": "getCertifiedFile",
      "outputs": [
        {
          "name": "adr",
          "type": "address"
        },
        {
          "name": "more",
          "type": "bool"
        }
      ],
      "payable": false,
      "stateMutability": "view",
      "type": "function"
    },
    {
      "constant": true,
      "inputs": [],
      "name": "getSignaturesCount",
      "outputs": [
        {
          "name": "count",
          "type": "uint256"
        }
      ],
      "payable": false,
      "stateMutability": "view",
      "type": "function"
    },
    {
      "constant": true,
      "inputs": [],
      "name": "getDocumentsCount",
      "outputs": [
        {
          "name": "count",
          "type": "uint256"
        }
      ],
      "payable": false,
      "stateMutability": "view",
      "type": "function"
    },
    {
      "constant": true,
      "inputs": [],
      "name": "getSignatureFilesCount",
      "outputs": [
        {
          "name": "count",
          "type": "uint256"
        }
      ],
      "payable": false,
      "stateMutability": "view",
      "type": "function"
    },
    {
      "constant": true,
      "inputs": [],
      "name": "getSignatureEventsCount",
      "outputs": [
        {
          "name": "count",
          "type": "uint256"
        }
      ],
      "payable": false,
      "stateMutability": "view",
      "type": "function"
    },
    {
      "constant": true,
      "inputs": [],
      "name": "getCertifiedEmailsCount",
      "outputs": [
        {
          "name": "count",
          "type": "uint256"
        }
      ],
      "payable": false,
      "stateMutability": "view",
      "type": "function"
    },
    {
      "constant": true,
      "inputs": [],
      "name": "getCertificatesCount",
      "outputs": [
        {
          "name": "count",
          "type": "uint256"
        }
      ],
      "payable": false,
      "stateMutability": "view",
      "type": "function"
    },
    {
      "constant": true,
      "inputs": [],
      "name": "getCertifiedEmailFilesCount",
      "outputs": [
        {
          "name": "count",
          "type": "uint256"
        }
      ],
      "payable": false,
      "stateMutability": "view",
      "type": "function"
    },
    {
      "constant": true,
      "inputs": [],
      "name": "getCertifiedEmailEventsCount",
      "outputs": [
        {
          "name": "count",
          "type": "uint256"
        }
      ],
      "payable": false,
      "stateMutability": "view",
      "type": "function"
    },
    {
      "constant": true,
      "inputs": [],
      "name": "getCertifiedFilesCount",
      "outputs": [
        {
          "name": "count",
          "type": "uint256"
        }
      ],
      "payable": false,
      "stateMutability": "view",
      "type": "function"
    }
  ],
  "bytecode": "0x608060405234801561001057600080fd5b506040516020806126958339810180604052602081101561003057600080fd5b50516004805433600160a060020a03199182161790915560058054909116600160a060020a039092169190911790556126278061006e6000396000f3fe6080604052600436106101ea5763ffffffff60e060020a60003504166302a569e681146101ef57806307158d5d1461023c5780630bcf963b1461026657806314a4cf3a1461028d57806316afb87f1461034b5780631892ae1b1461039157806321624b471461044257806334fa5f7e146105035780633b39e7bb1461052d5780633f9b250a14610542578063446521ca1461056c57806349a869b21461061d57806351640fee14610647578063588c5486146106715780635c1f3a56146106865780635e54f82e1461069b57806362430dd814610725578063663b3e221461074f57806369b8eda4146107795780636d1ff7511461078e578063758176081461083f5780637912d6ac146109005780637c37ab061461092a5780637c6ebde91461095d5780637d663473146109905780638237ab83146109a557806383428a79146109ba5780638be10194146109e45780638fb03a0214610a0e578063aaa7f4f914610a23578063aad47bca14610ae4578063b2611a7514610b0e578063bd9b812e14610b38578063c0a715d014610b62578063c2ed2b0514610c1e578063c50679fc14610c48578063d71f365a14610c72578063e068f27314610db8578063e4128fb314610e69578063ecc7f18314610e7e578063fa4123a614610e93578063fd52c3f614610ebd575b600080fd5b3480156101fb57600080fd5b506102196004803603602081101561021257600080fd5b5035610ed2565b60408051600160a060020a03909316835290151560208301528051918290030190f35b34801561024857600080fd5b506102196004803603602081101561025f57600080fd5b5035610f20565b34801561027257600080fd5b5061027b610f65565b60408051918252519081900360200190f35b34801561029957600080fd5b50610349600480360360408110156102b057600080fd5b810190602081018135602060020a8111156102ca57600080fd5b8201836020820111156102dc57600080fd5b803590602001918460018302840111602060020a831117156102fd57600080fd5b91908080601f01602080910402602001604051908101604052809392919081815260200183838082843760009201919091525092955050509035600160a060020a03169150610f6c9050565b005b34801561035757600080fd5b506103756004803603602081101561036e57600080fd5b503561127d565b60408051600160a060020a039092168252519081900360200190f35b34801561039d57600080fd5b50610375600480360360208110156103b457600080fd5b810190602081018135602060020a8111156103ce57600080fd5b8201836020820111156103e057600080fd5b803590602001918460018302840111602060020a8311171561040157600080fd5b91908080601f0160208091040260200160405190810160405280939291908181526020018383808284376000920191909152509295506112a5945050505050565b34801561044e57600080fd5b506103496004803603604081101561046557600080fd5b600160a060020a038235169190810190604081016020820135602060020a81111561048f57600080fd5b8201836020820111156104a157600080fd5b803590602001918460018302840111602060020a831117156104c257600080fd5b91908080601f0160208091040260200160405190810160405280939291908181526020018383808284376000920191909152509295506113ee945050505050565b34801561050f57600080fd5b506103756004803603602081101561052657600080fd5b5035611544565b34801561053957600080fd5b5061027b611552565b34801561054e57600080fd5b506102196004803603602081101561056557600080fd5b5035611558565b34801561057857600080fd5b506103756004803603602081101561058f57600080fd5b810190602081018135602060020a8111156105a957600080fd5b8201836020820111156105bb57600080fd5b803590602001918460018302840111602060020a831117156105dc57600080fd5b91908080601f01602080910402602001604051908101604052809392919081815260200183838082843760009201919091525092955061159d945050505050565b34801561062957600080fd5b506103756004803603602081101561064057600080fd5b50356116a8565b34801561065357600080fd5b506102196004803603602081101561066a57600080fd5b50356116b6565b34801561067d57600080fd5b5061027b6116fb565b34801561069257600080fd5b5061027b611701565b3480156106a757600080fd5b506106b0611707565b6040805160208082528351818301528351919283929083019185019080838360005b838110156106ea5781810151838201526020016106d2565b50505050905090810190601f1680156107175780820380516001836020036101000a031916815260200191505b509250505060405180910390f35b34801561073157600080fd5b506102196004803603602081101561074857600080fd5b5035611795565b34801561075b57600080fd5b506103756004803603602081101561077257600080fd5b50356117da565b34801561078557600080fd5b506103756117e8565b34801561079a57600080fd5b50610375600480360360208110156107b157600080fd5b810190602081018135602060020a8111156107cb57600080fd5b8201836020820111156107dd57600080fd5b803590602001918460018302840111602060020a831117156107fe57600080fd5b91908080601f0160208091040260200160405190810160405280939291908181526020018383808284376000920191909152509295506117f7945050505050565b34801561084b57600080fd5b506103496004803603604081101561086257600080fd5b600160a060020a038235169190810190604081016020820135602060020a81111561088c57600080fd5b82018360208201111561089e57600080fd5b803590602001918460018302840111602060020a831117156108bf57600080fd5b91908080601f01602080910402602001604051908101604052809392919081815260200183838082843760009201919091525092955061190c945050505050565b34801561090c57600080fd5b506103756004803603602081101561092357600080fd5b5035611a62565b34801561093657600080fd5b506103496004803603602081101561094d57600080fd5b5035600160a060020a0316611a70565b34801561096957600080fd5b506103496004803603602081101561098057600080fd5b5035600160a060020a0316611b58565b34801561099c57600080fd5b5061027b611c40565b3480156109b157600080fd5b5061027b611c46565b3480156109c657600080fd5b50610375600480360360208110156109dd57600080fd5b5035611c4c565b3480156109f057600080fd5b5061037560048036036020811015610a0757600080fd5b5035611c5a565b348015610a1a57600080fd5b5061027b611c68565b348015610a2f57600080fd5b5061034960048036036040811015610a4657600080fd5b600160a060020a038235169190810190604081016020820135602060020a811115610a7057600080fd5b820183602082011115610a8257600080fd5b803590602001918460018302840111602060020a83111715610aa357600080fd5b91908080601f016020809104026020016040519081016040528093929190818152602001838380828437600092019190915250929550611c6e945050505050565b348015610af057600080fd5b5061021960048036036020811015610b0757600080fd5b5035611dc4565b348015610b1a57600080fd5b5061021960048036036020811015610b3157600080fd5b5035611e09565b348015610b4457600080fd5b5061021960048036036020811015610b5b57600080fd5b5035611e4e565b348015610b6e57600080fd5b5061034960048036036040811015610b8557600080fd5b810190602081018135602060020a811115610b9f57600080fd5b820183602082011115610bb157600080fd5b803590602001918460018302840111602060020a83111715610bd257600080fd5b91908080601f01602080910402602001604051908101604052809392919081815260200183838082843760009201919091525092955050509035600160a060020a03169150611e939050565b348015610c2a57600080fd5b5061037560048036036020811015610c4157600080fd5b5035612164565b348015610c5457600080fd5b5061021960048036036020811015610c6b57600080fd5b5035612172565b348015610c7e57600080fd5b5061034960048036036060811015610c9557600080fd5b600160a060020a038235169190810190604081016020820135602060020a811115610cbf57600080fd5b820183602082011115610cd157600080fd5b803590602001918460018302840111602060020a83111715610cf257600080fd5b91908080601f0160208091040260200160405190810160405280939291908181526020018383808284376000920191909152509295949360208101935035915050602060020a811115610d4457600080fd5b820183602082011115610d5657600080fd5b803590602001918460018302840111602060020a83111715610d7757600080fd5b91908080601f0160208091040260200160405190810160405280939291908181526020018383808284376000920191909152509295506121b7945050505050565b348015610dc457600080fd5b5061034960048036036020811015610ddb57600080fd5b810190602081018135602060020a811115610df557600080fd5b820183602082011115610e0757600080fd5b803590602001918460018302840111602060020a83111715610e2857600080fd5b91908080601f01602080910402602001604051908101604052809392919081815260200183838082843760009201919091525092955061233a945050505050565b348015610e7557600080fd5b50610375612462565b348015610e8a57600080fd5b5061027b612471565b348015610e9f57600080fd5b5061037560048036036020811015610eb657600080fd5b5035612477565b348015610ec957600080fd5b5061027b612485565b600080610ee46006805490508461248b565b6006805484908110610ef257fe5b600091825260209091200154600654600160a060020a0390911690610f1790856124e6565b91509150915091565b600080610f32600c805490508461248b565b600c805484908110610f4057fe5b600091825260209091200154600c54600160a060020a0390911690610f1790856124e6565b6007545b90565b600454600160a060020a03163214610fd0576040805160e560020a62461bcd02815260206004820152602f60248201526000805160206125dc833981519152604482015260008051602061259c833981519152606482015290519081900360840190fd5b604051602001808060b860020a687369676e617475726502815250600901905060405160208183030381529060405280519060200120826040516020018082805190602001908083835b602083106110395780518252601f19909201916020918201910161101a565b6001836020036101000a0380198251168184511680821785525050505050509050019150506040516020818303038152906040528051906020012014156110ca57600a80546001810182556000919091527fc65a7bb8d6351c1cf70c95a316cc6a92839c986682d98bc35f958f4883f9d2a8018054600160a060020a031916600160a060020a0383161790556111c6565b6040516020018080608a60020a6e18d95c9d1a599a595917d95b585a5b02815250600f01905060405160208183030381529060405280519060200120826040516020018082805190602001908083835b602083106111395780518252601f19909201916020918201910161111a565b6001836020036101000a0380198251168184511680821785525050505050509050019150506040516020818303038152906040528051906020012014156111c657600b80546001810182556000919091527f0175b7a638427703f0dbe7bb9bbf987a2551717b34e79f33b5b1008d1fa01db9018054600160a060020a031916600160a060020a0383161790555b7f153594e72b817d485e2869681e89c7d4380a6c15a2024abbeefdc6e75995102f81836040518083600160a060020a0316600160a060020a0316815260200180602001828103825283818151815260200191508051906020019080838360005b8381101561123e578181015183820152602001611226565b50505050905090810190601f16801561126b5780820380516001836020036101000a031916815260200191505b50935050505060405180910390a15050565b600980548290811061128b57fe5b600091825260209091200154600160a060020a0316905081565b600080600160a060020a03166011836040518082805190602001908083835b602083106112e35780518252601f1990920191602091820191016112c4565b51815160209384036101000a6000190180199092169116179052920194855250604051938490030190922054600160a060020a03169290921415915061137f9050576040805160e560020a62461bcd02815260206004820152603060248201526000805160206125bc8339815191526044820152608060020a6f207361766564207369676e617475726502606482015290519081900360840190fd5b6011826040518082805190602001908083835b602083106113b15780518252601f199092019160209182019101611392565b51815160209384036101000a6000190180199092169116179052920194855250604051938490030190922054600160a060020a0316949350505050565b600454600160a060020a03163214611452576040805160e560020a62461bcd02815260206004820152602f60248201526000805160206125dc833981519152604482015260008051602061259c833981519152606482015290519081900360840190fd5b81600f826040518082805190602001908083835b602083106114855780518252601f199092019160209182019101611466565b51815160209384036101000a60001901801990921691161790529201948552506040805194859003820185208054600160a060020a0319908116600160a060020a0398891617909155600680546001810182556000919091527ff652222313e28459528d920b65115c16c04f3efc82aaedc97be59f3f377c0d3f018054909116968916968717905594845293517f6e810e4496ec107fcad4184c63e69d6d90f2d83c7aaf9a6f3a2bbc428b8846b8949381900390930192915050a15050565b600e80548290811061128b57fe5b600e5490565b60008061156a6007805490508461248b565b600780548490811061157857fe5b600091825260209091200154600754600160a060020a0390911690610f1790856124e6565b600080600160a060020a0316600f836040518082805190602001908083835b602083106115db5780518252601f1990920191602091820191016115bc565b51815160209384036101000a6000190180199092169116179052920194855250604051938490030190922054600160a060020a0316929092141591506116779050576040805160e560020a62461bcd02815260206004820152603060248201526000805160206125bc8339815191526044820152608060020a6f207361766564207369676e617475726502606482015290519081900360840190fd5b600f82604051808280519060200190808383602083106113b15780518252601f199092019160209182019101611392565b600880548290811061128b57fe5b6000806116c8600d805490508461248b565b600d8054849081106116d657fe5b600091825260209091200154600d54600160a060020a0390911690610f1790856124e6565b600a5490565b600b5490565b6003805460408051602060026001851615610100026000190190941693909304601f8101849004840282018401909252818152929183018282801561178d5780601f106117625761010080835404028352916020019161178d565b820191906000526020600020905b81548152906001019060200180831161177057829003601f168201915b505050505081565b6000806117a76008805490508461248b565b60088054849081106117b557fe5b600091825260209091200154600854600160a060020a0390911690610f1790856124e6565b600d80548290811061128b57fe5b600454600160a060020a031681565b600080600160a060020a03166010836040518082805190602001908083835b602083106118355780518252601f199092019160209182019101611816565b51815160209384036101000a6000190180199092169116179052920194855250604051938490030190922054600160a060020a0316929092141591506118db9050576040805160e560020a62461bcd02815260206004820152603660248201526000805160206125bc83398151915260448201527f2073617665642063657274696669656420656d61696c00000000000000000000606482015290519081900360840190fd5b601082604051808280519060200190808383602083106113b15780518252601f199092019160209182019101611392565b600454600160a060020a03163214611970576040805160e560020a62461bcd02815260206004820152602f60248201526000805160206125dc833981519152604482015260008051602061259c833981519152606482015290519081900360840190fd5b816011826040518082805190602001908083835b602083106119a35780518252601f199092019160209182019101611984565b51815160209384036101000a60001901801990921691161790529201948552506040805194859003820185208054600160a060020a0319908116600160a060020a0398891617909155600e80546001810182556000919091527fbb7b4a454dc3493923482f07822329ed19e8244eff582cc204f8554c3620c3fd018054909116968916968717905594845293517f83f6f626c1a7bb935e511aed9ae646cd24de53fb86ce032632fef62d2f573462949381900390930192915050a15050565b600b80548290811061128b57fe5b600454600160a060020a03163214611ad4576040805160e560020a62461bcd02815260206004820152602f60248201526000805160206125dc833981519152604482015260008051602061259c833981519152606482015290519081900360840190fd5b600780546001810182556000919091527fa66cc928b5edb82af9bd49922954155ab7b0942694bea4ce44661d9a8736c688018054600160a060020a038316600160a060020a0319909116811790915560408051918252517f789ba6f7cf2054e80c94618ed522f3f52ea04a6d85eac2eda1ff5b88c9a0e9a79181900360200190a150565b600454600160a060020a03163214611bbc576040805160e560020a62461bcd02815260206004820152602f60248201526000805160206125dc833981519152604482015260008051602061259c833981519152606482015290519081900360840190fd5b600d80546001810182556000919091527fd7b6990105719101dabeb77144f2a3385c8033acd3af97e9423a695e81ad1eb5018054600160a060020a038316600160a060020a0319909116811790915560408051918252517f6697c31d0c16a2d80cf5bde8e7ed12c5fb8d8c5ca0f1364a9caa0a56b39c54579181900360200190a150565b600c5490565b60085490565b600a80548290811061128b57fe5b600680548290811061128b57fe5b600d5490565b600454600160a060020a03163214611cd2576040805160e560020a62461bcd02815260206004820152602f60248201526000805160206125dc833981519152604482015260008051602061259c833981519152606482015290519081900360840190fd5b816010826040518082805190602001908083835b60208310611d055780518252601f199092019160209182019101611ce6565b51815160209384036101000a60001901801990921691161790529201948552506040805194859003820185208054600160a060020a0319908116600160a060020a0398891617909155600c80546001810182556000919091527fdf6966c971051c3d54ec59162606531493a51404a002842f56009d7e5cf4a8c7018054909116968916968717905594845293517f5df292efd50cbb25e17f64216e52404df76c8f7effc90cd6e1566d56a6fea45a949381900390930192915050a15050565b600080611dd6600a805490508461248b565b600a805484908110611de457fe5b600091825260209091200154600a54600160a060020a0390911690610f1790856124e6565b600080611e1b6009805490508461248b565b6009805484908110611e2957fe5b600091825260209091200154600954600160a060020a0390911690610f1790856124e6565b600080611e60600b805490508461248b565b600b805484908110611e6e57fe5b600091825260209091200154600b54600160a060020a0390911690610f1790856124e6565b600454600160a060020a03163214611ef7576040805160e560020a62461bcd02815260206004820152602f60248201526000805160206125dc833981519152604482015260008051602061259c833981519152606482015290519081900360840190fd5b604051602001808060b860020a687369676e617475726502815250600901905060405160208183030381529060405280519060200120826040516020018082805190602001908083835b60208310611f605780518252601f199092019160209182019101611f41565b6001836020036101000a038019825116818451168082178552505050505050905001915050604051602081830303815290604052805190602001201415611ff157600880546001810182556000919091527ff3f7a9fe364faab93b216da50a3214154f22a0a2b415b23a84c8169e8b636ee3018054600160a060020a031916600160a060020a0383161790556120ed565b6040516020018080608a60020a6e18d95c9d1a599a595917d95b585a5b02815250600f01905060405160208183030381529060405280519060200120826040516020018082805190602001908083835b602083106120605780518252601f199092019160209182019101612041565b6001836020036101000a0380198251168184511680821785525050505050509050019150506040516020818303038152906040528051906020012014156120ed57600980546001810182556000919091527f6e1540171b6c0c960b71a7020d9f60077f6af931a8bbf590da0223dacf75c7af018054600160a060020a031916600160a060020a0383161790555b7f771ad20575501c8cafc4a8793006515911d6e497fd5838018654c9b50347430c81836040518083600160a060020a0316600160a060020a0316815260200180602001828103825283818151815260200191508051906020019080838360008381101561123e578181015183820152602001611226565b600780548290811061128b57fe5b600080612184600e805490508461248b565b600e80548490811061219257fe5b600091825260209091200154600e54600160a060020a0390911690610f1790856124e6565b600454600160a060020a0316321461221b576040805160e560020a62461bcd02815260206004820152602f60248201526000805160206125dc833981519152604482015260008051602061259c833981519152606482015290519081900360840190fd5b7fdfcda696c29045066e7cd8cb3800354bfb8705195f740b186cba894a7e2517e98383836040518084600160a060020a0316600160a060020a031681526020018060200180602001838103835285818151815260200191508051906020019080838360005b83811015612298578181015183820152602001612280565b50505050905090810190601f1680156122c55780820380516001836020036101000a031916815260200191505b50838103825284518152845160209182019186019080838360005b838110156122f85781810151838201526020016122e0565b50505050905090810190601f1680156123255780820380516001836020036101000a031916815260200191505b509550505050505060405180910390a1505050565b600454600160a060020a0316321461239e576040805160e560020a62461bcd02815260206004820152602f60248201526000805160206125dc833981519152604482015260008051602061259c833981519152606482015290519081900360840190fd5b80516123b1906003906020840190612503565b5060408051602080825260038054600260001961010060018416150201909116049183018290527f22b4eb86fca32b75cd9b81b9e6162fffbe60e087c7f1b597fb370a3df3436152939092918291820190849080156124515780601f1061242657610100808354040283529160200191612451565b820191906000526020600020905b81548152906001019060200180831161243457829003601f168201915b50509250505060405180910390a150565b600554600160a060020a031681565b60095490565b600c80548290811061128b57fe5b60065490565b8181106124e2576040805160e560020a62461bcd02815260206004820152601a60248201527f5468697320656c656d656e7420646f65736e2774206578697374000000000000604482015290519081900360640190fd5b5050565b60008160010183116124f95760006124fc565b60015b9392505050565b828054600181600116156101000203166002900490600052602060002090601f016020900481019282601f1061254457805160ff1916838001178555612571565b82800160010185558215612571579182015b82811115612571578251825591602001919060010190612556565b5061257d929150612581565b5090565b610f6991905b8082111561257d576000815560010161258756fe6f726d207468697320616374696f6e00000000000000000000000000000000005468697320696420646f65736e7420636f72726573706f6e6420746f20616e794f6e6c79205369676e617475726974206163636f756e742063616e2070657266a165627a7a7230582002828eab0974ac021ed9f665709b3e8c0226c15cfb2557daac94ce5b0c8faf620029",
  "source": "pragma solidity 0.5.0;\n\n/*Gas to deploy: 3.623.029 */\n\nimport \"./interfaces/UserInterface.sol\";\n\n\ncontract User is UserInterface {\n    string public certificatePublicKey;\n\n    address public signaturitAddress;\n    address public userAddress;\n\n    address[] public signatures;\n    address[] public documents;\n    address[] public signatureFiles;\n    address[] public certifiedEmailFiles;\n    address[] public signatureEvents;\n    address[] public certifiedEmailEvents;\n    address[] public certifiedEmails;\n    address[] public certificates;\n    address[] public certifiedFiles;\n\n    mapping(string => address) private signaturesIndexes;\n    mapping(string => address) private certifiedEmailsIndexes;\n    mapping(string => address) private certifiedFilesIndexes;\n\n    event SignatureAdded(address adr);\n    event DocumentAdded(address adr);\n    event FileAdded(address adr, string source);\n    event EventAdded(address adr, string source);\n    event CertifiedEmailAdded(address adr);\n    event CertificatePublickeySet(string key);\n    event CertificateAdded(address adr);\n    event CertifiedFileAdded(address adr);\n    event ClauseNotification(\n        address clauseContract,\n        string notificationType,\n        string id\n    );\n\n    constructor (address _userAddress) public {\n        signaturitAddress = msg.sender;\n        userAddress = _userAddress;\n    }\n\n    modifier signaturitOnly() {\n        require(\n            tx.origin == signaturitAddress,\n            \"Only Signaturit account can perform this action\"\n        );\n\n        _;\n    }\n\n    function setCertificatePublicKey(\n        string memory key\n    )\n        public\n        signaturitOnly\n    {\n        certificatePublicKey = key;\n        emit CertificatePublickeySet(certificatePublicKey);\n    }\n\n    function addSignature(\n        address signatureAddress,\n        string memory id\n    )\n        public\n        signaturitOnly\n    {\n        signaturesIndexes[id] = signatureAddress;\n        signatures.push(signatureAddress);\n\n        emit SignatureAdded(signatureAddress);\n    }\n\n    function addDocument(\n        address documentAddress\n    )\n        public\n        signaturitOnly\n    {\n        documents.push(documentAddress);\n\n        emit DocumentAdded(documentAddress);\n    }\n\n    function addFile(\n        string memory fileType,\n        address fileAddress\n    )\n        public\n        signaturitOnly\n    {\n        if (\n            keccak256(\n                abi.encodePacked((fileType))\n            ) == keccak256(\n                abi.encodePacked((\"signature\"))\n            )\n        ) {\n            signatureFiles.push(fileAddress);\n        } else if (\n            keccak256(\n                abi.encodePacked((fileType))\n            ) == keccak256(\n                abi.encodePacked((\"certified_email\"))\n            )\n        ) {\n            certifiedEmailFiles.push(fileAddress);\n        }\n\n        emit FileAdded(fileAddress, fileType);\n    }\n\n    function addEvent(\n        string memory eventSource,\n        address eventAddress\n    )\n        public\n        signaturitOnly\n    {\n        if (\n            keccak256(\n                abi.encodePacked((eventSource))\n            ) == keccak256(\n                abi.encodePacked((\"signature\"))\n            )\n        ) {\n            signatureEvents.push(eventAddress);\n        } else if (\n            keccak256(\n                abi.encodePacked((eventSource))\n            ) == keccak256(\n                abi.encodePacked((\"certified_email\"))\n            )\n        ) {\n            certifiedEmailEvents.push(eventAddress);\n        }\n\n        emit EventAdded(eventAddress, eventSource);\n    }\n\n    function addCertifiedEmail(\n        address certifiedEmailAddress,\n        string memory id\n    )\n        public\n        signaturitOnly\n    {\n        certifiedEmailsIndexes[id] = certifiedEmailAddress;\n        certifiedEmails.push(certifiedEmailAddress);\n\n        emit CertifiedEmailAdded(certifiedEmailAddress);\n    }\n\n    function addCertificate(\n        address certificate\n    )\n        public\n        signaturitOnly\n    {\n        certificates.push(certificate);\n\n        emit CertificateAdded(certificate);\n    }\n\n    function addCertifiedFile(\n        address certifiedFileAddress,\n        string memory id\n    )\n        public\n        signaturitOnly\n    {\n        certifiedFilesIndexes[id] = certifiedFileAddress;\n        certifiedFiles.push(certifiedFileAddress);\n\n        emit CertifiedFileAdded(certifiedFileAddress);\n    }\n\n    function clauseNotification(\n        address clauseContract,\n        string memory notificationType,\n        string memory id\n    )\n        public\n        signaturitOnly\n    {\n        emit ClauseNotification(\n            clauseContract,\n            notificationType,\n            id\n        );\n    }\n\n    function getSignatureById(\n        string memory id\n    )\n        public\n        view\n        returns (address)\n    {\n        require(\n            signaturesIndexes[id] != address(0),\n            \"This id doesnt correspond to any saved signature\"\n        );\n\n        return signaturesIndexes[id];\n    }\n\n    function getSignature(\n        uint index\n    )\n        public\n        view\n        returns (address adr, bool more)\n    {\n        _checkValidity(signatures.length, index);\n\n        return (\n            signatures[index],\n            _moreIsFound(signatures.length, index)\n        );\n    }\n\n    function getDocument(\n        uint index\n    )\n        public\n        view\n        returns (address adr, bool more)\n    {\n        _checkValidity(documents.length, index);\n\n        return (\n            documents[index],\n            _moreIsFound(documents.length, index)\n        );\n    }\n\n    function getSignatureFile(\n        uint index\n    )\n        public\n        view\n        returns (address adr, bool more)\n    {\n        _checkValidity(signatureFiles.length, index);\n\n        return (\n            signatureFiles[index],\n            _moreIsFound(signatureFiles.length, index)\n        );\n    }\n\n    function getSignatureEvent(\n        uint index\n    )\n        public\n        view\n        returns (address adr, bool more)\n    {\n        _checkValidity(signatureEvents.length, index);\n\n        return (\n            signatureEvents[index],\n            _moreIsFound(signatureEvents.length, index)\n        );\n    }\n\n    function getCertifiedEmailById(\n        string memory id\n    )\n        public\n        view\n        returns (address)\n    {\n        require(\n            certifiedEmailsIndexes[id] != address(0),\n            \"This id doesnt correspond to any saved certified email\"\n        );\n\n        return certifiedEmailsIndexes[id];\n    }\n\n    function getCertifiedEmail(\n        uint index\n    )\n        public\n        view\n        returns (address adr, bool more)\n    {\n        _checkValidity(certifiedEmails.length, index);\n\n        return(\n            certifiedEmails[index],\n            _moreIsFound(certifiedEmails.length, index)\n        );\n    }\n\n    function getCertificate(\n        uint index\n    )\n        public\n        view\n        returns (address adr, bool more)\n    {\n        _checkValidity(certificates.length, index);\n\n        return(\n            certificates[index],\n            _moreIsFound(certificates.length, index)\n        );\n    }\n\n    function getCertifiedEmailFile(\n        uint index\n    )\n        public\n        view\n        returns (address adr, bool more)\n    {\n        _checkValidity(certifiedEmailFiles.length, index);\n\n        return (\n            certifiedEmailFiles[index],\n            _moreIsFound(certifiedEmailFiles.length, index)\n        );\n    }\n\n    function getCertifiedEmailEvent(\n        uint index\n    )\n        public\n        view\n        returns (address adr, bool more)\n    {\n        _checkValidity(certifiedEmailEvents.length, index);\n\n        return (\n            certifiedEmailEvents[index],\n            _moreIsFound(certifiedEmailEvents.length, index)\n        );\n    }\n\n    function getCertifiedFileById(\n        string memory id\n    )\n        public\n        view\n        returns (address)\n    {\n        require(\n            certifiedFilesIndexes[id] != address(0),\n            \"This id doesnt correspond to any saved signature\"\n        );\n\n        return certifiedFilesIndexes[id];\n    }\n\n    function getCertifiedFile(\n        uint index\n    )\n        public\n        view\n        returns (address adr, bool more)\n    {\n        _checkValidity(certifiedFiles.length, index);\n\n        return (\n            certifiedFiles[index],\n            _moreIsFound(certifiedFiles.length, index)\n        );\n    }\n\n    function getSignaturesCount()\n        public\n        view\n        returns (uint256 count)\n    {\n        return signatures.length;\n    }\n\n    function getDocumentsCount()\n        public\n        view\n        returns (uint256 count)\n    {\n        return documents.length;\n    }\n\n    function getSignatureFilesCount()\n        public\n        view\n        returns (uint256 count)\n    {\n        return signatureFiles.length;\n    }\n\n    function getSignatureEventsCount()\n        public\n        view\n        returns (uint256 count)\n    {\n        return signatureEvents.length;\n    }\n\n    function getCertifiedEmailsCount()\n        public\n        view\n        returns (uint256 count)\n    {\n        return certifiedEmails.length;\n    }\n\n    function getCertificatesCount()\n        public\n        view\n        returns (uint256 count)\n    {\n        return certificates.length;\n    }\n\n    function getCertifiedEmailFilesCount()\n        public\n        view\n        returns (uint256 count)\n    {\n        return certifiedEmailFiles.length;\n    }\n\n    function getCertifiedEmailEventsCount()\n        public\n        view\n        returns (uint256 count)\n    {\n        return certifiedEmailEvents.length;\n    }\n\n    function getCertifiedFilesCount()\n        public\n        view\n        returns (uint256 count)\n    {\n        return certifiedFiles.length;\n    }\n\n    function _checkValidity(\n        uint length,\n        uint index\n    )\n        internal\n        pure\n    {\n        require(\n            index < length,\n            \"This element doesn't exist\"\n        );\n    }\n\n    function _moreIsFound(\n        uint length,\n        uint index\n    )\n        internal\n        pure\n        returns (bool)\n    {\n        return length > index + 1 ? true : false;\n    }\n}\n",
  "sourcePath": "/home/administrator/workspace/signaturit-solidity-contracts/contracts/User.sol",
  "compiler": {
    "name": "solc",
    "version": "0.5.0+commit.1d4f565a.Emscripten.clang"
  },
  "schemaVersion": "3.0.11",
  "updatedAt": "2019-08-06T14:13:53.148Z",
  "devdoc": {
    "methods": {}
  },
  "userdoc": {
    "methods": {}
  }
}