{
  "contractName": "User",
  "abi": [
    {
      "constant": true,
      "inputs": [
        {
          "name": "",
          "type": "uint256"
        }
      ],
      "name": "certifiedEmailFiles",
      "outputs": [
        {
          "name": "",
          "type": "address"
        }
      ],
      "payable": false,
      "stateMutability": "view",
      "type": "function"
    },
    {
      "constant": true,
      "inputs": [
        {
          "name": "",
          "type": "uint256"
        }
      ],
      "name": "certifiedFiles",
      "outputs": [
        {
          "name": "",
          "type": "address"
        }
      ],
      "payable": false,
      "stateMutability": "view",
      "type": "function"
    },
    {
      "constant": true,
      "inputs": [
        {
          "name": "",
          "type": "uint256"
        }
      ],
      "name": "signatureFiles",
      "outputs": [
        {
          "name": "",
          "type": "address"
        }
      ],
      "payable": false,
      "stateMutability": "view",
      "type": "function"
    },
    {
      "constant": true,
      "inputs": [],
      "name": "certificatePublicKey",
      "outputs": [
        {
          "name": "",
          "type": "string"
        }
      ],
      "payable": false,
      "stateMutability": "view",
      "type": "function"
    },
    {
      "constant": true,
      "inputs": [
        {
          "name": "",
          "type": "uint256"
        }
      ],
      "name": "certificates",
      "outputs": [
        {
          "name": "",
          "type": "address"
        }
      ],
      "payable": false,
      "stateMutability": "view",
      "type": "function"
    },
    {
      "constant": true,
      "inputs": [],
      "name": "signaturitAddress",
      "outputs": [
        {
          "name": "",
          "type": "address"
        }
      ],
      "payable": false,
      "stateMutability": "view",
      "type": "function"
    },
    {
      "constant": true,
      "inputs": [
        {
          "name": "",
          "type": "uint256"
        }
      ],
      "name": "certifiedEmailEvents",
      "outputs": [
        {
          "name": "",
          "type": "address"
        }
      ],
      "payable": false,
      "stateMutability": "view",
      "type": "function"
    },
    {
      "constant": true,
      "inputs": [
        {
          "name": "",
          "type": "uint256"
        }
      ],
      "name": "signatureEvents",
      "outputs": [
        {
          "name": "",
          "type": "address"
        }
      ],
      "payable": false,
      "stateMutability": "view",
      "type": "function"
    },
    {
      "constant": true,
      "inputs": [
        {
          "name": "",
          "type": "uint256"
        }
      ],
      "name": "signatures",
      "outputs": [
        {
          "name": "",
          "type": "address"
        }
      ],
      "payable": false,
      "stateMutability": "view",
      "type": "function"
    },
    {
      "constant": true,
      "inputs": [
        {
          "name": "",
          "type": "uint256"
        }
      ],
      "name": "documents",
      "outputs": [
        {
          "name": "",
          "type": "address"
        }
      ],
      "payable": false,
      "stateMutability": "view",
      "type": "function"
    },
    {
      "constant": true,
      "inputs": [],
      "name": "userAddress",
      "outputs": [
        {
          "name": "",
          "type": "address"
        }
      ],
      "payable": false,
      "stateMutability": "view",
      "type": "function"
    },
    {
      "constant": true,
      "inputs": [
        {
          "name": "",
          "type": "uint256"
        }
      ],
      "name": "certifiedEmails",
      "outputs": [
        {
          "name": "",
          "type": "address"
        }
      ],
      "payable": false,
      "stateMutability": "view",
      "type": "function"
    },
    {
      "inputs": [
        {
          "name": "_userAddress",
          "type": "address"
        }
      ],
      "payable": false,
      "stateMutability": "nonpayable",
      "type": "constructor"
    },
    {
      "anonymous": false,
      "inputs": [
        {
          "indexed": false,
          "name": "adr",
          "type": "address"
        }
      ],
      "name": "SignatureAdded",
      "type": "event"
    },
    {
      "anonymous": false,
      "inputs": [
        {
          "indexed": false,
          "name": "adr",
          "type": "address"
        }
      ],
      "name": "DocumentAdded",
      "type": "event"
    },
    {
      "anonymous": false,
      "inputs": [
        {
          "indexed": false,
          "name": "adr",
          "type": "address"
        },
        {
          "indexed": false,
          "name": "source",
          "type": "string"
        }
      ],
      "name": "FileAdded",
      "type": "event"
    },
    {
      "anonymous": false,
      "inputs": [
        {
          "indexed": false,
          "name": "adr",
          "type": "address"
        },
        {
          "indexed": false,
          "name": "source",
          "type": "string"
        }
      ],
      "name": "EventAdded",
      "type": "event"
    },
    {
      "anonymous": false,
      "inputs": [
        {
          "indexed": false,
          "name": "adr",
          "type": "address"
        }
      ],
      "name": "CertifiedEmailAdded",
      "type": "event"
    },
    {
      "anonymous": false,
      "inputs": [
        {
          "indexed": false,
          "name": "key",
          "type": "string"
        }
      ],
      "name": "CertificatePublickeySet",
      "type": "event"
    },
    {
      "anonymous": false,
      "inputs": [
        {
          "indexed": false,
          "name": "adr",
          "type": "address"
        }
      ],
      "name": "CertificateAdded",
      "type": "event"
    },
    {
      "anonymous": false,
      "inputs": [
        {
          "indexed": false,
          "name": "adr",
          "type": "address"
        }
      ],
      "name": "CertifiedFileAdded",
      "type": "event"
    },
    {
      "anonymous": false,
      "inputs": [
        {
          "indexed": false,
          "name": "paymentContract",
          "type": "address"
        },
        {
          "indexed": false,
          "name": "referenceId",
          "type": "string"
        },
        {
          "indexed": false,
          "name": "receiverId",
          "type": "string"
        },
        {
          "indexed": false,
          "name": "statementId",
          "type": "string"
        },
        {
          "indexed": false,
          "name": "status",
          "type": "uint256"
        },
        {
          "indexed": false,
          "name": "receivedAt",
          "type": "uint256"
        },
        {
          "indexed": false,
          "name": "checkedAt",
          "type": "uint256"
        }
      ],
      "name": "PaymentCheck",
      "type": "event"
    },
    {
      "anonymous": false,
      "inputs": [
        {
          "indexed": false,
          "name": "paymentContract",
          "type": "address"
        },
        {
          "indexed": false,
          "name": "referenceId",
          "type": "string"
        },
        {
          "indexed": false,
          "name": "receiverId",
          "type": "string"
        },
        {
          "indexed": false,
          "name": "statementId",
          "type": "string"
        },
        {
          "indexed": false,
          "name": "status",
          "type": "string"
        },
        {
          "indexed": false,
          "name": "receivedAt",
          "type": "uint256"
        },
        {
          "indexed": false,
          "name": "checkedAt",
          "type": "uint256"
        }
      ],
      "name": "PaymentCheck",
      "type": "event"
    },
    {
      "constant": false,
      "inputs": [
        {
          "name": "key",
          "type": "string"
        }
      ],
      "name": "setCertificatePublicKey",
      "outputs": [],
      "payable": false,
      "stateMutability": "nonpayable",
      "type": "function"
    },
    {
      "constant": false,
      "inputs": [
        {
          "name": "signatureAddress",
          "type": "address"
        },
        {
          "name": "id",
          "type": "string"
        }
      ],
      "name": "addSignature",
      "outputs": [],
      "payable": false,
      "stateMutability": "nonpayable",
      "type": "function"
    },
    {
      "constant": false,
      "inputs": [
        {
          "name": "documentAddress",
          "type": "address"
        }
      ],
      "name": "addDocument",
      "outputs": [],
      "payable": false,
      "stateMutability": "nonpayable",
      "type": "function"
    },
    {
      "constant": false,
      "inputs": [
        {
          "name": "fileType",
          "type": "string"
        },
        {
          "name": "fileAddress",
          "type": "address"
        }
      ],
      "name": "addFile",
      "outputs": [],
      "payable": false,
      "stateMutability": "nonpayable",
      "type": "function"
    },
    {
      "constant": false,
      "inputs": [
        {
          "name": "eventSource",
          "type": "string"
        },
        {
          "name": "eventAddress",
          "type": "address"
        }
      ],
      "name": "addEvent",
      "outputs": [],
      "payable": false,
      "stateMutability": "nonpayable",
      "type": "function"
    },
    {
      "constant": false,
      "inputs": [
        {
          "name": "certifiedEmailAddress",
          "type": "address"
        },
        {
          "name": "id",
          "type": "string"
        }
      ],
      "name": "addCertifiedEmail",
      "outputs": [],
      "payable": false,
      "stateMutability": "nonpayable",
      "type": "function"
    },
    {
      "constant": false,
      "inputs": [
        {
          "name": "certificate",
          "type": "address"
        }
      ],
      "name": "addCertificate",
      "outputs": [],
      "payable": false,
      "stateMutability": "nonpayable",
      "type": "function"
    },
    {
      "constant": false,
      "inputs": [
        {
          "name": "certifiedFileAddress",
          "type": "address"
        },
        {
          "name": "id",
          "type": "string"
        }
      ],
      "name": "addCertifiedFile",
      "outputs": [],
      "payable": false,
      "stateMutability": "nonpayable",
      "type": "function"
    },
    {
      "constant": false,
      "inputs": [
        {
          "name": "paymentContract",
          "type": "address"
        },
        {
          "name": "referenceId",
          "type": "string"
        },
        {
          "name": "receiverId",
          "type": "string"
        },
        {
          "name": "statementId",
          "type": "string"
        },
        {
          "name": "status",
          "type": "uint256"
        },
        {
          "name": "receivedAt",
          "type": "uint256"
        },
        {
          "name": "checkedAt",
          "type": "uint256"
        }
      ],
      "name": "notifyPaymentCheck",
      "outputs": [],
      "payable": false,
      "stateMutability": "nonpayable",
      "type": "function"
    },
    {
      "constant": true,
      "inputs": [
        {
          "name": "id",
          "type": "string"
        }
      ],
      "name": "getSignatureById",
      "outputs": [
        {
          "name": "",
          "type": "address"
        }
      ],
      "payable": false,
      "stateMutability": "view",
      "type": "function"
    },
    {
      "constant": true,
      "inputs": [
        {
          "name": "index",
          "type": "uint256"
        }
      ],
      "name": "getSignature",
      "outputs": [
        {
          "name": "adr",
          "type": "address"
        },
        {
          "name": "more",
          "type": "bool"
        }
      ],
      "payable": false,
      "stateMutability": "view",
      "type": "function"
    },
    {
      "constant": true,
      "inputs": [
        {
          "name": "index",
          "type": "uint256"
        }
      ],
      "name": "getDocument",
      "outputs": [
        {
          "name": "adr",
          "type": "address"
        },
        {
          "name": "more",
          "type": "bool"
        }
      ],
      "payable": false,
      "stateMutability": "view",
      "type": "function"
    },
    {
      "constant": true,
      "inputs": [
        {
          "name": "index",
          "type": "uint256"
        }
      ],
      "name": "getSignatureFile",
      "outputs": [
        {
          "name": "adr",
          "type": "address"
        },
        {
          "name": "more",
          "type": "bool"
        }
      ],
      "payable": false,
      "stateMutability": "view",
      "type": "function"
    },
    {
      "constant": true,
      "inputs": [
        {
          "name": "index",
          "type": "uint256"
        }
      ],
      "name": "getSignatureEvent",
      "outputs": [
        {
          "name": "adr",
          "type": "address"
        },
        {
          "name": "more",
          "type": "bool"
        }
      ],
      "payable": false,
      "stateMutability": "view",
      "type": "function"
    },
    {
      "constant": true,
      "inputs": [
        {
          "name": "id",
          "type": "string"
        }
      ],
      "name": "getCertifiedEmailById",
      "outputs": [
        {
          "name": "",
          "type": "address"
        }
      ],
      "payable": false,
      "stateMutability": "view",
      "type": "function"
    },
    {
      "constant": true,
      "inputs": [
        {
          "name": "index",
          "type": "uint256"
        }
      ],
      "name": "getCertifiedEmail",
      "outputs": [
        {
          "name": "adr",
          "type": "address"
        },
        {
          "name": "more",
          "type": "bool"
        }
      ],
      "payable": false,
      "stateMutability": "view",
      "type": "function"
    },
    {
      "constant": true,
      "inputs": [
        {
          "name": "index",
          "type": "uint256"
        }
      ],
      "name": "getCertificate",
      "outputs": [
        {
          "name": "adr",
          "type": "address"
        },
        {
          "name": "more",
          "type": "bool"
        }
      ],
      "payable": false,
      "stateMutability": "view",
      "type": "function"
    },
    {
      "constant": true,
      "inputs": [
        {
          "name": "index",
          "type": "uint256"
        }
      ],
      "name": "getCertifiedEmailFile",
      "outputs": [
        {
          "name": "adr",
          "type": "address"
        },
        {
          "name": "more",
          "type": "bool"
        }
      ],
      "payable": false,
      "stateMutability": "view",
      "type": "function"
    },
    {
      "constant": true,
      "inputs": [
        {
          "name": "index",
          "type": "uint256"
        }
      ],
      "name": "getCertifiedEmailEvent",
      "outputs": [
        {
          "name": "adr",
          "type": "address"
        },
        {
          "name": "more",
          "type": "bool"
        }
      ],
      "payable": false,
      "stateMutability": "view",
      "type": "function"
    },
    {
      "constant": true,
      "inputs": [
        {
          "name": "id",
          "type": "string"
        }
      ],
      "name": "getCertifiedFileById",
      "outputs": [
        {
          "name": "",
          "type": "address"
        }
      ],
      "payable": false,
      "stateMutability": "view",
      "type": "function"
    },
    {
      "constant": true,
      "inputs": [
        {
          "name": "index",
          "type": "uint256"
        }
      ],
      "name": "getCertifiedFile",
      "outputs": [
        {
          "name": "adr",
          "type": "address"
        },
        {
          "name": "more",
          "type": "bool"
        }
      ],
      "payable": false,
      "stateMutability": "view",
      "type": "function"
    },
    {
      "constant": true,
      "inputs": [],
      "name": "getSignaturesCount",
      "outputs": [
        {
          "name": "count",
          "type": "uint256"
        }
      ],
      "payable": false,
      "stateMutability": "view",
      "type": "function"
    },
    {
      "constant": true,
      "inputs": [],
      "name": "getDocumentsCount",
      "outputs": [
        {
          "name": "count",
          "type": "uint256"
        }
      ],
      "payable": false,
      "stateMutability": "view",
      "type": "function"
    },
    {
      "constant": true,
      "inputs": [],
      "name": "getSignatureFilesCount",
      "outputs": [
        {
          "name": "count",
          "type": "uint256"
        }
      ],
      "payable": false,
      "stateMutability": "view",
      "type": "function"
    },
    {
      "constant": true,
      "inputs": [],
      "name": "getSignatureEventsCount",
      "outputs": [
        {
          "name": "count",
          "type": "uint256"
        }
      ],
      "payable": false,
      "stateMutability": "view",
      "type": "function"
    },
    {
      "constant": true,
      "inputs": [],
      "name": "getCertifiedEmailsCount",
      "outputs": [
        {
          "name": "count",
          "type": "uint256"
        }
      ],
      "payable": false,
      "stateMutability": "view",
      "type": "function"
    },
    {
      "constant": true,
      "inputs": [],
      "name": "getCertificatesCount",
      "outputs": [
        {
          "name": "count",
          "type": "uint256"
        }
      ],
      "payable": false,
      "stateMutability": "view",
      "type": "function"
    },
    {
      "constant": true,
      "inputs": [],
      "name": "getCertifiedEmailFilesCount",
      "outputs": [
        {
          "name": "count",
          "type": "uint256"
        }
      ],
      "payable": false,
      "stateMutability": "view",
      "type": "function"
    },
    {
      "constant": true,
      "inputs": [],
      "name": "getCertifiedEmailEventsCount",
      "outputs": [
        {
          "name": "count",
          "type": "uint256"
        }
      ],
      "payable": false,
      "stateMutability": "view",
      "type": "function"
    },
    {
      "constant": true,
      "inputs": [],
      "name": "getCertifiedFilesCount",
      "outputs": [
        {
          "name": "count",
          "type": "uint256"
        }
      ],
      "payable": false,
      "stateMutability": "view",
      "type": "function"
    }
  ],
  "bytecode": "0x608060405234801561001057600080fd5b506040516020806127a88339810180604052602081101561003057600080fd5b50516004805433600160a060020a03199182161790915560058054909116600160a060020a0390921691909117905561273a8061006e6000396000f3fe6080604052600436106101ea5763ffffffff60e060020a60003504166302a569e681146101ef57806307158d5d1461023c5780630bcf963b1461026657806314a4cf3a1461028d57806316afb87f1461034b5780631892ae1b1461039157806321624b471461044257806334fa5f7e146105035780633b39e7bb1461052d5780633f9b250a14610542578063446521ca1461056c57806349a869b21461061d57806351640fee14610647578063588c5486146106715780635c1f3a56146106865780635e54f82e1461069b57806362430dd814610725578063663b3e221461074f57806369b8eda4146107795780636d1ff7511461078e578063758176081461083f5780637912d6ac146109005780637c37ab061461092a5780637c6ebde91461095d5780637d663473146109905780638237ab83146109a557806383428a79146109ba5780638be10194146109e45780638fb03a0214610a0e578063aaa7f4f914610a23578063aad47bca14610ae4578063b2611a7514610b0e578063bd9b812e14610b38578063c0a715d014610b62578063c2ed2b0514610c1e578063c50679fc14610c48578063e068f27314610c72578063e4128fb314610d23578063ecc7f18314610d38578063f764aa4814610d4d578063fa4123a614610f23578063fd52c3f614610f4d575b600080fd5b3480156101fb57600080fd5b506102196004803603602081101561021257600080fd5b5035610f62565b60408051600160a060020a03909316835290151560208301528051918290030190f35b34801561024857600080fd5b506102196004803603602081101561025f57600080fd5b5035610fb0565b34801561027257600080fd5b5061027b610ff5565b60408051918252519081900360200190f35b34801561029957600080fd5b50610349600480360360408110156102b057600080fd5b810190602081018135602060020a8111156102ca57600080fd5b8201836020820111156102dc57600080fd5b803590602001918460018302840111602060020a831117156102fd57600080fd5b91908080601f01602080910402602001604051908101604052809392919081815260200183838082843760009201919091525092955050509035600160a060020a03169150610ffc9050565b005b34801561035757600080fd5b506103756004803603602081101561036e57600080fd5b503561130d565b60408051600160a060020a039092168252519081900360200190f35b34801561039d57600080fd5b50610375600480360360208110156103b457600080fd5b810190602081018135602060020a8111156103ce57600080fd5b8201836020820111156103e057600080fd5b803590602001918460018302840111602060020a8311171561040157600080fd5b91908080601f016020809104026020016040519081016040528093929190818152602001838380828437600092019190915250929550611335945050505050565b34801561044e57600080fd5b506103496004803603604081101561046557600080fd5b600160a060020a038235169190810190604081016020820135602060020a81111561048f57600080fd5b8201836020820111156104a157600080fd5b803590602001918460018302840111602060020a831117156104c257600080fd5b91908080601f01602080910402602001604051908101604052809392919081815260200183838082843760009201919091525092955061147e945050505050565b34801561050f57600080fd5b506103756004803603602081101561052657600080fd5b50356115d4565b34801561053957600080fd5b5061027b6115e2565b34801561054e57600080fd5b506102196004803603602081101561056557600080fd5b50356115e8565b34801561057857600080fd5b506103756004803603602081101561058f57600080fd5b810190602081018135602060020a8111156105a957600080fd5b8201836020820111156105bb57600080fd5b803590602001918460018302840111602060020a831117156105dc57600080fd5b91908080601f01602080910402602001604051908101604052809392919081815260200183838082843760009201919091525092955061162d945050505050565b34801561062957600080fd5b506103756004803603602081101561064057600080fd5b5035611738565b34801561065357600080fd5b506102196004803603602081101561066a57600080fd5b5035611746565b34801561067d57600080fd5b5061027b61178b565b34801561069257600080fd5b5061027b611791565b3480156106a757600080fd5b506106b0611797565b6040805160208082528351818301528351919283929083019185019080838360005b838110156106ea5781810151838201526020016106d2565b50505050905090810190601f1680156107175780820380516001836020036101000a031916815260200191505b509250505060405180910390f35b34801561073157600080fd5b506102196004803603602081101561074857600080fd5b5035611825565b34801561075b57600080fd5b506103756004803603602081101561077257600080fd5b503561186a565b34801561078557600080fd5b50610375611878565b34801561079a57600080fd5b50610375600480360360208110156107b157600080fd5b810190602081018135602060020a8111156107cb57600080fd5b8201836020820111156107dd57600080fd5b803590602001918460018302840111602060020a831117156107fe57600080fd5b91908080601f016020809104026020016040519081016040528093929190818152602001838380828437600092019190915250929550611887945050505050565b34801561084b57600080fd5b506103496004803603604081101561086257600080fd5b600160a060020a038235169190810190604081016020820135602060020a81111561088c57600080fd5b82018360208201111561089e57600080fd5b803590602001918460018302840111602060020a831117156108bf57600080fd5b91908080601f01602080910402602001604051908101604052809392919081815260200183838082843760009201919091525092955061199c945050505050565b34801561090c57600080fd5b506103756004803603602081101561092357600080fd5b5035611af2565b34801561093657600080fd5b506103496004803603602081101561094d57600080fd5b5035600160a060020a0316611b00565b34801561096957600080fd5b506103496004803603602081101561098057600080fd5b5035600160a060020a0316611be8565b34801561099c57600080fd5b5061027b611cd0565b3480156109b157600080fd5b5061027b611cd6565b3480156109c657600080fd5b50610375600480360360208110156109dd57600080fd5b5035611cdc565b3480156109f057600080fd5b5061037560048036036020811015610a0757600080fd5b5035611cea565b348015610a1a57600080fd5b5061027b611cf8565b348015610a2f57600080fd5b5061034960048036036040811015610a4657600080fd5b600160a060020a038235169190810190604081016020820135602060020a811115610a7057600080fd5b820183602082011115610a8257600080fd5b803590602001918460018302840111602060020a83111715610aa357600080fd5b91908080601f016020809104026020016040519081016040528093929190818152602001838380828437600092019190915250929550611cfe945050505050565b348015610af057600080fd5b5061021960048036036020811015610b0757600080fd5b5035611e54565b348015610b1a57600080fd5b5061021960048036036020811015610b3157600080fd5b5035611e99565b348015610b4457600080fd5b5061021960048036036020811015610b5b57600080fd5b5035611ede565b348015610b6e57600080fd5b5061034960048036036040811015610b8557600080fd5b810190602081018135602060020a811115610b9f57600080fd5b820183602082011115610bb157600080fd5b803590602001918460018302840111602060020a83111715610bd257600080fd5b91908080601f01602080910402602001604051908101604052809392919081815260200183838082843760009201919091525092955050509035600160a060020a03169150611f239050565b348015610c2a57600080fd5b5061037560048036036020811015610c4157600080fd5b50356121f4565b348015610c5457600080fd5b5061021960048036036020811015610c6b57600080fd5b5035612202565b348015610c7e57600080fd5b5061034960048036036020811015610c9557600080fd5b810190602081018135602060020a811115610caf57600080fd5b820183602082011115610cc157600080fd5b803590602001918460018302840111602060020a83111715610ce257600080fd5b91908080601f016020809104026020016040519081016040528093929190818152602001838380828437600092019190915250929550612247945050505050565b348015610d2f57600080fd5b5061037561236f565b348015610d4457600080fd5b5061027b61237e565b348015610d5957600080fd5b50610349600480360360e0811015610d7057600080fd5b600160a060020a038235169190810190604081016020820135602060020a811115610d9a57600080fd5b820183602082011115610dac57600080fd5b803590602001918460018302840111602060020a83111715610dcd57600080fd5b91908080601f0160208091040260200160405190810160405280939291908181526020018383808284376000920191909152509295949360208101935035915050602060020a811115610e1f57600080fd5b820183602082011115610e3157600080fd5b803590602001918460018302840111602060020a83111715610e5257600080fd5b91908080601f0160208091040260200160405190810160405280939291908181526020018383808284376000920191909152509295949360208101935035915050602060020a811115610ea457600080fd5b820183602082011115610eb657600080fd5b803590602001918460018302840111602060020a83111715610ed757600080fd5b91908080601f0160208091040260200160405190810160405280939291908181526020018383808284376000920191909152509295505082359350505060208101359060400135612384565b348015610f2f57600080fd5b5061037560048036036020811015610f4657600080fd5b503561258a565b348015610f5957600080fd5b5061027b612598565b600080610f746006805490508461259e565b6006805484908110610f8257fe5b600091825260209091200154600654600160a060020a0390911690610fa790856125f9565b91509150915091565b600080610fc2600c805490508461259e565b600c805484908110610fd057fe5b600091825260209091200154600c54600160a060020a0390911690610fa790856125f9565b6007545b90565b600454600160a060020a03163214611060576040805160e560020a62461bcd02815260206004820152602f60248201526000805160206126ef83398151915260448201526000805160206126af833981519152606482015290519081900360840190fd5b604051602001808060b860020a687369676e617475726502815250600901905060405160208183030381529060405280519060200120826040516020018082805190602001908083835b602083106110c95780518252601f1990920191602091820191016110aa565b6001836020036101000a03801982511681845116808217855250505050505090500191505060405160208183030381529060405280519060200120141561115a57600a80546001810182556000919091527fc65a7bb8d6351c1cf70c95a316cc6a92839c986682d98bc35f958f4883f9d2a8018054600160a060020a031916600160a060020a038316179055611256565b6040516020018080608a60020a6e18d95c9d1a599a595917d95b585a5b02815250600f01905060405160208183030381529060405280519060200120826040516020018082805190602001908083835b602083106111c95780518252601f1990920191602091820191016111aa565b6001836020036101000a03801982511681845116808217855250505050505090500191505060405160208183030381529060405280519060200120141561125657600b80546001810182556000919091527f0175b7a638427703f0dbe7bb9bbf987a2551717b34e79f33b5b1008d1fa01db9018054600160a060020a031916600160a060020a0383161790555b7f153594e72b817d485e2869681e89c7d4380a6c15a2024abbeefdc6e75995102f81836040518083600160a060020a0316600160a060020a0316815260200180602001828103825283818151815260200191508051906020019080838360005b838110156112ce5781810151838201526020016112b6565b50505050905090810190601f1680156112fb5780820380516001836020036101000a031916815260200191505b50935050505060405180910390a15050565b600980548290811061131b57fe5b600091825260209091200154600160a060020a0316905081565b600080600160a060020a03166011836040518082805190602001908083835b602083106113735780518252601f199092019160209182019101611354565b51815160209384036101000a6000190180199092169116179052920194855250604051938490030190922054600160a060020a03169290921415915061140f9050576040805160e560020a62461bcd02815260206004820152603060248201526000805160206126cf8339815191526044820152608060020a6f207361766564207369676e617475726502606482015290519081900360840190fd5b6011826040518082805190602001908083835b602083106114415780518252601f199092019160209182019101611422565b51815160209384036101000a6000190180199092169116179052920194855250604051938490030190922054600160a060020a0316949350505050565b600454600160a060020a031632146114e2576040805160e560020a62461bcd02815260206004820152602f60248201526000805160206126ef83398151915260448201526000805160206126af833981519152606482015290519081900360840190fd5b81600f826040518082805190602001908083835b602083106115155780518252601f1990920191602091820191016114f6565b51815160209384036101000a60001901801990921691161790529201948552506040805194859003820185208054600160a060020a0319908116600160a060020a0398891617909155600680546001810182556000919091527ff652222313e28459528d920b65115c16c04f3efc82aaedc97be59f3f377c0d3f018054909116968916968717905594845293517f6e810e4496ec107fcad4184c63e69d6d90f2d83c7aaf9a6f3a2bbc428b8846b8949381900390930192915050a15050565b600e80548290811061131b57fe5b600e5490565b6000806115fa6007805490508461259e565b600780548490811061160857fe5b600091825260209091200154600754600160a060020a0390911690610fa790856125f9565b600080600160a060020a0316600f836040518082805190602001908083835b6020831061166b5780518252601f19909201916020918201910161164c565b51815160209384036101000a6000190180199092169116179052920194855250604051938490030190922054600160a060020a0316929092141591506117079050576040805160e560020a62461bcd02815260206004820152603060248201526000805160206126cf8339815191526044820152608060020a6f207361766564207369676e617475726502606482015290519081900360840190fd5b600f82604051808280519060200190808383602083106114415780518252601f199092019160209182019101611422565b600880548290811061131b57fe5b600080611758600d805490508461259e565b600d80548490811061176657fe5b600091825260209091200154600d54600160a060020a0390911690610fa790856125f9565b600a5490565b600b5490565b6003805460408051602060026001851615610100026000190190941693909304601f8101849004840282018401909252818152929183018282801561181d5780601f106117f25761010080835404028352916020019161181d565b820191906000526020600020905b81548152906001019060200180831161180057829003601f168201915b505050505081565b6000806118376008805490508461259e565b600880548490811061184557fe5b600091825260209091200154600854600160a060020a0390911690610fa790856125f9565b600d80548290811061131b57fe5b600454600160a060020a031681565b600080600160a060020a03166010836040518082805190602001908083835b602083106118c55780518252601f1990920191602091820191016118a6565b51815160209384036101000a6000190180199092169116179052920194855250604051938490030190922054600160a060020a03169290921415915061196b9050576040805160e560020a62461bcd02815260206004820152603660248201526000805160206126cf83398151915260448201527f2073617665642063657274696669656420656d61696c00000000000000000000606482015290519081900360840190fd5b601082604051808280519060200190808383602083106114415780518252601f199092019160209182019101611422565b600454600160a060020a03163214611a00576040805160e560020a62461bcd02815260206004820152602f60248201526000805160206126ef83398151915260448201526000805160206126af833981519152606482015290519081900360840190fd5b816011826040518082805190602001908083835b60208310611a335780518252601f199092019160209182019101611a14565b51815160209384036101000a60001901801990921691161790529201948552506040805194859003820185208054600160a060020a0319908116600160a060020a0398891617909155600e80546001810182556000919091527fbb7b4a454dc3493923482f07822329ed19e8244eff582cc204f8554c3620c3fd018054909116968916968717905594845293517f83f6f626c1a7bb935e511aed9ae646cd24de53fb86ce032632fef62d2f573462949381900390930192915050a15050565b600b80548290811061131b57fe5b600454600160a060020a03163214611b64576040805160e560020a62461bcd02815260206004820152602f60248201526000805160206126ef83398151915260448201526000805160206126af833981519152606482015290519081900360840190fd5b600780546001810182556000919091527fa66cc928b5edb82af9bd49922954155ab7b0942694bea4ce44661d9a8736c688018054600160a060020a038316600160a060020a0319909116811790915560408051918252517f789ba6f7cf2054e80c94618ed522f3f52ea04a6d85eac2eda1ff5b88c9a0e9a79181900360200190a150565b600454600160a060020a03163214611c4c576040805160e560020a62461bcd02815260206004820152602f60248201526000805160206126ef83398151915260448201526000805160206126af833981519152606482015290519081900360840190fd5b600d80546001810182556000919091527fd7b6990105719101dabeb77144f2a3385c8033acd3af97e9423a695e81ad1eb5018054600160a060020a038316600160a060020a0319909116811790915560408051918252517f6697c31d0c16a2d80cf5bde8e7ed12c5fb8d8c5ca0f1364a9caa0a56b39c54579181900360200190a150565b600c5490565b60085490565b600a80548290811061131b57fe5b600680548290811061131b57fe5b600d5490565b600454600160a060020a03163214611d62576040805160e560020a62461bcd02815260206004820152602f60248201526000805160206126ef83398151915260448201526000805160206126af833981519152606482015290519081900360840190fd5b816010826040518082805190602001908083835b60208310611d955780518252601f199092019160209182019101611d76565b51815160209384036101000a60001901801990921691161790529201948552506040805194859003820185208054600160a060020a0319908116600160a060020a0398891617909155600c80546001810182556000919091527fdf6966c971051c3d54ec59162606531493a51404a002842f56009d7e5cf4a8c7018054909116968916968717905594845293517f5df292efd50cbb25e17f64216e52404df76c8f7effc90cd6e1566d56a6fea45a949381900390930192915050a15050565b600080611e66600a805490508461259e565b600a805484908110611e7457fe5b600091825260209091200154600a54600160a060020a0390911690610fa790856125f9565b600080611eab6009805490508461259e565b6009805484908110611eb957fe5b600091825260209091200154600954600160a060020a0390911690610fa790856125f9565b600080611ef0600b805490508461259e565b600b805484908110611efe57fe5b600091825260209091200154600b54600160a060020a0390911690610fa790856125f9565b600454600160a060020a03163214611f87576040805160e560020a62461bcd02815260206004820152602f60248201526000805160206126ef83398151915260448201526000805160206126af833981519152606482015290519081900360840190fd5b604051602001808060b860020a687369676e617475726502815250600901905060405160208183030381529060405280519060200120826040516020018082805190602001908083835b60208310611ff05780518252601f199092019160209182019101611fd1565b6001836020036101000a03801982511681845116808217855250505050505090500191505060405160208183030381529060405280519060200120141561208157600880546001810182556000919091527ff3f7a9fe364faab93b216da50a3214154f22a0a2b415b23a84c8169e8b636ee3018054600160a060020a031916600160a060020a03831617905561217d565b6040516020018080608a60020a6e18d95c9d1a599a595917d95b585a5b02815250600f01905060405160208183030381529060405280519060200120826040516020018082805190602001908083835b602083106120f05780518252601f1990920191602091820191016120d1565b6001836020036101000a03801982511681845116808217855250505050505090500191505060405160208183030381529060405280519060200120141561217d57600980546001810182556000919091527f6e1540171b6c0c960b71a7020d9f60077f6af931a8bbf590da0223dacf75c7af018054600160a060020a031916600160a060020a0383161790555b7f771ad20575501c8cafc4a8793006515911d6e497fd5838018654c9b50347430c81836040518083600160a060020a0316600160a060020a031681526020018060200182810382528381815181526020019150805190602001908083836000838110156112ce5781810151838201526020016112b6565b600780548290811061131b57fe5b600080612214600e805490508461259e565b600e80548490811061222257fe5b600091825260209091200154600e54600160a060020a0390911690610fa790856125f9565b600454600160a060020a031632146122ab576040805160e560020a62461bcd02815260206004820152602f60248201526000805160206126ef83398151915260448201526000805160206126af833981519152606482015290519081900360840190fd5b80516122be906003906020840190612616565b5060408051602080825260038054600260001961010060018416150201909116049183018290527f22b4eb86fca32b75cd9b81b9e6162fffbe60e087c7f1b597fb370a3df34361529390929182918201908490801561235e5780601f106123335761010080835404028352916020019161235e565b820191906000526020600020905b81548152906001019060200180831161234157829003601f168201915b50509250505060405180910390a150565b600554600160a060020a031681565b60095490565b600454600160a060020a031632146123e8576040805160e560020a62461bcd02815260206004820152602f60248201526000805160206126ef83398151915260448201526000805160206126af833981519152606482015290519081900360840190fd5b7fe6b1f5a9f2c3bd33c98a5a3bb868001a223090383d012aca5c76274f40c388bb878787878787876040518088600160a060020a0316600160a060020a0316815260200180602001806020018060200187815260200186815260200185815260200184810384528a818151815260200191508051906020019080838360005b8381101561247f578181015183820152602001612467565b50505050905090810190601f1680156124ac5780820380516001836020036101000a031916815260200191505b5084810383528951815289516020918201918b019080838360005b838110156124df5781810151838201526020016124c7565b50505050905090810190601f16801561250c5780820380516001836020036101000a031916815260200191505b5084810382528851815288516020918201918a019080838360005b8381101561253f578181015183820152602001612527565b50505050905090810190601f16801561256c5780820380516001836020036101000a031916815260200191505b509a505050505050505050505060405180910390a150505050505050565b600c80548290811061131b57fe5b60065490565b8181106125f5576040805160e560020a62461bcd02815260206004820152601a60248201527f5468697320656c656d656e7420646f65736e2774206578697374000000000000604482015290519081900360640190fd5b5050565b600081600101831161260c57600061260f565b60015b9392505050565b828054600181600116156101000203166002900490600052602060002090601f016020900481019282601f1061265757805160ff1916838001178555612684565b82800160010185558215612684579182015b82811115612684578251825591602001919060010190612669565b50612690929150612694565b5090565b610ff991905b80821115612690576000815560010161269a56fe6f726d207468697320616374696f6e00000000000000000000000000000000005468697320696420646f65736e7420636f72726573706f6e6420746f20616e794f6e6c79205369676e617475726974206163636f756e742063616e2070657266a165627a7a72305820f09164355b14e39f316348188f21e79aaf705578e02f0092b3f018b6f458c97d0029",
  "source": "pragma solidity 0.5.0;\n\n/*Gas to deploy: 3.623.029 */\n\nimport \"./interfaces/UserInterface.sol\";\n\n\ncontract User is UserInterface {\n    string public certificatePublicKey;\n\n    address public signaturitAddress;\n    address public userAddress;\n\n    address[] public signatures;\n    address[] public documents;\n    address[] public signatureFiles;\n    address[] public certifiedEmailFiles;\n    address[] public signatureEvents;\n    address[] public certifiedEmailEvents;\n    address[] public certifiedEmails;\n    address[] public certificates;\n    address[] public certifiedFiles;\n\n    mapping(string => address) private signaturesIndexes;\n    mapping(string => address) private certifiedEmailsIndexes;\n    mapping(string => address) private certifiedFilesIndexes;\n\n    event SignatureAdded(address adr);\n    event DocumentAdded(address adr);\n    event FileAdded(address adr, string source);\n    event EventAdded(address adr, string source);\n    event CertifiedEmailAdded(address adr);\n    event CertificatePublickeySet(string key);\n    event CertificateAdded(address adr);\n    event CertifiedFileAdded(address adr);\n    event PaymentCheck(\n        address paymentContract,\n        string referenceId,\n        string receiverId,\n        string statementId,\n        uint status,\n        uint receivedAt,\n        uint checkedAt\n    );\n\n    constructor (address _userAddress) public {\n        signaturitAddress = msg.sender;\n        userAddress = _userAddress;\n    }\n\n    modifier signaturitOnly() {\n        require(\n            tx.origin == signaturitAddress,\n            \"Only Signaturit account can perform this action\"\n        );\n\n        _;\n    }\n\n    function setCertificatePublicKey(\n        string memory key\n    )\n        public\n        signaturitOnly\n    {\n        certificatePublicKey = key;\n        emit CertificatePublickeySet(certificatePublicKey);\n    }\n\n    function addSignature(\n        address signatureAddress,\n        string memory id\n    )\n        public\n        signaturitOnly\n    {\n        signaturesIndexes[id] = signatureAddress;\n        signatures.push(signatureAddress);\n\n        emit SignatureAdded(signatureAddress);\n    }\n\n    function addDocument(\n        address documentAddress\n    )\n        public\n        signaturitOnly\n    {\n        documents.push(documentAddress);\n\n        emit DocumentAdded(documentAddress);\n    }\n\n    function addFile(\n        string memory fileType,\n        address fileAddress\n    )\n        public\n        signaturitOnly\n    {\n        if (\n            keccak256(\n                abi.encodePacked((fileType))\n            ) == keccak256(\n                abi.encodePacked((\"signature\"))\n            )\n        ) {\n            signatureFiles.push(fileAddress);\n        } else if (\n            keccak256(\n                abi.encodePacked((fileType))\n            ) == keccak256(\n                abi.encodePacked((\"certified_email\"))\n            )\n        ) {\n            certifiedEmailFiles.push(fileAddress);\n        }\n\n        emit FileAdded(fileAddress, fileType);\n    }\n\n    function addEvent(\n        string memory eventSource,\n        address eventAddress\n    )\n        public\n        signaturitOnly\n    {\n        if (\n            keccak256(\n                abi.encodePacked((eventSource))\n            ) == keccak256(\n                abi.encodePacked((\"signature\"))\n            )\n        ) {\n            signatureEvents.push(eventAddress);\n        } else if (\n            keccak256(\n                abi.encodePacked((eventSource))\n            ) == keccak256(\n                abi.encodePacked((\"certified_email\"))\n            )\n        ) {\n            certifiedEmailEvents.push(eventAddress);\n        }\n\n        emit EventAdded(eventAddress, eventSource);\n    }\n\n    function addCertifiedEmail(\n        address certifiedEmailAddress,\n        string memory id\n    )\n        public\n        signaturitOnly\n    {\n        certifiedEmailsIndexes[id] = certifiedEmailAddress;\n        certifiedEmails.push(certifiedEmailAddress);\n\n        emit CertifiedEmailAdded(certifiedEmailAddress);\n    }\n\n    function addCertificate(\n        address certificate\n    )\n        public\n        signaturitOnly\n    {\n        certificates.push(certificate);\n\n        emit CertificateAdded(certificate);\n    }\n\n    function addCertifiedFile(\n        address certifiedFileAddress,\n        string memory id\n    )\n        public\n        signaturitOnly\n    {\n        certifiedFilesIndexes[id] = certifiedFileAddress;\n        certifiedFiles.push(certifiedFileAddress);\n\n        emit CertifiedFileAdded(certifiedFileAddress);\n    }\n\n    function notifyPaymentCheck(\n        address paymentContract,\n        string memory referenceId,\n        string memory receiverId,\n        string memory statementId,\n        uint status,\n        uint receivedAt,\n        uint checkedAt\n    )\n        public\n        signaturitOnly\n    {\n        emit PaymentCheck(\n            paymentContract,\n            referenceId,\n            receiverId,\n            statementId,\n            status,\n            receivedAt,\n            checkedAt\n        );\n    }\n\n    function getSignatureById(\n        string memory id\n    )\n        public\n        view\n        returns (address)\n    {\n        require(\n            signaturesIndexes[id] != address(0),\n            \"This id doesnt correspond to any saved signature\"\n        );\n\n        return signaturesIndexes[id];\n    }\n\n    function getSignature(\n        uint index\n    )\n        public\n        view\n        returns (address adr, bool more)\n    {\n        _checkValidity(signatures.length, index);\n\n        return (\n            signatures[index],\n            _moreIsFound(signatures.length, index)\n        );\n    }\n\n    function getDocument(\n        uint index\n    )\n        public\n        view\n        returns (address adr, bool more)\n    {\n        _checkValidity(documents.length, index);\n\n        return (\n            documents[index],\n            _moreIsFound(documents.length, index)\n        );\n    }\n\n    function getSignatureFile(\n        uint index\n    )\n        public\n        view\n        returns (address adr, bool more)\n    {\n        _checkValidity(signatureFiles.length, index);\n\n        return (\n            signatureFiles[index],\n            _moreIsFound(signatureFiles.length, index)\n        );\n    }\n\n    function getSignatureEvent(\n        uint index\n    )\n        public\n        view\n        returns (address adr, bool more)\n    {\n        _checkValidity(signatureEvents.length, index);\n\n        return (\n            signatureEvents[index],\n            _moreIsFound(signatureEvents.length, index)\n        );\n    }\n\n    function getCertifiedEmailById(\n        string memory id\n    )\n        public\n        view\n        returns (address)\n    {\n        require(\n            certifiedEmailsIndexes[id] != address(0),\n            \"This id doesnt correspond to any saved certified email\"\n        );\n\n        return certifiedEmailsIndexes[id];\n    }\n\n    function getCertifiedEmail(\n        uint index\n    )\n        public\n        view\n        returns (address adr, bool more)\n    {\n        _checkValidity(certifiedEmails.length, index);\n\n        return(\n            certifiedEmails[index],\n            _moreIsFound(certifiedEmails.length, index)\n        );\n    }\n\n    function getCertificate(\n        uint index\n    )\n        public\n        view\n        returns (address adr, bool more)\n    {\n        _checkValidity(certificates.length, index);\n\n        return(\n            certificates[index],\n            _moreIsFound(certificates.length, index)\n        );\n    }\n\n    function getCertifiedEmailFile(\n        uint index\n    )\n        public\n        view\n        returns (address adr, bool more)\n    {\n        _checkValidity(certifiedEmailFiles.length, index);\n\n        return (\n            certifiedEmailFiles[index],\n            _moreIsFound(certifiedEmailFiles.length, index)\n        );\n    }\n\n    function getCertifiedEmailEvent(\n        uint index\n    )\n        public\n        view\n        returns (address adr, bool more)\n    {\n        _checkValidity(certifiedEmailEvents.length, index);\n\n        return (\n            certifiedEmailEvents[index],\n            _moreIsFound(certifiedEmailEvents.length, index)\n        );\n    }\n\n    function getCertifiedFileById(\n        string memory id\n    )\n        public\n        view\n        returns (address)\n    {\n        require(\n            certifiedFilesIndexes[id] != address(0),\n            \"This id doesnt correspond to any saved signature\"\n        );\n\n        return certifiedFilesIndexes[id];\n    }\n\n    function getCertifiedFile(\n        uint index\n    )\n        public\n        view\n        returns (address adr, bool more)\n    {\n        _checkValidity(certifiedFiles.length, index);\n\n        return (\n            certifiedFiles[index],\n            _moreIsFound(certifiedFiles.length, index)\n        );\n    }\n\n    function getSignaturesCount()\n        public\n        view\n        returns (uint256 count)\n    {\n        return signatures.length;\n    }\n\n    function getDocumentsCount()\n        public\n        view\n        returns (uint256 count)\n    {\n        return documents.length;\n    }\n\n    function getSignatureFilesCount()\n        public\n        view\n        returns (uint256 count)\n    {\n        return signatureFiles.length;\n    }\n\n    function getSignatureEventsCount()\n        public\n        view\n        returns (uint256 count)\n    {\n        return signatureEvents.length;\n    }\n\n    function getCertifiedEmailsCount()\n        public\n        view\n        returns (uint256 count)\n    {\n        return certifiedEmails.length;\n    }\n\n    function getCertificatesCount()\n        public\n        view\n        returns (uint256 count)\n    {\n        return certificates.length;\n    }\n\n    function getCertifiedEmailFilesCount()\n        public\n        view\n        returns (uint256 count)\n    {\n        return certifiedEmailFiles.length;\n    }\n\n    function getCertifiedEmailEventsCount()\n        public\n        view\n        returns (uint256 count)\n    {\n        return certifiedEmailEvents.length;\n    }\n\n    function getCertifiedFilesCount()\n        public\n        view\n        returns (uint256 count)\n    {\n        return certifiedFiles.length;\n    }\n\n    function _checkValidity(\n        uint length,\n        uint index\n    )\n        internal\n        pure\n    {\n        require(\n            index < length,\n            \"This element doesn't exist\"\n        );\n    }\n\n    function _moreIsFound(\n        uint length,\n        uint index\n    )\n        internal\n        pure\n        returns (bool)\n    {\n        return length > index + 1 ? true : false;\n    }\n}\n",
  "sourcePath": "/home/administrator/workspace/signaturit-solidity-contracts/contracts/User.sol",
  "compiler": {
    "name": "solc",
    "version": "0.5.0+commit.1d4f565a.Emscripten.clang"
  },
  "schemaVersion": "3.0.11",
  "updatedAt": "2019-07-26T12:08:22.099Z",
  "devdoc": {
    "methods": {}
  },
  "userdoc": {
    "methods": {}
  }
}