{
  "contractName": "User",
  "abi": [
    {
      "constant": true,
      "inputs": [
        {
          "internalType": "uint256",
          "name": "",
          "type": "uint256"
        }
      ],
      "name": "certifiedEmailFiles",
      "outputs": [
        {
          "internalType": "address",
          "name": "",
          "type": "address"
        }
      ],
      "payable": false,
      "stateMutability": "view",
      "type": "function"
    },
    {
      "constant": true,
      "inputs": [
        {
          "internalType": "uint256",
          "name": "",
          "type": "uint256"
        }
      ],
      "name": "certifiedFiles",
      "outputs": [
        {
          "internalType": "address",
          "name": "",
          "type": "address"
        }
      ],
      "payable": false,
      "stateMutability": "view",
      "type": "function"
    },
    {
      "constant": true,
      "inputs": [
        {
          "internalType": "uint256",
          "name": "",
          "type": "uint256"
        }
      ],
      "name": "signatureFiles",
      "outputs": [
        {
          "internalType": "address",
          "name": "",
          "type": "address"
        }
      ],
      "payable": false,
      "stateMutability": "view",
      "type": "function"
    },
    {
      "constant": true,
      "inputs": [],
      "name": "certificatePublicKey",
      "outputs": [
        {
          "internalType": "string",
          "name": "",
          "type": "string"
        }
      ],
      "payable": false,
      "stateMutability": "view",
      "type": "function"
    },
    {
      "constant": true,
      "inputs": [
        {
          "internalType": "uint256",
          "name": "",
          "type": "uint256"
        }
      ],
      "name": "certificates",
      "outputs": [
        {
          "internalType": "address",
          "name": "",
          "type": "address"
        }
      ],
      "payable": false,
      "stateMutability": "view",
      "type": "function"
    },
    {
      "constant": true,
      "inputs": [],
      "name": "signaturitAddress",
      "outputs": [
        {
          "internalType": "address",
          "name": "",
          "type": "address"
        }
      ],
      "payable": false,
      "stateMutability": "view",
      "type": "function"
    },
    {
      "constant": true,
      "inputs": [
        {
          "internalType": "uint256",
          "name": "",
          "type": "uint256"
        }
      ],
      "name": "certifiedEmailEvents",
      "outputs": [
        {
          "internalType": "address",
          "name": "",
          "type": "address"
        }
      ],
      "payable": false,
      "stateMutability": "view",
      "type": "function"
    },
    {
      "constant": true,
      "inputs": [
        {
          "internalType": "uint256",
          "name": "",
          "type": "uint256"
        }
      ],
      "name": "signatureEvents",
      "outputs": [
        {
          "internalType": "address",
          "name": "",
          "type": "address"
        }
      ],
      "payable": false,
      "stateMutability": "view",
      "type": "function"
    },
    {
      "constant": true,
      "inputs": [
        {
          "internalType": "uint256",
          "name": "",
          "type": "uint256"
        }
      ],
      "name": "signatures",
      "outputs": [
        {
          "internalType": "address",
          "name": "",
          "type": "address"
        }
      ],
      "payable": false,
      "stateMutability": "view",
      "type": "function"
    },
    {
      "constant": true,
      "inputs": [
        {
          "internalType": "uint256",
          "name": "",
          "type": "uint256"
        }
      ],
      "name": "documents",
      "outputs": [
        {
          "internalType": "address",
          "name": "",
          "type": "address"
        }
      ],
      "payable": false,
      "stateMutability": "view",
      "type": "function"
    },
    {
      "constant": true,
      "inputs": [],
      "name": "userAddress",
      "outputs": [
        {
          "internalType": "address",
          "name": "",
          "type": "address"
        }
      ],
      "payable": false,
      "stateMutability": "view",
      "type": "function"
    },
    {
      "constant": true,
      "inputs": [
        {
          "internalType": "uint256",
          "name": "",
          "type": "uint256"
        }
      ],
      "name": "certifiedEmails",
      "outputs": [
        {
          "internalType": "address",
          "name": "",
          "type": "address"
        }
      ],
      "payable": false,
      "stateMutability": "view",
      "type": "function"
    },
    {
      "inputs": [
        {
          "internalType": "address",
          "name": "_userAddress",
          "type": "address"
        }
      ],
      "payable": false,
      "stateMutability": "nonpayable",
      "type": "constructor"
    },
    {
      "anonymous": false,
      "inputs": [
        {
          "indexed": false,
          "internalType": "address",
          "name": "adr",
          "type": "address"
        }
      ],
      "name": "SignatureAdded",
      "type": "event"
    },
    {
      "anonymous": false,
      "inputs": [
        {
          "indexed": false,
          "internalType": "address",
          "name": "adr",
          "type": "address"
        }
      ],
      "name": "DocumentAdded",
      "type": "event"
    },
    {
      "anonymous": false,
      "inputs": [
        {
          "indexed": false,
          "internalType": "address",
          "name": "adr",
          "type": "address"
        },
        {
          "indexed": false,
          "internalType": "string",
          "name": "source",
          "type": "string"
        }
      ],
      "name": "FileAdded",
      "type": "event"
    },
    {
      "anonymous": false,
      "inputs": [
        {
          "indexed": false,
          "internalType": "address",
          "name": "adr",
          "type": "address"
        },
        {
          "indexed": false,
          "internalType": "string",
          "name": "source",
          "type": "string"
        }
      ],
      "name": "EventAdded",
      "type": "event"
    },
    {
      "anonymous": false,
      "inputs": [
        {
          "indexed": false,
          "internalType": "address",
          "name": "adr",
          "type": "address"
        }
      ],
      "name": "CertifiedEmailAdded",
      "type": "event"
    },
    {
      "anonymous": false,
      "inputs": [
        {
          "indexed": false,
          "internalType": "string",
          "name": "key",
          "type": "string"
        }
      ],
      "name": "CertificatePublickeySet",
      "type": "event"
    },
    {
      "anonymous": false,
      "inputs": [
        {
          "indexed": false,
          "internalType": "address",
          "name": "adr",
          "type": "address"
        }
      ],
      "name": "CertificateAdded",
      "type": "event"
    },
    {
      "anonymous": false,
      "inputs": [
        {
          "indexed": false,
          "internalType": "address",
          "name": "adr",
          "type": "address"
        }
      ],
      "name": "CertifiedFileAdded",
      "type": "event"
    },
    {
      "anonymous": false,
      "inputs": [
        {
          "indexed": false,
          "internalType": "address",
          "name": "clauseContract",
          "type": "address"
        },
        {
          "indexed": false,
          "internalType": "string",
          "name": "clauseType",
          "type": "string"
        },
        {
          "indexed": false,
          "internalType": "string",
          "name": "notificationType",
          "type": "string"
        },
        {
          "indexed": false,
          "internalType": "string",
          "name": "id",
          "type": "string"
        }
      ],
      "name": "ClauseNotification",
      "type": "event"
    },
    {
      "constant": false,
      "inputs": [
        {
          "internalType": "string",
          "name": "key",
          "type": "string"
        }
      ],
      "name": "setCertificatePublicKey",
      "outputs": [],
      "payable": false,
      "stateMutability": "nonpayable",
      "type": "function"
    },
    {
      "constant": false,
      "inputs": [
        {
          "internalType": "address",
          "name": "signatureAddress",
          "type": "address"
        },
        {
          "internalType": "string",
          "name": "id",
          "type": "string"
        }
      ],
      "name": "addSignature",
      "outputs": [],
      "payable": false,
      "stateMutability": "nonpayable",
      "type": "function"
    },
    {
      "constant": false,
      "inputs": [
        {
          "internalType": "address",
          "name": "documentAddress",
          "type": "address"
        }
      ],
      "name": "addDocument",
      "outputs": [],
      "payable": false,
      "stateMutability": "nonpayable",
      "type": "function"
    },
    {
      "constant": false,
      "inputs": [
        {
          "internalType": "string",
          "name": "fileType",
          "type": "string"
        },
        {
          "internalType": "address",
          "name": "fileAddress",
          "type": "address"
        }
      ],
      "name": "addFile",
      "outputs": [],
      "payable": false,
      "stateMutability": "nonpayable",
      "type": "function"
    },
    {
      "constant": false,
      "inputs": [
        {
          "internalType": "string",
          "name": "eventSource",
          "type": "string"
        },
        {
          "internalType": "address",
          "name": "eventAddress",
          "type": "address"
        }
      ],
      "name": "addEvent",
      "outputs": [],
      "payable": false,
      "stateMutability": "nonpayable",
      "type": "function"
    },
    {
      "constant": false,
      "inputs": [
        {
          "internalType": "address",
          "name": "certifiedEmailAddress",
          "type": "address"
        },
        {
          "internalType": "string",
          "name": "id",
          "type": "string"
        }
      ],
      "name": "addCertifiedEmail",
      "outputs": [],
      "payable": false,
      "stateMutability": "nonpayable",
      "type": "function"
    },
    {
      "constant": false,
      "inputs": [
        {
          "internalType": "address",
          "name": "certificate",
          "type": "address"
        }
      ],
      "name": "addCertificate",
      "outputs": [],
      "payable": false,
      "stateMutability": "nonpayable",
      "type": "function"
    },
    {
      "constant": false,
      "inputs": [
        {
          "internalType": "address",
          "name": "certifiedFileAddress",
          "type": "address"
        },
        {
          "internalType": "string",
          "name": "id",
          "type": "string"
        }
      ],
      "name": "addCertifiedFile",
      "outputs": [],
      "payable": false,
      "stateMutability": "nonpayable",
      "type": "function"
    },
    {
      "constant": false,
      "inputs": [
        {
          "internalType": "address",
          "name": "clauseContract",
          "type": "address"
        },
        {
          "internalType": "string",
          "name": "clauseType",
          "type": "string"
        },
        {
          "internalType": "string",
          "name": "notificationType",
          "type": "string"
        },
        {
          "internalType": "string",
          "name": "id",
          "type": "string"
        }
      ],
      "name": "clauseNotification",
      "outputs": [],
      "payable": false,
      "stateMutability": "nonpayable",
      "type": "function"
    },
    {
      "constant": true,
      "inputs": [
        {
          "internalType": "string",
          "name": "id",
          "type": "string"
        }
      ],
      "name": "getSignatureById",
      "outputs": [
        {
          "internalType": "address",
          "name": "",
          "type": "address"
        }
      ],
      "payable": false,
      "stateMutability": "view",
      "type": "function"
    },
    {
      "constant": true,
      "inputs": [
        {
          "internalType": "uint256",
          "name": "index",
          "type": "uint256"
        }
      ],
      "name": "getSignature",
      "outputs": [
        {
          "internalType": "address",
          "name": "adr",
          "type": "address"
        },
        {
          "internalType": "bool",
          "name": "more",
          "type": "bool"
        }
      ],
      "payable": false,
      "stateMutability": "view",
      "type": "function"
    },
    {
      "constant": true,
      "inputs": [
        {
          "internalType": "uint256",
          "name": "index",
          "type": "uint256"
        }
      ],
      "name": "getDocument",
      "outputs": [
        {
          "internalType": "address",
          "name": "adr",
          "type": "address"
        },
        {
          "internalType": "bool",
          "name": "more",
          "type": "bool"
        }
      ],
      "payable": false,
      "stateMutability": "view",
      "type": "function"
    },
    {
      "constant": true,
      "inputs": [
        {
          "internalType": "uint256",
          "name": "index",
          "type": "uint256"
        }
      ],
      "name": "getSignatureFile",
      "outputs": [
        {
          "internalType": "address",
          "name": "adr",
          "type": "address"
        },
        {
          "internalType": "bool",
          "name": "more",
          "type": "bool"
        }
      ],
      "payable": false,
      "stateMutability": "view",
      "type": "function"
    },
    {
      "constant": true,
      "inputs": [
        {
          "internalType": "uint256",
          "name": "index",
          "type": "uint256"
        }
      ],
      "name": "getSignatureEvent",
      "outputs": [
        {
          "internalType": "address",
          "name": "adr",
          "type": "address"
        },
        {
          "internalType": "bool",
          "name": "more",
          "type": "bool"
        }
      ],
      "payable": false,
      "stateMutability": "view",
      "type": "function"
    },
    {
      "constant": true,
      "inputs": [
        {
          "internalType": "string",
          "name": "id",
          "type": "string"
        }
      ],
      "name": "getCertifiedEmailById",
      "outputs": [
        {
          "internalType": "address",
          "name": "",
          "type": "address"
        }
      ],
      "payable": false,
      "stateMutability": "view",
      "type": "function"
    },
    {
      "constant": true,
      "inputs": [
        {
          "internalType": "uint256",
          "name": "index",
          "type": "uint256"
        }
      ],
      "name": "getCertifiedEmail",
      "outputs": [
        {
          "internalType": "address",
          "name": "adr",
          "type": "address"
        },
        {
          "internalType": "bool",
          "name": "more",
          "type": "bool"
        }
      ],
      "payable": false,
      "stateMutability": "view",
      "type": "function"
    },
    {
      "constant": true,
      "inputs": [
        {
          "internalType": "uint256",
          "name": "index",
          "type": "uint256"
        }
      ],
      "name": "getCertificate",
      "outputs": [
        {
          "internalType": "address",
          "name": "adr",
          "type": "address"
        },
        {
          "internalType": "bool",
          "name": "more",
          "type": "bool"
        }
      ],
      "payable": false,
      "stateMutability": "view",
      "type": "function"
    },
    {
      "constant": true,
      "inputs": [
        {
          "internalType": "uint256",
          "name": "index",
          "type": "uint256"
        }
      ],
      "name": "getCertifiedEmailFile",
      "outputs": [
        {
          "internalType": "address",
          "name": "adr",
          "type": "address"
        },
        {
          "internalType": "bool",
          "name": "more",
          "type": "bool"
        }
      ],
      "payable": false,
      "stateMutability": "view",
      "type": "function"
    },
    {
      "constant": true,
      "inputs": [
        {
          "internalType": "uint256",
          "name": "index",
          "type": "uint256"
        }
      ],
      "name": "getCertifiedEmailEvent",
      "outputs": [
        {
          "internalType": "address",
          "name": "adr",
          "type": "address"
        },
        {
          "internalType": "bool",
          "name": "more",
          "type": "bool"
        }
      ],
      "payable": false,
      "stateMutability": "view",
      "type": "function"
    },
    {
      "constant": true,
      "inputs": [
        {
          "internalType": "string",
          "name": "id",
          "type": "string"
        }
      ],
      "name": "getCertifiedFileById",
      "outputs": [
        {
          "internalType": "address",
          "name": "",
          "type": "address"
        }
      ],
      "payable": false,
      "stateMutability": "view",
      "type": "function"
    },
    {
      "constant": true,
      "inputs": [
        {
          "internalType": "uint256",
          "name": "index",
          "type": "uint256"
        }
      ],
      "name": "getCertifiedFile",
      "outputs": [
        {
          "internalType": "address",
          "name": "adr",
          "type": "address"
        },
        {
          "internalType": "bool",
          "name": "more",
          "type": "bool"
        }
      ],
      "payable": false,
      "stateMutability": "view",
      "type": "function"
    },
    {
      "constant": true,
      "inputs": [],
      "name": "getSignaturesCount",
      "outputs": [
        {
          "internalType": "uint256",
          "name": "count",
          "type": "uint256"
        }
      ],
      "payable": false,
      "stateMutability": "view",
      "type": "function"
    },
    {
      "constant": true,
      "inputs": [],
      "name": "getDocumentsCount",
      "outputs": [
        {
          "internalType": "uint256",
          "name": "count",
          "type": "uint256"
        }
      ],
      "payable": false,
      "stateMutability": "view",
      "type": "function"
    },
    {
      "constant": true,
      "inputs": [],
      "name": "getSignatureFilesCount",
      "outputs": [
        {
          "internalType": "uint256",
          "name": "count",
          "type": "uint256"
        }
      ],
      "payable": false,
      "stateMutability": "view",
      "type": "function"
    },
    {
      "constant": true,
      "inputs": [],
      "name": "getSignatureEventsCount",
      "outputs": [
        {
          "internalType": "uint256",
          "name": "count",
          "type": "uint256"
        }
      ],
      "payable": false,
      "stateMutability": "view",
      "type": "function"
    },
    {
      "constant": true,
      "inputs": [],
      "name": "getCertifiedEmailsCount",
      "outputs": [
        {
          "internalType": "uint256",
          "name": "count",
          "type": "uint256"
        }
      ],
      "payable": false,
      "stateMutability": "view",
      "type": "function"
    },
    {
      "constant": true,
      "inputs": [],
      "name": "getCertificatesCount",
      "outputs": [
        {
          "internalType": "uint256",
          "name": "count",
          "type": "uint256"
        }
      ],
      "payable": false,
      "stateMutability": "view",
      "type": "function"
    },
    {
      "constant": true,
      "inputs": [],
      "name": "getCertifiedEmailFilesCount",
      "outputs": [
        {
          "internalType": "uint256",
          "name": "count",
          "type": "uint256"
        }
      ],
      "payable": false,
      "stateMutability": "view",
      "type": "function"
    },
    {
      "constant": true,
      "inputs": [],
      "name": "getCertifiedEmailEventsCount",
      "outputs": [
        {
          "internalType": "uint256",
          "name": "count",
          "type": "uint256"
        }
      ],
      "payable": false,
      "stateMutability": "view",
      "type": "function"
    },
    {
      "constant": true,
      "inputs": [],
      "name": "getCertifiedFilesCount",
      "outputs": [
        {
          "internalType": "uint256",
          "name": "count",
          "type": "uint256"
        }
      ],
      "payable": false,
      "stateMutability": "view",
      "type": "function"
    }
  ],
  "bytecode": "0x608060405234801561001057600080fd5b506040516123b43803806123b48339818101604052602081101561003357600080fd5b505160048054336001600160a01b031991821617909155600580549091166001600160a01b03909216919091179055612343806100716000396000f3fe608060405234801561001057600080fd5b50600436106101ee5760003560e01c806302a569e6146101f357806307158d5d146102335780630bcf963b1461025057806314a4cf3a1461026a57806316afb87f1461031b5780631892ae1b1461035457806321624b47146103f857806334fa5f7e146104ac5780633b39e7bb146104c95780633f9b250a146104d1578063446521ca146104ee578063491598631461059257806349a869b21461075057806351640fee1461076d578063588c54861461078a5780635c1f3a56146107925780635e54f82e1461079a57806362430dd814610817578063663b3e221461083457806369b8eda4146108515780636d1ff7511461085957806375817608146108fd5780637912d6ac146109b15780637c37ab06146109ce5780637c6ebde9146109f45780637d66347314610a1a5780638237ab8314610a2257806383428a7914610a2a5780638be1019414610a475780638fb03a0214610a64578063aaa7f4f914610a6c578063aad47bca14610b20578063b2611a7514610b3d578063bd9b812e14610b5a578063c0a715d014610b77578063c2ed2b0514610c26578063c50679fc14610c43578063e068f27314610c60578063e4128fb314610d04578063ecc7f18314610d0c578063fa4123a614610d14578063fd52c3f614610d31575b600080fd5b6102106004803603602081101561020957600080fd5b5035610d39565b604080516001600160a01b03909316835290151560208301528051918290030190f35b6102106004803603602081101561024957600080fd5b5035610d96565b610258610de9565b60408051918252519081900360200190f35b6103196004803603604081101561028057600080fd5b810190602081018135600160201b81111561029a57600080fd5b8201836020820111156102ac57600080fd5b803590602001918460018302840111600160201b831117156102cd57600080fd5b91908080601f016020809104026020016040519081016040528093929190818152602001838380828437600092019190915250929550505090356001600160a01b03169150610df09050565b005b6103386004803603602081101561033157600080fd5b50356110e0565b604080516001600160a01b039092168252519081900360200190f35b6103386004803603602081101561036a57600080fd5b810190602081018135600160201b81111561038457600080fd5b82018360208201111561039657600080fd5b803590602001918460018302840111600160201b831117156103b757600080fd5b91908080601f016020809104026020016040519081016040528093929190818152602001838380828437600092019190915250929550611107945050505050565b6103196004803603604081101561040e57600080fd5b6001600160a01b038235169190810190604081016020820135600160201b81111561043857600080fd5b82018360208201111561044a57600080fd5b803590602001918460018302840111600160201b8311171561046b57600080fd5b91908080601f016020809104026020016040519081016040528093929190818152602001838380828437600092019190915250929550611200945050505050565b610338600480360360208110156104c257600080fd5b503561133b565b610258611348565b610210600480360360208110156104e757600080fd5b503561134e565b6103386004803603602081101561050457600080fd5b810190602081018135600160201b81111561051e57600080fd5b82018360208201111561053057600080fd5b803590602001918460018302840111600160201b8311171561055157600080fd5b91908080601f0160208091040260200160405190810160405280939291908181526020018383808284376000920191909152509295506113a1945050505050565b610319600480360360808110156105a857600080fd5b6001600160a01b038235169190810190604081016020820135600160201b8111156105d257600080fd5b8201836020820111156105e457600080fd5b803590602001918460018302840111600160201b8311171561060557600080fd5b91908080601f0160208091040260200160405190810160405280939291908181526020018383808284376000920191909152509295949360208101935035915050600160201b81111561065757600080fd5b82018360208201111561066957600080fd5b803590602001918460018302840111600160201b8311171561068a57600080fd5b91908080601f0160208091040260200160405190810160405280939291908181526020018383808284376000920191909152509295949360208101935035915050600160201b8111156106dc57600080fd5b8201836020820111156106ee57600080fd5b803590602001918460018302840111600160201b8311171561070f57600080fd5b91908080601f01602080910402602001604051908101604052809392919081815260200183838082843760009201919091525092955061145a945050505050565b6103386004803603602081101561076657600080fd5b503561163f565b6102106004803603602081101561078357600080fd5b503561164c565b61025861169f565b6102586116a5565b6107a26116ab565b6040805160208082528351818301528351919283929083019185019080838360005b838110156107dc5781810151838201526020016107c4565b50505050905090810190601f1680156108095780820380516001836020036101000a031916815260200191505b509250505060405180910390f35b6102106004803603602081101561082d57600080fd5b5035611739565b6103386004803603602081101561084a57600080fd5b503561178c565b610338611799565b6103386004803603602081101561086f57600080fd5b810190602081018135600160201b81111561088957600080fd5b82018360208201111561089b57600080fd5b803590602001918460018302840111600160201b831117156108bc57600080fd5b91908080601f0160208091040260200160405190810160405280939291908181526020018383808284376000920191909152509295506117a8945050505050565b6103196004803603604081101561091357600080fd5b6001600160a01b038235169190810190604081016020820135600160201b81111561093d57600080fd5b82018360208201111561094f57600080fd5b803590602001918460018302840111600160201b8311171561097057600080fd5b91908080601f016020809104026020016040519081016040528093929190818152602001838380828437600092019190915250929550611861945050505050565b610338600480360360208110156109c757600080fd5b503561199c565b610319600480360360208110156109e457600080fd5b50356001600160a01b03166119a9565b61031960048036036020811015610a0a57600080fd5b50356001600160a01b0316611a76565b610258611b43565b610258611b49565b61033860048036036020811015610a4057600080fd5b5035611b4f565b61033860048036036020811015610a5d57600080fd5b5035611b5c565b610258611b69565b61031960048036036040811015610a8257600080fd5b6001600160a01b038235169190810190604081016020820135600160201b811115610aac57600080fd5b820183602082011115610abe57600080fd5b803590602001918460018302840111600160201b83111715610adf57600080fd5b91908080601f016020809104026020016040519081016040528093929190818152602001838380828437600092019190915250929550611b6f945050505050565b61021060048036036020811015610b3657600080fd5b5035611caa565b61021060048036036020811015610b5357600080fd5b5035611cfd565b61021060048036036020811015610b7057600080fd5b5035611d50565b61031960048036036040811015610b8d57600080fd5b810190602081018135600160201b811115610ba757600080fd5b820183602082011115610bb957600080fd5b803590602001918460018302840111600160201b83111715610bda57600080fd5b91908080601f016020809104026020016040519081016040528093929190818152602001838380828437600092019190915250929550505090356001600160a01b03169150611da39050565b61033860048036036020811015610c3c57600080fd5b5035612053565b61021060048036036020811015610c5957600080fd5b5035612060565b61031960048036036020811015610c7657600080fd5b810190602081018135600160201b811115610c9057600080fd5b820183602082011115610ca257600080fd5b803590602001918460018302840111600160201b83111715610cc357600080fd5b91908080601f0160208091040260200160405190810160405280939291908181526020018383808284376000920191909152509295506120b3945050505050565b6103386121c0565b6102586121cf565b61033860048036036020811015610d2a57600080fd5b50356121d5565b6102586121e2565b600080610d4b600680549050846121e8565b610d5a57506000905080610d91565b60068381548110610d6757fe5b6000918252602090912001546006546001600160a01b0390911690610d8c9085612203565b915091505b915091565b600080610da8600c80549050846121e8565b610db757506000905080610d91565b600c8381548110610dc457fe5b600091825260209091200154600c546001600160a01b0390911690610d8c9085612203565b6007545b90565b6004546001600160a01b03163214610e395760405162461bcd60e51b815260040180806020018281038252602f8152602001806122e0602f913960400191505060405180910390fd5b6040516020018080687369676e617475726560b81b815250600901905060405160208183030381529060405280519060200120826040516020018082805190602001908083835b60208310610e9f5780518252601f199092019160209182019101610e80565b6001836020036101000a038019825116818451168082178552505050505050905001915050604051602081830303815290604052805190602001201415610f3057600a80546001810182556000919091527fc65a7bb8d6351c1cf70c95a316cc6a92839c986682d98bc35f958f4883f9d2a80180546001600160a01b0319166001600160a01b038316179055611029565b60405160200180806e18d95c9d1a599a595917d95b585a5b608a1b815250600f01905060405160208183030381529060405280519060200120826040516020018082805190602001908083835b60208310610f9c5780518252601f199092019160209182019101610f7d565b6001836020036101000a03801982511681845116808217855250505050505090500191505060405160208183030381529060405280519060200120141561102957600b80546001810182556000919091527f0175b7a638427703f0dbe7bb9bbf987a2551717b34e79f33b5b1008d1fa01db90180546001600160a01b0319166001600160a01b0383161790555b7f153594e72b817d485e2869681e89c7d4380a6c15a2024abbeefdc6e75995102f818360405180836001600160a01b03166001600160a01b0316815260200180602001828103825283818151815260200191508051906020019080838360005b838110156110a1578181015183820152602001611089565b50505050905090810190601f1680156110ce5780820380516001836020036101000a031916815260200191505b50935050505060405180910390a15050565b600981815481106110ed57fe5b6000918252602090912001546001600160a01b0316905081565b6000806001600160a01b03166011836040518082805190602001908083835b602083106111455780518252601f199092019160209182019101611126565b51815160209384036101000a60001901801990921691161790529201948552506040519384900301909220546001600160a01b03169290921415915061118f9050575060006111fb565b6011826040518082805190602001908083835b602083106111c15780518252601f1990920191602091820191016111a2565b51815160209384036101000a60001901801990921691161790529201948552506040519384900301909220546001600160a01b0316925050505b919050565b6004546001600160a01b031632146112495760405162461bcd60e51b815260040180806020018281038252602f8152602001806122e0602f913960400191505060405180910390fd5b81600f826040518082805190602001908083835b6020831061127c5780518252601f19909201916020918201910161125d565b51815160209384036101000a600019018019909216911617905292019485525060408051948590038201852080546001600160a01b03199081166001600160a01b0398891617909155600680546001810182556000919091527ff652222313e28459528d920b65115c16c04f3efc82aaedc97be59f3f377c0d3f018054909116968916968717905594845293517f6e810e4496ec107fcad4184c63e69d6d90f2d83c7aaf9a6f3a2bbc428b8846b8949381900390930192915050a15050565b600e81815481106110ed57fe5b600e5490565b600080611360600780549050846121e8565b61136f57506000905080610d91565b6007838154811061137c57fe5b6000918252602090912001546007546001600160a01b0390911690610d8c9085612203565b6000806001600160a01b0316600f836040518082805190602001908083835b602083106113df5780518252601f1990920191602091820191016113c0565b51815160209384036101000a60001901801990921691161790529201948552506040519384900301909220546001600160a01b0316929092141591506114299050575060006111fb565b600f82604051808280519060200190808383602083106111c15780518252601f1990920191602091820191016111a2565b6005546001600160a01b031632148061147d57506004546001600160a01b031632145b6114b85760405162461bcd60e51b815260040180806020018281038252602f8152602001806122b1602f913960400191505060405180910390fd5b7f606fab2fd17b85e25a10184e6da37b2208fa4530adeb693b21d5803a0ff922588484848460405180856001600160a01b03166001600160a01b03168152602001806020018060200180602001848103845287818151815260200191508051906020019080838360005b8381101561153a578181015183820152602001611522565b50505050905090810190601f1680156115675780820380516001836020036101000a031916815260200191505b50848103835286518152865160209182019188019080838360005b8381101561159a578181015183820152602001611582565b50505050905090810190601f1680156115c75780820380516001836020036101000a031916815260200191505b50848103825285518152855160209182019187019080838360005b838110156115fa5781810151838201526020016115e2565b50505050905090810190601f1680156116275780820380516001836020036101000a031916815260200191505b5097505050505050505060405180910390a150505050565b600881815481106110ed57fe5b60008061165e600d80549050846121e8565b61166d57506000905080610d91565b600d838154811061167a57fe5b600091825260209091200154600d546001600160a01b0390911690610d8c9085612203565b600a5490565b600b5490565b6003805460408051602060026001851615610100026000190190941693909304601f810184900484028201840190925281815292918301828280156117315780601f1061170657610100808354040283529160200191611731565b820191906000526020600020905b81548152906001019060200180831161171457829003601f168201915b505050505081565b60008061174b600880549050846121e8565b61175a57506000905080610d91565b6008838154811061176757fe5b6000918252602090912001546008546001600160a01b0390911690610d8c9085612203565b600d81815481106110ed57fe5b6004546001600160a01b031681565b6000806001600160a01b03166010836040518082805190602001908083835b602083106117e65780518252601f1990920191602091820191016117c7565b51815160209384036101000a60001901801990921691161790529201948552506040519384900301909220546001600160a01b0316929092141591506118309050575060006111fb565b601082604051808280519060200190808383602083106111c15780518252601f1990920191602091820191016111a2565b6004546001600160a01b031632146118aa5760405162461bcd60e51b815260040180806020018281038252602f8152602001806122e0602f913960400191505060405180910390fd5b816011826040518082805190602001908083835b602083106118dd5780518252601f1990920191602091820191016118be565b51815160209384036101000a600019018019909216911617905292019485525060408051948590038201852080546001600160a01b03199081166001600160a01b0398891617909155600e80546001810182556000919091527fbb7b4a454dc3493923482f07822329ed19e8244eff582cc204f8554c3620c3fd018054909116968916968717905594845293517f83f6f626c1a7bb935e511aed9ae646cd24de53fb86ce032632fef62d2f573462949381900390930192915050a15050565b600b81815481106110ed57fe5b6004546001600160a01b031632146119f25760405162461bcd60e51b815260040180806020018281038252602f8152602001806122e0602f913960400191505060405180910390fd5b600780546001810182556000919091527fa66cc928b5edb82af9bd49922954155ab7b0942694bea4ce44661d9a8736c6880180546001600160a01b0383166001600160a01b0319909116811790915560408051918252517f789ba6f7cf2054e80c94618ed522f3f52ea04a6d85eac2eda1ff5b88c9a0e9a79181900360200190a150565b6004546001600160a01b03163214611abf5760405162461bcd60e51b815260040180806020018281038252602f8152602001806122e0602f913960400191505060405180910390fd5b600d80546001810182556000919091527fd7b6990105719101dabeb77144f2a3385c8033acd3af97e9423a695e81ad1eb50180546001600160a01b0383166001600160a01b0319909116811790915560408051918252517f6697c31d0c16a2d80cf5bde8e7ed12c5fb8d8c5ca0f1364a9caa0a56b39c54579181900360200190a150565b600c5490565b60085490565b600a81815481106110ed57fe5b600681815481106110ed57fe5b600d5490565b6004546001600160a01b03163214611bb85760405162461bcd60e51b815260040180806020018281038252602f8152602001806122e0602f913960400191505060405180910390fd5b816010826040518082805190602001908083835b60208310611beb5780518252601f199092019160209182019101611bcc565b51815160209384036101000a600019018019909216911617905292019485525060408051948590038201852080546001600160a01b03199081166001600160a01b0398891617909155600c80546001810182556000919091527fdf6966c971051c3d54ec59162606531493a51404a002842f56009d7e5cf4a8c7018054909116968916968717905594845293517f5df292efd50cbb25e17f64216e52404df76c8f7effc90cd6e1566d56a6fea45a949381900390930192915050a15050565b600080611cbc600a80549050846121e8565b611ccb57506000905080610d91565b600a8381548110611cd857fe5b600091825260209091200154600a546001600160a01b0390911690610d8c9085612203565b600080611d0f600980549050846121e8565b611d1e57506000905080610d91565b60098381548110611d2b57fe5b6000918252602090912001546009546001600160a01b0390911690610d8c9085612203565b600080611d62600b80549050846121e8565b611d7157506000905080610d91565b600b8381548110611d7e57fe5b600091825260209091200154600b546001600160a01b0390911690610d8c9085612203565b6004546001600160a01b03163214611dec5760405162461bcd60e51b815260040180806020018281038252602f8152602001806122e0602f913960400191505060405180910390fd5b6040516020018080687369676e617475726560b81b815250600901905060405160208183030381529060405280519060200120826040516020018082805190602001908083835b60208310611e525780518252601f199092019160209182019101611e33565b6001836020036101000a038019825116818451168082178552505050505050905001915050604051602081830303815290604052805190602001201415611ee357600880546001810182556000919091527ff3f7a9fe364faab93b216da50a3214154f22a0a2b415b23a84c8169e8b636ee30180546001600160a01b0319166001600160a01b038316179055611fdc565b60405160200180806e18d95c9d1a599a595917d95b585a5b608a1b815250600f01905060405160208183030381529060405280519060200120826040516020018082805190602001908083835b60208310611f4f5780518252601f199092019160209182019101611f30565b6001836020036101000a038019825116818451168082178552505050505050905001915050604051602081830303815290604052805190602001201415611fdc57600980546001810182556000919091527f6e1540171b6c0c960b71a7020d9f60077f6af931a8bbf590da0223dacf75c7af0180546001600160a01b0319166001600160a01b0383161790555b7f771ad20575501c8cafc4a8793006515911d6e497fd5838018654c9b50347430c818360405180836001600160a01b03166001600160a01b031681526020018060200182810382528381815181526020019150805190602001908083836000838110156110a1578181015183820152602001611089565b600781815481106110ed57fe5b600080612072600e80549050846121e8565b61208157506000905080610d91565b600e838154811061208e57fe5b600091825260209091200154600e546001600160a01b0390911690610d8c9085612203565b6004546001600160a01b031632146120fc5760405162461bcd60e51b815260040180806020018281038252602f8152602001806122e0602f913960400191505060405180910390fd5b805161210f906003906020840190612218565b5060408051602080825260038054600260001961010060018416150201909116049183018290527f22b4eb86fca32b75cd9b81b9e6162fffbe60e087c7f1b597fb370a3df3436152939092918291820190849080156121af5780601f10612184576101008083540402835291602001916121af565b820191906000526020600020905b81548152906001019060200180831161219257829003601f168201915b50509250505060405180910390a150565b6005546001600160a01b031681565b60095490565b600c81815481106110ed57fe5b60065490565b60008282106121f9575060006121fd565b5060015b92915050565b60008160010183116121f95760009392505050565b828054600181600116156101000203166002900490600052602060002090601f016020900481019282601f1061225957805160ff1916838001178555612286565b82800160010185558215612286579182015b8281111561228657825182559160200191906001019061226b565b50612292929150612296565b5090565b610ded91905b80821115612292576000815560010161229c56fe4f6e6c7920616e20616c6c6f776564206163636f756e742063616e20706572666f726d207468697320616374696f6e4f6e6c79205369676e617475726974206163636f756e742063616e20706572666f726d207468697320616374696f6ea265627a7a723158206018501d403eb94b133c237439e2b257cd756b30fa4a3baab50d3fdb87f6bedc64736f6c634300050b0032",
  "source": "pragma solidity <0.6.0;\n\n/*\nGas to deploy: 2.511.966\n*/\n\nimport \"./interfaces/UserInterface.sol\";\n\n\ncontract User is UserInterface {\n    string public certificatePublicKey;\n\n    address public signaturitAddress;\n    address public userAddress;\n\n    address[] public signatures;\n    address[] public documents;\n    address[] public signatureFiles;\n    address[] public certifiedEmailFiles;\n    address[] public signatureEvents;\n    address[] public certifiedEmailEvents;\n    address[] public certifiedEmails;\n    address[] public certificates;\n    address[] public certifiedFiles;\n\n    mapping(string => address) private signaturesIndexes;\n    mapping(string => address) private certifiedEmailsIndexes;\n    mapping(string => address) private certifiedFilesIndexes;\n\n    event SignatureAdded(address adr);\n    event DocumentAdded(address adr);\n    event FileAdded(address adr, string source);\n    event EventAdded(address adr, string source);\n    event CertifiedEmailAdded(address adr);\n    event CertificatePublickeySet(string key);\n    event CertificateAdded(address adr);\n    event CertifiedFileAdded(address adr);\n    event ClauseNotification(\n        address clauseContract,\n        string clauseType,\n        string notificationType,\n        string id\n    );\n\n    constructor (address _userAddress) public {\n        signaturitAddress = msg.sender;\n        userAddress = _userAddress;\n    }\n\n    modifier signaturitOnly() {\n        require(\n            tx.origin == signaturitAddress,\n            \"Only Signaturit account can perform this action\"\n        );\n\n        _;\n    }\n\n    modifier onlyAllowed() {\n        require(\n            tx.origin == userAddress || tx.origin == signaturitAddress,\n            \"Only an allowed account can perform this action\"\n        );\n\n        _;\n    }\n\n    function setCertificatePublicKey(\n        string memory key\n    )\n        public\n        signaturitOnly\n    {\n        certificatePublicKey = key;\n        emit CertificatePublickeySet(certificatePublicKey);\n    }\n\n    function addSignature(\n        address signatureAddress,\n        string memory id\n    )\n        public\n        signaturitOnly\n    {\n        signaturesIndexes[id] = signatureAddress;\n        signatures.push(signatureAddress);\n\n        emit SignatureAdded(signatureAddress);\n    }\n\n    function addDocument(\n        address documentAddress\n    )\n        public\n        signaturitOnly\n    {\n        documents.push(documentAddress);\n\n        emit DocumentAdded(documentAddress);\n    }\n\n    function addFile(\n        string memory fileType,\n        address fileAddress\n    )\n        public\n        signaturitOnly\n    {\n        if (\n            keccak256(\n                abi.encodePacked((fileType))\n            ) == keccak256(\n                abi.encodePacked((\"signature\"))\n            )\n        ) {\n            signatureFiles.push(fileAddress);\n        } else if (\n            keccak256(\n                abi.encodePacked((fileType))\n            ) == keccak256(\n                abi.encodePacked((\"certified_email\"))\n            )\n        ) {\n            certifiedEmailFiles.push(fileAddress);\n        }\n\n        emit FileAdded(fileAddress, fileType);\n    }\n\n    function addEvent(\n        string memory eventSource,\n        address eventAddress\n    )\n        public\n        signaturitOnly\n    {\n        if (\n            keccak256(\n                abi.encodePacked((eventSource))\n            ) == keccak256(\n                abi.encodePacked((\"signature\"))\n            )\n        ) {\n            signatureEvents.push(eventAddress);\n        } else if (\n            keccak256(\n                abi.encodePacked((eventSource))\n            ) == keccak256(\n                abi.encodePacked((\"certified_email\"))\n            )\n        ) {\n            certifiedEmailEvents.push(eventAddress);\n        }\n\n        emit EventAdded(eventAddress, eventSource);\n    }\n\n    function addCertifiedEmail(\n        address certifiedEmailAddress,\n        string memory id\n    )\n        public\n        signaturitOnly\n    {\n        certifiedEmailsIndexes[id] = certifiedEmailAddress;\n        certifiedEmails.push(certifiedEmailAddress);\n\n        emit CertifiedEmailAdded(certifiedEmailAddress);\n    }\n\n    function addCertificate(\n        address certificate\n    )\n        public\n        signaturitOnly\n    {\n        certificates.push(certificate);\n\n        emit CertificateAdded(certificate);\n    }\n\n    function addCertifiedFile(\n        address certifiedFileAddress,\n        string memory id\n    )\n        public\n        signaturitOnly\n    {\n        certifiedFilesIndexes[id] = certifiedFileAddress;\n        certifiedFiles.push(certifiedFileAddress);\n\n        emit CertifiedFileAdded(certifiedFileAddress);\n    }\n\n    function clauseNotification(\n        address clauseContract,\n        string memory clauseType,\n        string memory notificationType,\n        string memory id\n    )\n        public\n        onlyAllowed\n    {\n        emit ClauseNotification(\n            clauseContract,\n            clauseType,\n            notificationType,\n            id\n        );\n    }\n\n    function getSignatureById(\n        string memory id\n    )\n        public\n        view\n        returns (address)\n    {\n        if (signaturesIndexes[id] == address(0)) return address(0);\n\n        return signaturesIndexes[id];\n    }\n\n    function getSignature(\n        uint index\n    )\n        public\n        view\n        returns (address adr, bool more)\n    {\n        if (!_checkValidity(signatures.length, index)) return (address(0), false);\n\n        return (\n            signatures[index],\n            _moreIsFound(signatures.length, index)\n        );\n    }\n\n    function getDocument(\n        uint index\n    )\n        public\n        view\n        returns (address adr, bool more)\n    {\n        if (!_checkValidity(documents.length, index)) return (address(0), false);\n\n        return (\n            documents[index],\n            _moreIsFound(documents.length, index)\n        );\n    }\n\n    function getSignatureFile(\n        uint index\n    )\n        public\n        view\n        returns (address adr, bool more)\n    {\n        if (!_checkValidity(signatureFiles.length, index)) return (address(0), false);\n\n        return (\n            signatureFiles[index],\n            _moreIsFound(signatureFiles.length, index)\n        );\n    }\n\n    function getSignatureEvent(\n        uint index\n    )\n        public\n        view\n        returns (address adr, bool more)\n    {\n        if (!_checkValidity(signatureEvents.length, index)) return (address(0), false);\n\n        return (\n            signatureEvents[index],\n            _moreIsFound(signatureEvents.length, index)\n        );\n    }\n\n    function getCertifiedEmailById(\n        string memory id\n    )\n        public\n        view\n        returns (address)\n    {\n        if (certifiedEmailsIndexes[id] == address(0)) return address(0);\n\n        return certifiedEmailsIndexes[id];\n    }\n\n    function getCertifiedEmail(\n        uint index\n    )\n        public\n        view\n        returns (address adr, bool more)\n    {\n        if (!_checkValidity(certifiedEmails.length, index)) return (address(0), false);\n\n        return(\n            certifiedEmails[index],\n            _moreIsFound(certifiedEmails.length, index)\n        );\n    }\n\n    function getCertificate(\n        uint index\n    )\n        public\n        view\n        returns (address adr, bool more)\n    {\n        if (!_checkValidity(certificates.length, index)) return (address(0), false);\n\n        return(\n            certificates[index],\n            _moreIsFound(certificates.length, index)\n        );\n    }\n\n    function getCertifiedEmailFile(\n        uint index\n    )\n        public\n        view\n        returns (address adr, bool more)\n    {\n        if (!_checkValidity(certifiedEmailFiles.length, index)) return (address(0), false);\n\n        return (\n            certifiedEmailFiles[index],\n            _moreIsFound(certifiedEmailFiles.length, index)\n        );\n    }\n\n    function getCertifiedEmailEvent(\n        uint index\n    )\n        public\n        view\n        returns (address adr, bool more)\n    {\n        if (!_checkValidity(certifiedEmailEvents.length, index)) return (address(0), false);\n\n        return (\n            certifiedEmailEvents[index],\n            _moreIsFound(certifiedEmailEvents.length, index)\n        );\n    }\n\n    function getCertifiedFileById(\n        string memory id\n    )\n        public\n        view\n        returns (address)\n    {\n        if (certifiedFilesIndexes[id] == address(0)) return address(0);\n\n        return certifiedFilesIndexes[id];\n    }\n\n    function getCertifiedFile(\n        uint index\n    )\n        public\n        view\n        returns (address adr, bool more)\n    {\n        if (!_checkValidity(certifiedFiles.length, index)) return (address(0), false);\n\n        return (\n            certifiedFiles[index],\n            _moreIsFound(certifiedFiles.length, index)\n        );\n    }\n\n    function getSignaturesCount()\n        public\n        view\n        returns (uint256 count)\n    {\n        return signatures.length;\n    }\n\n    function getDocumentsCount()\n        public\n        view\n        returns (uint256 count)\n    {\n        return documents.length;\n    }\n\n    function getSignatureFilesCount()\n        public\n        view\n        returns (uint256 count)\n    {\n        return signatureFiles.length;\n    }\n\n    function getSignatureEventsCount()\n        public\n        view\n        returns (uint256 count)\n    {\n        return signatureEvents.length;\n    }\n\n    function getCertifiedEmailsCount()\n        public\n        view\n        returns (uint256 count)\n    {\n        return certifiedEmails.length;\n    }\n\n    function getCertificatesCount()\n        public\n        view\n        returns (uint256 count)\n    {\n        return certificates.length;\n    }\n\n    function getCertifiedEmailFilesCount()\n        public\n        view\n        returns (uint256 count)\n    {\n        return certifiedEmailFiles.length;\n    }\n\n    function getCertifiedEmailEventsCount()\n        public\n        view\n        returns (uint256 count)\n    {\n        return certifiedEmailEvents.length;\n    }\n\n    function getCertifiedFilesCount()\n        public\n        view\n        returns (uint256 count)\n    {\n        return certifiedFiles.length;\n    }\n\n    function _checkValidity(\n        uint length,\n        uint index\n    )\n        internal\n        pure\n        returns(bool)\n    {\n        if (index >= length) return false;\n\n        return true;\n    }\n\n    function _moreIsFound(\n        uint length,\n        uint index\n    )\n        internal\n        pure\n        returns (bool)\n    {\n        return length > index + 1 ? true : false;\n    }\n}\n",
  "sourcePath": "/home/administrator/workspace/signaturit-solidity-contracts/contracts/User.sol",
  "compiler": {
    "name": "solc",
    "version": "0.5.11+commit.c082d0b4.Emscripten.clang"
  },
  "schemaVersion": "3.0.11",
  "updatedAt": "2019-08-30T12:59:40.771Z",
  "devdoc": {
    "methods": {}
  },
  "userdoc": {
    "methods": {}
  }
}