{
  "contractName": "UserEvents",
  "abi": [
    {
      "constant": true,
      "inputs": [],
      "name": "userContract",
      "outputs": [
        {
          "name": "",
          "type": "address"
        }
      ],
      "payable": false,
      "stateMutability": "view",
      "type": "function"
    },
    {
      "constant": true,
      "inputs": [],
      "name": "signaturit",
      "outputs": [
        {
          "name": "",
          "type": "address"
        }
      ],
      "payable": false,
      "stateMutability": "view",
      "type": "function"
    },
    {
      "inputs": [
        {
          "name": "signaturitUser",
          "type": "address"
        }
      ],
      "payable": false,
      "stateMutability": "nonpayable",
      "type": "constructor"
    },
    {
      "anonymous": false,
      "inputs": [
        {
          "indexed": false,
          "name": "",
          "type": "address"
        }
      ],
      "name": "SignatureCreated",
      "type": "event"
    },
    {
      "anonymous": false,
      "inputs": [
        {
          "indexed": false,
          "name": "",
          "type": "address"
        }
      ],
      "name": "DocumentCreated",
      "type": "event"
    },
    {
      "anonymous": false,
      "inputs": [
        {
          "indexed": false,
          "name": "",
          "type": "address"
        }
      ],
      "name": "FileCreated",
      "type": "event"
    },
    {
      "anonymous": false,
      "inputs": [
        {
          "indexed": false,
          "name": "",
          "type": "address"
        }
      ],
      "name": "EventCreated",
      "type": "event"
    },
    {
      "anonymous": false,
      "inputs": [
        {
          "indexed": false,
          "name": "",
          "type": "address"
        }
      ],
      "name": "CertifiedFileCreated",
      "type": "event"
    },
    {
      "anonymous": false,
      "inputs": [
        {
          "indexed": false,
          "name": "",
          "type": "address"
        }
      ],
      "name": "CertifiedEmailCreated",
      "type": "event"
    },
    {
      "anonymous": false,
      "inputs": [
        {
          "indexed": false,
          "name": "",
          "type": "address"
        }
      ],
      "name": "CertificateCreated",
      "type": "event"
    },
    {
      "anonymous": false,
      "inputs": [
        {
          "indexed": false,
          "name": "",
          "type": "address"
        }
      ],
      "name": "TimeLogAdded",
      "type": "event"
    },
    {
      "anonymous": false,
      "inputs": [
        {
          "indexed": false,
          "name": "",
          "type": "address"
        }
      ],
      "name": "PaymentCheckAdded",
      "type": "event"
    },
    {
      "constant": false,
      "inputs": [
        {
          "name": "eventType",
          "type": "string"
        },
        {
          "name": "addr",
          "type": "address"
        }
      ],
      "name": "notify",
      "outputs": [],
      "payable": false,
      "stateMutability": "nonpayable",
      "type": "function"
    }
  ],
  "bytecode": "0x60806040523480156200001157600080fd5b5060405160208062001444833981018060405260208110156200003357600080fd5b505160008054600160a060020a03199081163317825560018054600160a060020a03808616919093161790819055604080518082018252600b81527f757365725f6576656e74730000000000000000000000000000000000000000006020820190815282517f34311d8e00000000000000000000000000000000000000000000000000000000815230602482018190526004820194855283516044830152835195909616966334311d8e9693959394938493606490930192918190849084905b838110156200010d578181015183820152602001620000f3565b50505050905090810190601f1680156200013b5780820380516001836020036101000a031916815260200191505b509350505050600060405180830381600087803b1580156200015c57600080fd5b505af115801562000171573d6000803e3d6000fd5b5050600154604080518082018252600e81527f66696c652d6e6f746966696572730000000000000000000000000000000000006020820190815282517fd661f878000000000000000000000000000000000000000000000000000000008152306024820181905260048201948552835160448301528351600160a060020a03909616975063d661f8789650929492939283926064909201919080838360005b838110156200022a57818101518382015260200162000210565b50505050905090810190601f168015620002585780820380516001836020036101000a031916815260200191505b509350505050600060405180830381600087803b1580156200027957600080fd5b505af11580156200028e573d6000803e3d6000fd5b5050600154604080518082018252600f81527f6576656e742d6e6f7469666965727300000000000000000000000000000000006020820190815282517fd661f878000000000000000000000000000000000000000000000000000000008152306024820181905260048201948552835160448301528351600160a060020a03909616975063d661f8789650929492939283926064909201919080838360005b83811015620003475781810151838201526020016200032d565b50505050905090810190601f168015620003755780820380516001836020036101000a031916815260200191505b509350505050600060405180830381600087803b1580156200039657600080fd5b505af1158015620003ab573d6000803e3d6000fd5b5050600154604080518082018252601281527f646f63756d656e742d6e6f7469666965727300000000000000000000000000006020820190815282517fd661f878000000000000000000000000000000000000000000000000000000008152306024820181905260048201948552835160448301528351600160a060020a03909616975063d661f8789650929492939283926064909201919080838360005b83811015620004645781810151838201526020016200044a565b50505050905090810190601f168015620004925780820380516001836020036101000a031916815260200191505b509350505050600060405180830381600087803b158015620004b357600080fd5b505af1158015620004c8573d6000803e3d6000fd5b5050600154604080518082018252601381527f7369676e61747572652d6e6f74696669657273000000000000000000000000006020820190815282517fd661f878000000000000000000000000000000000000000000000000000000008152306024820181905260048201948552835160448301528351600160a060020a03909616975063d661f8789650929492939283926064909201919080838360005b838110156200058157818101518382015260200162000567565b50505050905090810190601f168015620005af5780820380516001836020036101000a031916815260200191505b509350505050600060405180830381600087803b158015620005d057600080fd5b505af1158015620005e5573d6000803e3d6000fd5b5050600154604080518082018252601b81527f74696d656c6f676765722d636c617573652d6e6f7469666965727300000000006020820190815282517fd661f878000000000000000000000000000000000000000000000000000000008152306024820181905260048201948552835160448301528351600160a060020a03909616975063d661f8789650929492939283926064909201919080838360005b838110156200069e57818101518382015260200162000684565b50505050905090810190601f168015620006cc5780820380516001836020036101000a031916815260200191505b509350505050600060405180830381600087803b158015620006ed57600080fd5b505af115801562000702573d6000803e3d6000fd5b5050600154604080518082018252601581527f63657274696669636174652d6e6f7469666965727300000000000000000000006020820190815282517fd661f878000000000000000000000000000000000000000000000000000000008152306024820181905260048201948552835160448301528351600160a060020a03909616975063d661f8789650929492939283926064909201919080838360005b83811015620007bb578181015183820152602001620007a1565b50505050905090810190601f168015620007e95780820380516001836020036101000a031916815260200191505b509350505050600060405180830381600087803b1580156200080a57600080fd5b505af11580156200081f573d6000803e3d6000fd5b5050600154604080518082018252601881527f6365727469666965642d66696c652d6e6f7469666965727300000000000000006020820190815282517fd661f878000000000000000000000000000000000000000000000000000000008152306024820181905260048201948552835160448301528351600160a060020a03909616975063d661f8789650929492939283926064909201919080838360005b83811015620008d8578181015183820152602001620008be565b50505050905090810190601f168015620009065780820380516001836020036101000a031916815260200191505b509350505050600060405180830381600087803b1580156200092757600080fd5b505af11580156200093c573d6000803e3d6000fd5b5050600154604080518082018252601881527f7061796d656e742d636c617573652d6e6f7469666965727300000000000000006020820190815282517fd661f878000000000000000000000000000000000000000000000000000000008152306024820181905260048201948552835160448301528351600160a060020a03909616975063d661f8789650929492939283926064909201919080838360005b83811015620009f5578181015183820152602001620009db565b50505050905090810190601f16801562000a235780820380516001836020036101000a031916815260200191505b509350505050600060405180830381600087803b15801562000a4457600080fd5b505af115801562000a59573d6000803e3d6000fd5b5050600154604080518082018252601981527f6365727469666965642d656d61696c2d6e6f74696669657273000000000000006020820190815282517fd661f878000000000000000000000000000000000000000000000000000000008152306024820181905260048201948552835160448301528351600160a060020a03909616975063d661f8789650929492939283926064909201919080838360005b8381101562000b1257818101518382015260200162000af8565b50505050905090810190601f16801562000b405780820380516001836020036101000a031916815260200191505b509350505050600060405180830381600087803b15801562000b6157600080fd5b505af115801562000b76573d6000803e3d6000fd5b50505050506108b98062000b8b6000396000f3fe60806040526004361061003d5763ffffffff60e060020a6000350416635000596b8114610042578063e71e657614610073578063f9b5333514610133575b600080fd5b34801561004e57600080fd5b50610057610148565b60408051600160a060020a039092168252519081900360200190f35b34801561007f57600080fd5b506101316004803603604081101561009657600080fd5b8101906020810181356401000000008111156100b157600080fd5b8201836020820111156100c357600080fd5b803590602001918460018302840111640100000000831117156100e557600080fd5b91908080601f01602080910402602001604051908101604052809392919081815260200183838082843760009201919091525092955050509035600160a060020a031691506101579050565b005b34801561013f57600080fd5b50610057610686565b600154600160a060020a031681565b600061016283610695565b905061016c610727565b15156101e8576040805160e560020a62461bcd02815260206004820152603e60248201527f4f6e6c79205369676e617475726974206f7220612076616c696461746564206160448201527f63636f756e742063616e20706572666f726d207468697320616374696f6e0000606482015290519081900360840190fd5b6102266040805190810160405280601a81526020017f7369676e61747572652e636f6e74726163742e63726561746564000000000000815250610695565b81141561026e5760408051600160a060020a038416815290517f735b832c03a149d256b1d395abb3d0e54863e04dae2329052cc91f9abb88a1be9181900360200190a1610681565b6102ac6040805190810160405280601981526020017f646f63756d656e742e636f6e74726163742e6372656174656400000000000000815250610695565b8114156102f45760408051600160a060020a038416815290517fcedb53231390005e2902a8613032a78a6a91c4ff102e6f7564c7c142ae4c67bf9181900360200190a1610681565b61032d604080519081016040528060158152602001605a60020a74199a5b194b98dbdb9d1c9858dd0b98dc99585d195902815250610695565b8114156103755760408051600160a060020a038416815290517f31a209c0c6a6a197b980906ee1598da098dcdcb051bf49abbc4a935702c0a6039181900360200190a1610681565b6103b36040805190810160405280601681526020017f6576656e742e636f6e74726163742e6372656174656400000000000000000000815250610695565b8114156103fb5760408051600160a060020a038416815290517ffc8a4c0621b9788c4dbe57053a51ce2d22625a067d039f38004df2a07ca755a49181900360200190a1610681565b6104396040805190810160405280601f81526020017f6365727469666965645f66696c652e636f6e74726163742e6372656174656400815250610695565b8114156104815760408051600160a060020a038416815290517f55dd5963860faee854fc76b870480ec012e65456190e6350324502f6ce497a899181900360200190a1610681565b6104bf6040805190810160405280602081526020017f6365727469666965645f656d61696c2e636f6e74726163742e63726561746564815250610695565b8114156105075760408051600160a060020a038416815290517fb3b2252d277703187b39f3f71acfe27ba95a9319e7267a8f24f5496123ee06e59181900360200190a1610681565b6105456040805190810160405280601c81526020017f63657274696669636174652e636f6e74726163742e6372656174656400000000815250610695565b81141561058d5760408051600160a060020a038416815290517f78f27c111a2e7bb421940823aa6c5ec84b80c6dd5a84e940b6c4450d069b19e79181900360200190a1610681565b6105be6040805190810160405280600d8152602001609a60020a6c1d1a5b595b1bd9cb985919195902815250610695565b8114156106065760408051600160a060020a038416815290517f200a8251f973ada077be39569cdd80e21e1d9e615deed72f11c87265c7f92bb49181900360200190a1610681565b61063d604080519081016040528060138152602001606a60020a721c185e5b595b9d17d8da1958dacb985919195902815250610695565b8114156106815760408051600160a060020a038416815290517f783f89b9183cfe2d3ec7e6f5c6f036c9ca3def7880752a97f04a9063f6f79c7f9181900360200190a15b505050565b600054600160a060020a031681565b6000816040516020018080602001828103825283818151815260200191508051906020019080838360005b838110156106d85781810151838201526020016106c0565b50505050905090810190601f1680156107055780820380516001836020036101000a031916815260200191505b5092505050604051602081830303815290604052805190602001209050919050565b60008054819081908190600160a060020a031632141561074957506001610886565b60015460408051808201825260138152606860020a7276616c6964617465642d6e6f746966696572730260208201908152825160e260020a633ce8989d0281526024810187905260048101938452825160448201528251600160a060020a039095169463f3a26274948893909283926064909101919080838360005b838110156107dd5781810151838201526020016107c5565b50505050905090810190601f16801561080a5780820380516001836020036101000a031916815260200191505b50935050505060206040518083038186803b15801561082857600080fd5b505afa15801561083c573d6000803e3d6000fd5b505050506040513d602081101561085257600080fd5b50519250600160a060020a03831632141561086f57506000915060015b600190910190600160a060020a0383161515610749575b925050509056fea165627a7a72305820956e9c0d360cfc0103630cfcacf5de84308b2500e980caf5c38e73bc1b1e80c60029",
  "source": "pragma solidity <0.6.0;\n\n/*\nGas to deploy: 1.241.327\n*/\n\nimport \"./interfaces/NotifierInterface.sol\";\nimport \"./interfaces/SignaturitUserInterface.sol\";\n\nimport \"./libraries/Utils.sol\";\n\ncontract UserEvents is NotifierInterface {\n    address public signaturit;\n\n    SignaturitUserInterface public userContract;\n\n    string constant private USER_EVENTS = \"user_events\";\n\n    string constant private FILE_CREATED_EVENT = \"file.contract.created\";\n    string constant private EVENT_CREATED_EVENT = \"event.contract.created\";\n    string constant private TIMELOG_ADDED_EVENT = \"timelog.added\";\n    string constant private DOCUMENT_CREATED_EVENT = \"document.contract.created\";\n    string constant private SIGNATURE_CREATED_EVENT = \"signature.contract.created\";\n    string constant private PAYMENT_CHECK_ADDED_EVENT = \"payment_check.added\";\n    string constant private CERTIFICATE_CREATED_EVENT = \"certificate.contract.created\";\n    string constant private CERTIFIED_FILE_CREATED_EVENT = \"certified_file.contract.created\";\n    string constant private CERTIFIED_EMAIL_CREATED_EVENT = \"certified_email.contract.created\";\n\n    string constant private FILE_NOTIFIERS_KEY = \"file-notifiers\";\n    string constant private EVENT_NOTIFIERS_KEY = \"event-notifiers\";\n    string constant private DOCUMENT_NOTIFIERS_KEY = \"document-notifiers\";\n    string constant private SIGNATURE_NOTIFIERS_KEY = \"signature-notifiers\";\n    string constant private TIMELOGGER_NOTIFIERS_KEY = \"timelogger-clause-notifiers\";\n    string constant private CERTIFICATE_NOTIFIERS_KEY = \"certificate-notifiers\";\n    string constant private PAYMENT_CHECKS_NOTIFIERS_KEY = \"payment-clause-notifiers\";\n    string constant private CERTIFIED_FILE_NOTIFIERS_KEY = \"certified-file-notifiers\";\n    string constant private CERTIFIED_EMAIL_NOTIFIERS_KEY = \"certified-email-notifiers\";\n\n    string constant private VALIDATED_NOTIFIERS_KEY = \"validated-notifiers\";\n\n    event SignatureCreated(address);\n    event DocumentCreated(address);\n    event FileCreated(address);\n    event EventCreated(address);\n    event CertifiedFileCreated(address);\n    event CertifiedEmailCreated(address);\n    event CertificateCreated(address);\n    event TimeLogAdded(address);\n    event PaymentCheckAdded(address);\n\n    constructor (\n        address signaturitUser\n    )\n        public\n    {\n        signaturit = msg.sender;\n\n        userContract = SignaturitUserInterface(signaturitUser);\n\n        userContract.setAddressAttribute(USER_EVENTS, address(this));\n\n        userContract.setAddressArrayAttribute(FILE_NOTIFIERS_KEY, address(this));\n        userContract.setAddressArrayAttribute(EVENT_NOTIFIERS_KEY, address(this));\n        userContract.setAddressArrayAttribute(DOCUMENT_NOTIFIERS_KEY, address(this));\n        userContract.setAddressArrayAttribute(SIGNATURE_NOTIFIERS_KEY, address(this));\n        userContract.setAddressArrayAttribute(TIMELOGGER_NOTIFIERS_KEY, address(this));\n        userContract.setAddressArrayAttribute(CERTIFICATE_NOTIFIERS_KEY, address(this));\n        userContract.setAddressArrayAttribute(CERTIFIED_FILE_NOTIFIERS_KEY, address(this));\n        userContract.setAddressArrayAttribute(PAYMENT_CHECKS_NOTIFIERS_KEY, address(this));\n        userContract.setAddressArrayAttribute(CERTIFIED_EMAIL_NOTIFIERS_KEY, address(this));\n    }\n\n    function notify (\n        string memory eventType,\n        address addr\n    )\n        public\n    {\n        bytes32 bytes32event = Utils.keccak(eventType);\n\n        require(\n            validAddress(),\n            \"Only Signaturit or a validated account can perform this action\"\n        );\n\n        if (bytes32event == Utils.keccak(SIGNATURE_CREATED_EVENT)) {\n            emit SignatureCreated(addr);\n        } else if (bytes32event == Utils.keccak(DOCUMENT_CREATED_EVENT)) {\n            emit DocumentCreated(addr);\n        } else if (bytes32event == Utils.keccak(FILE_CREATED_EVENT)) {\n            emit FileCreated(addr);\n        } else if (bytes32event == Utils.keccak(EVENT_CREATED_EVENT)) {\n            emit EventCreated(addr);\n        } else if (bytes32event == Utils.keccak(CERTIFIED_FILE_CREATED_EVENT)) {\n            emit CertifiedFileCreated(addr);\n        } else if (bytes32event == Utils.keccak(CERTIFIED_EMAIL_CREATED_EVENT)) {\n            emit CertifiedEmailCreated(addr);\n        } else if (bytes32event == Utils.keccak(CERTIFICATE_CREATED_EVENT)) {\n            emit CertificateCreated(addr);\n        } else if (bytes32event == Utils.keccak(TIMELOG_ADDED_EVENT)) {\n            emit TimeLogAdded(addr);\n        } else if (bytes32event == Utils.keccak(PAYMENT_CHECK_ADDED_EVENT)) {\n            emit PaymentCheckAdded(addr);\n        }\n    }\n\n    function validAddress() internal view returns(bool){\n        address checkedAddress;\n        uint notificationIndex = 0;\n        bool result = false;\n\n        if (tx.origin == signaturit) {\n            result = true;\n\n        } else {\n            do {\n                checkedAddress = userContract.getAddressArrayAttribute(VALIDATED_NOTIFIERS_KEY, notificationIndex);\n\n                if (checkedAddress == tx.origin) {\n                    result = true;\n\n                    checkedAddress = address(0);\n                }\n\n                ++notificationIndex;\n            } while (checkedAddress != address(0));\n        }\n\n        return result;\n    }\n}",
  "sourcePath": "/home/administrator/workspace/signaturit-solidity-contracts/contracts/UserEvents.sol",
  "compiler": {
    "name": "solc",
    "version": "0.5.0+commit.1d4f565a.Emscripten.clang"
  },
  "schemaVersion": "2.0.3",
  "updatedAt": "2020-01-15T10:55:50.256Z"
}